:1000000020C100003DC100003BC1000039C100001B
:1000100037C1000035C1000033C1000031C100000C
:100020002FC100002DC100000C94773B0C9478394F
:1000300027C1000026C1000023C1000021C100002B
:100040001FC100000C94B93B1BC1000019C1000086
:1000500017C1000015C1000013C1000011C100004C
:100060000FC100000DC100000BC1000009C100005C
:1000700007C1000005C1000003C1000001C100006C
:10008000FFC00000FDC00000FBC00000F9C0000080
:10009000F7C00000F5C0000005A84CCDB2D44EB9A1
:1000A0003836A9020C50B9918688083CA6AAAA2A1B
:1000B000BE000000803F08000000BE922449123EAE
:1000C000ABAAAA2ABECDCCCC4C3E00000080BEAB71
:1000D000AAAAAA3E00000000BF000000803F000066
:1000E000000000084178D3BB4387D1133D190E3C73
:1000F000C3BD4282AD2B3E68EC8276BED98FE1A9AA
:100100003E4C80EFFFBE01C4FF7F3F0000000000B7
:1001100007634236B79BD8A71A39685618AEBAABF0
:10012000558C1D3CB7CC5763BD6DEDFD753EF61784
:100130007231BF000000803F5761726E696E673A8E
:100140002061737369676E65725F676574566F6966
:10015000636546726F6D4E6F746520666F756E6471
:10016000206E6F20766F696365210A0062616420EA
:10017000666C697020666C6F70207374617475733F
:10018000203A20000A0000010000BD011200020018
:1001900000CF012200220000F1011500210000E142
:1001A000010900030000060204010309040A021405
:1001B00002030904200220000001C12600120100F0
:1001C0000200000020C016790400010102000109AC
:1001D000022200010100C0320904000001030000F6
:1001E00000092111010001221500070583032000E9
:1001F000010631FF0974A1537508150026FF00950B
:100200002009758102C004030904140359006F001A
:100210007500720020004E0061006D006500000056
:10022000200359006F007500720020005500530034
:10023000420020004400650076006900630065000C
:10024000000011241FBECFEFD0E2DEBFCDBF10E112
:10025000A2EAB9E001C01D92AF3EB107E1F719E093
:10026000A0E0B1E0E8E6FCE900E00BBF02C00790C7
:100270000D92A23AB107D9F70E94C33B0C94324EBB
:10028000BFCE1F920F920FB60F9211240BB60F9292
:100290002F923F924F925F926F927F928F929F9296
:1002A000AF92BF92CF92DF92EF92FF920F931F9384
:1002B0002F933F934F935F936F937F938F939F936E
:1002C000AF93BF93EF93FF93CF93DF93CDB7DEB799
:1002D000AB97DEBFCDBF8091F50E982F9F71332471
:1002E00033949111312C982F937069F48091F40E0E
:1002F00081110C94460D832D0E942228832D0E948B
:100300009B148091F50E8F5F8093F50E1091730E04
:10031000112311F40C94F4108090610E9090620EF1
:10032000A090630EB090640E4B2D5527662777275B
:10033000452B462B472B11F00C94FB0C6091650E5E
:100340007091660E8091670E9091680E123011F4D4
:100350000C943B0D143011F40C94091120916D0E86
:1003600030916E0EDC01CB01880D991DAA1DBB1DBD
:100370008093610E9093620EA093630EB093640E0F
:1003800040E050E0305841095109A091690EB09108
:100390006A0E0E94D94D2FEF3FEF40E050E00E94DF
:1003A000E94DC9013093700E20936F0E2091C10E5C
:1003B00021FD02C00C9471102C0122FD02C00C948E
:1003C000830F3C0124FF02C00C94890F8091BC0B69
:1003D0009091BD0BA0E0B0E09058A109B1099BA39A
:1003E0008AA38091A60B85FF02C00C94FC101DA26D
:1003F0001CA280910B0C2224239481110C94420F97
:1004000001E041E050E05FA34EA3222011F40C94E0
:10041000520F8091F60B8095881F8827881F982F90
:1004200090279B8F882311F40C948A1181E59CE01E
:100430000E94D22389E59DE00E94D223A090750CF2
:10044000B090760C6201EE24D7FCE094FE2C2CA137
:100450003DA1A501AA27249FB12D3503C001529FBC
:10046000B00D811D9A1F34039A0BB00D811D9A1F88
:100470001124AA2797FDA095BA2F8C0D9D1DAE1DA6
:10048000BF1D2091740E3091750E820F931FA11D18
:10049000B11DB7FF02C00C942E12009751E0A507C2
:1004A000B10524F08FEF9FEFA0E0B0E06FB7F894B4
:1004B0009C01232F332726952695F22F56EC51BB0E
:1004C00040EC48B9E22FEE0F7E2F767070682071F5
:1004D000332722603E2F330F3072322BE07C3E2BCD
:1004E000F695F270F06215B878B93BB9FEB937E805
:1004F00031BB9695879596958795282F51BB48B91E
:10050000E82FEE0F782F7695221F2227221FFE2F2D
:10051000F6702F2B20688071992782609E2F990F8B
:100520009072982BE07C9E2B727015B828B99BB9FD
:100530007EB931BB51BB48B981E085B991E498B926
:1005400090ED9BB990EA9EB931BB51BB48B985B9D2
:1005500087E488B980EF8BB982EA8EB931BB6FBF6F
:100560008091800E9091810EA7019601280F391F6E
:10057000411D511DDA01C90157FF02C00C9421121F
:10058000BC01CD016115710531E08307910524F0AF
:100590006FEF7FEF80E090E086E00E942F164AA187
:1005A0005BA1B501AA27469FB12D5703C001749FD7
:1005B000B00D811D9A1F56039A0BB00D811D9A1F15
:1005C00011249301442737FD4095542F28A739A7BC
:1005D0004AA75BA7AA2797FDA095BA2F820F931F62
:1005E000A41FB51F20918C0E30918D0E820F931F8A
:1005F000A11DB11DB7FF02C00C941C12009731E081
:10060000A307B10524F08FEF9FEFA0E0B0E0BFB7E4
:10061000F8949C01232F332726952695E22F56EC3C
:1006200051BB40EC48B9722F770F672F6670606836
:10063000207133272260372F330F3072322B707CBA
:10064000372BE695E270E06215B868B93BB9EEB9B0
:1006500067E861BB9695879596958795282F51BB3E
:1006600048B9782F770F382F3695221F2227221F5F
:10067000E72FE6702E2B2068807199278260972FD4
:10068000990F9072982B707C972B327015B828B9FF
:100690009BB93EB961BB51BB48B971E075B981E402
:1006A00088B980EE8BB9E2EAEEB961BB51BB48B9BB
:1006B00075B9A7E4A8B9F0EFFBB9EEB961BBBFBF4C
:1006C00080917D0D90917E0DAFB6F8949C01232F03
:1006D000332726952695B22E51BB48B9122F110FFC
:1006E000B12FB670B068207133272260312F330FDD
:1006F0003072322B107C312B2B2D269522702062EC
:1007000015B8B8B93BB92EB961BB96958795969542
:100710008795282F51BB48B9B82FBB0F382F369576
:10072000221F2227221F1B2F1670212B2068807169
:10073000992782609B2F990F9072982BB07C9B2BEE
:10074000327015B828B99BB93EB961BB51BB48B9E5
:1007500075B985E488B980EB8BB980EA8EB961BB45
:1007600051BB48B975B9A8B9FBB9EEB961BBAFBE09
:100770008091F70B8095881F8827881F78277C8FAA
:10078000882309F44FC121100C94A511A22CB12C7F
:100790008CE28A9DF0018B9DF00D1124EF5AF34FEE
:1007A00084A095A04CA15DA19401AA27429FB12DE0
:1007B0005303B001349FB00D611D7A1F52037A0BB1
:1007C000B00D611D7A1F1124AB01662757FD60959E
:1007D000762F4C0D5D1D6E1D7F1D000F110BF80156
:1007E000EC58F14F80819181480F591F611D711D97
:1007F00077FF02C00C941712CB01BA016115710585
:1008000031E08307910524F06FEF7FEF80E090E007
:1008100081E00E942F16F801E058F14F808191810C
:10082000C80ED91EE11CF11CF7FE02C00C94F91190
:10083000C701B601C114D10441E0E406F10424F07B
:100840006FEF7FEF80E090E087E00E942F162AA1F3
:100850003BA1A401AA27249FB12D3503C001529FBB
:10086000B00D811D9A1F34039A0BB00D811D9A1F84
:100870001124AA2797FDA095BA2F28A539A54AA526
:100880005BA5820F931FA41FB51FF801E457F14F1A
:1008900020813181820F931FA11DB11DB7FF02C0BE
:1008A0000C94F411009731E0A307B10524F08FEF09
:1008B0009FEFA0E0B0E0EFB7F8949C01232F33271F
:1008C00026952695F22F66EC61BB50EC58B9722F35
:1008D000770F472F46704068207133272260372FEB
:1008E000330F3072322B707C372B2F2F26952270CE
:1008F000206215B848B93BB92EB947E841BB969577
:10090000879596958795282F61BB58B9782F770FD3
:10091000382F3695221F2227221FF72FF6702F2BF4
:100920002068807199278260972F990F9072982B79
:10093000707C972B327015B828B99BB93EB941BB72
:1009400061BB58B971E075B983E488B980EE8BB9A1
:10095000A2EAAEB941BB61BB58B975B9B7E4B8B941
:1009600010EF1BB9AEB941BBEFBF8CE28A9DF0011D
:100970008B9DF00D1124E358F24F80819181EFB7E8
:10098000F8949C01232F332726952695F22E61BBE0
:1009900058B9022F000FF02FF670F068207133273E
:1009A0002260302F330F3072322B007C302B2F2DF2
:1009B00026952270206215B8F8B93BB92EB941BB13
:1009C0009695879596958795282F61BB58B9F82FEE
:1009D000FF0F382F3695221F2227221F0F2F067058
:1009E000202B20688071992782609F2F990F907229
:1009F000982BF07C9F2B327015B828B99BB93EB963
:100A000041BB61BB58B975B9B8B980EB8BB980EA05
:100A10008EB941BB61BB58B975B9B8B91BB9AEB98C
:100A200041BBEFBF8091F80B8095881F8827881FF6
:100A300091E098279D8F882309F410C221100C940F
:100A4000CC11222D220F30E08CE2829FF001839F97
:100A5000F00D1124EF5AF34F44A155A16201EE2489
:100A6000D7FCE094FE2C0CA11DA1AA27049FB12D58
:100A70001503B001509FB00D611D7A1F14037A0B4E
:100A8000B00D611D7A1F11248EA1880F90E04B01DB
:100A9000AA2497FCA094BA2C8C0C9D1CAE1CBF1CE5
:100AA000880F991FFC01EC58F14F0190F081E02D67
:100AB0008E0E9F1EA11CB11CB7FE02C00C94121218
:100AC0008114910411E0A106B1042CF088248A94C9
:100AD000982CA12CB12CB4011FB7F894F401EF2F7E
:100AE000FF27E695E695AE2EB6ECB1BBA0ECA8B913
:100AF000BE2EBB0C0B2D06700068E071FF27E26074
:100B0000FB2DFF0FF072FE2BEB2DE07CFE2BEA2D70
:100B1000E695E270E06215B808B9FBB9EEB9F7E8FE
:100B2000F1BB7695679576956795E62FB1BBA8B929
:100B3000B62EBB0C062F0695EE1FEE27EE1F0F2ECE
:100B4000F6E0AF2EF02DAB20EA29E0686071772740
:100B500062607B2D770F7072762B6B2D607C762B0D
:100B6000027015B8E8B97BB90EB9F1BBB1BBA8B931
:100B700061E065B975E478B970ED7BB970EA7EB96A
:100B8000F1BBB1BBA8B965B967E468B960EF6BB9EF
:100B900062EA6EB9F1BB1FBFFC01E058F14F608102
:100BA0007181C60ED71EE11CF11CF7FE02C00C9429
:100BB0000D12C114D10461E0E606F1042CF0CC243E
:100BC000CA94DC2CE12CF12CAFB7F894B601672F56
:100BD000772766956695062FF6ECF1BBE0ECE8B951
:100BE000162F110FB12FB670B06860717727626051
:100BF000712F770F7072762B107C712B0695027017
:100C0000006215B8B8B97BB90EB977E871BBD69454
:100C1000C794D694C7946C2DF1BBE8B91C2D110F65
:100C2000BC2DB695661F6627661F012F0670602BC8
:100C3000606800E1C022DD2402E0C02A012F000F1D
:100C400000720C29107C012BB27015B868B90BB971
:100C5000BEB971BBF1BBE8B961E065B9B1E4B8B93F
:100C6000B0EEBBB9B0EABEB971BBF1BBE8B965B9CA
:100C700067E468B960EF6BB962EA6EB971BBAFBF88
:100C80000AA11BA1AA27049FB12D1503B001509FF3
:100C9000B00D611D7A1F14037A0BB00D611D7A1F10
:100CA00011246301EE24D7FCE094FE2CAB016627EF
:100CB00057FD6095762FC40ED51EE61EF71EFC016B
:100CC000E457F14F40815181C40ED51EE11CF11C47
:100CD000F7FE02C00C940812C114D10411E0E10621
:100CE000F1042CF0CC24CA94DC2CE12CF12CC601AC
:100CF0000FB7F894F601EF2FFF27E695E6957E2FC4
:100D000066EC61BB50EC58B9BE2FBB0FAB2FA67081
:100D1000A068E071FF27E2604B2F440F40724E2B1A
:100D2000B07C4B2B76957270706215B8A8B94BB930
:100D30007EB947E841BB9695879596958795782F1C
:100D400061BB58B9F82FFF0FE82FE695771F77277B
:100D5000771FAF2FA6707A2B7068807199278260F9
:100D60009F2F990F9072982BF07C9F2BE27015B8F3
:100D700078B99BB9EEB941BB61BB58B9A1E0A5B93F
:100D800085E488B980EE8BB972EA7EB941BB61BB5C
:100D900058B9A5B917E418B9B0EFBBB97EB941BBD2
:100DA0000FBF8CE2829FF001839FF00D1124E35866
:100DB000F24F80819181EFB7F8949C01232F332764
:100DC00026952695F22E61BB58B9022F000FF02F01
:100DD000F670F068207133272260302F330F3072A5
:100DE000322B007C302B2F2D26952270206215B8D7
:100DF000F8B93BB92EB941BB9695879596958795DD
:100E0000282F61BB58B9F82FFF0F382F3695221FB6
:100E10002227221F0F2F0670202B20688071992710
:100E200082609F2F990F9072982BF07C9F2B3270CD
:100E300015B828B99BB93EB941BB61BB58B9A5B932
:100E400081E488B980EB8BB97EB941BB61BB58B9ED
:100E5000A5B918B9BBB97EB941BBEFBF8091F90BF9
:100E60008095881F8827881F91E098279E8F882368
:100E700009F411C221100C94C211A22DAA0FA20DC7
:100E8000EA2FF0E02CE2A29FD0011124AF5AB34F19
:100E900094962D913C9195976201EE24D7FCE094B5
:100EA000FE2C0CA11DA1AA27029FB12D1303A001A6
:100EB000309FB00D411D5A1F12035A0BB00D411D3A
:100EC0005A1F11249EA1892F880F890F90E04A0193
:100ED000AA2497FCA094BA2C8C0C9D1CAE1CBF1CA1
:100EE000880F991FDC01AC58B14F6D917C91860E33
:100EF000971EA11CB11CB7FE02C00C9403128114F2
:100F0000910411E0A106B1042CF088248A94982C55
:100F1000A12CB12CA4011FB7F894B401672F772737
:100F200066956695A62EB6ECB1BBA0ECA8B9B62E18
:100F3000BB0C0B2D067000686071772762607B2DFB
:100F4000770F7072762B6B2D607C762B6A2D6695F1
:100F50006270606215B808B97BB96EB977E871BB89
:100F60005695479556954795642FB1BBA8B9B42EB1
:100F7000BB0C042F0695661F6627661F0F2EF6E032
:100F8000AF2EF02DAB206A29606840715527426072
:100F90005B2D550F5072542B4B2D407C542B0270FF
:100FA00015B868B95BB90EB971BBB1BBA8B951E04E
:100FB00055B947E448B960ED6BB960EA6EB971BBE9
:100FC000B1BBA8B955B948B940EF4BB942EA4EB9DF
:100FD00071BB1FBFDC01A058B14F4D915C91C40E95
:100FE000D51EE11CF11CF7FE02C00C94EF11C114D8
:100FF000D10441E0E406F1042CF0CC24CA94DC2CAA
:10100000E12CF12CAFB7F894A601452F5527469552
:101010004695042F76EC71BB60EC68B9142F110F64
:10102000B12FB670B068407155274260512F550FEF
:101030005072542B107C512B06950270006215B82B
:10104000B8B95BB90EB957E851BBD694C794D694DA
:10105000C7944C2D71BB68B91C2D110FBC2DB695D2
:10106000441F4427441F012F0670402B406800E1B5
:10107000C022DD2402E0C02A012F000F00720C29DB
:10108000107C012BB27015B848B90BB9BEB951BB71
:1010900071BB68B941E045B9B3E4B8B9B0EEBBB9CA
:1010A000B0EABEB951BB71BB68B945B947E448B9AC
:1010B00040EF4BB942EA4EB951BBAFBF0AA11BA1E9
:1010C000AA27029FB12D1303A001309FB00D411D2F
:1010D0005A1F12035A0BB00D411D5A1F11246301F0
:1010E000EE24D7FCE094FE2C662757FD6095762F02
:1010F000C40ED51EE61EF71EDC01A457B14F2D917C
:101100003C91C20ED31EE11CF11CF7FE02C00C94F0
:10111000EA11C114D10411E0E106F1042CF0CC2451
:10112000CA94DC2CE12CF12CC601AFB7F8949601DF
:10113000232F332726952695B22F66EC61BB50EC02
:1011400058B9722F770F472F4670406820713327A8
:101150002260372F330F3072322B707C372B2B2FBE
:1011600026952270206215B848B93BB92EB947E8D8
:1011700041BB9695879596958795282F61BB58B961
:10118000782F770F382F3695221F2227221FB72F4F
:10119000B6702B2B2068807199278260972F990F4A
:1011A0009072982B707C972B327015B828B99BB928
:1011B0003EB941BB61BB58B911E015B907E408B9A4
:1011C00080EE8BB972EA7EB941BB61BB58B915B9E3
:1011D00008B9B0EFFB2EFBB87EB941BBAFBF8CE2C4
:1011E0008E9FD0018F9FB00D1124A358B24F8D91C7
:1011F0009C91EFB7F8949C01232F332726952695D1
:10120000B22F61BB58B9A22FAA0FFA2FF670F0685F
:101210002071332722603A2F330F3072322BA07C9B
:101220003A2BB695B270B06215B8F8B93BB9BEB9F1
:1012300041BB9695879596958795282F61BB58B9A0
:10124000F82FFF0F382F3695221F2227221FAF2F8E
:10125000A6702A2B20688071992782609F2F990F92
:101260009072982BF07C9F2B327015B828B99BB9DF
:101270003EB941BB61BB58B915B983E488B980EB6D
:101280008BB97EB941BB61BB58B915B908B9FBB878
:101290007EB941BBEFBF8091FA0B8095881F8827EC
:1012A000881F91E098279F8F882309F45BC1211044
:1012B0000C94B811022D000F000F10E08CE2809FFB
:1012C000F001819FF00D1124EF5AF34FE4A0F5A037
:1012D0004201AA2497FCA094BA2C2CA13DA1A701FD
:1012E000AA27249FB12D3503C001529FB00D811D47
:1012F0009A1F34039A0BB00D811D9A1F1124CEA0A2
:10130000CC0CCC0CD12CAA2797FDA095BA2F880D18
:10131000991DAA1DBB1DCC0CDD1CF601EC58F14F2C
:1013200020813181820F931FA11DB11DB7FF02C023
:101330000C94FE11BC01CD016115710551E08507CA
:10134000910524F06FEF7FEF80E090E084E00E9451
:101350002F16F601E058F14F80819181880E991E79
:10136000A11CB11CB7FE02C00C94E511C501B4016B
:1013700081149104A1E0AA06B10424F06FEF7FEF7D
:1013800080E090E08AE00E942F164AA15BA1B7019D
:10139000AA27469FB12D57039001749FB00D211DC0
:1013A0003A1F56033A0BB00D211D3A1F1124C301F9
:1013B000AA2797FDA095BA2FA901662757FD60952A
:1013C000762F840F951FA61FB71FF601E457F14F24
:1013D00020813181820F931FA11DB11DB7FF01C074
:1013E000F0C7009771E0A707B10524F08FEF9FEFDA
:1013F000A0E0B0E0EFB7F8949C01232F33272695A7
:101400002695F22F66EC61BB50EC58B9722F770F1E
:10141000472F46704068207133272260372F330FE3
:101420003072322B707C372B2F2F26952270206242
:1014300015B848B93BB92EB947E841BB9695879591
:1014400096958795282F61BB58B9782F770F382F3D
:101450003695221F2227221FF72FF6702F2B206888
:10146000807199278260972F990F9072982B707CCA
:10147000972B327015B828B99BB93EB941BB61BBF7
:1014800058B971E075B981E488B9B0EBEB2EEBB8CF
:1014900080EA8EB941BB61BB58B975B987E4F82EB3
:1014A000F8B8B0EFBBB9A2EAAEB941BBEFBF8CE26E
:1014B000809FF001819FF00D1124E358F24F80814D
:1014C0009181EFB7F8949C01232F33272695269519
:1014D000022F61BB58B9122F110FF12FF670F0686F
:1014E000207133272260312F330F3072322B107C62
:1014F000312B06950270006215B8F8B93BB90EB9E8
:1015000041BB9695879596958795282F61BB58B9CD
:10151000F82FFF0F382F3695221F2227221F1F2F4B
:101520001670212B20688071992782609F2F990F58
:101530009072982BF07C9F2B327015B828B99BB90C
:101540003EB941BB61BB58B975B985E488B9EBB800
:10155000AEB941BB61BB58B975B9F8B8BBB9AEB942
:1015600041BBEFBF8091FB0B8095881F8827881FA8
:1015700091E0982798A3882309F40CC22110EFC6A4
:10158000E22DEE0FEE0FE20D4E2F50E08CE2E89FC1
:10159000F0011124EF5AF34F24A135A16201EE248A
:1015A000D7FCE094FE2C0CA11DA1AA27029FB12D0F
:1015B0001303B001309FB00D611D7A1F12037A0B27
:1015C000B00D611D7A1F11249EA1892F880F880FED
:1015D000890F90E04B01AA2497FCA094BA2C8C0CA4
:1015E0009D1CAE1CBF1C880F991FFC01EC58F14FCD
:1015F0000190F081E02D8E0E9F1EA11CB11CB7FC46
:10160000DCC68114910411E0A106B1042CF08824F9
:101610008A94982CA12CB12CB4011FB7F894F40132
:10162000EF2FFF27E695E695AE2EB6ECB1BBA0EC0A
:10163000A8B9BE2EBB0C0B2D06700068E071FF2709
:10164000E260FB2DFF0FF072FE2BEB2DE07CFE2BFA
:10165000EA2DE695E270E06215B808B9FBB9EEB97B
:10166000F7E8F1BB7695679576956795E62FB1BB60
:10167000A8B9B62EBB0C062F0695EE1FEE27EE1F5F
:101680000F2EF6E0AF2EF02DAB20EA29E068607156
:10169000772762607B2D770F7072762B6B2D607CC5
:1016A000762B027015B8E8B97BB90EB9F1BBB1BBA6
:1016B000A8B971E075B963E468B960ED6BB962EA25
:1016C0006EB9F1BBB1BBA8B975B977E478B970EF61
:1016D0007BB96EB9F1BB1FBFFC01E058F14F6081CF
:1016E0007181C60ED71EE11CF11CF7FCB3C6C114F4
:1016F000D10461E0E606F1042CF0CC24CA94DC2C81
:10170000E12CF12CAFB7F894B601672F77276695D7
:101710006695062FF6ECF1BBE0ECE8B9162F110F39
:10172000B12FB670B068607177276260712F770F44
:101730007072762B107C712B602F669562706062E0
:1017400015B8B8B97BB96EB9B7E8B1BBD694C79430
:10175000D694C7947C2DF1BBE8B90C2D000F1C2D3D
:101760001695771F7727771F602F6670762B706826
:1017700060E1C622DD2462E0C62A602F660F607237
:101780006C29007C602B127015B878B96BB91EB942
:10179000B1BBF1BBE8B971E075B967E468B910EEA7
:1017A0001BB910EA1EB9B1BBF1BBE8B975B968B98C
:1017B00060EF6BB962EA6EB9B1BBAFBF0AA11BA102
:1017C000AA27029FB12D1303B001309FB00D611DF8
:1017D0007A1F12037A0BB00D611D7A1F1124830149
:1017E000222717FD2095322F6B01EE24D7FCE094C1
:1017F000FE2C0C0D1D1D2E1D3F1DFC01E457F14F4D
:1018000080819181080F191F211D311D37FD1EC6D2
:101810000115110561E02607310524F00FEF1FEFD8
:1018200020E030E0EFB7F894C801892F992786951A
:101830008695682FA6ECA1BB70EC78B9382F330FD2
:10184000232F26702068807199278260932F990F2B
:101850009072982B307C932B862F869582708062B5
:1018600015B828B99BB98EB967E861BB169507957D
:1018700016950795902FA1BB78B9302F330F202FE5
:101880002695991F9927991F832F8670982B90680A
:10189000007111270260832F880F8072802B307CAB
:1018A000832B227015B898B98BB92EB961BBA1BB37
:1018B00078B9B1E0B5B983E488B9F0EBEF2EEBB8B5
:1018C00080EA8EB961BBA1BB78B9B5B907E408B9A4
:1018D00010EFF12EFBB812EA1EB961BBEFBF8CE22C
:1018E000849FF001859FF00D1124E358F24F808111
:1018F00091815FB7F8949C01232F33272695269575
:10190000F22FA1BB78B9E22FEE0F4E2F4670406840
:101910002071332722603E2F330F3072322BE07C50
:101920003E2B2F2F26952270206215B848B93BB95F
:101930002EB961BB9695879596958795282FA1BB63
:1019400078B9482F440F382F3695221F2227221F9F
:10195000E42FE6702E2B2068807199278260942FE7
:10196000990F9072982B407C942B327015B828B93F
:101970009BB93EB961BBA1BB78B9B5B908B9EBB8A1
:101980001EB961BBA1BB78B9B5B908B9FBB81EB91E
:1019900061BB5FBF75E37A95F1F700003110A5C315
:1019A000AB960FB6F894DEBF0FBECDBFDF91CF91DF
:1019B000FF91EF91BF91AF919F918F917F916F9127
:1019C0005F914F913F912F911F910F91FF90EF9059
:1019D000DF90CF90BF90AF909F908F907F906F904F
:1019E0005F904F903F902F900F900BBE0F900FBEC7
:1019F0000F901F901895E1E08091720EE81BE09324
:101A0000720EE11167C4C12CD12C7601C092610E17
:101A1000D092620EE092630EF092640E20916B0EF3
:101A200030916C0E40E050E00090710E04C0220F27
:101A3000331F441F551F0A94D2F7FF27E1950CF47A
:101A4000F095DF01AA0FBB1F11960E94E34D609332
:101A5000650E7093660E8093670E9093680E11303A
:101A600009F40CC7133009F4EFC6460157011230D0
:101A700011F00C94AA01FF24EB2CDA2CC92C96014E
:101A8000D0926E0EC0926D0E0C94B2018091F20E47
:101A90009091F30E4091980E5091990E2091740EF2
:101AA0003091750E2417350708F021C4421B530BE3
:101AB0008417950708F4AC01420F531F5093750E1D
:101AC0004093740E4091A40E5091A50E2091800E6B
:101AD0003091810E2417350708F4C5C44217530707
:101AE00070F4B901641B750BAB018617970708F4F6
:101AF000EEC6241B350B3093810E2093800E40914F
:101B0000B00E5091B10E20918C0E30918D0E241795
:101B1000350708F4FCC44217530770F4D901A41B1D
:101B2000B50BAD018A179B0708F4B3C6241B350B10
:101B300030938D0E20938C0E40919A0E50919B0EF7
:101B40002091760E3091770E2417350708F4D2C411
:101B50004217530770F48901041B150BA801801765
:101B6000910708F49AC6241B350B3093770E209307
:101B7000760E4091A60E5091A70E2091820E3091C4
:101B8000830E2417350708F452C54217530770F423
:101B9000B901641B750BAB018617970708F47BC668
:101BA000241B350B3093830E2093820E4091B20E8E
:101BB0005091B30E20918E0E30918F0E2417350761
:101BC00008F428C54217530770F4D901A41BB50BBC
:101BD000AD018A179B0708F468C6241B350B3093A8
:101BE0008F0E20938E0E40919C0E50919D0E209151
:101BF000780E3091790E2417350708F4FEC4421789
:101C0000530770F48901041B150BA8018017910775
:101C100008F449C6241B350B3093790E2093780EB7
:101C20004091A80E5091A90E2091840E3091850EFE
:101C30002417350708F4D4C44217530770F4B901C8
:101C4000641B750BAB018617970708F42AC6241B83
:101C5000350B3093850E2093840E4091B40E509135
:101C6000B50E2091900E3091910E2417350708F48F
:101C7000AAC44217530770F4D901A41BB50BAD01D8
:101C80008A179B0708F40BC6241B350B3093910E63
:101C90002093900E40919E0E50919F0E20917A0EAF
:101CA00030917B0E2417350708F480C44217530780
:101CB00070F48901041B150BA8018017910708F423
:101CC00004C6241B350B30937B0E20937A0E409173
:101CD000AA0E5091AB0E2091860E3091870E2417DC
:101CE000350708F456C44217530770F4B901641B52
:101CF000750BAB018617970708F4E5C5241B350B58
:101D00003093870E2093860E4091B60E5091B70EF9
:101D10002091920E3091930E2417350708F42CC4AD
:101D20004217530770F4D901A41BB50BAD018A17F4
:101D30009B0708F4C6C5241B350B3093930E2093E4
:101D4000920E4091A00E5091A10E20917C0E3091E8
:101D50007D0E2417350708F4C0C34217530770F4EB
:101D60008901041B150BA8018017910708F4A7C56A
:101D7000241B350B30937D0E20937C0E4091AC0ECE
:101D80005091AD0E2091880E3091890E24173507A1
:101D900008F496C34217530770F4B901641B750B1E
:101DA000AB018617970708F488C5241B350B3093C1
:101DB000890E2093880E4091B80E5091B90E209153
:101DC000940E3091950E2417350708F46CC3421712
:101DD000530770F4D901A41BB50BAD018A179B07FB
:101DE00008F469C5241B350B3093950E2093940E8F
:101DF0004091A20E5091A30E20917E0E30917F0E45
:101E00002417350708F03CC3421B530B8417950772
:101E100008F4AC01420F531F50937F0E40937E0E87
:101E20004091AE0E5091AF0E20918A0E30918B0EE4
:101E30002417350708F08DC3421B530B84179507F1
:101E400008F4AC01420F531F50938B0E40938A0E3F
:101E50004091BA0E5091BB0E2091960E3091970E84
:101E60002417350708F060C3421B530B84179507EE
:101E700008F4AC01420F531F5093970E4093960EF7
:101E80000C947B01212C833021F0843011F00C94D0
:101E9000000201E08091F40E811100E0202F30E07B
:101EA0003FA32EA381E59CE00E94D22389E59DE01B
:101EB0000E94D2238091F60B8095881F8827881F67
:101EC00091E0282F29272B8F81110C941E028091DD
:101ED000F70B8095881F8827881F98279C8F882359
:101EE00011F40C9412056201EE24D7FCE094FE2C50
:101EF000A301662757FD6095762F48A759A76AA7C3
:101F00007BA70C94C603612C712C24FD02C00C9499
:101F1000E601AA2797FDA095BA2F2091E60B3091F4
:101F2000E70B4091A50B40FFDBC1AC01BD01420FA7
:101F3000531F611D711D77FDD4C44115510501E08A
:101F40006007710524F04FEF5FEF60E070E09A01E9
:101F50003695279536952795B90160717727452FD6
:101F6000552746954695FA01E071FF27542F550FE6
:101F7000352F330FF52FF670F068E26030723E2B8C
:101F8000507C352B469542704062522F550F752F6D
:101F9000770FE22FE695221F2227221F152F16709A
:101FA000212B206862607072762B507C752BE2705A
:101FB0001FB7F89466EC61BB50EC58B915B8F8B986
:101FC0003BB94EB937E831BB61BB58B915B828B930
:101FD0007BB9EEB931BB61BB58B941E045B921E4E9
:101FE00028B920E72BB922EA2EB931BB61BB58B919
:101FF00045B947E448B940EF4BB92EB931BB1FBFD3
:102000002091D00B3091D10B4091A50B41FFCEC157
:10201000820F931FA11DB11DB7FD5FC4009711E092
:10202000A107B10524F08FEF9FEFA0E0B0E09C0185
:102030003695279536952795A90140715527892F03
:10204000992786958695BC0160717727982F990FFF
:10205000792F770FE92FE670E06862607072762B57
:10206000907C792B869582708062922F990F592FE0
:10207000550F622F6695221F2227221F392F367097
:10208000232B206842605072542B907C592B627035
:10209000FFB7F89436EC31BB90EC98B915B8E8B9B5
:1020A0007BB98EB987E881BB31BB98B915B828B91F
:1020B0005BB96EB981BB31BB98B951E055B947E402
:1020C00048B920E72BB922EA2EB981BB31BB98B9B8
:1020D00055B948B990EF9BB92EB981BBFFBF0C949D
:1020E000E601412C512C0C94DD0180910B0C8111E7
:1020F000B8C08091F60B87FD05C08091840D8823C0
:1021000009F4F7C38091F70B87FD05C08091B00DEE
:10211000882309F4EAC38091F80B87FD05C08091FC
:10212000DC0D882309F403C48091F90B87FD05C0F9
:102130008091080E882309F4F6C38091FA0B87FD7D
:1021400005C08091340E882309F4E9C38091FB0B0C
:1021500087FD05C08091600E882309F4B7C08B8D80
:1021600081113EC38C8D811108C38D8D8111D2C226
:102170008E8D81119CC28F8D811166C288A18823AA
:1021800009F40ECC6FB7F89426EC21BB90EC98B90B
:1021900015B840E848B932E03BB980E28EB987E82B
:1021A00081BB21BB98B915B848B93BB91EB881BBF2
:1021B00021BB98B951E055B947E448B930EB3BB978
:1021C00032EA3EB981BB7DE07A95F1F7000021BB90
:1021D00098B955B948B990EF9BB93EB981BB88E22F
:1021E0008A95F1F76FBFDCCB1092700E10926F0ED4
:1021F00080E090E00C94D6018091E80B9091E90B7F
:10220000A0E0B0E09058A109B1099DA38CA30C9463
:10221000F901F92CEA2DEF3F09F438C32A2D2F5F7D
:1022200030E0220F331FF0E0EE0FFF1FEE55F64FA8
:102230000190F081E02DD901AE55B64F2D913C9122
:102240002E1B3F0B032F1127F09E9001F19E300DA6
:1022500011242E0F3F1F30936E0E20936D0E0C94A1
:10226000B2018091F60B87FD05C08091840D882313
:1022700009F452C38091F70B87FD05C08091840D4E
:10228000882309F445C38091F80B87FD05C0809130
:10229000840D882309F438C38091F90B87FD05C0AC
:1022A0008091840D882309F42BC38091FA0B87FD5C
:1022B00005C08091840D882309F41EC38091FB0B17
:1022C00087FD4DCF8091840D811149CF85E00E941B
:1022D000A61E45CFCC24CA94DC2CEC2CF12C96CB3A
:1022E000E2E072EF27E842E232E7F6E861CE421719
:1022F000530708F0E7CB8901041B150BA8018017D1
:10230000910708F4E6C2241B350B3093750E209319
:10231000740ED8CB8091F70B8095881F8827881F73
:10232000982F90279C8F882311F40C94120562013A
:10233000EE24D7FCE094FE2C9301442737FD409512
:10234000542F28A739A74AA75BA78DE79CE00E94D6
:10235000D22385E89DE00E94D2230C94C6038DE22F
:102360009DE00E94D22385E39EE00E94D22308C90B
:1023700081E09DE00E94D22389E09EE00E94D2236A
:102380000C945A0985ED9CE00E94D2238DED9DE0CE
:102390000E94D2230C943D0789EA9CE00E94D2233C
:1023A00081EB9DE00E94D2230C94210562E052EF64
:1023B00027E882E272E7E6E86BCE812C912C54018B
:1023C00020C980E090E0DC010CC8812C912C5401E4
:1023D0000C94B609C12CD12C76010C948908C12C1F
:1023E000D12C76010C94F70780E090E0DC010C948E
:1023F0005204C12CD12C76010C94180480E090E09A
:10240000DC010C949A09812C912C54010C947F07C7
:10241000C12CD12C76010C946C06C12CD12C7601E8
:102420000C94D905812C912C54010C94600540E04A
:1024300050E0BA010C94FC0380E090E0DC010C94C5
:10244000FE0280E090E0DC010C94C00200E010E0AD
:102450009801DEC9C12CD12C760149C980E090E0F9
:10246000DC010C944D02421B530B8417950708F4B2
:10247000AC01420F531F5093810E4093800E3FCB0F
:102480004217530708F0CCCC8901041B150BA80197
:102490008017910708F40DC2241B350B30937F0E73
:1024A00020937E0EBDCC421B530B8417950708F476
:1024B000AC01420F531F5093950E4093940E98CC4D
:1024C000421B530B8417950708F4AC01420F531FAE
:1024D0005093890E4093880E6ECC421B530B841789
:1024E000950708F4AC01420F531F50937D0E4093A3
:1024F0007C0E44CC421B530B8417950708F4AC01A7
:10250000420F531F5093770E4093760E32CB421BEF
:10251000530B8417950708F4AC01420F531F5093D7
:102520008D0E40938C0E08CB4217530710F00C947D
:102530007B01D901A41BB50BAD018A179B0708F4D9
:10254000B6C1241B350B3093970E2093960E0C9436
:102550007B014217530708F07BCCB901641B750B54
:10256000AB018617970708F4B6C1241B350B3093CF
:102570008B0E20938A0E6CCC421B530B841795074D
:1025800008F4AC01420F531F5093930E4093920EE8
:10259000D8CB421B530B8417950708F4AC01420FAC
:1025A000531F5093870E4093860EAECB421B530BA6
:1025B0008417950708F4AC01420F531F50937B0E0C
:1025C00040937A0E84CB421B530B8417950708F473
:1025D000AC01420F531F5093910E4093900E5ACB73
:1025E000421B530B8417950708F4AC01420F531F8D
:1025F0005093850E4093840E30CB421B530B8417AF
:10260000950708F4AC01420F531F5093790E409385
:10261000780E06CB421B530B8417950708F4AC01C8
:10262000420F531F50938F0E40938E0EDCCA421BF5
:10263000530B8417950708F4AC01420F531F5093B6
:10264000830E4093820EB2CA5FB7F89426EC21BB8A
:1026500090EC98B915B840E848B932E03BB980E24F
:102660008EB987E881BB21BB98B915B848B93BB989
:102670001EB881BB21BB98B941E045B935E438B9F2
:1026800030EB3BB932EA3EB981BB0DE00A95F1F778
:10269000000021BB98B945B997E498B990EF9BB970
:1026A0003EB981BB18E21A95F1F75FBF67CD5FB7FE
:1026B000F89426EC21BB90EC98B915B840E848B9DD
:1026C00032E03BB980E28EB987E881BB21BB98B983
:1026D00015B848B93BB91EB881BB21BB98B941E0D8
:1026E00045B933E438B930EB3BB932EA3EB981BB86
:1026F000ADE0AA95F1F7000021BB98B945B997E480
:1027000098B990EF9BB93EB981BBB8E2BA95F1F7A1
:102710005FBF31CD5FB7F89426EC21BB90EC98B940
:1027200015B840E848B932E03BB980E28EB987E895
:1027300081BB21BB98B915B848B93BB91EB881BB5C
:1027400021BB98B941E045B931E438B930EB3BB928
:1027500032EA3EB981BB6DE06A95F1F7000021BB1A
:1027600098B945B997E498B990EF9BB93EB981BB48
:1027700078E27A95F1F75FBFFBCC5FB7F89426EC6F
:1027800021BB90EC98B915B840E848B932E03BB9A4
:1027900080E28EB987E881BB21BB98B915B848B9EA
:1027A0003BB91EB881BB21BB98B941E045B937E4BC
:1027B00038B960EB6BB960EA6EB981BB0DE00A9580
:1027C000F1F7000021BB98B945B938B990EF9BB932
:1027D00092EA9EB981BB18E21A95F1F75FBFC5CCAA
:1027E0005FB7F89426EC21BB90EC98B915B840E897
:1027F00048B932E03BB980E28EB987E881BB21BBA2
:1028000098B915B848B93BB91EB881BB21BB98B976
:1028100031E035B945E448B940EB4BB940EA4EB92F
:1028200081BBADE0AA95F1F7000021BB98B935B99D
:1028300097E498B990EF9BB992EA9EB981BBB8E250
:10284000BA95F1F75FBF8ECC0E94CB4D90936E0E80
:1028500080936D0E1091730E6091650E7091660EEF
:102860008091670E9091680E8090610E9090620E3C
:10287000A090630EB090640E0C94A601F0936E0EBF
:10288000E0936D0E460157010C94AE012EEF31E03E
:10289000CACCAC014BC9AC0183C9AC0164C9AC0161
:1028A000F3C9AC01D4C9AC01B5C9AC0196C9AC013E
:1028B00048CEAC01F1CDAC0195CAAC0176CAAC01F1
:1028C00057CAAC0138CAAC0119CAAC01FAC9AC018B
:1028D00010C9AC0118CDAC0148CE80E090E0DC011D
:1028E0009DCB40E050E0BA0128CB81E00E94A61EBB
:1028F00012CC0E94A61E06CC84E00E94A61EDECC4E
:1029000083E00E94A61ED1CC82E00E94A61EC4CC09
:1029100081E00E94A61EB7CC0E94A61EABCC84E02C
:102920000E94A61E13CC83E00E94A61E06CC82E065
:102930000E94A61EF9CBCF93882309F46DC0809125
:10294000FC0E8F5F8093FC0E853148F081E0909102
:10295000FD0E9111DEC08093FD0E1092FC0E809151
:10296000FE0E8F5F8093FE0E8D3008F446C0C0913E
:10297000000FCC2309F441C0E5E0FFE00190002006
:10298000E9F7E650FF402091FF0E332727FD3095F1
:10299000C90101966E2F772767FD70950E94474900
:1029A000E82FFF27E7FDF095EA50F14F9785F901F1
:1029B000EA50F14F478550E04038510508F0BCC05F
:1029C000FA01E25DFA4F20812093FA0E292F30E0C0
:1029D0002038310508F0AEC0F901E25DFA4F908170
:1029E0009093FB0E8093FF0E1092FE0E811105C096
:1029F0001C161CF4C150C093000FE091010FE13090
:102A000009F47CC008F46FC0E23009F488C020E00B
:102A1000F0E0EA50F14F2487AFB7F89466EC61BB61
:102A200050EC58B941E045B980E488B91BB880E260
:102A30008EB937E831BB00C000C080E190E0009063
:102A4000010F02C0880F991F0A94E2F7282F61BB7B
:102A500058B9E82FEE0F782F7695221F2227221FD4
:102A60009E2F9670292B206480719E2F990F907253
:102A7000982BE07C9E2B727045B928B99BB97EB922
:102A800031BB00C000C0E091010FF0E0EA50F14F0F
:102A9000848561BB58B9582F550F982F9695252FCF
:102AA00026702064682F661F6627661F262B682FF6
:102AB0006071852F880F8072862B507C852B9270D9
:102AC000906245B928B98BB99EB931BBAFBF80912F
:102AD000010F90E0019663E070E00E944749809307
:102AE000010FCF9108952091F60E8091FD0E88235D
:102AF00009F48ECF8091F80E28278ACF2091FA0E04
:102B00002F778091F60E9091F70E91FF81CF20687C
:102B10007FCF80E08093FD0E1092FC0E20CF20919D
:102B2000FB0E2F778091F60E9091F70E90FF70CFED
:102B300020686ECF9FEF54CF2FEF46CF982F9695FA
:102B40009695969528E030E001C0220F9A95EAF715
:102B50002095287F8770282BFFB7F894CB01892F09
:102B6000992786958695B82F56EC51BB30EC38B92D
:102B7000A82FAA0FEA2FE670E0688071992782607B
:102B80009A2F990F9072982BA07C9A2B8B2F869559
:102B90008270806215B8E8B99BB98EB997E891BB8D
:102BA0007695679576956795E62F51BB38B9B62F20
:102BB000BB0FA62FA695EE1FEE27EE1F8B2F86705C
:102BC000E82BE0686071772762608B2F880F807236
:102BD000862BB07C8B2BA27015B8E8B98BB9AEB937
:102BE00091BB51BB38B9822F880F722F7695E22F97
:102BF000EE1FEE27EE1F682F6670E62BE064207153
:102C0000682F660F6072622B807C682B7270706A0E
:102C100081E085B9E8B96BB97EB991BB41110CC0AF
:102C200051BB38B985B987E488B980EF8BB982EA9E
:102C30008EB991BBFFBF08952DE02A95F1F70000F2
:102C400051BB38B985B987E488B980EF8BB982EA7E
:102C50008EB991BB88E28A95F1F7FFBF0895982F4E
:102C600096959695969528E030E001C0220F9A95AA
:102C7000EAF72095287F8770282BAFB7F894CB010F
:102C8000892F992786958695F82FE6ECE1BB50ECC5
:102C900058B9482F440F342F367030688071992707
:102CA0008260942F990F9072982B407C942B8F2FD9
:102CB00086958270806215B838B99BB98EB947E89D
:102CC00041BB7695679576956795962FE1BB58B988
:102CD000F62FFF0F362F3695991F9927991F8F2FA3
:102CE0008670982B90686071772762608F2F880FAD
:102CF0008072862BF07C8F2B327015B898B98BB907
:102D00003EB941BBE1BB58B9622F660F922F969531
:102D1000322F331F3327331F862F8670382B3064B2
:102D20002071862F880F8072822B607C862B927098
:102D3000906A21E025B938B98BB99EB941BBE1BB96
:102D400058B925B987E488B980EF8BB982EA8EB982
:102D500041BBAFBF08958091C00E880F8F5F9091E7
:102D6000A50B92959170890F8093730E8091C20E7E
:102D7000880F8093710EA091720E20916B0E30918E
:102D80006C0E40E050E004C0220F331F441F551F5B
:102D90008A95D2F7BB27A1950CF4B095AA0FBB1F5B
:102DA00011960E94E34D6093650E7093660E8093BA
:102DB000670E9093680E0895AF92BF92CF92DF9204
:102DC000EF92FF920F931F93CF93DF93062F9BEA0F
:102DD000899FA12C1124A694A694A6946A2D70E034
:102DE0006A3071050CF06EC0A394B12C10E09B0109
:102DF000220F331FF901EE0FFF1FEE0FFF1FEE0F23
:102E0000FF1FE20FF31FE00FF11FEE0FFF1FE95C42
:102E1000F04FC081D1819BEA899F912D1124969515
:102E200096959695692F660F690F660F660F861B3C
:102E3000682F70E080E090E00E94704A2BEA3AEA46
:102E40004AEA5DE30E94A24B6B017C01AA0CBB1C09
:102E5000F501EE0FFF1FEE0FFF1FEE0FFF1FEA0D34
:102E6000FB1DE00FF11FEE0FFF1FE95CF04F6081CB
:102E700071816C1B7D0B80E090E00E946E4A9B018B
:102E8000AC01C701B6010E94A24B6B017C01BE01DF
:102E900080E090E00E946E4A9B01AC01C701B60140
:102EA0000E946F490E94514C0E94424ACB01DF911F
:102EB000CF911F910F91FF90EF90DF90CF90BF9037
:102EC000AF900895BBE0AB2EB12C90CF2F923F92E4
:102ED0004F925F926F927F928F929F92AF92BF922A
:102EE000CF92DF92EF92FF920F931F93CF93DF93D6
:102EF000CDB7DEB72E970FB6F894DEBF0FBECDBFAD
:102F00000091D50B10E0005811098091F40B9091BD
:102F1000F50B880F892F881F990B91959C013A9585
:102F20003A872987C090B80BD090B90BE12CF12CCF
:102F30008090F30B869486949090F10B96949694DF
:102F40007090BE0E6090F40E30910B0C3B8370912C
:102F5000FC0B8091F60B87FF37C07091FD0B8091C1
:102F6000F70B87FFDDC07091FE0B8091F80B87FF98
:102F700083C17091FF0B8091F90B87FF29C270917B
:102F8000000C8091FA0B87FFCFC27091010C8091E9
:102F9000FB0B87FF75C32E960FB6F894DEBF0FBEEE
:102FA000CDBFDF91CF911F910F91FF90EF90DF90F8
:102FB000CF90BF90AF909F908F907F906F905F90D9
:102FC0004F903F902F9008951801442437FC40946F
:102FD000542C2091CA0E3091CB0EC901AA2797FD1F
:102FE000A095BA2F820D931DA41DB51D8B879C87BC
:102FF000AD87BE8760E0882D870F7887DDDE2B8563
:103000003C854D855E85280F391F411D511DDA0114
:10301000C901788557FDEBC5009731E0A307B105DD
:103020000CF001C49A8389832091D60E3091D70E7B
:10303000442737FD4095542F220D331D441D551D47
:1030400029843A84C101AA2797FDA095BA2F280F99
:10305000391F4A1F5B1F66E0892D870F2C833D8334
:103060004E835F837887A8DE2C813D814E815F810E
:1030700019012A01280E391E411C511CD201C1011F
:10308000788557FCB0C5009721E0A207B1050CF088
:10309000C5C35C0177FCCBC42091E20E3091E30EF6
:1030A000442737FD4095542F2C0D3D1D4E1D5F1DAF
:1030B0006CE0872F2C833D834E835F837DDE072C5E
:1030C00002C0969587950A94E2F72C813D814E8146
:1030D0005F8119012A01280E391E411C511CD201A1
:1030E000C10157FCBCC5009721E0A207B1050CF057
:1030F0009FC39C016110FCC349815A815093750E96
:103100004093740EB092810EA092800E30938D0E7B
:1031100020938C0E7091FD0B8091F70B87FD23CFD0
:103120001801442437FC4094542C2091CC0E30914B
:10313000CD0EC901AA2797FDA095BA2F820D931D28
:10314000A41DB51D8B879C87AD87BE8761E0872F47
:10315000880D788731DE2B853C854D855E85280F6F
:10316000391F411D511DDA01C901788557FD67C519
:10317000009731E0A307B1050CF023C39A8389833C
:103180002091D80E3091D90E442737FD4095542F09
:10319000220D331D441D551D29843A84C101AA27DF
:1031A00097FDA095BA2F280F391F4A1F5B1F67E0B4
:1031B000872F890D2C833D834E835F837887FCDDC9
:1031C0002C813D814E815F8119012A01280E391E13
:1031D000411C511CD201C101788557FC2CC50097B8
:1031E00021E0A207B1050CF0E7C25C0177FCCFC477
:1031F0002091E40E3091E50E442737FD4095542F81
:103200002C0D3D1D4E1D5F1D6DE0872F2C833D83D2
:103210004E835F83D1DD072C02C0969587950A9473
:10322000E2F72C813D814E815F8119012A01280E30
:10323000391E411C511CD201C10157FC08C5009721
:1032400021E0A207B1050CF0F8C29C01611060C337
:1032500049815A815093770E4093760EB092830E37
:10326000A092820E30938F0E20938E0E7091FE0BE3
:103270008091F80B87FD7DCE1801442437FC4094E3
:10328000542C2091CE0E3091CF0EC901AA2797FD64
:10329000A095BA2F820D931DA41DB51D8B879C8709
:1032A000AD87BE8762E0872F880D788785DD2B8507
:1032B0003C854D855E85280F391F411D511DDA0162
:1032C000C901788557FDB3C4009731E0A307B10564
:1032D0000CF081C29A8389832091DA0E3091DB0E43
:1032E000442737FD4095542F220D331D441D551D95
:1032F00029843A84C101AA2797FDA095BA2F280FE7
:10330000391F4A1F5B1F68E0872F890D2C833D837F
:103310004E835F83788750DD2C813D814E815F81B4
:1033200019012A01280E391E411C511CD201C1016C
:10333000788557FC78C4009721E0A207B1050CF00E
:1033400045C25C0177FC9FC32091E60E3091E70EE9
:10335000442737FD4095542F2C0D3D1D4E1D5F1DFC
:103360006EE0872F2C833D834E835F8325DD072C02
:1033700002C0969587950A94E2F72C813D814E8193
:103380005F8119012A01280E391E411C511CD201EE
:10339000C10157FC58C4009721E0A207B1050CF009
:1033A0005BC29C01611062C249815A815093790EBF
:1033B0004093780EB092850EA092840E3093910EB9
:1033C0002093900E7091FF0B8091F90B87FDD7CD64
:1033D0001801442437FC4094542C2091D00E309195
:1033E000D10EC901AA2797FDA095BA2F820D931D72
:1033F000A41DB51D8B879C87AD87BE8763E0872F93
:10340000880D7887D9DC2B853C854D855E85280F16
:10341000391F411D511DDA01C901788557FDFFC3D0
:10342000009731E0A307B1050CF0DFC19A838983CF
:103430002091DC0E3091DD0E442737FD4095542F4E
:10344000220D331D441D551D29843A84C101AA272C
:1034500097FDA095BA2F280F391F4A1F5B1F69E0FF
:10346000872F890D2C833D834E835F837887A4DC6F
:103470002C813D814E815F8119012A01280E391E60
:10348000411C511CD201C101788557FCC4C300976F
:1034900021E0A207B1050CF0A3C15C0177FC4BC38E
:1034A0002091E80E3091E90E442737FD4095542FC6
:1034B0002C0D3D1D4E1D5F1D6FE0872F2C833D831E
:1034C0004E835F8379DC072C02C0969587950A941A
:1034D000E2F72C813D814E815F8119012A01280E7E
:1034E000391E411C511CD201C10157FCB4C30097C5
:1034F00021E0A207B1050CF0A5C19C01611029C211
:1035000049815A8150937B0E40937A0EB092870E78
:10351000A092860E3093930E2093920E7091000C21
:103520008091FA0B87FD31CD1801442437FC40947B
:10353000542C2091D20E3091D30EC901AA2797FDA9
:10354000A095BA2F820D931DA41DB51D8B879C8756
:10355000AD87BE8764E0872F880D78872DDC2B85AB
:103560003C854D855E85280F391F411D511DDA01AF
:10357000C901788557FD4BC3009731E0A307B1051A
:103580000CF03DC19A8389832091DE0E3091DF0ECD
:10359000442737FD4095542F220D331D441D551DE2
:1035A00029843A84C101AA2797FDA095BA2F280F34
:1035B000391F4A1F5B1F6AE0872F890D2C833D83CB
:1035C0004E835F837887F8DB2C813D814E815F815C
:1035D00019012A01280E391E411C511CD201C101BA
:1035E000788557FC10C3009721E0A207B1050CF0C5
:1035F00001C15C0177FC73C22091EA0E3091EB0EA1
:10360000442737FD4095542F2C0D3D1D4E1D5F1D49
:1036100060E1872F2C833D834E835F83CDDB072CB6
:1036200002C0969587950A94E2F72C813D814E81E0
:103630005F8119012A01280E391E411C511CD2013B
:10364000C10157FC14C3009721E0A207B1050CF09B
:1036500008C19C0161102BC149815A8150937D0E94
:1036600040937C0EB092890EA092880E3093950EF6
:103670002093940E7091010C8091FB0B87FD8BCCF5
:103680001801442437FC4094542C2091D40E3091DE
:10369000D50EC901AA2797FDA095BA2F820D931DBB
:1036A000A41DB51D8B879C87AD87BE8765E0872FDE
:1036B000880D788781DB2B853C854D855E85280FBD
:1036C000391F411D511DDA01C901788557FD97C287
:1036D000009731E0A307B1050CF09BC08C0120914D
:1036E000E00E3091E10E442737FD4095542F220D16
:1036F000331D441D551D29843A84C101AA2797FD15
:10370000A095BA2F280F391F4A1F5B1F6BE0872F28
:10371000890D2C833D834E835F8378874DDB2C811D
:103720003D814E815F8149015A01880E991EA11C7D
:10373000B11CD501C4017885B7FC5DC2009721E0BA
:10374000A207B1050CF060C02C0177FC42C12091AA
:10375000EC0E3091ED0E4901AA2497FCA094BA2CEE
:103760008C0C9D1CAE1CBF1C61E1872F25DB02C0A9
:10377000969587957A94E2F7A5019401280F391F51
:10378000411D511DDA01C90157FD6DC2009731E09D
:10379000A307B1050CF05BC09C016110FBC0109346
:1037A0007F0E00937E0E50928B0E40928A0E3093C5
:1037B000970E2093960EEFCB8FEF9FEFA0E0B0E037
:1037C00014CD8FEF9FEFA0E0B0E0D8CC8FEF9FEF4C
:1037D000A0E0B0E0B6CD8FEF9FEFA0E0B0E07ACDF3
:1037E0008FEF9FEFA0E0B0E058CE8FEF9FEFA0E00B
:1037F000B0E01CCE8FEF9FEFA0E0B0E0FACE8FEFED
:103800009FEFA0E0B0E0BECE8FEF9FEFA0E0B0E072
:103810009BCF8FEF9FEFA0E0B0E060CF8FEF9FEFE7
:10382000A0E0B0E036CC8FEF9FEFA0E0B0E0FACBA5
:103830008FEF9FEFA0E0B0E05CCC8FEF9FEFA0E0B8
:10384000B0E003CD8FEF9FEFA0E0B0E056CE8FEF5A
:103850009FEFA0E0B0E0A0CF8FEF9FEFA0E0B0E03F
:10386000A0CD8FEF9FEFA0E0B0E0F3CE5B81298089
:103870003A80533079F0543069F030929D0E2092A6
:103880009C0EB092A90EA092A80E3093B50E209374
:10389000B40E6FCB3092990E2092980EB092A50E76
:1038A000A092A40E3093B10E2093B00E62CB5B8138
:1038B00029803A80533079F0543069F03092A10E6B
:1038C0002092A00EB092AD0EA092AC0E3093B90E25
:1038D0002093B80E5ACB3092990E2092980EB09247
:1038E000A50EA092A40E3093B10E2093B00E4DCB36
:1038F0005B8129803A803092990E2092980EB09286
:10390000A50EA092A40E3093B10E2093B00E25CB3D
:103910005B8129803A80533079F0543069F03092DD
:103920009B0E20929A0EB092A70EA092A60E3093F4
:10393000B30E2093B20E17CB3092990E2092980EB0
:10394000B092A50EA092A40E3093B10E2093B00EAB
:103950000ACB5B8129803A80533079F0543069F08A
:1039600030929F0E20929E0EB092AB0EA092AA0EA5
:103970003093B70E2093B60E02CB3092990E209260
:10398000980EB092A50EA092A40E3093B10E209383
:10399000B00EF5CA5B81533079F0543069F0109362
:1039A000A30E0093A20E5092AF0E4092AE0E309333
:1039B000BB0E2093BA0EEFCA1093990E0093980E87
:1039C0005092A50E4092A40E3093B10E2093B00EEB
:1039D000E2CA6091590F70915A0F80E090E00E9406
:1039E0006E4A0E94514C0E94424A2091EC0E309146
:1039F000ED0E4901AA2497FCA094BA2C8C0C9D1CB6
:103A0000AE1CBF1C860E971EA11CB11CB7FC5DC16D
:103A1000D501C4018114910441E0A406B1040CF065
:103A200039C19C019093970E8093960EB6CE60910B
:103A30004F0F7091500F80E090E00E946E4A0E94FC
:103A4000514C0E94424A2091E20E3091E30E4427ED
:103A500037FD4095542F2C0D3D1D4E1D5F1D260F2B
:103A6000371F411D511D57FD28C1DA01C9010097BB
:103A700021E0A207B1050CF017C19C0190938D0EB7
:103A800080938C0E37CB6091530F7091540F80E070
:103A900090E00E946E4A0E94514C0E94424A20913E
:103AA000E60E3091E70E442737FD4095542F2C0D3C
:103AB0003D1D4E1D5F1D260F371F411D511D57FD1A
:103AC000F8C0DA01C901009721E0A207B1050CF0A6
:103AD000E6C09C019093910E8093900E63CC609110
:103AE000570F7091580F80E090E00E946E4A0E943C
:103AF000514C0E94424A2091EA0E3091EB0E44272D
:103B000037FD4095542F2C0D3D1D4E1D5F1D260F7A
:103B1000371F411D511D57FDE0C0DA01C901009753
:103B200021E0A207B1050CF0ABC09C019093950E6B
:103B30008093940E8FCD6091550F7091560F80E059
:103B400090E00E946E4A0E94514C0E94424A20918D
:103B5000E80E3091E90E442737FD4095542F2C0D87
:103B60003D1D4E1D5F1D260F371F411D511D57FD69
:103B7000B0C0DA01C901009721E0A207B1050CF03D
:103B80007AC09C019093930E8093920EB7CC609173
:103B9000510F7091520F80E090E00E946E4A0E9497
:103BA000514C0E94424A2091E40E3091E50E442788
:103BB00037FD4095542F2C0D3D1D4E1D5F1D260FCA
:103BC000371F411D511D57FD7CC0DA01C901009707
:103BD00021E0A207B1050CF058C09C0190938F0E14
:103BE00080938E0E33CB80E090E0DC014CCA80E005
:103BF00090E0DC0111CA80E090E0DC019FCD80E024
:103C000090E0DC0165CD80E090E0DC01ECCC80E070
:103C100090E0DC01B1CC80E090E0DC0138CC80E0C9
:103C200090E0DC01FDCB80E090E0DC0184CB80E023
:103C300090E0DC0149CB80E090E0DC01D0CA80E07C
:103C400090E0DC0195CA80E090E0DC01A4CB80E04C
:103C500090E0DC01F4CA80E090E0DC0148CC80E038
:103C600090E0DC0140CA80E090E0DC018FCD80E094
:103C700090E0DC01E8CC8FEF9FEFA0E0B0E081CFD7
:103C80008FEF9FEFA0E0B0E050CF8FEF9FEFA0E06D
:103C9000B0E0A3CF8FEF9FEFA0E0B0E0C2CE8FEFF8
:103CA0009FEFA0E0B0E015CF8FEF9FEFA0E0B0E076
:103CB000E4CE20E030E0A90104CF20E030E0A9010B
:103CC000D4CE20E030E0A90180CF812C912C54018A
:103CD0009FCE20E030E0A9014CCF20E030E0A901E8
:103CE0001CCFCF93DF9300D0CDB7DEB74A83698373
:103CF000EDD880910B0C4A816981882319F140E04D
:103D000050E08CE2849FF001859FF00D1124EF5A62
:103D1000F34F87A1681719F060A781E081A78CE2B3
:103D2000849FF001859FF00D1124E75AF24F87A17F
:103D3000681719F060A781E081A70F900F90DF91BD
:103D4000CF910895552747FD5095DBCF90910B0CEF
:103D500091110CC087FD24C0E82FFF27E7FDF095E7
:103D6000EA50F44F8FEF8083868308958FEF80931E
:103D7000F60B8093FC0B8093F70B8093FD0B8093E5
:103D8000F80B8093FE0B8093F90B8093FF0B8093CD
:103D9000FA0B8093000C8093FB0B8093010C089529
:103DA0008F3F29F3089586E1E6EFFBE0DF011D92E6
:103DB0008A95E9F78FEFCADF48E050E06FEF70E0D7
:103DC00082E09CE00C94714DCF938091A60B90E023
:103DD000880F892F881F990B892B29F4E4DF109213
:103DE0000B0CCF910895C091BF0EDDDFC0930B0C7B
:103DF000CF910895942F87FD0FC0E82FFF27E7FD8F
:103E0000F095EA50F44F608346839F3F21F0482F9E
:103E1000622F892F66CF08958F3FB9F76093F60B15
:103E20004093FC0B6093F70B4093FD0B6093F80BF2
:103E30004093FE0B6093F90B4093FF0B6093FA0BDA
:103E40004093000C6093FB0B4093010CDECF86EC9B
:103E500081BB80EC88B915B880E488B91BB88EB9ED
:103E600087E881BB85E08A95F1F70000089586EC2C
:103E700081BB80EC88B915B882E488B91BB880E4AE
:103E80008EB987E881BB85E08A95F1F70000089537
:103E900055E05A95F1F7000046EC41BB30EC38B9DB
:103EA00000C080EE87B997E09AB98DB915B880E463
:103EB00088B91BB880E28EB987E481BB82E08A951D
:103EC000F1F700C026B199B18CB141BB38B900C03F
:103ED00037EE37B937EF3AB932EE3DB9422F469552
:103EE000437050E8259F90011124422B292F207107
:103EF000422B292F269526952870422B9695907651
:103F0000492B90E0880F991F84709927842B08957E
:103F1000AC01AA27469FB12D579F9001749FB00D09
:103F2000211D3A1F569FB00D211D3A1F1124C901B2
:103F300008956095ECEEF0E19081982B6923608301
:103F400086EC81BB80EC88B9362F330F962F96957F
:103F5000262F221F2227221F832F8670282B2064C2
:103F60006071832F880F8072862B307C832B927038
:103F7000906C31E035B928B98BB99EB987E881BB1F
:103F800085E08A95F1F70000EBEEF0E180818F5F2C
:103F9000808308956093000F0097A9F01092FF0EA0
:103FA000BC0186E09FE00E94784DE5E0FFE00190D3
:103FB0000020E9F7E650FF40EB5FF04F80E290E031
:103FC0009183808308958FEF8093FF0E08959091E1
:103FD000EE10992309F440C09FB7F89423E0209392
:103FE000E9002091E91021112FC03091E4003C5FDD
:103FF0002091E80025FD1CC09FBF9091E40093171D
:1040000069F19091EE10992339F143E009C09FBF07
:104010009091E400931711F19091EE109923E1F043
:104020009FB7F8944093E9002091E80025FFEFCF77
:104030008093F1008091E80085FF15C082E08093B5
:10404000ED109FBF80E008952091E80025FF03C098
:104050001092E910CACF9FBF8FEF089581E080933F
:10406000E9108FEF08958AE38093E8001092ED1035
:104070009FBF80E008951F93CF93DF93EC012196BB
:10408000FC011491111108C00CC0812FA0DFFE01AA
:1040900021961491112329F01A30B9F78DE097DF9A
:1040A000F4CFDF91CF911F9108950F931F93CF937A
:1040B000DF93C82F80910B0C81117BC08091F60B90
:1040C000662309F49CC19091FC0BC91709F403C342
:1040D00087FD01C388300CF06CC19091F70B2091E3
:1040E000FD0BC21709F4FBC297FDF9C298170CF03B
:1040F00065C141E05091F80B8091FE0BC81709F49F
:10410000F2C257FDF0C259170CF069C142E060914C
:10411000F90B8091FF0BC81709F4E9C267FDE7C2EC
:1041200065170CF0A7C143E05091FA0B8091000C89
:10413000C81709F4E0C257FDDEC256170CF0AAC139
:1041400044E08091FB0B9091010CC91709F4D7C290
:1041500087FDD5C285170CF4BDC1992787FD9095C1
:10416000252F332727FD30952A5F3F4F2817390722
:104170000CF4B0C1E42FFF27E7FDF09520910A0C65
:10418000822F992787FD9095019666E070E00E9446
:10419000474980930A0CEA50F44F8083C683CF3F8F
:1041A00009F49AC161E08C2FDF91CF911F910F919B
:1041B00098CD9091020C662309F4D3C09F3F09F477
:1041C000A2C22091030C2F3F09F4A3C23091040C2A
:1041D0003F3F09F4B3C24091050C4F3F09F4B4C20C
:1041E0005091060C5F3F09F42AC27091070C7F3F83
:1041F00009F4B3C2E091080CEF3F09F4B4C2F091A6
:10420000090CFF3F09F4B2C2A82FA350843009F46F
:1042100006C2813009F46DC1823009F4BBC183301C
:1042200009F467C19F3F09F435C2B1E0D1E02F3FE7
:1042300009F42EC21B2F1D2309F0292F0B2F0F5F0E
:1042400081E08B278D23812B09F49AC1802F922F37
:10425000B1E03F3F09F41AC2D1E0811101C0D0E0C2
:10426000DB2309F0392F282F2F5F11E0811110E097
:10427000B123BD2B09F482C1822FB1E04F3F09F475
:1042800003C2D1E0811101C0D0E0DB2309F0432F4C
:10429000982F9F5F11E0811110E0B123BD2B09F42D
:1042A00077C1892F91E05F3F09F4ECC121E08111D2
:1042B00001C020E0292309F0542F382F3F5FB1E0DF
:1042C0008111B0E09B23922B09F460C1832F91E010
:1042D0007F3F09F4D5C121E0811101C020E02923ED
:1042E00009F0752F482F4F5F31E0811130E09323A3
:1042F000922B09F449C1842F91E0EF3F09F4BEC12C
:1043000021E0811101C020E0292309F0E72F482F87
:104310004F5F31E0811130E09323922B09F432C1D9
:10432000842F91E0FF3F09F4A7C121E0811101C072
:1043300020E0292309F420C1DE2F482F4F5F31E010
:10434000811130E09323922B09F0842F992309F4F3
:10435000B1C08111B3C0A23008F420C220E08FEFB9
:10436000B2C09C1709F4D2C12091030C2C1709F498
:10437000E2C13091040C3C1709F4E3C14091050CF3
:104380004C1709F4E4C15091060C5C1709F46DC197
:104390007091070C7C1709F4DDC1E091080CEC1753
:1043A00009F4DEC1F091090CFC132ECFE7E0F0E038
:1043B0005EC18F300CF091CE88E08FCE692F7727C9
:1043C00067FD7095282F332727FD30952A5F3F4FD3
:1043D000261737070CF48DCE982F40E08BCE652F33
:1043E000772767FD7095292F332727FD30952A5FA2
:1043F0003F4F261737070CF489CE592F88CE87FDFB
:1044000005C08091FC0BC81709F4B3C18091F70B6C
:1044100087FD05C08091FD0BC81709F4B3C18091D9
:10442000F80B87FD05C08091FE0BC81709F4A8C1E1
:104430008091F90B87FD05C08091FF0BC81709F427
:104440009DC18091FA0B87FD05C08091000CC817B3
:1044500009F49AC18091FB0B87FD05C08091010C86
:10446000C81709F493C188E391E0DF91CF911F91C0
:104470000F9101CE862F992787FD9095252F332701
:1044800027FD30952A5F3F4F281739070CF44BCE94
:10449000652F4ACE852F992787FD9095262F3327A4
:1044A00027FD30952A5F3F4F281739070CF448CE77
:1044B000562F47CEDE2F882309F44DCFA23088F047
:1044C000CD2F21E08FEF4C2F60E0DF91CF911F9136
:1044D0000F9190CC45E04ECEDF91CF911F910F917F
:1044E0000895813009F4D8C080910A0CCD2F21E0C5
:1044F000EACF9F3F09F44CC12F3F09F4E8C092175F
:1045000008F0922F81E08F5F3F3F09F4CCC08823F1
:1045100019F0931708F4392F8F5F4F3F09F4CBC080
:10452000882319F0341708F4432F8F5F5F3F09F495
:10453000C0C0882319F0451708F4542F8F5F7F3FC0
:1045400009F4B5C0882319F0571708F4752F8F5F49
:10455000EF3F09F4AAC0882319F07E1708F4E72F6B
:104560008F5FDF2FFF3F09F4A5CF882319F0EF17E6
:1045700008F452C08F5FEDCEDF2FDFCE392F7DCE16
:104580008B2F66CEE72FCDCE752FB6CE542F9FCE74
:10459000432F88CE9F3F09F44CC02F3F09F499C0A8
:1045A000291708F0922F81E08F5F3F3F09F48DC0FB
:1045B000882319F0391708F4392F8F5F4F3F09F41A
:1045C00082C0882319F0431708F4432F8F5F5F3FA1
:1045D00009F477C0882319F0541708F4542F8F5F1B
:1045E0007F3F09F46CC0882319F0751708F4752F04
:1045F0008F5FEF3F09F461C0882319F0E71708F4D3
:10460000E72F8F5FDF2FFF3F09F454CF882309F492
:10461000B1CFFE1708F0AECFDE2F8F5F9ACE9F3F4F
:1046200041F02F3F09F455C0291708F4BCCF922F51
:10463000BACF922F80E02F3F09F0B6CFB6CFE4E09B
:10464000F0E0EA50F44FC4879091020C2091030CE3
:104650003091040C4091050C5091060C7091070CA0
:10466000E091080CF091090CCFCDE4E0F0E0EA50C5
:10467000F44F9FEF9487E8CF90E057CE90E040CE84
:1046800090E029CE90E012CEB0E0FBCDB0E0E4CDDA
:10469000D0E0D0CDB0E0CACD80910A0C61113CC011
:1046A000CD2F21E010CF392F38CFE72F5ACF752FDC
:1046B0004FCF542F44CF432F39CFE72FA3CF752FA0
:1046C00098CF542F8DCF432F82CF392F77CF81E0D2
:1046D0001BCF81E06ACF40E0E0E0F0E04FCD41E069
:1046E000E1E0F0E04BCD42E0E2E0F0E047CD43E036
:1046F000E3E0F0E043CD44E0E4E0F0E03FCD45E02E
:10470000E5E0F0E03BCDE0E0F0E09BCFE0E0F0E082
:10471000AECFE1E0F0E095CF19DB80910A0C99274C
:1047200087FD9095019666E070E00E944749282F2A
:1047300020930A0CB5CFE1E0F0E099CFE2E0F0E0A1
:1047400080CFE2E0F0E093CFE3E0F0E07ACFE3E087
:10475000F0E08DCFE5E0F0E08ACFE5E0F0E071CF6A
:10476000E6E0F0E084CFE6E0F0E06BCFE7E0F0E0F9
:1047700068CF80E020E04C2F61E0A7CE83E0FACF45
:1047800082E0F8CF81E0F6CF84E0F4CF85E0F2CF8D
:10479000922F80E02F3F09F0B6CEB6CE80910A0C62
:1047A00020E091CE8F929F92AF92BF92EF92FF92B4
:1047B0000F931F93CF93DF93EC0189A5811110C054
:1047C000EBA5E11144C01DA21CA2DF91CF911F9166
:1047D0000F91FF90EF90BF90AF909F908F900895B2
:1047E0001C821D821E821F820E891F896CA17DA1E1
:1047F000CB01A0E0B0E077276627980140E050E0C9
:104800000E94104EB9013F8F2E8F28A5211175C02F
:1048100084E08BA719A218A2AA27609FB12D719FCF
:10482000C001169FB00D811D9A1F709FB00D811D94
:104830009A1F11248AA39BA388899989AA89BB8975
:1048400088839983AA83BB83E4E02FA319A64C81B4
:104850005D816E817F81872F9927AA27BB27892BAE
:104860008A2B8B2B09F02FC088809980AA80BB806F
:10487000E23009F475C008F06EC0E13009F47FC081
:1048800080E090E0EAA0FBA08C019701AA27029F9C
:10489000B12D139FF001309FB00DE11DFA1F129F43
:1048A000B00DE11DFA1F112488A199A1E80FF91F8D
:1048B000FDA3ECA3480D591D6A1D7B1D4C835D8330
:1048C0006E837F8382CF1C821D821E821F8218828C
:1048D00019821A821B82EF5FEBA7E33009F457C0FD
:1048E000E53009F447C0E23009F458C0812C912C1E
:1048F000540140E050E0BA01BBCF81E08BA7AA276A
:10490000609FB12D719FC001169FB00D811D9A1F30
:10491000709FB00D811D9A1F112488A399A36095E3
:104920007095AA27609FB12D719FC001169FB00D91
:10493000811D9A1F709FB00D811D9A1F11248AA39B
:104940009BA388859985AA85BB8588839983AA833B
:10495000BB83E1E07ACFE33079F0E43009F090CF27
:104960008EA181114CC0BB27A72F962F852F809534
:10497000909588CF1BA627CF8C899D8983CF8EA148
:10498000811160C0BB27A72F962F852F7BCF19A23F
:1049900018A28E899F899BA38AA317CF2E893F894E
:1049A0003DA32CA34C895D89AA27429FB12D539F1B
:1049B000C001349FB00D811D9A1F529FB00D811D03
:1049C0009A1F112488A399A340955095AA27429F26
:1049D000B12D539FC001349FB00D811D9A1F529F6E
:1049E000B00D811D9A1F11248AA39BA38C859D85E0
:1049F000AE85BF8588839983AA83BB83E6CEF52ED7
:104A0000E62F6F3F09F440C0862F8F5F90E0880F3C
:104A1000991FF0E0EE0FFF1FE050FD4F0190F08175
:104A2000E02DDC01A050BD4F8D919C918E1B9F0B02
:104A3000A92FBB27FA9EC001FB9E900D11248E0F5B
:104A40009F1F95CFF52EE62F6F3F09F1862F8F5FC1
:104A500090E0880F991FF0E0EE0FFF1FE050FF4F2E
:104A60000190F081E02DDC01A050BF4F8D919C9111
:104A70008E1B9F0BA92FBB27FA9EC001FB9E900D9A
:104A800011248E0F9F1FFECE8EEF91E0C2CF8EEFCE
:104A900091E0E1CFCF93DF930E941E3895D90E9419
:104AA000AB168091BC0ED82FD17081FF70C0C3E0CF
:104AB000D0937F0DC093830D89E59DE00E94EF3672
:104AC000D093AB0DC093AF0D85E89DE00E94EF360B
:104AD000D093D70DC093DB0D81EB9DE00E94EF36A4
:104AE000D093030EC093070E8DED9DE00E94EF362C
:104AF000D0932F0EC093330E89E09EE00E94EF36D4
:104B0000D0935B0EC0935F0E85E39EE00E94EF366C
:104B10008091BD0ED82FD17081FF3BC0C3E0D093F0
:104B2000770CC0937B0C81E59CE00E94EF36D0931C
:104B3000A30CC093A70C8DE79CE00E94EF36D093A6
:104B4000CF0CC093D30C89EA9CE00E94EF36D0933F
:104B5000FB0CC093FF0C85ED9CE00E94EF36D093D8
:104B6000270DC0932B0D81E09DE00E94EF36D0937E
:104B7000530DC093570D8DE29DE00E94EF361092C9
:104B8000000F8FEF8093FF0EDF91CF910895C1E06A
:104B90008FCFC1E0C4CFCF92DF92EF92FF920F93FD
:104BA0001F93CF93DF93CDB7DEB765970FB6F89419
:104BB000DEBF0FBECDBF8B018D8B0E941E384D898D
:104BC0000115110509F061C0423109F4D2C0473224
:104BD00009F4D4C00115110509F073C04C3109F472
:104BE00080C0012B09F442C0433039F1842F845036
:104BF000823008F4FEC0842F87508330B8F54730E8
:104C000009F4E6C0483009F489C08091D60B909130
:104C1000D70BA0E0B0E09054A109B109B7FD87C15E
:104C2000009721E0A207B1050CF076C19093C50E64
:104C30008093C40E83EE98E085C08091C30E9927BF
:104C400087FD9095029666E070E00E944749E82F44
:104C50008093C30E853008F0C9C0F0E0EE0FFF1F4F
:104C6000EC5FFA4F8081918161E094D965960FB62F
:104C7000F894DEBF0FBECDBFDF91CF911F910F9192
:104C8000FF90EF90DF90CF9008954111A0CF8091D9
:104C9000BF0E83708F5F8093BF0E4D8B95D8E091D0
:104CA000BF0E4D89E53008F02BC1F0E0EE0FFF1F7D
:104CB000E65EFA4F8081918161E04D8B6BD94D8921
:104CC00090CF842F8150823008F088CF413009F096
:104CD0006CC18091C00E242F281B822F2093C00E00
:104CE00002C08091C00EE091A50BE295E170EF5FEC
:104CF000880FE80FE530C0F5F0E0EE0FFF1FEC5D28
:104D0000FA4FE080F180423009F44CC04D8B0E9494
:104D1000AB1661E0C7013ED94D8963CF8091F10E9A
:104D200090E00196837099278093F10E8150863030
:104D300008F0ECC0E82FF0E0EE0FFF1FE25FFA4F43
:104D40008081918124E2EAECFEE0DF011D922A9548
:104D5000E9F72091C60E3091C70E2095309530931B
:104D6000C70E2093C60E80CFA5EDEA2EA8E0FA2E3E
:104D7000CACF0E94E8348EDE4D892CCF4D8B24D8CB
:104D8000E0910B0C4D89E53008F0BDC0F0E0EE0F6E
:104D9000FF1FE65EFA4F8081918161E04D8BFAD86A
:104DA0004D8918CF2091C20E822F90E0019663E0CA
:104DB00070E00E9447498093C20E813009F4FDC023
:104DC000823009F4F5C0FBEDEF2EF8E0FF2E9ECF08
:104DD0008091F00E853009F4F5C08C3009F4F8C0EC
:104DE000833009F49EC080E090E0ACCF80E090E09A
:104DF0003BCF19821A821B821C82FE01359680E10C
:104E0000DF011D928A95E9F7DD24D394453009F03E
:104E1000D12CED2CF12C81E59CE0E80EF91EF70178
:104E2000E559FD4F208130E02F5F3F4FC90183706E
:104E30009927808389010170112721FD6AC0CC2444
:104E4000C394D11078C000937F0DC092830D89E583
:104E50009DE04D8B0E94EF360093AB0DC092AF0DDD
:104E600085E89DE00E94EF360093D70DC092DB0DE0
:104E700081EB9DE00E94EF360093030EC092070E77
:104E80008DED9DE00E94EF3600932F0EC092330E01
:104E900089E09EE00E94EF3600935B0EC0925F0EA9
:104EA00085E39EE00E94EF364D89F701E559FD4FFD
:104EB0008081813009F499C008F090C0CE0101963C
:104EC000DC010D900020E9F7119729E0EEEFF8E002
:104ED00001900D922A95E1F7DC010D900020E9F791
:104EE000119725E0DD2009F459C0E0E2F9E00190D6
:104EF0000D922A95E1F761E04D8B4CD84D897BCE20
:104F000085ED98E0D9CE85ED98E047CF8AEF98E01F
:104F100019CF53E0C52E95CF8FEF9FEFA0E0B0E003
:104F200085CE85E08093F00E86EF98E00BCF80E091
:104F300090E0DC0175CE0093770CC0927B0C81E58C
:104F40009CE04D8B0E94EF360093A30CC092A70CFF
:104F50008DE79CE00E94EF360093CF0CC092D30CFB
:104F600089EA9CE00E94EF360093FB0CC092FF0C94
:104F700085ED9CE00E94EF360093270DC0922B0D2B
:104F800081E09DE00E94EF360093530DC092570DD3
:104F90008DE29DE00E94EF364D8987CFE5E2F9E092
:104FA00001900D922A95E1F7A6CFE12CF12CABCE22
:104FB000E6EDEE2EE8E0FE2EA9CE7FEDE72E78E0BE
:104FC000F72EA4CE8CE08093F00E82EF98E0BACE5C
:104FD00083E08093F00E8EEE98E0B4CE823019F12B
:104FE000833091F0CE01019677CFCE010196DC019E
:104FF0000D900020E9F7119729E0E7E0F9E0019032
:105000000D922A95E1F768CFCE010196DC010D9053
:105010000020E9F7119728E0E8E1F9E001900D920E
:105020002A95E1F759CFCE010196DC010D900020C1
:10503000E9F7119728E0E0E1F9E001900D922A9557
:10504000E1F74ACF4F925F926F927F928F929F9239
:10505000AF92BF92CF92DF92EF92FF920F931F9386
:10506000CF93DF9300D01F92CDB7DEB76FB6F89421
:10507000882309F4A9C0B12C1B2D110F110F110F9A
:1050800096EC00ECDD24D39477E8772EE0EEEE2E5C
:10509000F7E08F2EA0E4FA2EB7E49B2E87EEA82E21
:1050A00047EF52EE91BB08B92B2D220F322F3670ED
:1050B0003064822F880F8072207C822B2B2D2695C6
:1050C0002270D5B838B98BB92EB971BA6DE06A952E
:1050D000F1F7000091BB08B900C0E7B88AB8EDB895
:1050E000D5B8F8B81BB8FEB891BA82E08A95F1F746
:1050F00000C036B189B12CB1C32EC694E3E0CE22F4
:10510000F0E83F9FB0011124C62A382F3071C32A1E
:10511000382F369536953870C32A86958076C82AFA
:1051200030E0220F331F24703327C22A91BB08B905
:1051300000C0A7B84AB95DB96DE06A95F1F7000003
:10514000EB2DF0E0EE55F44F50805C24C0825520EA
:1051500001F150FC3CC05694C69450FC4BC0569490
:105160004C2C469450FC5CC0C52CC694542C5694D0
:10517000C0FC6DC0C6945694C0FC7EC0C6945694C4
:10518000C0FC8FC0C6945694C0FCA0C0C69409F061
:10519000B1C0B394185F8FE08B1508F083CF6FBE5A
:1051A0000F900F900F90DF91CF911F910F91FF9073
:1051B000EF90DF90CF90BF90AF909F908F907F90B7
:1051C0006F905F904F90089598E0B92E55CF6C2D59
:1051D0006170103408F4A8C0812F80544A835B8327
:1051E00099830E94552099815B814A815694C69487
:1051F00050FEB5CF6C2D6170812F8F5F803408F425
:10520000C3C0812F8F534A835B8399830E945520AB
:1052100099815B814A8156944C2C469450FEA4CFD0
:10522000642D6170812F8E5F803408F4B6C0812FA9
:105230008E534A835B8399830E94552099815B81B9
:105240004A81C52CC694542C5694C0FE93CF652D2C
:105250006170812F8D5F803408F484C0812F8D535D
:105260004A835B8399830E94552099815B814A819F
:10527000C6945694C0FE82CF652D6170812F8C5FDD
:10528000803408F478C0812F8C534A835B839983E0
:105290000E94552099815B814A81C6945694C0FE34
:1052A00071CF652D6170812F8B5F803408F448C009
:1052B000812F8B534A835B8399830E945520998168
:1052C0005B814A81C6945694C0FE60CF652D6170A3
:1052D000812F8A5F803408F43CC0812F8A534A832F
:1052E0005B8399830E94552099815B814A81C69492
:1052F00009F44FCF652D6695812F895F803458F072
:10530000812F89534A835B8399830E945520998119
:105310005B814A813ECF70E04A835B8399833BDCAB
:105320004A815B81998135CF772767FD7095812F01
:105330004A835B8399832FDC4A815B8199810BCF00
:1053400070E04A835B83998326DC4A815B81998183
:1053500019CF70E04A835B8399831DDC4A815B81AE
:10536000998114CF70E04A835B83998314DC4A816E
:105370005B819981FFCE70E04A835B8399830BDC6C
:105380004A815B819981FACE70E04A835B8399837D
:1053900002DC4A815B819981E2CE70E04A835B83C3
:1053A0009983F9DB4A815B819981DECECF93C82F47
:1053B00082958F708A3060F097E3890F0E94E71F13
:1053C000CF70CA3060F087E38C0FCF910C94E71F49
:1053D00090E3890F0E94E71FCF70CA30A0F780E3E7
:1053E0008C0FCF910C94E71FAF92BF92CF92DF92B8
:1053F000EF92FF920F931F93CF93DF93E0E1FCE0D6
:1054000070E048E050E0C6ECB0ECA7E8D1E087E4FB
:10541000F82E90EFA92E22EAD22E81919191272F7A
:105420002695269526958A0102C0000F111F2A9500
:10543000E2F7602F6095687F272F2770622BEFB609
:10544000F8949C01232F332726952695B22EC1BBB5
:10545000B8B9022F000F102F167010682071332773
:105460002260302F330F3072322B202F207C322BD2
:105470002B2D26952270206215B818B93BB92EB98C
:10548000A1BB9695879596958795282FC1BBB8B9EE
:10549000182F110F382F3695221F2227221F06E0C2
:1054A000C02EC1222C292068807199278260912FFB
:1054B000990F9072982B812F807C982B327015B8A1
:1054C00028B99BB93EB9A1BBC1BBB8B9262F220FE1
:1054D000962F9695362F331F3327331F822F8670D2
:1054E000382B30646071822F880F8072862B207C6D
:1054F000822B9270906AD5B938B98BB99EB9A1BB8D
:105500001DE01A95F1F70000C1BBB8B9D5B9F8B8DC
:10551000ABB8DEB8A1BB88E28A95F1F7EFBE7F5F3A
:10552000703209F07ACF8091500C96EC91BB90ECE0
:1055300098B9382F330F982F9695232F2670206413
:10554000482F441F4427441F242B482F4071832F8A
:10555000880F8072842B307C832B9270906631E0B0
:1055600035B928B98BB99EB987E881BBDF91CF9156
:105570001F910F91FF90EF90DF90CF90BF90AF9071
:1055800008958091EA108F77B1F4E091E710E6304A
:1055900008F4B3C0EC3008F0A0C08FE78093FA0E97
:1055A000E55DF0E0E25DFA4F80818093FB0E81E0E3
:1055B0000E949B1419DF4091E710E42FF0E0EE0FFA
:1055C000FF1FE05FF34F20813181542F5695569590
:1055D000569588E090E001C0880F5A95EAF78095CB
:1055E000887F4770842BBFB7F894A901452F5527B2
:1055F00046954695A42F76EC71BB60EC68B9F42F04
:10560000FF0FEF2FE670E0684071552742609F2F33
:10561000990F9072942BF07C9F2B4A2F46954270E5
:10562000406215B8E8B99BB94EB957E851BB3695F9
:10563000279536952795422F71BB68B9F22FFF0F3A
:10564000E22FE695441F4427441F9F2F9670492B55
:1056500040682071332722609F2F990F9072922B00
:10566000F07C9F2BE27015B848B99BB9EEB951BBDD
:1056700071BB68B9482F440F282F2695382F331F48
:105680003327331F942F9670392B30648071942FF9
:10569000990F9072982B407C942B2270206A81E0A5
:1056A00085B938B99BB92EB951BB9DE09A95F1F7F0
:1056B000000071BB68B985B987E488B980EF8BB900
:1056C00082EA8EB951BB88E28A95F1F7BFBF80911B
:1056D000EA108F5F8093EA100895EB5D81E7809375
:1056E000FA0E8E2F90E08038910560F4FC01E25DA7
:1056F000FA4F80818093FB0E5ACF87E78093FA0E92
:10570000EF5C4FCF8FEFF6CF6F927F928F929F9289
:10571000AF92BF92CF92DF92EF92FF920F931F93BF
:10572000CF93DF93C0E3D5E7A6EC6A2EB0EC7B2ED7
:1057300010EE812E07E0902EAA24A39480E4B82EC8
:1057400090E2C92E27E4D22E37EEE32E47EFF42E57
:1057500002EE03C0209709F446C013DF61BA78B89F
:1057600000C087B89AB88DB8A5B8B8B81BB8CEB87D
:10577000D1BA82E08A95F1F700C046B189B12CB167
:10578000142F1695137090E8499FA0011124142B33
:10579000982F9071192B982F969596959870192B94
:1057A00086958076182B30E0220F331F2470332724
:1057B000122B61BA78B800C0E7B8FAB80DB92197D2
:1057C00011FFC8CFCD2B79F0DF91CF911F910F91B1
:1057D000FF90EF90DF90CF90BF90AF909F908F9011
:1057E0007F906F9008958CE691E00E943B2080911D
:1057F000EB10DCDD812FDADD84E891E0DF91CF91E1
:105800001F910F91FF90EF90DF90CF90BF90AF90DE
:105810009F908F907F906F900C943B206F927F921F
:105820008F929F92AF92BF92CF92DF92EF92FF92B0
:105830000F931F93CF93DF93C0E3D5E766EC662EFB
:1058400070EC772EE0EE8E2EF7E09F2EAA24A39424
:10585000A0E4BA2EB0E2CB2E17E4D12E07EEE02E54
:1058600087EFF82E02EE03C0209709F446C089DEC8
:1058700061BA78B800C087B89AB88DB8A5B8B8B87A
:105880001BB8CEB8D1BA82E08A95F1F700C046B114
:1058900089B12CB1142F1695137090E8499FA0017F
:1058A0001124142B982F9071192B982F969596955B
:1058B0009870192B86958076182B30E0220F331FB5
:1058C00024703327122B61BA78B800C0E7B8FAB851
:1058D0000DB9219711FDC8CFCD2B79F0DF91CF9174
:1058E0001F910F91FF90EF90DF90CF90BF90AF90FE
:1058F0009F908F907F906F9008958CE691E00E942A
:105900003B208091EB1052DD812F50DD84E891E047
:10591000DF91CF911F910F91FF90EF90DF90CF908B
:10592000BF90AF909F908F907F906F900C943B2092
:1059300096EC91BB90EC98B9482F440F282F2695F0
:10594000342F36703064982F991F9927991F392B5F
:105950008071942F990F9072982B407C942B227019
:10596000206615B838B99BB92EB987E881BB85E0A8
:105970008A95F1F7000008954091EC10242F2260E1
:105980002093EC1086EC81BB80EC88B9322F330F6A
:10599000922F9695221F2227221F832F8670282B55
:1059A0002064832F880F80724071842B307C832B7E
:1059B0009270906C31E035B928B98BB99EB987E8FF
:1059C00081BB85E08A95F1F700008091EB108F5F35
:1059D0008093EB10089580959091EC10892380932B
:1059E000EC1096EC91BB90EC98B9482F440F282FFF
:1059F0002695382F331F3327331F942F9670392B5A
:105A000030648071942F990F9072982B407C942B66
:105A10002270206C81E085B938B99BB92EB987E82E
:105A200081BB85E08A95F1F700008091EB108F5FD4
:105A30008093EB1008958091EC1080618093EC10BE
:105A400096EC91BB90EC98B9382F330F982F969520
:105A5000282F221F2227221F832F8670282B2064A5
:105A6000832F880F80728061307C832B9270906CC2
:105A700031E035B928B98BB99EB987E881BB85E09B
:105A80008A95F1F700008091EB108F5F8093EB1007
:105A900008953091EC10932F98609093EC1086EC61
:105AA00081BB80EC88B9292F220F892F8695991FF9
:105AB0009927991F422F4670942B9064207C307157
:105AC0003062232B8270806C31E035B998B92BB9E4
:105AD0008EB987E881BB85E08A95F1F70000809157
