:100000004BC0000021C100001FC100001DC1000045
:100010001BC100000C94F24717C1000015C100007D
:1000200013C1000011C100000C94B0470C94B145FD
:100030000BC1000009C1000007C1000005C100009C
:1000400003C1000001C10000FFC00000FDC00000AE
:10005000FBC000000C94C048F7C00000F5C00000D1
:10006000F3C00000F1C00000EFC00000EDC00000D0
:10007000EBC00000E9C00000E7C00000E5C00000E0
:10008000E3C00000E1C00000DFC00000DDC00000F0
:10009000DBC00000D9C0000011241FBECFEFD0E2AA
:1000A000DEBFCDBF0E94D1F8B6C0000005A84CCD80
:1000B000B2D44EB93836A9020C50B9918688083CA2
:1000C000A6AAAA2ABE000000803F08000000BE9237
:1000D0002449123EABAAAA2ABECDCCCC4C3E00008D
:1000E0000080BEABAAAAAA3E00000000BF0000002C
:1000F000803F0000000000084178D3BB4387D11344
:100100003D190E3CC3BD4282AD2B3E68EC8276BEEB
:10011000D98FE1A93E4C80EFFFBE01C4FF7F3F00B5
:100120000000000007634236B79BD8A71A3968560B
:1001300018AEBAAB558C1D3CB7CC5763BD6DEDFD09
:10014000753EF6177231BF000000803F0A000001C3
:100150000000850112000200009701220022000029
:10016000B9011500210000A9010900030000CE011A
:100170000401030904D2011402030904E801200068
:100180000001C126001201000200000020C0167903
:100190000400010102000109022200010100C03235
:1001A00009040000010300000009211101000122DF
:1001B0001500070583032000010631FF0974A153D0
:1001C0007508150026FF00952009758102C00403FB
:1001D0000904140359006F007500720020004E00DE
:1001E00061006D0065000000200359006F0075007C
:1001F00072002000550053004200200044006500BA
:100200007600690063006500000011241FBECFEF77
:10021000D0E2DEBFCDBF17E1ACE1BAE001C01D9274
:10022000AB33B107E1F71AE0A0E0B1E0EEE7FFEA97
:1002300000E00BBF02C007900D92AC31B107D9F7B7
:100240000E94F6480C94BD57DBCE2F923F924F92FE
:100250005F926F927F928F929F92AF92BF92CF9256
:10026000DF92EF92FF920F931F93CF93DF93CDB75F
:10027000DEB761970FB6F894DEBF0FBECDBF0E9408
:1002800095298091340D80FD02C00C94410E609040
:10029000D0157090D11582FD02C00C943D0E2090B7
:1002A000D0153090D115388A2F86E090520DF090FD
:1002B000530DC701A0E0B0E09058A109B1097C013D
:1002C0008091300D882311F40C94130E0091640D6D
:1002D0001091650D20E030E010582109310980911E
:1002E000460A8F3011F40C941B0E823011F00C94DE
:1002F000510E8091341781110C94450E45E050E069
:100300005A87498724E030E03C832B8343E050E068
:100310005C874B8722E030E03E832D8341E050E054
:1003200058874F8382EB93E10E94C7358AEB94E1B3
:100330000E94C735D12C19821E861A821D86198A01
:1003400080911C0A90911D0AA0911E0AB0911F0A6B
:10035000CFB6F894892B8A2B8B2B11F40C94010FB8
:10036000D1100C943A0F4091D6135091D7134301FA
:10037000AA2497FCA094BA2CAA27049FB12D150398
:10038000C001509FB00D811D9A1F14039A0BB00D30
:10039000811D9A1F1124AA2797FDA095BA2F880DB9
:1003A000991DAA1DBB1D2091D5153091D615820F20
:1003B000931FA11DB11DB7FF02C00C94910F0097B0
:1003C00031E0A307B10524F08FEF9FEFA0E0B0E08C
:1003D0009C01232F332726952695F22F66EC61BBCF
:1003E000469AE22FEE0F7E2F7670706820713327C9
:1003F00022603E2F330F3072322BE07C3E2BF6957D
:10040000F270F06215B878B93BB9FEB937E831BB84
:100410009695879596958795282F61BB469AE82FE4
:10042000EE0F782F7695221F2227221FFE2FF670BF
:100430002F2B20688071992782609E2F990F9072D0
:10044000982BE07C9E2B727015B828B99BB97EB9A9
:1004500031BB61BB469A81E085B991E498B990EDD2
:100460009BB990EA9EB931BB61BB469A85B987E4D6
:1004700088B980EF8BB982EA8EB931BB8091E115E2
:100480009091E21514012501280E391E411C511CC2
:10049000D201C10157FE02C00C949B0F009721E0CE
:1004A000A207B10524F08FEF9FEFA0E0B0E01C01A0
:1004B000892F992786958695782F26EC21BB469A19
:1004C000682F660F362F36703068807199278260EA
:1004D000962F990F9072982B607C962B7695727060
:1004E000706215B838B99BB97EB997E891BB36945C
:1004F000279436942794822D21BB469A622D660F4D
:10050000322D3695881F8827881F762F7670872B87
:100510008068F101E071FF27E260762F770F70723B
:100520007E2B607C762B327015B888B97BB93EB9CA
:1005300091BB21BB469A31E035B985E488B980ED9D
:100540008BB982EA8EB991BB21BB469A35B927E4B3
:1005500028B920EF2BB98EB991BB2F84388841017F
:10056000AA2497FCA094BA2C9701AA27249FB12D06
:100570003503C001529FB00D811D9A1F34039A0BA1
:10058000B00D811D9A1F1124AA2797FDA095BA2F9F
:10059000880E991EAA1EBB1E8091ED159091EE1536
:1005A000880E991EA11CB11CB7FE02C00C94960FB8
:1005B000D501C4018114910431E0A306B10424F0F3
:1005C0008FEF9FEFA0E0B0E01C01892F992786955F
:1005D0008695482F56EC51BB469A382F330F232F60
:1005E00026702068807199278260932F990F9072EE
:1005F000982B307C932B46954270406215B828B9F1
:100600009BB94EB947E841BB36942794369427945A
:10061000822D51BB469A222D220F922D9695881F2E
:100620008827881F322F3670832B8068B101607154
:1006300077276260322F330F3072362B207C322BBB
:10064000927015B888B93BB99EB941BB51BB469A67
:1006500061E065B981E488B980EE8BB972EA7EB950
:1006600041BB51BB469A65B9F7E4F8B9E0EFEBB985
:100670007EB941BB8091DE149091DF149C01232F41
:10068000332726952695A22E51BB469AB22FBB0F33
:10069000AB2FA670A0682071332722603B2F330F49
:1006A0003072322BB07C3B2B2A2D26952270206293
:1006B00015B8A8B93BB92EB941BB969587959695C3
:1006C0008795282F51BB469AA82FAA0F382F369509
:1006D000221F2227221FBA2FB6702B2B2068807171
:1006E000992782609A2F990F9072982BA07C9A2B51
:1006F000327015B828B99BB93EB941BB51BB469A77
:1007000065B985E488B980EB8BB980EA8EB941BBC5
:1007100051BB469A65B9F8B9EBB97EB941BBCFBEBA
:100720008091200A9091210AA091220AB091230A77
:10073000CFB6F894892B8A2B8B2B11F40C94DF0EF7
:10074000D1100C94300F4989242F332727FD309581
:100750008CE2829FF001839FF00D1124E255FC4E44
:1007600040A551A54301AA2497FCA094BA2CAA271E
:10077000049FB12D1503B001509FB00D611D7A1F6C
:1007800014037A0BB00D611D7A1F11241B01442440
:1007900037FC4094542C280C391C4A1C5B1C8F815C
:1007A0009885880F991FFC01E255FC4EE95DFD4FCD
:1007B0000190F081E02D2E0E3F1E411C511C57FE72
:1007C00002C00C94700F2114310461E046065104FC
:1007D0002CF022242A94322C412C512CB101F1010D
:1007E000EF2FFF27E695E6954E2EA6ECA1BB469A85
:1007F0005E2E550CB52DB670B068E071FF27E26033
:10080000F52DFF0FF072FE2BE52DE07CFE2BE42D85
:10081000E695E270E06215B8B8B9FBB9EEB9F7E851
:10082000F1BB7695679576956795E62FA1BB469ABD
:10083000562E550CB62FB695EE1FEE27EE1F0F2E37
:10084000F6E04F2EF02D4520E429E068607177270F
:100850006260752D770F7072762B652D607C762B1C
:10086000B27015B8E8B97BB9BEB9F1BBA1BB469A65
:1008700061E065B973E478B970ED7BB970EA7EB96F
:10088000F1BBA1BB469A65B967E468B960EF6BB983
:1008900062EA6EB9F1BBFC01E255FC4EED5CFD4F26
:1008A00060817181860E971EA11CB11CB7FE02C02B
:1008B0000C946B0F8114910471E0A706B1042CF025
:1008C00088248A94982CA12CB12CB401672F772707
:1008D00066956695B62FE6ECE1BB469AA62FAA0F61
:1008E000FA2FF670F0686071772762607A2F770FC1
:1008F0007072762BA07C7A2BB695B270B06215B868
:10090000F8B97BB9BEB977E871BB96948794969491
:100910008794682DE1BB469AA82DAA0FF82DF6956D
:10092000661F6627661FBA2FB6706B2B6068B0E132
:100930008B229924B2E02B2E8228BA2FBB0FB072E3
:10094000B829A07CBA2BF27015B868B9BBB9FEB94A
:1009500071BBE1BB469AA1E0A5B9F7E4F8B960ED37
:100960006BB962EA6EB971BBE1BB469AA5B9F8B939
:10097000E0EFEBB96EB971BB4F8458884201AA24ED
:1009800097FCA094BA2CB701AA27649FB12D7503D8
:10099000F001569FB00DE11DFA1F7403FA0BB00D64
:1009A000E11DFA1F1124AF01662757FD6095762FD0
:1009B000840E951EA61EB71E82559C4EFC01E15C5E
:1009C000FD4F80819181880E991EA11CB11CB7FE3C
:1009D00002C00C94570F8114910471E0A706B10472
:1009E0002CF088248A94982CA12CB12CC401B40139
:1009F000672F772766956695F62F56EC51BB469A7A
:100A0000E62FEE0F4E2F46704068607177276260C8
:100A10007E2F770F7072762BE07C7E2BF695F2702E
:100A2000F06215B848B97BB9FEB947E841BB969565
:100A3000879596958795682F51BB469AE82FEE0FBC
:100A4000782F7695661F6627661FFE2FF6706F2B30
:100A500060688071992782609E2F990F9072982B01
:100A6000E07C9E2B727015B868B99BB97EB941BB0A
:100A700051BB469A61E065B983E488B980EE8BB9D1
:100A800072EA7EB941BB51BB469A65B9A7E4A8B9E1
:100A9000B0EFBBB97EB941BB8CE2829FF001839F6E
:100AA000F00D1124E252FB4E808191819C01232F95
:100AB000332726952695B22E51BB469AF22FFF0F6B
:100AC000EF2FE670E0682071332722603F2F330F4D
:100AD0003072322BF07C3F2B2B2D2695227020621A
:100AE00015B8E8B93BB92EB941BB9695879596954F
:100AF0008795282F51BB469AE82FEE0F382F369551
:100B0000221F2227221FFE2FF6702F2B20688071B4
:100B1000992782609E2F990F9072982BE07C9E2BD4
:100B2000327015B828B99BB93EB941BB51BB469A42
:100B300065B9A8B980EB8BB980EA8EB941BB51BBCE
:100B4000469A65B9A8B9BBB97EB941BBCFBE809101
:100B5000240A9091250AA091260AB091270ACFB6BF
:100B6000F894892B8A2B8B2B11F40C94C30ED11083
:100B70000C944D0F2D84222D332727FD30958CE2C8
:100B8000829FF001839FF00D1124E255FC4E40A599
:100B900051A54301AA2497FCA094BA2CAA27049F2C
:100BA000B12D1503B001509FB00D611D7A1F1403C4
:100BB0007A0BB00D611D7A1F11241B01442437FCF0
:100BC0004094542C280C391C4A1C5B1C8D819E813E
:100BD000880F991FFC01E255FC4EE95DFD4F019025
:100BE000F081E02D2E0E3F1E411C511C57FE02C00D
:100BF0000C945C0F2114310461E0460651042CF082
:100C000022242A94322C412C512CB101F101EF2FD6
:100C1000FF27E695E6954E2EA6ECA1BB469A5E2EE2
:100C2000550CB52DB670B068E071FF27E260F52D68
:100C3000FF0FF072FE2BE52DE07CFE2BE42DE695F8
:100C4000E270E06215B8B8B9FBB9EEB9F7E8F1BBEC
:100C50007695679576956795E62FA1BB469A562EB1
:100C6000550CB62FB695EE1FEE27EE1F0F2EF6E0B1
:100C70004F2EF02D4520E429E068607177276260EF
:100C8000752D770F7072762B652D607C762BB27088
:100C900015B8E8B97BB9BEB9F1BBA1BB469A61E012
:100CA00065B975E478B970ED7BB970EA7EB9F1BBCE
:100CB000A1BB469A65B967E468B960EF6BB962EAAF
:100CC0006EB9F1BBFC01E255FC4EED5CFD4F60815D
:100CD0007181860E971EA11CB11CB7FE02C00C9438
:100CE000660F8114910471E0A706B1042CF08824EA
:100CF0008A94982CA12CB12CB401672F7727669584
:100D00006695B62FE6ECE1BB469AA62FAA0FFA2FFE
:100D1000F670F0686071772762607A2F770F7072D3
:100D2000762BA07C7A2BB695B270B06215B8F8B964
:100D30007BB9BEB977E871BB9694879496948794F3
:100D4000682DE1BB469AA82DAA0FF82DF695661FCF
:100D50006627661FBA2FB6706B2B6068B0E18B22D6
:100D60009924B2E02B2E8228BA2FBB0FB072B8297B
:100D7000A07CBA2BF27015B868B9BBB9FEB971BBCB
:100D8000E1BB469A61E065B9F1E4F8B9F0EEFBB970
:100D9000F0EAFEB971BBE1BB469A65B967E468B990
:100DA00060EF6BB962EA6EB971BB4F84588842013B
:100DB000AA2497FCA094BA2CB701AA27649FB12D4E
:100DC0007503F001569FB00DE11DFA1F7403FA0B75
:100DD000B00DE11DFA1F1124AF01662757FD609584
:100DE000762F840E951EA61EB71E82559C4EFC01C2
:100DF000E15CFD4F80819181880E991EA11CB11C80
:100E0000B7FE02C00C94610F8114910471E0A70633
:100E1000B1042CF088248A94982CA12CB12CC40104
:100E2000B401672F772766956695F62F56EC51BB70
:100E3000469AE62FEE0F4E2F467040686071772776
:100E400062607E2F770F7072762BE07C7E2BF6959A
:100E5000F270F06215B848B97BB9FEB947E841BBFA
:100E60009695879596958795682F51BB469AE82F5A
:100E7000EE0F782F7695661F6627661FFE2FF67099
:100E80006F2B60688071992782609E2F990F9072F6
:100E9000982BE07C9E2B727015B868B99BB97EB90F
:100EA00041BB51BB469A71E075B985E488B980EEC3
:100EB0008BB962EA6EB941BB51BB469A75B9B7E4CA
:100EC000B8B9A0EFABB96EB941BB8CE2829FF0011B
:100ED000839FF00D1124E252FB4E808191819C0191
:100EE000232F332726952695B22E51BB469AF22FF3
:100EF000FF0FEF2FE670E0682071332722603F2F4D
:100F0000330F3072322BF07C3F2B2B2D2695227025
:100F1000206215B8E8B93BB92EB941BB96958795C3
:100F200096958795282F51BB469AE82FEE0F382FBC
:100F30003695221F2227221FFE2FF6702F2B2068A6
:100F40008071992782609E2F990F9072982BE07C78
:100F50009E2B327015B828B99BB93EB941BB51BB25
:100F6000469A75B981E488B980EB8BB96EB941BBFB
:100F700051BB469A75B9B8B9ABB96EB941BBCFBED2
:100F80008091280A9091290AA0912A0AB0912B0AEF
:100F9000CFB6F894892B8A2B8B2B09F4D8C6D110A5
:100FA00073C72A80332427FC30943E822D823A81F5
:100FB0002CE2329FD0011124A255BC4E98962D915F
:100FC0003C9199974301AA2497FCA094BA2CAA2794
:100FD000029FB12D1303A001309FB00D411D5A1F78
:100FE00012035A0BB00D411D5A1F11241A0144243B
:100FF00037FC4094542C280C391C4A1C5B1C8B85F4
:101000009C85880F991FDC01AB52BA4E6D917C9183
:10101000260E371E411C511C57FC96C7B201A10178
:1010200021143104A1E04A06510424F04FEF5FEF90
:1010300060E070E0BA01672F772766956695462EC7
:10104000A6ECA1BB469A562E550CB52DB670B068CD
:10105000607177276260752D770F7072762B652D22
:10106000607C762B642D66956270606215B8B8B9A5
:101070007BB96EB977E871BB5695479556954795FC
:10108000642FA1BB469A542E550CB42FB695661FFB
:101090006627661FE6E04E2E452064296068407191
:1010A00055274260552D550F5072542B452D407CCD
:1010B000542BB27015B868B95BB9BEB971BBA1BB8E
:1010C000469A51E055B947E448B960ED6BB960EA1A
:1010D0006EB971BBA1BB469A55B948B940EF4BB93F
:1010E00042EA4EB971BBDC01AF51BA4E4D915C91F1
:1010F000840E951EA11CB11CB7FC22C7811491045B
:10110000B1E0AB06B1042CF088248A94982CA12C71
:10111000B12CA401452F552746954695B42F66EC72
:1011200061BB469AA42FAA0F7A2F7670706840711F
:10113000552742605A2F550F5072542BA07C5A2BC2
:10114000B695B270B06215B878B95BB9BEB957E858
:1011500051BB9694879496948794482D61BB469A88
:10116000A82DAA0F782D7695441F4427441FBA2F27
:10117000B6704B2B4068E0E18E229924F2E08F2A72
:10118000BA2FBB0FB072B829A07CBA2B727015B8F9
:1011900048B9BBB97EB951BB61BB469A41E045B97C
:1011A00073E478B970EE7BB970EA7EB951BB61BB6C
:1011B000469A45B947E448B940EF4BB942EA4EB9BF
:1011C00051BB2F8438884101AA2497FCA094BA2CE3
:1011D000B701AA27629FB12D7303A001369FB00DFE
:1011E000411D5A1F72035A0BB00D411D5A1F112485
:1011F000662757FD6095762F840E951EA61EB71E96
:10120000DC01A351BA4E8D919C91880E991EA11CB0
:10121000B11CB7FC6AC68114910471E0A706B10441
:101220002CF088248A94982CA12CB12CC401940110
:10123000232F332726952695722F56EC51BB469ABD
:10124000622F660F462F4670406820713327226058
:10125000362F330F3072322B607C362B272F26959A
:101260002270206215B848B93BB92EB947E841BB96
:101270009695879596958795282F51BB469A682F06
:10128000660F382F3695221F2227221F762F767061
:10129000272B2068807199278260962F990F907272
:1012A000982B607C962B327015B828B99BB93EB943
:1012B00041BB51BB469A71E075B9A7E4BA2EB8B8E4
:1012C00080EE8BB962EA6EB941BB51BB469A75B9E3
:1012D000B8B8B0EFAB2EABB86EB941BB8CE2ED81C4
:1012E000FE818E9FD0018F9FB00D1124A252BB4E64
:1012F0008D919C919C01232F332726952695A22F13
:1013000051BB469AF22FFF0FEF2FE670E068207175
:10131000332722603F2F330F3072322BF07C3F2B6C
:10132000A695A270A06215B8E8B93BB9AEB941BBA9
:101330009695879596958795282F51BB469AE82FC5
:10134000EE0F382F3695221F2227221FFE2FF67010
:101350002F2B20688071992782609E2F990F9072A1
:10136000982BE07C9E2B327015B828B99BB93EB9FA
:1013700041BB51BB469A75B983E488B980EB8BB900
:101380006EB941BB51BB469A75B9B8B8ABB86EB926
:1013900041BBCFBE80912C0A90912D0AA0912E0ABC
:1013A000B0912F0ACFB6F894892B8A2B8B2B09F496
:1013B000B2C4D1104CC52E84222D332727FD309581
:1013C0008CE2829FF001839FF00D1124E255FC4EC8
:1013D00040A551A54301AA2497FCA094BA2CAA27A2
:1013E000049FB12D1503B001509FB00D611D7A1FF0
:1013F00014037A0BB00D611D7A1F11241B014424C4
:1014000037FC4094542C280C391C4A1C5B1C8B81E3
:101410009C81880F991FFC01E255FC4EE95DFD4F50
:101420000190F081E02D2E0E3F1E411C511C57FCF7
:1014300060C52114310461E0460651042CF02224D9
:101440002A94322C412C512CB101F101EF2FFF27AE
:10145000E695E6954E2EA6ECA1BB469A5E2E550C5F
:10146000B52DB670B068E071FF27E260F52DFF0F73
:10147000F072FE2BE52DE07CFE2BE42DE695E2706C
:10148000E06215B8B8B9FBB9EEB9F7E8F1BB7695EB
:10149000679576956795E62FA1BB469A562E550C13
:1014A000B62FB695EE1FEE27EE1F0F2EF6E04F2E4D
:1014B000F02D4520E429E068607177276260752D82
:1014C000770F7072762B652D607C762BB27015B815
:1014D000E8B97BB9BEB9F1BBA1BB469A71E075B959
:1014E00061E468B960ED6BB962EA6EB9F1BBA1BBAA
:1014F000469A75B977E478B970EF7BB96EB9F1BBEC
:10150000FC01E255FC4EED5CFD4F60817181860E61
:10151000971EA11CB11CB7FCF4C48114910471E0A6
:10152000A706B1042CF088248A94982CA12CB12C05
:10153000B401672F772766956695B62FE6ECE1BB79
:10154000469AA62FAA0FFA2FF670F06860717727D7
:1015500062607A2F770F7072762BA07C7A2B6B2FBC
:1015600066956270606215B8F8B97BB96EB9F7E834
:10157000F1BB9694879496948794782DE1BB469A14
:10158000B82DBB0FA82DA695771F7727771F6B2F38
:101590006670762B706860E18622992462E0262EC0
:1015A00082286B2F660F60726829B07C6B2BA2704B
:1015B00015B878B96BB9AEB9F1BBE1BB469A61E039
:1015C00065B975E478B970EE7BB970EA7EB9F1BBA4
:1015D000E1BB469A65B967E468B960EF6BB962EA46
:1015E0006EB9F1BB4F8458884201AA2497FCA0949D
:1015F000BA2CB701AA27649FB12D7503F001569F3D
:10160000B00DE11DFA1F7403FA0BB00DE11DFA1FB6
:101610001124AF01662757FD6095762F840E951E25
:10162000A61EB71E82559C4EFC01E15CFD4F8081D9
:101630009181880E991EA11CB11CB7FC5EC4811457
:10164000910471E0A706B1042CF088248A94982CA8
:10165000A12CB12CC401B401672F7727669566953C
:10166000A62F56EC51BB469AF62FFF0FEF2FE670D0
:10167000E0686071772762604F2F440F4072462BFD
:10168000F07C4F2B6A2F66956270606215B8E8B9DE
:101690004BB96EB947E841BB969587959695879566
:1016A000682F51BB469AE82FEE0F782F7695661F6C
:1016B0006627661FFE2FF6706F2B60688071992772
:1016C00082609E2F990F9072982BE07C9E2B7270F7
:1016D00015B868B99BB97EB941BB51BB469A61E068
:1016E00065B981E488B970EBB72EBBB880EA8EB9D2
:1016F00041BB51BB469A65B9B7E4B8B9A0EFABB9E5
:1017000072EA7EB941BB8CE2829FF001839FF00DAB
:101710001124E252FB4E808191819C01232F3327BB
:1017200026952695A22E51BB469AF22FFF0FEF2F3A
:10173000E670E0682071332722603F2F330F30724C
:10174000322BF07C3F2B2A2D26952270206215B873
:10175000E8B93BB92EB941BB969587959695879583
:10176000282F51BB469AE82FEE0F382F3695221FAF
:101770002227221FFE2FF6702F2B206880719927B9
:1017800082609E2F990F9072982BE07C9E2B327076
:1017900015B828B99BB93EB941BB51BB469A65B94A
:1017A00085E488B9BBB87EB941BB51BB469A65B9DF
:1017B000B8B9ABB97EB941BBCFBE8091300A909128
:1017C000310AA091320AB091330ACFB6F894892B2E
:1017D0008A2B8B2B09F47FC2D11030C32980822D34
:1017E000992787FD90952CE2229EF0011124E25565
:1017F000FC4E20A531A54301AA2497FCA094BA2C45
:10180000AA27029FB12D1303A001309FB00D411DE7
:101810005A1F12035A0BB00D411D5A1F11242A01E1
:10182000662457FC6094762C480C591C6A1C7B1C5F
:10183000E985FA85EE0FFF1FDF01AB52BA4E6D91BD
:101840007C91460E571E611C711C77FC66C3B30168
:10185000A20141145104A1E06A06710424F04FEF83
:101860005FEF60E070E01A01452F552746954695D9
:10187000B42F76EC71BB469AA42FAA0F6A2F66701C
:1018800060684071552742605A2F550F5072542B93
:10189000A07C5A2B4B2F46954270406215B868B910
:1018A0005BB94EB9A7E8A1BBA101569547955695DE
:1018B0004795642F71BB469A142F110FB42FB6951C
:1018C000661F6627661F012F0670602B60684071D7
:1018D00055274260512F550F5072542B107C512BBD
:1018E000B27015B868B95BB9BEB9A1BB71BB469AF5
:1018F00051E055B943E448B940ED4BB942EA4EB91D
:10190000A1BB71BB469A55B957E458B950EF5BB9C2
:101910004EB9A1BBDF01AF51BA4E4D915C9114019C
:101920002501240E351E411C511CB201A10157FC9A
:10193000F0C24115510501E06007710524F04FEF39
:101940005FEF60E070E03A01452F552746954695D8
:10195000B42FA6ECA1BB469A742F770F672F667041
:101960006068407155274260572F550F5072542BB5
:10197000707C572B4B2F46954270406215B868B962
:101980005BB94EB977E871BBA3015695479556955B
:101990004795642FA1BB469A142F110FB42FB6950B
:1019A000661F6627661F012F0670602B60684071F6
:1019B00055274260512F550F5072542B107C512BDC
:1019C000B27015B868B95BB9BEB971BBA1BB469A14
:1019D00051E055B947E448B960EE6BB960EA6EB9B9
:1019E00071BBA1BB469A55B948B940EF4BB942EA21
:1019F0004EB971BB2F843888A101662757FD6095C9
:101A0000762F8701AA27029FB12D13035001309F23
:101A1000B00DA11CBA1E1203BA0AB00DA11CBA1E49
:101A200011248501222717FD2095322F400F511FC9
:101A3000621F731FE351FA4E20813181420F531F01
:101A4000611D711D77FD61C24115510511E06107EE
:101A5000710524F04FEF5FEF60E070E09A01232FF3
:101A6000332726952695F22F76EC71BB469AE22F06
:101A7000EE0F6E2F667060682071332722603E2F54
:101A8000330F3072322BE07C3E2B2F2F26952270A5
:101A9000206215B868B93BB92EB967E861BBDA01B5
:101AA000B695A795B695A7953A2F71BB469AEA2F9A
:101AB000EE0F5A2F5695331F3327331F2E2F2670C4
:101AC000322B3068A071BB274A2F42602E2F220F85
:101AD0002072242BE07C2E2B527015B838B92BB90C
:101AE0005EB961BB71BB469A41E045B923E428B9B0
:101AF00010EB1BB920EA2EB961BB71BB469A45B900
:101B0000A7E4A8B9B0EFBBB952EA5EB961BB2CE259
:101B1000289FF001299FF00D1124E252FB4E808195
:101B200091819C01232F332726952695022F71BB87
:101B3000469AF22FFF0FEF2FE670E06820713327EF
:101B400022603F2F330F3072322BF07C3F2B202F3F
:101B500026952270206215B8E8B93BB92EB961BB51
:101B60009695879596958795282F71BB469AE82F6D
:101B7000EE0F382F3695221F2227221FFE2FF670D8
:101B80002F2B20688071992782609E2F990F907269
:101B9000982BE07C9E2B327015B828B99BB93EB9C2
:101BA00061BB71BB469A45B9A8B91BB95EB961BBA7
:101BB00071BB469A45B9A8B9BBB95EB961BBCFBE86
:101BC0001091470A912F9C7101E009F000E0912FDC
:101BD0009370923009F4C8C3933009F4BDC39130B7
:101BE00009F4B6C18091340D82700E94552C1F5F9C
:101BF0001093470A61960FB6F894DEBF0FBECDBFB3
:101C0000DF91CF911F910F91FF90EF90DF90CF90D8
:101C1000BF90AF909F908F907F906F905F904F900C
:101C20003F902F90089500E010E08091460A8F3099
:101C300011F00C94750122E030E03E832D83DD2409
:101C4000DA9441E050E058874F8355E0598374E0BF
:101C50007E8725E030E03A87298733E03A8343E006
:101C600050E05C874B8752E05D8771E0798B24E020
:101C700030E03C832B830C94A001188A1F860C94BF
:101C80005501612C712C0C944B011A8619861C820B
:101C90001B821C861B861E821D8218861F820C9446
:101CA0009201833011F40C94790125E030E03A87F9
:101CB000298744E050E05C834B8323E030E03C879D
:101CC0002B8742E050E05E834D8321E030E038878F
:101CD0002F830C94920160E081E090E40E94CC2478
:101CE00060E080E090E40E94CC2446EC41BB469A40
:101CF00031E035B927E428B980EB8BB992EA9EB977
:101D000087E881BB41BB469A35B928B920EF2BB98A
:101D10009EB981BB54CF60E081E090E40E94CC2466
:101D200060E080E090E40E94CC246EED8DE00E94A3
:101D3000031886EC81BB469A81E085B987E488B9AF
:101D400080EF8BB982EA8EB987E881BB35CD60E040
:101D500081E090E40E94CC2460E080E090E40E9466
:101D6000CC246DED8DE00E94031886EC81BB469A71
:101D700081E085B987E488B980EF8BB982EA8EB9B2
:101D800087E881BB06CB60E081E090E40E94CC2430
:101D900060E080E090E40E94CC246CED8DE00E9435
:101DA000031886EC81BB469A81E085B987E488B93F
:101DB00080EF8BB982EA8EB987E881BBE0C860E02A
:101DC00081E090E40E94CC2460E080E090E40E94F6
:101DD000CC2436EC31BB469A21E025B997E498B97A
:101DE00080EB8BB980EA8EB987E881BB31BB469A1C
:101DF00025B998B990EF9BB992EA9EB981BB0C9432
:101E0000A60560E081E090E40E94CC2460E080E0E0
:101E100090E40E94CC246AED8DE00E94031886ECC9
:101E200081BB469A81E085B987E488B980EF8BB998
:101E300082EA8EB987E881BB0C948F038EE894E127
:101E40000E94C73586E995E10E94C735C7CC82E676
:101E500094E10E94C7358AE695E10E94C735ABCA76
:101E60008EED93E10E94C73586EE94E10E94C7355E
:101E70000C94A30382EB93E10E94C7358AEB94E1B3
:101E80000E94C7350C94B30186E394E10E94C735E4
:101E90008EE395E10E94C73584C88AE094E10E94F0
:101EA000C73582E195E10E94C7350C94BA05812CB3
:101EB000912C54010C94EB04212C312C21010C9415
:101EC000FA05812C912C54010C940407812C912C3F
:101ED00054010C947106812C912C54010C945A04D9
:101EE000212C312C21010C94E303812C912C5401E1
:101EF00092C9212C312C21019CCA812C912C540196
:101F00009ECB812C912C540108CB40E050E0BA01CB
:101F10009BCD40E050E0BA010CCD412C512C320158
:101F200096CC80E090E0DC010C94DF01812C912CB8
:101F300054010C94D80280E090E0DC010C944E0235
:101F4000812C912C5401DAC8212C312C210166C836
:101F500080913417882309F44ACE809132179091EA
:101F600033174091F9155091FA152091D5153091FC
:101F7000D6152417350708F4FFC24217530770F42B
:101F8000B901641B750BAB018617970708F4AC0108
:101F9000241B350B3093D6152093D515409105168B
:101FA000509106162091E1153091E215241735075E
:101FB00008F4D6C24217530770F4D901A41BB50B1D
:101FC000AD018A179B0708F4AC01241B350B309335
:101FD000E2152093E11540911116509112162091AF
:101FE000ED153091EE152417350708F4ADC24217F0
:101FF000530770F4F901E41BF50BAF018E179F072F
:1020000008F4AC01241B350B3093EE152093ED152D
:102010004091FB155091FC152091D7153091D815A2
:102020002417350708F484C24217530770F41901C6
:10203000241A350AA1018215930508F4AC01241B6A
:10204000350B3093D8152093D71540910716509132
:1020500008162091E3153091E4152417350708F48C
:102060005AC24217530770F42901441A550AA201B3
:102070008415950508F4AC01241B350B3093E41549
:102080002093E31540911316509114162091EF15EB
:102090003091F0152417350708F430C24217530762
:1020A00070F43901641A750AA3018615970508F4BE
:1020B000AC01241B350B3093F0152093EF154091A4
:1020C000FD155091FE152091D9153091DA15241780
:1020D000350708F406C24217530770F4B901641BB0
:1020E000750BAB018617970708F4AC01241B350B61
:1020F0003093DA152093D9154091091650910A169C
:102100002091E5153091E6152417350708F4DCC158
:102110004217530770F4D901A41BB50BAD018A1700
:102120009B0708F4AC01241B350B3093E615209374
:10213000E51540911516509116162091F115309124
:10214000F2152417350708F4B2C14217530770F48B
:10215000F901E41BF50BAF018E179F0708F4AC01E2
:10216000241B350B3093F2152093F1154091FF1588
:10217000509100162091DB153091DC15241735079E
:1021800008F488C14217530770F41901241A350A5C
:10219000A1018215930508F4AC01241B350B309383
:1021A000DC152093DB1540910B1650910C162091F5
:1021B000E7153091E8152417350708F45EC142177A
:1021C000530770F42901441A550AA2018415950594
:1021D00008F4AC01241B350B3093E8152093E71568
:1021E00040911716509118162091F3153091F4155F
:1021F0002417350708F434C14217530770F4390126
:10220000641A750AA3018615970508F4AC01241B0E
:10221000350B3093F4152093F3154091011650912E
:1022200002162091DD153091DE152417350708F4CC
:102230000AC14217530770F4B901641B750BAB0157
:102240008617970708F4AC01241B350B3093DE1575
:102250002093DD1540910D1650910E162091E91531
:102260003091EA152417350708F4E0C042175307E8
:1022700070F4D901A41BB50BAD018A179B0708F4B4
:10228000AC01241B350B3093EA152093E9154091DE
:10229000191650911A162091F5153091F61524173C
:1022A000350708F4B6C04217530770F4F901E41B70
:1022B000F50BAF018E179F0708F4AC01241B350BFB
:1022C0003093F6152093F51540910316509104169E
:1022D0002091DF153091E0152417350708F086C0EE
:1022E000421B530B8417950708F474C1420F531F08
:1022F0005093E0154093DF1540910F165091101642
:102300002091EB153091EC152417350708F05BC0D0
:10231000421B530B8417950708F45AC1420F531FF1
:102320005093EC154093EB1540911B1650911C16E1
:102330002091F7153091F8152417350788F5421BC1
:10234000530B8417950708F441C1420F531F509354
:10235000F8154093F7154BCC802F0E944439802FFD
:1023600045D51091470A43CC011117C072D6809110
:10237000AE139091AF13A091B013B091B113019629
:10238000A11DB11D8093AE139093AF13A093B01312
:10239000B093B1131091470A2ACC0E947A37E6CF46
:1023A0004217530708F023CC3901641A750AA301B8
:1023B0008615970508F4AC01241B350B3093F815EE
:1023C0002093F71514CC4217530708F0ADCF29011D
:1023D000441A550AA2018415950508F4AC01241B82
:1023E000350B3093EC152093EB159ECF4217530716
:1023F00008F082CF1901241A350AA101821593052C
:1024000008F4AC01241B350B3093E0152093DF1545
:1024100073CF421B530B8417950708F4D5C0420FA6
:10242000531F5093F6154093F5154ECF421B530B97
:102430008417950708F4C6C0420F531F5093EA153E
:102440004093E91524CF421B530B8417950708F4DA
:10245000B7C0420F531F5093DE154093DD15FACEDF
:10246000421B530B8417950708F4A8C0420F531F53
:102470005093F4154093F315D0CE421B530B8417A1
:10248000950708F499C0420F531F5093E8154093E5
:10249000E715A6CE421B530B8417950708F48AC094
:1024A000420F531F5093DC154093DB157CCE421B2B
:1024B000530B8417950708F47BC0420F531F5093AA
:1024C000F2154093F11552CE421B530B841795071A
:1024D00008F46CC0420F531F5093E6154093E51566
:1024E00028CE421B530B8417950708F45DC0420F9A
:1024F000531F5093DA154093D915FECD421B530B51
:102500008417950708F44EC0420F531F5093F015DF
:102510004093EF15D4CD421B530B8417950708F455
:102520003FC0420F531F5093E4154093E315AACDCB
:10253000421B530B8417950788F1420F531F50938A
:10254000D8154093D71581CD421B530B841795079F
:1025500018F1420F531F5093EE154093ED1558CDCF
:10256000421B530B84179507A8F0420F531F50933B
:10257000E2154093E1152FCD421B530B84179507AD
:1025800038F0420F531F5093D6154093D51506CD02
:10259000AC01F7CFAC01E9CFAC01DBCFAC01CDCFC3
:1025A000AC01BFCFAC01B0CFAC01A1CFAC0192CF99
:1025B000AC0183CFAC0174CFAC0165CFAC0156CF79
:1025C000AC0147CFAC0138CFAC0129CFAC01BDCEB7
:1025D000AC01A4CEAC018ACE2F923F924F925F9273
:1025E0006F927F928F929F92AF92BF92CF92DF9223
:1025F000EF92FF920F931F93CF93DF9300D000D001
:102600001F92CDB7DEB79FB7F8942CE53AE0F901F9
:1026100010824DE55AE0FA011082EAE5FAE01182F3
:102620001082E2E6FAE0108260E071E0E8E5FAE0AC
:102630007183608360E27EE470931F0D60931E0DD2
:10264000E8E2FDE08081816080831FB7F89480819B
:1026500066EC61BB469A782F770FA82FA695B72F07
:10266000B670B064082F001F0027001FB02B082F82
:102670000071872F880F8072802B707C872BA2704F
:10268000A06671E075B9B8B98BB9AEB987E881BBFE
:102690001FBFA081AD7FA0831FB7F894A08161BB4D
:1026A000469AEA2EEE0CBA2FB69506E0F02EFE20E2
:1026B00000E4F02A0A2F001F0027001FF02A0A2F2B
:1026C0000071AE2DAA0FA072A02B0E2D007CA02BA6
:1026D000B270B06675B9F8B8ABB9BEB981BB1FBFEF
:1026E000A081A860A0831FB7F894A08161BB469A1F
:1026F000EA2EEE0CBA2FB69506E0F02EFE2000E48E
:10270000F02A0A2F001F0027001FF02A0A2F00714D
:10271000AE2DAA0FA072A02B0E2D007CA02BB270A4
:10272000B06675B9F8B8ABB9BEB981BB1FBFA0819F
:10273000AF7EA0831FB7F894A08161BB469AEA2EB2
:10274000EE0CBA2FB69506E0F02EFE2000E4F02A3B
:102750000A2F001F0027001FF02A0A2F0071AE2D3C
:10276000AA0FA072A02B0E2D007CA02BB270B06619
:1027700075B9F8B8ABB9BEB981BB1FBFA081AF7D39
:10278000A0831FB7F894A08161BB469AEA2EEE0C95
:10279000BA2FB69506E0F02EFE2000E4F02A0A2FAC
:1027A000001F0027001FF02A0A2F0071AE2DAA0F6C
:1027B000A072A02B0E2D007CA02BB270B06675B954
:1027C000F8B8ABB9BEB981BB1FBFA081AF7BA083F6
:1027D0001FB7F894A08161BB469AEA2EEE0CBA2F7F
:1027E000B69506E0F02EFE2000E4F02A0A2F001F26
:1027F0000027001FF02A0A2F0071AE2DAA0FA07229
:10280000A02B0E2D007CA02BB270B06675B9F8B865
:10281000ABB9BEB981BB1FBFA081AB7FA0831FB77F
:10282000F894A08161BB469ABA2FBB0FEA2FE695B8
:10283000FB2FF670F0646A2F661F6627661FF62B63
:10284000A0716B2F660F60726A2BB07C6B2BE270ED
:10285000E06675B9F8B96BB9EEB981BB1FBFE4E2A8
:10286000FDE0118210821092210D1092200D109225
:10287000270D1092260D1092190D1092180D10921E
:10288000230D1092220D80E329833A834B835C83CE
:102890009D830E94812A80E70E94812A82EB0E9408
:1028A000812AE4E2FDE01182108280E0682E8DE052
:1028B000782ECC24CA94DC2CF301D182C08292E021
:1028C000892E9DE0992EF401D182C08224E0A22EAF
:1028D0002DE0B22EF501D182C082E6E0FDE0D1828A
:1028E000C08238E0432E3DE0532EF201D182C082F7
:1028F0004AE0242E4DE0342EF101D182C0825AE10B
:10290000E52E5DE0F52EF701D182C0820CE11DE0DD
:10291000F8011182108262E180E00E94CE3463E10E
:1029200081E00E94CE3464E182E00E94CE3465E111
:1029300083E00E94CE3466E184E00E94CE3467E1F9
:1029400085E00E94CE34F70111821082F801D18215
:10295000C08262E186E00E94CE3463E187E00E949B
:10296000CE3464E188E00E94CE3465E189E00E94C3
:10297000CE3466E18AE00E94CE3467E18BE00E94AB
:10298000CE34F70111821082F80111821082E4E244
:10299000FDE0D182C082F30111821082F401118224
:1029A0001082F50111821082E6E0FDE011821082B2
:1029B000F20111821082F1011182108262E18CE039
:1029C0000E94CE3463E18DE00E94CE3464E18EE05B
:1029D0000E94CE3465E18FE00E94CE3466E180E152
:1029E0000E94CE3467E181E10E94CE34E4E2FDE052
:1029F0001182108210920D0D10920C0D10920F0D7D
:102A000010920E0D1092110D1092100D1092130DC8
:102A10001092120D1092150D1092140D1092170DA8
:102A20001092160D0E94F62429813A81F901108234
:102A30004B815C81FA011082E8E5FAE01182108294
:102A4000EAE5FAE011821082E2E6FAE010820E94E2
:102A50006F249D819FBF0F900F900F900F900F904C
:102A6000DF91CF911F910F91FF90EF90DF90CF906A
:102A7000BF90AF909F908F907F906F905F904F909E
:102A80003F902F900895EF92FF920F931F93CF9353
:102A9000DF93EC01162FF42EE22E80914216843043
:102AA00071F1C230D10509F453C0C330D10571F1C1
:102AB000C130D105F9F1C430D105C8F5E09139161E
:102AC000F0913A16309739F00E2D2F2D412FBE017F
:102AD0008DE196E10995E0913B16F0913C16309717
:102AE00039F00E2D2F2D412FBE018DE196E1099574
:102AF000DF91CF911F910F91FF90EF900895E0919A
:102B00003716F09138163097F9F6D8CF862F807F98
:102B1000803A09F48DC008F041C0803809F456C0ED
:102B2000803961F6E0912116F091221642C0C0E092
:102B3000D0E0C4CF683F50F1E0913316F0913416E5
:102B4000309709F4BBCF612F8DE196E10995C3CF92
:102B5000862F807F803D09F455C0803F09F440C036
:102B6000803C09F0ABCFE0912B16F0912C163097FA
:102B700009F4A4CF133F09F43FC0113FE9F1612FDD
:102B80006F704F2D8DE196E10995A5CF663F09F055
:102B900095CFE0913516F0913616D2CF803ED9F020
:102BA000803FA9F1803B09F089CFE0911F16F09199
:102BB0002016309709F482CF123F99F1612F6F7080
:102BC0002E2D4F2D8DE196E1099585CFE0912316AD
:102BD000F0912416EECFE0912716F0912816E9CF58
:102BE000633F59F1613F09F069CFE0913116F091EF
:102BF0003216309709F462CF4F2D612F8DE196E1A7
:102C0000099569CFE0912D16F0912E16B0CF623F55
:102C100009F054CFE0912916F0912A16309709F463
:102C20004DCF2E2D4F2D62EF8DE196E1099553CFBB
:102C3000E0912516F0912616BCCFE0912F16F09169
:102C400030163097C9F63ACFCF93DF93E62FF0E0F6
:102C5000EF01CC0FDD1FC259D14F0990D881C02D93
:102C6000EE0FFF1FE65BF14F20813181AE01421B69
:102C7000530B9A01A82FB0E017970E940B53AB019A
:102C8000BC014C0F5D1F611D711D4115510581E097
:102C90006807710520F04FEF5FEF60E070E0CA0158
:102CA000DF91CF910895E82FF0E0EE0FFF1FEE586F
:102CB000F24F80819181089521E030E002C0220F1F
:102CC000331F8A95E2F7D901A095B095E091580A93
:102CD000F091590AEA23FB23F093590AE093580A2A
:102CE00080915A0A90915B0A8A239B2390935B0AF6
:102CF00080935A0A662331F0E22BF32BF093590AA2
:102D0000E093580A442331F0282B392B30935B0A87
:102D100020935A0A089524E630E040E050E00E94F3
:102D200074572AE030E040E050E00E947457605D44
:102D3000205D30E02038310588F4F901EF5DFE4F69
:102D4000808180935C0A70E06038710570F4FB014B
:102D5000EF5DFE4F808180935D0A08958FEF809331
:102D60005C0A70E06038710590F38FEF80935D0A24
:102D7000089555E05A95F1F7000036EC31BB469ABC
:102D800080EE87B997E09AB98DB915B880E488B913
:102D90001BB880E28EB987E481BB82E08A95F1F7A7
:102DA00000C026B199B18CB131BB479A37EE37B923
:102DB00037EF3AB932EE3DB9422F4695437050E8AD
:102DC000259F90011124422B292F2071422B292F5E
:102DD000269526952870422B96959076492B90E063
:102DE000880F991F84709927842B0895CF93882387
:102DF00039F180915E0A8F5F80935E0A853148F0D9
:102E000081E090915F0A9111CDC080935F0A10928A
:102E10005E0AC091620AC11179C050915C0A90911A
:102E20005D0AE091630AE13009F4DEC008F4AFC046
:102E3000E23009F4C4C020E0F0E0E85AF54F2487FE
:102E4000AFB7F89456EC51BB469A41E045B980E4DF
:102E500088B91BB880E28EB937E831BB00C000C02A
:102E600080E190E00090630A02C0880F991F0A94E5
:102E7000E2F7282F51BB469A782F770F682F669577
:102E8000221F2227221F972F9670292B20648071E2
:102E9000972F990F9072982B707C972B627045B981
:102EA00028B99BB96EB931BB00C000C0E091630A7C
:102EB000F0E0E85AF54F848551BB469A582F550FDC
:102EC000982F9695252F26702064682F661F6627F9
:102ED000661F262B682F6071852F880F8072862BC6
:102EE000507C852B9270906245B928B98BB99EB9F8
:102EF00031BBAFBF8091630A90E0019663E070E060
:102F00000E9411538093630ACF9108954091600A03
:102F10004F5F4093600AE7E6FAE001900020E9F78E
:102F2000E856FA402091610A332727FD3095C90100
:102F300001966E2F772767FD70950E941153F90156
:102F4000E85AF54F278530E02038310588F15FEFEA
:102F5000E82FFF27E7FDF095E85AF54F278530E089
:102F60002038310550F5F901EF5DFE4F90814D306D
:102F700008F457CF8093610A1092600A811151CFF3
:102F80001C160CF04ECFC150C093620A4ACF20915C
:102F9000580A80915F0A882309F44ECF80915A0A1B
:102FA00028274ACF80E080935F0A10925E0A31CFD3
:102FB000F901EF5DFE4F5081CBCF9FEFD8CF292F86
:102FC0002F778091580A9091590A90FD206880913E
:102FD0005A0A90915B0A90FF2FCF80915F0A882355
:102FE00009F42ACF205828CF252F2F778091580A0F
:102FF0009091590A91FD206880915A0A90915B0A3C
:1030000091FF1ACFEACF96EC91BB469A582F56956E
:10301000569556958295880F807E462F440F362F01
:103020003695242F26702064962F991F9927991F73
:10303000292B6071942F990F9072962B407C942BC2
:103040003270832B55B928B99BB98EB987E881BBFB
:1030500008956F928F929F92AF92BF92CF92DF921C
:10306000EF92FF920F931F93CF93DF93E0913D1662
:10307000F0913E16309719F08DE196E109952FB742
:10308000F8948091061790910517891708F005C1EB
:1030900000910717080F091B2FBF10E0011511053C
:1030A00009F476C0C0E0D0E020910717EE24E39445
:1030B000F12C83E0982E34E0832E42E0A42EBB2432
:1030C000B394892F622F90E070E00E941153E09139
:1030D0000817F0910917E80FF91FF081F83F08F081
:1030E00065C0F7FF70C080914216843031F0F093D4
:1030F0003F16F0924416E09243168F2F807F803B5C
:1031000079F198F4803961F1803A51F1803841F1D8
:10311000F03F09F4AEC0F73F09F4C2C01092421666
:1031200010924416109243161DC0803D09F49EC0B3
:1031300008F499C0803EA1F0803F51F7EF2FE15F86
:10314000EF3030F7AE2FB0E0AF55BE4F8C918130ED
:1031500009F498C0E8F2823009F488C08330F1F6AF
:10316000909242163FB7F89490910517892F90E0FE
:10317000019620910717622F70E00E941153982F3B
:10318000809305173FBF2196C017D10708F499CF48
:10319000DF91CF911F910F91FF90EF90DF90CF9033
:1031A000BF90AF909F908F906F900895D0904216EF
:1031B000B092421620E040E06F2F81E090E063DCA7
:1031C000D0924216CFCF60904216662059F24091BD
:1031D0004316509144169A01ABEABAEA0E948F57FF
:1031E0006C01D694C794C601880F991F8C0D9D1D44
:1031F0006A01C81AD90AD601A35EB94E9296FC9309
:10320000CA010196909344168093431621E0C2169A
:10321000D104B1F022E0C216D10409F0A3CF20916D
:1032200041164091401660913F162DDC8091421668
:10323000843009F497CFF0924416E092431692CF6F
:1032400022E062128FCF20E04091401660913F163D
:103250001ADC80914216843009F484CFD09244164F
:10326000C09243167FCF803C09F052CFA092421605
:1032700079CF80924216F0933F16F0924416E09276
:10328000431670CF8093421620E040E06F2F81E01C
:1032900090E0F9DB1092421665CF082F091BFCCE97
:1032A00040914316509144169A01ABEABAEA0E9443
:1032B0008F57969587959C01220F331F280F391F32
:1032C000DA01A21BB30BA35EB94E9296FC93CA011E
:1032D0000196909344168093431620914116409195
:1032E000401660913F16CFDB109242163BCF86EC22
:1032F00081BB469A15B880E488B91BB880E28EB9C4
:1033000087E881BB85E08A95F1F700000895CF93A7
:10331000DF932FDDC82FD0E02CDD382F20E0C22B2B
:10332000D32BE5DFE4DFC095D095CE01DF91CF91BF
:10333000089586EC81BB469A15B882E488B91BB81B
:1033400080E48EB987E881BB85E08A95F1F70000BB
:103350000895CF92DF92EF92FF920F931F93CF9336
:10336000DF931F92CDB7DEB7E82EF62E9BEA899F3A
:10337000812D1124869586958695182F1F5F88309C
:1033800008F04CC0282F30E0220F331FF901EE0F58
:10339000FF1FEE0FFF1FEE0FFF1FE20FF31FE40FE3
:1033A000F11DEE0FFF1FEE58F24FC080D180183094
:1033B000E0F1642F812F48DC8C010C191D093F2D91
:1033C00020E09BEAE99E912D11249695969596957D
:1033D000892F880F890F880F880F6E2D681B862F05
:1033E00090E0A0E0B0E077276627620F731F811D91
:1033F000911D2CE030E040E050E00E949B57D80146
:103400000E9464578C0D9D1D0F90DF91CF911F91ED
:103410000F91FF90EF90DF90CF900895642F498334
:1034200013DC6C014981183020F6212F30E0220F87
:10343000331FF901EE0FFF1FEE0FFF1FEE0FFF1FEF
:10344000E20FF31FE40FF11DEE0FFF1FEE58F24FD6
:1034500080819181B1CF2F923F924F925F926F9274
:103460007F928F929F92AF92BF92CF92DF92EF9214
:10347000FF920F931F93CF93DF93CDB7DEB72E97B5
:103480000FB6F894DEBF0FBECDBF482F0091BF0C22
:103490001091C00C20919D0E30919E0E2017310787
:1034A00029F010939E0E00939D0E41E060914C0D0B
:1034B00070914D0D20919F0E3091A00E2617370769
:1034C00029F07093A00E60939F0E41E080914E0D05
:1034D00090914F0D2091A10E3091A20E281739071F
:1034E00029F09093A20E8093A10E41E06090400DD0
:1034F0007090410D2091A30E3091A40E2615370532
:1035000029F07092A40E6092A30E41E04090460D07
:103510005090470D2091A50E3091A60E241535052B
:1035200029F05092A60E4092A50E41E09090350DE4
:103530002091A70E921609F444C19092A70E2091F3
:103540003F0D3091A80E23132093A80E000F012FDA
:10355000001F110B11951A95660F672F661F770BC9
:103560007195AB015A955E874D87A0E0B0E06C0184
:103570007D01CC0CDD1CEE1CFF1CCC0CDD1CEE1CFC
:10358000FF1CC80ED91EEA1EFB1E43E0F694E7940A
:10359000D794C7944A95D1F77694679476946794B4
:1035A0005694479456944794DB86872C352CDD241B
:1035B000EE24FF24211126C19301332738872F835E
:1035C000920133273A872987209034173091460A91
:1035D0003C87B090340A80911C0A90911D0AA091FA
:1035E0001E0AB0911F0A892B8A2B8B2B09F067C307
:1035F000B090350A8091200A9091210AA091220A68
:10360000B091230A892B8A2B8B2B09F0C2C2B09070
:10361000360A8091240A9091250AA091260AB09139
:10362000270A892B8A2B8B2B09F01DC2B090370AF1
:103630008091280A9091290AA0912A0AB0912B0A18
:10364000892B8A2B8B2B09F078C1B090380A809196
:103650002C0A90912D0AA0912E0AB0912F0A892B45
:103660008A2B8B2B09F0D3C0B090390A8091300A95
:103670009091310AA091320AB091330A892B8A2B9A
:103680008B2B09F4A6C09801442737FD4095542F91
:1036900029833A834B835C83809116179091171787
:1036A0002C01662457FC6094762C420E531E641E37
:1036B000751E45E06F81882D8B0D4BDE93018201D5
:1036C000080F191F211D311D37FDA4C40115110557
:1036D00041E02407310524F00FEF1FEF20E030E038
:1036E00080912217909123172C01662457FC609437
:1036F000762C29813A814B815C81420E531E641ED7
:10370000751E2D853E85C901AA2797FDA095BA2F64
:10371000480E591E6A1E7B1E4BE06985832D8B0D5A
:1037200018DEA3019201280F391F411D511DDA0136
:10373000C90157FD6BC4009731E0A307B10524F020
:103740008FEF9FEFA0E0B0E03C01992009F492C315
:103750008B2D90E022E030E02919310902C09595C7
:1037600087952A95E2F75B85850FA0902E17B0907C
:103770002F1741E16C2DEDDDA501662757FD609502
:10378000762F480F591F611D711D77FD53C44115D8
:10379000510581E06807710524F04FEF5FEF60E0AD
:1037A00070E09A01211068C31093E0150093DF15B3
:1037B0007092EC156092EB155093F8154093F71545
:1037C00008C020913F0D3091A80E2313BDCE4111AA
:1037D000BDCE2E960FB6F894DEBF0FBECDBFDF91E3
:1037E000CF911F910F91FF90EF90DF90CF90BF90FE
:1037F000AF909F908F907F906F905F904F903F9091
:103800002F9008951A86198618861F82DDCE98019A
:10381000442737FD4095542F29833A834B835C839B
:1038200080911417909115172C01662457FC609411
:10383000762C420E531E641E751E44E06F81882D47
:103840008B0D87DDA3019201280F391F411D511DEA
:10385000DA01C90157FD1AC4009731E0A307B10589
:1038600024F08FEF9FEFA0E0B0E09E838D838091E6
:103870002017909121172C01662457FC6094762C18
:1038800029813A814B815C81420E531E641E751E54
:103890002D853E85C901AA2797FDA095BA2F480E10
:1038A000591E6A1E7B1E4AE06985832D8B0D51DDF2
:1038B000A3019201280F391F411D511DDA01C901D1
:1038C00057FDE0C3009731E0A307B10524F08FEF67
:1038D0009FEFA0E0B0E02C019110BEC28B85A090BC
:1038E0002C17B0902D1740E16C2D33DDA501662714
:1038F00057FD6095762F480F591F611D711D77FD8B
:10390000C9C34115510581E06807710524F04FEFE7
:103910005FEF60E070E0CA01211053C32D813E814A
:103920003093DE152093DD155092EA154092E9158B
:103930005093F6154093F51597CE9801442737FD1F
:103940004095542F29833A834B835C8380911217CF
:10395000909113172C01662457FC6094762C420E2C
:10396000531E641E751E43E06F81882D8B0DF1DCA4
:10397000A3019201280F391F411D511DDA01C90110
:1039800057FD78C3009731E0A307B10524F08FEF0E
:103990009FEFA0E0B0E09E838D8380911E179091F1
:1039A0001F172C01662457FC6094762C29813A81DC
:1039B0004B815C81420E531E641E751E2D853E8513
:1039C000C901AA2797FDA095BA2F480E591E6A1E55
:1039D0007B1E49E06985832D8B0DBBDCA301920121
:1039E000280F391F411D511DDA01C90157FD3EC382
:1039F000009731E0A307B10524F08FEF9FEFA0E01F
:103A0000B0E02C0191101AC28B85A0902A17B090BB
:103A10002B174FE06C2D9DDCA501662757FD6095A7
:103A2000762F480F591F611D711D77FD27C3411562
:103A3000510581E06807710524F04FEF5FEF60E00A
:103A400070E0CA01211098C22D813E813093DC15AF
:103A50002093DB155092E8154092E7155093F4152A
:103A60004093F315F2CD9801442737FD4095542F2C
:103A700029833A834B835C838091101790911117AF
:103A80002C01662457FC6094762C420E531E641E53
:103A9000751E42E06F81882D8B0D5BDCA3019201C6
:103AA000280F391F411D511DDA01C90157FDD6C22A
:103AB000009731E0A307B10524F08FEF9FEFA0E05E
:103AC000B0E09E838D8380911C1790911D172C016F
:103AD000662457FC6094762C29813A814B815C8165
:103AE000420E531E641E751E2D853E85C901AA27F0
:103AF00097FDA095BA2F480E591E6A1E7B1E48E0FE
:103B00006985832D8B0D25DCA3019201280F391FB8
:103B1000411D511DDA01C90157FD9CC2009731E0DA
:103B2000A307B10524F08FEF9FEFA0E0B0E02C01D8
:103B3000911076C18B85A0902817B09029174EE080
:103B40006C2D07DCA501662757FD6095762F480F81
:103B5000591F611D711D77FD85C24115510581E019
:103B60006807710524F04FEF5FEF60E070E0CA0175
:103B70002110DDC12D813E813093DA152093D915B6
:103B80005092E6154092E5155093F2154093F115C9
:103B90004DCD9801442737FD4095542F29833A8312
:103BA0004B835C8380910E1790910F172C01662434
:103BB00057FC6094762C420E531E641E751E41E025
:103BC0006F81882D8B0DC5DBA3019201280F391F52
:103BD000411D511DDA01C90157FD38C2009731E07E
:103BE000A307B10524F08FEF9FEFA0E0B0E09E8324
:103BF0008D8380911A1790911B172C01662457FC16
:103C00006094762C29813A814B815C81420E531E4F
:103C1000641E751E2D853E85C901AA2797FDA095B6
:103C2000BA2F480E591E6A1E7B1E47E06985832DF8
:103C30008B0D8FDBA3019201280F391F411D511DF0
:103C4000DA01C90157FDFEC1009731E0A307B105B4
:103C500024F08FEF9FEFA0E0B0E02C019110D2C0D4
:103C60008B85A0902617B09027174DE06C2D71DB47
:103C7000A501662757FD6095762F480F591F611DD6
:103C8000711D77FDDBC14115510581E068077105A4
:103C900024F04FEF5FEF60E070E0CA01211022C115
:103CA0002D813E813093D8152093D7155092E4157D
:103CB0004092E3155093F0154093EF15A8CC98016E
:103CC000442737FD4095542F29833A834B835C83E7
:103CD00080910C1790910D172C01662457FC60946D
:103CE000762C420E531E641E751E40E06F81882D97
:103CF0008B0D2FDBA3019201280F391F411D511D90
:103D0000DA01C90157FD8EC1009731E0A307B10563
:103D100024F08FEF9FEFA0E0B0E09E838D83809131
:103D20001817909119172C01662457FC6094762C73
:103D300029813A814B815C81420E531E641E751E9F
:103D40002D853E85C901AA2797FDA095BA2F480E5B
:103D5000591E6A1E7B1E46E06985832D8B0DF9DA9C
:103D6000A3019201280F391F411D511DDA01C9011C
:103D700057FD54C1009731E0A307B10524F08FEF40
:103D80009FEFA0E0B0E02C0191102EC08B85A09099
:103D90002417B09025174CE06C2DDBDAA5016627BF
:103DA00057FD6095762F480F591F611D711D77FDD6
:103DB0003DC14115510581E06807710524F04FEFC1
:103DC0005FEF60E070E02D813E81211078C030937C
:103DD000D6152093D5155092E2154092E1155093D7
:103DE000EE154093ED1504CC8B2D90E042E050E0B1
:103DF0004919510902C0959587954A95E2F73B8587
:103E0000830FC5CF8B2D90E042E050E04919510956
:103E100002C0959587954A95E2F75B85850F21CF7E
:103E20008B2D90E042E050E04919510902C0959570
:103E300087954A95E2F75B85850F7DCE8B2D90E0C7
:103E400042E050E04919510902C0959587954A957D
:103E5000E2F75B85850FD9CD8B2D90E042E050E0F5
:103E60004919510902C0959587954A95E2F75B85F6
:103E7000850F35CD8B8579CC5C85523009F41AC11C
:103E8000533009F417C185E090E0880F991F8255DF
:103E90009C4EFC01E55BFD4F11830083FC01E95A58
:103EA000FD4F71826082FC01ED59FD4F318320830B
:103EB00091108FCC3093F8152093F7158ACC30935E
:103EC000FA152093F9155092061640920516509354
:103ED00012164093111691108BCB5093EE15409310
:103EE000ED1586CB3C85323009F4D8C041E050E076
:103EF000333009F4D3C0440F551F42555C4EFA01CC
:103F0000E55BFD4F2D813E8131832083FA01E95A23
:103F1000FD4F51824082FA01ED59FD4F918380831C
:103F2000911075CB9093F0158093EF1570CB3C8575
:103F3000323009F4B9C0333009F4B6C042E050E081
:103F4000440F551F42555C4EFA01E55BFD4F2D8134
:103F50003E8131832083FA01E95AFD4F518240822C
:103F6000FA01ED59FD4F9183808391105FCB9093BF
:103F7000F2158093F1155ACB3C85323009F491C08B
:103F8000333009F48EC043E050E0440F551F4255D2
:103F90005C4EFA01E55BFD4F2D813E81318320832C
:103FA000FA01E95AFD4F51824082FA01ED59FD4F65
:103FB00091838083911049CB9093F4158093F315EE
:103FC00044CB3C85323009F472C0333009F46FC001
:103FD00044E050E0440F551F42555C4EFA01E55B4A
:103FE000FD4F2D813E8131832083FA01E95AFD4F37
:103FF00051824082FA01ED59FD4F918380839110E7
:1040000033CB9093F6158093F5152ECB80E090E09E
:10401000DC0191CB00E010E0980158CB80E090E00B
:10402000DC01A8CE80E090E0DC016ECE40E050E004
:10403000BA01BFCE40E050E0BA01A9CB40E050E069
:10404000BA0121CE80E090E0DC01FECD80E090E07E
:10405000DC01C4CD80E090E0DC0160CD80E090E048
:10406000DC0126CD40E050E0BA0177CD80E090E061
:10407000DC01BECC80E090E0DC0184CC40E050E08C
:10408000BA01D5CC80E090E0DC011CCC80E090E06F
:10409000DC01E2CB40E050E0BA0133CC40E050E03C
:1040A0002ACF40E050E071CF40E050E049CF40E0FF
:1040B00050E090CF80E090E0E8CEFF920F931F9306
:1040C000CF93DF93F82E062F9BEA899F812D112431
:1040D000869586958695182F1F5F883008F044C016
:1040E000282F30E0220F331FF901EE0FFF1FEE0FD4
:1040F000FF1FEE0FFF1FE20FF31FE60FF11DEE0F84
:10410000FF1FEE58F24FC081D181183090F1602F1F
:10411000812F0E9424168C010C1B1D0B2BEAF29E92
:10412000212D1124269526952695922F990F920FD1
:10413000990F990F6F2D691B862F90E0A0E0B0E0DA
:10414000772766272CE030E040E050E00E949B5744
:10415000D8010E946457C80FD91FCE01DF91CF91BB
:104160001F910F91FF9008950E942416EC011830C2
:1041700070F6212F30E0220F331FF901EE0FFF1FE1
:10418000EE0FFF1FEE0FFF1FE20FF31FE00FF11DF9
:10419000EE0FFF1FEE58F24F80819181BCCFBF928E
:1041A000CF92DF92EF92FF920F931F93CF93DF9303
:1041B0008091C10C9091C20CA0E0B0E0E091920E11
:1041C000F091930E6F01E12CF12C8C159D05AE053D
:1041D000BF050CF066C0A7019601281B390B4A0BDE
:1041E0005B0BA0E0B0E80E947057A70196010E9407
:1041F00074572F3F8FE73807410551051CF5DA0149
:10420000C901811520E892072FEFA207B2070CF42D
:104210005AC0EC01D0930B17C0930A1780913D0D43
:104220008230D1F0833009F458C1813009F450C094
:10423000DF91CF911F910F91FF90EF90DF90CF9082
:10424000BF900895CFEFDFE7D0930B17C0930A1705
:1042500080913D0D823031F720913C0D30E0DE0140
:104260000E940B532CE030E040E050E00E94745775
:104270003093251720932417309327172093261760
:10428000309329172093281730932B1720932A1740
:1042900030932D1720932C1730932F1720932E1720
:1042A000C7CF9C01AD012C193D094E095F09AFEF45
:1042B000BFE70E9464579F012095309540E050E091
:1042C0000E94745796CF80E090E8AFEFBFEFA1CF88
:1042D000B0903C0DBB0C60E08B2DEFDE8C0180E0DC
:1042E0000E9453169801281B390BDE010E940B53C4
:1042F000CC24CA94DC2CE12CF12CA70196010E945D
:10430000745730930D1720930C1761E08B2DD5DE79
:104310008C0181E00E9453169801281B390BDE01A5
:104320000E940B53A70196010E94745730930F17F8
:1043300020930E1762E08B2DC0DE8C0182E00E947C
:1043400053169801281B390BDE010E940B53A7015D
:1043500096010E947457309311172093101763E051
:104360008B2DABDE8C0183E00E9453169801281B35
:10437000390BDE010E940B53A70196010E9474576E
:10438000309313172093121764E08B2D96DE8C0167
:1043900084E00E9453169801281B390BDE010E940D
:1043A0000B53A70196010E94745730931517209361
:1043B000141765E08B2D81DE8C0185E00E94531679
:1043C0009801281B390BDE010E940B53A7019601AF
:1043D0000E947457309317172093161766E08B2DA1
:1043E0006CDE8C0186E00E9453169801281B390B65
:1043F000DE010E940B53A70196010E94745730936F
:1044000019172093181767E08B2D57DE8C0187E072
:104410000E9453169801281B390BDE010E940B5392
:10442000A70196010E94745730931B1720931A1707
:1044300068E08B2D42DE8C0188E00E9453169801C3
:10444000281B390BDE010E940B53A70196010E9425
:10445000745730931D1720931C1769E08B2D2DDEA8
:104460008C0189E00E9453169801281B390BDE014C
:104470000E940B53A70196010E94745730931F1797
:1044800020931E176AE08B2D18DE8C018AE00E94B3
:1044900053169801281B390BDE010E940B53A7010C
:1044A00096010E94745730932117209320176BE0D8
:1044B0008B2D03DE8C018BE00E9453169801281B84
:1044C000390BDE010E940B53A70196010E9474571D
:1044D0003093231720932217ABCE20913C0D30E070
:1044E000DE010E940B532CE030E040E050E00E94DF
:1044F000745730933117209330179ACE21E02093D0
:10450000620A0097A9F01092610ABC0188E69AE05D
:104510000E940357E7E6FAE001900020E9F7E85629
:10452000FA40E959F54F80E290E091838083089545
:104530008FEF8093610A0895AC01AA27469FB12DA1
:10454000579F9001749FB00D211D3A1F569FB00DCB
:10455000211D3A1F1124C9010895DF92EF92FF92A5
:104560000F931F93CF93DF938C01E62EF12CE11470
:10457000F10471F120E030E0A901400F511F60E02B
:1045800070E0403E510561057105E8F45F5F6F4FD3
:104590007F4F762F652F542F4427D22FCC27C2551B
:1045A000D14FDB01CA019F5FAF4FBF4F6BBFFA0115
:1045B000D790D9924F5F5F4F6F4F7F4F4817590782
:1045C0006A077B0799F72F5F3F4F2E153F05A4F22F
:1045D00010929C0C8091AE0E9091AF0EA091B00EF7
:1045E000B091B10E22EB3EE030939B0C20939A0CDD
:1045F000853A9105A641B14691F42091B20E83EB24
:104600009EE090939B0C80939A0C20939C0CDF91DE
:10461000CF911F910F91FF90EF90DF90089580E070
:1046200094E0EEEAFEE0DF019C011D922150304053
:10463000E1F7DF91CF911F910F91FF90EF90DF9005
:104640000895CF93CFB7F89461E087DF80919C0CF9
:10465000882341F1A0919A0CB0919B0C20E08D91A0
:104660009D91E22FF0E0EE0FFF1FE75DF24F908F7C
:10467000878B2F5F293199F7A0939A0CB0939B0CED
:1046800080E09D91B0939B0CA0939A0CE82FF0E0F2
:10469000E75DF24F90838F5F873199F7CFBF81E05D
:1046A000CF910895CFBFCF910895EEEAFEE080E06C
:1046B00094E0DF019C011D9221503040E1F721E0A0
:1046C00020939C0C85EA90E0A6E1B1E6808391837B
:1046D000A283B383248383EB9EE090939B0C80930F
:1046E0009A0C089590E08038910588F4FC01EF5D04
:1046F000FE4F808180935C0A70E06038710570F431
:10470000FB01EF5DFE4F808180935D0A08958FEF7E
:1047100080935C0A70E06038710590F38FEF8093AE
:104720005D0A0895CF9380913617811130C0E091D2
:104730003517EF3FA1F0EE0FFF0BEF55F34FC1819F
:104740006C2F70E080E090E00E948B1641E0C83C46
:1047500068F161E0C43628F189E00E945C1680911E
:10476000960E41E0823009F040E061E0811101C025
:1047700060E084E00E945C1661E080913617823030
:1047800009F060E0462F85E0CF910C945C168130F3
:1047900091F08091371760E287FD19C0805DA2DF3C
:1047A000DECF60E089E00E945C16D9CF40E061E096
:1047B000C43690F6F6CF6091940E7091950E80E01D
:1047C00090E00E948B1640E060913817C5CF80E2E0
:1047D00089DFC5CF90913A17992309F440C09FB75C
:1047E000F89423E02093E9002091A90E21112FC015
:1047F0003091E4003C5F2091E80025FD1CC09FBF84
:104800009091E400931769F190913A17992339F147
:1048100043E009C09FBF9091E400931711F190917C
:104820003A179923E1F09FB7F8944093E90020915B
:10483000E80025FFEFCF8093F1008091E80085FF2D
:1048400015C082E0809339179FBF80E008952091C2
:10485000E80025FF03C01092A90ECACF9FBF8FEFBB
:10486000089581E08093A90E8FEF08958AE38093E5
:10487000E800109239179FBF80E00895EF92FF92F1
:104880000F931F93CF93DF937C01062F10E0011548
:104890001105F1F0C0E0D0E0BE016E0D7F1DCB012F
:1048A000A0E0B0E0803E9105A105B10568F45C2F61
:1048B00044274255514F9F5FAF4FBF4F6627782F18
:1048C000892F9A2F0E9483F82196C017D10724F3CD
:1048D000DF91CF911F910F91FF90EF9008950F936B
:1048E0001F93CF93DF931FB7F894DFDEC0919A0C2C
:1048F000D0919B0CAE0160E070E004E2069FF001F5
:10490000079FF00D1124EE58F24F80E090E02191C6
:104910003191DA01A80FB91F2D933C93029684328E
:104920009105A9F76F5F7F4F4C5D5F4F6830710550
:1049300029F78091940E9091950EFE01E05EFE4F56
:1049400091838083FE01EE5DFE4F8091920E9091E7
:10495000930E918380838091960EFE01EC5DFE4F55
:1049600080838091970EFE01EB5DFE4F8083CA5DD0
:10497000DE4FD0939B0CC0939A0CCE5ADE40C130D0
:10498000D44020F464E08CED90E078DF1FBFDF912D
:10499000CF911F910F91089526EC21BB469A782F55
:1049A0007695769576958295880F807E462F440F72
:1049B000362F3695242F26702068562F551F5527E1
:1049C000551F252B9295969597706071962B542FB5
:1049D000550F5072952B407C942B3270832B75B9F8
:1049E00028B99BB98EB987E881BB0895BF92CF9251
:1049F000DF92EF92FF920F931F93CF93DF93E8EE36
:104A0000FCE070E048E050E0B6ECA7E8C1E007E465
:104A100080EFB82E92EAE92E81919191272F269569
:104A2000269526956A0102C0CC0CDD1C2A95E2F77A
:104A30006C2D6095687F272F2770622BFFB6F89446
:104A40009C01232F332726952695C22EB1BB469A6B
:104A5000122F110FD12FD670D0682071332722600A
:104A6000312F330F3072322B212F207C322B2C2D03
:104A700026952270206215B8D8B93BB92EB9A1BBD2
:104A80009695879596958795282FB1BB469AD82FEE
:104A9000DD0F382F3695221F2227221F16E0D12E38
:104AA000DD222D2920688071992782609D2F990F22
:104AB0009072982B8D2F807C982B327015B828B966
:104AC0009BB93EB9A1BBB1BB469A262F220F962FA8
:104AD0009695362F331F3327331F822F8670382B3E
:104AE00030646071822F880F8072862B207C822B2D
:104AF0009270906AC5B938B98BB99EB9A1BB8DE0E7
:104B00008A95F1F70000B1BB469AC5B908B9BBB8A0
:104B1000EEB8A1BB8DE08A95F1F70000FFBE7F5F84
:104B2000703209F079CF4FB7F8948091280D96EC48
:104B300091BB469A382F330F982F9695232F2670C6
:104B40002064582F551F5527551F252B582F50715E
:104B5000832F880F8072852B307C832B9270906618
:104B600031E035B928B98BB99EB987E881BB4FBF11
:104B7000DF91CF911F910F91FF90EF90DF90CF9039
:104B8000BF9008958091AA0E8F7779F46091990A69
:104B9000663008F4A0C06C3008F099C0655D82E60C
:104BA000A1DD81E00E94F61621DF4091990AE42FF1
:104BB000F0E0EE0FFF1FE851F34F20813181542FB9
:104BC00056955695569588E090E001C0880F5A9505
:104BD000EAF78095887F4770842BAFB7F894A901D6
:104BE000452F552746954695F42F66EC61BB469AAE
:104BF000E42FEE0F7E2F767070684071552742606B
:104C00009E2F990F9072942BE07C9E2B4F2F4695F0
:104C10004270406215B878B99BB94EB957E851BB9C
:104C20003695279536952795422F61BB469AE22FF8
:104C3000EE0F722F7695441F4427441F9E2F9670C7
:104C4000492B40682071332722609E2F990F907264
:104C5000922BE07C9E2B727015B848B99BB97EB937
:104C600051BB61BB469A482F440F282F2695382FF9
:104C7000331F3327331F942F9670392B3064807184
:104C8000942F990F9072982B407C942B2270206A5D
:104C900081E085B938B99BB92EB951BB9DE09A9591
:104CA000F1F7000061BB469A85B987E488B980EFC7
:104CB0008BB982EA8EB951BB8DE08A95F1F700007D
:104CC000AFBF8091AA0E8F5F8093AA0E08956B5D8F
:104CD00086E608DD66CF6F5C81E604DD62CF8F92E9
:104CE0009F92AF92BF92CF92DF92EF92FF920F937B
:104CF0001F93CF93DF93C0E3D5E706EC10EEE7E018
:104D00008E2E99249394F0E4AF2EA0E2BA2EB7E44D
:104D1000CB2E87EED82E97EFE92E22EEF22E02C090
:104D20002097E1F02FDF01BB469A17B98AB81DB969
:104D300095B8A8B81BB8BEB8C1BA82E08A95F1F799
:104D400000C086B199B19CB101BB479AD7B8EAB807
:104D5000FDB8219782FFE4CFCD2B29F48091AD0ED1
:104D60008F5F8093AD0EDF91CF911F910F91FF90D8
:104D7000EF90DF90CF90BF90AF909F908F9008956D
:104D80008F929F92AF92BF92CF92DF92EF92FF925B
:104D90000F931F93CF93DF93C0E3D5E706EC10EE9C
:104DA00037E0832E9924939440E4A42E50E2B52E4C
:104DB00067E4C62E77EED72EE7EFEE2EF2EEFF2E4B
:104DC00002C02097E1F0DEDE01BB469A17B98AB82F
:104DD0001DB995B8A8B81BB8BEB8C1BA82E08A950B
:104DE000F1F700C086B199B19CB101BB479AD7B821
:104DF000EAB8FDB8219782FDE4CFCD2B29F480914C
:104E0000AD0E8F5F8093AD0EDF91CF911F910F910B
:104E1000FF90EF90DF90CF90BF90AF909F908F90DA
:104E200008958091280D8E7F9091290D91118160B8
:104E30008093280D4FB7F8948091280D96EC91BB84
:104E4000469A382F330F982F9695232F267020647B
:104E5000582F551F5527551F252B582F5071832F1D
:104E6000880F8072852B307C832B9270906631E0A6
:104E700035B928B98BB99EB987E881BB4FBF8091FE
:104E8000280D877F90912C0D911188608093280DBB
:104E90004FB7F8948091280D96EC91BB469A382F25
:104EA000330F982F9695232F26702064582F551F67
:104EB0005527551F252B582F5071832F880F80722F
:104EC000852B307C832B9270906631E035B928B900
:104ED0008BB99EB987E881BB4FBF8091280D8D7F2C
:104EE00090912A0D911182608093280D4FB7F8940C
:104EF0008091280D96EC91BB469A382F330F982F4E
:104F00009695232F26702064582F551F5527551F1F
:104F1000252B582F5071832F880F8072852B307C62
:104F2000832B9270906631E035B928B98BB99EB960
:104F300087E881BB4FBF8091280D8F7E90912D0D0A
:104F4000911180618093280D4FB7F8948091280DBE
:104F500096EC91BB469A382F330F982F9695232FB6
:104F600026702064582F551F5527551F252B582F65
:104F70005071832F880F8072852B307C832B927029
:104F8000906631E035B928B98BB99EB987E881BB05
:104F90004FBF8091280D8B7F90912F0D91118460D0
:104FA0008093280D4FB7F8948091280D96EC91BB13
:104FB000469A382F330F982F9695232F267020640A
:104FC000582F551F5527551F252B582F5071832FAC
:104FD000880F8072852B307C832B9270906631E035
:104FE00035B928B98BB99EB987E881BB4FBF80918D
:104FF000280D8F7D9091300D911180628093280D46
:105000004FB7F8948091280D96EC91BB469A382FB3
:10501000330F982F9695232F26702064582F551FF5
:105020005527551F252B582F5071832F880F8072BD
:10503000852B307C832B9270906631E035B928B98E
:105040008BB99EB987E881BB4FBF8091280D8F7BBC
:105050009091310D911180648093280D4FB7F89491
:105060008091280D96EC91BB469A382F330F982FDC
:105070009695232F26702064582F551F5527551FAE
:10508000252B582F5071832F880F8072852B307CF1
:10509000832B9270906631E035B928B98BB99EB9EF
:1050A00087E881BB4FBF0895CF92DF92EF92FF92C6
:1050B0000F931F93CF93DF93FC01818D90E099278D
:1050C000DC01A055BD4F2C91DC01A055BC4FCC900C
:1050D000D12CE12CF12C7601DD24CC24D22AA2A5FE
:1050E000EC01C055DE4F8881C82A0A2E04C0F69410
:1050F000E794D794C7940A94D2F7CC0CDD1CEE1C2D
:10510000FF1CCC0CDD1CEE1CFF1CCC0CDD1CEE1CB3
:10511000FF1CCC0CDD1CEE1CFF1CC086D186E28679
:10512000F386838D90E09927EC01C055DD4F4881CF
:10513000EC01C055DC4F088110E020E030E0980120
:1051400011270027142BEC01C055DE4F8881082B56
:105150000A2E04C036952795179507950A94D2F71D
:10516000000F111F221F331F000F111F221F331F9B
:10517000000F111F221F331F000F111F221F331F8B
:105180000487158726873787858D90E09927EC015E
:10519000C055DD4FB881EC01C055DC4F488150E06F
:1051A00060E070E0BA01552744275B2BEC01C05545
:1051B000DE4F8881482B04C07695679557954795B3
:1051C000AA95D2F7440F551F661F771F440F551F2E
:1051D000661F771F440F551F661F771F440F551F0B
:1051E000661F771F408B518B628B738B83A5823038
:1051F00009F45EC008F036C0813009F02AC0268963
:105200003789468D578DAA27429FB12D539FC001E4
:10521000349FB00D811D9A1F529FB00D811D9A1FA2
:10522000112480A391A340955095AA27429FB12DA8
:10523000539FC001349FB00D811D9A1F529FB00D26
:10524000811D9A1F112482A393A3C082D182E2827E
:10525000F382DF91CF911F910F91FF90EF90DF903C
:10526000CF9008958330E9F0843099F711A210A20D
:10527000268D378D06891789AA27209FB12D319F4A
:10528000C001129FB00D811D9A1F309FB00D811D6E
:105290009A1F112482A393A3408351836283738353
:1052A000D8CF11A210A28689978993A382A3D1CFC8
:1052B0004689578964897589AA27649FB12D759F8E
:1052C000C001569FB00D811D9A1F749FB00D811DA6
:1052D0009A1F112480A391A360957095AA27649FBB
:1052E000B12D759FC001569FB00D811D9A1F749FEF
:1052F000B00D811D9A1F112482A393A300831183F3
:1053000022833383A6CFFC01778B668BCDCE0F93A0
:105310001F93FC01718F608F538F428F358B248BCD
:10532000158F048F1F910F91BFCECF92DF92EF9216
:10533000FF920F931F930091C2151091C3152091F6
:10534000C4153091C515832F9927AA27BB27892B10
:105350008A2B8B2B09F03FC0E091D4156091C615C4
:105360007091C7158091C8159091C915E13009F465
:105370009CC0E33009F474C0E091CE15F091CF15D4
:10538000DC01CB01800F911FA21FB31F8093C215B8
:105390009093C315A093C415B093C5159F0140E029
:1053A00050E0305841095109A091CA15B091CB1570
:1053B0000E9464572FEF3FEF40E050E00E94745787
:1053C0003093D1152093D0151F910F91FF90EF903E
:1053D000DF90CF900895E1E08091D315E81BE09332
:1053E000D315E11137C0C12CD12C7601C092C21562
:1053F000D092C315E092C415F092C5152091CC153A
:105400003091CD1540E050E00090D21504C0220F3D
:10541000331F441F551F0A94D2F7FF27E1950CF460
:10542000F095DF01AA0FBB1F11960E946E57609383
:10543000C6157093C7158093C8159093C915209110
:10544000D41521113CC0F093CF15E093CE159701F0
:10545000860192CFCC24CA94DC2CEC2CF12CC6CF44
:10546000D12EE22F2F3F09F449C0A22FAF5FB0E049
:10547000AA0FBB1FF0E0EE0FFF1FE656F54FE080CE
:10548000F180A656B54FED91FC91EE19FF09AF2FB3
:10549000BB27DA9EF001DB9EF00D1124EE0DFF1DFF
:1054A000F093CF15E093CE156BCFC12ED22EE32E05
:1054B000FF24F601D092CF15C092CE1561CF2230D5
:1054C00021F0E22F9701860151CF0E945657909309
:1054D000CF158093CE15E091D4156091C6157091CB
:1054E000C7158091C8159091C9150091C2151091EA
:1054F000C3152091C4153091C51538CFAEEFB1E07A
:10550000B9CF96EC91BB469A482F440F282F269589
:10551000342F36703064982F991F9927991F392B93
:105520008071942F990F9072982B407C942B22704D
:10553000206615B838B99BB92EB987E881BB85E0DC
:105540008A95F1F7000008956095ECEAFEE09081FD
:10555000982B6923608386EC81BB469A362F330FE4
:10556000962F9695262F221F2227221F832F867083
:10557000282B20646071832F880F8072862B307CEB
:10558000832B9270906C31E035B928B98BB99EB9F4
:1055900087E881BB85E08A95F1F70000EBEAFEE041
:1055A00080818F5F808308954091AC0E242F22600C
:1055B0002093AC0E86EC81BB469A322F330F922F8C
:1055C0009695221F2227221F832F8670282B206466
:1055D000832F880F80724071842B307C832B9270D4
:1055E000906C31E035B928B98BB99EB987E881BB99
:1055F00085E08A95F1F700008091AB0E8F5F809374
:10560000AB0E089580959091AC0E89238093AC0EDB
:1056100096EC91BB469A482F440F282F2695382F99
:10562000331F3327331F942F9670392B30648071CA
:10563000942F990F9072982B407C942B2270206CA1
:1056400081E085B938B99BB92EB987E881BB85E07F
:105650008A95F1F700008091AB0E8F5F8093AB0EBF
:1056600008958091AC0E80618093AC0E96EC91BB56
:10567000469A382F330F982F9695282F221F2227CE
:10568000221F832F8670282B2064832F880F80721F
:105690008061307C832B9270906C31E035B928B9F1
:1056A0008BB99EB987E881BB85E08A95F1F7000048
:1056B0008091AB0E8F5F8093AB0E08953091AC0E4E
:1056C000932F98609093AC0E86EC81BB469A292F5D
:1056D000220F892F8695991F9927991F422F46706F
:1056E000942B9064207C30713062232B8270806C0C
:1056F00031E035B998B92BB98EB987E881BB85E01F
:105700008A95F1F700008091AB0E8F5F8093AB0E0E
:1057100008954091AC0E242F21602093AC0E86ECAE
:1057200081BB469A322F330F922F9695221F222744
:10573000221F832F8670282B2064832F880F80726E
:105740004071842B307C832B9270906C31E035B9A2
:1057500028B98BB99EB987E881BB85E08A95F1F7B6
:1057600000008091AB0E8F5F8093AB0E0895FC011B
:1057700026893789468D578DAA27429FB12D539F81
:10578000C001349FB00D811D9A1F529FB00D811D25
:105790009A1F112480A391A340955095AA27429F58
:1057A000B12D539FC001349FB00D811D9A1F529F90
:1057B000B00D811D9A1F112482A393A340855185AA
:1057C000628573854083518362837383089586EC79
:1057D00081BB469A15B896E898B993E09BB91EB874
:1057E00097E891BBEFE9FFE03197F1F700C00000C7
:1057F00081BB469A15B823E828B923E12BB922E0EA
:105800002EB991BBFAE0FA95F1F700C081BB469A38
:1058100020EE27B997E09AB92DB915B820E828B934
:105820009BB91EB897E491BB92E09A95F1F700C03E
:1058300096B199B19CB181BB479A87EE87B987EF42
:105840008AB982EE8DB9EAE0EA95F1F700C00895D1
:1058500086EC81BB469A15B880E488B91BB88EB92E
:1058600087E881BB85E08A95F1F700000895CF9322
:10587000C82F82958F708A3060F097E3890F0E945D
:10588000EA23CF70CA3060F087E38C0FCF910C947D
:10589000EA2390E3890F0E94EA23CF70CA30A0F771
:1058A00080E38C0FCF910C94EA230F931F93382F32
:1058B00020912B0DE0912E0D222309F4EEC0409192
:1058C000440D5091450D60E070E0EE2309F4E0C016
:1058D00080914A0D90914B0DA0E0B0E0332381F010
:1058E000222361F00091D0151091D115222717FDC8
:1058F0002095322F400F511F621F731FE111D2C03C
:105900002FB7F89477FDDEC04115510531E06307EC
:10591000710524F04FEF5FEF60E070E0BA01672F90
:10592000772766956695062FE6ECE1BB469A162F1B
:10593000110FF12FF670F068607177276260312FD8
:10594000330F3072362B107C312B602F66956270CE
:10595000606215B8F8B93BB96EB977E871BB569576
:10596000479556954795642FE1BB469A142F110F22
:10597000F42FF695661F6627661F312F3670632B4E
:105980006068407155274260312F330F3072342BDD
:10599000107C312BF27015B868B93BB9FEB971BBF8
:1059A000E1BB469A41E045B931E438B930E73BB94B
:1059B00032EA3EB971BBE1BB469A45B947E448B902
:1059C00040EF4BB93EB971BBB7FD80C0009731E0E5
:1059D000A307B10524F08FEF9FEFA0E0B0E0AC018A
:1059E000452F552746954695F42F66EC61BB469AA0
:1059F000E42FEE0F7E2F767070684071552742605D
:105A00003E2F330F3072342BE07C3E2B4F2F4695C8
:105A10004270406215B878B93BB94EB947E841BB0E
:105A20009695879596958795382F61BB469A782FDE
:105A3000770F582F5695331F3327331FE72FE67004
:105A40003E2B3068807199278260972F990F907252
:105A5000982B707C972B527015B838B99BB95EB9EA
:105A600041BB61BB469A31E035B997E498B980E70C
:105A70008BB982EA8EB941BB61BB469A35B998B9F8
:105A800090EF9BB98EB941BB2FBF1F910F91089525
:105A90008FEF9FEFA0E0B0E021CF4FEF5FEF60E02E
:105AA00070E013CF0091D0151091D115222717FD6A
:105AB0002095322F800F911FA21FB31F2FB7F8948C
:105AC00077FF22CF40E050E0BA011ECF80E090E0A7
:105AD000DC017CCF2F923F924F925F926F927F9228
