:100000004BC0000042C2000040C200003EC20000DF
:100010003CC200000C946D6938C2000036C200007A
:1000200034C2000032C200000C9463690C94596918
:100030002CC200002AC2000028C2000026C2000014
:1000400024C2000022C2000020C200001EC2000024
:100050001CC200000C94196A18C2000016C20000ED
:1000600014C2000012C2000010C200000EC2000044
:100070000CC200000AC2000008C2000006C2000054
:1000800004C2000002C2000000C20000FEC1000065
:10009000FCC10000FAC1000011241FBECFEFD0E266
:1000A000DEBFCDBF0E9400F0D7C10000076342361B
:1000B000B79BD8A71A39685618AEBAAB558C1D3CF9
:1000C000B7CC5763BD6DEDFD753EF6177231BF00BD
:1000D0000000803F05A84CCDB2D44EB93836A902F5
:1000E0000C50B9918688083CA6AAAA2ABE00000036
:1000F000803F08000000BE922449123EABAAAA2A03
:10010000BECDCCCC4C3E00000080BEABAAAAAA3E1D
:1001100000000000BF000000803F00000000000859
:100120004178D3BB4387D1133D190E3CC3BD4282F6
:10013000AD2B3E68EC8276BED98FE1A93E4C80EFB4
:10014000FFBE01C4FF7F3F0000000000FF004C8A9B
:1001500097509545406BA6D8E4B2282EAE90BF26A6
:10016000B14EE86FD0FBE0709A51862C379845323B
:10017000539D06840D971A8CE61E2E0DB41D401655
:100180009AC591F9F786A142660620AFAE19EE270F
:10019000C2BB0EBAB90AAA95CA45040444C1796A19
:1001A00091EE7D3E2E4C960BA96E5A6A9FF56D0519
:1001B000BB8F808DB4F54FC14AE99E674536394FF4
:1001C00075ADF44CB227A939D78036F7C49C7E6A46
:1001D000605F677992B4DD0E4786CD1A6DC6258AB9
:1001E000F464D953D154DB67F78B22BD5CFEA44D78
:1001F000F9A7590EC57E3BF9BA7D430AD39F6C3BE4
:100200000BDEB2875E3710ECC8A6856546290CF177
:10021000D6BCA38C755E4934200DFAE9D7C7B6A7C2
:10022000988A7C6E6155493D32271D1209FFF6EE12
:10023000E5DDD5CEC6BFB9B2ACA6A09A958F8A85AA
:10024000817C78736F6B6864605D5A56FF59E97DF5
:1002500015B150F39942EE9D4F04BC7632F1B2765F
:100260003B03CC98653405D8AC8259320CE7C4A264
:100270008161432509EDD3B9A089725C46321E0B1A
:10028000F8E6D5C4B4A596887A6D6053473C30260D
:100290001B1108FEF5EDE4DCD4CDC6BFB8B1ABA5AB
:1002A0009F99948F8A85807C77736F6B6763605D9D
:1002B000595653504D4A484543403E3C3A383634EF
:1002C00032302E2D2B2A282725242321201F1E1DC6
:1002D0001C1B1A19181716161514131312111110C6
:1002E0000F0F0E0E0D0D0C0C0B0B0B0A0A09090952
:1002F0000808080807070706060606060505050597
:1003000005040404040404030303030303030302B6
:1003100002020202020202020202010101010101C3
:1003200001010101010101010101010101000000C0
:1003300000000000000000000000000000000000BD
:10034000000000000000000000000000FF0C0B0B8C
:100350000B0A0A090909080808080707070606061C
:100360000606050505050504040404040403030347
:100370000303030303020202020202020202020258
:10038000010101010101010101010101010101015D
:10039000010101000000000000000000000000005A
:1003A000000000000000000000000000000000004D
:1003B000000000000000000000000000000000003D
:1003C000000000000000000000000000000000002D
:1003D000000000000000000000000000000000001D
:1003E000000000000000000000000000000000000D
:1003F00000000000000000000000000000000000FD
:1004000000000000000000000000000000000000EC
:1004100000000000000000000000000000000000DC
:1004200000000000000000000000000000000000CC
:1004300000000000000000000000000000000000BC
:1004400000000000000000000000000011241FBE9A
:10045000CFEFD0E2DEBFCDBF1AE1A4EAB9E001C020
:100460001D92AF37B107E1F719E0A0E0B1E0E2E497
:10047000FFEE00E00BBF02C007900D92A43AB10757
:10048000D9F70E94526A0C949F77BACD2F923F926F
:100490004F925F926F927F928F929F92AF92BF9294
:1004A000CF92DF92EF92FF920F931F93CF93DF9340
:1004B00000D000D0CDB7DEB78AE090E10E941E31B7
:1004C00040903B1050903C102091C81020FF15C068
:1004D00025FD02C00C94020E420124FD0FC0809144
:1004E00020109091211095958795480E591E21FD59
:1004F00007C0C12CD12C76010BC0420121FFF9CFDE
:10050000C0902010D0902110EE24D7FCE094FE2C57
:100510000091E9101091EA1020E030E01058210914
:1005200031098091C410882311F40C94FE0D809140
:10053000FB109091FC10A0E0B0E09058A109B10927
:10054000B7FF02C00C945010B595A7959795879565
:100550009C838B833FB6F89482E19EE00E943C30FE
:100560002091360E3091370E3A832983AA2497FCC6
:10057000A094BA2C662457FC6094762C80914C1081
:1005800090914D10B301A201480F591F611D711DBB
:10059000DB01CA01009751E0A507B10524F08FEFF8
:1005A0009FEFA0E0B0E0B7FF02C00C94160E0E94CF
:1005B0009D1246EC41BB469A31E035B925E428B995
:1005C00050EF5BB992EA9EB987E881BB00C000C0DA
:1005D00041BB469A35B928B960ED6BB99EB981BB6C
:1005E00000C000C041BB469A35B928B95BB99EB975
:1005F00081BB6B817C8129813A81AA27629FB12DC1
:100600007303C001369FB00D811D9A1F72039A0BB0
:10061000B00D811D9A1F1124AA2797FDA095BA2F0E
:10062000880D991DAA1DBB1D2091401030914110CD
:10063000820F931FA11DB11D009731E0A307B105E3
:1006400024F08FEF9FEFA0E0B0E0B7FF02C00C9462
:10065000110E0E949D1246EC41BB469A31E035B91D
:1006600021E428B950EF5BB990EA9EB987E881BBD5
:1006700000C000C041BB469A35B928B960ED6BB9DE
:100680009EB981BB00C000C041BB469A35B928B9AC
:100690005BB99EB981BB49815A81AA27049FB12DBC
:1006A0001503C001509FB00D811D9A1F14039A0BB2
:1006B000B00D811D9A1F1124AA2797FDA095BA2F6E
:1006C0008C0D9D1DAE1DBF1D2091581030915910ED
:1006D000820F931FA11DB11D009751E0A507B10521
:1006E00024F08FEF9FEFA0E0B0E0B7FF02C00C94C2
:1006F0000C0E0E949D1246EC41BB469A31E035B982
:1007000021E428B950EF5BB992EA9EB987E881BB32
:1007100000C000C041BB469A35B928B960EE6BB93C
:100720009EB981BB00C000C041BB469A35B928B90B
:100730005BB99EB981BB8EE09FE00E943C30809106
:10074000320F9091330F009711F00C94A90C0E9476
:100750009D1246EC41BB469A31E035B925E428B9F3
:1007600050EF5BB990EA9EB987E881BB00C000C03A
:1007700041BB469A35B928B960EB6BB99EB981BBCC
:1007800000C000C041BB469A35B928B95BB99EB9D3
:1007900081BB3FBE3FB73983F8948091400E909162
:1007A000410EA091420EB091430E8B2F9927AA279C
:1007B000BB27892B8A2B8B2B11F00C94A30C8091D7
:1007C000650E823011F40C944E0C10F00C94470C12
:1007D000813011F40C94580D80E090E060915E0E31
:1007E00070915F0E0E94C11920905C0E30905D0EDA
:1007F000280E391E3092610E2092600E80913C0EC0
:1008000090913D0EA0913E0EB0913F0E4091400E52
:100810005091410E6091420E7091430E840F951FCE
:10082000A61FB71F8093400E9093410EA093420ED7
:10083000B093430E80914E1090914F10B301A201DE
:10084000480F591F611D711D4115510581E0680751
:10085000710524F04FEF5FEF60E070E0DB01CA014B
:1008600077FF02C00C94A40D0E949D1266EC61BB40
:10087000469A51E055B947E448B970EF7BB992EA1E
:100880009EB987E881BB00C000C061BB469A55B9DC
:1008900048B9E0EDEBB99EB981BB00C000C061BBB7
:1008A000469A55B948B97BB99EB981BB2B813C8129
:1008B000B101AA27269FB12D3703A001729FB00D69
:1008C000411D5A1F36035A0BB00D411D5A1F1124EA
:1008D000662757FD6095762F480D591D6A1D7B1DB3
:1008E0008091421090914310480F591F611D711D56
:1008F0004115510581E06807710524F04FEF5FEF66
:1009000060E070E0DB01CA0177FF02C00C94930D38
:100910000E949D1266EC61BB469A51E055B943E4D2
:1009200048B970EF7BB990EA9EB987E881BB00C0F7
:1009300000C061BB469A55B948B9E0EDEBB99EB924
:1009400081BB00C000C061BB469A55B948B97BB9AC
:100950009EB981BB9101AA27029FB12D1303A0016B
:10096000309FB00D411D5A1F12035A0BB00D411D8F
:100970005A1F1124662757FD6095762F4C0D5D1D7B
:100980006E1D7F1D80915A1090915B10480F591F6A
:10099000611D711D4115510531E06307710524F09A
:1009A0004FEF5FEF60E070E0DB01CA0177FF02C04C
:1009B0000C948E0D0E949D1246EC41BB469A31E08C
:1009C00035B923E428B950EF5BB992EA9EB987E8BC
:1009D00081BB00C000C041BB469A35B928B960EE62
:1009E0006BB99EB981BB00C000C041BB469A35B906
:1009F00028B95BB99EB981BB80913C0F90913D0FA6
:100A0000A0913E0FB0913F0F8B2F9927AA27BB27AC
:100A1000892B8A2B8B2B09F053C78091610F823071
:100A200009F4F2C608F0EAC6813009F4E0C780E0B4
:100A300090E060915A0F70915B0F0E94C119209154
:100A4000580F3091590F280F391F30935D0F2093A5
:100A50005C0F8091380F9091390FA0913A0FB091AF
:100A60003B0F40913C0F50913D0F60913E0F7091B4
:100A70003F0F840F951FA61FB71F80933C0F9093C5
:100A80003D0FA0933E0FB0933F0F2115310509F0A4
:100A900021C780E090E00E949D1246EC41BB469A3F
:100AA00031E035B927E428B950EF5BB990EA9EB937
:100AB00087E881BB00C000C041BB469A35B928B960
:100AC00060EB6BB99EB981BB00C000C041BB469AC8
:100AD00035B928B95BB99EB981BB39813FBF2FB702
:100AE0002983F89480916A0E90916B0EA0916C0E00
:100AF000B0916D0E8B2F9927AA27BB27892B8A2BA4
:100B00008B2B09F0E2C680918F0E823009F493C6D8
:100B100008F08BC6813009F4BAC780E090E060919C
:100B2000880E7091890E0E94C1192090860E309017
:100B3000870E280E391E30928B0E20928A0E8091DD
:100B4000660E9091670EA091680EB091690E40916B
:100B50006A0E50916B0E60916C0E70916D0E840F49
:100B6000951FA61FB71F80936A0E90936B0EA093DC
:100B70006C0EB0936D0E8091501090915110B30196
:100B8000A201480F591F611D711D4115510531E02A
:100B90006307710524F04FEF5FEF60E070E0DB0169
:100BA000CA0177FF01C0CCC70E949D1266EC61BBF1
:100BB000469A51E055B941E448B970EF7BB990EAE3
:100BC0009EB987E881BB00C000C061BB469A55B999
:100BD00048B9E0EEEBB99EB981BB00C000C061BB73
:100BE000469A55B948B97BB99EB981BB6B817C8166
:100BF0009101AA27629FB12D7303A001369FB00D0A
:100C0000411D5A1F72035A0BB00D411D5A1F11246A
:100C1000662757FD6095762F480D591D6A1D7B1D6F
:100C20008091441090914510480F591F611D711D0E
:100C30004115510531E06307710524F04FEF5FEF77
:100C400060E070E0DB01CA0177FF01C075C70E9458
:100C50009D1266EC61BB469A51E055B945E448B92E
:100C600070EF7BB990EA9EB987E881BB00C000C0F5
:100C700061BB469A55B948B9E0EDEBB99EB981BB65
:100C800000C000C061BB469A55B948B97BB99EB94E
:100C900081BBB101AA27069FB12D1703A001709F48
:100CA000B00D411D5A1F16035A0BB00D411D5A1F9E
:100CB0001124662757FD6095762F4C0D5D1D6E1D26
:100CC0007F1D80915C1090915D10480F591F611D30
:100CD000711D4115510581E06807710524F04FEF42
:100CE0005FEF60E070E0DB01CA0177FD21C70E9481
:100CF0009D1246EC41BB469A31E035B925E428B94E
:100D000050EF5BB992EA9EB987E881BB00C000C092
:100D100041BB469A35B928B960EE6BB99EB981BB23
:100D200000C000C041BB469A35B928B95BB99EB92D
:100D300081BB8091660F9091670FA091680FB09171
:100D4000690F8B2F9927AA27BB27892B8A2B8B2BDF
:100D500009F0ECC580918B0F823009F485C508F04D
:100D60007DC5813009F406C680E090E06091840F73
:100D70007091850F0E94C1192091820F3091830FCD
:100D8000280F391F3093870F2093860F8091620FB1
:100D90009091630FA091640FB091650F4091660F21
:100DA0005091670F6091680F7091690F840F951FC4
:100DB000A61FB71F8093660F9093670FA093680FCD
:100DC000B093690F2115310509F0B5C580E090E0B9
:100DD0000E949D1246EC41BB469A31E035B921E4B0
:100DE00028B950EF5BB992EA9EB987E881BB00C091
:100DF00000C041BB469A35B928B960EB6BB99EB9C2
:100E000081BB00C000C041BB469A35B928B95BB967
:100E10009EB981BB29812FBF3FB73983F894809158
:100E2000940E9091950EA091960EB091970E8B2FE7
:100E30009927AA27BB27892B8A2B8B2B09F071C5F1
:100E40008091B90E823009F4C6C408F0BEC4813066
:100E500009F4A6C580E090E06091B20E7091B30EE7
:100E60000E94C1192090B00E3090B10E280E391E8C
:100E70003092B50E2092B40E8091900E9091910E0A
:100E8000A091920EB091930E4091940E5091950EB8
:100E90006091960E7091970E840F951FA61FB71F35
:100EA0008093940E9093950EA093960EB093970E08
:100EB0008091521090915310B301A201480F591F15
:100EC000611D711D4115510581E06807710524F010
:100ED0004FEF5FEF60E070E0DB01CA0177FDFEC518
:100EE0000E949D1266EC61BB469A51E055B943E4FD
:100EF00048B970EF7BB990EA9EB987E881BB00C022
:100F000000C061BB469A55B948B9E0EEEBB99EB94D
:100F100081BB00C000C061BB469A55B948B97BB9D6
:100F20009EB981BB2B813C81B101AA27269FB12D9F
:100F30003703A001729FB00D411D5A1F36035A0B93
:100F4000B00D411D5A1F1124662757FD6095762F5D
:100F5000480D591D6A1D7B1D8091461090914710C8
:100F6000480F591F611D711D4115510581E068072A
:100F7000710524F04FEF5FEF60E070E0DB01CA0124
:100F800077FDC4C50E949D1266EC61BB469A51E094
:100F900055B947E448B970EF7BB990EA9EB987E844
:100FA00081BB00C000C061BB469A55B948B9E0EDAD
:100FB000EBB99EB981BB00C000C061BB469A55B970
:100FC00048B97BB99EB981BB9101AA27029FB12D77
:100FD0001303A001309FB00D411D5A1F12035A0B7D
:100FE000B00D411D5A1F1124662757FD6095762FBD
:100FF0004C0D5D1D6E1D7F1D80915E1090915F10E8
:10100000480F591F611D711D4115510531E06307DE
:10101000710524F04FEF5FEF60E070E0DB01CA0183
:1010200077FD70C50E949D1246EC41BB469A31E0A7
:1010300035B927E428B950EF5BB992EA9EB987E841
:1010400081BB00C000C041BB469A35B928B960EEEB
:101050006BB99EB981BB00C000C041BB469A35B98F
:1010600028B95BB99EB981BB8091900F9091910F87
:10107000A091920FB091930F8B2F9927AA27BB278E
:10108000892B8A2B8B2B09F032C48091B50F8230CB
:1010900009F488C308F080C3813009F4E7C480E014
:1010A00090E06091AE0F7091AF0F0E94C119209136
:1010B000AC0F3091AD0F280F391F3093B10F209333
:1010C000B00F80918C0F90918D0FA0918E0FB091E9
:1010D0008F0F4091900F5091910F6091920F7091EE
:1010E000930F840F951FA61FB71F8093900F9093A7
:1010F000910FA093920FB093930F2115310509F032
:1011000000C480E090E00E949D1246EC41BB469AEC
:1011100031E035B923E428B950EF5BB992EA9EB9C2
:1011200087E881BB00C000C041BB469A35B928B9E9
:1011300060EB6BB99EB981BB00C000C041BB469A51
:1011400035B928B95BB99EB981BB29812FBF3FB79B
:101150003983F8948091BE0E9091BF0EA091C00E7D
:10116000B091C10E8B2F9927AA27BB27892B8A2BD9
:101170008B2B09F0C1C38091E30E823009F4F9C2D0
:1011800008F0F1C2813009F41CC480E090E0609165
:10119000DC0E7091DD0E0E94C1192090DA0E3090A5
:1011A000DB0E280E391E3092DF0E2092DE0E80916B
:1011B000BA0E9091BB0EA091BC0EB091BD0E4091A5
:1011C000BE0E5091BF0E6091C00E7091C10E840F83
:1011D000951FA61FB71F8093BE0E9093BF0EA093BE
:1011E000C00EB093C10E8091541090915510B30170
:1011F000A201480F591F611D711D4115510581E064
:101200006807710524F04FEF5FEF60E070E0DB01ED
:10121000CA0177FD7FC40E949D1266EC61BB469AAD
:1012200051E055B945E448B970EF7BB990EA9EB9F1
:1012300087E881BB00C000C061BB469A55B948B978
:10124000E0EEEBB99EB981BB00C000C061BB469A1D
:1012500055B948B97BB99EB981BB2B813C81B1019D
:10126000AA27269FB12D3703A001729FB00D411D03
:101270005A1F36035A0BB00D411D5A1F1124662701
:1012800057FD6095762F480D591D6A1D7B1D809175
:10129000481090914910480F591F611D711D41154B
:1012A000510581E06807710524F04FEF5FEF60E0C2
:1012B00070E0DB01CA0177FD21C40E949D1266EC3B
:1012C00061BB469A51E055B941E448B970EF7BB92A
:1012D00092EA9EB987E881BB00C000C061BB469A14
:1012E00055B948B9E0EDEBB99EB981BB00C000C06B
:1012F00061BB469A55B948B97BB99EB981BB91018A
:10130000AA27029FB12D1303A001309FB00D411DEC
:101310005A1F12035A0BB00D411D5A1F1124662784
:1013200057FD6095762F4C0D5D1D6E1D7F1D8091C4
:10133000601090916110480F591F611D711D41157A
:10134000510531E06307710524F04FEF5FEF60E076
:1013500070E0DB01CA0177FDCDC30E949D1246EC0F
:1013600041BB469A31E035B921E428B950EF5BB969
:1013700090EA9EB987E881BB00C000C041BB469A95
:1013800035B928B960EB6BB99EB981BB00C000C00C
:1013900041BB469A35B928B95BB99EB981BB8091EA
:1013A000BA0F9091BB0FA091BC0FB091BD0F8B2FC6
:1013B0009927AA27BB27892B8A2B8B2B09F092C24E
:1013C0008091DF0F823009F4BBC108F0B3C18130D6
:1013D00009F43BC380E090E06091D80F7091D90F81
:1013E0000E94C1192091D60F3091D70F280F391FB5
:1013F0003093DB0F2093DA0F8091B60F9091B70FE7
:10140000A091B80FB091B90F4091BA0F5091BB0F96
:101410006091BC0F7091BD0F840F951FA61FB71F61
:101420008093BA0F9093BB0FA093BC0FB093BD0FE6
:101430002115310509F096C280E090E00E949D12CE
:1014400046EC41BB469A31E035B925E428B950EF66
:101450005BB992EA9EB987E881BB00C000C041BB7E
:10146000469A35B928B960EB6BB99EB981BB00C00B
:1014700000C041BB469A35B928B95BB99EB981BB5A
:1014800029812FBF3FB73983F89484EE9EE00E94F4
:101490003C302090080F3090090F809156109091A9
:1014A0005710480E591E611C711C4114510441E033
:1014B000640671042CF044244A94542C612C712C41
:1014C000D301C20177FC06C30E949D1246EC41BBCA
:1014D000469A31E035B927E428B950EF5BB990EA74
:1014E0009EB987E881BB00C000C041BB469A35B9B0
:1014F00028B960EE6BB99EB981BB00C000C041BB8A
:10150000469A35B928B95BB99EB981BB6B817C819C
:101510009101AA27629FB12D7303A001369FB00DE0
:10152000411D5A1F72035A0BB00D411D5A1F112441
:10153000662757FD6095762F480D591D6A1D7B1D46
:1015400080914A1090914B10480F591F611D711DD9
:101550004115510531E06307710524F04FEF5FEF4E
:1015600060E070E0DB01CA0177FDC0C2E6D746EC5F
:1015700041BB469A31E035B923E428B950EF5BB955
:1015800092EA9EB987E881BB00C000C041BB469A81
:1015900035B928B960ED6BB99EB981BB00C000C0F8
:1015A00041BB469A35B928B95BB99EB981BBB10137
:1015B000AA27069FB12D1703A001709FB00D411DF2
:1015C0005A1F16035A0BB00D411D5A1F11246627CE
:1015D00057FD6095762F4C0D5D1D6E1D7F1D809112
:1015E000621090916310480F591F611D711D4115C4
:1015F000510581E06807710524F04FEF5FEF60E06F
:1016000070E0DB01CA0177FD6DC297D746EC41BBA4
:10161000469A31E035B923E428B950EF5BB990EA36
:101620009EB987E881BB00C000C041BB469A35B96E
:1016300028B960EB6BB99EB981BB00C000C041BB4B
:10164000469A35B928B95BB99EB981BB80EE9FE057
:101650000E943C308091041090910510009709F091
:1016600058C16BD746EC41BB469A31E035B927E407
:1016700028B950EF5BB992EA9EB987E881BB00C0F8
:1016800000C041BB469A35B928B960EB6BB99EB929
:1016900081BB00C000C041BB469A35B928B95BB9CF
:1016A0009EB981BB29812FBF2091A809922F9C71DF
:1016B00011E009F010E0922F9370923009F4E4C425
:1016C000933009F4D6C4913009F4B5C21111F3C4B2
:1016D00080E00E94ED3D8091A4099091A509A09120
:1016E000A609B091A7090196A11DB11D8093A40977
:1016F0009093A509A093A609B093A7092091A809E2
:101700002F5F2093A8090F900F900F900F90DF91FB
:10171000CF911F910F91FF90EF90DF90CF90BF90EE
:10172000AF909F908F907F906F905F904F903F9081
:101730002F900895833009F483C1843009F04ACE94
:101740006091BA0F7091BB0F8091BC0F9091BD0F4B
:101750002091DC0F211124C2BB27A92F982F872F9E
:101760008095909539CE833009F465C1843009F0B5
:101770000CCD6091BE0E7091BF0E8091C00E909105
:10178000C10E2091E00E21112FC2BB27A92F982F47
:10179000872F80959095FBCC833009F447C1843026
:1017A00009F07DCC6091900F7091910F8091920F14
:1017B0009091930F2091B20F211102C2BB27A92F44
:1017C000982F872F809590956CCC833009F4E3C0D7
:1017D000843009F03FCB6091940E7091950E80910A
:1017E000960E9091970E2091B60E2111CFC1BB2776
:1017F000A92F982F872F809590952ECB833009F4B1
:10180000F1C0843009F013C960913C0F70913D0F15
:1018100080913E0F90913F0F20915E0F40EA51E082
:101820000E94BE2F8095909504C9833009F4F9C0B9
:10183000843009F072C960916A0E70916B0E8091CC
:101840006C0E90916D0E20918C0E2111B4C1BB27AE
:10185000A92F982F872F8095909561C9833009F41F
:10186000DBC0843009F080CA6091660F7091670F09
:101870008091680F9091690F2091880F21118BC181
:10188000BB27A92F982F872F809590956FCA8330FB
:1018900009F4BCC0843011F00C94EC036091400E4C
:1018A0007091410E8091420E9091430E2091620EF4
:1018B00040EA51E00E94BE2F809590950C94EE0373
:1018C00088E39FE00E94EB2FA8C886E69EE00E9476
:1018D000EB2F19C921154DEF340708F440C18FEFE4
:1018E0009FEFD9C886EB9FE00E94EB2F69CD8CE873
:1018F0009FE00E94EB2FC9CB8AEB9EE00E94EB2F6A
:101900003ACC21154DEF340708F423C18FEF9FEF38
:10191000FACB8115EDEF9E0708F425C18FEF9FEFFD
:10192000A0CE80E99EE00E94EB2F8ACA82E69FE06B
:101930000E94EB2F0FCA21159DEF390708F40CC147
:101940008FEF9FEF45CA8CE39EE00E94EB2F0C9433
:10195000DF0381156DEF960708F40AC18FEF9FEF43
:101960000C94A70321154DEF340708F4FEC08FEF48
:101970009FEF64CD6091660F7091670F8091680F43
:101980009091690F2091880F21111FC1BB27A92FAA
:10199000982F872FEBC98091A40E9091A50E5CCA59
:1019A0006091940E7091950E8091960E9091970E85
:1019B0002091B60E21110EC1BB27A92F982F872F7A
:1019C0004BCA6091BE0E7091BF0E8091C00E909177
:1019D000C10E2091E00E2111D4C0BB27A92F982F52
:1019E000872FD5CB80914C0F90914D0F22C86091DD
:1019F0003C0F70913D0F80913E0F90913F0F2091D1
:101A00005E0F40EA53E00E94BE2F13C88091500E33
:101A10009091510E0C94EE038091760F9091770F78
:101A2000A5C980917A0E90917B0E79C88091A00F04
:101A30009091A10F36CB8091CE0E9091CF0EA7CB77
:101A40008091CA0F9091CB0FC7CC6091BA0F709163
:101A5000BB0F8091BC0F9091BD0F2091DC0F211125
:101A6000C8C0BB27A92F982F872FB6CC6091900FA5
:101A70007091910F8091920F9091930F2091B20FDE
:101A80002111ADC0BB27A92F982F872F0ACB6091BA
:101A90006A0E70916B0E80916C0E90916D0E20917C
:101AA0008C0E211182C0BB27A92F982F872F37C8F2
:101AB0006091400E7091410E8091420E9091430EC4
:101AC0002091620E211157C0BB27A92F982F872F75
:101AD0000C94EE0380E090E0DC01F6CC80E090E036
:101AE000DC01FEC980E090E0DC018FCD80E090E079
:101AF000DC013CCD80E090E0DC012FCC80E090E088
:101B0000DC01DBCB80E090E0DC018CCA80E090E07F
:101B1000DC0138CA80E090E0DC017DCB80E090E021
:101B2000DC010C94DA0480E090E0DC010C94880481
:101B300080E090E0DC01DBC880E090E0DC0187C859
:101B400080E090E0DC0130C880E090E0DC010C94A3
:101B50003404C9019D5FD7CAC9019D5F39C9C90154
:101B60009D5F0C944B059D5F7CCDC9019D5F66CC4C
:101B70009D5F0C94A70340EA53E00E94D2190C9495
:101B8000EE0340EA53E00E94D21901CB40EA51E053
:101B90000E94D21930CE40EA51E00E94D21974CE90
:101BA00040EA51E00E94D219DBCD40EA53E00E94A6
:101BB000D2190C948F0540EA51E00E94D2194BCE05
:101BC00040EA51E00E94D219FDCD40EA53E00E9464
:101BD000D219CCC840EA53E00E94D2193DC940EA6C
:101BE00053E00E94D2195DCA40EA51E00E94D21926
:101BF000D0CD40EA53E00E94D219EECB1C821B826A
:101C00000C94AA02809020109090211095948794B3
:101C1000840C951C0C946D0280E090E0DC010C9427
:101C2000790380E090E0DC010C94290380E090E0EF
:101C3000DC010C94D7020E948E58809151128823A7
:101C400009F433C28091BB10882379F081508093CE
:101C5000BB108091030D811131C28091040D81115F
:101C60002DC28091020D811147C38091B410882349
:101C700009F407C28091B2109091B31040916410A2
:101C80005091651020914010309141102417350774
:101C900008F402C34217530770F4B901641B750BB3
:101CA000AB018617970708F4AC01241B350B309362
:101CB000411020934010409170105091711020916C
:101CC0004C1030914D102417350708F4D9C2421733
:101CD000530770F4F901E41BF50BAF018E179F0752
:101CE00008F4AC01241B350B30934D1020934C109D
:101CF00040917C1050917D102091581030915910D6
:101D00002417350708F4B0C24217530770F4B9011D
:101D1000641B750BAB018617970708F4AC01241BF5
:101D2000350B309359102093581040916610509104
:101D3000671020914210309143102417350708F4A2
:101D400087C24217530770F4F901E41BF50BAF018A
:101D50008E179F0708F4AC01241B350B30934310FA
:101D600020934210409172105091731020914E10A8
:101D700030914F102417350708F45DC242175307FE
:101D800070F4B901641B750BAB018617970708F453
:101D9000AC01241B350B30934F1020934E10409113
:101DA0007E1050917F1020915A1030915B102417B3
:101DB000350708F433C24217530770F4F901E41BE6
:101DC000F50BAF018E179F0708F4AC01241B350BF0
:101DD00030935B1020935A10409168105091691015
:101DE00020914410309145102417350708F409C29A
:101DF0004217530770F4B901641B750BAB018617CA
:101E0000970708F4AC01241B350B30934510209341
:101E100044104091741050917510209150103091E1
:101E200051102417350708F4DFC14217530770F427
:101E3000F901E41BF50BAF018E179F0708F4AC0105
:101E4000241B350B3093511020935010409180107B
:101E50005091811020915C1030915D10241735074E
:101E600008F4B5C14217530770F4B901641B750B30
:101E7000AB018617970708F4AC01241B350B309390
:101E80005D1020935C1040916A1050916B1020916E
:101E90004610309147102417350708F48BC14217BC
:101EA000530770F4F901E41BF50BAF018E179F0780
:101EB00008F4AC01241B350B3093471020934610D7
:101EC000409176105091771020915210309153101C
:101ED0002417350708F461C14217530770F4B9019C
:101EE000641B750BAB018617970708F4AC01241B24
:101EF000350B309353102093521040918210509123
:101F0000831020915E1030915F102417350708F47C
:101F100037C14217530770F4F901E41BF50BAF0109
:101F20008E179F0708F4AC01241B350B30935F100C
:101F300020935E1040916C1050916D1020914810CC
:101F4000309149102417350708F40DC14217530783
:101F500070F4B901641B750BAB018617970708F481
:101F6000AC01241B350B309349102093481040914D
:101F700078105091791020915410309155102417F9
:101F8000350708F4E3C04217530770F4F901E41B66
:101F9000F50BAF018E179F0708F4AC01241B350B1E
:101FA0003093551020935410409184105091851017
:101FB00020916010309161102417350708F4B9C0E2
:101FC0004217530770F4B901641B750BAB018617F8
:101FD000970708F4AC01241B350B30936110209354
:101FE000601040916E1050916F1020914A10309106
:101FF0004B102417350708F089C0421B530B841778
:10200000950708F477C1420F531F50934B1040932C
:102010004A1040917A1050917B10209156103091C7
:1020200057102417350708F05EC0421B530B841766
:10203000950708F45DC1420F531F5093571040930A
:102040005610409186105091871020916210309167
:10205000631024173507A8F5421B530B8417950707
:1020600008F444C1420F531F509363104093621011
:1020700008C022FD45CB812F0E942C28812F0E9471
:10208000CD2B2091A8093CCB85E290E10E941E3126
:102090008091C81088700E9450202091A80930CBF0
:1020A0000196A11DB11D0C94A4028091BB10882340
:1020B00009F4CFCDCBCD0E9412370ACB0E948357B3
:1020C000D0CD42175307E8F6F901E41BF50BAF0139
:1020D0008E179F0708F4AC01241B350B3093631057
:1020E00020936210CECF4217530708F0AACFB90150
:1020F000641B750BAB018617970708F4AC01241B12
:10210000350B30935710209356109BCF421753072F
:1021100008F07FCFF901E41BF50BAF018E179F0785
:1021200008F4AC01241B350B30934B1020934A105C
:1021300070CF421B530B8417950708F4D5C0420F8C
:10214000531F50936110409360104BCF421B530BB1
:102150008417950708F4C6C0420F531F50935510BB
:102160004093541021CF421B530B8417950708F45A
:10217000B7C0420F531F5093491040934810F7CEF9
:10218000421B530B8417950708F4A8C0420F531F36
:1021900050935F1040935E10CDCE421B530B8417BB
:1021A000950708F499C0420F531F50935310409362
:1021B0005210A3CE421B530B8417950708F48AC014
:1021C000420F531F509347104093461079CE421B45
:1021D000530B8417950708F47BC0420F531F50938D
:1021E0005D1040935C104FCE421B530B8417950734
:1021F00008F46CC0420F531F50935110409350107D
:1022000025CE421B530B8417950708F45DC0420F7F
:10221000531F5093451040934410FBCD421B530B6A
:102220008417950708F44EC0420F531F50935B105C
:1022300040935A10D1CD421B530B8417950708F4D5
:102240003FC0420F531F50934F1040934E10A7CDE5
:10225000421B530B8417950788F1420F531F50936D
:102260004310409342107ECD421B530B84179507B9
:1022700018F1420F531F509359104093581055CDE9
:10228000421B530B84179507A8F0420F531F50931E
:102290004D1040934C102CCD421B530B84179507C7
:1022A00038F0420F531F509341104093401003CD1C
:1022B000AC01F7CFAC01E9CFAC01DBCFAC01CDCFA6
:1022C000AC01BFCFAC01B0CFAC01A1CFAC0192CF7C
:1022D000AC0183CFAC0174CFAC0165CFAC0156CF5C
:1022E000AC0147CFAC0138CFAC0129CFAC01BACE9D
:1022F000AC01A1CEAC0187CE0E940458B6CCE82F29
:10230000F0E0EE0FFF1FE75DFE4E808191810895A2
:102310008038910538F4FC01E45EFE4F208130E006
:10232000C90108952FEF3FEFFBCFCF93DF93CFE8A5
:10233000D7E1E881F98185EA96E1A1E6B0E08193F1
:102340009193A193B193F983E883DF91CF9108959D
:10235000AFE8B7E1ED91FC9111978191ED93FC937A
:102360000895AFE8B7E1ED91FC9111978191ED935C
:10237000FC930895AFE8B7E1ED91FC91119780814E
:1023800091813296ED93FC930895AFE8B7E1ED911A
:10239000FC91119760817181828193813496ED93D4
:1023A000FC930895E82FE695E695E695F0E0E6596A
:1023B000F54F9081992351F08770E82FF0E0EC5BA6
:1023C000F84F2081292381E009F0089580E00895E5
:1023D000FC01A18DBB27A1950CF4B095AA0FBB1FE2
:1023E000119620853185428553850E943C7764870C
:1023F0007587868797870895CF92DF92EF92FF9235
:10240000CF93603E710581059105F8F4DC01CB01A5
:102410009F5FAF4FBF4FCC24D82EE92EFA2EA0E0FD
:10242000B0E020E030E0EBBEF601C791A40FB51F8D
:10243000CC932F5F3F4FD9018FEFC81AD80AE80A13
:10244000F80A211581E0380771F7CF91FF90EF90DE
:10245000DF90CF900895CF93DF93BC0180E090E0B0
:102460004FE855E1C9DFCFE8D5E1D0939017C0938D
:102470008F171092911789DF653A76418146910551
:1024800051F080E092E0FE019C0111922150304019
:10249000E1F780E004C065DF8093911781E0DF9170
:1024A000CF910895AF92BF92CF92DF92EF92FF92B9
:1024B0000F931F93CF93DF935C01C12CD12C760136
:1024C000C0E0D0E0062F10E00EC0A60141575A4EE2
:1024D000BE016A0D7B1D80E090E08EDF21962FEF1C
:1024E000D21AE20AF20AC017D10778F3CFE8D5E191
:1024F000D0939017C0938F171092911746DF653ACB
:1025000076418146910551F080E092E0FE019C0108
:10251000119221503040E1F780E004C022DF809327
:10252000911781E0DF91CF911F910F91FF90EF9074
:10253000DF90CF90BF90AF9008959C01232F332759
:1025400026952695722F66EC61BB469A522F550F41
:10255000452F46704068207133272260352F330F96
:102560003072322B507C352B272F2695227020621B
:1025700015B848B93BB92EB957E851BB9695879520
:1025800096958795282F61BB469A482F440F382F80
:102590003695221F2227221F642F6670262B206863
:1025A000807199278260942F990F9072982B407CAC
:1025B000942B327015B828B99BB93EB951BB089518
:1025C0000F931F93072F069510E00F771127282FE1
:1025D0002F7740914F124F704069E0919219F0911E
:1025E000931963E070E082E999E109951F910F91D9
:1025F00008950F93262F4F772F778F708068E09183
:102600009219F0919319042F482F63E070E082E94A
:1026100099E109950F910895EF92FF920F931F93FF
:10262000CF93DF93EC01162FF42EE22E8091B71991
:10263000843071F1C230D10509F453C0C330D105E3
:1026400071F1C130D105F9F1C430D105C8F5E0917F
:10265000AE19F091AF19309739F00E2D2F2D412F73
:10266000BE0182E999E10995E091B019F091B119A3
:10267000309739F00E2D2F2D412FBE0182E999E1BF
:102680000995DF91CF911F910F91FF90EF900895E1
:10269000E091AC19F091AD193097F9F6D8CF862FAB
:1026A000807F803A09F48DC008F041C0803809F479
:1026B00056C0803961F6E0919619F091971942C0A1
:1026C000C0E0D0E0C4CF683F50F1E091A819F0918C
:1026D000A919309709F4BBCF612F82E999E10995D7
:1026E000C3CF862F807F803D09F455C0803F09F419
:1026F00040C0803C09F0ABCFE091A019F091A11946
:10270000309709F4A4CF133F09F43FC0113FE9F11A
:10271000612F6F704F2D82E999E10995A5CF663F32
:1027200009F095CFE091AA19F091AB19D2CF803E74
:10273000D9F0803FA9F1803B09F089CFE09194194D
:10274000F0919519309709F482CF123F99F1612FDA
:102750006F702E2D4F2D82E999E1099585CFE0917B
:102760009819F0919919EECFE0919C19F0919D196B
:10277000E9CF633F59F1613F09F069CFE091A619B4
:10278000F091A719309709F462CF4F2D612F82E99C
:1027900099E1099569CFE091A219F091A319B0CF01
:1027A000623F09F054CFE0919E19F0919F19309744
:1027B00009F44DCF2E2D4F2D62EF82E999E1099555
:1027C00053CFE0919A19F0919B19BCCFE091A419D5
:1027D000F091A5193097C9F63ACF86EC81BB469A9D
:1027E00015B880E488B980E58BB980E68EB987E8B2
:1027F00081BB85E08A95F1F70000089586EC81BBE6
:10280000469A15B880E488B980ED8BB980E68EB918
:1028100087E881BB85E08A95F1F70000089586EC92
:1028200081BB469A15B885E488B980E58BB980E606
:102830008EB987E881BB85E08A95F1F7000008959D
:10284000EF92FF920F931F93CF93DF93F82EE62E14
:10285000ABEA8A9FA12D1124A695A695A6951A2FBD
:102860001F5F50E0A83008F06AC08A2F90E0880F00
:10287000991FFC01EE0FFF1FEE0FFF1FEE0FFF1F52
:10288000E80FF91FE40FF51FEE0FFF1FE75DFE4E87
:10289000C081D181183008F476C0FA01EE0FFF1F15
:1028A000EB5DFD4E0190F081E02DDA01AA0FBB1F18
:1028B000AF5FBD4E8D919C919F01281B390BA12FBD
:1028C000B0E017970E9474726E0F7F1F811D911DDB
:1028D0006115710521E08207910508F06AC08B013E
:1028E0000C1B1D0B3E2D20E09BEAF99E912D11241F
:1028F000969596959695892F880F890F880F880F42
:102900006F2D681B862F90E0A0E0B0E07727662748
:10291000620F731F811D911D2CE030E040E050E0FC
:102920000E947D77D8010E943277C80FD91FCE014F
:10293000DF91CF911F910F91FF90EF900895FA01D1
:10294000EE0FFF1FEB5DFD4E0190F081E02DEA01DF
:10295000CC0FDD1FCF5FDD4E888199819F01281B41
:10296000390BB0E017970E9474726E0F7F1F811DA4
:10297000911D6115710521E082079105F8F4EB01C5
:10298000183008F08ACF812F90E0880F991FFC0142
:10299000EE0FFF1FEE0FFF1FEE0FFF1FE80FF91FD7
:1029A000E40FF51FEE0FFF1FE75DFE4E60817181A2
:1029B00096CF6FEF7FEF80E090E091CF6FEF7FEFEA
:1029C00080E090E0EB01DCCFFF920F931F93CF9359
:1029D000DF93F82EABEA8A9FA12D1124A695A69528
:1029E000A6951A2F1F5F462F50E0A83008F063C04D
:1029F0008A2F90E0880F991FFC01EE0FFF1FEE0F4A
:102A0000FF1FEE0FFF1FE80FF91FE40FF51FEE0F7A
:102A1000FF1FE75DFE4EC081D181183008F46FC002
:102A2000FA01EE0FFF1FEB5DFD4E0190F081E02DEE
:102A3000DA01AA0FBB1FAF5FBD4E8D919C919F0124
:102A4000281B390BA12FB0E017970E9474726E0FEC
:102A50007F1F811D911D6115710521E08207910580
:102A600008F063C08B010C1B1D0B9BEAF99E912D96
:102A70001124969596959695892F880F890F880F22
:102A8000880F6F2D681B862F90E0A0E0B0E07727BD
:102A900066272CE030E040E050E00E947D77D801CE
:102AA0000E943277C80FD91FCE01DF91CF911F91BD
:102AB0000F91FF900895FA01EE0FFF1FEB5DFD4EA1
:102AC0000190F081E02DEA01CC0FDD1FCF5FDD4EDC
:102AD000888199819F01281B390BB0E017970E94CC
:102AE00074726E0F7F1F811D911D6115710521E0AC
:102AF00082079105F8F4EB01183008F091CF812F8F
:102B000090E0880F991FFC01EE0FFF1FEE0FFF1FD3
:102B1000EE0FFF1FE80FF91FE40FF51FEE0FFF1F69
:102B2000E75DFE4E608171819DCF6FEF7FEF80E0AA
:102B300090E098CF6FEF7FEF80E090E0EB01DCCF8B
:102B4000EF92FF920F931F93CF93DF93ECE8F0E1A6
:102B50001192119280E1E03BF807D1F71092B11089
:102B60001092B0108091D110823009F4F4C08330FB
:102B700009F4D7C0813039F0DF91CF911F910F91C7
:102B8000FF90EF900895C0918A10D0918B10109112
:102B9000D010110F60E0812F17DF7C0180E0AFDBE8
:102BA0009701281B390BDE010E94747290938D10DF
:102BB00080938C1061E0812F07DF7C0181E09FDB37
:102BC0009701281B390BDE010E94747290938F10BD
:102BD00080938E1062E0812FF7DE7C0182E08FDB34
:102BE0009701281B390BDE010E947472909391109B
:102BF0008093901063E0812FE7DE7C0183E07FDB30
:102C00009701281B390BDE010E9474729093931078
:102C10008093921064E0812FD7DE7C0184E06FDB2B
:102C20009701281B390BDE010E9474729093951056
:102C30008093941065E0812FC7DE7C0185E05FDB27
:102C40009701281B390BDE010E9474729093971034
:102C50008093961066E0812FB7DE7C0186E04FDB23
:102C60009701281B390BDE010E9474729093991012
:102C70008093981067E0812FA7DE7C0187E03FDB1F
:102C80009701281B390BDE010E94747290939B10F0
:102C900080939A1068E0812F97DE7C0188E02FDB1B
:102CA0009701281B390BDE010E94747290939D10CE
:102CB00080939C1069E0812F87DE7C0189E01FDB17
:102CC0009701281B390BDE010E94747290939F10AC
:102CD00080939E106AE0812F77DE7C018AE00FDB13
:102CE0009701281B390BDE010E9474729093A1108A
:102CF0008093A0106BE0812F67DE8C018BE0FFDA00
:102D00009801281B390BDE010E9474729093A31066
:102D10008093A210DF91CF911F910F91FF90EF90C0
:102D200008952091D010A0918A10B0918B1030E0BE
:102D30000E9474729B01AC01A5E5B5E10E94327757
:102D40009093B1108093B010DF91CF911F910F91AC
:102D5000FF90EF9008952091D010A0918A10B0912B
:102D60008B1030E00E9474729B01AC01A5E5B5E1C7
:102D70000E943277BB2797FDB095AB2F9093A5109B
:102D80008093A4109093A7108093A6109093A910FD
:102D90008093A8109093AB108093AA109093AD10DD
:102DA0008093AC109093AF108093AE10DF91CF91D1
:102DB0001F910F91FF90EF90089521E030E002C045
:102DC000220F331F8A95E2F7D901A095B095809123
:102DD000290A90912A0A8A239B2390932A0A809396
:102DE000290AE0912B0AF0912C0AEA23FB23F093A5
:102DF0002C0AE0932B0A662371F0822B932B90937D
:102E00002A0A8093290A442331F02E2B3F2B30933A
:102E10002C0A20932B0A089521E030E002C0220FF3
:102E2000331F8A95E2F7F901E095F0958091290A20
:102E300090912A0A8E239F2390932A0A8093290A2D
:102E400040912B0A50912C0A4E235F2350932C0A59
:102E500040932B0A662331F0282B392B30932A0A12
:102E60002093290A0895CF93DF931F92CDB7DEB741
:102E700090E069834DDA80932D0A6981862F90E076
:102E800047DA80932E0A0F90DF91CF91089524E6C0
:102E900030E040E050E00E9456772AE030E040E029
:102EA00050E00E945677605D822F805DDCCF21E08C
:102EB0002093330A009721F48FEF8093320A08950C
:102EC0001092320ABC0189E39AE00E94A57662EA78
:102ED00079E088E39AE00C949A761092820B109233
:102EE000840B8FEF8093810B8093800B10927A0B71
:102EF00010927B0B10927C0B10927D0B10928D0B1D
:102F000010928F0B80938C0B80938B0B1092850B00
:102F10001092860B1092870B1092880B1092980BD0
:102F200010929A0B8093970B8093960B1092900BB4
:102F30001092910B1092920B1092930B1092A30B84
:102F40001092A50B8093A20B8093A10B10929B0B68
:102F500010929C0B10929D0B10929E0B1092AE0B38
:102F60001092B00B8093AD0B8093AC0B1092A60B1C
:102F70001092A70B1092A80B1092A90B1092B90BEC
:102F80001092BB0B8093B80B8093B70B1092B10BD0
:102F90001092B20B1092B30B1092B40B08951F93C2
:102FA000CF93DF93D82FC92F162F8091C40B6813AE
:102FB0000AC046E050E06CEB7BE08D2F0E946C76FF
:102FC000009711F424C089DF1093C40B46E050E051
:102FD0006FEF70E08CEB9BE00E949376ED2FFC2F5F
:102FE000ACEBBBE080E091919F3F19F4882341F066
:102FF00004C09D938F5F8630B1F71092BC0B07C061
:1030000086E0ECEBFBE0DF011D928A95E9F7DF91AA
:10301000CF911F910895CF93DF9300D000D000D0BF
:10302000CDB7DEB786E0E2EDF6E0DE011196019065
:103030000D928A95E1F760E0CE010196B0DF269609
:103040000FB6F894DEBF0FBECDBFDF91CF910895CC
:10305000EF92FF920F931F93CF93DF9300D000D096
:1030600000D0CDB7DEB746E050E06FEF70E08E01E4
:103070000F5F1F4FC8010E949376F12CE12C8F2D1A
:1030800091D98823A9F0F801EE0DF11DE7FCFA951E
:10309000F082EE2021F089819F2D981B9083E3948C
:1030A00085E08E152CF461E0CE01019678DF05C035
:1030B000F39490E8F912E3CFF6CF26960FB6F89482
:1030C000DEBF0FBECDBFDF91CF911F910F91FF905B
:1030D000EF90089586E0ECEBFBE0A3E1B1E1019015
:1030E0000D928A95E1F7089555E05A95F1F70000A1
:1030F00036EC31BB469A80EE87B997E09AB98DB924
:1031000015B880E488B91BB880E28EB987E481BB2A
:1031100082E08A95F1F700C026B199B18CB131BB3C
:10312000479A37EE37B937EF3AB932EE3DB9422F09
:103130004695437050E8259F90011124422B292F7A
:103140002071422B292F269526952870422B969583
:103150009076492B90E0880F991F84709927842BD3
:1031600008951092CD0B1092CE0B1092CF0B1092AF
:10317000D00B8FEF8093320C80931C118FEF9FEF59
:10318000DC0180931D1190931E11A0931F11B09329
:10319000201108958F929F92AF92BF92CF92DF92AB
:1031A000EF92FF920F931F934A015B01680179012F
:1031B000BC0180E090E00E94D5739058A501940175
:1031C0000E9410730E947D73A70196010E943575BD
:1031D0000E94A973CB011F910F91FF90EF90DF9098
:1031E000CF90BF90AF909F908F9008950F931F93B3
:1031F0008091091190910A1100E010E42CE135E46E
:1032000040E050E86BE376E480959095C3DF9093BF
:10321000BA108093B9101F910F91089580916A0A96
:1032200090916B0A892B90916C0A892B90916D0A71
:10323000892B90916E0A892B90916F0A892B90911E
:10324000700A892B9091710A892B9091720A892BAF
:103250009091730A892B9091740A892B9091750A29
:10326000892B9091760A892B9091770A892B9091DE
:10327000780A892B9091790A982B21E009F420E0B3
:103280008091980B90918D0B892B9091A30B892B9A
:103290009091AE0B892B9091820B892B9091B90B59
:1032A000892B59F48FEF9FEFDC018093B510909339
:1032B000B610A093B710B093B8102223A1F080915C
:1032C0007E14811110C08091A4099091A509A0914C
:1032D000A609B091A7098093B5109093B610A0935A
:1032E000B710B093B81020937E1408950F931F93D6
:1032F000CF93DF93EC018A899B8900E01FEF2FE7D2
:1033000037E440E050E26BE476E48095909542DF4C
:10331000AC0160E070E0088C04C0440F551F661FCC
:10332000771F0A94D2F7488759876A877B87DF918E
:10333000CF911F910F910895CF93DF93EC01888D6A
:10334000681739F0688FCE01D1DFCE01DF91CF91C0
:103350003FC8DF91CF910895CF93DF93EC01598B54
:10336000488B8A899B896817790741F07B8B6A8B28
:10337000CE01BCDFCE01DF91CF912AC8DF91CF9182
:103380000895AC01AA27469FB12D579F9001749FC5
:10339000B00D211D3A1F569FB00D211D3A1F11245B
:1033A000C9010895A72F8F3FF9F0282F2F5F30E034
:1033B000220F331FE82FF0E0EE0FFF1FE40FF51F81
:1033C00060817181FA01E20FF31F80819181861B78
:1033D000970B892F9927A89F9001A99F300D112441
:1033E000260F371FC90108952EEF31E0E3CF8FBFBD
:1033F0000895F89481E008958FBF0895EFE8F7E10C
:10340000A081B1818C938081918101969183808389
:103410000895EFE8F7E1A081B1818C9380819181DB
:103420000196918380830895CF93DF93EFE8F5E1D0
:1034300080E092E0DF019C011D9221503040E1F7D5
:10344000F0939017E0938F17C1E9D7E184E0888368
:103450000E9495118881DF91CF91DBCFAFE8B7E172
:10346000ED91FC91119781939193ED93FC930895C5
:10347000F89481E00895CF93DF93DFB7F9DF8823D5
:1034800009F448C08CE5EDEBF0E1DF011D928A956F
:10349000E9F720E030E83093DC102093DB10309324
:1034A000E2102093E1104FEF5FEF5093E61040934E
:1034B000E5103093EA102093E9105093F6104093F2
:1034C000F5105093DA104093D910309306112093E1
:1034D0000511309312112093111130930C11209388
:1034E0000B1185E08093D010C1E0C093D110C09340
:1034F000CA10C093CC10C093D21082E08093D31036
:1035000046E050E06FEF70E083E191E10E94937636
:10351000C093BD108D2FDF91CF916ECFCF92DF92F0
:10352000EF92FF920F931F93CF93DF931F92CDB72C
:10353000DEB7F82E8B01EFB699839ADF9981882345
:10354000F1F08F2D0E942B12EFE8F6E16F018FE86A
:1035500095E1C81AD90A82918823C1F3F092921793
:1035600023E937E1EFE8F5E1A601BF01C9010E94B7
:1035700079769FEFC91AD90AF801D182C0828E2DBF
:103580000F90DF91CF911F910F91FF90EF90DF90FF
:10359000CF9032CF0F931F93CF93DF93182FEB0170
:1035A0000FB766DF811104C0802F26DF81E016C0CF
:1035B000812F992787FD909588539F4F0E942B124A
:1035C000811108C0802F18DF80E008C00E94B1116F
:1035D000899301C011E8115039F3F8CFDF91CF91F1
:1035E0001F910F9108951F93CF93DF93EC011FB7A5
:1035F0003FDF811104C0812FFFDEC1E05EC0CE013C
:103600000E942B12882309F455C01092CF101092FB
:1036100013119FEF9093141190931511909316111D
:10362000909317119093181180919117811102C0F6
:10363000C1E041C0C0E00E94BA11EC2FF0E0EE0FF3
:10364000FF1FE952FF4E91838083CF5FC93199F705
:10365000D0E00E94B111ED2FF0E0E354FF4E8083E3
:10366000DF5FD731B1F78091CD108093D610809174
:1036700091178230E8F20E94BA11EC2FF0E0EE0FC1
:10368000FF1FE952FF4E91838083CF5FCE3199F7C0
:103690000E94B1118093D4100E94B1118093D51073
:1036A000C3E1D1E10E94B111899381E1C931D80709
:1036B000C9F7A1CFC0E0812F9FDE8C2FDF91CF9182
:1036C0001F9108951F93CF93DF93182FDFB7D0DE9C
:1036D000882309F448C08CE5EDEBF0E1DF011D9291
:1036E0008A95E9F720E030E83093DC102093DB1076
:1036F0003093E2102093E1104FEF5FEF5093E6100C
:103700004093E5103093EA102093E9105093F6109F
:103710004093F5105093DA104093D910309306116E
:1037200020930511309312112093111130930C1135
:1037300020930B1185E08093D010C1E0C093D1108D
:10374000C093CA10C093CC10C093D21082E0809373
:10375000D31046E050E06FEF70E083E191E10E940A
:103760009376111105C08D2FDF91CF911F9144CE1B
:10377000C093BD10F8CFFF920F931F93CF93DF93A9
:10378000FFB676DE811104C08F2D36DEC1E064C045
:1037900062E08CED90E00E945212882309F459C037
:1037A0008FE38093501210925212809191178823C8
:1037B00019F0C9E2D1E113C0C1E04CC00E94BA11B6
:1037C000FE01E00FF11F918380830E5F1F4F0432D3
:1037D0001105A1F7A49682E1C934D80719F000E0D9
:1037E00010E0ECCF0E94BA1190934C1280934B12D0
:1037F0000E94BA1190934A12809349120E94B1110B
:1038000080934D120E94A81180934E1280919117BF
:10381000823090F20E94B111809350120E94A81140
:1038200080934F1280919117833030F20E94B11132
:103830008093511280919117843008F4BDCF0E947B
:10384000A8118093521280919117853008F09CCF77
:10385000B3CFC0E08F2DD0DD8C2FDF91CF911F91A2
:103860000F91FF900895833061F0893151F08F31CD
:1038700041F091E08F3019F0803109F090E0892F0C
:10388000089591E0892F0895BF92CF92DF92EF9231
:10389000FF920F931F93CF93DF9310927F14C0E09A
:1038A000D0E0B4E2BB2E0CC00193119313870287C2
:1038B000778B668B8150C1F72196C830D10591F185
:1038C0006C2F772767FD7095872F972F0E94D773EE
:1038D0006B017C012DEB3EE140EC55E40E94357517
:1038E00020E030E44CE955E40E94A9720E94A973DB
:1038F0008B0121E33CE043E455E4C701B6010E949B
:10390000357520E030E44CE156E40E94A9720E9433
:10391000A973BC9EF001BD9EF00D1124E75DFE4E23
:1039200086E0C2CFDF91CF911F910F91FF90EF9072
:10393000DF90CF90BF900895CF93CFB799DD8823C4
:10394000B1F02AE231E0E9E2F1E1DF01C9011D92C3
:103950000197E9F720E030E830934A1220934912AA
:103960008FEF80934E128FE3809350128DDF8C2F58
:10397000CF9142CD8FBF0895E7E7F4E180818F5F5B
:1039800080830895F89481E008958C3F59F0813840
:10399000C1F19091030D933039F19091040D933062
:1039A000B1F008958091030D8330E9F18091040D09
:1039B0008330B9F7E091060EEE2399F3E150E093DE
:1039C000060EF0E0EB57F24F8FEF80830895909151
:1039D000060E97FDE6CFE92FF0E0EB57F24F80831C
:1039E0009F5F9093060E08959091050E97FDD5CF99
:1039F000E92FF0E0ED5FF24F82839F5F9093050E19
:103A0000CCCF8091030D8330E1F08091040D8330A1
:103A100041F61092060E40E850E06FEF70E085E846
:103A20009DE00C949376E091050EEE2309F4BECF51
:103A3000E150E093050EF0E0ED5FF24F8FEF8283EF
:103A4000B5CF1092050E40E850E06FEF70E085E0D2
:103A50009DE00E949376D9CFCF93DF93EC016A8FDC
:103A600088819981AA81BB81892B8A2B8B2B51F468
:103A70006091A4097091A5098091A6099091A70968
:103A80000E94FA760E94F776688379838A839B8303
:103A9000DF91CF9108950F931F93CF93DF93FC0194
:103AA0008BE1DF011D928A95E9F707E712E160E0FB
:103AB00070E080E89FEBC0E0D0E01BC0BE0188272B
:103AC00077FD8095982F0E94D77321E830E840E871
:103AD0005BE30E94357520E030E040E85FE30E9440
:103AE000A9722BED3FE049E450E40E9435750E9435
:103AF0000D7320E030E040E85FE30E94A97220E00F
:103B00003FEF4FEF56E40E9435750E94A973F8010C
:103B1000619371938F012196C115F1E0DF0771F672
:103B2000DF91CF911F910F9108950F931F93082F4D
:103B300010E0F801E45BFE4F8491F801E45BFD4F77
:103B40009491F801E45BFC4F049110E020E030E038
:103B5000980111270027192B082BB801C9011F91C3
:103B60000F91089510922D0A10922E0A10922A0A8F
:103B70001092290A10922C0A10922B0A1092330AE2
:103B8000089580915112813009F00895683FE9F05D
:103B90006A3FD9F78FEF9FEF9093080E8093070E3F
:103BA0002FEF3FE730930F0E20930E0E90930A0EE7
:103BB0008093090E9093F90C8093F80C3093FE0CCF
:103BC0002093FD0C1092BB1008958091BB108F5F65
:103BD0008093BB1008951F93CF93DF93D82FD86F96
:103BE00086958695869528E030E001C0220F8A955B
:103BF000EAF7C22FC095CD231FB7F894CB010E94DE
:103C00009D12E6ECE1BB469A3D2F330F36703164CE
:103C10009D2F96959270906A71E075B938B9A0EFB2
:103C2000ABB99EB967E861BB85E08A95F1F7000002
:103C3000E1BB469AFC2FFF0F4C2F46955C2F551F7A
:103C40005527551F8F2F8670582B5064C0718F2FAA
:103C5000880F80728C2BF07C8F2B4270406A75B974
:103C600058B98BB94EB961BB8AE08A95F1F700C0AB
:103C7000E1BB469A75B938B9ABB99EB961BB8AE068
:103C80008A95F1F700C01FBFDF91CF911F91089572
:103C90000F931F93CF93DF9380E492E4AFE0B0E003
:103CA00036EC20EE17E0D1E0C0E4F0E2E7E477EE96
:103CB00067EF52EE04C00097A105B10521F131BBB9
:103CC000469A27B91AB92DB9D5B9C8B91BB8FEB9E2
:103CD000E1BB42E04A95F1F700C046B109B10CB131
:103CE00031BB479A77B96AB95DB90197A109B109A2
:103CF00042FFE1CF892B8A2B8B2B29F0DF91CF91CB
:103D00001F910F910895DF91CF911F910F9134CEA4
:103D10001F93CF93DF9380E492E4AFE0B0E036EC02
:103D200020EE17E0D1E0C0E4F0E2E7E477EE67EFE1
:103D300052EE04C00097A105B10519F131BB469AB6
:103D400027B91AB92DB9D5B9C8B91BB8FEB9E1BBA5
:103D500042E04A95F1F700C046B149B14CB131BBE0
:103D6000479A77B96AB95DB90197A109B10941FDCF
:103D7000E1CF892B8A2B8B2B21F0DF91CF911F91E3
:103D80000895DF91CF911F91F7CD1F93CF93DF93CC
:103D900080E492E4AFE0B0E036EC20EE17E0D1E052
:103DA000C0E4F0E2E7E477EE67EF52EE04C000977C
:103DB000A105B10519F131BB469A27B91AB92DB938
:103DC000D5B9C8B91BB8FEB9E1BB42E04A95F1F7D5
:103DD00000C046B149B14CB131BB479A77B96AB915
:103DE0005DB90197A109B10941FFE1CF892B8A2B68
:103DF0008B2B21F0DF91CF911F910895DF91CF910F
:103E00001F91BACD2F923F924F925F926F927F9205
:103E10008F929F92AF92BF92CF92DF92EF92FF92DA
:103E20000F931F93CF93DF93CDB7DEB728970FB6CD
:103E3000F894DEBF0FBECDBF8D832FB72E83F894CD
:103E4000282F259525952595259580E290E002C09F
:103E5000959587952A95E2F79D819F70982B86EC22
:103E600081BB469A492F440F292F2695392F331F9E
:103E70003327331F842F8670382B30649071842F42
:103E8000880F8072892B407C842B2270206491E003
:103E900095B938B98BB92EB987E881BB35E03A9529
:103EA000F1F700002D81332727FD30953A832983D0
:103EB000F901E852F94FC080D12C80E190E08C19D3
:103EC0009D092FEF3FEF082E02C0369527950A94E3
:103ED000E2F702C0220F331F8A95E2F73C832B835F
:103EE000E12CF12C00E010E82FEF3FEF56ECA52E6F
:103EF00060EEB62E77E0272E33243394E0E44E2E86
:103F0000F0E25F2EA7E46A2EB7EE7B2E87EF882EB5
:103F100092EE992E0AC0200F311F16950795AFEF2C
:103F2000EA1AFA0ACE14DF0434F1C9012F83388764
:103F30000E949D1282E08A95F1F700C0A1BA469ACC
:103F4000B7B82AB8BDB835B848B81BB85EB861BABA
:103F500092E09A95F1F700C086B189B19CB1A1BAFF
:103F6000479A77B88AB89DB82F81388585FDD3CF19
:103F7000201B310BD2CF86EC81BB469A81E085B9FC
:103F800087E488B980EF8BB982E48EB987E881BB7A
:103F9000B5E0BA95F1F70000EB81FC812E233F23B9
:103FA000E981FA81EE0FFF1FEF50F44F3183208338
:103FB000232F3327E981FA81E353F44F848190E082
:103FC000821B930B97FD1DC0059704F53E813FBFF3
:103FD00028960FB6F894DEBF0FBECDBFDF91CF910C
:103FE0001F910F91FF90EF90DF90CF90BF90AF9017
:103FF0009F908F907F906F905F904F903F902F9009
:104000000895919581959109059704F3248381E0A2
:1040100090E0A0E0B0E00D8004C0880F991FAA1FB7
:10402000BB1F0A94D2F74091CD0B5091CE0B6091FB
:10403000CF0B7091D00B842B952BA62BB72B809395
:10404000CD0B9093CE0BA093CF0BB093D00B2D81C3
:104050002093320CBBCF9091030D933021F09091BF
:10406000040D9330E1F48130C1F028F0823079F012
:104070008330A9F406C087EC98E00E94571781E8C6
:104080000DC08DEC98E00E9457178EEF07C082EDAF
:1040900098E00E9457178DEF01C08CEF76CC089501
:1040A000CF92DF92EF92FF92CF939091BF10209129
:1040B000C210992309F494C04091DB105091DC1098
:1040C00060E070E0222309F485C0C090E110D09038
:1040D000E210E12CF12C8823A1F0992381F080914A
:1040E000C81085FD0CC08091201090912110AA2746
:1040F00097FDA095BA2F480F591F6A1F7B1F2111EA
:1041000074C0CFB7F8944115510521E062077105DD
:1041100024F04FEF5FEF60E070E0DB01CA0177FD54
:1041200079C00E949D1246EC41BB469A31E035B9F8
:1041300021E428B950EF5BB992EA9EB987E881BBC8
:1041400000C000C041BB469A35B928B960E76BB9D9
:104150009EB981BB00C000C041BB469A35B928B9A1
:104160005BB99EB981BBD701C601C114D10421E05E
:10417000E206F10424F08FEF9FEFA0E0B0E0B7FD7E
:1041800045C00E949D1246EC41BB469A31E035B9CC
:1041900027E428B950EF5BB992EA9EB987E881BB62
:1041A00000C000C041BB469A35B928B960E76BB979
:1041B0009EB981BB00C000C041BB469A35B928B941
:1041C0005BB99EB981BBCFBFCF91FF90EF90DF90DD
:1041D000CF900895CC24CA94DC2CE12CF12C7BCF19
:1041E0004FEF5FEF60E070E06DCF8091C81084FD0D
:1041F00088CF8091201090912110AA2797FDA0953B
:10420000BA2FC80ED91EEA1EFB1E7BCF80E090E0BD
:10421000DC01B7CF80E090E0DC0183CF6095E9E777
:10422000F4E19081982B6923608386EC81BB469AE8
:10423000362F330F962F9695262F221F2227221FC7
:10424000832F8670282B20646071832F880F8072E3
:10425000862B307C832B9270906C31E035B928B975
:104260008BB99EB987E881BB85E08A95F1F700009C
:10427000E8E7F4E180818F5F8083089580959091D5
:10428000791489238093791496EC91BB469A482F30
:10429000440F282F2695382F331F3327331F942F91
:1042A0009670392B30648071942F990F9072982BEF
:1042B000407C942B2270206C81E085B938B99BB981
:1042C0002EB987E881BB85E08A95F1F700008091DF
:1042D00078148F5F809378140895809179148061A9
:1042E0008093791496EC91BB469A382F330F982F10
:1042F0009695282F221F2227221F832F8670282B76
:104300002064832F880F80728061307C832B9270B1
:10431000906C31E035B928B98BB99EB987E881BB7B
:1043200085E08A95F1F70000809178148F5F809383
:10433000781408958091791481608F7E8093791428
:1043400096EC91BB469A382F330F982F9695881F7D
:104350008827881F232F2670822B8064232F220F0B
:104360002072307C232B9270906C31E035B988B983
:104370002BB99EB987E881BB85E08A95F1F70000EB
:10438000809178148F5F8093781408953091791418
:10439000832F88608E7F8093791496EC91BB469A28
:1043A000282F220F982F9695881F8827881F422F25
:1043B0004670842B8064207C30713062232B927095
:1043C000906C31E035B988B92BB99EB987E881BBCB
:1043D00085E08A95F1F70000809178148F5F8093D3
:1043E0007814089540917914242F22602093791431
:1043F00086EC81BB469A322F330F922F9695221F5F
:104400002227221F832F8670282B2064832F880F5A
:1044100080724071842B307C832B9270906C31E0E1
:1044200035B928B98BB99EB987E881BB85E08A95F3
:10443000F1F70000809178148F5F809378140895CD
:104440004FB7F8948091770C96EC91BB469A382F31
:10445000330F982F9695232F26702064582F551FC1
:104460005527551F252B582F5071832F880F807289
:10447000852B307C832B9270906631E035B928B95A
:104480008BB99EB987E881BB4FBF08959091770C97
:10449000977F811198609093770CD2CF9091770C91
:1044A0009E7F811191609093770CCACF9091770C89
:1044B0009B7F811194609093770CC2CF9091770C81
:1044C0009F7E811190619093770CBACFE82FF0E036
:1044D000EE0FFF1FE95CF34F718360830895E82FAF
:1044E000F0E0EE0FFF1FE95CF34F11821082089598
:1044F000E82FF0E0EE0FFF1FE95CF34F86EC94E944
:10450000918380830895E82FF0E0EE0FFF1FE95CB0
:10451000F34F83E094E6918380830895E82FF0E0E1
:10452000EE0FFF1FE95CF34F82EA9BEB91838083E0
:104530000895E82FF0E0EE0FFF1FE95CF34F83E9E9
:104540009BE5918380830895E82FF0E0EE0FFF1F35
:10455000E95CF34F8FEF9FEF91838083089560FDB7
:1045600005C090936C0C80936B0C0895BC018AE19C
:1045700032CB60FD05C090936A0C8093690C08955E
:10458000BC0189E128CB60FD05C09093740C809339
:10459000730C0895BC018EE11ECBCF93DF93209165
:1045A0004E1227FD0BC06F7070E0332727FD30954A
:1045B0006217730719F0DF91CF91089580914D1222
:1045C0008823C9F34436B8F7C42FD0E080914B124A
:1045D00090914C12C817D90771F3CE0104D88823E3
:1045E00051F3D0934C12C0934B1210921B110E94A6
:1045F000BE55DF91CF910C94804E0F931F93CF93B4
:10460000DF93CDB7DEB7E6970FB6F894DEBF0FBEE7
:10461000CDBF92E2E8EFF6E0DE01119601900D9237
:104620009A95E1F7813019F580914E12992787FD0F
:104630009095029661E170E00E949572815080939E
:104640004E120E94BE5580914E12E1E0F0E0EC0F58
:10465000FD1F92E08902E00DF11D1124628173813A
:10466000CE0183960E94A57666ED78E023C0823065
:1046700051F580914F12992787FD9095019660E141
:1046800070E00E94957280934F120E94BE558091F7
:104690004F12E1E0F0E0EC0FFD1F92E08902E00D27
:1046A000F11D112462817381CE0183960E94A5764B
:1046B0006CED78E0CE0183960E949A76CE018396C7
:1046C0000E945717CDC0833089F48091110C9091CE
:1046D000120C90934A12809349120E94BE550E9478
:1046E0003E3382EE98E00E945717BAC08430D1F46E
:1046F00080917612992787FD9095019666E070E08B
:104700000E949572182F8093761264EF78E0CE01A4
:1047100083960E94A5761F5C1DA3CE0183960E94FE
:1047200057179EC08530E9F510915012009176120E
:10473000212F30E0002E02C0359527950A94E2F72C
:1047400020FF12C068EF78E0CE0183960E94A57624
:1047500021E030E0002E01C0220F0A94EAF72095F4
:1047600021232093501210C060E079E0CE0183969F
:104770000E94A57681E090E0002E01C0880F0A9487
:10478000EAF7812B809350120E94BE5580917612D9
:104790008F5C8DA3CE0183960E9457170E94804E96
:1047A0005FC0863059F40E941A6487E099E00E9445
:1047B00057170E94984F0E94804E52C0883029F5AA
:1047C00080915112992787FD9095019663E070E0E2
:1047D0000E949572809351120E94BE558091511291
:1047E000813049F0823061F0811138C086E199E072
:1047F0000E94571733C08FE199E00E9457172EC0CF
:1048000089E299E00E94571729C08930E1F480912C
:104810005212992787FD9095019662E070E00E9400
:104820009572809352120E94BE5580915212882335
:1048300029F083E399E00E94571710C08DE399E0B7
:104840000E9457170BC081110BC00E943B1A81E0D8
:1048500080931B1188E499E00E9457170E94804EB4
:10486000E6960FB6F894DEBF0FBECDBFDF91CF91B5
:104870001F910F9108951F93CF93DF9300D0CDB771
:10488000DEB780914E1287FD0EC06F7070E09927E1
:1048900087FD90956817790731F00F900F90DF91A1
:1048A000CF911F910895411138C030914D1222309F
:1048B00008F47DC0332389F3842F80518E31B0F109
:1048C000842F80558E3108F04CC0E42FF0E0EE0FBD
:1048D000FF1FE95CFF4E4081518130E0CA0196958F
:1048E0008795969587958F77992782179307A9F2D1
:1048F000CA0188279E7F220F331F220F331F822B6E
:10490000932B9183808381E080931B110F900F90F4
:10491000DF91CF911F910C94804E413009F460C01B
:10492000403409F46CC030914D12C4CFE42FF0E054
:10493000EE0FFF1FE954FF4E8081918130E0AC0102
:10494000452F552746954217530709F4A6CF8C7F6C
:104950009170322F2227330F822B932B91838083E8
:10496000D2CF842F80538A3108F097CFE42FF0E024
:10497000F09730E0DF01A65DB84F4C9187E090E002
:10498000841B910902C0359527958A95E2F7822FFD
:10499000DF01A354BF4E9C91291709F44BC02C93FF
:1049A00011E07197C9F1112309F477CFACCF632FD0
:1049B000772767FD7095822F90E06817790709F4D3
:1049C00079CF20934D122A8349830E94BE550E94BD
:1049D000984F0E94804E30914D122A8149816ACFB2
:1049E000822F880F10928810809389102A83498320
:1049F0000E94203230914D122A8149815BCF2111D2
:104A000007C00F900F90DF91CF911F910C94473EFC
:104A100081E08093C50B41CF882371F00E94281854
:104A200086E0ECEBFBE0A3E1B1E101900D928A9509
:104A3000E1F7B9CF10E0B5CF0E940B18F1CF20916C
:104A40008F17309190172F5835412130324038F46C
:104A5000BC0180E090E04FE855E10C949555089535
:104A6000FF920F931F93CF93DF938C01FFB60E94A9
:104A7000381A882309F43FC00E94141AC0E0EC2FB2
:104A8000F0E0EE0FFF1FE952FF4E808191810E94FE
:104A90002E1ACF5FC93199F78091D6108093CD102F
:104AA000D0E0ED2FF0E0E354FF4E80810E94091A20
:104AB000DF5FD731B1F7EC2FF0E0EE0FFF1FE952C7
:104AC000FF4E808191810E942E1ACF5FCE3199F7DF
:104AD0008091D4100E94091A8091D5100E94091A61
:104AE000C3E1D1E189910E94091A81E1C931D80756
:104AF000C9F7C801A4DF8F2DDF91CF911F910F91CE
:104B0000FF900C94FC19609127118A3030F56813DE
:104B100005C0862F865F8093271114C0462F552726
:104B200047FD5095282F332727FD3095265F3F4FAF
:104B30004217530729F4862F8A508093271102C009
:104B4000809327118FEF9FEFDC01809323119093C7
:104B50002411A0932511B093261180912711861757
:104B600049F00E94723480914D12811103C08BED87
:104B700090E076CF0895FF920F931F93CF93DF932A
:104B8000F82EEB010FB70E94381A882381F00E949B
:104B9000141A11E803C089910E94091A1150D9F71B
:104BA0008F2D992787FD909588539F4F48DF802F41
:104BB000DF91CF911F910F91FF900C94FC19BF9240
:104BC000CF92DF92EF92FF920F931F93CF93DF93D9
:104BD000B62E082F112707FD1095E801CD5FD24FA3
:104BE0009881691761F0992329F1933009F44FC036
:104BF000923009F45EC082E0B81659F0B882DF91B5
:104C0000CF911F910F91FF90EF90DF90CF90BF90C9
:104C10000895F801EE0FFF1FE95FF14F8FEF9FEF4F
:104C2000918380838FEF9FE790930F0E80930E0EFA
:104C3000B882E5CF7801F694FE2CEE24F794E79441
:104C400045E0C42E4DE0D42ECE0CDF1CB6010E94F0
:104C5000CA1A882331F1FE01EE5FFE4F80E880839F
:104C6000F701EC57F24F80818F3F29F6DE01AE5FEE
:104C7000BE4F8FE78C93F701EC57F24F8EE792917E
:104C80009F3F09F0B8CF8C938150C8F7B4CFB801DB
:104C90007695762F6627779567956B5F724F6BDFFA
:104CA000AACF40E850E06FEF70E0C6010E94937613
:104CB000D2CF60E00E9479489ECFCF93DF93DFB7D9
:104CC0000E94C21C882309F45BC00E94441C0E94FD
:104CD0000F5660E080E090E056DCC2E18C2FFFDBF5
:104CE0008C2F865031DCCF5FC831C1F760E08FEF89
:104CF0009FEF3FDC60E080E090E031DCC0E06C2FB3
:104D00006E5E8C2F0E945D3DCF5FC630C1F760E0C4
:104D100080E090E02EDC60E08FEF9FEF20DC6C2FD6
:104D2000645F8C2F0E945D3DCF5FCC30C1F760E0A7
:104D300080E090E01EDC60E080E090E010DC60E06D
:104D40008FEF9FEF20DC8C2FCADBCF5FC231D9F70A
:104D5000CCE06C2F6A5F8C2F0E945D3DCF5FC2312B
:104D6000C1F760E080E090E00EDC8C2FB8DBCF5F15
:104D7000C831D9F70E94FD390E94B21D0E94BE556C
:104D80008D2FDF91CF910C94BA1C0F931F93CF936B
:104D9000DF93182FEB010E94194F209709F04BC1A8
:104DA000123191F58ADF30C081E0113109F080E0E5
:104DB000E82FF0E0ED5FF24F9081913001F128F0A3
:104DC000923001F1933001F512C090911911923097
:104DD00031F463E0F4DE85E08093191115C0909101
:104DE0002811992311F061E00EC062E00CC091E03F
:104DF00020914D12211101C090E09093191162E0B1
:104E0000DEDE02C060E0DBDE8091030D811104C0B4
:104E10008091040D8823E1F0209709F443C01D30F0
:104E200009F00FC181E09091040D911101C080E063
:104E3000E82FF0E0ED5FF24F9081933011F462E0E3
:104E400001C063E0BCDE85E08093191101E02BC056
:104E500000E0209741F19091020D1A3049F481E071
:104E6000913009F480E06091010D0E9424481BC03C
:104E70001B30C9F4923081F018F09330A1F406C0D1
:104E80006091010D83E00E9424480DC06091010DE6
:104E900082E00E94244807C06091010D80E00E94DA
:104EA000244801C000E08091020D882379F020970A
:104EB00009F4CDC01D3009F0C6C061E09091010D2C
:104EC000911160E00E94244801E02DC0173289F45E
:104ED000209719F00E94281802C00E940B180E9407
:104EE0006A1880914D1281111BC08BED90E0B8DDE6
:104EF00017C0209789F01E3079F480914D128823D5
:104F000091F080911911882319F0109219110BC09A
:104F100081E08093191107C01F3011F4C09328114C
:104F2000CD2B09F482C08091B80980FF03C0812F86
:104F300064DB7BC01C30A9F480914D12811103C049
:104F40008BED90E08DDD81E090914D12911180E02C
:104F500080934D120E94BE550E94984F0E94804E31
:104F600064C0909119111D30B1F4011114C0923038
:104F700011F0943061F481E090914D12911101C0D3
:104F800080E0809319118FEF80931A114EC082E058
:104F9000809319114AC0953019F4812F5CD845C00F
:104FA000911103C0812FAFDD40C01A3008F03DC021
:104FB000923069F018F49130C1F503C09530A8F52E
:104FC0000CC010931A1183E0809319112EC0109316
:104FD0001A1184E08093191128C080911A112AE0D7
:104FE000829F100D1124812F10931A11943021F4F7
:104FF000992787FD909534DD80911A11992787FDB7
:1050000090950E94F31A882359F080911A119927DC
:1050100087FD909590934C1280934B120E94BE5541
:105020008FEF80931A110E94984FDF91CF911F91BB
:105030000F910C94804E812F8051823008F0E4CE85
:10504000B3CE00E008CF173209F055CF43CF173267
:1050500009F062CF42CF99CE2F923F924F925F924A
:105060006F927F928F929F92AF92BF92CF92DF9278
:10507000EF92FF920F931F93CF93DF93CDB7DEB7DD
:1050800063970FB6F894DEBF0FBECDBF3FB6F8945E
:10509000882309F435C1912CA92CAA0CAA0CAA0CBE
:1050A000B6EC8B2E1FE7E12EF12C8E01055F1F4F12
:1050B00081BA469A992D990F292F26702064892F3D
:1050C000880F8072907C892B992D9695927031E093
:1050D00035B928B98BB99EB987E881BB8DE08A952F
:1050E000F1F7000081BA469A80EE87B997E09AB945
:1050F0008DB935B980E488B91BB88EB987E481BB16
:10510000E2E0EA95F1F700C046B199B18CB181BAFD
:10511000479A242F26952370F0E84F9FA001112471
:10512000242B392F3071232B392F36953695387033
:10513000232B96959076292B90E0880F991F8470E9
:105140009927282B87EE87B987EF8AB982EE8DB928
:10515000BA2C30E068ED762E7A0C70EC472E4A0CB3
:10516000CC24CA94EFE7DE2EFAE05F2EA8EA6A2E7E
:105170006A0C07C08250808326953F5FB394383015
:1051800011F1EB2DF0E0E755F64F8081982F9E7FCF
:1051900089F7922F91708170981771F3892F8A6027
:1051A00080838FE38B1580F1692F772767FD7095DA
:1051B0008B2D2A8B3B8B4FDF2A893B8926953F5FBE
:1051C000B3943830F1F69394E8E0AE0EFFE0F915B1
:1051D00008F06ECF3FBE63960FB6F894DEBF0FBEE9
:1051E000CDBFDF91CF911F910F91FF90EF90DF9096
:1051F000CF90BF90AF909F908F907F906F905F9077
:105200004F903F902F900895492F552747FD509577
:1052100080912811882361F1452B09F4ADCFEAE193
:10522000F7E0DE011196852D01900D928A95E1F748
:10523000F80186E011928A95E9F7862D830F809315
:10524000BC1080930B0E8093FB0C4AE050E0BE0133
:10525000665F7F4F992787FD90952A8B3B8B0E9435
:105260000377CE0101960E9457172A893B8984CF84
:10527000272C230E452B11F55091020D511143C0DF
:105280008091BC1040E050E8692F820D2A8B3B8B47
:10529000998B0E94783F8091BC10820D99892A8950
:1052A0003B89911153C040E4682F80914F122A8BA3
:1052B0003B8B0E94F9122A893B895ECF8091030DB6
:1052C000813009F464C08091040D813009F46BC011
:1052D0005091020D511117C08091030D833021F0C0
:1052E0008091040D833061F6822D2A8B3B8B998B44
:1052F0000E94C51C0E94593599893B892A89C0CFD3
:1053000008E0902EC9CE442D430F992331F1A8E730
:10531000BCE0FD0105C08CE0E83FF80709F49CC043
:1053200081918F3FC1F3513009F489C080E090E052
:1053300005C001968038910509F41ECF5D915F3F4D
:10534000C1F7FC01E858F34F408316CF60E070E8E6
:105350000E94E0122A893B890FCF8091010D88239A
:1053600069F1513009F45BC0E8E7FCE080E090E0CF
:1053700005C001968038910509F4FECE5191541371
:10538000F8CFFC01E858F34F40684083F5CE62E067
:1053900080E02A8B3B8B998B12DC0E9459359989CE
:1053A0003B892A8990CF62E02A8B3B8B998B07DC63
:1053B0000E9459352A893B8999898ACF513011F148
:1053C000E8E7FCE080E090E004C0019680389105B9
:1053D00041F051915413F9CFFC01E858F34F8FEF8E
:1053E0008083E8E7FCE081918F3F09F0C5CE8CE037
:1053F000E83FF807C1F72A8B3B8B0E9408482A89AF
:105400003B89BACE50E0FA01E858F34F8FEF808322
:10541000F701E41BF50BE858F34F8083E2CF50E02F
:10542000FA01E858F34F808180688083F701E41B1C
:10543000F50BE858F34F8081806880839DCE842FE0
:1054400090E0FC01E858F34F4083F701E81BF90BAB
:10545000E858F34F408390CE80915112811163CF71
:10546000D092FE0CC092FD0C5ECF96EC91BB469A9A
:10547000982F9695969596958295880F807E95B9EA
:1054800090E498B91BB88EB987E881BB85E08A950E
:10549000F1F70000089536EC20EE97E0A0E8F7E47D
:1054A000E7EE77EF62EE5FB7F89431BB469A27B923
:1054B0009AB92DB915B8A8B99BB91EB8F1BB42E08D
:1054C0004A95F1F700C046B1B9B1BCB131BB479ABA
:1054D000E7B97AB96DB95FBF55E05A95F1F70000A9
:1054E00042FFE1CF5FB7F89496EC91BB469A382F14
:1054F000330F982F9695232F26702068482F441F2E
:105500004427441F242B80718360432F440F407233
:10551000842B307C832B9270906215B828B98BB99C
:105520009EB987E881BB85E08A95F1F700005FBFEF
:10553000089526EC90EE87E0F0E8E7E477EE67EF79
:1055400052EE4FB7F89421BB469A97B98AB99DB9E4
:1055500015B8F8B98BB91EB8E1BB32E03A95F1F74E
:1055600000C036B1A9B1ACB121BB479A77B96AB9CD
:105570005DB94FBF45E04A95F1F7000032FFE1CF3A
:105580008FB7F89496EC91BB469A15B892E898B903
:1055900093EC9BB990E29EB997E891BB95E09A9500
:1055A000F1F700008FBF089526EC90EE87E0F0E859
:1055B000E7E477EE67EF52EE4FB7F89421BB469AD7
:1055C00097B98AB99DB915B8F8B98BB91EB8E1BBBE
:1055D00032E03A95F1F700C036B1A9B1ACB121BBC8
:1055E000479A77B96AB95DB94FBF45E04A95F1F777
:1055F000000032FFE1CF8FB7F89496EC91BB469A4A
:1056000015B894E898B993E19BB992E29EB997E8EE
:1056100091BB95E09A95F1F700008FBF089526ECB5
:1056200090EE87E0F0E8E7E477EE67EF52EE4FB7F1
:10563000F89421BB469A97B98AB99DB915B8F8B9BB
:105640008BB91EB8E1BB32E03A95F1F700C036B134
:10565000A9B1ACB121BB479A77B96AB95DB94FBF5F
:1056600045E04A95F1F7000032FFE1CF8FB7F8949B
:1056700096EC91BB469A15B892E898B993E09BB91D
:1056800090E29EB997E891BB95E09A95F1F70000FA
:105690008FBF089526EC90EE87E0F0E8E7E477EE20
:1056A00067EF52EE4FB7F89421BB469A97B98AB983
:1056B0009DB915B8F8B98BB91EB8E1BB32E03A957F
:1056C000F1F700C036B1A9B1ACB121BB479A77B9A7
:1056D0006AB95DB94FBF45E04A95F1F7000032FF66
:1056E000E1CF9FB7F89486EC81BB469A15B887E85E
:1056F00088B923ED2BB922E22EB981BB85E08A95CA
:10570000F1F700009FBF0895CF93DF93E6ECFBE035
:105710008081C8ECDBE0688190E070E00E949572C7
:10572000A091C90BB091CA0BA80FB91F2C913FB71C
:10573000F894808190E00196688170E00E949572F3
:1057400080833FBF822FDF91CF91A5CECF93DF9390
:105750000E947418C82FD0E00E947418382F20E0DF
:10576000C22BD32B81E081DE81E07FDE86EC81BB22
:10577000469A15B882E488B91BB880E48EB987E8E8
:1057800081BB85E08A95F1F7000082E06EDEC0956E
:10579000D095CE01DF91CF910895CF93882339F131
:1057A00080912F0A8F5F80932F0A853148F081E026
:1057B0009091300A9111CDC08093300A10922F0A37
:1057C000C091330AC11179C050912D0A90912E0ACF
:1057D000E091340AE13009F4DEC008F4AFC0E230F1
:1057E00009F4C4C020E0F0E0E75DF54F2487AFB7CF
:1057F000F89456EC51BB469A41E045B980E488B92B
:105800001BB880E28EB937E831BB00C000C080E130
:1058100090E00090340A02C0880F991F0A94E2F7C2
:10582000282F51BB469A782F770F682F6695221F35
:105830002227221F972F9670292B20648071972F83
:10584000990F9072982B707C972B627045B928B98C
:105850009BB96EB931BB00C000C0E091340AF0E0E2
:10586000E75DF54F848551BB469A582F550F982F09
:105870009695252F26702064682F661F6627661F61
:10588000262B682F6071852F880F8072862B507CA5
:10589000852B9270906245B928B98BB99EB931BBFE
:1058A000AFBF8091340A90E0019663E070E00E94FF
:1058B00095728093340ACF9108954091310A4F5FD9
:1058C0004093310AE8E3FAE001900020E9F7E95358
:1058D000FA402091320A332727FD3095C9010196FD
:1058E0006E2F772767FD70950E949572F901E75D2D
:1058F000F54F278530E02038310588F15FEFE82F3C
:10590000FF27E7FDF095E75DF54F278530E020386C
:10591000310550F5F901E45EFE4F9081403108F405
:1059200057CF8093320A1092310A811151CF1C1641
:105930000CF04ECFC150C093330A4ACF2091290AB0
:105940008091300A882309F44ECF80912B0A2827B2
:105950004ACF80E08093300A10922F0A31CFF901AC
:10596000E45EFE4F5081CBCF9FEFD8CF292F2F770A
:105970008091290A90912A0A90FD206880912B0A33
:1059800090912C0A90FF2FCF8091300A882309F440
:105990002ACF205828CF252F2F778091290A909140
:1059A0002A0A91FD206880912B0A90912C0A91FF80
:1059B0001ACFEACFCF9380912F0A8F5F80932F0A5F
:1059C000853148F081E09091300A9111D3C08093E5
:1059D000300A10922F0AC091330ACC2309F441C037
:1059E0004091310A4F5F4093310AE8E3FAE00190B9
:1059F0000020E9F7E953FA402091320A332727FDC6
:105A00003095C90101966E2F772767FD70950E942A
:105A10009572F901E75DF54F278530E020383105B3
:105A200008F4A3C05FEFE82FFF27E7FDF095E75DDF
:105A3000F54F278530E02038310508F09DC0F90189
:105A4000E45EFE4F9081403180F08093320A1092E4
:105A5000310A81110AC01C1644F4C150C093330AA4
:105A600004C050912D0A90912E0AE091340AE13041
:105A700009F499C008F46EC0E23009F47FC020E058
:105A8000F0E0E75DF54F2487AFB7F89456EC51BBD3
:105A9000469A41E045B980E488B91BB880E28EB9E6
:105AA00037E831BB00C000C080E190E00090340ACC
:105AB00002C0880F991F0A94E2F7282F51BB469A1B
:105AC000782F770F682F6695221F2227221F972F86
:105AD0009670292B20648071972F990F9072982BC4
