:100000004BC0000042C2000040C200003EC20000DF
:100010003CC200000C946F4938C2000036C2000098
:1000200034C2000032C200000C9465490C945B4954
:100030002CC200002AC2000028C2000026C2000014
:1000400024C2000022C2000020C200001EC2000024
:100050001CC200000C941B4A18C2000016C200000B
:1000600014C2000012C2000010C200000EC2000044
:100070000CC200000AC2000008C2000006C2000054
:1000800004C2000002C2000000C20000FEC1000065
:10009000FCC10000FAC1000011241FBECFEFD0E266
:1000A000DEBFCDBF0E9400F0D7C10000076342361B
:1000B000B79BD8A71A39685618AEBAAB558C1D3CF9
:1000C000B7CC5763BD6DEDFD753EF6177231BF00BD
:1000D0000000803F05A84CCDB2D44EB93836A902F5
:1000E0000C50B9918688083CA6AAAA2ABE00000036
:1000F000803F08000000BE922449123EABAAAA2A03
:10010000BECDCCCC4C3E00000080BEABAAAAAA3E1D
:1001100000000000BF000000803F00000000000859
:100120004178D3BB4387D1133D190E3CC3BD4282F6
:10013000AD2B3E68EC8276BED98FE1A93E4C80EFB4
:10014000FFBE01C4FF7F3F0000000000FF004C8A9B
:1001500097509545406BA6D8E4B2282EAE90BF26A6
:10016000B14EE86FD0FBE0709A51862C379845323B
:10017000539D06840D971A8CE61E2E0DB41D401655
:100180009AC591F9F786A142660620AFAE19EE270F
:10019000C2BB0EBAB90AAA95CA45040444C1796A19
:1001A00091EE7D3E2E4C960BA96E5A6A9FF56D0519
:1001B000BB8F808DB4F54FC14AE99E674536394FF4
:1001C00075ADF44CB227A939D78036F7C49C7E6A46
:1001D000605F677992B4DD0E4786CD1A6DC6258AB9
:1001E000F464D953D154DB67F78B22BD5CFEA44D78
:1001F000F9A7590EC57E3BF9BA7D430AD39F6C3BE4
:100200000BDEB2875E3710ECC8A6856546290CF177
:10021000D6BCA38C755E4934200DFAE9D7C7B6A7C2
:10022000988A7C6E6155493D32271D1209FFF6EE12
:10023000E5DDD5CEC6BFB9B2ACA6A09A958F8A85AA
:10024000817C78736F6B6864605D5A56FF59E97DF5
:1002500015B150F39942EE9D4F04BC7632F1B2765F
:100260003B03CC98653405D8AC8259320CE7C4A264
:100270008161432509EDD3B9A089725C46321E0B1A
:10028000F8E6D5C4B4A596887A6D6053473C30260D
:100290001B1108FEF5EDE4DCD4CDC6BFB8B1ABA5AB
:1002A0009F99948F8A85807C77736F6B6763605D9D
:1002B000595653504D4A484543403E3C3A383634EF
:1002C00032302E2D2B2A282725242321201F1E1DC6
:1002D0001C1B1A19181716161514131312111110C6
:1002E0000F0F0E0E0D0D0C0C0B0B0B0A0A09090952
:1002F0000808080807070706060606060505050597
:1003000005040404040404030303030303030302B6
:1003100002020202020202020202010101010101C3
:1003200001010101010101010101010101000000C0
:1003300000000000000000000000000000000000BD
:10034000000000000000000000000000FF0C0B0B8C
:100350000B0A0A090909080808080707070606061C
:100360000606050505050504040404040403030347
:100370000303030303020202020202020202020258
:10038000010101010101010101010101010101015D
:10039000010101000000000000000000000000005A
:1003A000000000000000000000000000000000004D
:1003B000000000000000000000000000000000003D
:1003C000000000000000000000000000000000002D
:1003D000000000000000000000000000000000001D
:1003E000000000000000000000000000000000000D
:1003F00000000000000000000000000000000000FD
:1004000000000000000000000000000000000000EC
:1004100000000000000000000000000000000000DC
:1004200000000000000000000000000000000000CC
:1004300000000000000000000000000000000000BC
:1004400000000000000000000000000011241FBE9A
:10045000CFEFD0E2DEBFCDBF1AE1ACEAB9E001C018
:100460001D92A235B107E1F719E0A0E0B1E0E4E8A0
:10047000FDEA00E00BBF02C007900D92AC3AB10755
:10048000D9F70E94544A0C94C056BACD2F923F928D
:100490004F925F926F927F928F929F92AF92BF9294
:1004A000CF92DF92EF92FF920F931F93CF93DF9340
:1004B000CDB7DEB72B970FB6F894DEBF0FBECDBF1A
:1004C00080E292E10E94DA348090511290905212B0
:1004D0002091EA1220FF19C025FD02C00C942D0DB9
:1004E000540124FD13C080913612909137129595D6
:1004F0008795880E991E21FD0BC0412C512C32018D
:1005000022FD10C00FEF1FEF1BC0540121FFF5CFDC
:100510004090361250903712662457FC6094762C27
:1005200022FFF0CF009130121091311216950795ED
:10053000009510958091361290913712080F191F6F
:1005400080910B1390910C13A0E0B0E09058A1099A
:10055000B1091C018091E612882311F40C94290D35
:1005600080911D1390911E13A0E0B0E09058A10956
:10057000B109B7FF02C00C94DC0DB595A79597950E
:1005800087959F838E833FB73983F89480912C1091
:1005900090912D10A0912E10B0912F108B2F992794
:1005A000AA27BB27892B8A2B8B2B21F088E290E18D
:1005B0000E94934880915110823011F40C94460CA3
:1005C00010F00C943F0C813011F40C94AD0C80E0D1
:1005D00090E060914A1070914B100E94A4344091B9
:1005E000481050914910480F591F50934D10409397
:1005F0004C108091281090912910A0912A10B09150
:100600002B10C0902C10D0902D10E0902E10F09058
:100610002F108C0D9D1DAE1DBF1D80932C1090932F
:100620002D10A0932E10B0932F106501EE24D7FC4F
:10063000E094FE2CAA2497FCA094BA2C209162127C
:1006400030916312C501B401620F731F811D911DAA
:10065000688779878A879B87611571058140910535
:1006600044F06FEF7FEF80E090E0688779878A87BA
:100670009B8788859985AA85BB85B7FF02C00C94A6
:10068000F00C4C835D830E94D41C66EC61BB469ADF
:1006900031E035B925E428B970EF7BB992EA9EB90B
:1006A00087E881BB00C000C061BB469A35B928B954
:1006B000E0EDEBB99EB981BB00C000C061BB469ABA
:1006C00035B928B97BB99EB981BB4C815D816E81FA
:1006D0007F81AA27649FB12D75039001569FB00DAD
:1006E000211D3A1F74033A0BB00D211D3A1F11242E
:1006F000C901AA2797FDA095BA2F8C0D9D1DAE1D8F
:10070000BF1D2091561230915712820F931FA11DC9
:10071000B11D009771E0A707B10524F08FEF9FEF9F
:10072000A0E0B0E0B7FF02C00C94EB0C4C835D83FB
:100730000E94D41C66EC61BB469A31E035B921E4D5
:1007400028B970EF7BB990EA9EB987E881BB00C0F9
:1007500000C061BB469A35B928B9E0EDEBB99EB946
:1007600081BB00C000C061BB469A35B928B97BB9CE
:100770009EB981BB4C815D819101AA27249FB12D37
:100780003503C001529FB00D811D9A1F34039A0B8F
:10079000B00D811D9A1F1124AA2797FDA095BA2F8D
:1007A000840D951DA61DB71D20916E1230916F12FC
:1007B000820F931FA11DB11D20919E1230919F1297
:1007C000A90160E070E0481759076A077B070CF041
:1007D000DFC7CA010E94D41C46EC41BB469A31E0F7
:1007E00035B921E428B950EF5BB992EA9EB987E8A0
:1007F00081BB00C000C041BB469A35B928B960EE44
:100800006BB99EB981BB00C000C041BB469A35B9E7
:1008100028B95BB99EB981BB84E291E10E94E448AA
:100820002091481130914911AA27209FB12D319F65
:10083000C001129FB00D811D9A1F309FB00D811D08
:100840009A1F1124A0E0B0E00097A105B10509F4BA
:10085000AFC79D5FAF4FBF4F009731E0A307B10512
:1008600024F08FEF9FEFA0E0B0E00E94D41C46EC94
:1008700041BB469A31E035B925E428B950EF5BB960
:1008800090EA9EB987E881BB00C000C041BB469A90
:1008900035B928B960EB6BB99EB981BB00C000C007
:1008A00041BB469A35B928B95BB99EB981BB39813C
:1008B0003FBF3FB73B83F89482E590E10E94E44854
:1008C00040917610509177105A8349838091641239
:1008D00090916512B501A401480F591F611D711D4A
:1008E0004115510581E06807710524F04FEF5FEF76
:1008F00060E070E0DB01CA0177FF02C00C94FD0CE0
:100900000E94D41C46EC41BB469A31E035B927E43D
:1009100028B950EF5BB992EA9EB987E881BB00C065
:1009200000C041BB469A35B928B960ED6BB99EB994
:1009300081BB00C000C041BB469A35B928B95BB93C
:100940009EB981BB2E813F8169817A81AA27269F2A
:10095000B12D3703A001729FB00D411D5A1F360300
:100960005A0BB00D411D5A1F1124662757FD609583
:10097000762F4C0D5D1D6E1D7F1D8091581290913C
:100980005912480F591F611D711D4115510581E014
:100990006807710524F04FEF5FEF60E070E0DB0166
:1009A000CA0177FF01C0FEC70E94D41C46EC41BBC0
:1009B000469A31E035B923E428B950EF5BB990EAA3
:1009C0009EB987E881BB00C000C041BB469A35B9DB
:1009D00028B960ED6BB99EB981BB00C000C041BBB6
:1009E000469A35B928B95BB99EB981BB9101698135
:1009F0007A81AA27269FB12D3703A001729FB00DDF
:100A0000411D5A1F36035A0BB00D411D5A1F1124A8
:100A1000662757FD6095762F440D551D661D771D81
:100A20008091701290917112480F591F611D711DB4
:100A30008091A0129091A112A0E0B0E084179507D8
:100A4000A607B7072CF077FF01C0E0C7DB01CA019A
:100A50000E94D41C46EC41BB469A31E035B923E4F0
:100A600028B950EF5BB992EA9EB987E881BB00C014
:100A700000C041BB469A35B928B960EE6BB99EB942
:100A800081BB00C000C041BB469A35B928B95BB9EB
:100A90009EB981BB8091521190915311A091541134
:100AA000B09155118B2F9927AA27BB27892B8A2B09
:100AB0008B2B09F0FCC680917711823009F4CFC6E8
:100AC00008F0C7C6813009F435C780E090E0609136
:100AD0007011709171110E94A43420916E113091A7
:100AE0006F11280F391F3093731120937211809169
:100AF0004E1190914F11A0915011B0915111409110
:100B00005211509153116091541170915511840FED
:100B1000951FA61FB71F8093521190935311A09356
:100B20005411B0935511AA27209FB12D319FC001B8
:100B3000129FB00D811D9A1F309FB00D811D9A1F0D
:100B40001124A0E0B0E00097A105B10509F433C677
:100B50009D5FAF4FBF4F009771E0A707B10524F02D
:100B60008FEF9FEFA0E0B0E00E94D41C46EC41BBA9
:100B7000469A31E035B927E428B950EF5BB990EADD
:100B80009EB987E881BB00C000C041BB469A35B919
:100B900028B960EB6BB99EB981BB00C000C041BBF6
:100BA000469A35B928B95BB99EB981BB3B813FBF35
:100BB0003FB73B83F8948091801090918110A09171
:100BC0008210B09183108B2F9927AA27BB27892BDE
:100BD0008A2B8B2B09F07AC68091A510823009F4FC
:100BE0000FC608F007C6813009F4CEC680E090E059
:100BF00060919E1070919F100E94A43440919C10AF
:100C000050919D10480F591F5A8349835093A1104A
:100C10004093A01080917C1090917D10A0917E1047
:100C2000B0917F104091801050918110609182109E
:100C300070918310840F951FA61FB71F809380109B
:100C400090938110A0938210B093831080916612CC
:100C500090916712A5019401280F391F411D511D64
:100C6000DA01C901009731E0A307B10524F08FEF45
:100C70009FEFA0E0B0E0B7FDA6C60E94D41C66ECD2
:100C800061BB469A31E035B921E428B970EF7BB9F0
:100C900090EA9EB987E881BB00C000C061BB469A5C
:100CA00035B928B9E0EEEBB99EB981BB00C000C0F0
:100CB00061BB469A35B928B97BB99EB981BB4E81D3
:100CC0005F8169817A81AA27469FB12D57039001E0
:100CD000749FB00D211D3A1F56033A0BB00D211D14
:100CE0003A1F1124C901AA2797FDA095BA2F8C0D90
:100CF0009D1DAE1DBF1D20915A1230915B12820FB7
:100D0000931FA11DB11D009771E0A707B10524F045
:100D10008FEF9FEFA0E0B0E0B7FD51C60E94D41C5A
:100D200066EC61BB469A31E035B925E428B970EF2D
:100D30007BB990EA9EB987E881BB00C000C061BB67
:100D4000469A35B928B9E0EDEBB99EB981BB00C030
:100D500000C061BB469A35B928B97BB99EB981BB41
:100D6000910149815A81AA27249FB12D3503C001E1
:100D7000529FB00D811D9A1F34039A0BB00D811D37
:100D80009A1F1124AA2797FDA095BA2F840D951DAF
:100D9000A61DB71D2091721230917312820F931FFE
:100DA000A11DB11D2091A2123091A312A90160E0F2
:100DB00070E0481759076A077B070CF0EEC4CA01B8
:100DC0000E94D41C46EC41BB469A31E035B925E47B
:100DD00028B950EF5BB992EA9EB987E881BB00C0A1
:100DE00000C041BB469A35B928B960EE6BB99EB9CF
:100DF00081BB00C000C041BB469A35B928B95BB978
:100E00009EB981BB88E791E10E94E44820919C1142
:100E100030919D11AA27209FB12D319FC001129FB3
:100E2000B00D811D9A1F309FB00D811D9A1F112496
:100E3000A0E0B0E00097A105B10509F4BFC49D5F33
:100E4000AF4FBF4F009751E0A507B10524F08FEFDA
:100E50009FEFA0E0B0E00E94D41C46EC41BB469A54
:100E600031E035B921E428B950EF5BB992EA9EB977
:100E700087E881BB00C000C041BB469A35B928B99C
:100E800060EB6BB99EB981BB00C000C041BB469A04
:100E900035B928B95BB99EB981BB3B813FBF4FB71C
:100EA0004B83F89486EA90E10E94E4486091CA106E
:100EB0007091CB107A836983809168129091691246
:100EC000B501A401480F591F611D711D4115510540
:100ED00081E06807710524F04FEF5FEF60E070E09C
:100EE000DB01CA0177FD8EC50E94D41C46EC41BBD4
:100EF000469A31E035B923E428B950EF5BB990EA5E
:100F00009EB987E881BB00C000C041BB469A35B995
:100F100028B960EE6BB99EB981BB00C000C041BB6F
:100F2000469A35B928B95BB99EB981BB2E813F81FC
:100F300069817A81AA27269FB12D3703A001729F6C
:100F4000B00D411D5A1F36035A0BB00D411D5A1FDB
:100F50001124662757FD6095762F4C0D5D1D6E1D83
:100F60007F1D80915C1290915D12480F591F611D89
:100F7000711D4115510581E06807710524F04FEF9F
:100F80005FEF60E070E0DB01CA0177FD2EC50E94D3
:100F9000D41C46EC41BB469A31E035B927E428B968
:100FA00050EF5BB990EA9EB987E881BB00C000C0F2
:100FB00041BB469A35B928B960ED6BB99EB981BB82
:100FC00000C000C041BB469A35B928B95BB99EB98B
:100FD00081BB910169817A81AA27269FB12D3703B0
:100FE000A001729FB00D411D5A1F36035A0BB00D60
:100FF000411D5A1F1124662757FD6095762F440D19
:10100000551D661D771D8091741290917512480FC1
:10101000591F611D711D8091A4129091A512A0E02D
:10102000B0E084179507A607B70724F077FDF1C451
:10103000DB01CA010E94D41C46EC41BB469A31E058
:1010400035B927E428B950EF5BB992EA9EB987E831
:1010500081BB00C000C041BB469A35B928B960EEDB
:101060006BB99EB981BB00C000C041BB469A35B97F
:1010700028B95BB99EB981BB82EA91E10E94E4483C
:101080002091C6113091C711AA27209FB12D319F01
:10109000C001129FB00D811D9A1F309FB00D811DA0
:1010A0009A1F1124A0E0B0E00097A105B10509F452
:1010B00088C39D5FAF4FBF4F009771E0A707B10591
:1010C00024F08FEF9FEFA0E0B0E00E94D41C46EC2C
:1010D00041BB469A31E035B923E428B950EF5BB9FA
:1010E00092EA9EB987E881BB00C000C041BB469A26
:1010F00035B928B960EB6BB99EB981BB00C000C09F
:1011000041BB469A35B928B95BB99EB981BB2B81E1
:101110002FBF3FB73B83F89480ED90E10E94E448F5
:101120004091F4105091F5105A83498380916A12CE
:1011300090916B12B501A401480F591F611D711DDB
:101140004115510581E06807710524F04FEF5FEF0D
:1011500060E070E0DB01CA0177FD4BC40E94D41C43
:1011600046EC41BB469A31E035B925E428B950EF49
:101170005BB990EA9EB987E881BB00C000C041BB63
:10118000469A35B928B960EE6BB99EB981BB00C0EB
:1011900000C041BB469A35B928B95BB99EB981BB3D
:1011A0002E813F8169817A81AA27269FB12D37033D
:1011B000A001729FB00D411D5A1F36035A0BB00D8E
:1011C000411D5A1F1124662757FD6095762F4C0D3F
:1011D0005D1D6E1D7F1D80915E1290915F12480F04
:1011E000591F611D711D4115510581E06807710589
:1011F00024F04FEF5FEF60E070E0DB01CA0177FDA4
:10120000D6C30E94D41C46EC41BB469A31E035B9A6
:1012100021E428B950EF5BB992EA9EB987E881BB17
:1012200000C000C041BB469A35B928B960ED6BB922
:101230009EB981BB00C000C041BB469A35B928B9F0
:101240005BB99EB981BB910169817A81AA27269FEA
:10125000B12D3703A001729FB00D411D5A1F3603F7
:101260005A0BB00D411D5A1F1124662757FD60957A
:10127000762F440D551D661D771D80917612909135
:101280007712480F591F611D711D8091A612909110
:10129000A712A0E0B0E084179507A607B70724F0CF
:1012A00077FDBDC3DB01CA010E94D41C46EC41BBE3
:1012B000469A31E035B921E428B950EF5BB990EA9C
:1012C0009EB987E881BB00C000C041BB469A35B9D2
:1012D00028B960EB6BB99EB981BB00C000C041BBAF
:1012E000469A35B928B95BB99EB981BB8091D011B6
:1012F0009091D111A091D211B091D3118B2F992738
:10130000AA27BB27892B8A2B8B2B09F0DAC2809165
:10131000F511823009F45EC208F056C2813009F43A
:10132000DAC280E090E06091EE117091EF110E94BE
:10133000A4342091EC113091ED11280F391F309316
:10134000F1112093F0118091CC119091CD11A091C9
:10135000CE11B091CF114091D0115091D111609127
:10136000D2117091D311840F951FA61FB71F8093C0
:10137000D0119093D111A093D211B093D311AA2779
:10138000209FB12D319FC001129FB00D811D9A1F6A
:10139000309FB00D811D9A1F1124A0E0B0E000978E
:1013A000A105B10509F401C29D5FAF4FBF4F009782
:1013B00071E0A707B10524F08FEF9FEFA0E0B0E048
:1013C0000E94D41C46EC41BB469A31E035B925E475
:1013D00028B950EF5BB992EA9EB987E881BB00C09B
:1013E00000C041BB469A35B928B960EB6BB99EB9CC
:1013F00081BB00C000C041BB469A35B928B95BB972
:101400009EB981BB3B813FBF2FB72B83F89480915E
:10141000FE109091FF10A0910011B09101118B2F3F
:101420009927AA27BB27892B8A2B8B2B09F044C22B
:1014300080912311823009F4F9C108F0F1C18130A3
:1014400009F45CC280E090E060911C1170911D1164
:101450000E94A43440911A1150911B11480F591F3A
:101460005A83498350931F1140931E118091FA10A3
:101470009091FB10A091FC10B091FD104091FE10D6
:101480005091FF106091001170910111840F951F10
:10149000A61FB71F8093FE109093FF10A09300111A
:1014A000B093011180916C1290916D12880E991E6B
:1014B000A11CB11C8114910451E0A506B1042CF0CB
:1014C00088248A94982CA12CB12CD501C401B7FC96
:1014D00072C20E94D41C66EC61BB469A31E035B9F9
:1014E00027E428B970EF7BB990EA9EB987E881BB01
:1014F00000C000C061BB469A35B928B9E0EEEBB92F
:101500009EB981BB00C000C061BB469A35B928B9FD
:101510007BB99EB981BB6E817F8149815A81AA279F
:10152000649FB12D75039001569FB00D211D3A1F88
:1015300074033A0BB00D211D3A1F11244901AA244E
:1015400097FCA094BA2C8C0C9D1CAE1CBF1C8091E7
:10155000601290916112880E991EA11CB11C811419
:10156000910451E0A506B1042CF088248A94982CAB
:10157000A12CB12CD501C401B7FC29C20E94D41CF6
:1015800066EC61BB469A31E035B923E428B970EFC7
:101590007BB992EA9EB987E881BB00C000C061BBFD
:1015A000469A35B928B9E0EDEBB99EB981BB00C0C8
:1015B00000C061BB469A35B928B97BB99EB981BBD9
:1015C000B10129813A81AA27629FB12D7303C0011D
:1015D000369FB00D811D9A1F72039A0BB00D811DAD
:1015E0009A1F1124AC01662757FD6095762F440D94
:1015F000551D661D771D8091781290917912480FC4
:10160000591F611D711D8091A8129091A912A0E02F
:10161000B0E084179507A607B70724F077FD06C248
:10162000DB01CA010E94D41C46EC41BB469A31E062
:1016300035B923E428B950EF5BB990EA9EB987E841
:1016400081BB00C000C041BB469A35B928B960EBE8
:101650006BB99EB981BB00C000C041BB469A35B989
:1016600028B95BB99EB981BB86EF91E10E94E4483D
:1016700020911A1230911B12AA27209FB12D319F61
:10168000C001129FB00D811D9A1F309FB00D811DAA
:101690009A1F1124A0E0B0E00097A105B10509F45C
:1016A00081C09D5FAF4FBF4F009731E0A307B105E9
:1016B00024F08FEF9FEFA0E0B0E00E94D41C46EC36
:1016C00041BB469A31E035B927E428B950EF5BB900
:1016D00092EA9EB987E881BB00C000C041BB469A30
:1016E00035B928B960EB6BB99EB981BB00C000C0A9
:1016F00041BB469A35B928B95BB99EB981BB2B81EC
:101700002FBF2091AC09922F9C7111E009F010E0DD
:10171000922F9370923009F4AAC1933009F43FC21A
:10172000913009F4B0C1111152C280E017D58091F7
:10173000710D9091720DA091730DB091740D019681
:10174000A11DB11D8093710D9093720DA093730D27
:10175000B093740D2091AC092F5F2093AC092B96A8
:101760000FB6F894DEBF0FBECDBFDF91CF911F91B2
:101770000F91FF90EF90DF90CF90BF90AF909F9030
:101780008F907F906F905F904F903F902F90089533
:10179000B7FD48C1AC01BD011CC8B7FD3DC1AC01DE
:1017A000BD010DCB80E090E088CF80E090E008CED6
:1017B00080E090E05AC880E090E0D6C980E090E0F8
:1017C0004ACB80E090E081CC833009F4D8C08430EB
:1017D00009F0A7CD6091D0117091D1118091D211F3
:1017E0009091D3112091F21140E251E0DDD6809525
:1017F000909599CD833009F47CC0843009F0F6C906
:10180000609180107091811080918210909183106E
:101810002091A21040E251E0C7D680959095E8C98A
:10182000833009F47CC0843009F00CCE6091FE1046
:101830007091FF1080910011909101112091201161
:101840002111FDC0BB27A92F982F872F8095909538
:10185000FBCD833009F47CC0843009F036C9609137
:101860005211709153118091541190915511209102
:10187000741140E251E098D68095909528C9833044
:1018800009F452C0843011F00C94E70260912C10DE
:1018900070912D1080912E1090912F1020914E104C
:1018A00040E251E081D6809590950C94E9028EE457
:1018B00091E10E949348FFC88AEF90E10E9493480B
:1018C000B7CD8CEC91E10E94934821CD8CE790E15B
:1018D0000E94934881C96091D0117091D11180917B
:1018E000D2119091D3112091F21140E253E05CD6D5
:1018F0001ACD80919010909191107AC96091FE104C
:101900007091FF1080910011909101112091201190
:1019100021119AC0BB27A92F982F872F95CD809191
:101920000E1190910F1190CD80913C1090913D102F
:101930000C94E902609152117091531180915411ED
:10194000909155112091741140E253E02DD6BFC8FB
:101950008091621190916311BAC860912C107091BE
:101960002D1080912E1090912F1020914E1021114A
:1019700060C0BB27A92F982F872F0C94E902809174
:10198000E0119091E111CFCC6091801070918110A5
:1019900080918210909183102091A21040E253E038
:1019A00003D626C980E090E0DC010C94D40480E0EA
:1019B00090E0DC0126CC80E090E0DC018ACD80E084
:1019C00090E0DC01ABC980E090E0DC0156C980E02A
:1019D00090E0DC01D3CD80E090E0DC010C94960334
:1019E00080E090E0DC010C94410380E090E0DC01B9
:1019F000CECA80E090E0DC01B1CB80E090E0DC0179
:101A00000C94800480E090E0DC016ECA80E090E0FD
:101A10001FC880E090E00ECB80E090E0D1C980E06C
:101A200090E042CC80E090E00C94EA0380E090E00B
:101A3000F9CD40E253E00E94B5340C94E90240E253
:101A400051E00E94B53402CF40E253E00E94B53429
:101A5000FBCC1F821E820C94C302A0903612B09061
:101A60003712B594A794A80CB91C0C9471028BE39F
:101A700092E10E94DA348091EA1288700E94E215A5
:101A80002091AC0969CE0E9473258091901488231F
:101A900009F497C08091DD12882339F0815080933A
:101AA000DD120E94013B8111BCC08091D6128823B7
:101AB00009F47FC02091D4123091D5120AE712E1C7
:101AC00086E5882E82E1982EAEE6B2E162E972E107
:101AD00092E6A92E92E1B92E46E852E1E6E0DE2E2A
:101AE00041C0E81AF90A2E153F0508F47901E80EFD
:101AF000F91EF401F182E082FA01E190F190AF0168
:101B0000F501808191818E159F0508F063C0E81A68
:101B1000F90A2E153F0508F47901E80EF91EF501C2
:101B2000F182E082FB01E190F190BF018D919C91E7
:101B300011978E159F0508F05FC0E81AF90A2E1557
:101B40003F0508F47901E80EF91E1196FC92EE9219
:101B5000DA94F2E08F0E911C129682E0A80EB11C6E
:101B6000DD2039F1F801E190F1908F01F4018081DD
:101B700091818E159F0508F4B4CFE816F90608F098
:101B8000BBCFFC01EE19FF097F012E173F0708F4B8
:101B900079018E199F09F40191838083ADCF22FDD5
:101BA000DBCD812F0E94EA3B812F0E949B1E1111E9
:101BB00035C02091AC09D0CD0196A11DB11D0C946A
:101BC000BD028091DD12882309F46BCF67CF0E949C
:101BD0003817ABCDE816F90608F0A4CFFC01EE19D2
:101BE000FF097F012E173F0708F479018E199F091D
:101BF000F5019183808396CFE816F90608F0A8CF07
:101C0000FC01EE19FF097F012E173F0708F4790147
:101C10008E199F0911969C938E939ACF0E94BF3381
:101C2000C8CF8091D00B811103C08091580C8111D5
:101C30000E94D7268091690D882309F436CF0E942F
:101C40000E2633CF1F93CF93DF931FB7F8940E94D4
:101C50003D390E946F181092201010921F101092A0
:101C6000081010920710CFEFDFEFD093FC0FC09356
:101C7000FB0F10920A1010920910D093FE0FC09320
:101C8000FD0F10920C1010920B10D0930010C09307
:101C9000FF0F10920E1010920D10D0930210C093EF
:101CA00001101092101010920F10D0930410C093D6
:101CB00003101092121010921110D0930610C093BE
:101CC0000510809123108160809323100E94A81F2B
:101CD000D0931610C0931510109218101092171070
:101CE000C0E06C2F6E5E8C2F0E94381ACF5FC6301A
:101CF000C1F7809123108E7F809323100E94A81F2C
:101D0000809123108860809323100E94A81F109256
:101D10001610109215108FEF9FEF9093181080936C
:101D200017106C2F645F8C2F0E94381ACF5FCC3055
:101D3000C1F780912310877F809323100E94A81FF2
:101D40001092161010921510109218101092171071
:101D50008FEF9FEF9093201080931F101092FC0F35
:101D60001092FB0F1092FE0F1092FD0F10920010B8
:101D70001092FF0F10920210109201101092041096
:101D80001092031010920610109205106C2F6A5FCB
:101D90008C2F0E94381ACF5FC231C1F710922010E9
:101DA00010921F10109208101092071010920A1033
:101DB0001092091010920C1010920B1010920E102D
:101DC00010920D101092101010920F10109212100D
:101DD000109211100E94E4171092310A1092320AE8
:101DE00010922E0A10922D0A1092300A10922F0A89
:101DF0001092370A0E947C381FBFDF91CF911F914C
:101E0000089580919014813009F008956A3FB1F0EF
:101E10006C3F41F0683FC9F78091DD128F5F80937E
:101E2000DD1208958091D00B823089F18091580C99
:101E3000823059F788E59CE00C9484268091D00B81
:101E4000823079F11092530C1092520C8FEF9FEF69
:101E50009093550C8093540C8091580C8230E1F093
:101E60001092DB0C1092DA0C8FEF9FEF9093DD0C49
:101E70008093DC0C9093640D8093630D8FEF9FE74C
:101E800090932510809324101092DD12089580ED18
:101E90009BE00E948426CACF88E59CE00E948426AD
:101EA000DFCF80ED9BE00E948426CCCFFC013FB7C2
:101EB000F89421819081291728F48281820F891B4F
:101EC0003FBF0895822F891B3FBF08956F928F9265
:101ED0009F92AF92BF92CF92DF92EF92FF920F93B9
:101EE0001F93CF93DF93E0918519F0918619309776
:101EF00019F085E699E109958DE49AE1D7DF082F7D
:101F000010E00115110509F478C0C0E0D0E090910F
:101F10004D1A20914F1AEE24E394F12CE3E09E2E0B
:101F2000F4E08F2EA2E0AA2EBB24B394892F622F57
:101F300090E070E00E94B251E091501AF091511A75
:101F4000E80FF91FF081F83F08F065C0F7FF71C096
:101F500080918A19843031F0F0938719F0928C19AE
:101F6000E0928B198F2F807F803B79F198F4803934
:101F700061F1803A51F1803841F1F03F09F4B1C08C
:101F8000F73F09F4C3C010928A1910928C1910926D
:101F90008B191DC0803D09F4A1C008F49CC0803E8F
:101FA000A1F0803F51F7EF2FE15FEF3030F7AE2F18
:101FB000B0E0A65CB94F8C91813009F49BC0E8F287
:101FC000823009F48BC08330F1F690928A193FB7C2
:101FD000F89490914D1A892F90E0019620914F1A14
:101FE000622F70E00E94B251982F80934D1A3FBF2C
:101FF0002196C017D10708F499CFDF91CF911F9197
:102000000F91FF90EF90DF90CF90BF90AF909F9097
:102010008F906F900895D0908A19B0928A1920E01D
:1020200040E06F2F81E090E00E948332D0928A19C5
:10203000CECF60908A19662051F240918B19509151
:102040008C199A01ABEABAEA0E9492566C01D694B6
:10205000C794C601880F991F8C0D9D1D6A01C81A6F
:10206000D90AD601AB59B64E9296FC93CA01019695
:1020700090938C1980938B1921E0C216D104B9F08A
:1020800022E0C216D10409F0A2CF20918919409113
:102090008819609187190E94833280918A1984304F
:1020A00009F495CFF0928C19E0928B1990CF22E031
:1020B00062128DCF20E040918819609187190E94AB
:1020C000833280918A19843009F481CFD0928C199F
:1020D000C0928B197CCF803C09F04FCFA0928A1917
:1020E00076CF80928A19F0938719F0928C19E0923A
:1020F0008B196DCF80938A1920E040E06F2F81E02B
:1021000090E00E94833210928A1961CF40918B191E
:1021100050918C199A01ABEABAEA0E9492569695B0
:1021200087959C01220F331F280F391FDA01A21B4C
:10213000B30BAB59B64E9296FC93CA01019690939D
:102140008C1980938B19209189194091881960917D
:1021500087190E94833210928A1939CF882341F05F
:102160008AE69DE0A3DE811101C008950C94F3205E
:10217000ADDEF6CFE8E8FBE09FEFDF0112971C929F
:102180001082DF0113979C93DF0114979C93DF016A
:102190001A971D921D921D921C9213973C962BE04C
:1021A000E03DF20751F7811101C0089580E1EEE6AC
:1021B000FAE0DF011D928A95E9F708951F93CF9306
:1021C000DF93182FD92FC62F8091CE0B8617F1F0F1
:1021D00080E0D0DFC093CE0B46E050E06FEF70E0C0
:1021E00086EC9BE00E94B455E12FFD2FA6ECBBE0EE
:1021F00080E091919F3FB9F09D938F5F8630C9F742
:102200001092C60BDF91CF911F91089546E050E0E8
:1022100066EC7BE0812F0E948D550097D9F6DF9107
:10222000CF911F9108958111EBCFE6ECFBE086E0A2
:10223000DF011D928A95E9F7DF91CF911F910895F3
:10224000CF93DF9300D000D000D0CDB7DEB786E0CB
:10225000E4E3F6E0DE01119601900D928A95E1F734
:1022600060E0CE010196AADF26960FB6F894DEBF95
:102270000FBECDBFDF91CF910895CF93DF9300D0F4
:1022800000D000D0CDB7DEB746E050E06FEF70E091
:10229000CE0101960E94B45540E080E090E00AC073
:1022A0002981321B30834F5F46303CF501968038E0
:1022B000910519F1382FE82FE695E695E695F0E0BF
:1022C000E259F54F2081222389F3FC01E770FF27B3
:1022D000E95FF84F5081522349F3E1E0F0E0EC0F61
:1022E000FD1FE40FF11D47FDFA9580834111D8CF02
:1022F00041E0019680389105E9F661E0CE01019652
:102300005DDF26960FB6F894DEBF0FBECDBFDF911E
:10231000CF910895CF93DF93FC01D62FCFB7F894D8
:10232000218130E0C90101964281642F70E00E9452
:10233000B251408150E08417950791F0A381B48198
:10234000A20FB31FDC93818190E00196628170E05F
:102350000E94B2518183CFBF81E0DF91CF91089578
:10236000CFBF80E0DF91CF910895CF93C82F6C2F1E
:102370008AE69DE0CFDF81110DC08AE69DE096DD03
:102380008823A9F30E94F3206C2F8AE69DE0C2DF28
:10239000882399F3CF910895AF92BF92CF92DF92A5
:1023A000EF92FF920F931F93CF93DF93082FD62EB8
:1023B000C0E0D0E0B8E8EB2E18EEC12EC80E8FE3D7
:1023C000F82E1FEFEC9EF001ED9EF00D1124E0536E
:1023D000F44F8081833079F02196C230D10591F796
:1023E000DF91CF911F910F91FF90EF90DF90CF90F1
:1023F000BF90AF9008950C3F09F45AC00D3F09F407
:102400006AC00E3F09F48CC0DD2091F14091E20CCE
:10241000842F8F5F8093E20C5F0161E8A60EB11CF0
:10242000D5016C91862F90E02091E10CDC01A20F88
:10243000B11DA038B10584F6442309F49EC0462F8F
:102440004150242F332727FD30952E5F3F4F2E0F0D
:102450003F1FD9015E919D01752F7F73C71609F447
:10246000BBCF57FF03C0415047FFF3CF20E88DC0DB
:102470008091E20C811177C05F0161E8A60EB11C6A
:10248000D5012C9130E02F5F3F4F2E0F3F1F409121
:10249000E10C50E06EE370E0C9010E94B4558091F8
:1024A000E10CF5019081890F80831092E10C94CFAB
:1024B000DF01AF57BF4F1C92DF01AA57BF4F1C92DD
:1024C0001092E10C319640E850E06FEF70E0CF01E0
:1024D0000E94B45581CFDF01AA57BF4F8C9188234A
:1024E00009F47ACF81508C938091E10C811141C025
:1024F0005F0161E8A60EB11CD5018C91882309F417
:102500006BCF8150D5018C939F01280F311DD901CC
:1025100011969C91119711961C9397FF5DCFEECF6A
:102520005F01B1E8AB0EB11CD5014C91842F90E056
:102530002091E10CBC01620F711D603871050CF037
:102540004BCF9F012A573F4FD9015C915F5F5C934E
:102550002091E20C211122C0E80FF91FF1824F5F98
:10256000F501408339CF81508093E20C811134CF43
:1025700083CF81508093E10C2FCF9F012A573F4F8B
:10258000D9014C914F5F4C9320E0E80FF91F822F47
:102590008C2981836F5FF50160831ECF8091E10CF0
:1025A0008F5F8093E10C18CF211106C0472F582F61
:1025B000692F7727CA0108950C94B5342F923F9262
:1025C0004F925F926F927F928F929F92AF92BF9243
:1025D000CF92DF92EF92FF920F931F93CF93DF93EF
:1025E000CDB7DEB7A0970FB6F894DEBF0FBECDBF54
:1025F0008C87362E882309F49BC0E0910513F09157
:10260000061340900713509008134091F91250910F
:10261000FA128091FF1290910013209131133091A2
:1026200032130091BB0F1091BC0F2090EB12609100
:10263000F5121093B7140093B614F093B914E09305
:10264000B8145092BB144092BA145093BD144093E6
:10265000BC149093BF148093BE143093C114209384
:10266000C0142092C2146093C314000F012F001FE6
:10267000110B11951A95EE0FEF2FEE1FFF0BF19531
:102680005F01BA94612C712C73016201CC0CDD1CCA
:10269000EE1CFF1CCC0CDD1CEE1CFF1CC40CD51C5E
:1026A000E61CF71C73E0F694E794D794C7947A95E8
:1026B000D1F756954795569547954C019694879432
:1026C000969487948D2D99279B878A87A52FBB2762
:1026D000BF83AE83E92DFF27F987E887D701C601BD
:1026E0009927AA27BB278B8B9C8BAD8BBE8B662330
:1026F00009F443C0623008F430C29CE0E92EF12CAA
:102700008E819F81B7010E94B251AE81BF81A81B0B
:10271000B90BBF83AE83CF01B7010E94B251E81B52
:10272000F90BF987E887188A1F861E861D862DC03B
:102730000091BB0F1091BC0F8091B6149091B7140B
:10274000E0910513F09106138017910709F4E1C198
:1027500040900713509008134091F9125091FA12CB
:102760008091FF1290910013209131133091321318
:102770002090EB126091F5125CCFFA01FF27FE87E3
:10278000ED87A4015527588B4F875091F012598B34
:10279000709191147D8F832F99279C8F8B8F30910F
:1027A000D6123A8BE12CF12C58E15D8320E0B80180
:1027B000882777FD8095982F69837A838B839C8304
:1027C000C501AA2797FDA095BA2F8F8B988FA98F47
:1027D000BA8FF8A2EF8E0AC02F5F4F8D58A14E5FBF
:1027E0005F4F58A34F8F263009F438C137FC02C021
:1027F0002311F2CF8F8D98A1880F991FAF8CB8A0AD
:102800008A0D9B1D880F991F8259954FFC01E85E28
:10281000FE4F3081332309F43AC1FC01E95EFE4FDB
:10282000B080BD823D81A32EB12C48E1A41AB1082D
:10283000888499848A0C9B1C0F8D18A1085D1F4EFB
:10284000F801EA57FD4FC080D180EE24D7FCE09418
:10285000FE2C69817A818B819C81C60ED71EE81E71
:10286000F91E8E819F818A0D9B1D97FD27C1422FE6
:102870006D852E8F0E949239C80ED91EE11CF11C65
:102880002E8DF7FC29C1C114D10471E0E706F104D3
:102890002CF0CC24CA94DC2CE12CF12CF801EE565F
:1028A000FD4F40805180662457FC6094762C8981CE
:1028B0009A81AB81BC81480E591E6A1E7B1E4F89CE
:1028C000588D698D7A8D440E551E661E771E422FD7
:1028D0004A5FC40197FCFDC06F852E8F0E9492391C
:1028E000480E591E611C711C2E8D77FCEEC04114E0
:1028F000510451E0650671042CF044244A94542C90
:10290000612C712C8A859B85222051F061E026166E
:1029100009F4F2C08A859B858A0D9B1D97FDF6C040
:10292000422F445F6B892E8F0E949239F801E25644
:10293000FD4F80809180AA2497FCA094BA2C880E29
:10294000991EA11CB11C2E8DB7FCBBC08114910433
:1029500081E0A806B1042CF088248A94982CA12C3C
:10296000B12C3989311104C05D8D552309F451C052
:10297000822F8595992787FD9095019620FF9BC012
:102980006FEF7FEF869FA001879F500D969F500DA0
:1029900011246B8D7C8D469FC001479F900D569FE3
:1029A000900D1124AA2797FDA095BA2FC80ED91E05
:1029B000EA1EFB1EF7FC9CC0C114D10471E0E706BF
:1029C000F1042CF0CC24CA94DC2CE12CF12C480E20
:1029D000591E6A1E7B1E77FC87C041145104E1E03A
:1029E0006E0671042CF044244A94542C612C712CF2
:1029F000880E991EAA1EBB1EB7FC72C081149104DA
:102A0000F1E0AF06B1042CF088248A94982CA12C14
:102A1000B12CAA88F801AA2009F43EC0EE5AFD4F55
:102A2000D182C082F801E25AFD4F51824082F80102
:102A3000E659FD4F918280822110CECEF801EA5BEB
:102A4000FD4F91828082C8CE6091C2142612B7C019
:102A50006091F5127091C3146713EBCDA0960FB679
:102A6000F894DEBF0FBECDBFDF91CF911F910F91C4
:102A7000FF90EF90DF90CF90BF90AF909F908F909E
:102A80007F906F905F904F903F902F9008953C857E
:102A90003F3F09F0A1CEC6CEE25DFD4FD182C0829C
:102AA000F801E65CFD4F51824082F801EA5BFD4F80
:102AB0009182808291CE61E070E064CF80E090E00E
:102AC000D6CE812C912C540141CF412C512C320176
:102AD0000ECF80E090E000CFC12CD12C7601D3CE78
:102AE000812C912C54018ACF412C512C320175CF6D
:102AF000C12CD12C760160CFB7FC34C0B594A7941B
:102B00008A859B858A0D9B1D97FF0ACF80E090E008
:102B100007CF8091B8149091B9144090071350904A
:102B20000813E817F90709F017CE8091BA149091AD
:102B3000BB144091F9125091FA1248165906B1F09F
:102B40008091FF1290910013209131133091321334
:102B50002090EB126091F5126CCD188A1F861E86AC
:102B60001D8613CE7FEFA71AB70AC8CF8091BC1479
:102B70009091BD144817590719F78091FF12909151
:102B800000132091BE143091BF148217930749F0AF
:102B900020913113309132132090EB126091F51295
:102BA00048CD20913113309132136091C01470914F
:102BB000C1142090EB122617370709F445CF609116
:102BC000F51237CDCF92DF92EF92FF92CF93909193
:102BD000E1122091E412992309F492C04091FD1270
:102BE0005091FE1260E070E0222309F483C0C0908F
:102BF0000313D0900413E12CF12C8823A1F0992326
:102C000081F08091EA1285FD0CC08091361290917E
:102C10003712AA2797FDA095BA2F480F591F6A1F90
:102C20007B1F211172C0CFB7F8944115510521E0E7
:102C30006207710524F04FEF5FEF60E070E0DB01A9
:102C4000CA0177FD77C0B0D646EC41BB469A31E069
:102C500035B921E428B950EF5BB992EA9EB987E80B
:102C600081BB00C000C041BB469A35B928B960E7B6
:102C70006BB99EB981BB00C000C041BB469A35B953
:102C800028B95BB99EB981BBD701C601C114D10473
:102C900021E0E206F10424F08FEF9FEFA0E0B0E026
:102CA000B7FD44C081D646EC41BB469A31E035B908
:102CB00027E428B950EF5BB992EA9EB987E881BB57
:102CC00000C000C041BB469A35B928B960E76BB96E
:102CD0009EB981BB00C000C041BB469A35B928B936
:102CE0005BB99EB981BBCFBFCF91FF90EF90DF90D2
:102CF000CF900895CC24CA94DC2CE12CF12C7DCF0C
:102D00004FEF5FEF60E070E06FCF8091EA1284FDDB
:102D10008ACF8091361290913712AA2797FDA095FD
:102D2000BA2FC80ED91EEA1EFB1E7DCF80E090E0B0
:102D3000DC01B8CF80E090E0DC0185CFEF92FF921C
:102D40000F93CF93DF931F92CDB7DEB77B01611551
:102D5000710539F40F90DF91CF910F91FF90EF90B3
:102D60000895842F298301DB298182E0E816F1048C
:102D700088F3822FFADAE2E0EE16F10459F3802F9D
:102D80000F90DF91CF910F91FF90EF90EECAFC0171
:102D900026893789468D578DAA27429FB12D539F8B
:102DA000C001349FB00D811D9A1F529FB00D811D2F
:102DB0009A1F112480A391A340955095AA27429F62
:102DC000B12D539FC001349FB00D811D9A1F529F9A
:102DD000B00D811D9A1F112482A393A340855185B4
:102DE0006285738540835183628373830895FF9264
:102DF0000F931F93CF93DF93EC01F62E1C821D825D
:102E00001E821F820E891F896CA17DA1CB01A0E0CB
:102E1000B0E077276627980140E050E00E949E5678
:102E20003F8F2E8FF11019C084E089A719A218A234
:102E3000B801C9010E94A4349BA38AA388899989F7
:102E4000AA89BB8988839983AA83BB83FFA2DF9168
:102E5000CF911F910F91FF90089581E089A7CE0136
:102E600096DFFFA2DF91CF911F910F91FF90089500
:102E7000CF93DF93E6E8FBE0A8E8BBE080E090E0DA
:102E80005AE26FEF11C0589F9001599F300D1124E5
:102E9000E901CC5DDE4E49A5411127C001963C9663
:102EA0001C9686309105F1F02081222361F3589F12
:102EB000E001599FD00D1124CC5DDE4E29A52111D2
:102EC000EDCF10821C92EF0121976883EF012297CA
:102ED000688320812223B9F201963C961C968630A5
:102EE000910511F7DF91CF9108951FA21DA21CA299
:102EF0001C821D821E821F821F8E1E8E19A619A281
:102F000018A21BA21AA2188219821A821B82E90136
:102F1000C85DDF4E1FA21DA21CA21C821D821E8244
:102F20001F821F8E1E8E19A619A218A21BA21AA2FA
:102F3000188219821A821B82B1CF809123108E7F52
:102F40009091DF1291118160809323100E94A81F3D
:102F500080912310877F9091E21291118860809375
:102F60002310F6D7809123108D7F9091E01291115C
:102F7000826080932310ECD7809123108F7E9091F4
:102F8000E3129111806180932310E2D78091231086
:102F90008B7F9091E5129111846080932310D8D794
:102FA000809123108F7D9091E61291118062809321
:102FB0002310CED7809123108F7B9091E71291112F
:102FC000806480932310C4C76F927F929F92AF92C8
:102FD000BF92CF92DF92EF92FF920F931F93CF9306
:102FE000DF931F92CDB7DEB743EE642E4FE0742E11
:102FF00060E008E010E056ECC52EDD24D39470EFBD
:10300000B72EE7E8EE2EF301819191913F0138EF61
:10301000F32EF62A262F269526952695A80102C07E
:10302000440F551F2A95E2F7942E90949F20AFB637
:10303000F8946983B9D4C1BA469A3F2D330F3670DC
:1030400031649F2D96959270906AD5B838B9BBB807
:103050009EB9E1BA55E05A95F1F70000C1BA469A17
:10306000792D770F492D4695592D551F5527551FF9
:10307000872F8670582B5064292D2071872F880F39
:103080008072822B707C872B4270406AD5B858B909
:103090008BB94EB9E1BA8AE08A95F1F700C0C1BA9E
:1030A000469AD5B838B9BBB89EB9E1BAEAE0EA9514
:1030B000F1F700C0AFBE69816F5F603209F0A3CF46
:1030C0000F90DF91CF911F910F91FF90EF90DF90C4
:1030D000CF90BF90AF909F907F906F9039C7CF9364
:1030E000DF931092310A1092320A10922E0A109237
:1030F0002D0A1092300A10922F0A1092370A40E0DF
:1031000061E088E00E946D3B10921A101092191035
:103110005BDF2FEF82E597E0215080409040E1F7A0
:1031200000C00000C3E2D0E188818E7F888310D781
:1031300088818D7F88830CD78881877F888308D793
:1031400088818F7E888304D788818F7D888300D78C
:1031500088818F7B8883FCD688818B7F8883F8D693
:103160001092201010921F1010921C1010921B1021
:10317000109222101092211010921410109213101D
:1031800010921E1010921D1060E383E007D760E7D5
:1031900083E004D762EB83E0DF91CF91FFC66091BB
:1031A000750D663080F06C3038F06B5D86E60E94FD
:1031B000CA3B81E0C0D508CF655D82E60E94CA3B6C
:1031C00081E0B9D501CF6F5C81E60E94CA3B81E006
:1031D000B2D5FACECF92DF92EF92FF92CF93DF93E8
:1031E000D82FC9E1DCDFC150E9F71092C514109265
:1031F000C4146AE081E11AD7FBD6C12CD12C760128
:1032000028C060E082E012D761E088E00FD780E05C
:103210003DD760E181E00AD781E038D760E080E106
:1032200005D780E08BD760E180E000D760E080E1E7
:10323000FDD681E083D76AE080E0F8D6D150D8D6B9
:10324000C80ED91EE11CF11CAADF8091C61485307E
:1032500058F4D111D6CFB601C701DF91CF91FF90BD
:10326000EF90DF90CF900895CC24CA94DC2C7601A7
:10327000F2CF2F923F924F925F926F927F928F92F6
:103280009F92AF92BF92CF92DF92EF92FF920F93F5
:103290001F93CF93DF93CDB7DEB72D970FB6F8947A
:1032A000DEBF0FBECDBF682E6C83542E1092C614A5
:1032B00070E080E090E00E94F6529B01AC0160E07B
:1032C00070E080E090E40E94DD5424EA30ED42E8B2
:1032D00051E40E947A549B01AC0160E074E284EFF7
:1032E00099E40E9431521B01482E9983862D90E06B
:1032F0009F838E832C81235081E090E0022E01C0B9
:10330000880F0A94EAF78D839EE0792E00E010E89A
:10331000EE24EA94FE2CAE81BF81AA0FBB1FAD51F3
:10332000B04FBB83AA83E22FFF27E1950CF4F09501
:103330004F01AA2497FCA094BA2CFD86EC860AC003
:10334000EC85FD85E00FF11FFD87EC87169507954D
:103350007A9431F1462D60E0852D0E9492392C85BA
:103360003D858217930708F44EC06FEF7FEF8FE71C
:103370009FE7262F372F482F592FF980622D732D65
:10338000842D9F2D0E942A5287FDDACF2C853D8502
:10339000201B310B3D872C87169507957A94D1F623
:1033A000EC84FD848C8190E0880F991FFC01EE0F66
:1033B000FF1FEE0FFF1FEE0FFF1FE80FF91F8E819B
:1033C0009F81E80FF91FEE0FFF1FE859FC4EF182B5
:1033D000E08280E02D960FB6F894DEBF0FBECDBF21
:1033E000DF91CF911F910F91FF90EF90DF90CF90E1
:1033F000BF90AF909F908F907F906F905F904F9015
:103400003F902F900895AA81BB812D933C938D818D
:10341000E1DE6B017C016F3FBFEF7B078B079B07F2
:1034200029F1C501B4010E94F8529B01AC0160E092
:1034300070E080E090E40E94DD54562F472F382F33
:10344000292FC701B6012B873A87498758870E94E1
:10345000F652588549853A85F32E2B85E22F252F84
:10346000342F4F2D5E2F0E947A5483CF8FEFB2CF2F
:103470000F931F93CF93DF93182F8093750DC62F53
:10348000D0E02296DE01AA0FBB1FA152B04F2FEF52
:103490003FEF2D933C938C3008F062C003E04CE08A
:1034A000602F812FE6DE811103C00F5F0730B9F76F
:1034B000E12FF0E0DF01AA0FBB1FAC52BC4E4D91D3
:1034C0005C91CA01880F991FDF01AA0FBB1FA8508A
:1034D000BC4E2D913C91821B930BDF01AA0FBB1FA9
:1034E000A055BC4E8D939C939C01220F331F241B2F
:1034F000350BDF01AA0FBB1FA457BC4E2D933C9385
:10350000220F331FDF01AA0FBB1FA859BC4E281B77
:10351000390B2D933C93AF01440F551F4C595B4E13
:10352000CF01880F991F805C9B4EDC018D919C918F
:10353000880F991FEE0FFF1FE45EFB4E2081318143
:10354000821B930BFA0191838083CC0FDD1FC15244
:10355000D04F19821882DF91CF911F910F9134CDF6
:1035600004E044E2602F812F84DE811103C00F5FED
:103570000830B9F7E12FF0E0EE0FFF1FE850FC4EE6
:1035800043E0DF01949720813181220F331F84A112
:1035900095A1281B390B11963C932E934150FD01A8
:1035A0004F3F79F7D2CF3F924F925F926F927F92C7
:1035B0008F929F92AF92BF92CF92DF92EF92FF9243
:1035C0000F931F93CF93DF93CDB7DEB768970FB6F6
:1035D000F894DEBF0FBECDBF082F30905613C090B9
:1035E000790FD0907A0FE0907B0FF0907C0F809154
:1035F0000E0190910F012091120130911301409022
:103600001001509011015201A094B094AC01421BE2
:10361000530B5E834D83A20160E070E04F835887B7
:1036200069877A87409114015091150160911601C4
:10363000709117014B875C876D877E874901880EE3
:10364000991EB40180E090E06F87788B898B9A8B0C
:103650008091180190911901A0911A01B0911B015C
:103660008B8B9C8BAD8BBE8B9091551310E0632C94
:10367000772467FC7094C982DA82EB82FC82750140
:103680001EC0F301EE0FFF1FE356F04FC080D18044
:103690000E942C39882339F0EC14FD0408F051C045
:1036A000CC24CA94DC2CEF89F88DEE0FFF1FE75075
:1036B000FD4ED182C08291E01F5F1E3119F1A12E13
:1036C000B12CB88EAF8AF501E75BF94F80818F3F4F
:1036D00099F3011131C08315A1F2E82FFF27E7FD0F
:1036E000F09549815A816B817C81082E04C07695C2
:1036F0006795579547950A94D2F740FDC3CF1F5F52
:103700001E31E9F69093551368960FB6F894DEBF14
:103710000FBECDBFDF91CF911F910F91FF90EF9022
:10372000DF90CF90BF90AF909F908F907F906F90E1
:103730005F904F903F900895E82FFF27E7FDF095A9
:10374000A1CFC414D504D0F0C601A0E0B0E0AD8094
:10375000BE80CA14DB04A8F49C01AD01AF80B8841C
:10376000C984DA842A193B094C095D096B857C857B
:103770008D859E850E94A3516C0195CFC12CD12CC3
:1037800092CF8C149D0420F0C12CB0E8DB2E8BCF9F
:103790009C01AD01AF84B888C988DA882A193B0931
:1037A0004C095D096B897C898D899E890E94A35192
:1037B00090586C0178CFBF92CF92DF92EF92FF9238
:1037C0000F931F93CF93DF938C01BFB6F8940150F2
:1037D000110915950795159507950F5F1F4F80EFF8
:1037E0000E94B51180E00E94B51181E60E94B511DA
:1037F00086E10E94B51181E00E94B51110161106F4
:10380000B4F5C0E0D0E0FE01EE0FFF1FEE0FFF1F8A
:10381000E153F94EC080E180D280F3808C2D8F7708
:103820000E94B5118E2D8F770E94B5118D2D8F7747
:103830000E94B5118F2D8F770E94B5119D2D929505
:10384000969594703E2D3295369536953270932B21
:103850002F2D22952870922B8C2D881F8827881F4A
:10386000892B0E94B5112196C017D10764F287EF0A
:103870000E94B511BFBEDF91CF911F910F91FF90B4
:10388000EF90DF90CF90BF90089536EC20EE97E058
:10389000A0E8F7E4E7EE77EF62EE5FB7F89431BBAC
:1038A000469A27B99AB92DB915B8A8B99BB91EB8C7
:1038B000F1BB42E04A95F1F700C046B1B9B1BCB1E5
:1038C00031BB479AE7B97AB96DB95FBF55E05A95F0
:1038D000F1F7000042FFE1CF5FB7F89496EC91BB9F
:1038E000469A382F330F982F9695232F26702068ED
:1038F000482F441F4427441F242B80718360432F8B
:10390000440F4072842B307C832B9270906215B8E8
:1039100028B98BB99EB987E881BB85E08A95F1F714
:1039200000005FBF089586EC81BB469A15B896E803
:1039300098B993E09BB91EB897E891BBEFE9FFE017
:103940003197F1F700C0000081BB469A15B823E813
:1039500028B923E12BB922E02EB991BBFAE0FA9500
:10396000F1F700C081BB469A20EE27B997E09AB9DB
:103970002DB915B820E828B99BB91EB897E491BBBA
:1039800092E09A95F1F700C096B199B19CB181BBD4
:10399000479A87EE87B987EF8AB982EE8DB9EAE058
:1039A000EA95F1F700C008959C01232F332726954F
:1039B0002695722F66EC61BB469A522F550F452F04
:1039C00046704068207133272260352F330F3072E4
:1039D000322B507C352B272F26952270206215B86C
:1039E00048B93BB92EB957E851BB9695879596953E
:1039F0008795282F61BB469A482F440F382F36955C
:103A0000221F2227221F642F6670262B20688071B8
:103A100099278260942F990F9072982B407C942B59
:103A2000327015B828B99BB93EB951BB08951F93A0
:103A3000CF93DF93D82FD86F86958695869528E00B
:103A400030E001C0220F8A95EAF7C22FC095CD233E
:103A50001FB7F894CB01A8DFE6ECE1BB469A3D2FF7
:103A6000330F367031649D2F96959270906A71E095
:103A700075B938B9A0EFABB99EB967E861BB85E00D
:103A80008A95F1F70000E1BB469AFC2FFF0F4C2FFF
:103A900046955C2F551F5527551F8F2F8670582B25
:103AA0005064C0718F2F880F80728C2BF07C8F2B0D
:103AB0004270406A75B958B98BB94EB961BB8AE09A
:103AC0008A95F1F700C0E1BB469A75B938B9ABB930
:103AD0009EB961BB8AE08A95F1F700C01FBFDF91F4
:103AE000CF911F9108952F923F924F925F926F92C4
:103AF0007F928F929F92AF92BF92CF92DF92EF927E
:103B0000FF920F931F93CF93DF93CDB7DEB7289724
:103B10000FB6F894DEBF0FBECDBF8D832FB72E83B7
:103B2000F894282F259525952595259580E290E0F8
:103B300002C0959587952A95E2F79D819F70982BF5
:103B400086EC81BB469A492F440F292F2695392FA1
:103B5000331F3327331F842F8670382B30649071C6
:103B6000842F880F8072892B407C842B22702064E4
:103B700091E095B938B98BB92EB987E881BB35E0AA
:103B80003A95F1F700002D81332727FD30953A83D0
:103B90002983F901E951F94FC080D12C80E190E0EF
:103BA0008C199D092FEF3FEF082E02C036952795FF
:103BB0000A94E2F702C0220F331F8A95E2F73C8392
:103BC0002B83E12CF12C00E010E82FEF3FEF96EC77
:103BD000A92E40EEB42E57E0252E3324339460E412
:103BE000462E70E2572EE7E46E2EF7EE7F2EA7EFFB
:103BF0008A2EB2EE9B2E0AC0200F311F1695079514
:103C0000AFEFEA1AFA0ACE14DF042CF1C9012F83B0
:103C10003887CADE82E08A95F1F700C0A1BA469AD9
:103C2000B7B82AB8BDB835B848B81BB85EB861BADD
:103C300092E09A95F1F700C086B189B19CB1A1BA22
:103C4000479A77B88AB89DB82F81388585FDD4CF3B
:103C5000201B310BD3CF86EC81BB469A81E085B91E
:103C600087E488B980EF8BB982E48EB987E881BB9D
:103C7000B5E0BA95F1F70000EB81FC812E233F23DC
:103C8000E981FA81EE0FFF1FE356F04F3183208365
:103C9000232F3327E981FA81E758F04F848190E0A0
:103CA000821B930B97FD1DC0059704F53E813FBF16
:103CB00028960FB6F894DEBF0FBECDBFDF91CF912F
:103CC0001F910F91FF90EF90DF90CF90BF90AF903A
:103CD0009F908F907F906F905F904F903F902F902C
:103CE0000895919581959109059704F3248381E0C6
:103CF00090E0A0E0B0E00D8004C0880F991FAA1FDB
:103D0000BB1F0A94D2F74091790F50917A0F6091BE
:103D10007B0F70917C0F842B952BA62BB72B809358
:103D2000790F90937A0FA0937B0FB0937C0F2D8126
:103D30002093DE0FBBCFCF93882339F18091330AD4
:103D40008F5F8093330A853148F081E09091340A87
:103D50009111CDC08093340A1092330AC091370A72
:103D6000C11179C05091310A9091320AE091380A1C
:103D7000E13009F4DEC008F4AFC0E23009F4C4C099
:103D800020E0F0E0E35DF54F2487AFB7F89456EC00
:103D900051BB469A41E045B980E488B91BB880E23E
:103DA0008EB937E831BB00C000C080E190E00090E0
:103DB000380A02C0880F991F0A94E2F7282F51BBD6
:103DC000469A782F770F682F6695221F2227221F89
:103DD000972F9670292B20648071972F990F9072DE
:103DE000982B707C972B627045B928B99BB96EB936
:103DF00031BB00C000C0E091380AF0E0E35DF54F50
:103E0000848551BB469A582F550F982F9695252F8C
:103E100026702064682F661F6627661F262B682F72
:103E20006071852F880F8072862B507C852B927055
:103E3000906245B928B98BB99EB931BBAFBF8091AB
:103E4000380A90E0019663E070E00E94B2518093DE
:103E5000380ACF9108954091350A4F5F4093350A53
:103E6000ECE3FAE001900020E9F7ED53FA402091ED
:103E7000360A332727FD3095C90101966E2F772723
:103E800067FD70950E94B251F901E35DF54F2785FA
:103E900030E02038310588F15FEFE82FFF27E7FD9C
:103EA000F095E35DF54F278530E02038310550F57A
:103EB000F901E959F94F9081403108F457CF8093C7
:103EC000360A1092350A811151CF1C160CF04ECFD4
:103ED000C150C093370A4ACF20912D0A8091340AED
:103EE000882309F44ECF80912F0A28274ACF80E0FB
:103EF0008093340A1092330A31CFF901E959F94F0E
:103F00005081CBCF9FEFD8CF292F2F7780912D0ACB
:103F100090912E0A90FD206880912F0A9091300A8E
:103F200090FF2FCF8091340A882309F42ACF20589C
:103F300028CF252F2F7780912D0A90912E0A91FD61
:103F4000206880912F0A9091300A91FF1ACFEACF12
:103F50004FB7F8948091231096EC91BB469A382F76
:103F6000330F982F9695232F26702064582F551FB6
:103F70005527551F252B582F5071832F880F80727E
:103F8000852B307C832B9270906631E035B928B94F
:103F90008BB99EB987E881BB4FBF089596EC91BB62
:103FA000469A582F5695569556958295880F807E3D
:103FB000462F440F362F3695242F26702064962FD7
:103FC000991F9927991F292B6071942F990F90722F
:103FD000962B407C942B3270832B55B928B99BB912
:103FE0008EB987E881BB85E08A95F1F700000895D6
:103FF000CF93DF930E948233C82FD0E00E94823398
:10400000382F20E0C22BD32B60E081E0C7DF60E0D7
:1040100081E0C4DF61E082E0C1DF60E082E0BEDF1A
:10402000C095D095CE01DF91CF9108956095E5ECD4
:10403000F4E19081982B6923608386EC81BB469ADA
:10404000362F330F962F9695262F221F2227221FB9
:10405000832F8670282B20646071832F880F8072D5
:10406000862B307C832B9270906C31E035B928B967
:104070008BB99EB987E881BB85E08A95F1F700008E
:10408000E4ECF4E180818F5F80830895CF92DF922A
:10409000EF92FF920F931F93CF93DF9390E040E452
:1040A00052E46FE070E0F6ECE0EEC7E0DC2EEE24C8
:1040B000E394D0E4FD2E00E217E4D7EEC7EFB2EEB2
:1040C00005C0411551056105710571F1F1BB469AB5
:1040D000E7B9DAB8EDB9E5B8F8B81BB80EB911BB55
:1040E00022E02A95F1F700C0A6B1C9B0CCB0F1BB6F
:1040F000479AD7B9CAB9BDB9415051096109710987
:10410000A2FB222720F930E082179307D1F6452B36
:10411000462B472B49F0DF91CF911F910F91FF90D4
:10412000EF90DF90CF900895DF91CF911F910F9185
:10413000FF90EF90DF90CF900C94FB3ADF92EF92DC
:10414000FF920F931F93CF93DF9390E040E452E4EC
:104150006FE070E0F6ECE0EE17E0D12EEE24E39491
:1041600000E4F02E00E217E4D7EEC7EFB2EE05C090
:10417000411551056105710569F1F1BB469AE7B931
:10418000DAB8EDB9E5B8F8B81BB80EB911BB22E042
:104190002A95F1F700C0A6B1A9B1ACB1F1BB479A1D
:1041A000D7B9CAB9BDB94150510961097109A1FB1B
:1041B000222720F930E082179307D1F6452B462BB2
:1041C000472B41F0DF91CF911F910F91FF90EF901E
:1041D000DF900895DF91CF911F910F91FF90EF90A5
:1041E000DF900C94FB3ACF93DF93EAE6FDE0808109
:1041F000CCE6DDE0688190E070E00E94B251A091D1
:104200006D0DB0916E0DA80FB91F2C913FB7F894AA
:10421000808190E00196688170E00E94B2518083B5
:104220003FBF822FDF91CF9130CB0F931F93072F8A
:10423000069510E00F771127282F2F7740918E14C5
:104240004F704069E0916519F091661963E070E084
:1042500085E699E109951F910F9108950F93262FF7
:104260004F772F778F708068E0916519F09166190C
:10427000042F482F63E070E085E699E109950F91DE
:104280000895842F20918D1427FD09C06F7070E070
:10429000332727FD30956217730709F0089520E052
:1042A00040E050E060E00C949744842FE0918D143E
:1042B000E7FD09C06F7070E0FF27E7FDF0956E170E
:1042C0007F0709F00895422F50E0542F4427550FDF
:1042D00041505E4F61E0211101C060E020E00C948C
:1042E0009744CF92DF92EF92FF920F931F93CF9359
:1042F000DF9300D0CDB7DEB78091E912182F110FF0
:10430000180F1F5F8091E81280933A12809120125B
:1043100090912112A0912212B0912312892B8A2B05
:104320008B2B51F46091710D7091720D8091730D12
:104330009091740D0E941B560E9418566093201293
:10434000709321128093221290932312809138123D
:10435000181709F11093381280E292E10E94633439
:10436000A0913912BB27A1950CF4B095AA0FBB1FE1
:104370001196209128123091291240912A125091C1
:104380002B120E945D5660932C1270932D12809315
:104390002E1290932F128091D7129091D812A09143
:1043A000D912B091DA128F3F2FEF9207A207B2070E
:1043B00009F4B3C020912B1330912C1321153240F6
:1043C00008F074C04FEF5FEFE090AA12F090AB12CC
:1043D0000090F41202C0F694E7940A94E2F78091F8
:1043E000231390912413811562E0960708F4E7C027
:1043F0009C01325080912F139091301396958795A0
:10440000969587958115E2E09E0708F489C08C0196
:1044100012508091F612882309F488C0AA27249F9D
:10442000B12D359FC001529FB00D811D9A1F349F41
:10443000B00D811D9A1F11246091211370912213D8
:1044400080933012909331128091321290913312F6
:104450006817790721F080E292E10E948934C8014F
:10446000809590958E159F0508F0ACC00FEF1FEF5B
:1044700060912D1370912E1310934C1200934B12D8
:1044800080914D1290914E126817790709F48CC0F3
:104490008BE392E10F900F90DF91CF911F910F91DD
:1044A000FF90EF90DF90CF900C9489342091DB1235
:1044B0003091DC1240E050E0820F931FA41FB51F23
:1044C000C090710DD090720DE090730DF090740D4E
:1044D000C816D906EA06FB0600F1C090710DD0900F
:1044E000720DE090730DF090740DC81AD90AEA0AA3
:1044F000FB0AC216D306E406F50608F063CF9E2D2C
:104500008D2D7C2D66270E949E56F901EE0FFF1F10
:10451000E05EFC4F4081518157CF40E050E054CFE6
:1045200000E010E08091F612811178CFC9018095EA
:1045300090958E159F0508F048C02FEF3FEF6091D2
:1045400021137091221330933112209330128091F5
:104550003212909133126817790741F080E292E1AC
:1045600049835A830E9489345A814981AA27049F2A
:10457000B12D159FC001509FB00D811D9A1F149F32
:10458000B00D811D9A1F112460912D1370912E136F
:1045900080934B1290934C1280914D1290914E1239
:1045A0006817790709F074CF0F900F90DF91CF91C2
:1045B0001F910F91FF90EF90DF90CF90089520E032
:1045C00030E018CF0E0D1F1D53CF2E0D3F1DB7CF5E
:1045D0002F923F924F925F926F927F928F929F9213
:1045E000AF92BF92CF92DF92EF92FF920F931F9301
:1045F000CF93DF93CDB7DEB760970FB6F894DEBFE9
:104600000FBECDBF80901713909018139C868B8699
:10461000A0900F13B0901013BE86AD86212C312CC4
:10462000F3C083E0EF85F88980A7CF010E94D742CD
:104630009091ED12992309F40CC183E0ED81FE8184
:1046400080A7CF010E94D74290919114992309F439
:10465000FCC01595812F992787FD9095019620FE26
:10466000FAC04FEF5FEF849F9001859F300D949FBC
:10467000300D1124922F8827AC01662757FD6095D5
:10468000762F80911B1390911C134A015B01880EB9
:10469000991EA11CB11CD501C401B7FCF5C0209125
:1046A000191330911A136A017B01C20ED31EE11C4B
:1046B000F11CF7FCE5C020911513309116134A0147
:1046C0005B01820E931EA11CB11C89829A82AB826F
:1046D000BC82B7FCD0C020911313309114134A014F
:1046E0005B01820E931EA11CB11CB7FCC0C02091BF
:1046F0001113309112132A013B01420E531E611C0B
:10470000711C77FCB0C000910D1310910E13F801CD
:104710008A019B010E0F1F1F211D311D0F8318875A
:1047200029873A8737FD9AC009811A812B813C81FC
:1047300001151105F1E02F07310524F00FEF1FEFF0
:1047400020E030E0C982DA82EB82FC82C114D1041D
:1047500041E0E406F10444F04FEF5FEF60E070E009
:1047600049835A836B837C83BC01CD01611571053C
:1047700051E08507910524F06FEF7FEF80E090E036
:104780002FE0C22EE12CF12C2B853C8549815A81EA
:104790008F8598890E94CD430F81188529853A8598
:1047A0000115110561E02607310524F00FEF1FEF19
:1047B00020E030E0B301A2014114510481E0680619
:1047C000710424F04FEF5FEF60E070E0811491041A
:1047D00091E0A906B1042CF088248A94982CA12C8D
:1047E000B12C8FE0C82EE12CF12C2D853E85B40133
:1047F0008D819E810E94CD43EFEF2E1A3E0AF6E096
:104800002F16310409F444C0122D5AE2B52EB29C81
:10481000C001B39C900D11249C012C5D3E4E388B41
:104820002F872091EE12EF85F88926A39C01285D41
:104830003F4E3E832D839091EC12F90196A3909107
:10484000F8129111EECE81E0EDCE40E050E0BA01D9
:1048500018CF81E0F3CE41E050E005CF1F821886EB
:1048600019861A8661CF412C512C32014CCF812CF4
:10487000912C54013CCF19821A821B821C822BCFAF
:10488000C12CD12C760117CF80E090E0DC0107CF5E
:1048900060960FB6F894DEBF0FBECDBFDF91CF910B
:1048A0001F910F91FF90EF90DF90CF90BF90AF904E
:1048B0009F908F907F906F905F904F903F902F9040
:1048C0000895AF92BF92CF92DF92EF92FF920F9333
:1048D000CF93DF931092CF0B67E0A62E67E0B62E42
:1048E00077E8E72E7BE0F72EE8E8CE2EEBE0DE2E31
:1048F000E5014C2F4A1989919091CD0B892341F004
:10490000F7018081882321F0F60180818823A1F0BE
:10491000FCE0EF0EF11C8CE0C80ED11CE7E0CD30BE
:10492000DE0739F7DF91CF910F91FF90EF90DF9085
:10493000CF90BF90AF900895F701359720813181D6
:10494000F701329700E060E080810E941544F70192
:104950001082DECFCF938091650D8F3FA9F0C82FD5
:10496000CF778091670D8C0F20E040E050E060E051
:10497000885E0E9497446091670D6C0F685E40E00E
:1049800080918E14CF916ACCCF9108959F92AF926F
:10499000BF92CF92DF92EF92FF920F931F93CF932C
:1049A000DF93182F962E8091690D811709F443C06B
:1049B000D1DF8FEF9FEF9093640D8093630D8FEFA6
:1049C0008093650D40E850E06FEF70E083EE9CE06F
:1049D0000E94B455F7E0AF2EF7E0BF2EA7E8EA2E0D
:1049E000ABE0FA2EB9E8CB2EBBE0DB2EE5014C2F75
:1049F0004A1989919091CD0B892341F0D7018C916F
:104A0000882321F0F601808181115BC0BCE0EB0EB0
:104A1000F11CECE0CE0ED11CF7E0CD30DF0739F70A
:104A200080E1EEE6FAE0DF011D928A95E9F7109247
:104A3000CF0B111116C0911004C08091680D811127
:104A400029C01093690D9092680DDF91CF911F914D
:104A50000F91FF90EF90DF90CF90BF90AF909F901D
:104A60000895209190148FEF9FEF9093640D8093A1
:104A7000630D2111E0CF8091D00B8230E1F2809163
:104A8000580C8230C1F28FEF9FE7909325108093EE
:104A90002410D1CFA3EEBCE0FD019FEF05C03196FD
:104AA0008DE0E336F80749F0808187FFF8CF9083E7
:104AB000F6CFEDE0A336BE07A1F08D918F3FC9F38D
:104AC000C0CF379720813181F601349700E060E054
:104AD00080810E941544D7011C92F6013197108203
:104AE00095CF38DFAECF0F93CF934FB7F89436EC16
:104AF00031BB469A80EE87B997E09AB98DB981E0CB
:104B000085B980E488B91BB880E28EB987E481BB9F
:104B100052E05A95F1F700C026B199B18CB131BB82
:104B2000479AC22FC695C37050E8259F9001112463
:104B3000C22B292F2071C22B292F2695269528704C
:104B4000C22B96959076C92B90E0880F991F8470A0
:104B50009927C82B87EE87B987EF8AB982EE8DB97E
:104B60004FBF8091F012882381F08091C714C5FF58
:104B70002FC08C2785FD0EC0809190148230C1F02B
:104B8000C093C714CF910F9108958091C7148C27BB
:104B900085FFF2CF8091690D882341F161E0C5FD69
:104BA00060E0F4DE0E944B4780919014823041F720
:104BB000C0FFE6CF8091C71480FDE2CF8091DD1267
:104BC0008E5F8093DD12C093C714CF910F9108952B
:104BD00085FFCFCF0E943D1186E0E6ECFBE0A5E328
:104BE000B3E101900D928A95E1F7C6CFC5FF11C0E0
:104BF00068DE00E040918E144F70406BE0916519C3
:104C0000F091661920E463E070E085E699E109958A
:104C1000B3CF81E08093CF0B0FE7ECCFCF938091A0
:104C2000690D882399F0E3EEFCE004C08DE0E336E3
:104C3000F80761F081918F3FC9F38CDE8091690D97
:104C40008230E1F0833019F1813009F1CF9108957C
:104C5000615071098109910960687F6F8F6F9F6F43
:104C60006F5F7F4F8F4F9F4FFB017093640D609379
:104C7000630DED51F34F80818F3F21F50E9418564F
:104C80006F7777278827907897FFEECFE1CF209135
:104C9000630D3091640D07C09C01FC01ED51F34F91
:104CA00040814F3F59F4C90101968F77907897FF63
:104CB000F3CF019780689F6F0196EECF8093630DCD
:104CC0009093640DC081CF778091660D885E20E05F
:104CD00040E050E861E08C0F0E9497448091660D9F
:104CE000885E60E070E88C0FA0DAE091630DF091CF
:104CF000640DED51F34F80818093650D8091660DB9
:104D00008093670DCF910895BF92CF92DF92EF927B
:104D1000FF920F931F93CF93DF938C017C0181E867
:104D2000E80EF11CF70180818823B9F1E801CC5726
:104D3000DF4F8881998197FD30C0F801E80FF91F96
:104D400081816801F7E8CF0ED11C22C098E1B92E0D
:104D5000B80EF6018081B80E20E040E050E060E03F
:104D60008B2D0E94974440E06B2D80918E1476DA53
:104D7000888199810196F701608170E00E94B251AB
:104D800099838883F801E80FF91F818187FF05C0A7
:104D90008F73982F9E539230C8F6DF91CF911F9159
:104DA0000F91FF90EF90DF90CF90BF9008958F927A
:104DB0009F92AF92BF92CF92DF92EF92FF920F93AA
:104DC0001F93CF93DF931F92CDB7DEB700E010E0C3
:104DD00038E8B32EB09E4001B19E900C112480EDB6
:104DE0009BE0880E991ED4018C91823099F00F5F60
:104DF0001F4F0230110571F70F90DF91CF911F9176
:104E00000F91FF90EF90DF90CF90BF90AF909F9069
:104E10008F9008956401B1E8CB0ED11CF60180811A
:104E2000882329F37401F2E8EF0EF11CD701ED910C
:104E3000FC91E80DF91D41814E33B1F0C401498365
:104E400063DF4981842F8E53823070F0F401EC5778
:104E5000FF4FD7012D913C91318320838091E00C4D
:104E6000F401E957FF4F80834F73842F8E538230B4
:104E700088F028E1A22EA40E8091E00CA80E20E07C
:104E800040E050E861E08A2D0E94974460E070E8BD
:104E90008A2DCBD9F701808191810196D6016C9141
:104EA00070E00E94B25191838083F401E80FF91FF2
:104EB000418147FDD9CF9BCF6F927F928F929F9276
:104EC000AF92BF92CF92DF92EF92FF920F931F9318
:104ED000CF93DF931F92CDB7DEB7C62EE82EFF2407
:104EE000E7FCF094282F38E82303800111240053B5
:104EF000144FD8018C916817E9F09091D00BDD2404
:104F0000D394923029F09091580C923009F0D12C22
:104F1000882301F1833009F407C1823009F439C1D3
:104F2000B2E0CB1609F455C0E3E0CE1609F4E2C0B6
:104F3000D801CC920F90DF91CF911F910F91FF90EC
:104F4000EF90DF90CF90BF90AF909F908F907F9029
:104F50006F9008955801BFEFAB1ABB0A9FB6F89443
:104F600061E0C70188539F4F0E943436882309F4BB
:104F700002C13801E1E86E0E711CE091760FF091EC
:104F8000770F8191F093770FE093760FD5018D9392
:104F90005D01A615B705A9F79FBEF3011082D801E0
:104FA000AA57BF4F1C9280E006C08F5FF301808339
:104FB000803809F4B5CFF801E80FF11D918197FD14
:104FC00003C02C912F5F2C939F3F79F7B2E0CB1257
:104FD000ABCFC090901488E88E9DF0018F9DF00DAE
:104FE0001124E053F44F8081823009F4D5C028E8C1
:104FF0002E9DC0012F9D900D11248053944FFC01D4
:10500000EE57FF4F11821082FC01EC57FF4F2FEF3C
:105010003FEF31832083CC2009F471C082E0F80196
:1050200080838091261090912710DD2009F482CF93
:105030008F3FBFEF9B0709F47DCF96958795209111
:105040002410309125102817390708F073CF380144
:10505000E1E86E0E711CD3018C91882309F46ACFAC
:105060007801B2E8EB0EF11CD701ED91FC91E00F55
:10507000F11F21812E33B1F0C801298345DE29813A
:10508000822F8E53823070F0F801EC57FF4FD7011A
:105090008D919C91918380838091E00CF801E95778
:1050A000FF4F80832F73822F8E53823088F048E128
:1050B000D42ED20E8091E00CD80E20E040E050E8D3
:1050C00061E08D2D0E94974460E070E88D2DADD891
:1050D000F701808191810196D3016C9170E00E946B
:1050E000B25191838083F801E80FF91F218127FDD8
:1050F000D9CF20CF1092E10CD801CC921BCF809158
:10510000D00B823009F48ACF8091580C823009F498
:1051100085CF8091690D811181CF8FEF9FE79093AB
:105120002510809324107ACF4801FFEF8F1A9F0A31
:10513000BFB6F8940E949F37E091760FF091770FF9
:10514000C8018F579F4FD4012D914D012083E091CD
:10515000760FF091770F3196F093770FE093760FFB
:10516000A817B90781F761E0C70188539F4F0E94D4
:10517000BC37BFBED5CE9FBE40E850E06FEF70E0B9
:10518000C5010E94B45561E8662E712C600E711E37
:1051900004CFC801B9DDC4CEC801B6DD28CFAF92B7
:1051A000BF92CF92DF92EF92FF920F931F93CF9314
:1051B000DF9300D0CDB7DEB76C017B018091671320
:1051C00081115BC0042F017040FD48C0142F127084
:1051D00041FD3CC021110DC00F900F90DF91CF9188
:1051E0001F910F91FF90EF90DF90CF90BF90AF9005
:1051F0000895002351F08091C8149091C9148C2512
:105200009D258C7F892B09F0F5C0112329F380910E
:10521000CA149091CB148E259F2588279E7F892BB9
:10522000D9F20F2D069540918E144F70406BE0918E
:105230006519F091661921E063E070E085E699E177
:105240000995F092CB14E092CA14C6CFF092AB123B
:10525000E092AA122A8345D82A81BCCFD092AD12FF
:10526000C092AC122A8349830E945F3A6FEF81E0BB
:105270000E94DE1249812A81A9CF60E070E05FEFD1
:10528000FB01EE0FFF1FE60FF71FEE0FFF1FEE0FE4
:10529000FF1FE258F44F92859923F1F0852F99274B
:1052A00087FD9095DC01AA0FBB1FA80FB91FAA0F9D
:1052B000BB1FAA0FBB1FA258B44F008111812281CE
:1052C00033818D919D910D90BC91A02D80179107F8
:1052D000A207B30708F4562F6F5F7F4F6630710542
:1052E00079F65F3F09F478CF852F992787FD909550
:1052F000FC01EE0FFF1FE80FF91FEE0FFF1FEE0F6F
:10530000FF1FEB57F44F808140FD66CF41FF64CF14
:105310001BEA819F112D1124169516951695912F34
:10532000990F910F990F990F182F191BB70180E052
:1053300090E00E94F65220E830E040E857E30E94F7
:105340007A546B017C01612F70E080E090E00E9454
:10535000F65220E030E040E05FE30E94C5519B013F
:10536000AC01C701B6010E94C651D62EE72EF82E19
:10537000092F20E030E0A9010E942A5287FD57C082
:1053800020E030E040E451E46D2D7E2D8F2D902FF4
:105390000E94065418162CF4D12CE12C20E4F22E95
:1053A00001E4A12EB12CAA0CBB1C8BE393E1A80E47
:1053B000B91E2BEA3AEA4AEA55E46D2D7E2D8F2D6F
:1053C000902F0E947A540E94CA52F5017183608323
:1053D0000E945F3A6FEF81E00F900F90DF91CF91C5
:1053E0001F910F91FF90EF90DF90CF90BF90AF9003
:1053F0000C94DE12C60190589C0135952795359581
:105400002795092F06952F77332740918E144F70DB
:10541000406EE0916519F091661963E070E085E6F1
:1054200099E10995D092C914C092C814EECED12C3E
:10543000E12CF12C00E0B5CF80918D1487FD09C0DF
:105440006F7070E0992787FD90956817790709F0CC
:10545000089580E8289F90011124242BC9019052BF
:1054600020E041E060E070E0880F991F880F991FED
:1054700096CE4F925F926F927F928F929F92AF9251
:10548000BF92CF92DF92EF92FF920F931F93CF9331
:10549000DF938091881490918914909301018093F7
:1054A0000001C0900401D09005017C01EC18FD08BA
:1054B000C80ED91EC0910201D091030197012C1B87
:1054C0003D0B40E050E0812C912CA12C60E8B62EE1
:1054D000C501B4010E949E5629013A01209306019C
:1054E0003093070140930801509309018E01009504
:1054F000109598012C193D0940E050E0C501B40118
:105500000E949E5649015A0120930A0130930B01D3
:1055100040930C0150930D018091BD0F9091BE0FEF
:1055200008171907B8F48FEF9FE720E041E060E02B
:1055300070E0DF91CF911F910F91FF90EF90DF907E
:10554000CF90BF90AF909F908F907F906F905F9023
:105550004F9025CE8C179D07C0F0AC0160E070E045
:105560008E159F0530F0C816D90690F080E090E0C7
:10557000DCCFCB01BA016C1B7D0B81099109A30122
:1055800092010E94A3519058D0CF80E090E8CDCFF7
:105590009A01AB012C193D0941095109C501B4011A
:1055A0000E94A35190589058C0CFCF93DF93CDB7AE
:1055B000DEB728970FB6F894DEBF0FBECDBF92E0DE
:1055C0009D8394E09E8397E09F839CE0988795E07D
:1055D000998393E09A8391E09B831C828230D9F176
:1055E000CCF0843009F461C06CF5DB01CA01817034
:1055F0009927AA27BB2721E082278093EC124270CB
:105600005527662777277595679557954795409352
:10561000ED1204C0882359F0813091F128960FB61D
:10562000F894DEBF0FBECDBFDF91CF910895440F38
:10563000551F661F771F8091E8128170842B80931D
:10564000E812ECCF853051F7FE01E40FF51F8181A0
:105650008093F412E3CFDB01CA0181709927AA2756
:10566000BB2721E082278093EE12427055276627E0
:10567000772775956795579547954093F812CECF44
:105680008091EA128B7C4130510561057105E1F092
:105690004230510561057105E9F04330510561055E
:1056A0007105B1F08093EA12B9CFFE01E40FF51F46
:1056B00085818093F21228960FB6F894DEBF0FBE54
:1056C000CDBFDF91CF91D5CE80618093EA12A6CF76
:1056D0008460E8CF80628093EA12A0CFCF92DF92FD
:1056E000FF920F931F93CF93DF931F92CDB7DEB737
:1056F00081E00E940C340E949D178091F01281116C
:1057000051C00E94201110918F148091CD0B181759
:1057100029F081E00E94BA101093CD0B1091F11284
:105720008091CC0B181739F081E00E94BA10133029
:10573000B8F51093CC0B0E9471210E94E8220E94C0
:105740005F3AF0909214BEE9CB2EB2E1DB2E2CE052
:105750000FEF1FEF09C0F601118300832F5FF2E006
:10576000CF0ED11C223191F0FF20A9F3422F60E02F
:105770008EE729830E949239F601918380832981E3
:105780002F5FF2E0CF0ED11C223171F70F90DF9125
:10579000CF911F910F91FF90DF90CF900C944B47CA
:1057A00010E0C7CF61E085E393E10E94DE10ABCF4C
:1057B000E82FF0E0E355F64F90819170803209F4C4
:1057C00056C078F0843209F44CC0A0F1863209F456
:1057D00045C008F058C09093E61281E080935513BD
:1057E0007DCF8C31C8F08C3109F444C08091CA0956
:1057F00081709091EA129473892B9091CB0990FD5E
:1058000047C090E0892B9091CC0990FF45C092E071
:10581000892B8093EA12E1CF8A31A8F08091C809E0
:1058200081709091C70990FD35C090E0892B8093DD
:10583000EB12D3CF8232C1F018F09093E212CDCFA9
:105840009093E012CACF883131F0893109F0089580
:105850009093E412C2CF9093E112BFCF9093E712DE
:10586000BCCF9093E312B9CF9093E512B6CF90934B
:10587000DF12B3CF9091C9098091E81290FB80F9B3
:105880008093E812AACF873211F79093F012A5CF38
:1058900098E0B8CF92E0CACF90E0BACFCF93809192
:1058A0008C148823C9F080918A1490918B140E94E3
:1058B000FC368823B9F080918C148823D1F067D707
:1058C0001092551381E090918C14911101C080E0E9
:1058D00080935313CF9108958BED90E00E94FC3696
:1058E0008111E9CF81E00E94B53580918C1481113E
:1058F000E6CFC8E18C2F5CDFCF5FC832D9F781E0FB
:105900000E94D31ADCCFCF93DF93C42FD22F809184
:105910008D1487FD0BC06F7070E0992787FD9095FF
:105920006817790719F0DF91CF910895C11135C03B
:1059300020918C14D23008F481C02223A1F38C2F43
:1059400080518E3198F18C2F80558E3108F04FC0E8
:10595000EC2FF0E0EE0FFF1FE75AFD4E4081518122
:105960002D2F30E0CA0196958795969587958F776C
:10597000992782179307B9F2CA0188279E7F220FC1
:10598000331F220F331F822B932B9183808381E05F
:1059900080935513DF91CF91A1CEC13009F461C03E
:1059A000C03409F469C020918C14C7CFEC2FF0E00B
:1059B000EE0FFF1FE752FD4E808191812D2F30E0C9
:1059C000AC01452F552746954217530709F4ABCF35
:1059D0008C7F9170322F2227330F822B932B918350
:1059E000808381E080935513DF91CF9177CE8C2F08
:1059F00080538A3108F097CFEC2FF0E0F0972D2FED
:105A000030E0DF01A15FB84F4C9187E090E0841B4C
:105A1000910902C0359527958A95E2F7822FDF011B
:105A2000A152BD4E9C91291709F43EC02C93C1E0B0
:105A3000719761F1CC2309F476CFA9CF622F772734
:105A400067FD70958D2F90E06817790709F475CF81
:105A5000D0938C140E947C3821DF40DE20918C147E
:105A60006CCF7D2F770F20E042E060E080E090E097
:105A700096DB20918C1461CFD11104C0DF91CF91BE
:105A80000C94612481E08093CF0B4DCF882371F07B
:105A90000E943D1186E0E6ECFBE0A5E3B3E1019056
:105AA0000D928A95E1F7C6CFC0E0C2CF0E942011C7
:105AB000F1CFCF93DF9320918D1427FD0BC06F7032
:105AC00070E0332727FD30956217730719F0DF91D7
:105AD000CF91089580918C148823C9F34436B8F788
