:1000000020C100003DC100003BC1000039C100001B
:1000100037C1000035C1000033C1000031C100000C
:100020002FC100002DC100000C94D93A0C94DA388D
:1000300027C1000026C1000023C1000021C100002B
:100040001FC100000C941B3B1BC1000019C1000024
:1000500017C1000015C1000013C1000011C100004C
:100060000FC100000DC100000BC1000009C100005C
:1000700007C1000005C1000003C1000001C100006C
:10008000FFC00000FDC00000FBC00000F9C0000080
:10009000F7C00000F5C0000005A84CCDB2D44EB9A1
:1000A0003836A9020C50B9918688083CA6AAAA2A1B
:1000B000BE000000803F08000000BE922449123EAE
:1000C000ABAAAA2ABECDCCCC4C3E00000080BEAB71
:1000D000AAAAAA3E00000000BF000000803F000066
:1000E000000000084178D3BB4387D1133D190E3C73
:1000F000C3BD4282AD2B3E68EC8276BED98FE1A9AA
:100100003E4C80EFFFBE01C4FF7F3F0000000000B7
:1001100007634236B79BD8A71A39685618AEBAABF0
:10012000558C1D3CB7CC5763BD6DEDFD753EF61784
:100130007231BF000000803F5761726E696E673A8E
:100140002061737369676E65725F676574566F6966
:10015000636546726F6D4E6F746520666F756E6471
:10016000206E6F20766F696365210A0062616420EA
:10017000666C697020666C6F70207374617475733F
:10018000203A20000A0000010000BD011200020018
:1001900000CF012200220000F1011500210000E142
:1001A000010900030000060204010309040A021405
:1001B00002030904200220000001C12600120100F0
:1001C0000200000020C016790400010102000109AC
:1001D000022200010100C0320904000001030000F6
:1001E00000092111010001221500070583032000E9
:1001F000010631FF0974A1537508150026FF00950B
:100200002009758102C004030904140359006F001A
:100210007500720020004E0061006D006500000056
:10022000200359006F007500720020005500530034
:10023000420020004400650076006900630065000C
:10024000000011241FBECFEFD0E2DEBFCDBF10E112
:10025000A2EAB9E001C01D92AF3EB107E1F719E093
:10026000A0E0B1E0E2EBFBE900E00BBF02C00790C9
:100270000D92A23AB107D9F70E94253B0C94D74DB5
:10028000BFCE1F920F920FB60F9211240BB60F9292
:100290002F923F924F925F926F927F928F929F9296
:1002A000AF92BF92CF92DF92EF92FF920F931F9384
:1002B0002F933F934F935F936F937F938F939F936E
:1002C000AF93BF93EF93FF93CF93DF93CDB7DEB799
:1002D000AB97DEBFCDBF8091F50E982F9F7199240B
:1002E00093949111912C982F937069F48091F40E4E
:1002F00081110C94790D892D0E941637892D0E9449
:1003000059158091F50E8F5F8093F50E1091730E45
:10031000112311F40C940B114090610E5090620E59
:100320006090630E7090640E472D552766277727DF
:10033000452B462B472B11F00C942E0D6091650E2A
:100340007091660E8091670E9091680E123011F4D4
:100350000C946E0D143011F40C94201120916D0E3C
:1003600030916E0EDC01CB01840D951DA61DB71DCD
:100370008093610E9093620EA093630EB093640E0F
:1003800040E050E0305841095109A091690EB09108
:100390006A0E0E947E4D2FEF3FEF40E050E00E943A
:1003A0008E4DC9013093700E20936F0E2091C10EB7
:1003B00021FD02C00C94B4101C0122FD02C00C945B
:1003C000B80F9BA38AA324FF02C00C94BE0F009118
:1003D000BC0B1091BD0B20E030E010582109310911
:1003E0008091A60B85FF02C00C941311A12CB12C97
:1003F00080910B0C8824839481110C94750F7724C1
:10040000739421E030E03DA32CA3882011F40C94D8
:10041000860F8091F60B8095881F8827881F982F5C
:1004200097259B8F882311F40C94A11181E59CE002
:100430000E94D73289E59DE00E94D7322091750C49
:100440003091760C6101EE24D7FCE094FE2CA501DE
:10045000AA27429FB12D5303C001349FB00D811DC7
:100460009A1F52039A0BB00D811D9A1F1124AA27BF
:1004700097FDA095BA2F8C0D9D1DAE1DBF1D4091FF
:10048000740E5091750E840F951FA11DB11DB7FFFD
:1004900002C00C943112009751E0A507B10524F079
:1004A0008FEF9FEFA0E0B0E07FB7F894AC01452F4D
:1004B000552746954695A42F66EC61BBE8B1E06CE4
:1004C000E8B9F42FFF0FEF2FE670E0684071552771
:1004D00042605F2F550F5072542BF07C5F2BA69516
:1004E000A270A06215B8E8B95BB9AEB957E851BBC4
:1004F0009695879596958795482F61BBE8B1E06CF6
:10050000E8B9F82FFF0FE82FE695441F4427441F52
:10051000AF2FA6704A2B40688071992782609F2F69
:10052000990F9072982BF07C9F2BE27015B848B908
:100530009BB9EEB951BB61BB88B1806C88B991E0C1
:1005400095B981E488B980ED8BB980EA8EB951BB49
:1005500061BB88B1806C88B995B987E488B980EFB0
:100560008BB982EA8EB951BB7FBF8091800E90918A
:10057000810EB701A601480F591F611D711DDB01D6
:10058000CA0177FF02C00C943B12009751E0A50707
:10059000B10524F08FEF9FEFA0E0B0E07FB7F894B3
:1005A000AC01452F552746954695A42F66EC61BBB7
:1005B000E8B1E06CE8B9F42FFF0FEF2FE670E068C8
:1005C0004071552742605F2F550F5072542BF07CBD
:1005D0005F2BA695A270A06215B8E8B95BB9AEB959
:1005E00057E851BB9695879596958795482F61BB9F
:1005F000E8B1E06CE8B9F82FFF0FE82FE695441F4B
:100600004427441FAF2FA6704A2B4068807199275A
:1006100082609F2F990F9072982BF07C9F2BE27035
:1006200015B848B99BB9EEB951BB61BB88B1806CB4
:1006300088B941E045B985E488B980ED8BB992EA83
:100640009EB951BB61BB88B1806C88B945B987E45C
:1006500088B980EF8BB99EB951BB7FBFAA27029F93
:10066000B12D1303C001309FB00D811D9A1F1203DD
:100670009A0BB00D811D9A1F11242AA13BA144277A
:1006800037FD4095542F2EA33FA348A759A7AA276B
:1006900097FDA095BA2F820F931FA41FB51F20911D
:1006A0008C0E30918D0E820F931FA11DB11DB7FFCF
:1006B00002C00C943612009731E0A307B10524F074
:1006C0008FEF9FEFA0E0B0E0AFB7F8949C01232F2D
:1006D000332726952695722F46EC41BB58B1506CB6
:1006E00058B9622F660F562F567050682071332705
:1006F0002260362F330F3072322B607C362B76958A
:100700007270706215B858B93BB97EB957E851BBE1
:100710009695879596958795282F41BB38B1306C73
:1007200038B9682F660F382F3695221F2227221FCF
:10073000762F7670272B2068807199278260962FFC
:10074000990F9072982B607C962B327015B828B94F
:100750009BB93EB951BB41BB88B1806C88B961E09F
:1007600065B981E488B980EE8BB972EA7EB951BB74
:1007700041BB88B1806C88B965B9F7E4F8B9E0EF9E
:10078000EBB97EB951BBAFBF80917D0D90917E0DCD
:10079000AFB7F8949C01232F332726952695522E28
:1007A00041BBB8B1B06CB8B9622E660CB62DB6704C
:1007B000B068207133272260362D330F3072322B10
:1007C000262D207C322B252D26952270206215B8EF
:1007D000B8B93BB92EB951BB969587959695879533
:1007E000282F41BB38B1306C38B9B82FBB0F382F28
:1007F0003695221F2227221F0F2EF6E06F2EF02D96
:100800006B22262920688071992782609B2F990F7F
:100810009072982BB07C9B2B327015B828B99BB97D
:100820003EB951BB41BB88B1806C88B965B985E4DC
:1008300088B980EB8BB980EA8EB951BB41BB88B1D6
:10084000806C88B965B9F8B9EBB97EB951BBAFBF57
:100850008091F70B8095881F8827881F68276C8FE9
:10086000882309F419C281100C94BD11482C512C15
:100870008CE2849DF001859DF00D1124EF5AF34F19
:1008800044A155A15BA74AA7B501AA27649FB12D32
:100890007503C001569FB00D811D9A1F74039A0BFA
:1008A000B00D811D9A1F1124AA2797FDA095BA2F7C
:1008B0008C0D9D1DAE1DBF1D672C660C7708F301C6
:1008C000EC58F14F20813181820F931FA11DB11D82
:1008D000B7FF02C00C94F411009771E0A707B105AF
:1008E00024F08FEF9FEFA0E0B0E0EFB7F8949C0109
:1008F000232F332726952695722F46EC41BB58B1FE
:10090000506C58B9622F660F562F56705068207180
:1009100033272260362F330F3072322B607C362B18
:1009200076957270706215B858B93BB97EB937E8E0
:1009300031BB9695879596958795282F41BB58B1E1
:10094000506C58B9682F660F582F5695221F2227D2
:10095000221F762F7670272B20688071992782605E
:10096000962F990F9072982B607C962B527015B829
:1009700028B99BB95EB931BB41BB88B1806C88B9DD
:1009800081E085B993E498B990ED9BB990EA9EB95E
:1009900031BB41BB98B1906C98B985B987E488B9EF
:1009A00080EF8BB982EA8EB931BBEFBFF301E0581B
:1009B000F14F80819181C80ED91EE11CF11CF7FE18
:1009C00002C00C941412C114D10481E0E806F104B1
:1009D0002CF0CC24CA94DC2CE12CF12C3FB7F894F9
:1009E000C601892F992786958695682F26EC21BB0D
:1009F00048B1406C48B9582F550F452F4670406894
:100A0000807199278260952F990F9072982B507C56
:100A1000952B66956270606215B848B99BB96EB93E
:100A200097E891BBD694C794D694C7948C2D21BBDC
:100A300048B1406C48B95C2D550F4C2D4695881F28
:100A40008827881F652F6670862B8068B6016071C5
:100A50007727762F7260652F660F6072672B507C48
:100A6000652B427015B888B96BB94EB991BB21BBE3
:100A700088B1806C88B951E055B947E448B980ED38
:100A80008BB982EA8EB991BB21BB28B1206C28B901
:100A900055B948B920EF2BB98EB991BB3FBF2AA5F4
:100AA0003BA5AA27029FB12D1303C001309FB00DB3
:100AB000811D9A1F12039A0BB00D811D9A1F1124DC
:100AC000AA2797FDA095BA2F4EA15FA168A579A589
:100AD000840F951FA61FB71FF301E457F14F208124
:100AE0003181820F931FA11DB11DB7FF02C00C946D
:100AF0000F12009751E0A507B10524F08FEF9FEF8B
:100B0000A0E0B0E0EFB7F8949C01232F332726959F
:100B10002695722F56EC51BB48B1406C48B9622FF4
:100B2000660F462F46704068207133272260362FAB
:100B3000330F3072322B607C362B272F2695227094
:100B4000206215B848B93BB92EB947E841BB969524
:100B5000879596958795282F51BB38B1306C38B959
:100B6000682F660F382F3695221F2227221F762FD7
:100B70007670272B2068807199278260962F990FB5
:100B80009072982B607C962B327015B828B99BB95F
:100B90003EB941BB51BB88B1806C88B961E065B991
:100BA00083E488B980EE8BB972EA7EB941BB51BB50
:100BB00088B1806C88B965B9A7E4A8B9B0EFBBB9B2
:100BC0007EB941BBEFBF8CE2849DF001859DF00DA5
:100BD0001124E358F24F80819181EFB7F8949C0182
:100BE000232F332726952695E22E51BBF8B1F06CC2
:100BF000F8B9F22EFF0CFF2DF670F0682071332744
:100C000022603F2D330F3072322B2F2D207C322B60
:100C10002E2D26952270206215B8F8B93BB92EB951
:100C200041BB9695879596958795282F51BB38B1EE
:100C3000306C38B9F82FFF0F382F3695221F222736
:100C4000221F0F2EF6E0FF2EF02DFF222F29206805
:100C50008071992782609F2F990F9072982BF07C5A
:100C60009F2B327015B828B99BB93EB941BB51BB17
:100C700088B1806C88B965B9A8B980EB8BB980EA76
:100C80008EB941BB51BB88B1806C88B965B9A8B930
:100C9000BBB97EB941BBEFBF8091F80B8095881F2F
:100CA0008827881F91E098279D8F882309F433C2F5
:100CB00081100C94E311282D220F30E08CE2829FEA
:100CC000F001839FF00D1124EF5AF34F44A155A179
:100CD0006101EE24D7FCE094FE2CB501AA27649FA5
:100CE000B12D75032001569FB00D411C5A1E74038F
:100CF0005A0AB00D411C5A1E11248CA1880F90E095
:100D0000662457FC6094762C4C0C5D1C6E1C7F1C7A
:100D1000880F991FFC01EC58F14F0190F081E02DF4
:100D20004E0E5F1E611C711C77FE02C00C942C12CB
:100D30004114510471E0670671042CF044244A9474
:100D4000542C612C712CB2014FB6F894FB01EF2F9B
:100D5000FF27E695E6955E2EA6ECA1BBB8B1B06C78
:100D6000B8B96E2E660CB62DB670B068E071FF276C
:100D7000E260F62DFF0FF072FE2BE62DE07CFE2BDD
:100D8000E52DE695E270E06215B8B8B9FBB9EEB9A9
:100D9000F7E8F1BB7695679576956795E62FA1BB49
:100DA00078B0B0EC7B2A78B8662E660C762E7694F6
:100DB000EE1FEE27EE1FB6E05B2E5620E529E06819
:100DC000607177276260762D770F7072762B662DB3
:100DD000607C762B62E0762215B8E8B97BB97EB8E4
:100DE000F1BBA1BB68B1606C68B971E075B965E42D
:100DF00068B960ED6BB960EA6EB9F1BBA1BB68B1CF
:100E0000606C68B975B967E468B960EF6BB962EA9C
:100E10006EB9F1BB4FBEFC01E058F14F60817181AA
:100E2000C60ED71EE11CF11CF7FE02C00C9427125F
:100E3000C114D10471E0E706F1042CF0CC24CA946B
:100E4000DC2CE12CF12CEFB6F894B601672F772754
:100E500066956695F62EE6ECE1BBA8B1A06CA8B944
:100E6000B62FBB0FAB2FA670A068607177276260AA
:100E70007B2F770F7072762BB07C7B2B6F2D669556
:100E80006270606215B8A8B97BB96EB977E871BBBA
:100E9000D694C794D694C7946C2DE1BBA8B1A06C2E
:100EA000A8B9BC2DBB0FAC2DA695661F6627661F83
:100EB000F6E0FF2EFB226F296068F0E1CF22DD24EF
:100EC000F2E0CF2AFB2EFF0CF0E2FF22FC28B07CE0
:100ED000FB2AA27015B868B9FBB8AEB971BBE1BB0B
:100EE00068B1606C68B9A1E0A5B961E468B960EE69
:100EF0006BB960EA6EB971BBE1BB68B1606C68B98F
:100F0000A5B967E468B960EF6BB962EA6EB971BB05
:100F1000EFBEAA27049FB12D1503B001509FB00D5D
:100F2000611D7A1F14037A0BB00D611D7A1F112405
:100F30004AA15BA16A01EE24D7FCE094FE2CAB0130
:100F4000662757FD6095762FC40ED51EE61EF71E48
:100F5000FC01E457F14F40815181C40ED51EE11CC4
:100F6000F11CF7FE02C00C942212C114D10451E00E
:100F7000E506F1042CF0CC24CA94DC2CE12CF12CF5
:100F8000C601EFB7F894B601672F77276695669587
:100F9000B62F56EC51BB48B1406C48B9A62FAA0FEA
:100FA000FA2FF670F0686071772762604A2F440F5D
:100FB0004072462BA07C4A2B6B2F66956270606254
:100FC00015B8F8B94BB96EB947E841BB9695879506
:100FD00096958795682F51BB78B1706C78B9F82FCA
:100FE000FF0F782F7695661F6627661FAF2FA670B6
:100FF0006A2B60688071992782609F2F990F907289
:10100000982BF07C9F2B727015B868B99BB97EB98C
:1010100041BB51BB88B1806C88B971E075B985E47A
:1010200088B980EE8BB962EA6EB941BB51BB88B119
:10103000806C88B975B9B7E4B8B9A0EFABB96EB92F
:1010400041BBEFBF8CE2829FF001839FF00D112422
:10105000E358F24F80819181EFB7F8949C01232FE0
:10106000332726952695E22E51BBF8B1F06CF8B9DE
:10107000F22EFF0CFF2DF670F068207133272260EE
:101080003F2D330F3072322B2F2D207C322B2E2D03
:1010900026952270206215B8F8B93BB92EB941BB2C
:1010A0009695879596958795282F51BB38B1306CCA
:1010B00038B9F82FFF0F382F3695221F2227221F0D
:1010C0000F2EF6E0FF2EF02DFF222F2920688071D1
:1010D000992782609F2F990F9072982BF07C9F2BFD
:1010E000327015B828B99BB93EB941BB51BB88B124
:1010F000806C88B975B981E488B980EB8BB96EB919
:1011000041BB51BB88B1806C88B975B9B8B9ABB96E
:101110006EB941BBEFBF8091F90B8095881F88277E
:10112000881F91E098279E8F882309F431C281108F
:101130000C94D911A82DAA0FA80DEA2FF0E06CE2AB
:10114000A69FD0011124AF5AB34F94962D913C9194
:1011500095976101EE24D7FCE094FE2CB501AA27F7
:10116000629FB12D7303A001369FB00D411D5A1F20
:1011700072035A0BB00D411D5A1F11249CA1892FD7
:10118000880F890F90E02A01662457FC6094762C22
:101190004C0C5D1C6E1C7F1C880F991FDC01AC5829
:1011A000B14F6D917C91460E571E611C711C77FEEC
:1011B00002C00C941D124114510471E067067104C1
:1011C0002CF044244A94542C612C712CA2014FB66B
:1011D000F894BA01672F772766956695562EA6EC88
:1011E000A1BBB8B1B06CB8B9662E660CB62DB6709E
:1011F000B068607177276260762D770F7072762BFA
:10120000662D607C762B652D66956270606215B8E0
:10121000B8B97BB96EB977E871BB569547955695C5
:101220004795642FA1BB78B0B0EC7B2A78B8642EC8
:10123000660C742E7694661F6627661FB6E05B2EDA
:10124000562065296068407155274260562D550F1C
:101250005072542B462D407C542B42E0742215B81A
:1012600068B95BB97EB871BBA1BB48B1406C48B9E5
:1012700061E065B957E458B940ED4BB940EA4EB961
:1012800071BBA1BB48B1406C48B965B958B940EFD2
:101290004BB942EA4EB971BB4FBEDC01A058B14F09
:1012A0004D915C91C40ED51EE11CF11CF7FE02C0ED
:1012B0000C940A12C114D10451E0E506F1042CF09B
:1012C000CC24CA94DC2CE12CF12CEFB6F894A601C6
:1012D000452F552746954695F42E66EC61BBA8B17F
:1012E000A06CA8B9B42FBB0FAB2FA670A06840713B
:1012F000552742605B2F550F5072542BB07C5B2BEF
:101300004F2D46954270406215B8A8B95BB94EB9E9
:1013100057E851BBD694C794D694C7944C2D61BB63
:10132000A8B1A06CA8B9BC2DBB0FAC2DA695441FCD
:101330004427441F76E0F72EFB224F29406870E1D6
:10134000C722DD2472E0C72AFB2EFF0C70E2F722D1
:10135000FC28B07CFB2AA27015B848B9FBB8AEB91E
:1013600051BB61BB48B1406C48B9A1E0A5B943E4A9
:1013700048B940EE4BB940EA4EB951BB61BB48B1E8
:10138000406C48B9A5B947E448B940EF4BB942EAC7
:101390004EB951BBEFBEAA27029FB12D1303A00186
:1013A000309FB00D411D5A1F12035A0BB00D411D45
:1013B0005A1F11242AA13BA16901EE24D7FCE09415
:1013C000FE2C662757FD6095762FC40ED51EE61EAF
:1013D000F71EDC01A457B14F2D913C91C20ED31ED4
:1013E000E11CF11CF7FE02C00C940512C114D104DB
:1013F00031E0E306F1042CF0CC24CA94DC2CE12C7F
:10140000F12CC601AFB7F8949601232F3327269508
:101410002695722F56EC51BB48B1406C48B9622FEB
:10142000660F462F46704068207133272260362FA2
:10143000330F3072322B607C362B272F269522708B
:10144000206215B848B93BB92EB947E841BB96951B
:10145000879596958795282F51BB38B1306C38B950
:10146000682F660F382F3695221F2227221F762FCE
:101470007670272B2068807199278260962F990FAC
:101480009072982B607C962B327015B828B99BB956
:101490003EB941BB51BB88B1806C88B971E075B968
:1014A00087E4F82EF8B880EE8BB962EA6EB941BBDA
:1014B00051BB88B1806C88B975B9F8B890EFE92E46
:1014C000EBB86EB941BBAFBF8CE28E9FD0018F9F4E
:1014D000B00D1124A358B24F8D919C91EFB7F894A1
:1014E0009C01232F332726952695B22F51BBF8B1A7
:1014F000F06CF8B9A22FAA0FFA2FF670F0682071DD
:10150000332722603A2F330F3072322BA07C3A2BD4
:10151000B695B270B06215B8F8B93BB9BEB941BB67
:101520009695879596958795282F51BB38B1306C45
:1015300038B9F82FFF0F382F3695221F2227221F88
:10154000AF2FA6702A2B20688071992782609F2F69
:10155000990F9072982BF07C9F2B327015B828B998
:101560009BB93EB941BB51BB88B1806C88B975B994
:1015700083E488B980EB8BB96EB941BB51BB88B1AC
:10158000806C88B975B9F8B8EBB86EB941BBEFBFDC
:101590008091FA0B8095881F8827881F91E09827F3
:1015A0009F8F882309F469C18110FAC6E82CEE0CDC
:1015B000EE0CF12C8CE28E9DF0018F9DF00D11242C
:1015C000EF5AF34F44A155A12101662457FC6094C2
:1015D000762CB501AA27649FB12D7503C001569FD3
:1015E000B00D811D9A1F74039A0BB00D811D9A1FB7
:1015F00011242CA1220F220F30E0AA2797FDA095DD
:10160000BA2F840D951DA61DB71D220F331FF9019A
:10161000EC58F14F60817181860F971FA11DB11D9C
:10162000B7FD07C7009771E0A707B10524F08FEF5A
:101630009FEFA0E0B0E0FFB7F894BC01672F7727D9
:1016400066956695D62EE6ECE1BBA8B1A06CA8B96C
:10165000B62FBB0FAB2FA670A068607177276260B2
:101660007B2F770F7072762BB07C7B2B6D2D669560
:101670006270606215B8A8B97BB96EB977E871BBC2
:101680009695879596958795682FE1BBA8B1A06C34
:10169000A8B9B82FBB0FA82FA695661F6627661F8F
:1016A0000F2EF6E0DF2EF02DDB226D2960688071B1
:1016B000992782609B2F990F9072982BB07C9B2B5F
:1016C000A27015B868B99BB9AEB971BBE1BB88B15E
:1016D000806C88B961E065B981E488B980ED8BB927
:1016E00092EA9EB971BBE1BB88B1806C88B965B9DB
:1016F00087E488B980EF8BB99EB971BBFFBFF90150
:10170000E058F14F80819181480E591E611C711C77
:1017100077FC77C64114510481E0680671042CF00F
:1017200044244A94542C612C712C7FB7F894C20144
:10173000892F992786958695A82F66EC61BBE8B11D
:10174000E06CE8B9F82FFF0FEF2FE670E0688071CA
:10175000992782609F2F990F9072982BF07C9F2B76
:10176000A695A270A06215B8E8B99BB9AEB997E882
:1017700091BB5694479456944794842D61BBE8B12D
:10178000E06CE8B9F42DFF0FE42DE695881F88275B
:10179000881FAF2FA6708A2B8068D201A071BB274B
:1017A000BA2FB260AF2FAA0FA072AB2BF07CAF2B79
:1017B000E27015B888B9ABB9EEB991BB61BB88B11D
:1017C000806C88B9E1E0E5B985E488B980EE8BB931
:1017D00080EA8EB991BB61BB88B1806C88B9E5B9EC
:1017E00087E488B980EF8BB982EA8EB991BB7FBF5D
:1017F000AA27049FB12D1503C001509FB00D811D74
:101800009A1F14039A0BB00D811D9A1F1124AAA1CF
:10181000BBA1AD01662757FD6095762FAA2797FDDE
:10182000A095BA2F480F591F6A1F7B1FF901E45773
:10183000F14F80819181480F591F611D711D77FD06
:10184000DCC5CB01BA0161157105B1E08B079105CB
:1018500024F06FEF7FEF80E090E080E10E94FB16C4
:101860008CE28E9DF0018F9DF00D1124E358F24F14
:101870006081718186E10E94FB168091FB0B80954F
:10188000881F8827881F91E0982798A3882309F448
:10189000B4C081107CC5E82DEE0FEE0FE80DCE2E02
:1018A000D12C2CE2E29FF0011124EF5AF34FE4A077
:1018B000F5A02101662457FC6094762CA501B701A0
:1018C000AA27469FB12D5703C001749FB00D811DFB
:1018D0009A1F56039A0BB00D811D9A1F11242CA13B
:1018E000A22EAA0CAA0CA20EB12CAA2797FDA09595
:1018F000BA2F840D951DA61DB71DAA0CBB1CF501A2
:10190000EC58F14F20813181820F931FA11DB11D31
:10191000B7FD6FC5BC01CD0161157105A1E08A0756
:10192000910524F06FEF7FEF80E090E085E00E946A
:10193000FB16F501E058F14F80819181A3019201DE
:10194000280F391F411D511DDA01C90157FD9CC5E2
:10195000BC01CD016115710531E08307910524F0CB
:101960006FEF7FEF80E090E08BE00E94FB16A70115
:10197000AA27049FB12D1503C001509FB00D811DF2
:101980009A1F14039A0BB00D811D9A1F11242AA1CE
:101990003BA1A901662757FD6095762FAA2797FDE1
:1019A000A095BA2F480F591F6A1F7B1FF501E457F6
:1019B000F14F80819181480F591F611D711D77FD85
:1019C0005FC5CB01BA016115710531E0830791054F
:1019D00024F06FEF7FEF80E090E081E10E94FB1642
:1019E0008CE28C9DF0018D9DF00D1124E358F24F97
:1019F0006081718187E10E94FB1645E34A95F1F70A
:101A000000009110B5C3AB960FB6F894DEBF0FBEC1
:101A1000CDBFDF91CF91FF91EF91BF91AF919F919A
:101A20008F917F916F915F914F913F912F911F9176
:101A30000F91FF90EF90DF90CF90BF90AF909F906D
:101A40008F907F906F905F904F903F902F900F906E
:101A50000BBE0F900FBE0F901F901895E1E0809184
:101A6000720EE81BE093720EE1114BC4C12CD12C15
:101A70007601C092610ED092620EE092630EF092F7
:101A8000640E20916B0E30916C0E40E050E000909F
:101A9000710E04C0220F331F441F551F0A94D2F742
:101AA000FF27E1950CF4F095DF01AA0FBB1F1196FB
:101AB0000E94884D6093650E7093660E8093670E4A
:101AC0009093680E113009F40FC6133009F4F2C573
:101AD00026013701123011F00C94AA01FF24E72CE3
:101AE000D62CC52C9601D0926E0EC0926D0E0C9421
:101AF000B2018091F20E9091F30E4091980E5091A8
:101B0000990E2091740E3091750E2417350708F048
:101B100005C4421B530B8417950708F4AC01420F10
:101B2000531F5093750E4093740E4091A40E509124
:101B3000A50E2091800E3091810E2417350708F4F0
:101B40000FC54217530770F4D901A41BB50BAD01A3
:101B50008A179B0708F4F1C5241B350B3093810EBF
:101B60002093800E4091B00E5091B10E20918C0EBA
:101B700030918D0E2417350708F40CC54217530712
:101B800070F4F901E41BF50BAF018E179F0708F401
:101B9000B6C5241B350B30938D0E20938C0E4091CF
:101BA0009A0E50919B0E2091760E3091770E24174D
:101BB000350708F4E2C44217530770F4B901641BF7
:101BC000750BAB018617970708F49DC5241B350BD1
:101BD0003093770E2093760E4091A60E5091A70E6B
:101BE0002091820E3091830E2417350708F4ABC480
:101BF0004217530770F4D901A41BB50BAD018A1726
:101C00009B0708F47EC5241B350B3093830E20936D
:101C1000820E4091B20E5091B30E20918E0E3091F3
:101C20008F0E2417350708F481C44217530770F448
:101C3000F901E41BF50BAF018E179F0708F46BC584
:101C4000241B350B30938F0E20938E0E40919C0EEB
:101C500050919D0E2091780E3091790E2417350702
:101C600008F457C44217530770F4B901641B750B8D
:101C7000AB018617970708F44CC5241B350B30932E
:101C8000790E2093780E4091A80E5091A90E2091C4
:101C9000840E3091850E2417350708F42DC44217A1
:101CA000530770F4D901A41BB50BAD018A179B072C
:101CB00008F42DC5241B350B3093850E2093840E1C
:101CC0004091B40E5091B50E2091900E3091910E2E
:101CD0002417350708F403C44217530770F4F901B9
:101CE000E41BF50BAF018E179F0708F40EC5241BEC
:101CF000350B3093910E2093900E40919E0E509193
:101D00009F0E20917A0E30917B0E2417350708F430
:101D1000D9C34217530770F4B901641B750BAB01AB
:101D20008617970708F407C5241B350B30937B0EE5
:101D300020937A0E4091AA0E5091AB0E2091860E00
:101D40003091870E2417350708F4AFC342175307A5
:101D500070F4D901A41BB50BAD018A179B0708F4D9
:101D6000E8C4241B350B3093870E2093860E4091D8
:101D7000B60E5091B70E2091920E3091930E24170B
:101D8000350708F485C34217530770F4F901E41BC3
:101D9000F50BAF018E179F0708F4C9C4241B350B40
:101DA0003093930E2093920E4091A00E5091A10E6D
:101DB00020917C0E30917D0E2417350708F44CC419
:101DC0004217530770F4B901641B750BAB018617FA
:101DD000970708F4AAC4241B350B30937D0E20937B
:101DE0007C0E4091AC0E5091AD0E2091880E30913A
:101DF000890E2417350708F422C44217530770F4DC
:101E0000D901A41BB50BAD018A179B0708F48BC43D
:101E1000241B350B3093890E2093880E4091B80E09
:101E20005091B90E2091940E3091950E24173507DC
:101E300008F4F8C34217530770F4F901E41BF50BDB
:101E4000AF018E179F0708F46CC4241B350B309329
:101E5000950E2093940E4091A20E5091A30E2091C6
:101E60007E0E30917F0E2417350708F0C8C3421B41
:101E7000530B8417950708F4AC01420F531F50937E
:101E80007F0E40937E0E4091AE0E5091AF0E20918A
:101E90008A0E30918B0E2417350708F09DC3421B24
:101EA000530B8417950708F4AC01420F531F50934E
:101EB0008B0E40938A0E4091BA0E5091BB0E20912A
:101EC000960E3091970E2417350708F070C3421B09
:101ED000530B8417950708F4AC01420F531F50931E
:101EE000970E4093960E0C947B01812C833021F049
:101EF000843011F00C94FF0181E09091F40E911167
:101F000080E0482F50E05DA34CA3782E81E59CE053
:101F10000E94D73289E59DE00E94D7328091F60B6E
:101F20008095881F8827881F91E0282F29272B8FCD
:101F300081110C941E028091F70B8095881F8827D1
:101F4000881F98279C8F882311F40C944C066101FC
:101F5000EE24D7FCE094FE2C4AA15BA1662757FD36
:101F60006095762F4EA35FA368A779A70C943604DB
:101F70001BA21AA224FD02C00C94E701AA2797FD18
:101F8000A095BA2F2091E60B3091E70B4091A50B5D
:101F900040FFBDC1AC01BD01420F531F611D711D4A
:101FA00077FDD5C341155105F1E06F07710524F0A8
:101FB0004FEF5FEF60E070E09A0136952795369518
:101FC0002795B90160717727452F55274695469586
:101FD000FA01E071FF27542F550F352F330FF52FDE
:101FE000F670F068E26030723E2B507C352B4695DF
:101FF00042704062522F550F752F770FE22FE695F2
:10200000221F2227221F152F1670212B20686260A5
:102010007072762B507C752BE2701FB7F89456ECDB
:1020200051BB68B1606C68B915B8F8B93BB94EB925
:1020300037E831BB51BB48B1406C48B915B828B935
:102040007BB9EEB931BB51BB28B1206C28B961E036
:1020500065B921E428B920E72BB942EA4EB931BB72
:1020600051BB28B1206C28B965B927E428B920EF05
:102070002BB94EB931BB1FBF2091D00B3091D10B82
:102080004091A50B41FFA9C1820F931FA11DB11D56
:10209000B7FD59C3009721E0A207B10524F08FEFE7
:1020A0009FEFA0E0B0E09C013695279536952795E7
:1020B000A90140715527892F992786958695BC01DE
:1020C00060717727982F990F592F550F792F7670B8
:1020D000706862605072562B907C592B8695827086
:1020E0008062922F990F392F330F622F6695221F2E
:1020F0002227221FE92FE6702E2B206842603072C3
:10210000342B907C392B6270EFB7F89496EC91BB2E
:1021100048B1406C48B915B878B95BB98EB987E851
:1021200081BB91BB48B1406C48B915B828B93BB9DF
:102130006EB981BB91BB28B1206C28B941E045B98B
:1021400037E438B920E72BB922EA2EB981BB91BB1D
:1021500098B1906C98B945B938B990EF9BB92EB940
:1021600081BBEFBF0C94E701212C312C0C94DD01D5
:1021700080910B0C81118CC08091F60B87FD05C0FE
:102180008091840D882309F4EAC28091F70B87FDC2
:1021900005C08091B00D882309F4DDC28091F80B51
:1021A00087FD05C08091DC0D882309F4F6C280917B
:1021B000F90B87FD05C08091080E882309F4E9C258
:1021C0008091FA0B87FD05C08091340E882309F4B5
:1021D000DCC28091FB0B87FD05C08091600E8823D7
:1021E00009F48BC08B8D81115FC28C8D811156C219
:1021F0008D8D81114DC28E8D81113BC28F8D8111CC
:1022000041C288A1882309F4FECB41E060E070E080
:1022100087E157D5F8CB1092700E10926F0E80E0C8
:1022200090E00C94D601A090E80BB090E90BC501AA
:10223000A0E0B0E09058A109B1095C010C94F8014C
:10224000F52CE62DEF3F09F457C2262D2F5F30E025
:10225000220F331FF0E0EE0FFF1FEE55F64F0190F7
:10226000F081E02DD901AE55B64F2D913C912E1B3A
:102270003F0B032F1127F09E9001F19E300D11248A
:102280002E0F3F1F30936E0E20936D0E0C94B201F3
:102290008091F60B87FD05C08091840D882309F499
:1022A00071C28091F70B87FD05C08091840D882352
:1022B00009F464C28091F80B87FD05C08091840DFC
:1022C000882309F457C28091F90B87FD05C08091DE
:1022D000840D882309F44AC28091FA0B87FD05C05A
:1022E0008091840D882309F43DC28091FB0B87FD0A
:1022F00079CF8091840D811175CF85E00E94791F7F
:1023000071CFCC24CA94DC2CEC2CF12CB2CBE2E0C3
:1023100072EF27E842E232E7F6E87FCE4217530732
:1023200008F003CCB901641B750BAB018617970746
:1023300008F405C2241B350B3093750E2093740EE0
:10234000F4CB8091F70B8095881F8827881F982FE2
:1023500097259C8F882311F40C944C066101EE2480
:10236000D7FCE094FE2C2AA13BA1442737FD4095E1
:10237000542F2EA33FA348A759A78DE79CE00E94A6
:10238000D73285E89DE00E94D7320C9436048DE266
:102390009DE00E94D73285E39EE00E94D7327BCA3F
:1023A00081E09DE00E94D73289E09EE00E94D73212
:1023B000FDC885ED9CE00E94D7328DED9DE00E9426
:1023C000D7320C949A0889EA9CE00E94D73281EBBC
:1023D0009DE00E94D7320C945B0662E032EF27E862
:1023E00082E252E776E890CE80E090E0DC010C9447
:1023F0006C0480E090E0DC018DCA40E050E0BA015E
:1024000020CA412C512C320185C9C12CD12C760116
:102410000C94F609C12CD12C76010C945A0980E059
:1024200090E0DC010C947905C12CD12C76010C9440
:10243000E30480E090E0DC01F5C8412C512C32012E
:102440000C94DB08C12CD12C76010C94B507C12C5F
:10245000D12C76010C941807412C512C32010C948C
:10246000980680E090E0DC010C944B0280E090E064
:10247000DC010C945B0380E090E0DC010C94C5026D
:1024800040E050E0BA019DCA80E090E0DC0160CA03
:10249000421B530B8417950708F4AC01420F531FDE
:1024A0005093930E4093920E7FCC421B530B841794
:1024B000950708F4AC01420F531F5093870E4093C9
:1024C000860E55CC421B530B8417950708F4AC01BC
:1024D000420F531F50937B0E40937A0E2BCC421B1E
:1024E000530B8417950708F4AC01420F531F509308
:1024F000910E4093900E01CC421B530B841795070D
:1025000008F4AC01420F531F5093850E4093840E84
:10251000D7CB421B530B8417950708F4AC01420F2D
:10252000531F5093790E4093780EADCB421B530B43
:102530008417950708F4AC01420F531F50938F0E78
:1025400040938E0E83CB421B530B8417950708F4E0
:10255000AC01420F531F5093830E4093820E59CB10
:10256000421B530B8417950708F4AC01420F531F0D
:102570005093810E4093800EF5CA421B530B841773
:10258000950708F4AC01420F531F5093770E409308
:10259000760E22CB421B530B8417950708F4AC012F
:1025A000420F531F50938D0E40938C0EF8CA421762
:1025B000530710F00C947B01F901E41BF50BAF01FC
:1025C0008E179F0708F4ABC0241B350B3093970E72
:1025D0002093960E0C947B014217530708F06BCCA6
:1025E000D901A41BB50BAD018A179B0708F495C050
:1025F000241B350B30938B0E20938A0E5CCC421734
:10260000530708F040CCB901641B750BAB0186176A
:10261000970708F496C0241B350B30937F0E209348
:102620007E0E31CC421B530B8417950708F4AC0186
:10263000420F531F5093950E4093940E0CCC421BA7
:10264000530B8417950708F4AC01420F531F5093A6
:10265000890E4093880EE2CB421B530B84179507DB
:1026600008F4AC01420F531F50937D0E40937C0E33
:10267000B8CB41E060E070E085E123D38F8D882303
:1026800009F4BFCD41E060E070E086E11AD3B9CD36
:1026900041E060E070E084E114D3ADCD41E060E062
:1026A00070E083E10ED3A4CD41E060E070E082E110
:1026B00008D39BCD0E94704D90936E0E80936D0E4B
:1026C0001091730E6091650E7091660E8091670E89
:1026D0009091680E4090610E5090620E6090630E73
:1026E0007090640E0C94A601F0936E0EE0936D0E44
:1026F000260137010C94AE012EEF31E0ABCDAC01D9
:1027000048CAAC0180CAAC0161CAAC01F0CAAC01D4
:10271000D1CAAC01B2CAAC0193CAAC0169CFAC0159
:1027200053CFAC0192CBAC0173CBAC0154CBAC0119
:1027300035CBAC0116CBAC01F7CAAC010DCAAC016C
:10274000F9CDAC0168CF80E090E0DC01A3CC40E0A3
:1027500050E0BA0127CC81E00E94791F1FCD0E9472
:10276000791F13CD84E00E94791FBFCD83E00E94C2
:10277000791FB2CD82E00E94791FA5CD81E00E9431
:10278000791F98CD0E94791F8CCD84E00E94791F1B
:1027900020CD83E00E94791F13CD82E00E94791F33
:1027A00006CD9091EE10992309F440C09FB7F8949C
:1027B00023E02093E9002091E91021112FC03091EE
:1027C000E4003C5F2091E80025FD1CC09FBF909174
:1027D000E400931769F19091EE10992339F143E0E9
:1027E00009C09FBF9091E400931711F19091EE10F2
:1027F0009923E1F09FB7F8944093E9002091E80015
:1028000025FFEFCF8093F1008091E80085FF15C090
:1028100082E08093ED109FBF80E008952091E80052
:1028200025FF03C01092E910CACF9FBF8FEF089514
:1028300081E08093E9108FEF08958AE38093E800A8
:102840001092ED109FBF80E0089555E05A95F1F782
:10285000000036EC31BB88B1806C88B980EE87B956
:1028600097E09AB98DB915B880E488B91BB880E2B1
:102870008EB987E481BB82E08A95F1F700C026B16A
:1028800099B18CB131BB38B1306C38B937EE37B94A
:1028900037EF3AB932EE3DB9422F4695437050E8D2
:1028A000259F90011124422B292F2071422B292F83
:1028B000269526952870422B96959076492B90E088
:1028C000880F991F84709927842B08956095ECEEEA
:1028D000F0E19081982B6923608386EC81BB88B1FD
:1028E000806C88B9362F330F962F9695262F221F8E
:1028F0002227221F832F8670282B20646071832F4C
:10290000880F8072862B307C832B9270906C31E024
:1029100035B928B98BB99EB987E881BB85E08A951E
:10292000F1F70000EBEEF0E180818F5F8083089586
:102930004091EC10242F21602093EC1086EC81BB99
:1029400088B1806C88B9322F330F922F9695221F51
:102950002227221F832F8670282B2064832F880F25
:1029600080724071842B307C832B9270906C31E0AC
:1029700035B928B98BB99EB987E881BB85E08A95BE
:10298000F1F700008091EB108F5F8093EB100895BA
:1029900096EC91BB98B1906C98B9482F440F282FB2
:1029A0002695342F36703064982F991F9927991FD8
:1029B000392B8071942F990F9072982B407C942B17
:1029C0002270206615B838B99BB92EB987E881BB4B
:1029D00085E08A95F1F700000895FC012689378982
:1029E000468D578DAA27429FB12D539FC001349F1A
:1029F000B00D811D9A1F529FB00D811D9A1F112489
:102A000080A391A340955095AA27429FB12D539F33
:102A1000C001349FB00D811D9A1F529FB00D811DC2
:102A20009A1F112482A393A34085518562857385E3
:102A300040835183628373830895AC01AA27469F24
:102A4000B12D579F9001749FB00D211D3A1F569FC5
:102A5000B00D211D3A1F1124C901089586EC81BBD8
:102A600088B1806C88B915B880E488B91BB88EB974
:102A700087E881BB85E08A95F1F700000895CF9340
:102A8000C82F82958F708A3050F097E3890F89DEC6
:102A9000CF70CA3050F087E38C0FCF9182CE90E395
:102AA000890F7FDECF70CA30B0F780E38C0FCF91F3
:102AB00078CECF93882309F46DC08091FC0E8F5F90
:102AC0008093FC0E853148F081E09091FD0E9111CC
:102AD000E3C08093FD0E1092FC0E8091FE0E8F5F7E
:102AE0008093FE0E8D3008F446C0C091000FCC23B9
:102AF00009F441C0E5E0FFE001900020E9F7E6506D
:102B0000FF402091FF0E332727FD3095C901019624
:102B10006E2F772767FD70950E94EC48E82FFF27FE
:102B2000E7FDF095EA50F14F9785F901EA50F14F32
:102B3000478550E04038510508F0C1C0FA01EC5F0C
:102B4000FA4F20812093FA0E292F30E020383105EA
:102B500008F0B3C0F901EC5FFA4F90819093FB0E3F
:102B60008093FF0E1092FE0E811105C01C161CF4FE
:102B7000C150C093000FE091010FE13009F481C012
:102B800008F474C0E23009F48DC020E0F0E0EA50AF
:102B9000F14F2487AFB7F89456EC51BB88B1806CE5
:102BA00088B941E045B980E488B91BB880E28EB9A4
:102BB00037E831BB00C000C080E190E00090010F19
:102BC00002C0880F991F0A94E2F7282F51BB98B1D1
:102BD000906C98B9722F770F622F6695221F22276B
:102BE000221F972F9670292B20648071972F990FA1
:102BF0009072982B707C972B627045B928B99BB95D
:102C00006EB931BB00C000C0E091010FF0E0EA50A6
:102C1000F14F848551BB98B1906C98B9582F550FDE
:102C2000982F9695252F26702064682F661F66279B
:102C3000661F262B682F6071852F880F8072862B68
:102C4000507C852B9270906245B928B98BB99EB99A
:102C500031BBAFBF8091010F90E0019663E070E05F
:102C60000E94EC488093010FCF9108952091F60EB9
:102C70008091FD0E882309F489CF8091F80E2827D2
:102C800085CF2091FA0E2F778091F60E9091F70E56
:102C900091FF7CCF20687ACF80E08093FD0E109268
:102CA000FC0E1BCF2091FB0E2F778091F60E90919A
:102CB000F70E90FF6BCF206869CF9FEF4FCF2FEFBC
:102CC00041CF982F96959695969528E030E001C0D3
:102CD000220F9A95EAF72095287F8770282BEFB767
:102CE000F894CB01892F992786958695A82F36ECE5
:102CF00031BB58B1506C58B9F82FFF0F5F2F567089
:102D000050688071992782609F2F990F9072982B3D
:102D1000F07C9F2B8A2F86958270806215B858B9F7
:102D20009BB98EB997E891BB76956795769567952F
:102D3000562F31BB88B1806C88B9A62FAA0FF62F09
:102D4000F695551F5527551F8A2F8670582B5068AA
:102D50006071772762608A2F880F8072862BA07C33
:102D60008A2BF27015B858B98BB9FEB991BB31BB3B
:102D700088B1806C88B9722F770F522F5695622FC9
:102D8000661F6627661F872F8670682B6064207118
:102D9000872F880F8072822B707C872B5270506A2D
:102DA00021E025B968B98BB95EB991BB41110EC05C
:102DB00031BB88B1806C88B925B987E488B980EFC8
:102DC0008BB982EA8EB991BBEFBF08958DE08A95E9
:102DD000F1F7000031BB88B1806C88B925B987E470
:102DE00088B980EF8BB982EA8EB991BB88E28A9567
:102DF000F1F7EFBF0895982F96959695969528E050
:102E000030E001C0220F9A95EAF72095287F87705D
:102E1000282BFFB7F894CB01892F992786958695A3
:102E2000E82F56EC51BB38B1306C38B9482F440FFD
:102E3000342F36703068807199278260942F990FF3
:102E40009072982B407C942B8E2F86958270806296
:102E500015B838B99BB98EB947E841BB76956795E7
:102E600076956795962F51BB88B1806C88B9E62F0F
:102E7000EE0F362F3695991F9927991F8E2F867042
:102E8000982B90686071772762608E2F880F807210
:102E9000862BE07C8E2B327015B898B98BB93EB971
:102EA00041BB51BB88B1806C88B9622F660F922FED
:102EB0009695322F331F3327331F862F8670382B7A
:102EC00030642071862F880F8072822B607C862B65
:102ED0009270906A21E025B938B98BB99EB941BB8F
:102EE00051BB88B1806C88B925B987E488B980EF77
:102EF0008BB982EA8EB941BBFFBF08958091C00EA5
:102F0000880F8F5F9091A50B92959170890F809398
:102F1000730E8091C20E880F8093710EA091720E75
:102F200020916B0E30916C0E40E050E004C0220FF7
:102F3000331F441F551F8A95D2F7BB27A1950CF468
:102F4000B095AA0FBB1F11960E94884D6093650E25
:102F50007093660E8093670E9093680E0895AF92FB
:102F6000BF92CF92DF92EF92FF920F931F93CF9376
:102F7000DF93062F9BEA899FA12C1124A694A69487
:102F8000A6946A2D70E06A3071050CF06EC0A394AF
:102F9000B12C10E09B01220F331FF901EE0FFF1F30
:102FA000EE0FFF1FEE0FFF1FE20FF31FE00FF11FE9
:102FB000EE0FFF1FE95CF04FC081D1819BEA899F32
:102FC000912D1124969596959695692F660F690F08
:102FD000660F660F861B682F70E080E090E00E940D
:102FE000154A2BEA3AEA4AEA5DE30E94474B6B0135
:102FF0007C01AA0CBB1CF501EE0FFF1FEE0FFF1F9B
:10300000EE0FFF1FEA0DFB1DE00FF11FEE0FFF1F7C
:10301000E95CF04F608171816C1B7D0B80E090E07A
:103020000E94134A9B01AC01C701B6010E94474BA5
:103030006B017C01BE0180E090E00E94134A9B017D
:10304000AC01C701B6010E9414490E94F64B0E94D0
:10305000E749CB01DF91CF911F910F91FF90EF9046
:10306000DF90CF90BF90AF900895BBE0AB2EB12C16
:1030700090CF2F923F924F925F926F927F928F925A
:103080009F92AF92BF92CF92DF92EF92FF920F93F7
:103090001F93CF93DF93CDB7DEB72E970FB6F8947B
:1030A000DEBF0FBECDBF0091D50B10E00058110957
:1030B0008091F40B9091F50B880F892F881F990B45
:1030C00091959C013A953A872987C090B80BD0908A
:1030D000B90BE12CF12C8090F30B869486949090A0
:1030E000F10B969496947090BE0E6090F40E309111
:1030F0000B0C3B837091FC0B8091F60B87FF37C064
:103100007091FD0B8091F70B87FFDDC07091FE0B76
:103110008091F80B87FF83C17091FF0B8091F90BB1
:1031200087FF29C27091000C8091FA0B87FFCFC2F4
:103130007091010C8091FB0B87FF75C32E960FB623
:10314000F894DEBF0FBECDBFDF91CF911F910F91DD
:10315000FF90EF90DF90CF90BF90AF909F908F90B7
:103160007F906F905F904F903F902F90089518013F
:10317000442437FC4094542C2091CA0E3091CB0E3D
:10318000C901AA2797FDA095BA2F820D931DA41DF2
:10319000B51D8B879C87AD87BE8760E0882D870F24
:1031A0007887DDDE2B853C854D855E85280F391FB0
:1031B000411D511DDA01C901788557FDEBC5009706
:1031C00031E0A307B1050CF001C49A8389832091F3
:1031D000D60E3091D70E442737FD4095542F220D3F
:1031E000331D441D551D29843A84C101AA2797FD2A
:1031F000A095BA2F280F391F4A1F5B1F66E0892D43
:10320000870F2C833D834E835F837887A8DE2C81D4
:103210003D814E815F8119012A01280E391E411C12
:10322000511CD201C101788557FCB0C5009721E03F
:10323000A207B1050CF0C5C35C0177FCCBC420919B
:10324000E20E3091E30E442737FD4095542F2C0DAC
:103250003D1D4E1D5F1D6CE0872F2C833D834E83EB
:103260005F837DDE072C02C0969587950A94E2F76E
:103270002C813D814E815F8119012A01280E391E62
:10328000411C511CD201C10157FCBCC5009721E073
:10329000A207B1050CF09FC39C016110FCC34981DA
:1032A0005A815093750E4093740EB092810EA09285
:1032B000800E30938D0E20938C0E7091FD0B8091BB
:1032C000F70B87FD23CF1801442437FC4094542C7E
:1032D0002091CC0E3091CD0EC901AA2797FDA09563
:1032E000BA2F820D931DA41DB51D8B879C87AD87BA
:1032F000BE8761E0872F880D788731DE2B853C857E
:103300004D855E85280F391F411D511DDA01C90108
:10331000788557FD67C5009731E0A307B1050CF02C
:1033200023C39A8389832091D80E3091D90E4427E4
:1033300037FD4095542F220D331D441D551D298402
:103340003A84C101AA2797FDA095BA2F280F391FEB
:103350004A1F5B1F67E0872F890D2C833D834E83B7
:103360005F837887FCDD2C813D814E815F8119016F
:103370002A01280E391E411C511CD201C101788539
:1033800057FC2CC5009721E0A207B1050CF0E7C25D
:103390005C0177FCCFC42091E40E3091E50E442708
:1033A00037FD4095542F2C0D3D1D4E1D5F1D6DE0CA
:1033B000872F2C833D834E835F83D1DD072C02C092
:1033C000969587950A94E2F72C813D814E815F8125
:1033D00019012A01280E391E411C511CD201C101BC
:1033E00057FC08C5009721E0A207B1050CF0F8C210
:1033F0009C01611060C349815A815093770E4093BC
:10340000760EB092830EA092820E30938F0E209390
:103410008E0E7091FE0B8091F80B87FD7DCE18010A
:10342000442437FC4094542C2091CE0E3091CF0E82
:10343000C901AA2797FDA095BA2F820D931DA41D3F
:10344000B51D8B879C87AD87BE8762E0872F880D6F
:10345000788785DD2B853C854D855E85280F391F56
:10346000411D511DDA01C901788557FDB3C400978C
:1034700031E0A307B1050CF081C29A8389832091C2
:10348000DA0E3091DB0E442737FD4095542F220D84
:10349000331D441D551D29843A84C101AA2797FD77
:1034A000A095BA2F280F391F4A1F5B1F68E0872F8E
:1034B000890D2C833D834E835F83788750DD2C817B
:1034C0003D814E815F8119012A01280E391E411C60
:1034D000511CD201C101788557FC78C4009721E0C6
:1034E000A207B1050CF045C25C0177FC9FC3209197
:1034F000E60E3091E70E442737FD4095542F2C0DF2
:103500003D1D4E1D5F1D6EE0872F2C833D834E8336
:103510005F8325DD072C02C0969587950A94E2F714
:103520002C813D814E815F8119012A01280E391EAF
:10353000411C511CD201C10157FC58C4009721E025
:10354000A207B1050CF05BC29C01611062C2498107
:103550005A815093790E4093780EB092850EA092C6
:10356000840E3093910E2093900E7091FF0B8091FA
:10357000F90B87FDD7CD1801442437FC4094542C17
:103580002091D00E3091D10EC901AA2797FDA095A8
:10359000BA2F820D931DA41DB51D8B879C87AD8707
:1035A000BE8763E0872F880D7887D9DC2B853C8523
:1035B0004D855E85280F391F411D511DDA01C90156
:1035C000788557FDFFC3009731E0A307B1050CF0E4
:1035D000DFC19A8389832091DC0E3091DD0E442770
:1035E00037FD4095542F220D331D441D551D298450
:1035F0003A84C101AA2797FDA095BA2F280F391F39
:103600004A1F5B1F69E0872F890D2C833D834E8302
:103610005F837887A4DC2C813D814E815F81190115
:103620002A01280E391E411C511CD201C101788586
:1036300057FCC4C3009721E0A207B1050CF0A3C159
:103640005C0177FC4BC32091E80E3091E90E4427D2
:1036500037FD4095542F2C0D3D1D4E1D5F1D6FE015
:10366000872F2C833D834E835F8379DC072C02C038
:10367000969587950A94E2F72C813D814E815F8172
:1036800019012A01280E391E411C511CD201C10109
:1036900057FCB4C3009721E0A207B1050CF0A5C107
:1036A0009C01611029C249815A8150937B0E40933D
:1036B0007A0EB092870EA092860E3093930E2093CE
:1036C000920E7091000C8091FA0B87FD31CD18019C
:1036D000442437FC4094542C2091D20E3091D30EC8
:1036E000C901AA2797FDA095BA2F820D931DA41D8D
:1036F000B51D8B879C87AD87BE8764E0872F880DBB
:1037000078872DDC2B853C854D855E85280F391FFC
:10371000411D511DDA01C901788557FD4BC3009742
:1037200031E0A307B1050CF03DC19A838983209154
:10373000DE0E3091DF0E442737FD4095542F220DC9
:10374000331D441D551D29843A84C101AA2797FDC4
:10375000A095BA2F280F391F4A1F5B1F6AE0872FD9
:10376000890D2C833D834E835F837887F8DB2C8122
:103770003D814E815F8119012A01280E391E411CAD
:10378000511CD201C101788557FC10C3009721E07C
:10379000A207B1050CF001C15C0177FC73C2209156
:1037A000EA0E3091EB0E442737FD4095542F2C0D37
:1037B0003D1D4E1D5F1D60E1872F2C833D834E8391
:1037C0005F83CDDB072C02C0969587950A94E2F7BC
:1037D0002C813D814E815F8119012A01280E391EFD
:1037E000411C511CD201C10157FC14C3009721E0B8
:1037F000A207B1050CF008C19C0161102BC14981E1
:103800005A8150937D0E40937C0EB092890EA09207
:10381000880E3093950E2093940E7091010C809138
:10382000FB0B87FD8BCC1801442437FC4094542CAF
:103830002091D40E3091D50EC901AA2797FDA095ED
:10384000BA2F820D931DA41DB51D8B879C87AD8754
:10385000BE8765E0872F880D788781DB2B853C85C7
:103860004D855E85280F391F411D511DDA01C901A3
:10387000788557FD97C2009731E0A307B1050CF09A
:103880009BC08C012091E00E3091E10E442737FD62
:103890004095542F220D331D441D551D29843A8413
:1038A000C101AA2797FDA095BA2F280F391F4A1FDB
:1038B0005B1F6BE0872F890D2C833D834E835F83D5
:1038C00078874DDB2C813D814E815F8149015A0112
:1038D000880E991EA11CB11CD501C4017885B7FCC6
:1038E0005DC2009721E0A207B1050CF060C02C0179
:1038F00077FC42C12091EC0E3091ED0E4901AA24D3
:1039000097FCA094BA2C8C0C9D1CAE1CBF1C61E1D2
:10391000872F25DB02C0969587957A94E2F7A5015B
:103920009401280F391F411D511DDA01C90157FDAE
:103930006DC2009731E0A307B1050CF05BC09C019C
:103940006110FBC010937F0E00937E0E50928B0E81
:1039500040928A0E3093970E2093960EEFCB8FEF06
:103960009FEFA0E0B0E014CD8FEF9FEFA0E0B0E0BC
:10397000D8CC8FEF9FEFA0E0B0E0B6CD8FEF9FEFF8
:10398000A0E0B0E07ACD8FEF9FEFA0E0B0E058CE9E
:103990008FEF9FEFA0E0B0E01CCE8FEF9FEFA0E095
:1039A000B0E0FACE8FEF9FEFA0E0B0E0BECE8FEF99
:1039B0009FEFA0E0B0E09BCF8FEF9FEFA0E0B0E0E3
:1039C00060CF8FEF9FEFA0E0B0E036CC8FEF9FEF9E
:1039D000A0E0B0E0FACB8FEF9FEFA0E0B0E05CCCCE
:1039E0008FEF9FEFA0E0B0E003CD8FEF9FEFA0E05F
:1039F000B0E056CE8FEF9FEFA0E0B0E0A0CF8FEF0A
:103A00009FEFA0E0B0E0A0CD8FEF9FEFA0E0B0E08F
:103A1000F3CE5B8129803A80533079F0543069F0DD
:103A200030929D0E20929C0EB092A90EA092A80EEC
:103A30003093B50E2093B40E6FCB3092990E209236
:103A4000980EB092A50EA092A40E3093B10E2093C2
:103A5000B00E62CB5B8129803A80533079F05430CC
:103A600069F03092A10E2092A00EB092AD0EA092FD
:103A7000AC0E3093B90E2093B80E5ACB3092990EFB
:103A80002092980EB092A50EA092A40E3093B10E83
:103A90002093B00E4DCB5B8129803A803092990EF5
:103AA0002092980EB092A50EA092A40E3093B10E63
:103AB0002093B00E25CB5B8129803A80533079F07A
:103AC000543069F030929B0E20929A0EB092A70E5D
:103AD000A092A60E3093B30E2093B20E17CB309265
:103AE000990E2092980EB092A50EA092A40E30933B
:103AF000B10E2093B00E0ACB5B8129803A805330FF
:103B000079F0543069F030929F0E20929E0EB09260
:103B1000AB0EA092AA0E3093B70E2093B60E02CB36
:103B20003092990E2092980EB092A50EA092A40EFB
:103B30003093B10E2093B00EF5CA5B81533079F00B
:103B4000543069F01093A30E0093A20E5092AF0E62
:103B50004092AE0E3093BB0E2093BA0EEFCA109374
:103B6000990E0093980E5092A50E4092A40E309399
:103B7000B10E2093B00EE2CA6091590F70915A0FA6
:103B800080E090E00E94134A0E94F64B0E94E749B1
:103B90002091EC0E3091ED0E4901AA2497FCA094DF
:103BA000BA2C8C0C9D1CAE1CBF1C860E971EA11C33
:103BB000B11CB7FC5DC1D501C4018114910441E081
:103BC000A406B1040CF039C19C019093970E809328
:103BD000960EB6CE60914F0F7091500F80E090E03E
:103BE0000E94134A0E94F64B0E94E7492091E20E80
:103BF0003091E30E442737FD4095542F2C0D3D1D89
:103C00004E1D5F1D260F371F411D511D57FD28C139
:103C1000DA01C901009721E0A207B1050CF017C134
:103C20009C0190938D0E80938C0E37CB6091530F37
:103C30007091540F80E090E00E94134A0E94F64B6E
:103C40000E94E7492091E60E3091E70E442737FDA8
:103C50004095542F2C0D3D1D4E1D5F1D260F371F07
:103C6000411D511D57FDF8C0DA01C901009721E03F
:103C7000A207B1050CF0E6C09C019093910E8093D1
:103C8000900E63CC6091570F7091580F80E090E0D8
:103C90000E94134A0E94F64B0E94E7492091EA0EC7
:103CA0003091EB0E442737FD4095542F2C0D3D1DD0
:103CB0004E1D5F1D260F371F411D511D57FDE0C0D2
:103CC000DA01C901009721E0A207B1050CF0ABC0F1
:103CD0009C019093950E8093940E8FCD6091550F1B
:103CE0007091560F80E090E00E94134A0E94F64BBC
:103CF0000E94E7492091E80E3091E90E442737FDF4
:103D00004095542F2C0D3D1D4E1D5F1D260F371F56
:103D1000411D511D57FDB0C0DA01C901009721E0D6
:103D2000A207B1050CF07AC09C019093930E80938A
:103D3000920EB7CC6091510F7091520F80E090E0DD
:103D40000E94134A0E94F64B0E94E7492091E40E1C
:103D50003091E50E442737FD4095542F2C0D3D1D25
:103D60004E1D5F1D260F371F411D511D57FD7CC085
:103D7000DA01C901009721E0A207B1050CF058C093
:103D80009C0190938F0E80938E0E33CB80E090E059
:103D9000DC014CCA80E090E0DC0111CA80E090E0D8
:103DA000DC019FCD80E090E0DC0165CD80E090E01B
:103DB000DC01ECCC80E090E0DC01B1CC80E090E074
:103DC000DC0138CC80E090E0DC01FDCB80E090E0CD
:103DD000DC0184CB80E090E0DC0149CB80E090E026
:103DE000DC01D0CA80E090E0DC0195CA80E090E080
:103DF000DC01A4CB80E090E0DC01F4CA80E090E03C
:103E0000DC0148CC80E090E0DC0140CA80E090E03A
:103E1000DC018FCD80E090E0DC01E8CC8FEF9FEFFC
:103E2000A0E0B0E081CF8FEF9FEFA0E0B0E050CFF7
:103E30008FEF9FEFA0E0B0E0A3CF8FEF9FEFA0E068
:103E4000B0E0C2CE8FEF9FEFA0E0B0E015CF8FEFD4
:103E50009FEFA0E0B0E0E4CE20E030E0A90104CF85
:103E600020E030E0A901D4CE20E030E0A90180CFED
:103E7000812C912C54019FCE20E030E0A9014CCF41
:103E800020E030E0A9011CCFCF93DF9300D0CDB765
:103E9000DEB74A836983EDD880910B0C4A81698132
:103EA000882319F140E050E08CE2849FF001859F67
:103EB000F00D1124EF5AF34F87A1681719F060A78E
:103EC00081E081A78CE2849FF001859FF00D112491
:103ED000E75AF24F87A1681719F060A781E081A720
:103EE0000F900F90DF91CF910895552747FD509582
:103EF000DBCF90910B0C91110CC087FD24C0E82FF3
:103F0000FF27E7FDF095EA50F44F8FEF808386831B
:103F100008958FEF8093F60B8093FC0B8093F70B43
:103F20008093FD0B8093F80B8093FE0B8093F90B2D
:103F30008093FF0B8093FA0B8093000C8093FB0B14
:103F40008093010C08958F3F29F3089586E1E6EFF1
:103F5000FBE0DF011D928A95E9F78FEFCADF48E0A9
:103F600050E06FEF70E082E09CE00C94164DCF9330
:103F70008091A60B90E0880F892F881F990B892BC1
:103F800029F4E4DF10920B0CCF910895C091BF0E7D
:103F9000DDDFC0930B0CCF910895942F87FD0FC0E8
:103FA000E82FFF27E7FDF095EA50F44F6083468342
:103FB0009F3F21F0482F622F892F66CF08958F3FB2
:103FC000B9F76093F60B4093FC0B6093F70B4093AB
:103FD000FD0B6093F80B4093FE0B6093F90B40933D
:103FE000FF0B6093FA0B4093000C6093FB0B409324
:103FF000010CDECF86EC81BB88B1806C88B915B826
:1040000080E488B91BB880E28EB987E881BB85E07F
:104010008A95F1F700000895CF93DF930E9425144D
:10402000C82FD0E00E942514382F20E0C22BD32BBC
:10403000E1DFE0DF9E0120953095265F3F4FC9010B
:10404000DF91CF91089586EC81BB88B1806C88B9EF
:1040500015B882E488B91BB880E48EB987E881BBC3
:1040600085E08A95F1F7000008954091EC10242F27
:1040700022602093EC1086EC81BB88B1806C88B9FB
:10408000322F330F922F9695221F2227221F832F24
:104090008670282B2064832F880F80724071842BB8
:1040A000307C832B9270906C31E035B928B98BB994
:1040B0009EB987E881BB85E08A95F1F70000809181
:1040C000EB108F5F8093EB1008956093000F0097C3
:1040D000A9F01092FF0EBC0186E09FE00E941D4DEA
:1040E000E5E0FFE001900020E9F7E650FF40EB5FDC
:1040F000F04F80E290E09183808308958FEF80936A
:10410000FF0E08951F93CF93DF93EC012196FC01DE
:104110001491111109C00EC0812F0E94D113FE010C
:1041200021961491112331F01A30B1F78DE00E94DD
:10413000D113F2CFDF91CF911F9108950F931F9369
:10414000CF93DF93C82F80910B0C81117BC080919E
:10415000F60B662309F49CC19091FC0BC91709F476
:1041600003C387FD01C388300CF06CC19091F70B3D
:104170002091FD0BC21709F4FBC297FDF9C29817F5
:104180000CF065C141E05091F80B8091FE0BC8170F
:1041900009F4F2C257FDF0C259170CF069C142E0B0
:1041A0006091F90B8091FF0BC81709F4E9C267FD14
:1041B000E7C265170CF0A7C143E05091FA0B80915C
:1041C000000CC81709F4E0C257FDDEC256170CF008
:1041D000AAC144E08091FB0B9091010CC91709F42E
:1041E000D7C287FDD5C285170CF4BDC1992787FDBD
:1041F0009095252F332727FD30952A5F3F4F2817AD
:1042000039070CF4B0C1E42FFF27E7FDF0952091AA
:104210000A0C822F992787FD9095019666E070E041
:104220000E94EC4880930A0CEA50F44F8083C683C6
:10423000CF3F09F49AC161E08C2FDF91CF911F919C
:104240000F9122CE9091020C662309F4D3C09F3FB8
:1042500009F4A2C22091030C2F3F09F4A3C23091AC
:10426000040C3F3F09F4B3C24091050C4F3F09F4E1
:10427000B4C25091060C5F3F09F42AC27091070C3A
:104280007F3F09F4B3C2E091080CEF3F09F4B4C2D8
:10429000F091090CFF3F09F4B2C2A82FA35084305B
:1042A00009F406C2813009F46DC1823009F4BBC142
:1042B000833009F467C19F3F09F435C2B1E0D1E012
:1042C0002F3F09F42EC21B2F1D2309F0292F0B2F7E
:1042D0000F5F81E08B278D23812B09F49AC1802FFA
:1042E000922FB1E03F3F09F41AC2D1E0811101C021
:1042F000D0E0DB2309F0392F282F2F5F11E0811147
:1043000010E0B123BD2B09F482C1822FB1E04F3FF1
:1043100009F403C2D1E0811101C0D0E0DB2309F030
:10432000432F982F9F5F11E0811110E0B123BD2B27
:1043300009F477C1892F91E05F3F09F4ECC121E0D6
:10434000811101C020E0292309F0542F382F3F5F4D
:10435000B1E08111B0E09B23922B09F460C1832F5F
:1043600091E07F3F09F4D5C121E0811101C020E037
:10437000292309F0752F482F4F5F31E0811130E07C
:104380009323922B09F449C1842F91E0EF3F09F464
:10439000BEC121E0811101C020E0292309F0E72FEF
:1043A000482F4F5F31E0811130E09323922B09F4C5
:1043B00032C1842F91E0FF3F09F4A7C121E08111B0
:1043C00001C020E0292309F420C1DE2F482F4F5FD0
:1043D00031E0811130E09323922B09F0842F99234F
:1043E00009F4B1C08111B3C0A23008F420C220E0AA
:1043F0008FEFB2C09C1709F4D2C12091030C2C1787
:1044000009F4E2C13091040C3C1709F4E3C1409176
:10441000050C4C1709F4E4C15091060C5C1709F423
:104420006DC17091070C7C1709F4DDC1E091080C97
:10443000EC1709F4DEC1F091090CFC132ECFE7E074
:10444000F0E05EC18F300CF091CE88E08FCE692F06
:10445000772767FD7095282F332727FD30952A5F32
:104460003F4F261737070CF48DCE982F40E08BCEA8
:10447000652F772767FD7095292F332727FD309506
:104480002A5F3F4F261737070CF489CE592F88CE65
:1044900087FD05C08091FC0BC81709F4B3C180915A
:1044A000F70B87FD05C08091FD0BC81709F4B3C158
:1044B0008091F80B87FD05C08091FE0BC81709F4A9
:1044C000A8C18091F90B87FD05C08091FF0BC8172B
:1044D00009F49DC18091FA0B87FD05C08091000C05
:1044E000C81709F49AC18091FB0B87FD05C0809124
:1044F000010CC81709F493C188E391E0DF91CF91D3
:104500001F910F91FFCD862F992787FD9095252F1D
:10451000332727FD30952A5F3F4F281739070CF4C2
:104520004BCE652F4ACE852F992787FD9095262F54
:10453000332727FD30952A5F3F4F281739070CF4A2
:1045400048CE562F47CEDE2F882309F44DCFA23018
:1045500088F0CD2F21E08FEF4C2F60E0DF91CF91DD
:104560001F910F911ACD45E04ECEDF91CF911F9153
:104570000F910895813009F4D8C080910A0CCD2F95
:1045800021E0EACF9F3F09F44CC12F3F09F4E8C076
:10459000921708F0922F81E08F5F3F3F09F4CCC063
:1045A000882319F0931708F4392F8F5F4F3F09F4D0
:1045B000CBC0882319F0341708F4432F8F5F5F3F77
:1045C00009F4C0C0882319F0451708F4542F8F5FF1
:1045D0007F3F09F4B5C0882319F0571708F4752FE9
:1045E0008F5FEF3F09F4AAC0882319F07E1708F403
:1045F000E72F8F5FDF2FFF3F09F4A5CF882319F046
:10460000EF1708F452C08F5FEDCEDF2FDFCE392FCA
:104610007DCE8B2F66CEE72FCDCE752FB6CE542F05
:104620009FCE432F88CE9F3F09F44CC02F3F09F403
:1046300099C0291708F0922F81E08F5F3F3F09F45E
:104640008DC0882319F0391708F4392F8F5F4F3F39
:1046500009F482C0882319F0431708F4432F8F5FB1
:104660005F3F09F477C0882319F0541708F4542FDA
:104670008F5F7F3F09F46CC0882319F0751708F429
:10468000752F8F5FEF3F09F461C0882319F0E7179A
:1046900008F4E72F8F5FDF2FFF3F09F454CF882303
:1046A00009F4B1CFFE1708F0AECFDE2F8F5F9ACEA0
:1046B0009F3F41F02F3F09F455C0291708F4BCCFA4
:1046C000922FBACF922F80E02F3F09F0B6CFB6CF0E
:1046D000E4E0F0E0EA50F44FC4879091020C20919E
:1046E000030C3091040C4091050C5091060C709114
:1046F000070CE091080CF091090CCFCDE4E0F0E05C
:10470000EA50F44F9FEF9487E8CF90E057CE90E0C7
:1047100040CE90E029CE90E012CEB0E0FBCDB0E0EC
:10472000E4CDD0E0D0CDB0E0CACD80910A0C6111CB
:104730003CC0CD2F21E010CF392F38CFE72F5ACFF3
:10474000752F4FCF542F44CF432F39CFE72FA3CF0F
:10475000752F98CF542F8DCF432F82CF392F77CFFE
:1047600081E01BCF81E06ACF40E0E0E0F0E04FCD98
:1047700041E0E1E0F0E04BCD42E0E2E0F0E047CDA7
:1047800043E0E3E0F0E043CD44E0E4E0F0E03FCD9F
:1047900045E0E5E0F0E03BCDE0E0F0E09BCFE0E09D
:1047A000F0E0AECFE1E0F0E095CFA3DB80910A0C22
:1047B000992787FD9095019666E070E00E94EC488D
:1047C000282F20930A0CB5CFE1E0F0E099CFE2E08A
:1047D000F0E080CFE2E0F0E093CFE3E0F0E07ACFEA
:1047E000E3E0F0E08DCFE5E0F0E08ACFE5E0F0E057
:1047F00071CFE6E0F0E084CFE6E0F0E06BCFE7E0F9
:10480000F0E068CF80E020E04C2F61E0A7CE83E0AD
:10481000FACF82E0F8CF81E0F6CF84E0F4CF85E0F4
:10482000F2CF922F80E02F3F09F0B6CEB6CE809126
:104830000A0C20E091CE80959091EC108923809312
:10484000EC1096EC91BB98B1906C98B9482F440F3E
:10485000282F2695382F331F3327331F942F967018
:10486000392B30648071942F990F9072982B407C73
:10487000942B2270206C81E085B938B99BB92EB990
:1048800087E881BB85E08A95F1F700008091EB1005
:104890008F5F8093EB1008959091500C9E7F8091D4
:1048A000A60B80FD91609093500C26EC21BB28B1A3
:1048B000206C28B9492F440F292F2695342F3670A4
:1048C0003064592F551F5527551F352B592F5071BF
:1048D000942F990F9072952B407C942B2270206618
:1048E00041E045B938B99BB92EB997E891BB909191
:1048F000500C977F83FD98609093500C26EC21BB61
:1049000028B1206C28B9492F440F292F2695342F20
:1049100036703064592F551F5527551F352B592F89
:104920005071942F990F9072952B407C942B22708C
:10493000206641E045B938B99BB92EB997E891BBDB
:104940009091500C9D7F81FD92609093500C26ECCD
:1049500021BB28B1206C28B9492F440F292F269557
:10496000342F36703064592F551F5527551F352B5E
:10497000592F5071942F990F9072952B407C942B46
:104980002270206641E045B938B99BB92EB997E845
:1049900091BB9091500C9F7E84FD90619093500C40
:1049A00026EC21BB28B1206C28B9492F440F292FB0
:1049B0002695342F36703064592F551F5527551FB3
:1049C000352B592F5071942F990F9072952B407C55
:1049D000942B2270206641E045B938B99BB92EB9B5
:1049E00097E891BB9091500C9B7F82FD94609093CF
:1049F000500C26EC21BB28B1206C28B9492F440F5C
:104A0000292F2695342F36703064592F551F55277E
:104A1000551F352B592F5071942F990F9072952B4C
:104A2000407C942B2270206641E045B938B99BB98F
:104A30002EB997E891BB9091500C9F7D85FD9062B7
:104A40009093500C26EC21BB28B1206C28B9492F3B
:104A5000440F292F2695342F36703064592F551F57
:104A60005527551F352B592F5071942F990F907240
:104A7000952B407C942B2270206641E045B938B9D3
:104A80009BB92EB997E891BB9091500C9F7B86FF04
:104A900050C0892F80648093500C96EC91BB98B1E4
:104AA000906C98B9382F330F982F9695232F267036
:104AB0002064482F441F4427441F242B482F407153
:104AC000832F880F8072842B307C832B92709066AA
:104AD00031E035B928B98BB99EB987E881BB8FEF32
:104AE0008093BE0E8091A50B90E082FD1092BE0EC9
:104AF00083FF03C021E02093BE0E1092C10E9C01E3
:104B0000220F232F221F330B232B79F024E0209335
:104B1000C10E24E136E146E085FF03C04093C10E9B
:104B2000232F86FD2093C10E089520E132E142E05B
:104B3000F3CF892F9093500CB0CFBF92CF92DF92DA
:104B4000EF92FF920F931F93CF93DF93E0E1FCE08E
:104B500070E048E050E0B6ECA7E8C1E007E480EF81
:104B6000B82E92EAE92E81919191272F26952695CC
:104B700026956A0102C0CC0CDD1C2A95E2F76C2D4B
:104B80006095687F272F2770622BFFB6F8949C01F1
:104B9000232F332726952695C22EB1BBD8B1D06CD2
:104BA000D8B9122F110FD12FD670D06820713327AA
:104BB0002260312F330F3072322B212F207C322B89
:104BC0002C2D26952270206215B8D8B93BB92EB984
:104BD000A1BB9695879596958795282FB1BB38B13F
:104BE000306C38B9D82FDD0F382F3695221F222789
:104BF000221F16E0D12EDD222D29206880719927F1
:104C000082609D2F990F9072982B8D2F807C982B0E
:104C1000327015B828B99BB93EB9A1BBB1BB88B1F8
:104C2000806C88B9262F220F962F9695362F331F2A
:104C30003327331F822F8670382B30646071822FA8
:104C4000880F8072862B207C822B9270906AC5B967
:104C500038B98BB99EB9A1BB8DE08A95F1F70000F8
:104C6000B1BB88B1806C88B9C5B908B9BBB8EEB81A
:104C7000A1BB88E28A95F1F7FFBE7F5F703209F031
:104C800072CF8091500C96EC91BB98B1906C98B912
:104C9000382F330F982F9695232F26702064482F96
:104CA000441F4427441F242B482F4071832F880F13
:104CB0008072842B307C832B9270906631E035B902
:104CC00028B98BB99EB987E881BBDF91CF911F913D
:104CD0000F91FF90EF90DF90CF90BF90089580915B
:104CE000EA108F77B1F4E091E710E63008F4BAC02B
:104CF000EC3008F0A7C08FE78093FA0EE55DF0E096
:104D0000EC5FFA4F80818093FB0E81E00E94591581
:104D100014DF4091E710E42FF0E0EE0FFF1FE05F9B
:104D2000F34F20813181542F56955695569588E042
:104D300090E001C0880F5A95EAF78095887F477008
:104D4000842BFFB7F894A901452F55274695469522
:104D5000A42F66EC61BB98B1906C98B9E42FEE0F6C
:104D60007E2F767070684071552742609E2F990F94
:104D70009072942BE07C9E2B4A2F469542704062A5
:104D800015B878B99BB94EB957E851BB36952795F8
:104D900036952795422F61BB98B1906C98B9E22F58
:104DA000EE0F722F7695441F4427441F9E2F967056
:104DB000492B40682071332722609E2F990F9072F3
:104DC000922BE07C9E2B727015B848B99BB97EB9C6
:104DD00051BB61BB98B1906C98B9482F440F282FF4
:104DE0002695382F331F3327331F942F9670392B76
:104DF00030648071942F990F9072982B407C942B83
:104E00002270206A41E045B938B99BB92EB951BB2F
:104E10008DE08A95F1F7000061BB88B1806C88B99C
:104E200045B987E488B980EF8BB982EA8EB951BB66
:104E300088E28A95F1F7FFBF8091EA108F5F809337
:104E4000EA100895EB5D81E78093FA0E8E2F90E0D3
:104E50008038910560F4FC01EC5FFA4F808180930B
:104E6000FB0E53CF87E78093FA0EEF5C48CF8FEFAE
:104E7000F6CF7F928F929F92AF92BF92CF92DF92A6
:104E8000EF92FF920F931F93CF93DF93C0E3D5E789
:104E9000F6EC7F2EA0EE8A2EB7E09B2EAA24A394D8
:104EA00010E4B12E00E2C02E87E4D82E97EEE92E52
:104EB00027EFF22E02EE03C0209709F447C00FDF60
:104EC00071BA88B1806C88B987B89AB88DB8A5B81E
:104ED000B8B81BB8CEB8D1BA82E08A95F1F700C055
:104EE00046B189B12CB171BA98B1906C98B9142FB0
:104EF0001695137090E8499FA0011124142B982F48
:104F00009071192B982F969596959870192B8695D8
:104F10008076182B30E0220F331F24703327122B9A
:104F2000E7B8FAB80DB9219711FFC6CFCD2B71F0B4
:104F3000DF91CF911F910F91FF90EF90DF90CF9075
:104F4000BF90AF909F908F907F9008958CE691E0F6
:104F5000D9D88091EB100E943F15812F0E943F15F8
:104F600084E891E0DF91CF911F910F91FF90EF9036
:104F7000DF90CF90BF90AF909F908F907F90C2C8EE
:104F80007F928F929F92AF92BF92CF92DF92EF92D9
:104F9000FF920F931F93CF93DF93C0E3D5E756ECB7
:104FA000752E60EE862E77E0972EAA24A394E0E477
:104FB000BE2EF0E2CF2EA7E4DA2EB7EEEB2E17EFDF
:104FC000F12E02EE03C0209709F447C088DE71BAC3
:104FD00088B1806C88B987B89AB88DB8A5B8B8B8C8
:104FE0001BB8CEB8D1BA82E08A95F1F700C046B1BD
:104FF00089B12CB171BA98B1906C98B9142F1695EB
:10500000137090E8499FA0011124142B982F9071E0
:10501000192B982F969596959870192B86958076D2
:10502000182B30E0220F331F24703327122BE7B8E0
:10503000FAB80DB9219711FDC6CFCD2B71F0DF91D4
:10504000CF911F910F91FF90EF90DF90CF90BF9085
:10505000AF909F908F907F9008958CE691E052D80A
:105060008091EB100E943F15812F0E943F1584E82C
:1050700091E0DF91CF911F910F91FF90EF90DF9022
:10508000CF90BF90AF909F908F907F903BC88091C2
:10509000EC1080618093EC1096EC91BB98B1906C11
:1050A00098B9382F330F982F9695282F221F222733
:1050B000221F832F8670282B2064832F880F8072F5
:1050C0008061307C832B9270906C31E035B928B9C7
:1050D0008BB99EB987E881BB85E08A95F1F700001E
:1050E0008091EB108F5F8093EB1008953091EC105E
:1050F000932F98609093EC1086EC81BB88B1806C04
:1051000088B9292F220F892F8695991F9927991FD2
:10511000422F4670942B9064207C30713062232B98
:105120008270806C31E035B998B92BB98EB987E8B7
:1051300081BB85E08A95F1F700008091EB108F5FCD
:105140008093EB100895CF92DF92EF92FF92CF936E
:10515000C82FC5DD1092EC101092EB106AE081E1CF
:105160000E9466140E94FA1F0E94FA1F0E942320C8
:105170000E942E150E943520C12CD12C7601CC2303
:10518000E9F081E058DBFCDE0E94981472DEAEDFAD
:10519000F7DE80E150DB6DDE7ADFF2DE88E04BDBAC
:1051A00068DE82E048DB0E943520C1500E940C205E
:1051B000C80ED91EE11CF11CC111E3CFB601C70115
:1051C000CF91FF90EF90DF90CF9008952F923F9274
:1051D0004F925F926F927F928F929F92AF92BF9207
:1051E000CF92DF92EF92FF920F931F93CF93DF93B3
:1051F00000D000D000D0CDB7DEB7D82E662EC42E9A
:10520000722E70E080E090E00E94134A9B01AC0196
:1052100060E070E080E090E40E94AA4BA801970152
:105220000E94474B9B01AC0160E074E284EF99E47B
:105230000E947F494B015C018D2D90E09E838D8300
:10524000760C072D112707FD1095EE24E394F12C21
:1052500001C0EE0C7A94EAF77E2C6D2D8C2D0E9405
:10526000AF17019609F0EDC46D2D8C2D0E94AF177C
:105270008F3F9F4708F4F9C46FEF7FEF8FE79FE7F9
:10528000262F372F482F592F682D792D8A2D9B2DAA
:105290000E94784987FF89C1EE24EA94FFEBFF2E34
:1052A0006D2D8C2D0E94AF178E159F0508F489C1B6
:1052B0006FEF7FEF8FE79FE7262F372F482F592F6C
:1052C000682D792D8A2D9B2D0E94784987FD78C401
:1052D00020E2F21A6D2D8C2D0E94AF178E159F05BE
:1052E00008F478C46FEF7FEF8FE79FE7262F372F03
:1052F000482F592F682D792D8A2D9B2D0E94784992
:1053000087FD1DC490E1F91A6D2D8C2D0E94AF17F9
:105310008E159F0508F41DC46FEF7FEF8FE79FE7A1
:10532000262F372F482F592F682D792D8A2D9B2D09
:105330000E94784987FDC2C3F8E0FF1A6D2D8C2DBD
:105340000E94AF178E159F0508F4C2C36FEF7FEF61
:105350008FE79FE7262F372F482F592F682D792D5C
:105360008A2D9B2D0E94784987FD67C384E0F81A37
:105370006D2D8C2D0E94AF178E159F0508F467C305
:105380006FEF7FEF8FE79FE7262F372F482F592F9B
:10539000682D792D8A2D9B2D0E94784987FD0CC39D
:1053A000E2E0FE1A6D2D8C2D0E94AF178E159F0521
:1053B00008F40CC36FEF7FEF8FE79FE7262F372F9F
:1053C000482F592F682D792D8A2D9B2D0E947849C1
:1053D00087FDB2C2FA946D2D8C2D0E94AF178E15E9
:1053E0009F0508F4B2C26FEF7FEF8FE79FE7262F8C
:1053F000372F482F592F682D792D8A2D9B2D0E94EC
:10540000784987FD57C290E8E91AF1086D2D8C2D77
:105410000E94AF178E159F0508F457C26FEF7FEFFC
:105420008FE79FE7262F372F482F592F682D792D8B
:105430008A2D9B2D0E94784987FDFAC1F0E4EF1A6E
:10544000F1086D2D8C2D0E94AF178E159F0508F465
:10545000FAC16FEF7FEF8FE79FE7262F372F482F97
:10546000592F682D792D8A2D9B2D0E94784987FD13
:105470009DC180E2E81AF1086D2D8C2D0E94AF17B6
:105480008E159F0508F49DC16FEF7FEF8FE79FE7B3
:10549000262F372F482F592F682D792D8A2D9B2D98
:1054A0000E94784987FD40C1E0E1EE1AF1086D2DB8
:1054B0008C2D0E94AF178E159F0508F440C16FEF29
:1054C0007FEF8FE79FE7262F372F482F592F682D23
:1054D000792D8A2D9B2D0E94784987FDE3C028E015
:1054E000E21AF1086D2D8C2D0E94AF178E159F05C5
:1054F00008F4E3C06FEF7FEF8FE79FE7262F372F8A
:10550000482F592F682D792D8A2D9B2D0E9478497F
:1055100087FD92C094E0E91AF1086D2D8C2D0E9450
:10552000AF178E159F0508F492C06FEF7FEF8FE7DE
:105530009FE7282D392D4A2D5B2D0E94FE4A181613
:105540000CF076C0F2E0EF0EF11C862D90E0880F93
:10555000991FFC01EE0FFF1FEE0FFF1FEE0FFF1F45
:10556000E80FF91F8D819E81E80FF91FEE0FFF1FD5
:10557000E95CF04FF182E08226960FB6F894DEBF28
:105580000FBECDBFDF91CF911F910F91FF90EF9094
:10559000DF90CF90BF90AF909F908F907F906F9053
:1055A0005F904F903F902F900895EE24EA94EFE3A0
:1055B000FE2E6D2D8C2D0E94AF178E159F0508F0C5
:1055C00077CEED81FE81EE0FFF1FE05FF34FF1829A
:1055D000E082872DB8DD1B012C0166277727601B31
:1055E000710B882777FD8095982F0E94154A9B01A3
:1055F000AC0160E070E080E090E40E94AA4B562F7E
:10560000472F382F292FC201B1012C833B834A83B6
:1056100059830E94134A59814A813B81532E2C8120
:10562000E22F252F342F452D5E2F0E94474B44CE6D
:1056300022E0E21AF10889CFE4E0EE0EF11C6D2DB4
:105640008C2D0E94AF178E159F0508F06ECFED814F
:10565000FE81EE0FFF1FE05FF34FF182E082872DA6
:1056600072DD1B012C0166277727601B710B8827D1
:1056700077FD8095982F0E94154A9B01AC0160E050
:1056800070E080E090E40E94AA4B6B018C01C201A3
:10569000B1010E94134A2C2D3D2D402F512F0E9405
:1056A000474B47CF88E0E80EF11C6D2D8C2D0E94F2
:1056B000AF178E159F0508F01DCFED81FE81EE0F0F
:1056C000FF1FE05FF34FF182E082872D3CDD1B017D
:1056D0002C0166277727601B710B882777FD809543
:1056E000982F0E94154A9B01AC0160E070E080E0B9
:1056F00090E40E94AA4B562F472F382F292FC20122
:10570000B1012C833B834A8359830E94134A5981F8
:105710004A813B81532E2C81E22F252F342F452D9A
:105720005E2F0E94474BEACEF0E1EF0EF11C6D2D8B
:105730008C2D0E94AF178E159F0508F0C0CEED810D
:10574000FE81EE0FFF1FE05FF34FF182E082872DB5
:10575000FADC1B012C0166277727601B710B882759
:1057600077FD8095982F0E94154A9B01AC0160E05F
:1057700070E080E090E40E94AA4B562F472F382F0C
:10578000292FC201B1012C833B834A8359830E9494
:10579000134A59814A813B81532E2C81E22F252FB8
:1057A000342F452D5E2F0E94474B8DCE90E2E90E9F
:1057B000F11C6D2D8C2D0E94AF178E159F0508F0E2
:1057C00063CEED81FE81EE0FFF1FE05FF34FF182AC
:1057D000E082872DB8DC1B012C0166277727601B30
:1057E000710B882777FD8095982F0E94154A9B01A1
:1057F000AC0160E070E080E090E40E94AA4B562F7C
:10580000472F382F292FC201B1012C833B834A83B4
:1058100059830E94134A59814A813B81532E2C811E
:10582000E22F252F342F452D5E2F0E94474B30CE7F
:1058300020E4E20EF11C6D2D8C2D0E94AF178E1509
:105840009F0508F006CEED81FE81EE0FFF1FE05FA1
:10585000F34FF182E082872D76DC1B012C01662755
:105860007727601B710B882777FD8095982F0E9402
:10587000154A9B01AC0160E070E080E090E40E947A
:10588000AA4B562F472F382F292FC201B1012C8345
:105890003B834A8359830E94134A59814A813B8141
:1058A000532E2C81E22F252F342F452D5E2F0E9461
:1058B000474BD3CDE0E8EE0EF11C6D2D8C2D0E94F0
:1058C000AF178E159F0508F0A9CDED81FE81EE0F73
:1058D000FF1FE05FF34FF182E082872D34DC1B0174
:1058E0002C0166277727601B710B882777FD809531
:1058F000982F0E94154A9B01AC0160E070E080E0A7
:1059000090E40E94AA4B562F472F382F292FC2010F
:10591000B1012C833B834A8359830E94134A5981E6
:105920004A813B81532E2C81E22F252F342F452D88
:105930005E2F0E94474B76CDF3946D2D8C2D0E94E7
:10594000AF178E159F0508F04ECDED81FE81EE0F4D
:10595000FF1FE05FF34FF182E082872DF4DB1B0134
:105960002C0166277727601B710B882777FD8095B0
:10597000982F0E94154A9B01AC0160E070E080E026
:1059800090E40E94AA4B562F472F382F292FC2018F
:10599000B1012C833B834A8359830E94134A598166
:1059A0004A813B81532E2C81E22F252F342F452D08
:1059B0005E2F0E94474B1BCDFEEFFF1A6D2D8C2DE5
:1059C0000E94AF178E159F0508F0F4CCED81FE8183
:1059D000EE0FFF1FE05FF34FF182E082872DB3DB14
:1059E0001B012C0166277727601B710B882777FD29
:1059F0008095982F0E94154A9B01AC0160E070E0F1
:105A000080E090E40E94AA4B562F472F382F292F71
:105A1000C201B1012C833B834A8359830E94134AFC
:105A200059814A813B81532E2C81E22F252F342F1F
:105A3000452D5E2F0E94474BC1CC9CEFF91A6D2D6E
:105A40008C2D0E94AF178E159F0508F099CCED8123
:105A5000FE81EE0FFF1FE05FF34FF182E082872DA2
:105A600072DB1B012C0166277727601B710B8827CF
:105A700077FD8095982F0E94154A9B01AC0160E04C
:105A800070E080E090E40E94AA4B562F472F382FF9
:105A9000292FC201B1012C833B834A8359830E9481
:105AA000134A59814A813B81532E2C81E22F252FA5
:105AB000342F452D5E2F0E94474B66CC28EFF21AFB
:105AC0006D2D8C2D0E94AF178E159F0508F03ECCD2
:105AD000ED81FE81EE0FFF1FE05FF34FF182E08268
