:100000004BC0000042C2000040C200003EC20000DF
:100010003CC200000C94A35C38C2000036C2000051
:1000200034C2000032C200000C94995C0C948F5CC6
:100030002CC200002AC2000028C2000026C2000014
:1000400024C2000022C2000020C200001EC2000024
:100050001CC200000C94715D18C2000016C20000A2
:1000600014C2000012C2000010C200000EC2000044
:100070000CC200000AC2000008C2000006C2000054
:1000800004C2000002C2000000C20000FEC1000065
:10009000FCC10000FAC1000011241FBECFEFD0E266
:1000A000DEBFCDBF0E9400F0D7C10000076342361B
:1000B000B79BD8A71A39685618AEBAAB558C1D3CF9
:1000C000B7CC5763BD6DEDFD753EF6177231BF00BD
:1000D0000000803F05A84CCDB2D44EB93836A902F5
:1000E0000C50B9918688083CA6AAAA2ABE00000036
:1000F000803F08000000BE922449123EABAAAA2A03
:10010000BECDCCCC4C3E00000080BEABAAAAAA3E1D
:1001100000000000BF000000803F00000000000859
:100120004178D3BB4387D1133D190E3CC3BD4282F6
:10013000AD2B3E68EC8276BED98FE1A93E4C80EFB4
:10014000FFBE01C4FF7F3F0000000000FF004C8A9B
:1001500097509545406BA6D8E4B2282EAE90BF26A6
:10016000B14EE86FD0FBE0709A51862C379845323B
:10017000539D06840D971A8CE61E2E0DB41D401655
:100180009AC591F9F786A142660620AFAE19EE270F
:10019000C2BB0EBAB90AAA95CA45040444C1796A19
:1001A00091EE7D3E2E4C960BA96E5A6A9FF56D0519
:1001B000BB8F808DB4F54FC14AE99E674536394FF4
:1001C00075ADF44CB227A939D78036F7C49C7E6A46
:1001D000605F677992B4DD0E4786CD1A6DC6258AB9
:1001E000F464D953D154DB67F78B22BD5CFEA44D78
:1001F000F9A7590EC57E3BF9BA7D430AD39F6C3BE4
:100200000BDEB2875E3710ECC8A6856546290CF177
:10021000D6BCA38C755E4934200DFAE9D7C7B6A7C2
:10022000988A7C6E6155493D32271D1209FFF6EE12
:10023000E5DDD5CEC6BFB9B2ACA6A09A958F8A85AA
:10024000817C78736F6B6864605D5A56FF59E97DF5
:1002500015B150F39942EE9D4F04BC7632F1B2765F
:100260003B03CC98653405D8AC8259320CE7C4A264
:100270008161432509EDD3B9A089725C46321E0B1A
:10028000F8E6D5C4B4A596887A6D6053473C30260D
:100290001B1108FEF5EDE4DCD4CDC6BFB8B1ABA5AB
:1002A0009F99948F8A85807C77736F6B6763605D9D
:1002B000595653504D4A484543403E3C3A383634EF
:1002C00032302E2D2B2A282725242321201F1E1DC6
:1002D0001C1B1A19181716161514131312111110C6
:1002E0000F0F0E0E0D0D0C0C0B0B0B0A0A09090952
:1002F0000808080807070706060606060505050597
:1003000005040404040404030303030303030302B6
:1003100002020202020202020202010101010101C3
:1003200001010101010101010101010101000000C0
:1003300000000000000000000000000000000000BD
:10034000000000000000000000000000FF0C0B0B8C
:100350000B0A0A090909080808080707070606061C
:100360000606050505050504040404040403030347
:100370000303030303020202020202020202020258
:10038000010101010101010101010101010101015D
:10039000010101000000000000000000000000005A
:1003A000000000000000000000000000000000004D
:1003B000000000000000000000000000000000003D
:1003C000000000000000000000000000000000002D
:1003D000000000000000000000000000000000001D
:1003E000000000000000000000000000000000000D
:1003F00000000000000000000000000000000000FD
:1004000000000000000000000000000000000000EC
:1004100000000000000000000000000000000000DC
:1004200000000000000000000000000000000000CC
:1004300000000000000000000000000000000000BC
:1004400000000000000000000000000011241FBE9A
:10045000CFEFD0E2DEBFCDBF17E1ACE3B9E001C022
:100460001D92AE35B107E1F719E0A0E0B1E0E8E791
:10047000F4ED00E00BBF02C007900D92AC33B10762
:10048000D9F70E94AA5D0C943A6ABACD2F923F9296
:100490004F925F926F927F928F929F92AF92BF9294
:1004A000CF92DF92EF92FF920F931F93CF93DF9340
:1004B000CDB7DEB72A970FB6F894DEBF0FBECDBF1B
:1004C0008FE09DE00E945E270091400D1091410D4C
:1004D0001E830D832091CC0D20FF1BC025FD02C083
:1004E0000C94190F0D811E811C830B8324FD13C0F6
:1004F0008091250D9091260D959587954D815E8172
:10050000480F591F5E834D8321FD07C0C12CD12C9C
:1005100008C01C830B8321FFF9CFC090250DD0901C
:10052000260D8091EC0D9091ED0DA0E0B0E090587B
:10053000A109B1097C018091C80D882311F40C94A4
:10054000150F8091FE0D9091FF0DA0E0B0E0905846
:10055000A109B109B7FF02C00C944E11B595A7953A
:10056000979587955C015FB6F8948091A6098823DA
:1005700011F40C949A0E87E19BE00E94EA266090A9
:100580003B0B70903C0B2B813C81442737FD409501
:10059000542F2F83388749875A874D815E81CA013E
:1005A000AA2797FDA095BA2F2091510D3091520D99
:1005B000820F931FA11DB11DB7FF02C00C94DD0E69
:1005C000009751E0A507B10524F08FEF9FEFA0E061
:1005D000B0E09C01232F332726952695B22FE6EC19
:1005E000E1BB469AA22FAA0FFA2FF670F06820718D
:1005F000332722603A2F330F3072322BA07C3A2BF4
:100600002B2F26952270206215B8F8B93BB92EB968
:1006100037E831BB9695879596958795282FE1BB4E
:10062000469AA82FAA0FF82FF695221F2227221FDD
:10063000BA2FB6702B2B20688071992782609A2F71
:10064000990F9072982BA07C9A2BF27015B828B94C
:100650009BB9FEB931BB00C000C0E1BB469A91E036
:1006600095B985E488B980ED8BB982EA8EB931BB42
:1006700000C000C0E1BB469A95B997E498B990EFE5
:100680009BB98EB931BBB5018301AA27609FB12DFB
:1006900071034001169FB00D811C9A1E70039A0AC7
:1006A000B00D811C9A1E1124C401AA2797FDA095A4
:1006B000BA2F2F81388549855A85820F931FA41F31
:1006C000B51F2091450D3091460D820F931FA11D3E
:1006D000B11DB7FF02C00C94F00E009731E0A307E4
:1006E000B10524F08FEF9FEFA0E0B0E04C01692D41
:1006F0006695669581E090E40E94514FB40176952D
:1007000067957695679580E090E40E94514F00C010
:1007100000C026EC21BB469A91E095B981E488B9E6
:1007200080ED8BB980EA8EB987E881BB00C000C03C
:1007300021BB469A95B997E498B990EF9BB992EA94
:100740009EB981BBA601662757FD6095762F87016C
:100750009301AA27029FB12D1303C001309FB00D52
:10076000811D9A1F12039A0BB00D811D9A1F11242F
:10077000AA2797FDA095BA2F480F591F6A1F7B1F04
:1007800080915D0D90915E0D480F591F611D711D87
:1007900077FF02C00C94EB0E4115510531E0630761
:1007A000710524F04FEF5FEF60E070E04A01692DC2
:1007B0006695669581E090E40E94514FB40176956C
:1007C00067957695679580E090E40E94514F00C050
:1007D00000C086EC482E41BA469A6624639465B8F8
:1007E00081E488B980EE8BB992EA392E3EB827E8C9
:1007F000722E71BA00C000C041BA469A65B827E4AB
:1008000028B930EF232E2BB83EB871BA83E19CE0B3
:100810002A830E94EA268090370C9090380C692D2C
:100820006695669581E090E40E94514FB4017695FB
:1008300067957695679580E090E40E94514F00C0DF
:1008400000C041BA469A65B885E488B980EB8BB997
:1008500080EA8EB971BA00C000C041BA469A65B844
:100860002A8128B92BB83EB871BA5FBE9FB6F894FA
:100870008091AF09882311F40C94700E81E49BE001
:100880000E94EA262091650B3091660B0B811C813A
:100890002801662457FC6094762C4D815E81CA0144
:1008A000AA2797FDA095BA2F4091530D5091540D52
:1008B000840F951FA11DB11DB7FF02C00C94D80E67
:1008C000009751E0A507B10524F08FEF9FEFA0E05E
:1008D000B0E0AC01452F552746954695F42F66ECC0
:1008E00061BB469AE42FEE0F7E2F767070684071E0
:1008F000552742605E2F550F5072542BE07C5E2BC3
:100900004F2F46954270406215B878B95BB94EB921
:1009100057E851BB9695879596958795482F61BB6B
:10092000469AE82FEE0F782F7695441F4427441FF0
:10093000FE2FF6704F2B40688071992782609E2FA2
:10094000990F9072982BE07C9E2B727015B848B965
:100950009BB97EB951BB00C000C061BB469A41E063
:1009600045B997E498B980ED8BB982EA8EB951BB4D
:1009700000C000C061BB469A45B998B990EF9BB9D9
:100980008EB951BBB501AA27629FB12D7303C00177
:10099000369FB00D811D9A1F72039A0BB00D811DF9
:1009A0009A1F1124AA2797FDA095BA2F840D951D93
:1009B000A61DB71D4091470D5091480D840F951FFE
:1009C000A11DB11DB7FF02C00C94D30E009771E0BA
:1009D000A707B10524F08FEF9FEFA0E0B0E0AC01D6
:1009E000452F552746954695F42FE6ECE1BB469AF0
:1009F000742F770F672F66706068407155274260CB
:100A0000572F550F5072542B707C572B4F2F4695F4
:100A10004270406215B868B95BB94EB977E871BBEE
:100A2000AC015695479556954795642FE1BB469A7C
:100A3000A42FAA0FF42FF695661F6627661F8A2F2C
:100A40008670682B60684071552742609A2F990F15
:100A50009072942BA07C9A2BF27015B868B99BB950
:100A6000FEB971BB00C000C0E1BB469A81E085B908
:100A700093E498B990ED9BB990EA9EB971BB00C020
:100A800000C0E1BB469A85B987E488B980EF8BB98D
:100A900082EA8EB971BBA601662757FD6095762F55
:100AA0008701AA27029FB12D1303C001309FB00D0B
:100AB000811D9A1F12039A0BB00D811D9A1F1124DC
:100AC000AA2797FDA095BA2F480F591F6A1F7B1FB1
:100AD00080915F0D9091600D480F591F611D711D30
:100AE00077FF02C00C94CE0E4115510511E061074D
:100AF000710524F04FEF5FEF60E070E0CA01892FCD
:100B0000992786958695682F06EC802E81BA469A9D
:100B1000382F330F232F2670206880719927826029
:100B2000932F990F9072982B307C932B862F86955C
:100B30008270806215B828B99BB98EB987E8782E83
:100B400071BA5695479556954795942F81BA469A0E
:100B5000342F330F242F2695991F9927991F832F00
:100B60008670982B9068407155274260832F880FBC
:100B70008072842B307C832B227015B898B98BB986
:100B80002EB971BA00C000C081BA469A6624639437
:100B900065B883E488B980EE8BB922EA522E5EB83C
:100BA00071BA00C000C081BA469A65B837E4432ED6
:100BB00048B840EF342E3BB85EB871BA8DE39CE084
:100BC0000E94EA266091610C7091620CCB01892F22
:100BD000992786958695482F81BA469A382F330FE4
:100BE000232F26702068807199278260932F990F98
:100BF0009072982B307C932B842F86958270806224
:100C000015B828B99BB98EB971BA7695679576955E
:100C1000679580E090E40E94514F00C000C081BA07
:100C2000469A65B848B880EB8BB980EA8EB971BA3C
:100C300000C000C081BA469A65B848B83BB85EB8F3
:100C400071BA9FBE9FB6F8948091B809882311F4B9
:100C50000C94400E8BE69BE00E94EA2620918F0BBD
:100C60003091900B4B815C812A01662457FC609483
:100C7000762C0D811E81C801AA2797FDA095BA2F59
:100C80004091550D5091560D840F951FA11DB11D1A
:100C9000B7FF02C00C94C90E009711E0A107B1057F
:100CA00024F08FEF9FEFA0E0B0E0AC01452F552777
:100CB00046954695F42F66EC61BB469AE42FEE0FFD
:100CC0007E2F767070684071552742605E2F550FF9
:100CD0005072542BE07C5E2B4F2F46954270406241
:100CE00015B878B95BB94EB957E851BB9695879559
:100CF00096958795482F61BB469AE82FEE0F782F7F
:100D00007695441F4427441FFE2FF6704F2B4068F2
:100D10008071992782609E2F990F9072982BE07CAA
:100D20009E2B727015B848B99BB97EB951BB00C0F3
:100D300000C061BB469A81E085B991E498B990EE14
:100D40009BB990EA9EB951BB00C000C061BB469AF6
:100D500085B987E488B980EF8BB982EA8EB951BB37
:100D6000A501AA27429FB12D5303C001349FB00DA6
:100D7000811D9A1F52039A0BB00D811D9A1F1124D9
:100D8000AA2797FDA095BA2F840D951DA61DB71D06
:100D90004091490D50914A0D840F951FA11DB11D21
:100DA000B7FF02C00C94E60E009751E0A507B1050D
:100DB00024F08FEF9FEFA0E0B0E0AC01452F552766
:100DC00046954695F42FE6ECE1BB469A742F770FD3
:100DD000672F66706068407155274260572F550F26
:100DE0005072542B707C572B4F2F469542704062A7
:100DF00015B868B95BB94EB977E871BBAC015695C7
:100E0000479556954795642FE1BB469AA42FAA0FA4
:100E1000F42FF695661F6627661F8A2F8670682B4B
:100E200060684071552742609A2F990F9072942BF9
:100E3000A07C9A2BF27015B868B99BB9FEB971BB4A
:100E400000C000C0E1BB469A81E085B995E498B93D
:100E500090ED9BB990EA9EB971BB00C000C0E1BBA8
:100E6000469A85B987E488B980EF8BB982EA8EB952
:100E700071BBA601662757FD6095762F8701AA27CB
:100E8000029FB12D1303C001309FB00D811D9A1F29
:100E900012039A0BB00D811D9A1F1124AA2797FDEA
:100EA000A095BA2F480F591F6A1F7B1F8091610DB3
:100EB0009091620D480F591F611D711D77FD82C70A
:100EC0004115510511E06107710524F04FEF5FEF07
:100ED00060E070E0CA01892F992786958695682F72
:100EE000B6EC8B2E81BA469A382F330F232F2670FB
:100EF0002068807199278260932F990F9072982BA8
:100F0000307C932B862F86958270806215B828B925
:100F10009BB98EB917E8712E71BA569547955695BB
:100F20004795942F81BA469A342F330F242F269554
:100F3000991F9927991F832F8670982B906840716D
:100F400055274260832F880F8072842B307C832B3F
:100F5000227015B898B98BB92EB971BA00C000C00B
:100F600081BA469A5524539455B885E488B980EEE1
:100F70008BB982EA682E6EB871BA00C000C081BA1F
:100F8000469A55B897E4392E38B820EF422E4BB820
:100F90006EB871BA87E69CE00E94EA2680918B0CBD
:100FA00090918C0C9C01232F332726952695622F38
:100FB00081BA469A522F550F452F467040682071CE
:100FC00033272260352F330F3072322B507C352B74
:100FD000262F26952270206215B848B93BB92EB944
:100FE00071BA9695879596958795282F81BA469AD6
:100FF000482F440F382F3695221F2227221F542FA7
:101000005670252B2068807199278260942F990F44
:101010009072982B407C942B327015B828B99BB9EC
:101020003EB971BA00C000C081BA469A55B881E491
:1010300088B980EB8BB96EB871BA00C000C081BAB4
:10104000469A55B838B84BB86EB871BA9FBE3FB71C
:101050003983F8948091C109882309F4E1C585E9B1
:101060009BE00E94EA268090B90B9090BA0B4B81CE
:101070005C811A01442437FC4094542C0D811E815C
:10108000A801662757FD6095762F8091570D9091A6
:10109000580D480F591F611D711D77FD76C641150A
:1010A000510511E06107710524F04FEF5FEF60E03B
:1010B00070E03A01672D6695669581E090E40E94A4
:1010C000514FB301769567957695679580E090E4EA
:1010D0000E94514F00C000C026EC21BB469A91E00F
:1010E00095B983E488B980EE8BB980EA8EB987E838
:1010F00081BB00C000C021BB469A95B997E498B95E
:1011000090EF9BB992EA9EB981BB9501A401AA27F1
:10111000249FB12D3503C001529FB00D811D9A1F30
:1011200034039A0BB00D811D9A1F1124AA2797FD35
:10113000A095BA2F820D931DA41DB51D20914B0DB6
:1011400030914C0D820F931FA11DB11DB7FD59C6E3
:10115000009751E0A507B10524F08FEF9FEFA0E0C5
:10116000B0E03C01672D6695669581E090E40E94B1
:10117000514FB301769567957695679580E090E439
:101180000E94514F00C000C036EC31BB469A21E0AE
:1011900025B997E498B980ED8BB980EA8EB987E8D4
:1011A00081BB00C000C031BB469A25B998B990EF09
:1011B0009BB992EA9EB981BBA601662757FD60954F
:1011C000762F87019401AA27029FB12D1303C00136
:1011D000309FB00D811D9A1F12039A0BB00D811D17
:1011E0009A1F1124AA2797FDA095BA2F480F591FBF
:1011F0006A1F7B1F8091630D9091640D480F591FEA
:10120000611D711D77FDF9C54115510531E0630779
:10121000710524F04FEF5FEF60E070E04A01692D47
:101220006695669581E090E40E94514FB4017695F1
:1012300067957695679580E090E40E94514F00C0D5
:1012400000C0A6EC8A2E81BA469A6624639465B8DB
:10125000B7E44B2E48B880EE8BB912EA712E7EB8F7
:1012600007E8902E91BA00C000C081BA469A65B8CE
:1012700048B880EF382E3BB87EB891BA81E99CE03F
:101280000E94EA268091B50C9091B60C9C01232F08
:10129000332726952695622F81BA469A522F550FED
:1012A000452F46704068207133272260352F330F59
:1012B0003072322B507C352B262F269522702062DF
:1012C00015B848B93BB92EB991BA969587959695B8
:1012D0008795282F81BA469A482F440F382F369584
:1012E000221F2227221F542F5670252B2068807121
:1012F00099278260942F990F9072982B407C942BA1
:10130000327015B828B99BB93EB991BA00C000C077
:1013100081BA469A65B883E488B980EB8BB97EB808
:1013200091BA00C000C081BA469A65B848B83BB8C7
:101330007EB891BA59815FBF7FB77983F894809165
:10134000CA09882309F43CC48FEB9BE00E94EA267B
:101350006090E30B7090E40B0B811C811801442416
:1013600037FC4094542C2D813E81A901662757FDFE
:101370006095762F8091590D90915A0D480F591F05
:10138000611D711D77FD35C54115510531E06307BC
:10139000710524F04FEF5FEF60E070E04A01692DC6
:1013A0006695669581E090E40E94514FB401769570
:1013B00067957695679580E090E40E94514F00C054
:1013C00000C026EC21BB469A91E095B985E488B926
:1013D00080EE8BB980EA8EB987E881BB00C000C07F
:1013E00021BB469A95B997E498B990EF9BB992EAD8
:1013F0009EB981BBA501B301AA27469FB12D570312
:10140000C001749FB00D811D9A1F56039A0BB00D39
:10141000811D9A1F1124AA2797FDA095BA2F820D2E
:10142000931DA41DB51D20914D0D30914E0D820FC1
:10143000931FA11DB11DB7FDF4C4009771E0A7076C
:10144000B10524F08FEF9FEFA0E0B0E09C01232FC7
:10145000332726952695722F46EC41BB469A622F7C
:10146000660F562F56705068207133272260362F32
:10147000330F3072322B607C362B272F269522704B
:10148000206215B858B93BB92EB937E831BB9695EB
:10149000879596958795282F41BB469A682F660FAA
:1014A000582F5695221F2227221F762F7670272B22
:1014B0002068807199278260962F990F9072982BDF
:1014C000607C962B527015B828B99BB95EB931BBB8
:1014D00000C000C041BB469A91E095B981E488B94B
:1014E00080ED8BB982EA8EB931BB00C000C041BB30
:1014F000469A95B997E498B990EF9BB98EB931BBEC
:10150000A601662757FD6095762F87019301AA27CC
:10151000029FB12D1303C001309FB00D811D9A1F92
:1015200012039A0BB00D811D9A1F1124AA2797FD53
:10153000A095BA2F480F591F6A1F7B1F8091650D18
:101540009091660D480F591F611D711D77FD65C48F
:101550004115510531E06307710524F04FEF5FEF4E
:1015600060E070E0CA01892F992786958695682FDB
:10157000B6EC9B2E91BA469A382F330F232F267044
:101580002068807199278260932F990F9072982B11
:10159000307C932B862F86958270806215B828B98F
:1015A0009BB98EB917E8812E81BA56954795569505
:1015B0004795942F91BA469A342F330F242F2695AE
:1015C000991F9927991F832F8670982B90684071D7
:1015D00055274260832F880F8072842B307C832BA9
:1015E000227015B898B98BB92EB981BA00C000C065
:1015F00091BA469A7724739475B881E488B980EBE0
:10160000282E2BB880EA8EB981BA00C000C091BAEA
:10161000469A75B897E4392E38B820EF422E4BB869
:1016200032EA632E6EB881BA8BEB9CE00E94EA2608
:101630008091DF0C9091E00C9C01232F332726959D
:101640002695622F91BA469A522F550F452F467014
:101650004068207133272260352F330F3072322BD0
:10166000507C352B262F26952270206215B848B95C
:101670003BB92EB981BA9695879596958795282F6F
:1016800091BA469A482F440F382F3695221F2227A9
:10169000221F542F5670252B206880719927826055
:1016A000942F990F9072982B407C942B327015B820
:1016B00028B99BB93EB981BA00C000C091BA469A18
:1016C00075B885E488B92BB86EB881BA00C000C07F
:1016D00091BA469A75B838B84BB86EB881BA598184
:1016E0005FBF9FB6F8948091D309882309F439C26B
:1016F00089EE9BE00E94EA2620910D0C30910E0CA1
:101700000B811C812801662457FC6094762C4D8146
:101710005E81CA01AA2797FDA095BA2F40915B0D63
:1017200050915C0D840F951FA11DB11DB7FD5DC3C8
:10173000009751E0A507B10524F08FEF9FEFA0E0DF
:10174000B0E0AC01452F552746954695F42F66EC41
:1017500061BB469AE42FEE0F7E2F76707068407161
:10176000552742605E2F550F5072542BE07C5E2B44
:101770004F2F46954270406215B878B95BB94EB9A3
:1017800057E851BB9695879596958795482F61BBED
:10179000469AE82FEE0F782F7695441F4427441F72
:1017A000FE2FF6704F2B40688071992782609E2F24
:1017B000990F9072982BE07C9E2B727015B848B9E7
:1017C0009BB97EB951BB00C000C061BB469A91E095
:1017D00095B987E488B940EE4BB940EA4EB951BBA0
:1017E00000C000C061BB469A95B988B980EF8BB93B
:1017F00082EA8EB951BBB501AA27629FB12D73034E
:10180000C001369FB00D811D9A1F72039A0BB00D57
:10181000811D9A1F1124AA2797FDA095BA2F840D28
:10182000951DA61DB71D40914F0D5091500D840F71
:10183000951FA11DB11DB7FDECC2009771E0A70770
:10184000B10524F08FEF9FEFA0E0B0E0AC01452F91
:10185000552746954695F42F66EC61BB469AE42FD2
:10186000EE0F7E2F767070684071552742605E2FB4
:10187000550F5072542BE07C5E2B4F2F46954270D3
:10188000406215B878B95BB94EB957E851BB969527
:10189000879596958795482F61BB469AE82FEE0F5E
:1018A000782F7695441F4427441FFE2FF6704F2B48
:1018B00040688071992782609E2F990F9072982BB3
:1018C000E07C9E2B727015B848B99BB97EB951BBAC
:1018D00000C000C061BB469A91E095B983E488B925
:1018E00080ED8BB982EA8EB951BB00C000C061BBEC
:1018F000469A95B997E498B990EF9BB98EB951BBC8
:10190000A601662757FD6095762F8701AA27029FBB
:10191000B12D1303C001309FB00D811D9A1F12031A
:101920009A0BB00D811D9A1F1124AA2797FDA0952F
:10193000BA2F480F591F6A1F7B1F8091670D909126
:10194000680D480F591F611D711D77FD5EC241155D
:10195000510511E06107710524F04FEF5FEF60E082
:1019600070E0CA01892F992786958695682F36ECF5
:10197000B32EB1BA469A382F330F232F2670206822
:10198000807199278260932F990F9072982B307CE9
:10199000932B862F86958270806215B828B99BB9E3
:1019A0008EB967E8C62EC1BA5695479556954795A4
:1019B000942FB1BA469A342F330F242F2695991FAE
:1019C0009927991F832F8670982B9068407155270F
:1019D0004260832F880F8072842B307C832B22708F
:1019E00015B898B98BB92EB9C1BA00C000C0B1BA48
:1019F000469A11E015B983E488B9E0EBDE2EDBB836
:101A000080EA8EB9C1BA00C000C0B1BA469A15B911
:101A1000F7E4FF2EF8B8A0EFEA2EEBB802EA0EB911
:101A2000C1BA85EE9CE00E94EA268091090D909152
:101A30000A0D9C01232F332726952695622FB1BAD4
:101A4000469A522F550F452F467040682071332714
:101A50002260352F330F3072322B507C352B262FDE
:101A600026952270206215B848B93BB92EB9C1BA83
:101A70009695879596958795282FB1BA469A482FBF
:101A8000440F382F3695221F2227221F542F5670BD
:101A9000252B2068807199278260942F990F90726E
:101AA000982B407C942B327015B828B99BB93EB95D
:101AB000C1BA00C000C0B1BA469A15B9F8B8DBB8CF
:101AC0000EB9C1BA00C000C0B1BA469A15B9F8B88B
:101AD000EBB80EB9C1BA9FBE90913C09292F2C7169
:101AE00011E009F010E09370923009F4AEC1933028
:101AF00009F4CDC3913009F4B2C11111D4C304D794
:101B00008091130B9091140BA091150BB091160BB3
:101B10000196A11DB11D8093130B9093140BA093FC
:101B2000150BB093160B80913C098F5F80933C0995
:101B30002A960FB6F894DEBF0FBECDBFDF91CF91CE
:101B40001F910F91FF90EF90DF90CF90BF90AF90DB
:101B50009F908F907F906F905F904F903F902F90CD
:101B6000089525E32A95F1F7000096EC91BB469A7B
:101B700015B830E838B922E02BB980E28EB987E891
:101B800081BB91BB469A15B838B92BB91EB881BB39
:101B900000C000C091BB469A41E045B937E438B96E
:101BA00020EB2BB922EA2EB981BB00C000C091BB4B
:101BB000469A45B938B990EF9BB92EB981BB8BCF06
:101BC00045E34A95F1F7000096EC91BB469A15B8AB
:101BD00030E838B922E02BB980E28EB987E881BBC2
:101BE00091BB469A15B838B92BB91EB881BB00C055
:101BF00000C091BB469A31E035B925E428B920EB05
:101C00002BB922EA2EB981BB00C000C091BB469A15
:101C100035B997E498B990EF9BB92EB981BB5FCDE8
:101C200045E34A95F1F7000096EC91BB469A15B84A
:101C300030E838B922E02BB980E28EB987E881BB61
:101C400091BB469A15B838B92BB91EB881BB00C0F4
:101C500000C091BB469A31E035B923E428B920EBA6
:101C60002BB922EA2EB981BB00C000C091BB469AB5
:101C700035B997E498B990EF9BB92EB981BB5ACB8F
:101C800025E32A95F1F7000096EC91BB469A15B82A
:101C900030E838B922E02BB980E28EB987E881BB01
:101CA00091BB469A15B838B92BB91EB881BB00C094
:101CB00000C091BB469A31E035B921E428B920EB48
:101CC0002BB922EA2EB981BB00C000C091BB469A55
:101CD00035B997E498B990EF9BB92EB981BBB6C9D5
:101CE00025E32A95F1F7000060E081E090E40E948E
:101CF000514F60E080E090E40E94514F00C000C06E
:101D000036EC31BB469A21E025B997E498B980EBCF
:101D10008BB980EA8EB987E881BB00C000C031BBB7
:101D2000469A25B998B990EF9BB992EA9EB981BBC2
:101D30000C94210645E34A95F1F7000060E081E04C
:101D400090E40E94514F60E080E090E40E94514F87
:101D500000C000C026EC21BB469A91E095B985E40D
:101D600088B980EB8BB980EA8EB987E881BB00C067
:101D700000C021BB469A95B997E498B990EF9BB9FA
:101D800092EA9EB981BB0C94350440E050E0BA0160
:101D900086C980E090E0DC010C944C0640E050E005
:101DA000BA010C94740580E090E0DC010C94E60428
:101DB00080E090E0DC010C94600480E090E0DC01C5
:101DC0000C94E00240E050E0BA017AC880E090E074
:101DD000DC010C94D40640E050E0BA010C94CC0332
:101DE00080E090E0DC010C946D0380E090E0DC0189
:101DF0009FCC40E050E0BA01C7CA40E050E0BA01D1
:101E000003CA80E090E0DC01A3C940E050E0BA01E1
:101E10009ECD80E090E0DC0110CD40E050E0BA01C2
:101E200097CB80E090E0DC0108CBA12CB12C0C9486
:101E3000B3024091250D5091260D55954795400FC1
:101E4000511F5C834B830C9476028AE29DE00E94D2
:101E50005E278091CC0D88700E94FD2C64CE0E947C
:101E6000B0538091670A882371F080914E0F8823C8
:101E700009F437C38091C00D882329F081508093E5
:101E8000C00D0E94A44F8091B90D882309F44BCE58
:101E90008091B70D9091B80D4091690D50916A0DE8
:101EA0002091450D3091460D2417350708F4E9C2FD
:101EB0004217530770F4B901641B750BAB01861709
:101EC000970708F4AC01241B350B3093460D209383
:101ED000450D4091750D5091760D2091510D309129
:101EE000520D2417350708F4C0C24217530770F487
:101EF000D901A41BB50BAD018A179B0708F4AC01EF
:101F0000241B350B3093520D2093510D4091810DC0
:101F10005091820D20915D0D30915E0D2417350793
:101F200008F497C24217530770F4F901E41BF50B4C
:101F3000AF018E179F0708F4AC01241B350B3093BB
:101F40005E0D20935D0D40916B0D50916C0D2091B5
:101F5000470D3091480D2417350708F46EC242171B
:101F6000530770F48901041B150BA8018017910712
:101F700008F4AC01241B350B3093480D2093470D1A
:101F80004091770D5091780D2091530D3091540D63
:101F90002417350708F444C24217530770F4B901F7
:101FA000641B750BAB018617970708F4AC01241B63
:101FB000350B3093540D2093530D4091830D509168
:101FC000840D20915F0D3091600D2417350708F4C2
:101FD0001AC24217530770F4D901A41BB50BAD0107
:101FE0008A179B0708F4AC01241B350B3093600D56
:101FF00020935F0D40916D0D50916E0D2091490D14
:1020000030914A0D2417350708F4F0C142175307E1
:1020100070F4F901E41BF50BAF018E179F0708F46C
:10202000AC01241B350B30934A0D2093490D409190
:10203000790D50917A0D2091550D3091560D241740
:10204000350708F4C6C14217530770F48901041B11
:10205000150BA8018017910708F4AC01241B350B60
:102060003093560D2093550D4091850D5091860D5E
:102070002091610D3091620D2417350708F49CC141
:102080004217530770F4B901641B750BAB01861737
:10209000970708F4AC01241B350B3093620D209395
:1020A000610D40916F0D5091700D20914B0D30914D
:1020B0004C0D2417350708F472C14217530770F40A
:1020C000D901A41BB50BAD018A179B0708F4AC011D
:1020D000241B350B30934C0D20934B0D40917B0D01
:1020E00050917C0D2091570D3091580D24173507D4
:1020F00008F448C14217530770F4F901E41BF50BCB
:10210000AF018E179F0708F4AC01241B350B3093E9
:10211000580D2093570D4091870D5091880D2091B7
:10212000630D3091640D2417350708F41EC1421762
:10213000530770F48901041B150BA8018017910740
:1021400008F4AC01241B350B3093640D2093630D10
:102150004091710D5091720D20914D0D30914E0DA9
:102160002417350708F4F4C04217530770F4B90177
:10217000641B750BAB018617970708F4AC01241B91
:10218000350B30934E0D20934D0D40917D0D5091A8
:102190007E0D2091590D30915A0D2417350708F402
:1021A000CAC04217530770F4D901A41BB50BAD0187
:1021B0008A179B0708F4AC01241B350B30935A0D8A
:1021C0002093590D4091890D50918A0D2091650DF4
:1021D0003091660D2417350708F4A0C04217530745
:1021E00070F4F901E41BF50BAF018E179F0708F49B
:1021F000AC01241B350B3093660D2093650D409187
:10220000730D5091740D20914F0D3091500D241786
:10221000350708F070C0421B530B8417950708F46C
:102220005EC1420F531F5093500D40934F0D40918C
:102230007F0D5091800D20915B0D30915C0D241726
:10224000350708F046C0421B530B8417950708F466
:1022500044C1420F531F50935C0D40935B0D40915E
:102260008B0D50918C0D2091670D3091680D2417C6
:102270003507E0F4421B530B8417950708F42BC174
:10228000420F531F5093680D4093670D4CCC812F24
:102290000E940747812F0E94053045CC0196A11D61
:1022A000B11D0C94AE020E94AF2029CC42175307F7
:1022B00008F039CCD901A41BB50BAD018A179B07D7
:1022C00008F4AC01241B350B3093680D2093670D87
:1022D0002ACC4217530718F6B901641B750BAB01E2
:1022E0008617970708F4AC01241B350B30935C0D5F
:1022F00020935B0DB4CF4217530708F098CF8901A4
:10230000041B150BA8018017910708F4AC01241BCE
:10231000350B3093500D20934F0D89CF421B530B3B
:102320008417950708F4D5C0420F531F5093660DCC
:102330004093650D64CF421B530B8417950708F437
:10234000C6C0420F531F50935A0D4093590D3ACFB8
:10235000421B530B8417950708F4B7C0420F531F55
:1023600050934E0D40934D0D10CF421B530B8417CD
:10237000950708F4A8C0420F531F5093640D409373
:10238000630DE6CE421B530B8417950708F499C0E2
:10239000420F531F5093580D4093570DBCCE421B14
:1023A000530B8417950708F48AC0420F531F5093AC
:1023B0004C0D40934B0D92CE421B530B8417950747
:1023C00008F47BC0420F531F5093620D4093610D80
:1023D00068CE421B530B8417950708F46CC0420F5C
:1023E000531F5093560D4093550D3ECE421B530B39
:1023F0008417950708F45DC0420F531F50934A0D90
:102400004093490D14CE421B530B8417950708F4D3
:102410004EC0420F531F5093600D40935F0DEACDA5
:10242000421B530B8417950708F43FC0420F531FFC
:102430005093540D4093530DC0CD421B530B841742
:10244000950788F1420F531F5093480D4093470D55
:1024500097CD421B530B8417950718F1420F531F5A
:1024600050935E0D40935D0D6ECD421B530B841750
:102470009507A8F0420F531F5093520D4093510DF2
:1024800045CD421B530B8417950738F0420F531F5D
:102490005093460D4093450D1CCDAC01F7CFAC01D8
:1024A000E9CFAC01DBCFAC01CDCFAC01BFCFAC01EC
:1024B000B0CFAC01A1CFAC0192CFAC0183CFAC01C6
:1024C00074CFAC0165CFAC0156CFAC0147CFAC01A6
:1024D00038CFAC0129CFAC01D3CEAC01BACEAC0120
:1024E000A0CE8091C00D882309F4CBCCC7CCEF924D
:1024F000FF920F931F93CF93DF93EC01162FF42ECF
:10250000E22E80919616843071F1C230D10509F423
:1025100053C0C330D10571F1C130D105F9F1C430D8
:10252000D105C8F5E0918D16F0918E16309739F0EF
:102530000E2D2F2D412FBE0181E796E10995E091E7
:102540008F16F0919016309739F00E2D2F2D412FC8
:10255000BE0181E796E10995DF91CF911F910F911F
:10256000FF90EF900895E0918B16F0918C163097C4
:10257000F9F6D8CF862F807F803A09F48DC008F015
:1025800041C0803809F456C0803961F6E091751673
:10259000F091761642C0C0E0D0E0C4CF683F50F161
:1025A000E0918716F0918816309709F4BBCF612F20
:1025B00081E796E10995C3CF862F807F803D09F49E
:1025C00055C0803F09F440C0803C09F0ABCFE0919A
:1025D0007F16F0918016309709F4A4CF133F09F4C9
:1025E0003FC0113FE9F1612F6F704F2D81E796E1F8
:1025F0000995A5CF663F09F095CFE0918916F09136
:102600008A16D2CF803ED9F0803FA9F1803B09F0F5
:1026100089CFE0917316F0917416309709F482CF48
:10262000123F99F1612F6F702E2D4F2D81E796E1AA
:10263000099585CFE0917716F0917816EECFE0916D
:102640007B16F0917C16E9CF633F59F1613F09F0A9
:1026500069CFE0918516F0918616309709F462CF24
:102660004F2D612F81E796E1099569CFE0918116A1
:10267000F0918216B0CF623F09F054CFE0917D1601
:10268000F0917E16309709F44DCF2E2D4F2D62EF2D
:1026900081E796E1099553CFE0917916F0917A168A
:1026A000BCCFE0918316F09184163097C9F63ACFEB
:1026B000E82FF0E0EE0FFF1FEA5DF14F808191817E
:1026C0000895AFB7F89426EC90EE87E0E0E877E461
:1026D00067EE57EF42EE21BB469A97B98AB99DB98A
:1026E00015B8E8B98BB91EB871BB32E03A95F1F76D
:1026F00000C036B1F9B1FCB121BB479A67B95AB9EC
:102700004DB9F5E0FA95F1F7000032FFE4CF86EC21
:1027100081BB469A15B880E888B983E08BB980E21E
:102720008EB987E881BB35E03A95F1F70000AFBF7D
:102730000895AFB7F89426EC90EE87E0E0E877E4F0
:1027400067EE57EF42EE21BB469A97B98AB99DB919
:1027500015B8E8B98BB91EB871BB32E03A95F1F7FC
:1027600000C036B1F9B1FCB121BB479A67B95AB97B
:102770004DB9F5E0FA95F1F7000032FFE4CF86ECB1
:1027800081BB469A15B882E888B983EC8BB980E2A0
:102790008EB987E881BB35E03A95F1F70000AFBF0D
:1027A0000895EF92FF920F931F93CF93DF931F92A1
:1027B000CDB7DEB78091CB0D182F110F180F1F5F0B
:1027C0006091CA0D8FE09DE00E94874E612F8FE0DF
:1027D0009DE00E942F4B8091130B9091140BA091C0
:1027E000150BB091160B4091BA0D5091BB0D609135
:1027F000BC0D7091BD0D841B950BA60BB70B4091C2
:10280000BE0D5091BF0D60E070E021E04817590700
:102810006A077B0708F020E0E0908D0DF0908E0DA8
:102820000090D60D02C0F694E7940A94E2F7409126
:10283000040E5091050E411532E0530708F457C0BD
:1028400052508091100E9091110E96958795969505
:1028500087958115E2E09E0740F18C01125080912E
:10286000D80D882341F1222309F444C06091020E5F
:102870007091030E8FE09DE00E943F4BC801809550
:1028800090958E159F05C8F54FEF5FEF60910E0E86
:1028900070910F0E8AE29DE00F90DF91CF911F9112
:1028A0000F91FF90EF900C943F4B00E010E080916F
:1028B000D80D8111D8CFCA01809590958E159F05AE
:1028C00000F54FEF5FEF6091020E7091030E8FE005
:1028D0009DE029830E943F4B2981211102C000E025
:1028E00010E060910E0E70910F0EA801D3CF40E062
:1028F00050E0A7CF40E050E0B9CFA8014E0D5F1DDA
:10290000C5CF4E0D5F1DDFCF6F928F929F92AF921A
:10291000BF92CF92DF92EF92FF920F931F93CF93CC
:10292000DF93E0919116F0919216309719F081E7BC
:1029300096E109952FB7F89480915A1790915917FD
:10294000891708F005C100915B17080F091B2FBFFD
:1029500010E00115110509F476C0C0E0D0E0209127
:102960005B17EE24E394F12C83E0982E34E0832E61
:1029700042E0A42EBB24B394892F622F90E070E034
:102980000E945F65E0915C17F0915D17E80FF91FF9
:10299000F081F83F08F065C0F7FF70C0809196168F
:1029A000843031F0F0939316F0929816E0929716D7
:1029B0008F2F807F803B79F198F4803961F1803AE4
:1029C00051F1803841F1F03F09F4AEC0F73F09F40E
:1029D000C2C01092961610929816109297161DC0AB
:1029E000803D09F49EC008F499C0803EA1F0803F6C
:1029F00051F7EF2FE15FEF3030F7AE2FB0E0AE547C
:102A0000BD4F8C91813009F498C0E8F2823009F40E
:102A100088C08330F1F6909296163FB7F894909163
:102A20005917892F90E0019620915B17622F70E073
:102A30000E945F65982F809359173FBF2196C0175A
:102A4000D10708F499CFDF91CF911F910F91FF909B
:102A5000EF90DF90CF90BF90AF909F908F906F904E
:102A60000895D0909616B092961620E040E06F2F11
:102A700081E090E03CDDD0929616CFCF6090961624
:102A8000662059F240919716509198169A01ABEA38
:102A9000BAEA0E940C6A6C01D694C794C601880FEA
:102AA000991F8C0D9D1D6A01C81AD90AD601AF580D
:102AB000B94E9296FC93CA01019690939816809312
:102AC000971621E0C216D104B1F022E0C216D1045B
:102AD00009F0A3CF2091951640919416609193161A
:102AE00006DD80919616843009F497CFF0929816FF
:102AF000E092971692CF22E062128FCF20E04091B1
:102B0000941660919316F3DC80919616843009F444
:102B100084CFD0929816C09297167FCF803C09F050
:102B200052CFA092961679CF80929616F093931674
:102B3000F0929816E092971670CF8093961620E048
:102B400040E06F2F81E090E0D2DC1092961665CFC6
:102B5000082F091BFCCE40919716509198169A01A8
:102B6000ABEABAEA0E940C6A969587959C01220FFF
:102B7000331F280F391FDA01A21BB30BAF58B94E10
:102B80009296FC93CA01019690939816809397169B
:102B9000209195164091941660919316A8DC10929E
:102BA00096163BCF2F923F924F925F926F927F92F9
:102BB0008F929F92AF92BF92CF92DF92EF92FF924D
:102BC0000F931F93CF93DF93CDB7DEB765970FB603
:102BD000F894DEBF0FBECDBFA62E882309F496C0A1
:102BE000A091E60DB091E70D2090E80D3090E90D31
:102BF0004091DA0D5091DB0D2091E00D3091E10D07
:102C00008090120E9090130EE091AA0AF091AB0AF8
:102C10006090CD0D6091D70DF093550FE093540F58
:102C2000B093570FA093560F3092590F2092580F20
:102C300050935B0F40935A0F30935D0F20935C0FBE
:102C400090925F0F80925E0F6092600F6093610FB1
:102C5000CF01880F892F881F990B91958C011A95A8
:102C60001E830D83AA0FAB2FAA1FBB0BB1958D013D
:102C70001A95412C512C72016101CC0CDD1CEE1C0B
:102C8000FF1CCC0CDD1CEE1CFF1CC20CD31CE41C76
:102C9000F51C93E0F694E794D794C7949A95D1F7EE
:102CA0005695479556954795369527953695279588
:102CB000DB8AB52E732ED701C6019927AA27BB2719
:102CC0008F87988BA98BBA8B662309F444C0623036
:102CD00008F446C42BEA529F312D112436953695BF
:102CE0003695B32EBB0CB30EBB0CBB0C729E212DC4
:102CF0001124269526952695722E770C720E770C48
:102D0000770C1C861B861A8619862DC0E091AA0AAC
:102D1000F091AB0A8091540F9091550FA091E60D60
:102D2000B091E70D8E179F0709F4F5C32090E80DC9
:102D30003090E90D4091DA0D5091DB0D2091E00DBE
:102D40003091E10D8090120E9090130E6090CD0D99
:102D50006091D70D61CFDA01BB27BA87A987F90146
:102D6000FF27FC87EB872091D20D2D87292D332754
:102D70003D8B2C8B3091B90D3E87A7FCDBC0AA2080
:102D800009F4D8C0A7FC33C321E0A21609F42FC36D
:102D9000A7FC99C222E0A21609F495C2A7FCFFC1C4
:102DA00023E0A21609F4FBC1A7FC66C154E0A516F6
:102DB00009F462C1A7FC1CC085E0A816C9F065969D
:102DC0000FB6F894DEBF0FBECDBFDF91CF911F913C
:102DD0000F91FF90EF90DF90CF90BF90AF909F90BA
:102DE0008F907F906F905F904F903F902F900895BD
:102DF0008091D309882319F3F090D2092D813E8167
:102E0000442737FD4095542F2D833E834F835887A9
:102E100020909B0D30909C0D442437FC4094542C02
:102E2000220E331E441E551E45E069858B2D8F0DE5
:102E30000E94BE4D280E391E411C511C57FCABC5CB
:102E40002114310431E0430651040CF09CC38090FE
:102E5000A70D9090A80DAA2497FCA094BA2C2D81C0
:102E60003E814F815885820E931EA41EB51EC80157
:102E7000AA2797FDA095BA2F880E991EAA1EBB1EE1
:102E80004BE06B85872D8F0D0E94BE4D880E991EDD
:102E9000A11CB11CB7FC77C58114910431E0A306D5
:102EA000B1040CF076C35D855111DAC3662009F4D4
:102EB000E9C48F2D90E022E030E02619310902C0EC
:102EC000959587952A95E2F73B89830F0091B30D7D
:102ED0001091B40D41E16F850E94BE4DA801662797
:102EE00057FD6095762F480F591F611D711D77FDA5
:102EF000C1C54115510581E06807710524F04FEF08
:102F00005FEF60E070E00E85002309F4BDC43092ED
:102F1000740D2092730D9092800D80927F0D5093CE
:102F20008C0D40938B0D61104ACF5093680D4093E8
:102F3000670D45CF8091A609882309F423CF90908F
:102F4000A5092D813E81442737FD4095542F2983C3
:102F50003A834B835C832090910D3090920D6101F8
:102F6000EE24D7FCE094FE2CC20ED31EE41EF51E08
:102F700040E069858B2D890D0E94BE4DC80ED91E7B
:102F8000E11CF11CF7FC03C5C114D10431E0E306D8
:102F9000F1040CF016C320909D0D30909E0D44243A
:102FA00037FC4094542C29813A814B815C81220E5C
:102FB000331E441E551EC801AA2797FDA095BA2F9F
:102FC000280E391E4A1E5B1E46E06B85872D890D33
:102FD0000E94BE4DA2019101280F391F411D511DB4
:102FE000DA01C90157FDAFC4009731E0A307B1056D
:102FF0000CF0DFC25D8551118DC376016C01662036
:1030000009F48DC4892D90E022E030E026193109C1
:1030100002C0959587952A95E2F73B89830F8090AA
:10302000A90D9090AA0D4CE06F850E94BE4DA401A1
:10303000662757FD6095762F480F591F611D711D3A
:1030400077FD28C54115510581E06807710524F019
:103050004FEF5FEF60E070E02E8521111EC4F0920B
:10306000460DE092450DD092520DC092510D5093F5
:103070005E0D40935D0D86CE8091CA09882309F4C8
:1030800099CE9090C9092D813E81442737FD409506
:10309000542F29833A834B835C832090990D309081
:1030A0009A0D442437FC4094542C220E331E441EA7
:1030B000551E44E069858B2D890D0E94BE4D280E5A
:1030C000391E411C511C57FC4AC42114310431E003
:1030D000430651040CF067C2C090A50DD090A60D18
:1030E000EE24D7FCE094FE2C29813A814B815C814F
:1030F000C20ED31EE41EF51EC801AA2797FDA09597
:10310000BA2FC80ED91EEA1EFB1E4AE06B85872D1A
:10311000890D0E94BE4DB701A601480F591F611DC0
:10312000711D77FD18C44115510531E06307710524
:103130000CF069C22D852111C5C271016A016110AF
:10314000F0C38B898090B10D9090B20D40E16F85F6
:103150000E94BE4DA401662757FD6095762F480F4B
:10316000591F611D711D77FD99C44115510531E04D
:103170006307710524F04FEF5FEF60E070E02E858C
:1031800021119EC3F0924E0DE0924D0DD0925A0D3A
:10319000C092590D5093660D4093650D0BCE8091F2
:1031A000C109882309F400CE9090C0092D813E8189
:1031B000442737FD4095542F29833A834B835C8302
:1031C0002090970D3090980D6101EE24D7FCE0948B
:1031D000FE2CC20ED31EE41EF51E43E069858B2D26
:1031E000890D0E94BE4DC80ED91EE11CF11CF7FCD2
:1031F000C6C3C114D10431E0E306F1040CF0FDC1F3
:103200002090A30D3090A40D442437FC4094542CFE
:1032100029813A814B815C81220E331E441E551E4A
:10322000C801AA2797FDA095BA2F280E391E4A1E5D
:103230005B1E49E06B85872D890D0E94BE4DB20152
:10324000A101480F591F611D711D77FD94C34115E0
:10325000510531E0630771050CF0C7C12D852111BF
:103260007FC276016A0161104CC38B898090AF0DDB
:103270009090B00D4FE06F850E94BE4DA40166276F
:1032800057FD6095762F480F591F611D711D77FD01
:10329000FDC34115510531E06307710524F04FEF7F
:1032A0005FEF60E070E02E852111A5C2F0924C0D19
:1032B000E0924B0DD092580DC092570D5093640D73
:1032C0004093630D71CD8091B809882309F466CDD0
:1032D0009090B7092D813E81442737FD4095542FAA
:1032E00029833A834B835C832090950D3090960D13
:1032F0006101EE24D7FCE094FE2CC20ED31EE41E26
:10330000F51E42E069858B2D890D0E94BE4DC80EC9
:10331000D91EE11CF11CF7FC2AC3C114D10431E011
:10332000E306F1040CF05BC12090A10D3090A20DDA
:10333000442437FC4094542C29813A814B815C8190
:10334000220E331E441E551EC801AA2797FDA095C4
:10335000BA2F280E391E4A1E5B1E48E06B85872D4A
:10336000890D0E94BE4DB201A101480F591F611D78
:10337000711D77FDF8C24115510531E063077105F4
:103380000CF025C12D85211112C276016A01611050
:10339000AAC28B898090AD0D9090AE0D4EE06F85E6
:1033A0000E94BE4DA401662757FD6095762F480FF9
:1033B000591F611D711D77FD65C34115510531E030
:1033C0006307710524F04FEF5FEF60E070E02E853A
:1033D000211145C2F0924A0DE092490DD092560D4E
:1033E000C092550D5093620D4093610DD7CC8091E2
:1033F000AF09882309F4CCCC9090AE092D813E8191
:10340000442737FD4095542F29833A834B835C83AF
:103410002090930D3090940D6101EE24D7FCE09440
:10342000FE2CC20ED31EE41EF51E41E069858B2DD5
:10343000890D0E94BE4DC80ED91EE11CF11CF7FC7F
:1034400086C2C114D10431E0E306F1040CF095C04A
:1034500020909F0D3090A00D442437FC4094542CB4
:1034600029813A814B815C81220E331E441E551EF8
:10347000C801AA2797FDA095BA2F280E391E4A1E0B
:103480005B1E47E06B85872D890D0E94BE4DB20102
:10349000A101480F591F611D711D77FD50C24115D3
:1034A000510531E0630771050CF05FC02D852111D6
:1034B000B2C076016A016110C4C18B898090AB0DE6
:1034C0009090AC0D4DE06F850E94BE4DA401662723
:1034D00057FD6095762F480F591F611D711D77FDAF
:1034E000CDC24115510531E06307710524F04FEF5E
:1034F0005FEF60E070E02E85211190C1F092480DE1
:10350000E092470DD092540DC092530D5093600D30
:1035100040935F0D3DCC8091560F9091570F2090B6
:10352000E80D3090E90DA817B90709F003CC809198
:10353000580F9091590F4091DA0D5091DB0D2816DC
:10354000390609F4AFC22091E00D3091E10D809071
:10355000120E9090130E6090CD0D6091D70D5CCB44
:103560001C861B861A861986FECB4FEF5FEF60E044
:1035700070E02D8521114FC09CCFCC24CA94DC2C47
:10358000E12CF12C65CF22242A94322C412C512C91
:103590005ECC88248A94982CA12CB12C5D8555236F
:1035A00009F484CC5DC022242A94322C412C512C65
:1035B00093CD8FEF9FEFA0E0B0E05D855111AAC0E1
:1035C0001CCDCC24CA94DC2CE12CF12CE4CC4FEFA4
:1035D0005FEF60E070E02D852111E9C0D6CECC24EC
:1035E000CA94DC2CE12CF12C9FCE4FEF5FEF60E012
:1035F00070E02D852111B4C034CECC24CA94DC2CCB
:10360000E12CF12CFDCD4FEF5FEF60E070E02D85F8
:10361000211158C092CD8C899D89919581959109F0
:10362000AA2797FDA095BA2FC80ED91EEA1EFB1E29
:10363000F7FC1CC2C114D104E1E0EE06F1040CF069
:10364000BFC17601840F951FA61FB71FB7FDFEC12E
:103650000097F1E0AF07B1050CF0BEC16C012BCFB4
:103660008C899D89880F991F0C891D89800F911F56
:10367000919581959109AA2797FDA095BA2FB2013E
:10368000A101480F591F6A1F7B1F77FDEBC1411530
:10369000510511E0610771050CF087C11A01880E10
:1036A000991EAA1EBB1EB7FCD5C18114910421E04E
:1036B000A206B1040CF4FACB88248A94982CA12C8D
:1036C000B12CF4CB8C899D89880F991F2C893D8959
:1036D000820F931FAA2797FDA095BA2F280E391E97
:1036E0004A1E5B1E57FCBAC12114310431E0430667
:1036F00051040CF06BC17101840F951FA61FB71FF9
:10370000B7FD90C1009741E0A407B1050CF070C16E
:103710006C0115CD2C893D89A901662757FD60955F
:10372000762FC40ED51EE61EF71EF7FC83C1C1140A
:10373000D10431E0E306F1040CF066C17601840F98
:10374000951FA61FB71FB7FD7DC1009741E0A407D5
:10375000B1050CF453CC8FEF9FEFA0E0B0E04ECC5E
:103760008C899D89919581959109880F991FAA2728
:1037700097FDA095BA2FC80ED91EEA1EFB1EF7FCB6
:1037800055C1C114D104E1E0EE06F1040CF007C10B
:103790007601840F951FA61FB71FB7FD3BC1009789
:1037A000F1E0AF07B1050CF029C16C015CCD8C894B
:1037B0009D89880F991FAA2797FDA095BA2FC80E3B
:1037C000D91EEA1EFB1EF7FC39C1C114D104E1E089
:1037D000EE06F1040CF0EEC07601840F951FA61FD3
:1037E000B71FB7FD1BC10097F1E0AF07B1050CF0A3
:1037F000F9C06C01CCCDF092700DE0926F0DD092BB
:103800007C0DC0927B0D5093880D4093870D611005
:10381000CBCA5093640D4093630DC6CAF0926C0DF1
:10382000E0926B0DD092780DC092770D5093840D7D
:103830004093830D6110ACCA5093600D40935F0DAF
:10384000A7CA892D90E022E030E02619310902C094
:10385000959587952A95E2F73B89830F2FCEF092B5
:103860006E0DE0926D0DD0927A0DC092790D50934D
:10387000860D4093850D611091CA5093620D40935F
:10388000610D8CCA8B8922CB3092500D20924F0D46
:1038900090925C0D80925B0D48CBF0926A0DE092A5
:1038A000690DD092760DC092750D5093820D4093A4
:1038B000810D611067CA50935E0D40935D0D62CA21
:1038C000F092720DE092710DD0927E0DC0927D0D3E
:1038D00050938A0D4093890D61106CCA5093660D08
:1038E0004093650D67CA892D90E022E030E02619EB
:1038F000310902C0959587952A95E2F73B89830F98
:1039000049CD892D90E022E030E02619310902C02E
:10391000959587952A95E2F73B89830FA7CC8B89EC
:103920007ECB892D90E022E030E02619310902C0DB
:10393000959587952A95E2F73B89830F03CC40E064
:1039400050E0BA01ACCD80E090E0DC014DCBC12C61
:10395000D12C760176CD40E050E0BA01E4CB212CA9
:10396000312C2101B2CB40E050E0BA0104CDC12C92
:10397000D12C7601D2CC40E050E0BA0168CCC12C09
:10398000D12C760136CC812C912C540185CAC12CC6
:10399000D12C7601F9CA212C312C210151CACC2419
:1039A000CA94DC2CE12CF12CF3CE4FEF5FEF60E0FA
:1039B00070E074CECC24CA94DC2CE12CF12C0CCF1A
:1039C000CC24CA94DC2CE12CF12C3BCE22242A946A
:1039D000322C412C512C8FCE8FEF9FEFA0E0B0E026
:1039E0006C0169CD8FEF9FEFA0E0B0E06C01CFCC10
:1039F0008FEF9FEFA0E0B0E06C01A1CB8FEF9FEFC6
:103A0000A0E0B0E06C012FCCCC24CA94DC2CE12CDB
:103A1000F12C94CE80E090E0DC01C1CE80E090E01B
:103A2000DC01E1CE80E090E0DC016CCEC12CD12C39
:103A30007601A7CEC12CD12C760179CEC12CD12C08
:103A40007601C3CE80E090E0DC017FCE80E090E0A4
:103A5000DC01FECD812C912C540127CE212C312C60
:103A6000210142CE40E050E0BA0111CEC12CD12C50
:103A70007601E0CD40E050E0BA013BCA40E050E0C2
:103A8000BA012FCD40E050E0BA0197CC40E050E0C1
:103A9000BA01FFCB40E050E0BA01D4CA40E050E0A8
:103AA000BA0163CB80915A0F90915B0F2091E00D8A
:103AB0003091E10D4817590749F08090120E90900F
:103AC000130E6090CD0D6091D70DA6C880915C0F4C
:103AD00090915D0F8090120E9090130E2817390769
:103AE00029F06090CD0D6091D70D96C860915E0F62
:103AF00070915F0F6090CD0D8616970619F060915A
:103B0000D70D8AC86091600F6612F9CF6091D70D0A
:103B10007091610F671380C852C9EF92FF920F93A3
:103B20001F93CF93DF937C01EB01142F40FF09C05B
:103B30002091620F3091630F282739272C7F232B88
:103B400071F511FF0AC08091640F9091650F8C2769
:103B50009D2788279E7F892B39F4DF91CF911F9174
:103B60000F91FF90EF9008950D2F069540914C0F07
:103B70004F70406BE0917116F091721621E063E096
:103B800070E081E796E10995D093650FC093640FCB
:103B9000DF91CF911F910F91FF90EF900895905872
:103BA0009C013595279535952795092F06952F77F3
:103BB000332740914C0F4F70406EE0917116F09199
:103BC000721663E070E081E796E10995F092630F69
:103BD000E092620FB6CF0F931F93072F069510E068
:103BE0000F771127282F285E2F7740914C0F4F70A9
:103BF0004069E0917116F091721663E070E081E720
:103C000096E109951F910F910895FF920F931F93CD
:103C1000CF93DF93F82EABEA8A9FA12D1124A695AE
:103C2000A695A6951A2F1F5F462F50E0A83008F0E2
:103C300063C08A2F90E0880F991FFC01EE0FFF1FD1
:103C4000EE0FFF1FEE0FFF1FE80FF91FE40FF51F28
:103C5000EE0FFF1FEA5DF14FC081D181183008F4EB
:103C60006FC0FA01EE0FFF1FEE5DF04F0190F08183
:103C7000E02DDA01AA0FBB1FA250B14F8D919C918C
:103C80009F01281B390BA12FB0E017970E9459659F
:103C90006E0F7F1F811D911D6115710521E0820747
:103CA000910508F063C08B010C1B1D0B9BEAF99E6C
:103CB000912D1124969596959695892F880F890FA9
:103CC000880F880F6F2D681B862F90E0A0E0B0E072
:103CD000772766272CE030E040E050E00E94186A29
:103CE000D8010E94E169C80FD91FCE01DF91CF91A1
:103CF0001F910F91FF900895FA01EE0FFF1FEE5DE7
:103D0000F04F0190F081E02DEA01CC0FDD1FC25091
:103D1000D14F888199819F01281B390BB0E01797FB
:103D20000E9459656E0F7F1F811D911D61157105E0
:103D300021E082079105F8F4EB01183008F091CFEB
:103D4000812F90E0880F991FFC01EE0FFF1FEE0FEF
:103D5000FF1FEE0FFF1FE80FF91FE40FF51FEE0F17
:103D6000FF1FEA5DF14F608171819DCF6FEF7FEFA3
:103D700080E090E098CF6FEF7FEF80E090E0EB0184
:103D8000DCCFAF92BF92CF92DF92EF92FF920F9370
:103D90001F93CF93DF9381111EC18091D50D823087
:103DA00009F45CC1833009F481C1813059F0DF919D
:103DB000CF911F910F91FF90EF90DF90CF90BF9028
:103DC000AF9008951091D40D110FC0918F0DD09127
:103DD000900D60E0812F19DF7C0180E00E94581374
:103DE0009701281B390BDE010E945965CC24CA9427
:103DF000DC2CE12CF12CA70196010E94F169309393
:103E0000920D2093910D61E0812FFFDE5C0181E036
:103E10000E9458139501281B390BDE010E94596539
:103E2000A70196010E94F1693093940D2093930DA0
:103E300062E0812FEADE5C0182E00E945813950166
:103E4000281B390BDE010E945965A70196010E94CB
:103E5000F1693093960D2093950D63E0812FD5DEA7
:103E60005C0183E00E9458139501281B390BDE0189
:103E70000E945965A70196010E94F1693093980D3F
:103E80002093970D64E0812FC0DE5C0184E00E94E6
:103E900058139501281B390BDE010E945965A701B3
:103EA00096010E94F16930939A0D2093990D65E077
:103EB000812FABDE5C0185E00E9458139501281B21
:103EC000390BDE010E945965A70196010E94F16934
:103ED00030939C0D20939B0D66E0812F96DE5C0154
:103EE00086E00E9458139501281B390BDE010E94C1
:103EF0005965A70196010E94F16930939E0D2093A8
:103F00009D0D67E0812F81DE5C0187E00E945813E0
:103F10009501281B390BDE010E945965A701960106
:103F20000E94F1693093A00D20939F0D68E0812FCE
:103F30006CDE5C0188E00E9458139501281B390B48
:103F4000DE010E945965A70196010E94F169309334
:103F5000A20D2093A10D69E0812F57DE5C0189E05D
:103F60000E9458139501281B390BDE010E945965E8
:103F7000A70196010E94F1693093A40D2093A30D2F
:103F80006AE0812F42DE5C018AE00E9458139501AD
:103F9000281B390BDE010E945965A70196010E947A
:103FA000F1693093A60D2093A50D6BE0812F2DDED6
:103FB0008C018BE00E9458139801281B390BDE01FD
:103FC0000E945965A70196010E94F1693093A80DDE
:103FD0002093A70DECCE2091AC0A3091AD0AC90117
:103FE000A0E0B0E0E091460FF091470F6F01E12CA7
:103FF000F12C8C159D05AE05BF050CF46BC09C0122
:10400000AD012C193D094E095F09AFEFBFE70E94D2
:10401000E1699F012095309540E050E00E94F169F0
:104020002F3F8FE73807410551050CF068C0DA01D2
:10403000C901811520E892072FEFA207B20724F4E7
:1040400080E090E8AFEFBFEF9C013093900D20939C
:104050008F0D8091D50D823009F0A4CE2091D40D22
:10406000A0918F0DB091900D30E00E9459652CE029
:1040700030E040E050E00E94F1693093AA0D2093B7
:10408000A90D3093AC0D2093AB0D3093AE0D209362
:10409000AD0D3093B00D2093AF0D3093B20D209342
:1040A000B10D3093B40D2093B30D81CE2091D40D7A
:1040B000A0918F0DB091900D30E00E9459652CE0D9
:1040C00030E040E050E00E94F1693093B60D20935B
:1040D000B50D6DCEA7019601281B390B4A0B5B0B62
:1040E000A0E0B0E80E94ED69A70196010E94F16985
:1040F0002F3F8FE73807410551050CF498CF2FEF7C
:104100003FE7A3CFCF93DF93EC019093900D809383
:104110008F0D80E036DE6FEF81E00E94D21541E026
:1041200060E070E0CE01DF91CF91F7CC80914B0F32
:1041300087FD09C06F7070E0992787FD909568171B
:10414000790709F0089580E8289F90011124242B15
:10415000C9019052880F991F880F991FD3CF4091A2
:10416000A5093091A40980919E0990919F09A09181
:10417000A009B091A1092091A609211121C0209187
:10418000AF09211129C02091B809211139C020910E
:10419000C109211149C02091CA09211159C020919A
:1041A000D309211169C04093A5093093A4098093D4
:1041B0009E0990939F09A093A009B093A109089527
:1041C00020913C0C2111DBCF1092A60980E090E0F9
:1041D000DC013FEF4FEFD3CF2091660C2111D3CFFD
:1041E0001092AF092FEF2093AE092093AD091092E2
:1041F000A7091092A8091092A9091092AA09C3CF81
:104200002091900C2111C3CF1092B8092FEF209369
:10421000B7092093B6091092B0091092B109109213
:10422000B2091092B309B3CF2091BA0C2111B3CFC8
:104230001092C1092FEF2093C0092093BF0910925B
:10424000B9091092BA091092BB091092BC09A3CF08
:104250002091E40C2111A3CF1092CA092FEF2093D3
:10426000C9092093C8091092C2091092C30910927B
:10427000C4091092C50993CF20910E0D211193CF3F
:104280004093A5093093A40980939E0990939F09B8
:10429000A093A009B093A1091092D3098FEF809346
:1042A000D2098093D1091092CB091092CC091092B7
:1042B000CD091092CE09089521E030E002C0220F0E
:1042C000331F8A95E2F7F901E095F09580914D0949
:1042D00090914E098E239F2390934E0980934D0910
:1042E00040914F09509150094E235F23509350093C
:1042F00040934F09662331F0282B392B30934E0918
:1043000020934D090895EDE4F9E080819181AFE4B7
:10431000B9E02D913C9111973E7F2D933C93916094
:1043200091838083089580913E09881F8827881F84
:104330000895CF93DF931F92CDB7DEB790E06983E6
:104340000E94A749809351096981862F90E00E94BD
:10435000A749809352090F90DF91CF91089524E6E9
:1043600030E040E050E00E94F1692AE030E040E0B7
:1043700050E00E94F169605D822F805DDACFFC0120
:10438000623009F458C038F0633009F483C06430F7
:1043900009F432C008956130E9F726893789468DDE
:1043A000578DAA27429FB12D539FC001349FB00D56
:1043B000811D9A1F529FB00D811D9A1F112480A349
:1043C00091A340955095AA27429FB12D539FC001BC
:1043D000349FB00D811D9A1F529FB00D811D9A1FF1
:1043E000112482A393A34085518562857385408300
:1043F000518362837383089511A210A2268D378D95
:1044000046895789AA27249FB12D359FC001529F05
:10441000B00D811D9A1F349FB00D811D9A1F11246C
:1044200082A393A340895189628973894083518310
:104430006283738308952689378944895589AA2719
:10444000429FB12D539FC001349FB00D811D9A1F13
:10445000529FB00D811D9A1F112480A391A34095F6
:104460005095AA27429FB12D539FC001349FB00D94
:10447000811D9A1F529FB00D811D9A1F112482A386
:1044800093A34485558566857785408351836283F0
:104490007383089511A210A28689978993A382A39A
:1044A00008951F93CF93DF93EC01898D0E94F64E00
:1044B00018A5012E04C096958795779567950A945F
:1044C000D2F724E0660F771F881F991F2A95D1F72E
:1044D000688779878A879B878B8D0E94F64E012E8D
:1044E00004C096958795779567950A94D2F734E03E
:1044F000660F771F881F991F3A95D1F76C877D87C4
:104500008E879F878D8D0E94F64E04C09695879565
:10451000779567951A95D2F744E0660F771F881F45
:10452000991F4A95D1F7688B798B8A8B9B8B69A5EC
:10453000CE01DF91CF911F9122CF0F931F93FC01EA
:10454000808D918D8617970721F0718F608F61E0C4
:1045500001C060E0828D938D8417950719F0538F09
:10456000428F61E0848995898217930719F0358B12
:10457000248B61E0848D958D8017910719F0158F3C
:10458000048F02C0662321F0CF011F910F9189CFC4
:104590001F910F910895FC0160A783CFBF92CF9226
:1045A000DF92EF92FF920F931F93CF93DF93E2ED91
:1045B000FAE070E048E050E0B6ECA7E8C1E007E4BC
:1045C00080EFB82E92EAE92E81919191272F2695BE
:1045D000269526956A0102C0CC0CDD1C2A95E2F7CF
:1045E0006C2D6095687F272F2770622BFFB6F8949B
:1045F0009C01232F332726952695C22EB1BB469AC0
:10460000122F110FD12FD670D0682071332722605E
:10461000312F330F3072322B212F207C322B2C2D57
:1046200026952270206215B8D8B93BB92EB9A1BB26
:104630009695879596958795282FB1BB469AD82F42
:10464000DD0F382F3695221F2227221F16E0D12E8C
:10465000DD222D2920688071992782609D2F990F76
:104660009072982B8D2F807C982B327015B828B9BA
:104670009BB93EB9A1BB85E08A95F1F70000B1BBBB
:10468000469A262F220F962F9695362F331F3327C3
:10469000331F822F8670382B30646071822F880F11
:1046A0008072862B207C822B9270906AC5B938B9B3
:1046B0008BB99EB9A1BB8AE08A95F1F700C0B1BB66
:1046C000469AC5B908B9BBB8EEB8A1BB8AE08A95CD
:1046D000F1F700C0FFBE7F5F703209F075CF4FB7B2
:1046E000F8948091120B96EC91BB469A382F330FB9
:1046F000982F9695232F26702064582F551F5527E5
:10470000551F252B582F5071832F880F8072852BB2
:10471000307C832B9270906631E035B928B98BB923
:104720009EB987E881BB4FBFDF91CF911F910F9159
:10473000FF90EF90DF90CF90BF9008958091681127
:10474000ACD460916811663020F46F5C81E6F1DDD5
:1047500009C06C3020F4655D82E6EBDD03C06B5D63
:1047600086E6E7DD81E00E94053018DF8091681160
:1047700024C5CF92DF92EF92FF921F93CF93DF93E6
:10478000C82F0CDF80916811E82FF0E0EE0FFF1FBB
:10479000EE52F54F40815181982F969596959695BA
:1047A00028E030E001C0220F9A95EAF72095287F93
:1047B0008770282BFFB7F894BA01672F7727669583
:1047C0006695962F16EC11BB469AE62FEE0F3E2FFC
:1047D000367030686071772762608E2F880F807224
:1047E000862BE07C8E2B96959270906215B838B926
:1047F0008BB99EB9D7E8D1BB569547955695479545
:10480000942F11BB469A642F660F342F3695991F4B
:104810009927991F862F8670982B9068407155278D
:104820004260862F880F8072842B607C862B3270CA
:1048300015B898B98BB93EB9D1BB85E08A95F1F727
:10484000000011BB469A422F440F922F9695322FAB
:10485000331F3327331F842F8670382B3064207129
:10486000842F880F8072822B407C842B9270906AF8
:1048700021E025B938B98BB99EB9D1BB9AE09A9598
:10488000F1F700C0FFBF1092670F1092660F6AE049
:1048900081E10E948E4D11BB469A15B880E488B91B
:1048A0001BB890E29EB9D1BB25E02A95F1F7000034
:1048B00011BB469A15B888B91BB89EB9D1BB95E013
:1048C0009A95F1F7000011BB469A15B892E498B991
:1048D0001BB88EB9D1BB25E02A95F1F7000011BBBA
:1048E000469A15B888B91BB88EB9D1BB85E08A95B0
:1048F000F1F70000A7D5C12CD12C7601C1110DC054
:104900002AC082E0CDD59ED5C150D9D4C80ED91EBB
:10491000E11CF11C13DFCC23F1F081E0C1D50E9432
:10492000852F62D50E94C52F17D60E94852F80E162
:10493000B7D50E94C52FE3D50E94852F88E0B0D55A
:104940000E94C52F809169118530D8F2CC24CA9479
:10495000DC2C760190C040916811E42FF0E0EE0F5E
:10496000FF1FEE52F54F20813181542F56955695F9
:10497000569588E090E001C0880F5A95EAF7809537
:10498000887F4770842BFFB7F894A901452F5527DE
:1049900046954695A42F66EC61BB469AE42FEE0F30
:1049A0007E2F767070684071552742609E2F990F58
:1049B0009072942BE07C9E2B4A2F46954270406269
:1049C00015B878B99BB94EB957E851BB36952795BC
:1049D00036952795422F61BB469AE22FEE0F722F34
:1049E0007695441F4427441F9E2F9670492B40689C
:1049F0002071332722609E2F990F9072922BE07CBA
:104A00009E2B727015B848B99BB97EB951BB95E021
:104A10009A95F1F7000061BB469A482F440F282F62
:104A20002695382F331F3327331F942F9670392B39
:104A300030648071942F990F9072982B407C942B46
:104A40002270206A81E085B938B99BB92EB951BB73
:104A50002AE02A95F1F700C061BB469A85B987E440
:104A600088B980EF8BB982EA8EB951BB8AE08A950A
:104A7000F1F700C0FFBFB601C701DF91CF911F91D1
:104A8000FF90EF90DF90CF900895FC012689378941
:104A90002617370719F0778B668B03CD08950F9390
:104AA0001F938091D00D8093390C8091CE0D80930F
:104AB0003D0B8091D10D882309F48AC163E083E125
:104AC0009CE069DD8091CF0D882309F46BC163E020
:104AD00087E19BE060DD0091F60D1091F70D2091CC
:104AE000F80D3091F90D4091FA0D5091FB0D609148
:104AF000FC0D7091FD0D83E19CE01FDD0091EE0D3A
:104B00001091EF0D2091F00D3091F10D4091F20DCB
:104B10005091F30D6091F40D7091F50D87E19BE0DC
:104B20000CDD8091D00D8093630C8091CE0D80932D
:104B3000670B8091D10D882309F448C163E08DE3B0
:104B40009CE029DD8091CF0D882309F43DC163E00D
:104B500081E49BE020DD0091F60D1091F70D20918E
:104B6000F80D3091F90D4091FA0D5091FB0D6091C7
:104B7000FC0D7091FD0D8DE39CE0DFDC0091EE0DEE
:104B80001091EF0D2091F00D3091F10D4091F20D4B
:104B90005091F30D6091F40D7091F50D81E49BE05F
:104BA000CCDC8091D00D80938D0C8091CE0D8093C4
:104BB000910B8091D10D882309F404C163E087E64D
:104BC0009CE0E9DC8091CF0D882309F4F9C063E013
:104BD0008BE69BE0E0DC0091F60D1091F70D209143
:104BE000F80D3091F90D4091FA0D5091FB0D609147
:104BF000FC0D7091FD0D87E69CE09FDC0091EE0DB1
:104C00001091EF0D2091F00D3091F10D4091F20DCA
:104C10005091F30D6091F40D7091F50D8BE69BE0D2
:104C20008CDC8091D00D8093B70C8091CE0D809359
:104C3000BB0B8091D10D882309F4C0C063E081E9EA
:104C40009CE0A9DC8091CF0D882309F4B5C063E016
:104C500085E99BE0A0DC0091F60D1091F70D209105
:104C6000F80D3091F90D4091FA0D5091FB0D6091C6
:104C7000FC0D7091FD0D81E99CE05FDC0091EE0D73
:104C80001091EF0D2091F00D3091F10D4091F20D4A
:104C90005091F30D6091F40D7091F50D85E99BE055
:104CA0004CDC8091D00D8093E10C8091CE0D8093EF
:104CB000E50B8091D10D882309F47CC063E08BEB78
:104CC0009CE069DC8091CF0D882309F471C063E01A
:104CD0008FEB9BE060DC0091F60D1091F70D2091B9
:104CE000F80D3091F90D4091FA0D5091FB0D609146
:104CF000FC0D7091FD0D8BEB9CE01FDC0091EE0D27
:104D00001091EF0D2091F00D3091F10D4091F20DC9
:104D10005091F30D6091F40D7091F50D8FEB9BE0C8
:104D20000CDC8091D00D80930B0D8091CE0D809383
:104D30000F0C8091D10D8823C9F163E085EE9CE0D2
:104D40002ADC8091CF0D882379F163E089EE9BE026
:104D500022DC0091F60D1091F70D2091F80D3091A5
:104D6000F90D4091FA0D5091FB0D6091FC0D709181
:104D7000FD0D85EE9CE0E1DB0091EE0D1091EF0D55
:104D80002091F00D3091F10D4091F20D5091F30D05
:104D90006091F40D7091F50D89EE9BE0CEDB1F91D3
:104DA0000F91089561E094CE61E0D0CF61E0C6CF6D
:104DB00061E08ECF61E083CF61E04ACF61E03FCF19
:104DC00061E006CF61E0FBCE61E0C2CE61E0B7CE2C
:104DD00061E075CE0F931F93CF93DF93EC010C81AD
:104DE0001D812E813F81832F9927AA27BB27892BDD
:104DF0008A2B8B2B09F040C089A5823009F431C081
:104E000060F5813009F442C040E050E06AA17BA126
:104E1000AA27469FB12D579FC001749FB00D811DD9
:104E20009A1F569FB00D811D9A1F112448A159A1A8
:104E3000840F951F9DA38CA3488159816A817B8132
:104E4000400F511F621F731F4C835D836E837F83EE
:104E5000DF91CF911F910F9108958330A1F084309D
:104E600099F68EA1811122C0BB27A32F922F812FEB
:104E7000AC0140955095CACFCE0147D40C811D811D
:104E80002E813F81B9CF4C895D89C0CF8EA1811120
:104E900005C07727632F522F412FB8CFF901EE0FAE
:104EA000FF1FEF53FD4F40815181B0CFF901EE0F4D
:104EB000FF1FEF53FB4F80819181DACFCF92DF92BA
:104EC000EF92FF920F931F93CF93DF93EC01CC806F
:104ED000DD80EE80FF808F2D9927AA27BB27892BA5
:104EE0008A2B8B2B09F04AC02A8D6C857D858E8597
:104EF0009F85233009F467C040F5213009F4ABC029
:104F0000EC89FD89C60ED71EE81EF91ECC82DD8213
:104F1000EE82FF829F0140E050E030584109510984
:104F2000A889B9890E94E1692FEF3FEF40E050E086
:104F30000E94F1693F8B2E8BDF91CF911F910F91D2
:104F4000FF90EF90DF90CF900895243009F45FC078
:104F50002530B1F69701860149E0369527951795DA
:104F600007954A95D1F7F8011D8B0C8B298D2223CB
:104F700049F2E095F095FD8BEC8BC4CFE1E0898D93
:104F8000E81BE98FE1116FC0C12CD12C7601CC82D6
:104F9000DD82EE82FF82FF27E1950CF4F095DF01C0
:104FA000AA0FBB1F1196288539854A855B850E940B
:104FB000EB696C877D878E879F872A8D211159C069
:104FC000FD8BEC8B9DCF1D2DEE2DEF3F09F462C0C4
:104FD0002E2D2F5F30E0220F331FF0E0EE0FFF1F6A
:104FE000E859F04FA081B181F901E859F04F4081B3
:104FF00051814A1B5B0B149FF001159FF00D11248A
:10500000EF2FFF27EA0FFB1FFD8BEC8B7BCFAB89CC
:10501000A295AF70088119812A813B81F32F000F7F
:10502000111F221F331FEF2FEE1FEE27EE1FBF2F82
:10503000B295B695B770EB27EF27F695EF27E1709D
:105040000E2BA15058F7088319832A833B83F8015C
:105050001D8B0C8B57CF33272F2D1E2D0D2DF801B7
:105060001D8B0C8B4FCFCC24CA94DC2CEC2CF12C58
:105070008ECF223009F03DCF0E94D5697D8B6C8B9D
:105080002A8D6C857D858E859F85CC80DD80EE8028
:10509000FF802FCF2EEF31E0A0CFE82FF0E0EE0F12
:1050A000FF1FEE52F54F40815181982F96959695AE
:1050B000969528E030E001C0220F9A95EAF72095F6
:1050C000287F8770282BFFB7F894CA01892F99276A
:1050D00086958695E82F76EC71BB469A682F660F09
:1050E000362F36703068807199278260962F990F1D
:1050F0009072982B607C962B8E2F869582708062A2
:1051000015B838B99BB98EB967E861BBCA019695E5
:10511000879596958795382F71BB469A582F550FCE
:10512000482F4695331F3327331FE52FE6703E2B5C
:105130003068807199278260952F990F9072982B13
:10514000507C952B427015B838B99BB94EB961BBEC
:1051500085E08A95F1F7000071BB469A422F440F13
:10516000922F9695322F331F3327331F842F86704B
:10517000382B30642071842F880F8072822B407C02
:10518000842B9270906A21E025B938B98BB99EB909
:1051900061BB8AE08A95F1F700C071BB469A25B9D8
:1051A00087E488B980EF8BB982EA8EB961BB8AE067
:1051B0008A95F1F700C0FFBF0895E82FF0E0EE0FE9
:1051C000FF1FEE52F54F40815181982F969596958D
:1051D000969528E030E001C0220F9A95EAF72095D5
:1051E000287F8770282BFFB7F894CA01892F992749
:1051F00086958695E82F76EC71BB469A682F660FE8
:10520000362F36703068807199278260962F990FFB
:105210009072982B607C962B8E2F86958270806280
:1052200015B838B99BB98EB967E861BBCA019695C4
:10523000879596958795382F71BB469A582F550FAD
:10524000482F4695331F3327331FE52FE6703E2B3B
:105250003068807199278260952F990F9072982BF2
:10526000507C952B427015B838B99BB94EB961BBCB
:1052700085E08A95F1F7000071BB469A422F440FF2
:10528000922F9695322F331F3327331F842F86702A
:10529000382B30642071842F880F8072822B407CE1
:1052A000842B9270906A21E025B938B98BB99EB9E8
:1052B00061BB8AE08A95F1F700C0FFBF08951F9394
:1052C000CF93DF9335E03A95F1F7000066EC61BBD0
:1052D000469AF0EEF7B917E01AB9FDB915B8E0E44F
:1052E000E8B91BB870E27EB9D7E4D1BB52E05A9559
:1052F000F1F700C046B199B18CB161BB479AC7EED6
:10530000C7B9B7EFBAB9A2EEADB9242F269523706D
:1053100030E8439FA0011124242B392F3071232B17
:10532000392F369536953870232B96959076292B04
:1053300090E0880F991F84709927282B30E055E062
:105340005A95F1F7000061BB469AF7B91AB9FDB951
:1053500015B8E8B91BB87EB9D1BB82E08A95F1F7E0
:1053600000C046B199B18CB161BB479AC7B9BAB90F
:10537000ADB961BB469A15B8E8B91BB87EB957E814
:1053800051BBF5E0FA95F1F7000061BB469A15B8FC
:10539000E8B91BB87EB951BB55E05A95F1F700004A
:1053A000642F6695637070E8479FA0011124642BF9
:1053B000492F4071642B492F469546954870642BC0
:1053C00096959076692B90E0880F991F84709927A5
:1053D000562F582B40E0242B352B20953095C901B2
:1053E000DF91CF911F9108954091670F242F216085
:1053F0002093670F86EC81BB469A322F330F922F92
:105400009695221F2227221F832F8670282B206427
:10541000832F880F80724071842B307C832B927095
:10542000906C31E035B928B98BB99EB987E881BB5A
:1054300085E08A95F1F700008091660F8F5F809379
:10544000660F08954091670F242F22602093670F05
:1054500086EC81BB469A322F330F922F9695221FEE
:105460002227221F832F8670282B2064832F880FEA
:1054700080724071842B307C832B9270906C31E071
:1054800035B928B98BB99EB987E881BB85E08A9583
:10549000F1F700008091660F8F5F8093660F08958B
:1054A00080959091670F89238093670F96EC91BB4D
:1054B000469A482F440F282F2695382F331F33271D
:1054C000331F942F9670392B30648071942F990F6D
:1054D0009072982B407C942B2270206C81E085B9CF
:1054E00038B99BB92EB987E881BB85E08A95F1F779
:1054F00000008091660F8F5F8093660F0895809102
:10550000670F80618093670F96EC91BB469A382FA6
:10551000330F982F9695282F221F2227221F832F83
:105520008670282B2064832F880F80728061307CE6
:10553000832B9270906C31E035B928B98BB99EB944
:1055400087E881BB85E08A95F1F700008091660FBE
:105550008F5F8093660F08953091670F932F986047
:105560009093670F86EC81BB469A292F220F892FD3
:105570008695991F9927991F422F4670942B906406
:10558000207C30713062232B8270806C31E035B921
:1055900098B92BB98EB987E881BB85E08A95F1F778
:1055A00000008091660F8F5F8093660F089596ECE0
:1055B00091BB469A482F440F282F2695342F3670DA
:1055C0003064982F991F9927991F392B8071942F38
:1055D000990F9072982B407C942B2270206615B8FE
:1055E00038B99BB92EB987E881BB85E08A95F1F778
:1055F0000000089580918E0990918F09892B9091D8
:105600009009892B90919109892B90919209892B6E
:1056100090919309892B90919409892B90919509E8
:10562000892B90919609892B90919709892B9091BC
:105630009809892B90919909892B90919A09892B26
:1056400090919B09892B90919C09892B90919D09A0
:10565000982B71F08091BA0D9091BB0DA091BC0D6B
:10566000B091BD0D8F3F9F4FAF4FBF4F69F0089571
:105670008FEF9FEFDC018093BA0D9093BB0DA09349
:10568000BC0DB093BD0D08958091130B9091140B38
:10569000A091150BB091160B8093BA0D9093BB0D92
:1056A000A093BC0DB093BD0D0895FC0126893789E8
:1056B000468D578DAA27429FB12D539FC001349F1D
:1056C000B00D811D9A1F529FB00D811D9A1F11248C
:1056D00080A391A340955095AA27429FB12D539F37
:1056E000C001349FB00D811D9A1F529FB00D811DC6
:1056F0009A1F112482A393A34085518562857385E7
:1057000040835183628373830895FC011482158260
:1057100016821782108211821282138281A58F5FF6
:1057200081A7833009F43BC0853009F434C082304E
:1057300009F008952689378935A324A3448955891A
:10574000AA27429FB12D539FC001349FB00D811DE8
:105750009A1F529FB00D811D9A1F112480A391A3FF
:1057600040955095AA27429FB12D539FC001349F69
:10577000B00D811D9A1F529FB00D811D9A1F1124DB
:1057800082A393A34485558566857785408351839D
:1057900062837383089511A615A214A2089511A21D
:1057A00010A28689978993A382A30895FF920F93ED
:1057B0001F93CF93DF93EC01F62E1C821D821E8275
:1057C0001F820E891F896CA17DA1CB01A0E0B0E0F2
:1057D00077276627980140E050E00E94186A3F8FC3
:1057E0002E8FF11023C084E089A719A218A2AA273E
:1057F000209FB12D319FC001129FB00D811D9A1FB6
:10580000309FB00D811D9A1F11248AA39BA3888904
:105810009989AA89BB8988839983AA83BB83FFA2BC
:10582000DF91CF911F910F91FF90089581E089A79B
:10583000CE013BDFFFA2DF91CF911F910F91FF902F
:105840000895E82FF0E0EE0FFF1FEE52F54F8FEFB7
:105850009FEF918380830895E82FF0E0EE0FFF1F04
:10586000EE52F54F718360830895982F9695969523
:10587000969528E030E001C0220F9A95EAF720952E
:10588000287F8770282BFFB7F894CB01892F9927A1
:1058900086958695E82F56EC51BB469A482F440FC3
:1058A000342F36703068807199278260942F990F59
:1058B0009072982B407C942B8E2F869582708062FC
:1058C00015B838B99BB98EB947E841BB769567954D
:1058D00076956795962F51BB469AE62FEE0F362F99
:1058E0003695991F9927991F8E2F8670982B90684F
:1058F0006071772762608E2F880F8072862BE07C24
:105900008E2B327015B898B98BB93EB941BB85E082
:105910008A95F1F7000051BB469A622F660F922FCD
:105920009695322F331F3327331F862F8670382BDF
:1059300030642071862F880F8072822B607C862BCA
:105940009270906A21E025B938B98BB99EB941BBF4
:105950008AE08A95F1F700C051BB469A25B987E4E1
:1059600088B980EF8BB982EA8EB941BB8AE08A950B
:10597000F1F700C0FFBF089586EC81BB469A15B8C9
:1059800096E898B993E09BB91EB897E891BBEFE908
:10599000FFE03197F1F700C0000081BB469A15B8CF
:1059A00023E828B923E12BB922E02EB991BBFAE014
:1059B000FA95F1F700C081BB469A20EE27B997E02F
:1059C0009AB92DB915B820E828B99BB91EB897E443
:1059D00091BB92E09A95F1F700C096B199B19CB154
:1059E00081BB479A87EE87B987EF8AB982EE8DB976
:1059F000EAE0EA95F1F700C008950F931F93382F5E
:105A00002091C30DE091C60D222309F4FAC0409104
:105A1000DE0D5091DF0D60E070E0EE2309F4ECC084
:105A20008091E40D9091E50DA0E0B0E03323A1F06A
:105A3000222381F02091CC0D25FD0CC00091250D75
:105A40001091260D222717FD2095322F400F511F50
:105A5000621F731FE111DAC02FB7F89477FDEAC017
:105A60004115510531E06307710524F04FEF5FEFF9
:105A700060E070E0BA01672F772766956695062F7C
:105A8000E6ECE1BB469A162F110FF12FF670F06885
:105A9000607177276260312F330F3072362B107CA4
:105AA000312B602F66956270606215B8F8B93BB90A
:105AB0006EB977E871BB5695479556954795642F13
:105AC000E1BB469A142F110FF42FF695661F662737
:105AD000661F312F3670632B606840715527426016
