:100000004BC0000042C2000040C200003EC20000DF
:100010003CC200000C94A86638C2000036C2000042
:1000200034C2000032C200000C949E660C949466A8
:100030002CC200002AC2000028C2000026C2000014
:1000400024C2000022C2000020C200001EC2000024
:100050001CC200000C94546718C2000016C20000B5
:1000600014C2000012C2000010C200000EC2000044
:100070000CC200000AC2000008C2000006C2000054
:1000800004C2000002C2000000C20000FEC1000065
:10009000FCC10000FAC1000011241FBECFEFD0E266
:1000A000DEBFCDBF0E9400F0D7C10000076342361B
:1000B000B79BD8A71A39685618AEBAAB558C1D3CF9
:1000C000B7CC5763BD6DEDFD753EF6177231BF00BD
:1000D0000000803F05A84CCDB2D44EB93836A902F5
:1000E0000C50B9918688083CA6AAAA2ABE00000036
:1000F000803F08000000BE922449123EABAAAA2A03
:10010000BECDCCCC4C3E00000080BEABAAAAAA3E1D
:1001100000000000BF000000803F00000000000859
:100120004178D3BB4387D1133D190E3CC3BD4282F6
:10013000AD2B3E68EC8276BED98FE1A93E4C80EFB4
:10014000FFBE01C4FF7F3F0000000000FF004C8A9B
:1001500097509545406BA6D8E4B2282EAE90BF26A6
:10016000B14EE86FD0FBE0709A51862C379845323B
:10017000539D06840D971A8CE61E2E0DB41D401655
:100180009AC591F9F786A142660620AFAE19EE270F
:10019000C2BB0EBAB90AAA95CA45040444C1796A19
:1001A00091EE7D3E2E4C960BA96E5A6A9FF56D0519
:1001B000BB8F808DB4F54FC14AE99E674536394FF4
:1001C00075ADF44CB227A939D78036F7C49C7E6A46
:1001D000605F677992B4DD0E4786CD1A6DC6258AB9
:1001E000F464D953D154DB67F78B22BD5CFEA44D78
:1001F000F9A7590EC57E3BF9BA7D430AD39F6C3BE4
:100200000BDEB2875E3710ECC8A6856546290CF177
:10021000D6BCA38C755E4934200DFAE9D7C7B6A7C2
:10022000988A7C6E6155493D32271D1209FFF6EE12
:10023000E5DDD5CEC6BFB9B2ACA6A09A958F8A85AA
:10024000817C78736F6B6864605D5A56FF59E97DF5
:1002500015B150F39942EE9D4F04BC7632F1B2765F
:100260003B03CC98653405D8AC8259320CE7C4A264
:100270008161432509EDD3B9A089725C46321E0B1A
:10028000F8E6D5C4B4A596887A6D6053473C30260D
:100290001B1108FEF5EDE4DCD4CDC6BFB8B1ABA5AB
:1002A0009F99948F8A85807C77736F6B6763605D9D
:1002B000595653504D4A484543403E3C3A383634EF
:1002C00032302E2D2B2A282725242321201F1E1DC6
:1002D0001C1B1A19181716161514131312111110C6
:1002E0000F0F0E0E0D0D0C0C0B0B0B0A0A09090952
:1002F0000808080807070706060606060505050597
:1003000005040404040404030303030303030302B6
:1003100002020202020202020202010101010101C3
:1003200001010101010101010101010101000000C0
:1003300000000000000000000000000000000000BD
:10034000000000000000000000000000FF0C0B0B8C
:100350000B0A0A090909080808080707070606061C
:100360000606050505050504040404040403030347
:100370000303030303020202020202020202020258
:10038000010101010101010101010101010101015D
:10039000010101000000000000000000000000005A
:1003A000000000000000000000000000000000004D
:1003B000000000000000000000000000000000003D
:1003C000000000000000000000000000000000002D
:1003D000000000000000000000000000000000001D
:1003E000000000000000000000000000000000000D
:1003F00000000000000000000000000000000000FD
:1004000000000000000000000000000000000000EC
:1004100000000000000000000000000000000000DC
:1004200000000000000000000000000000000000CC
:1004300000000000000000000000000000000000BC
:1004400000000000000000000000000011241FBE9A
:10045000CFEFD0E2DEBFCDBF1AE1A6E9B9E001C01F
:100460001D92A137B107E1F719E0A0E0B1E0ECE59A
:10047000F9EE00E00BBF02C007900D92A639B1075C
:10048000D9F70E948D670C94AC74BACD2F923F922D
:100490004F925F926F927F928F929F92AF92BF9294
:1004A000CF92DF92EF92FF920F931F93CF93DF9340
:1004B000CDB7DEB728970FB6F894DEBF0FBECDBF1D
:1004C00082E090E10E94972C4090331050903410BD
:1004D0002091C01020FF15C025FD02C00C941E0EF7
:1004E000420124FD0FC0809118109091191095952C
:1004F0008795480E591E21FD07C0C12CD12C7601CD
:100500000BC0420121FFF9CFC0901810D0901910F4
:10051000EE24D7FCE094FE2C0091E1101091E21043
:1005200020E030E01058210931098091BC10882367
:1005300011F40C941A0E8091F3109091F410A0E035
:10054000B0E09058A109B109B7FF02C00C946C103B
:10055000B595A7959795879598878F833FB6F8941B
:100560008AE09EE00E94202C20912E0E30912F0ECA
:100570003A832983AA2497FCA094BA2C662457FCBA
:100580006094762C8091441090914510B301A201A3
:10059000480F591F611D711DDB01CA01009751E011
:1005A000A507B10524F08FEF9FEFA0E0B0E0B7FF03
:1005B00002C00C94320E0E94581346EC41BB469A7E
:1005C00031E035B925E428B950EF5BB992EA9EB91C
:1005D00087E881BB00C000C041BB469A35B928B945
:1005E00060ED6BB99EB981BB00C000C041BB469AAB
:1005F00035B928B95BB99EB981BB6F8178852981EE
:100600003A81AA27629FB12D7303C001369FB00DB6
:10061000811D9A1F72039A0BB00D811D9A1F112420
:10062000AA2797FDA095BA2F880D991DAA1DBB1D5D
:100630002091381030913910820F931FA11DB11DE8
:10064000009731E0A307B10524F08FEF9FEFA0E002
:10065000B0E0B7FF02C00C942D0E0E94581346EC78
:1006600041BB469A31E035B921E428B950EF5BB976
:1006700090EA9EB987E881BB00C000C041BB469AA2
:1006800035B928B960ED6BB99EB981BB00C000C017
:1006900041BB469A35B928B95BB99EB981BB49813E
:1006A0005A81AA27049FB12D1503C001509FB00D98
:1006B000811D9A1F14039A0BB00D811D9A1F1124DE
:1006C000AA2797FDA095BA2F8C0D9D1DAE1DBF1DAD
:1006D0002091501030915110820F931FA11DB11D18
:1006E000009751E0A507B10524F08FEF9FEFA0E040
:1006F000B0E0B7FF02C00C94280E0E94581346ECDD
:1007000041BB469A31E035B921E428B950EF5BB9D5
:1007100092EA9EB987E881BB00C000C041BB469AFF
:1007200035B928B960EE6BB99EB981BB00C000C075
:1007300041BB469A35B928B95BB99EB981BB809156
:100740000A0F90910B0FA0910C0FB0910D0F8B2FF2
:100750009927AA27BB27892B8A2B8B2B21F086E090
:100760009FE00E94CF2B80912F0F823011F40C94C8
:100770009F0C10F00C94980C813011F40C945B0DCC
:1007800080E090E06091280F7091290F0E944B1B30
:100790002091260F3091270F280F391F30932B0FF0
:1007A00020932A0F8091060F9091070FA091080FB8
:1007B000B091090F40910A0F50910B0F60910C0FEF
:1007C00070910D0F840F951FA61FB71F80930A0FFE
:1007D00090930B0FA0930C0FB0930D0FC9010E94C3
:1007E000581346EC41BB469A31E035B925E428B9A7
:1007F00050EF5BB990EA9EB987E881BB00C000C0AA
:1008000041BB469A35B928B960EB6BB99EB981BB3B
:1008100000C000C041BB469A35B928B95BB99EB942
:1008200081BB3FBE3FB73983F8948091380E9091D9
:10083000390EA0913A0EB0913B0E8B2F9927AA2723
:10084000BB27892B8A2B8B2B11F00C94B10C809138
:100850005D0E823011F40C94860C10F00C947F0C19
:10086000813011F40C94E40C80E090E06091560E1D
:100870007091570E0E944B1B2090540E3090550ED5
:10088000280E391E3092590E2092580E8091340E47
:100890009091350EA091360EB091370E4091380EE2
:1008A0005091390E60913A0E70913B0E840F951F56
:1008B000A61FB71F8093380E9093390EA0933A0E5F
:1008C000B0933B0E8091461090914710B301A20166
:1008D000480F591F611D711D4115510581E06807C1
:1008E000710524F04FEF5FEF60E070E0DB01CA01BB
:1008F00077FF02C00C94C20D0E94581366EC61BBD6
:10090000469A51E055B947E448B970EF7BB992EA8D
:100910009EB987E881BB00C000C061BB469A55B94B
:1009200048B9E0EDEBB99EB981BB00C000C061BB26
:10093000469A55B948B97BB99EB981BB2F81388594
:10094000B101AA27269FB12D3703A001729FB00DD8
:10095000411D5A1F36035A0BB00D411D5A1F112459
:10096000662757FD6095762F480D591D6A1D7B1D22
:1009700080913A1090913B10480F591F611D711DD5
:100980004115510581E06807710524F04FEF5FEFD5
:1009900060E070E0DB01CA0177FF02C00C94CC0D6F
:1009A0000E94581366EC61BB469A51E055B943E486
:1009B00048B970EF7BB990EA9EB987E881BB00C067
:1009C00000C061BB469A55B948B9E0EDEBB99EB994
:1009D00081BB00C000C061BB469A55B948B97BB91C
:1009E0009EB981BB9101AA27029FB12D1303A001DB
:1009F000309FB00D411D5A1F12035A0BB00D411DFF
:100A00005A1F1124662757FD6095762F4C0D5D1DEA
:100A10006E1D7F1D8091521090915310480F591FE9
:100A2000611D711D4115510531E06307710524F009
:100A30004FEF5FEF60E070E0DB01CA0177FF02C0BB
:100A40000C94C70D0E94581346EC41BB469A31E006
:100A500035B923E428B950EF5BB992EA9EB987E82B
:100A600081BB00C000C041BB469A35B928B960EED1
:100A70006BB99EB981BB00C000C041BB469A35B975
:100A800028B95BB99EB981BB8091340F9091350F25
:100A9000A091360FB091370F8B2F9927AA27BB272C
:100AA000892B8A2B8B2B09F062C78091590F8230DA
:100AB00009F4E2C608F0DAC6813009F4BCC780E068
:100AC00090E06091520F7091530F0E944B1B209148
:100AD000500F3091510F280F391F3093550F20932D
:100AE000540F8091300F9091310FA091320FB0913F
:100AF000330F4091340F5091350F6091360F709144
:100B0000370F840F951FA61FB71F8093340F909344
:100B1000350FA093360FB093370FC9010E945813B9
:100B200046EC41BB469A31E035B927E428B950EF8D
:100B30005BB990EA9EB987E881BB00C000C041BBA9
:100B4000469A35B928B960EB6BB99EB981BB00C034
:100B500000C041BB469A35B928B95BB99EB981BB83
:100B600039813FBF3FB73983F8948091620E9091ED
:100B7000630EA091640EB091650E8B2F9927AA2762
:100B8000BB27892B8A2B8B2B09F005C78091870EF9
:100B9000823009F488C608F080C6813009F4BFC7E6
:100BA00080E090E06091800E7091810E0E944B1B5E
:100BB00020907E0E30907F0E280E391E3092830ECC
:100BC0002092820E80915E0E90915F0EA091600E39
:100BD000B091610E4091620E5091630E6091640E6F
:100BE0007091650E840F951FA61FB71F8093620E2C
:100BF0009093630EA093640EB093650E809148109D
:100C000090914910B301A201480F591F611D711D38
:100C10004115510581E06807710524F04FEF5FEF42
:100C200060E070E0DB01CA0177FF01C0C2C70E942B
:100C3000581366EC61BB469A51E055B941E448B996
:100C400070EF7BB990EA9EB987E881BB00C000C015
:100C500061BB469A55B948B9E0EEEBB99EB981BB84
:100C600000C000C061BB469A55B948B97BB99EB96E
:100C700081BB2F813885B101AA27269FB12D37036B
:100C8000A001729FB00D411D5A1F36035A0BB00DC3
:100C9000411D5A1F1124662757FD6095762F480D78
:100CA000591D6A1D7B1D80913C1090913D10480F8D
:100CB000591F611D711D4115510581E068077105BE
:100CC00024F04FEF5FEF60E070E0DB01CA0177FDD9
:100CD0006CC70E94581366EC61BB469A51E055B947
:100CE00045E448B970EF7BB990EA9EB987E881BBCB
:100CF00000C000C061BB469A55B948B9E0EDEBB9F8
:100D00009EB981BB00C000C061BB469A55B948B9C5
:100D10007BB99EB981BB9101AA27029FB12D130314
:100D2000A001309FB00D411D5A1F12035A0BB00D88
:100D3000411D5A1F1124662757FD6095762F4C0DD3
:100D40005D1D6E1D7F1D8091541090915510480FB0
:100D5000591F611D711D4115510531E06307710572
:100D600024F04FEF5FEF60E070E0DB01CA0177FD38
:100D700018C70E94581346EC41BB469A31E035B97A
:100D800025E428B950EF5BB992EA9EB987E881BBA8
:100D900000C000C041BB469A35B928B960EE6BB9B6
:100DA0009EB981BB00C000C041BB469A35B928B985
:100DB0005BB99EB981BB80915E0F90915F0FA0914E
:100DC000600FB091610F8B2F9927AA27BB27892B22
:100DD0008A2B8B2B09F0E9C58091830F823009F4AF
:100DE0007BC508F073C5813009F488C680E090E0C7
:100DF00060917C0F70917D0F0E944B1B20917A0FA8
:100E000030917B0F280F391F30937F0F20937E0F77
:100E100080915A0F90915B0FA0915C0FB0915D0F84
:100E200040915E0F50915F0F6091600F7091610F64
:100E3000840F951FA61FB71F80935E0F90935F0FBF
:100E4000A093600FB093610FC9010E94581346EC44
:100E500041BB469A31E035B921E428B950EF5BB97E
:100E600092EA9EB987E881BB00C000C041BB469AA8
:100E700035B928B960EB6BB99EB981BB00C000C021
:100E800041BB469A35B928B95BB99EB981BB398156
:100E90003FBF2FB72983F89480918C0E90918D0ECF
:100EA000A0918E0EB0918F0E8B2F9927AA27BB276A
:100EB000892B8A2B8B2B09F073C58091B10E823060
:100EC00009F4C1C408F0B9C4813009F4D4C580E084
:100ED00090E06091AA0E7091AB0E0E944B1B209087
:100EE000A80E3090A90E280E391E3092AD0E209219
:100EF000AC0E8091880E9091890EA0918A0EB091CF
:100F00008B0E40918C0E50918D0E60918E0E7091D3
:100F10008F0E840F951FA61FB71F80938C0E909382
:100F20008D0EA0938E0EB0938F0E80914A109091EB
:100F30004B10B301A201480F591F611D711D4115CE
:100F4000510531E06307710524F04FEF5FEF60E07A
:100F500070E0DB01CA0177FD11C60E94581366ECF0
:100F600061BB469A51E055B943E448B970EF7BB98B
:100F700090EA9EB987E881BB00C000C061BB469A79
:100F800055B948B9E0EEEBB99EB981BB00C000C0CD
:100F900061BB469A55B948B97BB99EB981BB6F818F
:100FA00078859101AA27629FB12D7303A001369F16
:100FB000B00D411D5A1F72035A0BB00D411D5A1F2F
:100FC0001124662757FD6095762F480D591D6A1D1F
:100FD0007B1D80913E1090913F10480F591F611D5D
:100FE000711D4115510531E06307710524F04FEF84
:100FF0005FEF60E070E0DB01CA0177FDA3C50E94EE
:10100000581366EC61BB469A51E055B947E448B9BC
:1010100070EF7BB990EA9EB987E881BB00C000C041
:1010200061BB469A55B948B9E0EDEBB99EB981BBB1
:1010300000C000C061BB469A55B948B97BB99EB99A
:1010400081BBB101AA27069FB12D1703A001709F94
:10105000B00D411D5A1F16035A0BB00D411D5A1FEA
:101060001124662757FD6095762F4C0D5D1D6E1D72
:101070007F1D8091561090915710480F591F611D88
:10108000711D4115510581E06807710524F04FEF8E
:101090005FEF60E070E0DB01CA0177FD4FC50E94A1
:1010A000581346EC41BB469A31E035B927E428B9DC
:1010B00050EF5BB992EA9EB987E881BB00C000C0DF
:1010C00041BB469A35B928B960EE6BB99EB981BB70
:1010D00000C000C041BB469A35B928B95BB99EB97A
:1010E00081BB8091880F9091890FA0918A0FB09158
:1010F0008B0F8B2F9927AA27BB27892B8A2B8B2B0A
:1011000009F03FC48091AD0F823009F483C308F029
:101110007BC3813009F468C480E090E06091A60F41
:101120007091A70F0E944B1B2091A40F3091A50F27
:10113000280F391F3093A90F2093A80F8091840F97
:101140009091850FA091860FB091870F4091880FE5
:101150005091890F60918A0F70918B0F840F951FAA
:10116000A61FB71F8093880F9093890FA0938A0FB3
:10117000B0938B0FC9010E94581346EC41BB469AAD
:1011800031E035B923E428B950EF5BB992EA9EB952
:1011900087E881BB00C000C041BB469A35B928B979
:1011A00060EB6BB99EB981BB00C000C041BB469AE1
:1011B00035B928B95BB99EB981BB29812FBF3FB72B
:1011C0003983F8948091B60E9091B70EA091B80E25
:1011D000B091B90E8B2F9927AA27BB27892B8A2B71
:1011E0008B2B09F0D3C38091DB0E823009F4F9C256
:1011F00008F0F1C2813009F40DC480E090E0609104
:10120000D40E7091D50E0E944B1B2090D20E3090C0
:10121000D30E280E391E3092D70E2092D60E809112
:10122000B20E9091B30EA091B40EB091B50E409154
:10123000B60E5091B70E6091B80E7091B90E840F32
:10124000951FA61FB71F8093B60E9093B70EA0935D
:10125000B80EB093B90E80914C1090914D10B3011F
:10126000A201480F591F611D711D4115510581E0F3
:101270006807710524F04FEF5FEF60E070E0DB017D
:10128000CA0177FD67C40E94581366EC61BB469A99
:1012900051E055B945E448B970EF7BB990EA9EB981
:1012A00087E881BB00C000C061BB469A55B948B908
:1012B000E0EEEBB99EB981BB00C000C061BB469AAD
:1012C00055B948B97BB99EB981BB2F813885B10129
:1012D000AA27269FB12D3703A001729FB00D411D93
:1012E0005A1F36035A0BB00D411D5A1F1124662791
:1012F00057FD6095762F480D591D6A1D7B1D809105
:10130000401090914110480F591F611D711D4115EA
:10131000510581E06807710524F04FEF5FEF60E051
:1013200070E0DB01CA0177FD11C40E94581366EC1E
:1013300061BB469A51E055B941E448B970EF7BB9B9
:1013400092EA9EB987E881BB00C000C061BB469AA3
:1013500055B948B9E0EDEBB99EB981BB00C000C0FA
:1013600061BB469A55B948B97BB99EB981BB910119
:10137000AA27029FB12D1303A001309FB00D411D7C
:101380005A1F12035A0BB00D411D5A1F1124662714
:1013900057FD6095762F4C0D5D1D6E1D7F1D809154
:1013A000581090915910480F591F611D711D41151A
:1013B000510531E06307710524F04FEF5FEF60E006
:1013C00070E0DB01CA0177FDD5C30E94581336ECEB
:1013D00031BB469A21E025B991E498B940EF4BB969
:1013E00080EA8EB967E8262E21BA00C000C031BB62
:1013F000469A25B998B950EB5BB98EB921BA00C0AD
:1014000000C031BB469A25B998B94BB98EB921BAFB
:101410008EEA9FE02C833B834D835E830E94202CC9
:101420008091D20F9091D30F0E9458133B8131BB12
:10143000469A2C8125B995E498B94D814BB982EA39
:101440008EB921BA00C000C031BB469A25B998B9FF
:101450005E815BB98EB921BA00C000C031BB469A2B
:1014600025B998B94BB98EB921BA29812FBF3FB799
:101470003983F8948CED9EE00E94202C2090000F80
:101480003090010F80914E1090914F10480E591ED0
:10149000611C711C4114510441E0640671042CF07C
:1014A00044244A94542C612C712CD301C20177FC42
:1014B0005DC30E94581346EC41BB469A31E035B9F2
:1014C00027E428B950EF5BB990EA9EB987E881BB61
:1014D00000C000C041BB469A35B928B960EE6BB96F
:1014E0009EB981BB00C000C041BB469A35B928B93E
:1014F0005BB99EB981BB6F8178859101AA27629FF4
:10150000B12D7303A001369FB00D411D5A1F720308
:101510005A0BB00D411D5A1F1124662757FD6095C7
:10152000762F480D591D6A1D7B1D809142109091A8
:101530004310480F591F611D711D4115510531E0C0
:101540006307710524F04FEF5FEF60E070E0DB01AF
:10155000CA0177FD07C30E94581346EC41BB469A67
:1015600031E035B923E428B950EF5BB992EA9EB96E
:1015700087E881BB00C000C041BB469A35B928B995
:1015800060ED6BB99EB981BB00C000C041BB469AFB
:1015900035B928B95BB99EB981BBB101AA27069FAD
:1015A000B12D1703A001709FB00D411D5A1F1603E6
:1015B0005A0BB00D411D5A1F1124662757FD609527
:1015C000762F4C0D5D1D6E1D7F1D80915A109091E0
:1015D0005B10480F591F611D711D4115510581E0B8
:1015E0006807710524F04FEF5FEF60E070E0DB010A
:1015F000CA0177FDB3C20E94581346EC41BB469A1C
:1016000031E035B923E428B950EF5BB990EA9EB9CF
:1016100087E881BB00C000C041BB469A35B928B9F4
:1016200060EB6BB99EB981BB00C000C041BB469A5C
:1016300035B928B95BB99EB981BB8091DC0F909117
:10164000DD0FA091DE0FB091DF0F8B2F9927AA2716
:10165000BB27892B8A2B8B2B09F08EC1809101101F
:10166000823009F4A5C008F09DC0813009F435C26C
:1016700080E090E06091FA0F7091FB0F0E944B1B8D
:10168000E091F80FF091F90FE80FF91FF093FD0FBB
:10169000E093FC0F4091D80F5091D90F6091DA0F71
:1016A0007091DB0F0091DC0F1091DD0F2091DE0FA8
:1016B0003091DF0F400F511F621F731F4093DC0FEB
:1016C0005093DD0F6093DE0F7093DF0FCF01F0D7E3
:1016D00046EC41BB469A31E035B927E428B950EFD2
:1016E0005BB992EA9EB987E881BB00C000C041BBEC
:1016F000469A35B928B960EB6BB99EB981BB00C079
:1017000000C041BB469A35B928B95BB99EB981BBC7
:1017100029812FBF20919A09922F9C7111E009F025
:1017200010E0922F9370923009F4CAC4933009F4F8
:10173000BCC4913009F49BC21111D9C480E00E944D
:10174000ED348091960990919709A0919809B091F4
:1017500099090196A11DB11D80939609909397094F
:10176000A0939809B093990920919A092F5F20932B
:101770009A0928960FB6F894DEBF0FBECDBFDF9151
:10178000CF911F910F91FF90EF90DF90CF90BF907E
:10179000AF909F908F907F906F905F904F903F9011
:1017A0002F900895833009F481C1843009F060CF0F
:1017B0006091DC0F7091DD0F8091DE0F9091DF0F53
:1017C0002091FE0F211126C2BB27A92F982F872F0A
:1017D000809590954FCF833009F463C1843009F030
:1017E0000CCD6091B60E7091B70E8091B80E9091AD
:1017F000B90E2091D80E211108C2BB27A92F982F0E
:10180000872F80959095FBCC833009F4FEC08430FF
:1018100009F082CC6091880F7091890F80918A0FB6
:1018200090918B0F2091AA0F2111FFC1BB27A92FE7
:10183000982F872F8095909571CC833009F416C12D
:10184000843009F044CB60918C0E70918D0E8091A4
:101850008E0E90918F0E2091AE0E2111CCC1BB2720
:10186000A92F982F872F8095909533CB833009F43B
:1018700013C1843009F023C96091340F7091350F82
:101880008091360F9091370F2091560F40EA51E02A
:101890000E94A22B8095909514C9833009F48AC0C8
:1018A000843009F07DC96091620E7091630E809161
:1018B000640E9091650E2091840E211183C1BB2787
:1018C000A92F982F872F809590956CC9833009F4A4
:1018D00076C0843009F08ACA60915E0F70915F0F04
:1018E0008091600F9091610F2091800F211165C14F
:1018F000BB27A92F982F872F8095909579CA833081
:1019000009F4AEC0843011F00C9434046091380EA8
:101910007091390E80913A0E90913B0E20915A0EA3
:1019200040EA51E00E94A22B809590950C943604D9
:10193000833009F48FC0843011F00C94C00360919F
:101940000A0F70910B0F80910C0F90910D0F209149
:101950002C0F40EA51E00E94A22B809590950C94A8
:10196000C20384E39EE00E94CF2B0C94270480E303
:101970009FE00E94CF2B99C888ED9FE00E94CF2B5B
:101980006DCE84E89FE00E94CF2BBCCB82EB9EE023
:101990000E94CF2B28CC8EE59EE00E94CF2BF6C86C
:1019A00088E89EE00E94CF2B88CA8AE59FE00E94CB
:1019B000CF2B12CA8091720E9091730EF3C8809152
:1019C0006E0F90916F0F14CA6091380E7091390E9E
:1019D00080913A0E90913B0E20915A0E40EA53E0CE
:1019E0000E94A22B0C9436046091880F7091890F8D
:1019F00080918A0F90918B0F2091AA0F2111E7C03F
:101A0000BB27A92F982F872F89CB8091980F909172
:101A1000990F84CB6091B60E7091B70E8091B80E7D
:101A20009091B90E2091D80E2111EAC0BB27A92FA1
:101A3000982F872FE4CB6091340F7091350F8091F0
:101A4000360F9091370F2091560F40EA53E00E94D5
:101A5000A22B37C880911A0F90911B0F0C94C203D0
:101A60008091480E9091490E0C94360480919C0E02
:101A700090919D0E2ECA60918C0E70918D0E80916A
:101A80008E0E90918F0E2091AE0E2111AAC0BB2711
:101A9000A92F982F872F1DCA8091440F9091450F31
:101AA00010C88091C60E9091C70EA9CB8091EC0F03
:101AB0009091ED0FDFCD60910A0F70910B0F809127
:101AC0000C0F90910D0F20912C0F2111A8C0BB2756
:101AD000A92F982F872F0C94C2036091DC0F70916F
:101AE000DD0F8091DE0F9091DF0F2091FE0F21110D
:101AF00073C0BB27A92F982F872FBCCD60915E0F95
:101B000070915F0F8091600F9091610F2091800F15
:101B100021116CC0BB27A92F982F872F69C960910D
:101B2000620E7091630E8091640E9091650E20910B
:101B3000840E40EA53E00E94A22B34C880E090E07B
:101B4000DC01ADCA80E090E0DC0159CA80E090E0A1
:101B5000DC01EBCB80E090E0DC0195CB80E090E015
:101B6000DC0149CD80E090E0DC01F5CC80E090E044
:101B7000DC019FCC80E090E0DC0127CC80E090E0AD
:101B8000DC01EBC980E090E0DC010C947C0480E097
:101B900090E0DC010C94220580E090E0DC010C94E4
:101BA000D00480E090E0DC01E4C880E090E0DC015B
:101BB00090C880E090E0DC013AC840EA51E00E9421
:101BC0005C1B9ACE40EA51E00E945C1B7CCE40EA4E
:101BD00053E00E945C1BA2CA40EA53E00E945C1BD7
:101BE00049CD40EA53E00E945C1B73C940EA53E0D0
:101BF0000E945C1BFDC840EA51E00E945C1B33CE92
:101C000040EA53E00E945C1BFACA40EA51E00E949D
:101C10005C1BF7CD40EA51E00E945C1BD9CD40EA45
:101C200053E00E945C1B0C94C20340EA51E00E9406
:101C30005C1B00CE18861F820C94AE028090181098
:101C40009090191095948794840C951C0C947102B3
:101C500080E090E0DC010C947D0380E090E0DC010A
:101C60000C942D0380E090E0DC010C94DB020E94D8
:101C7000A75C80914912882309F433C28091B31084
:101C8000882379F081508093B3108091FB0C8111EF
:101C900031C28091FC0C81112DC28091FA0C81110E
:101CA00047C38091AC10882309F407C28091AA1021
:101CB0009091AB1040915C1050915D1020913810C4
:101CC000309139102417350708F402C3421753071F
:101CD00070F4B901641B750BAB018617970708F404
:101CE000AC01241B350B30933910209338104091F0
:101CF00068105091691020914410309145102417BC
:101D0000350708F4D9C24217530770F4F901E41BF0
:101D1000F50BAF018E179F0708F4AC01241B350BA0
:101D200030934510209344104091741050917510D9
:101D300020915010309151102417350708F4B0C28B
:101D40004217530770F4B901641B750BAB0186177A
:101D5000970708F4AC01241B350B309351102093E6
:101D6000501040915E1050915F1020913A103091C8
:101D70003B102417350708F487C24217530770F445
:101D8000F901E41BF50BAF018E179F0708F4AC01B6
:101D9000241B350B30933B1020933A1040916A106E
:101DA00050916B1020914610309147102417350741
:101DB00008F45DC24217530770F4B901641B750B38
:101DC000AB018617970708F4AC01241B350B309341
:101DD0004710209346104091761050917710209133
:101DE0005210309153102417350708F433C24217AC
:101DF000530770F4F901E41BF50BAF018E179F0731
:101E000008F4AC01241B350B30935310209352106F
:101E1000409160105091611020913C1030913D1024
:101E20002417350708F409C24217530770F4B901A3
:101E3000641B750BAB018617970708F4AC01241BD4
:101E4000350B30933D1020933C1040916C10509115
:101E50006D1020914810309149102417350708F46F
:101E6000DFC14217530770F4F901E41BF50BAF0112
:101E70008E179F0708F4AC01241B350B30934910D3
:101E8000209348104091781050917910209154106F
:101E9000309155102417350708F4B5C14217530780
:101EA00070F4B901641B750BAB018617970708F432
:101EB000AC01241B350B30935510209354104091E6
:101EC00062105091631020913E1030913F10241702
:101ED000350708F48BC14217530770F4F901E41B6E
:101EE000F50BAF018E179F0708F4AC01241B350BCF
:101EF00030933F1020933E1040916E1050916F1020
:101F000020914A1030914B102417350708F461C115
:101F10004217530770F4B901641B750BAB018617A8
:101F2000970708F4AC01241B350B30934B1020931A
:101F30004A1040917A1050917B10209156103091A8
:101F400057102417350708F437C14217530770F4A8
:101F5000F901E41BF50BAF018E179F0708F4AC01E4
:101F6000241B350B3093571020935610409164106A
:101F70005091651020914010309141102417350781
:101F800008F40DC14217530770F4B901641B750BB7
:101F9000AB018617970708F4AC01241B350B30936F
:101FA0004110209340104091701050917110209179
:101FB0004C1030914D102417350708F4E3C0421738
:101FC000530770F4F901E41BF50BAF018E179F075F
:101FD00008F4AC01241B350B30934D1020934C10AA
:101FE00040917C1050917D102091581030915910E3
:101FF0002417350708F4B9C04217530770F4B90124
:10200000641B750BAB018617970708F4AC01241B02
:10201000350B309359102093581040916610509111
:10202000671020914210309143102417350708F0B3
:1020300089C0421B530B8417950708F477C1420FE0
:10204000531F50934310409342104091721050918F
:10205000731020914E1030914F102417350708F05F
:102060005EC0421B530B8417950708F45DC1420FF5
:10207000531F50934F1040934E1040917E1050913B
:102080007F1020915A1030915B1024173507A8F566
:10209000421B530B8417950708F444C1420F531F8A
:1020A00050935B1040935A1008C022FD5FCB812FE4
:1020B0000E94A347812F0E94321F20919A0956CB7C
:1020C0008DE190E10E94972C8091C01088700E9451
:1020D000E42120919A094ACB0196A11DB11D0C94CF
:1020E000A8028091B310882309F4CFCDCBCD0E94F4
:1020F000AD3224CB0E94AF5ED0CD42175307E8F635
:10210000F901E41BF50BAF018E179F0708F4AC0132
:10211000241B350B30935B1020935A10CECF4217FF
:10212000530708F0AACFB901641B750BAB018617E2
:10213000970708F4AC01241B350B30934F10209304
:102140004E109BCF4217530708F07FCFF901E41BD5
:10215000F50BAF018E179F0708F4AC01241B350B5C
:10216000309343102093421070CF421B530B8417BF
:10217000950708F4D5C0420F531F50935910409350
:1021800058104BCF421B530B8417950708F4C6C059
:10219000420F531F50934D1040934C1021CF421BC0
:1021A000530B8417950708F4B7C0420F531F509381
:1021B000411040934010F7CE421B530B84179507F4
:1021C00008F4A8C0420F531F509357104093561065
:1021D000CDCE421B530B8417950708F499C0420FCC
:1021E000531F50934B1040934A10A3CE421B530BE6
:1021F0008417950708F48AC0420F531F50933F106D
:1022000040933E1079CE421B530B8417950708F478
:102210007BC0420F531F50935510409354104FCE24
:10222000421B530B8417950708F46CC0420F531FD1
:10223000509349104093481025CE421B530B8417EE
:10224000950708F45DC0420F531F50933D10409313
:102250003C10FBCD421B530B8417950708F44EC06E
:10226000420F531F5093531040935210D1CD421B35
:10227000530B8417950708F43FC0420F531F509328
:10228000471040934610A7CD421B530B8417950768
:1022900088F1420F531F50933B1040933A107ECD6C
:1022A000421B530B8417950718F1420F531F50938D
:1022B00051104093501055CD421B530B8417950776
:1022C000A8F0420F531F50934510409344102CCD5B
:1022D000421B530B8417950738F0420F531F50933E
:1022E00039104093381003CDAC01F7CFAC01E9CFE2
:1022F000AC01DBCFAC01CDCFAC01BFCFAC01B0CFD7
:10230000AC01A1CFAC0192CFAC0183CFAC0174CFB3
:10231000AC0165CFAC0156CFAC0147CFAC0138CF93
:10232000AC0129CFAC01BACEAC01A1CEAC0187CEB5
:102330000E94605DB6CCE82FF0E0EE0FFF1FEF5D6E
:10234000FE4E8081918108958038910538F4FC011A
:10235000E45EFE4F208130E0C90108952FEF3FEF8A
:10236000FBCFCF93DF93C1E8D7E1E881F98185EA1C
:1023700096E1A1E6B0E081939193A193B193F983A3
:10238000E883DF91CF91089580914912813009F05F
:102390000895683F79F06A3FD9F78FEF9FE79093F0
:1023A000070E8093060E9093F60C8093F50C109216
:1023B000B31008958091B3108F5F8093B310089588
:1023C000A1E8B7E1ED91FC9111978191ED93FC9318
:1023D0000895A1E8B7E1ED91FC9111978191ED93FA
:1023E000FC930895A1E8B7E1ED91FC9111978081EC
:1023F00091813296ED93FC930895A1E8B7E1ED91B8
:10240000FC91119760817181828193813496ED9363
:10241000FC930895E82FE695E695E695F0E0EE59F1
:10242000F54F9081992351F08770E82FF0E0ED5A35
:10243000F84F2081292381E009F0089580E0089574
:10244000FC01A18DBB27A1950CF4B095AA0FBB1F71
:10245000119620853185428553850E944974648791
:102460007587868797870895CF92DF92EF92FF92C4
:10247000CF93603E710581059105F8F4DC01CB0135
:102480009F5FAF4FBF4FCC24D82EE92EFA2EA0E08D
:10249000B0E020E030E0EBBEF601C791A40FB51F1D
:1024A000CC932F5F3F4FD9018FEFC81AD80AE80AA3
:1024B000F80A211581E0380771F7CF91FF90EF906E
:1024C000DF90CF90089596EC91BB469A982F969501
:1024D000969596958295880F807E95B990E498B9E7
:1024E0001BB88EB987E881BB85E08A95F1F70000BB
:1024F000089555E05A95F1F7000036EC31BB469A45
:1025000080EE87B997E09AB98DB915B880E488B99B
:102510001BB880E28EB987E481BB82E08A95F1F72F
:1025200000C026B199B18CB131BB479A37EE37B9AB
:1025300037EF3AB932EE3DB9422F4695437050E835
:10254000259F90011124422B292F2071422B292FE6
:10255000269526952870422B96959076492B90E0EB
:10256000880F991F84709927842B0895CF93DF9348
:10257000BC0180E090E041E855E176DFC1E8D5E1BB
:10258000D0938217C09381171092831736DF653A74
:1025900076418146910551F080E092E0FE019C0178
:1025A000119221503040E1F780E004C012DF8093A7
:1025B000831781E0DF91CF910895AF92BF92CF92C0
:1025C000DF92EF92FF920F931F93CF93DF935C0103
:1025D000C12CD12C7601C0E0D0E0062F10E00EC057
:1025E000A6014F575A4EBE016A0D7B1D80E090E058
:1025F0003BDF21962FEFD21AE20AF20AC017D10769
:1026000078F3C1E8D5E1D0938217C0938117109277
:102610008317F3DE653A76418146910551F080E0FB
:1026200092E0FE019C01119221503040E1F780E0E0
:1026300004C0CFDE8093831781E0DF91CF911F919B
:102640000F91FF90EF90DF90CF90BF90AF900895E3
:102650006095EBE7F4E19081982B6923608386EC29
:1026600081BB469A362F330F962F9695262F221F21
:102670002227221F832F8670282B20646071832FCE
:10268000880F8072862B307C832B9270906C31E0A7
:1026900035B928B98BB99EB987E881BB85E08A95A1
:1026A000F1F70000EAE7F4E180818F5F808308950D
:1026B0009C01232F332726952695722F66EC61BB4C
:1026C000469A522F550F452F467040682071332788
:1026D0002260352F330F3072322B507C352B272F51
:1026E00026952270206215B848B93BB92EB957E833
:1026F00051BB9695879596958795282F61BB469AED
:10270000482F440F382F3695221F2227221F642F6F
:102710006670262B2068807199278260942F990F0C
:102720009072982B407C942B327015B828B99BB9C5
:102730003EB951BB08951F93CF93DF93D82FD86F25
:1027400086958695869528E030E001C0220F8A950F
:10275000EAF7C22FC095CD231FB7F894CB01A8DFAD
:10276000E6ECE1BB469A3D2F330F367031649D2F66
:1027700096959270906A71E075B938B9A0EFABB9CF
:102780009EB967E861BB85E08A95F1F70000E1BB7F
:10279000469AFC2FFF0F4C2F46955C2F551F55274F
:1027A000551F8F2F8670582B5064C0718F2F880F44
:1027B00080728C2BF07C8F2B4270406A75B958B9AF
:1027C0008BB94EB961BB8AE08A95F1F700C0E1BBD5
:1027D000469A75B938B9ABB99EB961BB8AE08A959A
:1027E000F1F700C01FBFDF91CF911F91089560FDE9
:1027F00005C09093600C80935F0C0895BC0188E144
:102800009ACF60FD05C09093660C8093650C089587
:10281000BC018BE190CFEF92FF920F931F93CF9368
:10282000DF937C01EB01142F40FF09C020919D092B
:1028300030919E09282739272C7F232B71F511FF12
:102840000AC080919F099091A0098C279D27882715
:102850009E7F892B39F4DF91CF911F910F91FF90CB
:10286000EF9008950D2F0695409147124F70406BE1
:10287000E0918419F091851921E063E070E084E82B
:1028800099E10995D093A009C0939F09DF91CF9159
:102890001F910F91FF90EF90089590589C013595EE
:1028A000279535952795092F06952F773327409142
:1028B00047124F70406EE0918419F091851963E0E2
:1028C00070E084E899E10995F0929E09E0929D09F3
:1028D000B6CF0F931F93072F069510E00F771127A0
:1028E000282F2F77409147124F704069E09184194B
:1028F000F091851963E070E084E899E109951F91F2
:102900000F9108950F93262F4F772F778F70806840
:10291000E0918419F0918519042F482F63E070E04D
:1029200084E899E109950F910895CF93DF93E1DD54
:10293000C82FD0E0DEDD382F20E0C22BD32B81E082
:10294000C2DD81E0C0DD86EC81BB469A15B882E429
:1029500088B91BB880E48EB987E881BB85E08A9589
:10296000F1F7000082E0AFDDC095D095CE01DF9198
:10297000CF910895EF92FF920F931F93CF93DF9320
:10298000F82EE62EABEA8A9FA12D1124A695A695D6
:10299000A6951A2F1F5F50E0A83008F06AC08A2F52
:1029A00090E0880F991FFC01EE0FFF1FEE0FFF1F35
:1029B000EE0FFF1FE80FF91FE40FF51FEE0FFF1FCB
:1029C000EF5DFE4EC081D181183008F476C0FA0167
:1029D000EE0FFF1FE35EFD4E0190F081E02DDA0166
:1029E000AA0FBB1FA750BE4E8D919C919F01281B23
:1029F000390BA12FB0E017970E948D6F6E0F7F1FCC
:102A0000811D911D6115710521E08207910508F076
:102A10006AC08B010C1B1D0B3E2D20E09BEAF99E2A
:102A2000912D1124969596959695892F880F890F4B
:102A3000880F880F6F2D681B862F90E0A0E0B0E014
:102A400077276627620F731F811D911D2CE030E0F0
:102A500040E050E00E948A74D8010E943F74C80F81
:102A6000D91FCE01DF91CF911F910F91FF90EF9071
:102A70000895FA01EE0FFF1FE35EFD4E0190F08115
:102A8000E02DEA01CC0FDD1FC750DE4E8881998111
:102A90009F01281B390BB0E017970E948D6F6E0FB6
:102AA0007F1F811D911D6115710521E08207910530
:102AB000F8F4EB01183008F08ACF812F90E0880FEE
:102AC000991FFC01EE0FFF1FEE0FFF1FEE0FFF1F00
:102AD000E80FF91FE40FF51FEE0FFF1FEF5DFE4E2D
:102AE0006081718196CF6FEF7FEF80E090E091CFB2
:102AF0006FEF7FEF80E090E0EB01DCCFFF920F9370
:102B00001F93CF93DF93F82EABEA8A9FA12D112458
:102B1000A695A695A6951A2F1F5F462F50E0A830C0
:102B200008F063C08A2F90E0880F991FFC01EE0F18
:102B3000FF1FEE0FFF1FEE0FFF1FE80FF91FE40F3F
:102B4000F51FEE0FFF1FEF5DFE4EC081D1811830E3
:102B500008F46FC0FA01EE0FFF1FE35EFD4E019017
:102B6000F081E02DDA01AA0FBB1FA750BE4E8D9158
:102B70009C919F01281B390BA12FB0E017970E9451
:102B80008D6F6E0F7F1F811D911D6115710521E0F5
:102B90008207910508F063C08B010C1B1D0B9BEA9B
:102BA000F99E912D1124969596959695892F880FCB
:102BB000890F880F880F6F2D681B862F90E0A0E08B
:102BC000B0E0772766272CE030E040E050E00E943C
:102BD0008A74D8010E943F74C80FD91FCE01DF91BB
:102BE000CF911F910F91FF900895FA01EE0FFF1FF3
:102BF000E35EFD4E0190F081E02DEA01CC0FDD1F78
:102C0000C750DE4E888199819F01281B390BB0E0A7
:102C100017970E948D6F6E0F7F1F811D911D61158B
:102C2000710521E082079105F8F4EB01183008F0F6
:102C300091CF812F90E0880F991FFC01EE0FFF1FAD
:102C4000EE0FFF1FEE0FFF1FE80FF91FE40FF51F38
:102C5000EE0FFF1FEF5DFE4E608171819DCF6FEF24
:102C60007FEF80E090E098CF6FEF7FEF80E090E023
:102C7000EB01DCCFAF92BF92CF92DF92EF92FF9247
:102C80000F931F93CF93DF93E4E8F0E11192119239
:102C900080E1E83AF807D1F71092A9101092A81035
:102CA0008091C910823009F421C1833009F40AC12E
:102CB000813059F0DF91CF911F910F91FF90EF90EC
:102CC000DF90CF90BF90AF900895C0918210D091C7
:102CD00083101091C810110F60E0812F0FDF7C016D
:102CE00080E029DB9701281B390BDE010E948D6FE4
:102CF000CC24CA94DC2CE12CF12CA70196010E9473
:102D00006374309385102093841061E0812FF6DE88
:102D10005C0181E010DB9501281B390BDE010E946C
:102D20008D6FA70196010E946374309387102093E2
:102D3000861062E0812FE2DE5C0182E0FCDA950120
:102D4000281B390BDE010E948D6FA70196010E949E
:102D50006374309389102093881063E0812FCEDE56
:102D60005C0183E0E8DA9501281B390BDE010E9443
:102D70008D6FA70196010E94637430938B1020938E
:102D80008A1064E0812FBADE5C0184E0D4DA950118
:102D9000281B390BDE010E948D6FA70196010E944E
:102DA000637430938D1020938C1065E0812FA6DE24
:102DB0005C0185E0C0DA9501281B390BDE010E9419
:102DC0008D6FA70196010E94637430938F1020933A
:102DD0008E1066E0812F92DE5C0186E0ACDA950110
:102DE000281B390BDE010E948D6FA70196010E94FE
:102DF0006374309391102093901067E0812F7EDEF2
:102E00005C0187E098DA9501281B390BDE010E94EE
:102E10008D6FA70196010E946374309393102093E5
:102E2000921068E0812F6ADE5C0188E084DA950107
:102E3000281B390BDE010E948D6FA70196010E94AD
:102E40006374309395102093941069E0812F56DEBF
:102E50005C0189E070DA9501281B390BDE010E94C4
:102E60008D6FA70196010E94637430939710209391
:102E700096106AE0812F42DE5C018AE05CDA9501FF
:102E8000281B390BDE010E948D6FA70196010E945D
:102E9000637430939910209398106BE0812F2EDE8D
:102EA0008C018BE048DA9801281B390BDE010E9467
:102EB0008D6FA70196010E94637430939B1020933D
:102EC0009A10F8CE2091C810A0918210B091831072
:102ED00030E00E948D6F2CE030E040E050E00E9436
:102EE00063743093A9102093A810E4CE2091C810E9
:102EF000A0918210B091831030E00E948D6F2CE081
:102F000030E040E050E00E94637430939D102093C5
:102F10009C1030939F1020939E103093A11020930B
:102F2000A0103093A3102093A2103093A5102093EB
:102F3000A4103093A7102093A610BCCE21E030E05F
:102F400002C0220F331F8A95E2F7D901A095B095F0
:102F50008091210A9091220A8A239B239093220A2E
:102F60008093210AE091230AF091240AEA23FB23AB
:102F7000F093240AE093230A662371F0822B932BAB
:102F80009093220A8093210A442331F02E2B3F2B69
:102F90003093240A2093230A089521E030E002C0F0
:102FA000220F331F8A95E2F7F901E095F0958091A1
:102FB000210A9091220A8E239F239093220A8093C4
:102FC000210A4091230A5091240A4E235F235093F3
:102FD000240A4093230A662331F0282B392B30939F
:102FE000220A2093210A089541E050E002C0440FD4
:102FF000551F8A95E2F7BA0160957095E1E2FAE013
:103000002081318126233723A3E2BAE08D919C9160
:103010001197862397238D939C93242B352B3183F3
:1030200020830895CF93DF931F92CDB7DEB790E052
:1030300069838AD98093250A6981862F90E084D993
:103040008093260A0F90DF91CF91089524E630E017
:1030500040E050E00E9463742AE030E040E050E03D
:103060000E946374605D822F805DDCCF21E020933D
:103070002B0A009721F48FEF80932A0A089510926B
:103080002A0ABC0181E39AE00E94B2736DE677E000
:1030900080E39AE00C94A77310927A0B10927C0B49
:1030A0008FEF8093790B8093780B1092720B1092B4
:1030B000730B1092740B1092750B1092850B10927B
:1030C000870B8093840B8093830B10927D0B10925F
:1030D0007E0B10927F0B1092800B1092900B10922F
:1030E000920B80938F0B80938E0B1092880B109213
:1030F000890B10928A0B10928B0B10929B0B1092E3
:103100009D0B80939A0B8093990B1092930B1092C6
:10311000940B1092950B1092960B1092A60B109296
:10312000A80B8093A50B8093A40B10929E0B10927A
:103130009F0B1092A00B1092A10B1092B10B10924A
:10314000B30B8093B00B8093AF0B1092A90B10922E
:10315000AA0B1092AB0B1092AC0B08951F93CF9358
:10316000DF93D82FC92F162F8091BC0B68130AC08C
:1031700046E050E064EB7BE08D2F0E94797300976E
:1031800011F424C089DF1093BC0B46E050E06FEFD0
:1031900070E084EB9BE00E94A073ED2FFC2FA4EB6A
:1031A000BBE080E091919F3F19F4882341F004C077
:1031B0009D938F5F8630B1F71092B40B07C086E005
:1031C000E4EBFBE0DF011D928A95E9F7DF91CF91F7
:1031D0001F910895CF93DF9300D000D000D0CDB7DA
:1031E000DEB786E0E0EAF5E0DE01119601900D928F
:1031F0008A95E1F760E0CE010196B0DF26960FB622
:10320000F894DEBF0FBECDBFDF91CF910895EF924E
:10321000FF920F931F93CF93DF9300D000D000D085
:10322000CDB7DEB746E050E06FEF70E08E010F5F84
:103230001F4FC8010E94A073F12CE12C8F2DEAD8FA
:103240008823A9F0F801EE0DF11DE7FCFA95F08254
:10325000EE2021F089819F2D981B9083E39485E0D7
:103260008E152CF461E0CE01019678DF05C0F39451
:1032700090E8F912E3CFF6CF26960FB6F894DEBFAA
:103280000FBECDBFDF91CF911F910F91FF90EF90B7
:10329000089586E0E4EBFBE0ABE0B1E101900D9234
:1032A0008A95E1F7089596EC91BB469A482F440F12
:1032B000282F2695342F36703064982F991F992720
:1032C000991F392B8071942F990F9072982B407C05
:1032D000942B2270206615B838B99BB92EB987E8AF
:1032E00081BB85E08A95F1F7000008951092C50B27
:1032F0001092C60B1092C70B1092C80B8FEF8093E1
:103300002A0C809314118FEF9FEFDC01809315112D
:1033100090931611A0931711B09318110895CF939D
:10332000DF93CDB7DEB728970FB6F894DEBF0FBE98
:10333000CDBF92E09D8393E09E8325E02F833CE008
:10334000388729839A8391E09B831C82823081F1A4
:1033500034F4882361F0813009F061C013C08430F7
:1033600009F450C0D4F1853009F059C052C0440F5F
:10337000551F661F771F8091BE108170842B80932C
:10338000BE104DC08091C0108F7C41305105610549
:10339000710521F480618093C01041C04230510515
:1033A0006105710509F001C080628093C01037C0CB
:1033B000DB01CA0181709927AA27BB2721E0822758
:1033C0008093C410427055276627772775956795B7
:1033D000579547954093CE1022C0DB01CA018170FA
:1033E0009927AA27BB2721E082278093C210427029
:1033F0005527662777277595679557954795409385
:10340000C3100DC0FE01E40FF51F85818093C81025
:1034100006C0FE01E40FF51F81818093CA10289633
:103420000FB6F894DEBF0FBECDBFDF91CF910895E8
:10343000BF92CF92DF92EF92FF920F931F93CF93A1
:10344000DF93CDB7DEB764970FB6F894DEBF0FBE3B
:10345000CDBF00911F118CE00802800111240A5594
:103460001A4F44DFD80112966D917C911397CE01CB
:1034700001960E94B2736BE677E0CE0101960E943E
:10348000A773F80180818130D9F020F0823009F0F3
:103490005EC029C0E181EE0FFF0BE153FF4E80813A
:1034A000918190931A1180931911A0E0B0E080935C
:1034B000151190931611A0931711B093181147C0CE
:1034C000E181FF27E7FDF095EB54FF4E8081F80185
:1034D000E80FF11DE80FF11D64817581CE010196A1
:1034E0000E94A77334C08AE1E5EBF0E1A4E8B7E1FC
:1034F00001900D928A95E1F7C12CD12C7601B7018C
:10350000A601F80181810BDF4AE150E065EB70E133
:1035100084E897E10E947973009771F4F8018C2D8B
:1035200092E08902E00DF11D112464817581CE01C4
:1035300001960E94A7730BC0AFEFCA1ADA0AEA0A13
:10354000FA0AB4E0CB16D104E104F104C1F6CE01CD
:1035500001968CDD64960FB6F894DEBF0FBECDBF2A
:10356000DF91CF911F910F91FF90EF90DF90CF905F
:10357000BF9008958F929F92AF92BF92CF92DF92A9
:10358000EF92FF920F931F934A015B01680179014B
:10359000BC0180E090E00E94E2709058A501940187
:1035A0000E941D700E948A70A70196010E944272BB
:1035B0000E94B670CB011F910F91FF90EF90DF90AA
:1035C000CF90BF90AF909F908F9008950F931F93CF
:1035D000809101119091021100E010E42CE135E49A
:1035E00040E050E86BE376E480959095C3DF9093DC
:1035F000B2108093B1101F910F9108950F931F93F4
:10360000CF93DF93EC018A899B8900E01FEF2FE7BE
:1036100037E440E050E26BE476E480959095AADFD1
:10362000AC0160E070E0088C04C0440F551F661FB9
:10363000771F0A94D2F7488759876A877B87DF917B
:10364000CF911F910F910895CF93DF93EC01888D57
:10365000681741F0688FCE01D1DFCE01DF91CF91A5
:103660000C942012DF91CF910895CF93DF93EC015A
:10367000598B488B8A899B896817790749F07B8B1E
:103680006A8BCE01BBDFCE01DF91CF910C9420126B
:10369000DF91CF910895AC01AA27469FB12D579F86
:1036A0009001749FB00D211D3A1F569FB00D211D32
:1036B0003A1F1124C9010895A72F8F3FF9F0282F31
:1036C0002F5F30E0220F331FE82FF0E0EE0FFF1FD7
:1036D000E40FF51F60817181FA01E20FF31F808111
:1036E0009181861B970B892F9927A89F9001A99FED
:1036F000300D1124260F371FC90108952EEF31E038
:10370000E3CF8FBF0895F89481E008958FBF0895A7
:10371000E1E8F7E1A081B1818C93808191810196EC
:10372000918380830895E1E8F7E1A081B1818C93D2
:10373000808191810196918380830895CF93DF9357
:10374000E1E8F5E180E092E0DF019C011D9221506B
:103750003040E1F7F0938217E0938117C3E8D7E197
:1037600084E088830E94B1118881DF91CF91DBCF03
:10377000A1E8B7E1ED91FC91119781939193ED93BD
:10378000FC930895F89481E00895CF93DF93DFB719
:10379000F9DF882309F448C08CE5E5EBF0E1DF01AF
:1037A0001D928A95E9F720E030E83093D4102093F9
:1037B000D3103093DA102093D9104FEF5FEF50936E
:1037C000DE104093DD103093E2102093E11050930F
:1037D000EE104093ED105093D2104093D1103093DF
:1037E000FE102093FD1030930A112093091130939D
:1037F00004112093031185E08093C810C1E0C093A9
:10380000C910C093C210C093C410C093CA1082E004
:103810008093CB1046E050E06FEF70E08BE091E1D9
:103820000E94A073C093B5108D2FDF91CF916ECF02
:10383000CF92DF92EF92FF920F931F93CF93DF937C
:103840001F92CDB7DEB7F82E8B01EFB699839ADFC2
:1038500099818823F1F08F2D0E94B612E1E8F6E1FC
:103860006F0181E895E1C81AD90A82918823C1F3D2
:10387000F092841725E837E1E1E8F5E1A601BF0100
:10388000C9010E9486739FEFC91AD90AF801D18233
:10389000C0828E2D0F90DF91CF911F910F91FF90DD
:1038A000EF90DF90CF9032CF0F931F93CF93DF93A2
:1038B000182FEB010FB766DF811104C0802F26DFC0
:1038C00081E016C0812F992787FD909588539F4FDF
:1038D0000E94B612811108C0802F18DF80E008C056
:1038E0000E94E911899301C011E8115039F3F8CF12
:1038F000DF91CF911F910F9108951F93CF93DF9385
:10390000EC011FB73FDF811104C0812FFFDEC1E052
:103910005EC0CE010E94B612882309F455C01092F1
:10392000C71010920B119FEF90930C1190930D11F3
:1039300090930E1190930F11909310118091831713
:10394000811102C0C1E041C0C0E00E94F211EC2F21
:10395000F0E0EE0FFF1FE153FF4E91838083CF5FB6
:10396000C93199F7D0E00E94E911ED2FF0E0EB5456
:10397000FF4E8083DF5FD731B1F78091C510809310
:10398000CE10809183178230E8F20E94F211EC2F62
:10399000F0E0EE0FFF1FE153FF4E91838083CF5F76
:1039A000CE3199F70E94E9118093CC100E94E91161
:1039B0008093CD10CBE0D1E10E94E911899381E1A0
:1039C000C131D807C9F7A1CFC0E0812F9FDE8C2F6E
:1039D000DF91CF911F9108951F93CF93DF93182FFD
:1039E000DFB7D0DE882309F448C08CE5E5EBF0E1D1
:1039F000DF011D928A95E9F720E030E83093D4107A
:103A00002093D3103093DA102093D9104FEF5FEF4B
:103A10005093DE104093DD103093E2102093E110BC
:103A20005093EE104093ED105093D2104093D1106C
:103A30003093FE102093FD1030930A11209309114A
:103A4000309304112093031185E08093C810C1E0E6
:103A5000C093C910C093C210C093C410C093CA10C1
:103A600082E08093CB1046E050E06FEF70E08BE097
:103A700091E10E94A073111105C08D2FDF91CF91AC
:103A80001F9144CEC093B510F8CFFF920F931F93B0
:103A9000CF93DF93FFB676DE811104C08F2D36DE23
:103AA000C1E064C062E08CED90E00E94DD128823EA
:103AB00009F459C08FE38093481210924A12809102
:103AC0008317882319F0C1E2D1E113C0C1E04CC0D3
:103AD0000E94F211FE01E00FF11F918380830E5FBF
:103AE0001F4F04321105A1F7A49682E1C134D80713
:103AF00019F000E010E0ECCF0E94F2119093441214
:103B0000809343120E94F2119093421280934112CB
:103B10000E94E911809345120E94E01180934612A1
:103B200080918317823090F20E94E91180934812AD
:103B30000E94E0118093471280918317833030F206
:103B40000E94E9118093491280918317843008F410
:103B5000BDCF0E94E01180934A1280918317853077
:103B600008F09CCFB3CFC0E08F2DD0DD8C2FDF913C
:103B7000CF911F910F91FF900895833061F08931AB
:103B800051F08F3141F091E08F3019F0803109F020
:103B900090E0892F089591E0892F0895BF92CF92E8
:103BA000DF92EF92FF920F931F93CF93DF931092C8
:103BB0007D14C0E0D0E0B4E2BB2E0CC001931193A1
:103BC00013870287778B668B8150C1F72196C830A7
:103BD000D10591F16C2F772767FD7095872F972F6F
:103BE0000E94E4706B017C012CE83EE24AEB55E454
:103BF0000E94427220E030E44CE955E40E94B66F26
:103C00000E94B6708B012CE83EE24AE355E4C701FE
:103C1000B6010E94427220E030E44CE156E40E947A
:103C2000B66F0E94B670BC9EF001BD9EF00D1124CF
:103C3000EF5DFE4E86E0C2CFDF91CF911F910F91D5
:103C4000FF90EF90DF90CF90BF900895CF93CFB7C4
:103C500099DD8823B1F02AE231E0E1E2F1E1DF0110
:103C6000C9011D920197E9F720E030E83093421234
:103C7000209341128FEF809346128FE38093481276
:103C80008DDF8C2FCF9142CD8FBF0895ECE7F4E10B
:103C900080818F5F80830895F89481E00895CF93A9
:103CA000DF93EC016A8F88819981AA81BB81892B7E
:103CB0008A2B8B2B51F46091960970919709809112
:103CC0009809909199090E9407740E94047468836E
:103CD00079838A839B83DF91CF9108950F931F93FC
:103CE000CF93DF93FC018BE1DF011D928A95E9F709
:103CF0000CE612E160E070E080E89FEBC0E0D0E00D
:103D00001BC0BE01882777FD8095982F0E94E47024
:103D100021E830E840E85BE30E94427220E030E0B6
:103D200040E85FE30E94B66F2BED3FE049E450E4CA
:103D30000E9442720E941A7020E030E040E85FE387
:103D40000E94B66F20E03FEF4FEF56E40E944272B0
:103D50000E94B670F801619371938F012196C1158D
:103D6000F1E0DF0771F6DF91CF911F910F91089578
:103D70000F931F93082F10E0F801E45BFE4F84912E
:103D8000F801E45BFD4F9491F801E45BFC4F049172
:103D900010E020E030E0980111270027192B082BB4
:103DA000B801C9011F910F9108951092250A109230
:103DB000260A1092220A1092210A1092240A1092C6
:103DC000230A10922B0A089536EC20EE97E0A0E823
:103DD000F7E4E7EE77EF62EE5FB7F89431BB469A0F
:103DE00027B99AB92DB915B8A8B99BB91EB8F1BBB6
:103DF00042E04A95F1F700C046B1B9B1BCB131BB60
:103E0000479AE7B97AB96DB95FBF55E05A95F1F7AE
:103E1000000042FFE1CF5FB7F89496EC91BB469A61
:103E2000382F330F982F9695232F26702068482F10
:103E3000441F4427441F242B80718360432F440F69
:103E40004072842B307C832B9270906215B828B915
:103E50008BB99EB987E881BB85E08A95F1F70000B0
:103E60005FBF0895CF93882339F18091270A8F5F30
:103E70008093270A853148F081E09091280A9111BA
:103E8000CDC08093280A1092270AC0912B0AC11135
:103E900079C05091250A9091260AE0912C0AE130D0
:103EA00009F4DEC008F4AFC0E23009F4C4C020E079
:103EB000F0E0EF5DF54F2487AFB7F89456EC51BBB7
:103EC000469A41E045B980E488B91BB880E28EB9D2
:103ED00037E831BB00C000C080E190E000902C0AC0
:103EE00002C0880F991F0A94E2F7282F51BB469A07
:103EF000782F770F682F6695221F2227221F972F72
:103F00009670292B20648071972F990F9072982BAF
:103F1000707C972B627045B928B99BB96EB931BBDB
:103F200000C000C0E0912C0AF0E0EF5DF54F848501
:103F300051BB469A582F550F982F9695252F2670CE
:103F40002064682F661F6627661F262B682F607106
:103F5000852F880F8072862B507C852B9270906203
:103F600045B928B98BB99EB931BBAFBF80912C0A36
:103F700090E0019663E070E00E94A26F80932C0AAB
:103F8000CF9108954091290A4F5F4093290AE0E3B9
:103F9000FAE001900020E9F7E153FA4020912A0A63
:103FA000332727FD3095C90101966E2F772767FDCE
:103FB00070950E94A26FF901EF5DF54F278530E003
:103FC0002038310588F15FEFE82FFF27E7FDF095F6
:103FD000EF5DF54F278530E02038310550F5F901C8
:103FE000E45EFE4F9081403108F457CF80932A0A57
:103FF0001092290A811151CF1C160CF04ECFC150DE
:10400000C0932B0A4ACF2091210A8091280A882345
:1040100009F44ECF8091230A28274ACF80E080936D
:10402000280A1092270A31CFF901E45EFE4F508131
:10403000CBCF9FEFD8CF292F2F778091210A909156
:10404000220A90FD20688091230A9091240A90FF13
:104050002FCF8091280A882309F42ACF205828CF0F
:10406000252F2F778091210A9091220A91FD2068B7
:104070008091230A9091240A91FF1ACFEACF86EC0F
:1040800081BB469A15B896E898B993E09BB91EB8DB
:1040900097E891BBEFE9FFE03197F1F700C000002E
:1040A00081BB469A15B823E828B923E12BB922E051
:1040B0002EB991BBFAE0FA95F1F700C081BB469AA0
:1040C00020EE27B997E09AB92DB915B820E828B99C
:1040D0009BB91EB897E491BB92E09A95F1F700C0A6
:1040E00096B199B19CB181BB479A87EE87B987EFAA
:1040F0008AB982EE8DB9EAE0EA95F1F700C0089539
:1041000026EC90EE87E0F0E8E7E477EE67EF52EE1A
:104110004FB7F89421BB469A97B98AB99DB915B89B
:10412000F8B98BB91EB8E1BB32E03A95F1F700C09F
:1041300036B1A9B1ACB121BB479A77B96AB95DB9BB
:104140004FBF45E04A95F1F7000032FFE1CF8FB74E
:10415000F89496EC91BB469A15B891E898B993ED0E
:104160009BB990E29EB997E891BB95E09A95F1F7DB
:1041700000008FBF08952F923F924F925F926F92EF
:104180007F928F929F92AF92BF92CF92DF92EF92E7
:10419000FF920F931F93CF93DF93CDB7DEB728978E
:1041A0000FB6F894DEBF0FBECDBF8D832FB72E8321
:1041B000F894282F259525952595259580E290E062
:1041C00002C0959587952A95E2F79D819F70982B5F
:1041D00086EC81BB469A492F440F292F2695392F0B
:1041E000331F3327331F842F8670382B3064907130
:1041F000842F880F8072892B407C842B227020644E
:1042000091E095B938B98BB92EB987E881BB35E013
:104210003A95F1F700002D81332727FD30953A8339
:104220002983F901E852F94FC080D12C80E190E058
:104230008C199D092FEF3FEF082E02C03695279568
:104240000A94E2F702C0220F331F8A95E2F73C83FB
:104250002B83E12CF12C00E010E82FEF3FEF56EC20
:10426000A52E60EEB62E77E0272E33243394E0E4BB
:104270004E2EF0E25F2EA7E46A2EB7EE7B2E87EF7C
:10428000882E92EE992E0AC0200F311F16950795A1
:10429000AFEFEA1AFA0ACE14DF0434F1C9012F8312
:1042A00038870E94581382E08A95F1F700C0A1BABE
:1042B000469AB7B82AB8BDB835B848B81BB85EB882
:1042C00061BA92E09A95F1F700C086B189B19CB1CC
:1042D000A1BA479A77B88AB89DB82F81388585FDED
:1042E000D3CF201B310BD2CF86EC81BB469A81E025
:1042F00085B987E488B980EF8BB982E48EB987E805
:1043000081BBB5E0BA95F1F70000EB81FC812E236B
:104310003F23E981FA81EE0FFF1FE751F44F31830C
:104320002083232F3327E981FA81EB53F44F8481D3
:1043300090E0821B930B97FD1DC0059704F53E810D
:104340003FBF28960FB6F894DEBF0FBECDBFDF91FA
:10435000CF911F910F91FF90EF90DF90CF90BF9082
:10436000AF909F908F907F906F905F904F903F9015
:104370002F900895919581959109059704F32483D1
:1043800081E090E0A0E0B0E00D8004C0880F991FAC
:10439000AA1FBB1F0A94D2F74091C50B5091C60BC0
:1043A0006091C70B7091C80B842B952BA62BB72B54
:1043B0008093C50B9093C60BA093C70BB093C80B0B
:1043C0002D8120932A0CBBCFCF92DF92EF92FF92E8
:1043D000CF939091B7102091BA10992309F494C00B
:1043E0004091D3105091D41060E070E0222309F482
:1043F00085C0C090D910D090DA10E12CF12C882320
:10440000A1F0992381F08091C01085FD0CC08091AE
:10441000181090911910AA2797FDA095BA2F480F50
:10442000591F6A1F7B1F211174C0CFB7F894411523
:10443000510521E06207710524F04FEF5FEF60E066
:1044400070E0DB01CA0177FD79C00E94581346EC89
:1044500041BB469A31E035B921E428B950EF5BB948
:1044600092EA9EB987E881BB00C000C041BB469A72
:1044700035B928B960E76BB99EB981BB00C000C0EF
:1044800041BB469A35B928B95BB99EB981BBD70102
:10449000C601C114D10421E0E206F10424F08FEF3B
:1044A0009FEFA0E0B0E0B7FD45C00E94581346EC76
:1044B00041BB469A31E035B927E428B950EF5BB9E2
:1044C00092EA9EB987E881BB00C000C041BB469A12
:1044D00035B928B960E76BB99EB981BB00C000C08F
:1044E00041BB469A35B928B95BB99EB981BBCFBFEC
:1044F000CF91FF90EF90DF90CF900895CC24CA9495
:10450000DC2CE12CF12C7BCF4FEF5FEF60E070E013
:104510006DCF8091C01084FD88CF8091181090914C
:104520001910AA2797FDA095BA2FC80ED91EEA1E0A
:10453000FB1E7BCF80E090E0DC01B7CF80E090E015
:10454000DC0183CF809590917B14892380937B1429
:1045500096EC91BB469A482F440F282F2695382F6A
:10456000331F3327331F942F9670392B306480719B
:10457000942F990F9072982B407C942B2270206C72
:1045800081E085B938B99BB92EB987E881BB85E050
:104590008A95F1F7000080917A148F5F80937A14E6
:1045A000089580917B14806180937B1496EC91BB7D
:1045B000469A382F330F982F9695282F221F22279F
:1045C000221F832F8670282B2064832F880F8072F0
:1045D0008061307C832B9270906C31E035B928B9C2
:1045E0008BB99EB987E881BB85E08A95F1F7000019
:1045F00080917A148F5F80937A14089580917B1450
:1046000081608F7E80937B1496EC91BB469A382F05
:10461000330F982F9695881F8827881F232F267081
:10462000822B8064232F220F2072307C232B9270E8
:10463000906C31E035B988B92BB99EB987E881BB58
:1046400085E08A95F1F7000080917A148F5F80935E
:104650007A14089530917B14832F88608E7F809325
:104660007B1496EC91BB469A282F220F982F969593
:10467000881F8827881F422F4670842B8064207CE7
:1046800030713062232B9270906C31E035B988B96B
:104690002BB99EB987E881BB85E08A95F1F70000C8
:1046A00080917A148F5F80937A14089540917B14DF
:1046B000242F226020937B1486EC81BB469A322FF4
:1046C000330F922F9695221F2227221F832F867049
:1046D000282B2064832F880F80724071842B307CBC
:1046E000832B9270906C31E035B928B98BB99EB9A3
:1046F00087E881BB85E08A95F1F7000080917A1404
:104700008F5F80937A14089590916F0C977F811139
:10471000986090936F0C4FB7F89480916F0C96EC63
:1047200091BB469A382F330F982F9695232F2670DA
:104730002064582F551F5527551F252B582F507172
:10474000832F880F8072852B307C832B927090662C
:1047500031E035B928B98BB99EB987E881BB4FBF25
:104760000895E82FF0E0EE0FFF1FE15DF34F718336
:1047700060830895E82FF0E0EE0FFF1FE15DF34F37
:10478000118210820895E82FF0E0EE0FFF1FE15D27
:10479000F34F8FEF9FEF91838083089560FD05C0F5
:1047A00090936C0C80936B0C0895BC018EE10C947B
:1047B0009B1360FD05C09093620C8093610C08957B
:1047C000BC0189E10C949B1360FD05C090936A0CB9
:1047D0008093690C0895BC018DE10C949B13FC013E
:1047E000623009F43BC018F1633069F1643011F5AF
:1047F00011A210A2268D378D46895789AA27249F9A
:10480000B12D359FC001529FB00D811D9A1F349F5D
:10481000B00D811D9A1F112482A393A34089518951
:104820006289738940835183628373830895613001
:1048300009F443C011A210A213A212A21082118285
:1048400012821382089511A210A28689978993A3D8
:1048500082A31082118212821382089526893789D9
:1048600044895589AA27429FB12D539FC001349F87
:10487000B00D811D9A1F529FB00D811D9A1F1124EA
:1048800080A391A340955095AA27429FB12D539F95
:10489000C001349FB00D811D9A1F529FB00D811D24
:1048A0009A1F112482A393A3448555856685778535
:1048B0004083518362837383089526893789468DA7
:1048C000578DAA27429FB12D539FC001349FB00D31
:1048D000811D9A1F529FB00D811D9A1F112480A324
:1048E00091A340955095AA27429FB12D539FC00197
:1048F000349FB00D811D9A1F529FB00D811D9A1FCC
:10490000112482A393A340855185628573854083DA
:104910005183628373830895FC0111A210A2268D36
:10492000378D46895789AA27249FB12D359FC0010D
:10493000529FB00D811D9A1F349FB00D811D9A1F8B
:10494000112482A393A3408951896289738940838A
:1049500051836283738308951F93CF93DF93EC0198
:10496000898D06DA18A5012E04C09695879577954E
:1049700067950A94D2F724E0660F771F881F991F66
:104980002A95D1F7688779878A879B878B8DF0D99D
:10499000012E04C096958795779567950A94D2F76E
:1049A00034E0660F771F881F991F3A95D1F76C87FF
:1049B0007D878E879F878D8DDBD904C096958795DF
:1049C000779567951A95D2F744E0660F771F881F91
:1049D000991F4A95D1F7688B798B8A8B9B8B69A538
:1049E000CE01DF91CF911F91FACEFC012689378944
:1049F0002617370719F0778B668BAECF08950F9384
:104A00001F93FC01808D918D8617970721F0718F80
:104A1000608F61E001C060E0828D938D84179507FF
:104A200019F0538F428F61E084899589821793072B
:104A300019F0358B248B61E0848D958D801791075B
:104A400019F0158F048F02C0662321F0CF011F914A
:104A50000F9182CF1F910F910895FC0160A77CCF29
:104A60008091461287FD09C06F7070E0992787FD1D
:104A700090956817790709F0089580E8289F9001BC
:104A80001124242B3052220F331F220F331F309357
:104A90008310209382100E943A166FEF81E00C94ED
:104AA0006435FF920F931F93CF93DF93EC01F62EA3
:104AB0001C821D821E821F820E891F896CA17DA10E
:104AC000CB01A0E0B0E077276627980140E050E0F6
:104AD0000E948A743F8F2E8FF11023C084E089A733
:104AE00019A218A2AA27209FB12D319FC001129FA1
:104AF000B00D811D9A1F309FB00D811D9A1F11248A
:104B00008AA39BA388899989AA89BB898883998369
:104B1000AA83BB83FFA2DF91CF911F910F91FF90DA
:104B2000089581E089A7CE010E947D32FFA2DF9126
:104B3000CF911F910F91FF9008950F931F93CF93E3
:104B4000DF938B014091FF1050910011AA27049F21
:104B5000B12D159FB001509FB00D611D7A1F149F9C
:104B6000B00D611D7A1F112440955095640F751F7B
:104B70009AE28902E0011124CE01865F914F35DF70
:104B80004091FD105091FE10AA27049FB12D159F52
:104B9000B001509FB00D611D7A1F149FB00D611DB3
:104BA0007A1F112440955095640F751FCE018A5FBE
:104BB000904FDF91CF911F910F9117CFAF92BF927E
:104BC000CF92DF92EF92FF920F931F93CF93DF93D9
:104BD0001F92CDB7DEB7F82E8B0149830E948E302D
:104BE0006F2D81E00E9464354981442329F0809132
:104BF000FA0C882309F447C08F2D9AE289026001DC
:104C000011247AE0A72E7EE0B72EAC0CBD1CF50176
:104C1000148215821682178264A175A1CB01A0E0CF
:104C2000B0E0772766272689378940E050E00E9468
:104C30008A74F501378F268FEE24E394E1A6C5012F
:104C40000E947D32F501E7A286E09FE0C80ED91EE2
:104C5000F601148215821682178264A175A1CB0118
:104C6000A0E0B0E0772766272689378940E050E04A
:104C70000E948A74F601378F268FE1A6C6010E9432
:104C80007D32F601E7A2B8018F2D0F90DF91CF9111
:104C90001F910F91FF90EF90DF90CF90BF90AF905A
:104CA0004CCF2F923F924F925F926F927F928F9252
:104CB0009F92AF92BF92CF92DF92EF92FF920F93AB
:104CC0001F93CF93DF93CDB7DEB72C970FB6F89431
:104CD000DEBF0FBECDBFE090ED10F090EE10209043
:104CE000E5103090E6108091C41080932C0F8091D5
:104CF000C2108093300E8091CE10882309F4D2C464
:104D000063E086E09FE0A9DE8091C310882309F468
:104D1000C7C463E08AE09EE0A0DE80914A12882347
:104D200009F4BAC480E091E0A0E0B0E02091F11075
:104D30003091F2102C013D01420E531E611C711C7A
:104D40002091EF103091F010AC01BD01420F531FC4
:104D5000611D711D2091EB103091EC105C016D0113
:104D6000A20EB31EC11CD11CA982BA82CB82DC82E6
:104D70002091E9103091EA105C016D01A20EB31E82
:104D8000C11CD11CAD82BE82CF82D8862091E71093
:104D90003091E8105C016D01A20EB31EC11CD11C44
:104DA000A986BA86CB86DC862091E3103091E41088
:104DB0004C015D01820E931EA11CB11C09811A8158
:104DC0002B813C810115110581E02807310524F074
:104DD0000FEF1FEF20E030E041155105E1E06E07D5
:104DE000710524F04FEF5FEF60E070E04114510473
:104DF000F1E06F0671042CF044244A94542C612C89
:104E0000712C9701B20186E09FE0F9DD95018401E4
:104E10008114910441E0A406B10424F00FEF1FEFC8
:104E200020E030E049845A846B847C84411451042E
:104E300081E0680671042CF044244A94542C612CBF
:104E4000712C6D817E818F81988561157105E1E0FE
:104E50008E07910524F06FEF7FEF80E090E09101E5
:104E6000A2018AE09EE0CBDD8091C4108093560FB2
:104E70008091C21080935A0E8091CE10882309F43D
:104E800009C463E080E39FE0E8DD8091C3108823DC
:104E900009F4FEC363E084E39EE0DFDD80914A1203
:104EA000882309F4F1C380E09FEFAFEFBFEF2091BB
:104EB000F1103091F2102C013D01420E531E611C85
:104EC000711C77FCF1C32091EF103091F010AC0110
:104ED000BD01420F531F611D711D77FD2FC420912D
:104EE000EB103091EC105C016D01A20EB31EC11CE1
:104EF000D11C96018501D7FC1DC48090E9109090CB
:104F0000EA105C016D01A80CB91CC11CD11CA9825E
:104F1000BA82CB82DC82D7FC08C48090E7109090E4
:104F2000E8105C016D01A80CB91CC11CD11CAD823C
:104F3000BE82CF82D886D7FCF3C3E091E310F09114
:104F4000E4104C015D018E0E9F1EA11CB11CB7FC2C
:104F5000E3C30115110581E02807310524F00FEFA7
:104F60001FEF20E030E041155105E1E06E077105CB
:104F700024F04FEF5FEF60E070E041145104F1E086
:104F80006F0671042CF044244A94542C612C712C2B
:104F90009701B20180E39FE032DD95018401811425
:104FA000910441E0A406B10424F00FEF1FEF20E0CC
:104FB00030E04D805E806F8078844114510481E040
:104FC000680671042CF044244A94542C612C712CF2
:104FD00069817A818B819C8161157105E1E08E0781
:104FE000910524F06FEF7FEF80E090E09101A20146
:104FF00084E39EE004DD8091C4108093800F809153
:10500000C2108093840E8091CE10882309F43AC395
:1050100063E08AE59FE021DD8091C310882309F4D5
:105020002FC363E08EE59EE018DD80914A1288234D
:1050300009F422C380E092E0A0E0B0E02091F110FA
:105040003091F2102C013D01420E531E611C711C67
:105050002091EF103091F010AC01BD01420F531FB1
:10506000611D711D2091EB103091EC105C016D0100
:10507000A20EB31EC11CD11CA982BA82CB82DC82D3
:105080002091E9103091EA105C016D01A20EB31E6F
:10509000C11CD11CAD82BE82CF82D8862091E71080
:1050A0003091E8105C016D01A20EB31EC11CD11C31
:1050B000A986BA86CB86DC862091E3103091E41075
:1050C0004C015D01820E931EA11CB11C09811A8145
:1050D0002B813C810115110581E02807310524F061
:1050E0000FEF1FEF20E030E041155105E1E06E07C2
:1050F000710524F04FEF5FEF60E070E04114510460
:10510000F1E06F0671042CF044244A94542C612C75
:10511000712C9701B2018AE59FE071DC9501840151
:105120008114910441E0A406B10424F00FEF1FEFB5
:1051300020E030E049845A846B847C84411451041B
:1051400081E0680671042CF044244A94542C612CAC
:10515000712C6D817E818F81988561157105E1E0EB
:105160008E07910524F06FEF7FEF80E090E09101D2
:10517000A2018EE59EE043DC8091C4108093AA0FCB
:105180008091C2108093AE0E8091CE10882309F4D6
:1051900071C263E084E89FE060DC8091C3108823E3
:1051A00009F466C263E088E89EE057DC80914A1209
:1051B000882309F459C280E09EEFAFEFBFEF209142
:1051C000F1103091F2102C013D01420E531E611C72
:1051D000711C77FC9DC22091EF103091F010AC0152
:1051E000BD01420F531F611D711D77FD8DC22091BE
:1051F000EB103091EC105C016D01A20EB31EC11CCE
:10520000D11C96018501D7FC7BC28090E91090905B
:10521000EA105C016D01A80CB91CC11CD11CA9824B
:10522000BA82CB82DC82D7FC66C28090E710909075
:10523000E8105C016D01A80CB91CC11CD11CAD8229
:10524000BE82CF82D886D7FC51C2E091E310F091A4
:10525000E4104C015D018E0E9F1EA11CB11CB7FC19
:1052600041C20115110581E02807310524F00FEF37
:105270001FEF20E030E041155105E1E06E077105B8
:1052800024F04FEF5FEF60E070E041145104F1E073
:105290006F0671042CF044244A94542C612C712C18
:1052A0009701B20184E89FE0AADB95018401811493
:1052B000910441E0A406B10424F00FEF1FEF20E0B9
:1052C00030E04D805E806F8078844114510481E02D
:1052D000680671042CF044244A94542C612C712CDF
:1052E00069817A818B819C8161157105E1E08E076E
:1052F000910524F06FEF7FEF80E090E09101A20133
:1053000088E89EE07CDB8091C4108093D40F80916C
:10531000C2108093D80E8091CE10882309F4A2C1C8
:1053200063E08EEA9FE099DB8091C310882309F443
:1053300097C163E082EB9EE090DB80914A12882364
:1053400009F48AC180E093E0A0E0B0E02091F11080
:105350003091F2102C013D01420E531E611C711C54
:105360002091EF103091F010AC01BD01420F531F9E
:10537000611D711D2091EB103091EC105C016D01ED
:10538000A20EB31EC11CD11CA982BA82CB82DC82C0
:105390002091E9103091EA105C016D01A20EB31E5C
:1053A000C11CD11CAD82BE82CF82D8862091E7106D
:1053B0003091E8105C016D01A20EB31EC11CD11C1E
:1053C000A986BA86CB86DC862091E3103091E41062
:1053D0004C015D01820E931EA11CB11C09811A8132
:1053E0002B813C810115110581E02807310524F04E
:1053F0000FEF1FEF20E030E041155105E1E06E07AF
:10540000710524F04FEF5FEF60E070E0411451044C
:10541000F1E06F0671042CF044244A94542C612C62
:10542000712C9701B2018EEA9FE0E9DA95018401BF
:105430008114910441E0A406B10424F00FEF1FEFA2
:1054400020E030E049845A846B847C844114510408
:1054500081E0680671042CF044244A94542C612C99
:10546000712C6D817E818F81988561157105E1E0D8
:105470008E07910524F06FEF7FEF80E090E09101BF
:10548000A20182EB9EE0BBDA8091C4108093FE0FF4
:105490008091C2108093020F8091CE10882309F46E
:1054A000D9C063E088ED9FE0D8DA8091C3108823EB
:1054B00009F4CEC063E08CED9EE0CFDA80914A1211
:1054C000882309F4C1C080E09DEFAFEFBFEF2091CA
:1054D000F1103091F2102C013D01420E531E611C5F
:1054E000711C77FCFBC02091EF103091F010AC01E3
:1054F000BD01420F531F611D711D77FDEBC020914F
:10550000EB103091EC105C016D01A20EB31EC11CBA
:10551000D11C96018501D7FCD9C08090E9109090EC
:10552000EA105C016D01A80CB91CC11CD11CA98238
:10553000BA82CB82DC82D7FCC4C08090E710909006
:10554000E8105C016D01A80CB91CC11CD11CAD8216
:10555000BE82CF82D886D7FCAFC0E091E310F09135
:10556000E4104C015D018E0E9F1EA11CB11CB7FC06
:105570009FC00115110581E02807310524F00FEFC8
:105580001FEF20E030E041155105E1E06E077105A5
:1055900024F04FEF5FEF60E070E041145104F1E060
:1055A0006F0671042CF044244A94542C612C712C05
:1055B0009701B20188ED9FE022DA95018401811400
:1055C000910441E0A406B10424F00FEF1FEF20E0A6
:1055D00030E04D805E806F8078844114510481E01A
:1055E000680671042CF044244A94542C612C712CCC
:1055F00069817A818B819C8161157105E1E08E075B
:10560000910524F06FEF7FEF80E090E09101A2011F
:105610008CED9EE0F4D92C960FB6F894DEBF0FBE49
:10562000CDBFDF91CF911F910F91FF90EF90DF9051
:10563000CF90BF90AF909F908F907F906F905F9032
:105640004F903F902F90089580E090E0DC013FCF95
:1056500061E031CF61E026CF80E090E0DC0176CEE2
:1056600061E068CE61E05DCE80E090E0DC01A7CD36
:1056700061E099CD61E08ECD80E090E0DC01DECC90
:1056800061E0D0CC61E0C5CC80E090E0DC010FCCE3
:1056900061E001CC61E0F6CB80E090E0DC0146CB3C
:1056A00061E038CB61E02DCB412C512C32010BCC89
:1056B000812C912C54015DCF1D821E821F82188681
:1056C0004CCF19821A821B821C8237CF00E010E077
:1056D000980123CF40E050E0BA0111CF412C512C6A
:1056E000320101CF812C912C5401BBCD1D821E8231
:1056F0001F821886AACD19821A821B821C8295CD20
:1057000000E010E0980181CD40E050E0BA016FCD9B
:10571000412C512C32015FCD812C912C540119CC9C
:105720001D821E821F82188608CC19821A821B8253
:105730001C82F3CB00E010E09801DFCB40E050E0AA
:10574000BA01CDCB211107C0BB27A92F982F872FD6
:10575000BC01CB010895A72FE82F8F3FE9F08F5FA1
:1057600090E0880F991FF0E0EE0FFF1FE40FF51F88
:1057700020813181FA01E80FF91F80819181821B1C
:10578000930B892F9927A89FB001A99F700D112411
:10579000620F731FCB0108958EEF91E0E4CFFC01FF
:1057A000148215821682178210821182128213824D
:1057B00081A58F5F81A7833009F43BC0853009F450
:1057C00034C0823009F008952689378935A324A38F
:1057D00044895589AA27429FB12D539FC001349F08
:1057E000B00D811D9A1F529FB00D811D9A1F11246B
:1057F00080A391A340955095AA27429FB12D539F16
:10580000C001349FB00D811D9A1F529FB00D811DA4
:105810009A1F112482A393A34485558566857785B5
:105820004083518362837383089511A615A214A245
:10583000089511A210A28689978993A382A308953F
:10584000CF92DF92EF92FF92CF93DF93EC01CC8067
:10585000DD80EE80FF808F2D9927AA27BB27892B1B
:105860008A2B8B2B09F042C089A5823009F433C002
:1058700070F5813009F444C040E050E02AA13BA11A
:10588000AA27429FB12D539FC001349FB00D811DA7
:105890009A1F529FB00D811D9A1F112428A139A172
:1058A000820F931F9DA38CA3488159816A817B81BC
:1058B0004C0D5D1D6E1D7F1D4C835D836E837F834C
:1058C000DF91CF91FF90EF90DF90CF9008958330DC
:1058D000A1F0843089F68EA1811122C0BB27AF2DA3
:1058E0009E2D8D2DAC0140955095C8CFCE0157DF30
:1058F000CC80DD80EE80FF80B7CF4C895D89BECF44
:105900008EA1811105C077276F2D5E2D4D2DB6CF4D
:1059100040EA53E0C701B6010E945C1BAC01AECF68
:1059200040EA51E0C701B6010E945C1BDBCF8F92B9
:105930009F92AF92BF92CF92DF92EF92FF920F931E
:105940001F93CF93DF93EC010C811D812E813F814A
:10595000832F9927AA27BB27892B8A2B8B2B09F00A
:1059600054C04A8D6C857D858E859F85433009F4B2
:1059700073C008F02FC0413009F4B7C0EC89FD892D
:10598000060F171F281F391F0C831D832E833F838B
:105990009F01305848895989AA27249FB12D350382
:1059A000C001529FB00D811D9A1F34039A0BB00D98
:1059B000811D9A1F11248E8B9F8BDF91CF911F9198
:1059C0000F91FF90EF90DF90CF90BF90AF909F909E
:1059D0008F900895443009F463C0453009F0CECF6C
:1059E00068017901A9E0F694E794D794C794AA9541
:1059F000D1F7F601DD8ACC8A498D442309F4C0CF62
:105A0000E095F095FD8BEC8BBBCFE1E0898DE81B39
:105A1000E98FE11172C0C12CD12C7601CC82DD82DC
:105A2000EE82FF82FF27E1950CF4F095DF01AA0FCB
:105A3000BB1F1196288539854A855B850E9449746C
:105A40006C877D878E879F874A8D41115CC0FD8B57
:105A5000EC8B9701860192CFF12EE22F2F3F09F4B4
:105A600065C0422F4F5F50E0440F551FF0E0EE0F2E
:105A7000FF1FE459FD4EA081B181FA01E459FD4EAA
:105A8000408151814A1B5B0B452F5527F49EF00145
:105A9000F59EF00D1124EA0FFB1FFD8BEC8B70CFF0
:105AA0004B8942954F7088809980AA80BB80FB2DDE
:105AB000880C991CAA1CBB1CEF2FEE1FEE27EE1FB3
:105AC000EF2EE294E69457E0E522EE25EF27F695D7
:105AD000EF27E1708E2A415050F788829982AA827E
