:100000004BC0000042C2000040C200003EC20000DF
:100010003CC200000C94795B38C2000036C200007C
:1000200034C2000032C200000C946F5B0C94655B1C
:100030002CC200002AC2000028C2000026C2000014
:1000400024C2000022C2000020C200001EC2000024
:100050001CC200000C94455C18C2000016C20000CF
:1000600014C2000012C2000010C200000EC2000044
:100070000CC200000AC2000008C2000006C2000054
:1000800004C2000002C2000000C20000FEC1000065
:10009000FCC10000FAC1000011241FBECFEFD0E266
:1000A000DEBFCDBF0E9400F0D7C10000076342361B
:1000B000B79BD8A71A39685618AEBAAB558C1D3CF9
:1000C000B7CC5763BD6DEDFD753EF6177231BF00BD
:1000D0000000803F05A84CCDB2D44EB93836A902F5
:1000E0000C50B9918688083CA6AAAA2ABE00000036
:1000F000803F08000000BE922449123EABAAAA2A03
:10010000BECDCCCC4C3E00000080BEABAAAAAA3E1D
:1001100000000000BF000000803F00000000000859
:100120004178D3BB4387D1133D190E3CC3BD4282F6
:10013000AD2B3E68EC8276BED98FE1A93E4C80EFB4
:10014000FFBE01C4FF7F3F0000000000FF004C8A9B
:1001500097509545406BA6D8E4B2282EAE90BF26A6
:10016000B14EE86FD0FBE0709A51862C379845323B
:10017000539D06840D971A8CE61E2E0DB41D401655
:100180009AC591F9F786A142660620AFAE19EE270F
:10019000C2BB0EBAB90AAA95CA45040444C1796A19
:1001A00091EE7D3E2E4C960BA96E5A6A9FF56D0519
:1001B000BB8F808DB4F54FC14AE99E674536394FF4
:1001C00075ADF44CB227A939D78036F7C49C7E6A46
:1001D000605F677992B4DD0E4786CD1A6DC6258AB9
:1001E000F464D953D154DB67F78B22BD5CFEA44D78
:1001F000F9A7590EC57E3BF9BA7D430AD39F6C3BE4
:100200000BDEB2875E3710ECC8A6856546290CF177
:10021000D6BCA38C755E4934200DFAE9D7C7B6A7C2
:10022000988A7C6E6155493D32271D1209FFF6EE12
:10023000E5DDD5CEC6BFB9B2ACA6A09A958F8A85AA
:10024000817C78736F6B6864605D5A56FF59E97DF5
:1002500015B150F39942EE9D4F04BC7632F1B2765F
:100260003B03CC98653405D8AC8259320CE7C4A264
:100270008161432509EDD3B9A089725C46321E0B1A
:10028000F8E6D5C4B4A596887A6D6053473C30260D
:100290001B1108FEF5EDE4DCD4CDC6BFB8B1ABA5AB
:1002A0009F99948F8A85807C77736F6B6763605D9D
:1002B000595653504D4A484543403E3C3A383634EF
:1002C00032302E2D2B2A282725242321201F1E1DC6
:1002D0001C1B1A19181716161514131312111110C6
:1002E0000F0F0E0E0D0D0C0C0B0B0B0A0A09090952
:1002F0000808080807070706060606060505050597
:1003000005040404040404030303030303030302B6
:1003100002020202020202020202010101010101C3
:1003200001010101010101010101010101000000C0
:1003300000000000000000000000000000000000BD
:10034000000000000000000000000000FF0C0B0B8C
:100350000B0A0A090909080808080707070606061C
:100360000606050505050504040404040403030347
:100370000303030303020202020202020202020258
:10038000010101010101010101010101010101015D
:10039000010101000000000000000000000000005A
:1003A000000000000000000000000000000000004D
:1003B000000000000000000000000000000000003D
:1003C000000000000000000000000000000000002D
:1003D000000000000000000000000000000000001D
:1003E000000000000000000000000000000000000D
:1003F00000000000000000000000000000000000FD
:1004000000000000000000000000000000000000EC
:1004100000000000000000000000000000000000DC
:1004200000000000000000000000000000000000CC
:1004300000000000000000000000000000000000BC
:1004400000000000000000000000000011241FBE9A
:10045000CFEFD0E2DEBFCDBF17E1A4E4B9E001C029
:100460001D92A336B107E1F719E0A0E0B1E0E4E1A5
:10047000F0ED00E00BBF02C007900D92A434B1076D
:10048000D9F70E947E5C0C940868BACD2F923F92F7
:100490004F925F926F927F928F929F92AF92BF9294
:1004A000CF92DF92EF92FF920F931F93CF93DF9340
:1004B00000D000D0CDB7DEB787E19DE00E94F128E3
:1004C0000091480D1091490D1C830B832091D40D90
:1004D00020FF1BC025FD02C00C940E100B811C8157
:1004E0001A83098324FD13C080912D0D90912E0D48
:1004F000959587954B815C81480F591F5C834B8391
:1005000021FD07C0C12CD12C08C01A83098321FF0B
:10051000F9CFC0902D0DD0902E0D8091F40D9091BB
:10052000F50DA0E0B0E09058A109B1097C018091DF
:10053000D00D882311F40C940A108091060E90912E
:10054000070EA0E0B0E09058A109B109B7FF02C0C2
:100550000C947012B595A795979587955C019FB6F9
:10056000F8948091B209882311F40C94820F8FE1E2
:100570009BE00E945D282090430B3090440B298122
:100580003A812901662457FC6094762C4B815C816A
:10059000CA01AA2797FDA095BA2F4091590D5091F5
:1005A0005A0D840F951FA11DB11DB7FF02C00C94F9
:1005B000F20F009751E0A507B10524F08FEF9FEFF0
:1005C000A0E0B0E0AC01452F552746954695F42FA5
:1005D00066EC61BB469AE42FEE0F7E2F7670706852
:1005E0004071552742605E2F550F5072542BE07CAE
:1005F0005E2B4F2F46954270406215B878B95BB9B3
:100600004EB957E851BB9695879596958795482F93
:1006100061BB469AE82FEE0F782F7695441F44274A
:10062000441FFE2FF6704F2B40688071992782601F
:100630009E2F990F9072982BE07C9E2B727015B8AC
:1006400048B99BB97EB951BB00C000C061BB469A96
:1006500091E095B985E488B980ED8BB982EA8EB9CD
:1006600051BB00C000C061BB469A95B997E498B9E8
:1006700090EF9BB98EB951BBB5018101AA27609F4C
:10068000B12D7103C001169FB00D811D9A1F70031B
:100690009A0BB00D811D9A1F1124AA2797FDA095D2
:1006A000BA2F840D951DA61DB71D40914D0D50917B
:1006B0004E0D840F951FA11DB11DB7FF02C00C94F4
:1006C0000510009711E0A107B10524F08FEF9FEF0F
:1006D000A0E0B0E0AC01452F552746954695F42F94
:1006E000E6ECE1BB469A742F770F672F667060685F
:1006F000407155274260572F550F5072542B707C14
:10070000572B4F2F46954270406215B868B95BB9B8
:100710004EB977E871BBAC0156954795569547950C
:10072000642FE1BB469AA42FAA0FF42FF695661FFB
:100730006627661F8A2F8670682B60684071552770
:1007400042609A2F990F9072942BA07C9A2BF27092
:1007500015B868B99BB9FEB971BB00C000C0E1BB58
:10076000469A81E085B991E498B990ED9BB990EAF9
:100770009EB971BB00C000C0E1BB469A85B987E451
:1007800088B980EF8BB982EA8EB971BBA601662762
:1007900057FD6095762F97018101AA27209FB12DE3
:1007A0003103C001129FB00D811D9A1F30039A0BB7
:1007B000B00D811D9A1F1124AA2797FDA095BA2F6D
:1007C000480F591F6A1F7B1F8091650D9091660D20
:1007D000480F591F611D711D77FF02C00C94001056
:1007E0004115510511E06107710524F04FEF5FEFEE
:1007F00060E070E0CA01892F992786958695682F59
:1008000006EC802E81BA469A382F330F232F26709C
:100810002068807199278260932F990F9072982B8E
:10082000307C932B862F86958270806215B828B90C
:100830009BB98EB987E8782E71BA5695479556952B
:100840004795942F81BA469A342F330F242F26953B
:10085000991F9927991F832F8670982B9068407154
:1008600055274260832F880F8072842B307C832B26
:10087000227015B898B98BB92EB971BA00C000C0F2
:1008800081BA469A6624639465B881E488B980EE9B
:100890008BB922EA522E5EB871BA00C000C081BA8C
:1008A000469A65B837E4332E38B840EF442E4BB83B
:1008B0005EB871BA8BE19CE00E945D2880913F0C8C
:1008C0009091400C9C01232F332726952695622F6B
:1008D00081BA469A522F550F452F467040682071B5
:1008E00033272260352F330F3072322B507C352B5B
:1008F000262F26952270206215B848B93BB92EB92B
:1009000071BA9695879596958795282F81BA469ABC
:10091000482F440F382F3695221F2227221F542F8D
:100920005670252B2068807199278260942F990F2B
:100930009072982B407C942B327015B828B99BB9D3
:100940003EB971BA00C000C081BA469A65B885E464
:1009500088B980EB8BB980EA8EB971BA00C000C04B
:1009600081BA469A65B838B84BB85EB871BA9FBEBE
:100970009FB6F8948091BB09882311F40C94770FEB
:1009800089E49BE00E945D2820906D0B30906E0BF7
:1009900049815A812A01662457FC6094762C0B8188
:1009A0001C81C801AA2797FDA095BA2F40915B0D25
:1009B00050915C0D840F951FA11DB11DB7FF02C0A2
:1009C0000C94ED0F009711E0A107B10524F08FEF13
:1009D0009FEFA0E0B0E0AC01452F55274695469526
:1009E000F42F66EC61BB469AE42FEE0F7E2F7670F3
:1009F00070684071552742605E2F550F5072542B1E
:100A0000E07C5E2B4F2F46954270406215B878B956
:100A10005BB94EB957E851BB9695879596958795E2
:100A2000482F61BB469AE82FEE0F782F7695441F2A
:100A30004427441FFE2FF6704F2B40688071992782
:100A400082609E2F990F9072982BE07C9E2B727083
:100A500015B848B99BB97EB951BB00C000C061BB95
:100A6000469A41E045B997E498B980ED8BB982EA9E
:100A70008EB951BB00C000C061BB469A45B998B958
:100A800090EF9BB98EB951BB9501A101AA27249F74
:100A9000B12D3503C001529FB00D811D9A1F340343
:100AA0009A0BB00D811D9A1F1124AA2797FDA095BE
:100AB000BA2F840D951DA61DB71D40914F0D509165
:100AC000500D840F951FA11DB11DB7FF02C00C94DE
:100AD000C80F009751E0A507B10524F08FEF9FEFF5
:100AE000A0E0B0E0AC01452F552746954695F42F80
:100AF000E6ECE1BB469A742F770F672F667060684B
:100B0000407155274260572F550F5072542B707CFF
:100B1000572B4F2F46954270406215B868B95BB9A4
:100B20004EB977E871BBAC015695479556954795F8
:100B3000642FE1BB469AA42FAA0FF42FF695661FE7
:100B40006627661F8A2F8670682B6068407155275C
:100B500042609A2F990F9072942BA07C9A2BF2707E
:100B600015B868B99BB9FEB971BB00C000C0E1BB44
:100B7000469A81E085B993E498B990ED9BB990EAE3
:100B80009EB971BB00C000C0E1BB469A85B987E43D
:100B900088B980EF8BB982EA8EB971BBA60166274E
:100BA00057FD6095762F87019101AA27029FB12DED
:100BB0001303C001309FB00D811D9A1F12039A0BC1
:100BC000B00D811D9A1F1124AA2797FDA095BA2F59
:100BD000480F591F6A1F7B1F8091670D9091680D08
:100BE000480F591F611D711D77FF02C00C94C30F80
:100BF0004115510531E06307710524F04FEF5FEFB8
:100C000060E070E0CA01892F992786958695682F44
:100C100006EC802E81BA469A382F330F232F267088
:100C20002068807199278260932F990F9072982B7A
:100C3000307C932B862F86958270806215B828B9F8
:100C40009BB98EB987E8782E71BA56954795569517
:100C50004795942F81BA469A342F330F242F269527
:100C6000991F9927991F832F8670982B9068407140
:100C700055274260832F880F8072842B307C832B12
:100C8000227015B898B98BB92EB971BA00C000C0DE
:100C900081BA469A6624639465B883E488B980EE85
:100CA0008BB922EA522E5EB871BA00C000C081BA78
:100CB000469A65B837E4432E48B840EF342E3BB827
:100CC0005EB871BA85E49CE00E945D288091690C51
:100CD00090916A0C9C01232F332726952695622F2D
:100CE00081BA469A522F550F452F467040682071A1
:100CF00033272260352F330F3072322B507C352B47
:100D0000262F26952270206215B848B93BB92EB916
:100D100071BA9695879596958795282F81BA469AA8
:100D2000482F440F382F3695221F2227221F542F79
:100D30005670252B2068807199278260942F990F17
:100D40009072982B407C942B327015B828B99BB9BF
:100D50003EB971BA00C000C081BA469A65B848B8B9
:100D600080EB8BB980EA8EB971BA00C000C081BA3D
:100D7000469A65B848B83BB85EB871BA9FBE9FB690
:100D8000F8948091C409882311F40C946D0F83E7C3
:100D90009BE00E945D282090970B3090980B098172
:100DA0001A812801662457FC6094762C2B813C81A3
:100DB000C901AA2797FDA095BA2F40915D0D5091CA
:100DC0005E0D840F951FA11DB11DB7FF02C00C94CD
:100DD000BE0F009731E0A307B10524F08FEF9FEF1E
:100DE000A0E0B0E0AC01452F552746954695F42F7D
:100DF00066EC61BB469AE42FEE0F7E2F767070682A
:100E00004071552742605E2F550F5072542BE07C85
:100E10005E2B4F2F46954270406215B878B95BB98A
:100E20004EB957E851BB9695879596958795482F6B
:100E300061BB469AE82FEE0F782F7695441F442722
:100E4000441FFE2FF6704F2B4068807199278260F7
:100E50009E2F990F9072982BE07C9E2B727015B884
:100E600048B99BB97EB951BB00C000C061BB469A6E
:100E700081E085B991E498B990EE9BB990EA9EB96A
:100E800051BB00C000C061BB469A85B987E488B9F0
:100E900080EF8BB982EA8EB951BBA501B101AA27B7
:100EA000469FB12D5703C001749FB00D811D9A1F3D
:100EB00056039A0BB00D811D9A1F1124AA2797FD86
:100EC000A095BA2F840D951DA61DB71D4091510DFB
:100ED0005091520D840F951FA11DB11DB7FF02C087
:100EE0000C94FB0F009771E0A707B10524F08FEF7A
:100EF0009FEFA0E0B0E0AC01452F55274695469501
:100F0000F42FE6ECE1BB469A742F770F672F6670DB
:100F10006068407155274260572F550F5072542B0F
:100F2000707C572B4F2F46954270406215B868B9B8
:100F30005BB94EB977E871BBAC01569547955695AC
:100F40004795642FE1BB469AA42FAA0FF42FF6957C
:100F5000661F6627661F8A2F8670682B606840713F
:100F6000552742609A2F990F9072942BA07C9A2B50
:100F7000F27015B868B99BB9FEB971BB00C000C06A
:100F8000E1BB469A81E085B995E498B990ED9BB9AB
:100F900090EA9EB971BB00C000C0E1BB469A85B91A
:100FA00087E488B980EF8BB982EA8EB971BBA6015C
:100FB000662757FD6095762F87019101AA27029F2A
:100FC000B12D1303C001309FB00D811D9A1F120374
:100FD0009A0BB00D811D9A1F1124AA2797FDA09589
:100FE000BA2F480F591F6A1F7B1F8091690D90917E
:100FF0006A0D480F591F611D711D77FF01C0F7C7AA
:101000004115510531E06307710524F04FEF5FEFA3
:1010100060E070E0CA01892F992786958695682F30
:1010200006EC802E81BA469A382F330F232F267074
:101030002068807199278260932F990F9072982B66
:10104000307C932B862F86958270806215B828B9E4
:101050009BB98EB987E8782E71BA56954795569503
:101060004795942F81BA469A342F330F242F269513
:10107000991F9927991F832F8670982B906840712C
:1010800055274260832F880F8072842B307C832BFE
:10109000227015B898B98BB92EB971BA00C000C0CA
:1010A00081BA469A5524539455B885E488B980EEA0
:1010B0008BB922EA622E6EB871BA00C000C081BA44
:1010C000469A55B837E4332E38B840EF442E4BB823
:1010D0006EB871BA8FE69CE00E945D288091930CF7
:1010E0009091940C9C01232F332726952695622FEF
:1010F00081BA469A522F550F452F4670406820718D
:1011000033272260352F330F3072322B507C352B32
:10111000262F26952270206215B848B93BB92EB902
:1011200071BA9695879596958795282F81BA469A94
:10113000482F440F382F3695221F2227221F542F65
:101140005670252B2068807199278260942F990F03
:101150009072982B407C942B327015B828B99BB9AB
:101160003EB971BA00C000C081BA469A55B881E450
:1011700088B980EB8BB96EB871BA00C000C081BA73
:10118000469A55B838B84BB86EB871BA9FBE9FB67C
:10119000F8948091CD09882309F495C68DE99BE0E8
:1011A0000E945D282090C10B3090C20B09811A81EA
:1011B0002801662457FC6094762C2B813C81C90160
:1011C000AA2797FDA095BA2F40915F0D5091600D11
:1011D000840F951FA11DB11DB7FDCCC6009731E04E
:1011E000A307B10524F08FEF9FEFA0E0B0E0AC01C2
:1011F000452F552746954695F42F66EC61BB469AD8
:10120000E42FEE0F7E2F7670706840715527426094
:101210005E2F550F5072542BE07C5E2B4F2F46955E
:101220004270406215B878B95BB94EB957E851BB06
:101230009695879596958795482F61BB469AE82F96
:10124000EE0F782F7695441F4427441FFE2FF6702B
:101250004F2B40688071992782609E2F990F907262
:10126000982BE07C9E2B727015B848B99BB97EB95B
:1012700051BB00C000C061BB469A81E085B993E4D0
:1012800098B990EE9BB990EA9EB951BB00C000C0DE
:1012900061BB469A85B987E488B980EF8BB982EA49
:1012A0008EB951BBA501B101AA27469FB12D5703A5
:1012B000C001749FB00D811D9A1F56039A0BB00D8B
:1012C000811D9A1F1124AA2797FDA095BA2F840D7E
:1012D000951DA61DB71D4091530D5091540D840FBF
:1012E000951FA11DB11DB7FD74C6009771E0A7073A
:1012F000B10524F08FEF9FEFA0E0B0E0AC01452FE7
:10130000552746954695F42FE6ECE1BB469A742F97
:10131000770F672F66706068407155274260572FBE
:10132000550F5072542B707C572B4F2F469542709F
:10133000406215B868B95BB94EB977E871BBAC01CA
:101340005695479556954795642FE1BB469AA42F2D
:10135000AA0FF42FF695661F6627661F8A2F8670E0
:10136000682B60684071552742609A2F990F9072E0
:10137000942BA07C9A2BF27015B868B99BB9FEB972
:1013800071BB00C000C0E1BB469A91E095B987E40B
:1013900088B940ED4BB940EA4EB971BB00C000C0FE
:1013A000E1BB469A95B988B980EF8BB982EA8EB9CC
:1013B00071BBA601662757FD6095762F87019101C5
:1013C000AA27029FB12D1303C001309FB00D811DCC
:1013D0009A1F12039A0BB00D811D9A1F1124AA2780
:1013E00097FDA095BA2F480F591F6A1F7B1F809148
:1013F0006B0D90916C0D480F591F611D711D77FD8C
:10140000E4C54115510531E06307710524F04FEF44
:101410005FEF60E070E0CA01892F99278695869575
:10142000682F06EC802E81BA469A382F330F232F6F
:1014300026702068807199278260932F990F90728F
:10144000982B307C932B862F86958270806215B8FE
:1014500028B99BB98EB987E8782E71BA5695479509
:1014600056954795942F81BA469A342F330F242FDF
:101470002695991F9927991F832F8670982B90681E
:10148000407155274260832F880F8072842B307CF7
:10149000832B227015B898B98BB92EB971BA00C0D8
:1014A00000C081BA469A5524539455B827E4422E79
:1014B00048B880EE8BB932EA632E6EB871BA00C0BC
:1014C00000C081BA469A55B848B840EF342E3BB8B0
:1014D0006EB871BA89E99CE00E945D288091BD0CCC
:1014E0009091BE0C9C01232F332726952695622FC1
:1014F00081BA469A522F550F452F46704068207189
:1015000033272260352F330F3072322B507C352B2E
:10151000262F26952270206215B848B93BB92EB9FE
:1015200071BA9695879596958795282F81BA469A90
:10153000482F440F382F3695221F2227221F542F61
:101540005670252B2068807199278260942F990FFF
:101550009072982B407C942B327015B828B99BB9A7
:101560003EB971BA00C000C081BA469A55B883E44A
:1015700088B980EB8BB96EB871BA00C000C081BA6F
:10158000469A55B848B83BB86EB871BA9FBE9FB678
:10159000F8948091D609882309F48BC487EC9BE0EA
:1015A0000E945D282090EB0B3090EC0B09811A8192
:1015B0002801662457FC6094762C2B813C81C9015C
:1015C000AA2797FDA095BA2F4091610D5091620D09
:1015D000840F951FA11DB11DB7FDF3C4009731E025
:1015E000A307B10524F08FEF9FEFA0E0B0E0AC01BE
:1015F000452F552746954695F42F66EC61BB469AD4
:10160000E42FEE0F7E2F7670706840715527426090
:101610005E2F550F5072542BE07C5E2B4F2F46955A
:101620004270406215B878B95BB94EB957E851BB02
:101630009695879596958795482F61BB469AE82F92
:10164000EE0F782F7695441F4427441FFE2FF67027
:101650004F2B40688071992782609E2F990F90725E
:10166000982BE07C9E2B727015B848B99BB97EB957
:1016700051BB00C000C061BB469A81E085B995E4CA
:1016800098B990EE9BB990EA9EB951BB00C000C0DA
:1016900061BB469A85B987E488B980EF8BB982EA45
:1016A0008EB951BBA501B101AA27469FB12D5703A1
:1016B000C001749FB00D811D9A1F56039A0BB00D87
:1016C000811D9A1F1124AA2797FDA095BA2F840D7A
:1016D000951DA61DB71D4091550D5091560D840FB7
:1016E000951FA11DB11DB7FD64C4009771E0A70748
:1016F000B10524F08FEF9FEFA0E0B0E0AC01452FE3
:10170000552746954695F42FE6ECE1BB469A742F93
:10171000770F672F66706068407155274260572FBA
:10172000550F5072542B707C572B4F2F469542709B
:10173000406215B868B95BB94EB977E871BBAC01C6
:101740005695479556954795642FE1BB469AA42F29
:10175000AA0FF42FF695661F6627661F8A2F8670DC
:10176000682B60684071552742609A2F990F9072DC
:10177000942BA07C9A2BF27015B868B99BB9FEB96E
:1017800071BB00C000C0E1BB469A91E095B981E40D
:1017900088B980ED8BB982EA8EB971BB00C000C0F8
:1017A000E1BB469A95B997E498B990EF9BB98EB989
:1017B00071BBA601662757FD6095762F87019101C1
:1017C000AA27029FB12D1303C001309FB00D811DC8
:1017D0009A1F12039A0BB00D811D9A1F1124AA277C
:1017E00097FDA095BA2F480F591F6A1F7B1F809144
:1017F0006D0D90916E0D480F591F611D711D77FD84
:10180000D4C34115510531E06307710524F04FEF52
:101810005FEF60E070E0CA01892F99278695869571
:10182000682FF6EC7F2E71BA469A382F330F232F8C
:1018300026702068807199278260932F990F90728B
:10184000982B307C932B862F86958270806215B8FA
:1018500028B99BB98EB9A7E86A2E61BA5695479503
:1018600056954795942F71BA469A342F330F242FEB
:101870002695991F9927991F832F8670982B90681A
:10188000407155274260832F880F8072842B307CF3
:10189000832B227015B898B98BB92EB961BA00C0E4
:1018A00000C071BA469A5524539455B881E488B95A
:1018B00010EB212E2BB880EA8EB961BA00C000C0AF
:1018C00071BA469A55B807E4302E38B880EF882EA2
:1018D0008BB892EA492E4EB861BA83EC9CE00E9424
:1018E0005D288091E70C9091E80C9C01232F332711
:1018F00026952695622F71BA469A522F550F452F7D
:1019000046704068207133272260352F330F3072C4
:10191000322B507C352B262F26952270206215B84D
:1019200048B93BB92EB961BA969587959695879532
:10193000282F71BA469A482F440F382F3695221F08
:101940002227221F542F5670252B2068807199273B
:101950008260942F990F9072982B407C942B327058
:1019600015B828B99BB93EB961BA00C000C071BAB8
:10197000469A55B885E488B92BB84EB861BA00C00C
:1019800000C071BA469A55B838B88BB84EB861BA2B
:101990009FBE9FB6F8948091DF09882309F47FC227
:1019A00081EF9BE00E945D282091150C3091160C70
:1019B00009811A812801662457FC6094762C4B819A
:1019C0005C81CA01AA2797FDA095BA2F4091630DAB
:1019D0005091640D840F951FA11DB11DB7FDEDC27F
:1019E000009751E0A507B10524F08FEF9FEFA0E02D
:1019F000B0E0AC01452F552746954695F42F66EC8F
:101A000061BB469AE42FEE0F7E2F767070684071AE
:101A1000552742605E2F550F5072542BE07C5E2B91
:101A20004F2F46954270406215B878B95BB94EB9F0
:101A300057E851BB9695879596958795482F61BB3A
:101A4000469AE82FEE0F782F7695441F4427441FBF
:101A5000FE2FF6704F2B40688071992782609E2F71
:101A6000990F9072982BE07C9E2B727015B848B934
:101A70009BB97EB951BB00C000C061BB469A91E0E2
:101A800095B987E488B940EE4BB940EA4EB951BBED
:101A900000C000C061BB469A95B988B980EF8BB988
:101AA00082EA8EB951BBB501AA27629FB12D73039B
:101AB000C001369FB00D811D9A1F72039A0BB00DA5
:101AC000811D9A1F1124AA2797FDA095BA2F840D76
:101AD000951DA61DB71D4091570D5091580D840FAF
:101AE000951FA11DB11DB7FD5CC2009771E0A7074E
:101AF000B10524F08FEF9FEFA0E0B0E0AC01452FDF
:101B0000552746954695F42F66EC61BB469AE42F1F
:101B1000EE0F7E2F767070684071552742605E2F01
:101B2000550F5072542BE07C5E2B4F2F4695427020
:101B3000406215B878B95BB94EB957E851BB969574
:101B4000879596958795482F61BB469AE82FEE0FAB
:101B5000782F7695441F4427441FFE2FF6704F2B95
:101B600040688071992782609E2F990F9072982B00
:101B7000E07C9E2B727015B848B99BB97EB951BBF9
:101B800000C000C061BB469A91E095B983E488B972
:101B900080ED8BB982EA8EB951BB00C000C061BB39
:101BA000469A95B997E498B990EF9BB98EB951BB15
:101BB000A601662757FD6095762F8701AA27029F09
:101BC000B12D1303C001309FB00D811D9A1F120368
:101BD0009A0BB00D811D9A1F1124AA2797FDA0957D
:101BE000BA2F480F591F6A1F7B1F80916F0D90916C
:101BF000700D480F591F611D711D77FDCEC1411534
:101C0000510511E06107710524F04FEF5FEF60E0CF
:101C100070E0CA01892F992786958695782F36EC32
:101C200031BB469A682F660F262F26702068807178
:101C300099278260962F990F9072982B607C962B33
:101C4000872F86958270806215B828B99BB98EB9A6
:101C500027E821BB5695479556954795942F31BB5C
:101C6000469A742F770F642F6695991F9927991FAD
:101C7000872F8670982B9068407155274260872F78
:101C8000880F8072842B707C872B627015B898B98E
:101C90008BB96EB921BB00C000C031BB469A81E050
:101CA00085B993E498B990EB9BB990EA9EB921BBB2
:101CB00000C000C031BB469A85B987E488B980EF7F
:101CC0008BB982EA8EB921BBC090F10CD090F20C96
:101CD000E090F30CF090F40C8F2D9927AA27BB27E6
:101CE000892B8A2B8B2B09F029C18091160D82300C
:101CF00009F418C108F011C1813009F431C160E064
:101D000070E040910F0D5091100DAA27649FB12DE6
:101D1000759F9001569FB00D211D3A1F749FB00D05
:101D2000211D3A1F112480910D0D90910E0D280F49
:101D3000391F3093120D2093110D8091ED0C90916D
:101D4000EE0CA091EF0CB091F00C8C0D9D1DAE1D12
:101D5000BF1D8093F10C9093F20CA093F30CB09301
:101D6000F40CC901892F992786958695782F56EC12
:101D700051BB469A682F660F462F467040688071A7
:101D800099278260962F990F9072982B607C962BE2
:101D9000872F86958270806215B848B99BB98EB935
:101DA00047E841BB3695279536952795922F51BB2D
:101DB000469A722F770F622F6695991F9927991F60
:101DC000872F8670982B9068207133272260872F89
:101DD000880F8072822B707C872B627015B898B93F
:101DE0008BB96EB941BB00C000C051BB469A21E01F
:101DF00025B997E498B980EB8BB982EA8EB941BBDB
:101E000000C000C051BB469A25B998B990EF9BB964
:101E10008EB941BB9FBE90914809292F2C7111E0CA
:101E200009F010E09370923009F413C1933009F473
:101E300050C3913009F417C1111157C30E94011901
:101E40008091440990914509A0914609B0914709B4
:101E50000196A11DB11D8093440990934509A0935B
:101E60004609B0934709809148098F5F80934809DC
:101E70000F900F900F900F90DF91CF911F910F91C6
:101E8000FF90EF90DF90CF90BF90AF909F908F909A
:101E90007F906F905F904F903F902F90089525E333
:101EA0002A95F1F7000060E070E087E10E94023DB2
:101EB000B1CF45E34A95F1F7000060E070E086E1BC
:101EC0000E94023D65CD45E34A95F1F7000060E0D0
:101ED00070E085E10E94023D59CB45E34A95F1F758
:101EE000000060E070E084E10E94023D4FC945E3DC
:101EF0004A95F1F7000060E070E083E10E94023D46
:101F00000C94BE0625E32A95F1F7000060E070E02E
:101F100082E10E94023D0C94B7048330E1F08430EA
:101F200009F0EDCE8091130D81118CC0BB27AF2D30
:101F30009E2D8D2DBC0160957095E3CE8DEE9CE0BD
:101F40000E940C28C090F10CD090F20CE090F30CA1
:101F5000F090F40CCACE6091010D7091020DD1CEBB
:101F60008091130D811166C0BB27AF2D9E2D8D2D45
:101F7000BC01C7CE80E090E0DC0130C980E090E099
:101F8000DC010C94E90640E050E0BA010C94F8053D
:101F900080E090E0DC010C94690540E050E0BA017B
:101FA0002ECE80E090E0DC01A0CD40E050E0BA0110
:101FB00028CC80E090E0DC0198CB80E090E0DC0170
:101FC0000FCD80E090E0DC0109CB40E050E0BA01A9
:101FD00018CA80E090E0DC0188C980E090E0DC0174
:101FE0000C94E20480E090E0DC010C94D90240E023
:101FF00050E0BA0105C880E090E0DC010C94720763
:1020000040E050E0BA010C94F00380E090E0DC0185
:102010000C946103A12CB12C0C94AF0240912D0DB6
:1020200050912E0D55954795400F511F5A83498366
:102030000C94720244E853E0C701B6010E9451506B
:10204000BC015FCE44E851E0C701B6010E94515087
:1020500071CF82E39DE00E94F1288091D40D8870B9
:102060000E94CA3D00CF0E94233B80911E0B882313
:1020700061F18091570F882309F455C38091C80DF1
:10208000882319F181508093C80D8091190B90918C
:102090001A0B019690931A0B8093190B20911B0B2E
:1020A00030911C0B8217930780F010921A0B10923C
:1020B000190BE6E9FAE004C03BE0E631F30729F04A
:1020C00081918F3FC9F30E9428378091C10D8823E9
:1020D00009F4C9CE8091BF0D9091C00D4091710D52
:1020E0005091720D20914D0D30914E0D24173507F2
:1020F00008F4E9C24217530770F4B901641B750B69
:10210000AB018617970708F4AC01241B350B3093FD
:102110004E0D20934D0D40917D0D50917E0D2091DF
:10212000590D30915A0D2417350708F4C0C24217D3
:10213000530770F4F901E41BF50BAF018E179F07ED
:1021400008F4AC01241B350B30935A0D2093590D24
:102150004091890D50918A0D2091650D3091660D49
:102160002417350708F497C24217530770F4890102
:10217000041B150BA8018017910708F4AC01241B60
:10218000350B3093660D2093650D4091730D509182
:10219000740D20914F0D3091500D2417350708F420
:1021A0006EC24217530770F4B901641B750BAB0183
:1021B0008617970708F4AC01241B350B3093500D9C
:1021C00020934F0D40917F0D5091800D20915B0D1C
:1021D00030915C0D2417350708F444C242175307A9
:1021E00070F4F901E41BF50BAF018E179F0708F49B
:1021F000AC01241B350B30935C0D20935B0D40919B
:102200008B0D50918C0D2091670D3091680D241726
:10221000350708F41AC24217530770F48901041BEA
:10222000150BA8018017910708F4AC01241B350B8E
:102230003093680D2093670D4091750D5091760D88
:102240002091510D3091520D2417350708F4F0C13B
:102250004217530770F4B901641B750BAB01861765
:10226000970708F4AC01241B350B3093520D2093D3
:10227000510D4091810D5091820D20915D0D309155
:102280005E0D2417350708F4C6C14217530770F4D2
:10229000F901E41BF50BAF018E179F0708F4AC01A1
:1022A000241B350B30935E0D20935D0D40918D0DF9
:1022B00050918E0D2091690D30916A0D24173507CC
:1022C00008F49CC14217530770F48901041B150BD5
:1022D000A8018017910708F4AC01241B350B30933B
:1022E0006A0D2093690D4091770D5091780D2091E2
:1022F000530D3091540D2417350708F472C142175D
:10230000530770F4B901641B750BAB01861797076F
:1023100008F4AC01241B350B3093540D2093530D5E
:102320004091830D5091840D20915F0D3091600D8F
:102330002417350708F448C14217530770F4F90110
:10234000E41BF50BAF018E179F0708F4AC01241BAB
:10235000350B3093600D20935F0D40918F0D5091A0
:10236000900D20916B0D30916C0D2417350708F4FA
:102370001EC14217530770F48901041B150BA801F5
:102380008017910708F4AC01241B350B30936C0DBA
:1023900020936B0D4091790D50917A0D2091550D40
:1023A0003091560D2417350708F4F4C0421753072F
:1023B00070F4B901641B750BAB018617970708F41D
:1023C000AC01241B350B3093560D2093550D4091D5
:1023D000850D5091860D2091610D3091620D24176D
:1023E000350708F4CAC04217530770F4F901E41B1B
:1023F000F50BAF018E179F0708F4AC01241B350BBA
:102400003093620D2093610D4091910D5091920D8A
:1024100020916D0D30916E0D2417350708F4A0C082
:102420004217530770F48901041B150BA80180178C
:10243000910708F4AC01241B350B30936E0D2093EB
:102440006D0D40917B0D50917C0D2091570D309179
:10245000580D2417350708F070C0421B530B841722
:10246000950708F45EC1420F531F5093580D4093D7
:10247000570D4091870D5091880D2091630D30913B
:10248000640D2417350708F046C0421B530B841710
:10249000950708F444C1420F531F5093640D4093B5
:1024A000630D4091930D5091940D20916F0D3091DB
:1024B000700D24173507E0F4421B530B8417950762
:1024C00008F42BC1420F531F5093700D40936F0DB2
:1024D000CACC812F0E94F045812F0E945240C3CC6C
:1024E0000196A11DB11D0C94AA020E942025A6CC24
:1024F0004217530708F0B7CC8901041B150BA8013C
:102500008017910708F4AC01241B350B3093700D34
:1025100020936F0DA8CC4217530718F6F901E41B5E
:10252000F50BAF018E179F0708F4AC01241B350B88
:102530003093640D2093630DB4CF4217530708F016
:1025400098CFB901641B750BAB018617970708F488
:10255000AC01241B350B3093580D2093570D89CFB8
:10256000421B530B8417950708F4D5C0420F531F25
:1025700050936E0D40936D0D64CF421B530B841727
:10258000950708F4C6C0420F531F5093620D409345
:10259000610D3ACF421B530B8417950708F4B7C05F
:1025A000420F531F5093560D4093550D10CF421BB1
:1025B000530B8417950708F4A8C0420F531F50937C
:1025C0006C0D40936B0DE6CE421B530B84179507A1
:1025D00008F499C0420F531F5093600D40935F0D54
:1025E000BCCE421B530B8417950708F48AC0420FD8
:1025F000531F5093540D4093530D92CE421B530BD7
:102600008417950708F47BC0420F531F50936A0D3F
:102610004093690D68CE421B530B8417950708F44D
:102620006CC0420F531F50935E0D40935D0D3ECE24
:10263000421B530B8417950708F45DC0420F531FCC
:102640005093520D4093510D14CE421B530B8417DF
:10265000950708F44EC0420F531F5093680D4093E6
:10266000670DEACD421B530B8417950708F43FC052
:10267000420F531F50935C0D40935B0DC0CD421B26
:10268000530B8417950788F1420F531F5093500D39
:1026900040934F0D97CD421B530B8417950718F1AC
:1026A000420F531F5093660D4093650D6ECD421B34
:1026B000530B84179507A8F0420F531F50935A0DE0
:1026C0004093590D45CD421B530B8417950738F0A5
:1026D000420F531F50934E0D40934D0D1CCDAC0136
:1026E000F7CFAC01E9CFAC01DBCFAC01CDCFAC0172
:1026F000BFCFAC01B0CFAC01A1CFAC0192CFAC0148
:1027000083CFAC0174CFAC0165CFAC0156CFAC0127
:1027100047CFAC0138CFAC0129CFAC01D3CEAC014F
:10272000BACEAC01A0CE8091C80D882309F4ADCCFF
:10273000A9CCE82FF0E0EE0FFF1FEB5AF54F7183A5
:1027400060830895E82FF0E0EE0FFF1FEB5AF54F7E
:102750008FEF9FEF91838083089560FD09C0E82F7C
:10276000F0E0EE0FFF1FEB5AF54F11821082089533
:10277000982F96959695969528E030E001C0220F07
:102780009A95EAF72095287F8770282B7FB7F894D1
:1027900056EC51BB469A15B890E898B982E08BB9CF
:1027A00030E23EB947E841BB51BB469A15B898B9EB
:1027B0008BB91EB841BB85E08A95F1F7000051BB8B
:1027C000469A622F660F922F9695322F331F33272A
:1027D000331F862F8670382B30642071862F880F28
:1027E0008072822B607C862B9270906A21E025B9E2
:1027F00038B98BB99EB941BB8AE08A95F1F700C020
:1028000051BB469A25B987E488B980EF8BB982EA33
:102810008EB941BB8AE08A95F1F700C07FBF089569
:102820008091950A8E7F9091C90D9111816080935E
:10283000950A4FB7F8948091950A96EC91BB469A09
:10284000382F330F982F9695232F26702064582FFA
:10285000551F5527551F252B582F5071832F880F33
:102860008072852B307C832B9270906631E035B975
:1028700028B98BB99EB987E881BB4FBF8091950A73
:10288000877F9091CC0D911188608093950A4FB706
:10289000F8948091950A96EC91BB469A382F330FA5
:1028A000982F9695232F26702064582F551F552753
:1028B000551F252B582F5071832F880F8072852B21
:1028C000307C832B9270906631E035B928B98BB992
:1028D0009EB987E881BB4FBF8091950A8D7F90910B
:1028E000CA0D911182608093950A4FB7F894809138
:1028F000950A96EC91BB469A382F330F982F9695F0
:10290000232F26702064582F551F5527551F252B20
:10291000582F5071832F880F8072852B307C832B2A
:102920009270906631E035B928B98BB99EB987E8C5
:1029300081BB4FBF8091950A8F7E9091CD0D9111F3
:1029400080618093950A4FB7F8948091950A96EC30
:1029500091BB469A382F330F982F9695232F2670C8
:102960002064582F551F5527551F252B582F507160
:10297000832F880F8072852B307C832B927090661A
:1029800031E035B928B98BB99EB987E881BB4FBF13
:102990008091950A8B7F9091CF0D911184608093E7
:1029A000950A4FB7F8948091950A96EC91BB469A98
:1029B000382F330F982F9695232F26702064582F89
:1029C000551F5527551F252B582F5071832F880FC2
:1029D0008072852B307C832B9270906631E035B904
:1029E00028B98BB99EB987E881BB4FBF8091950A02
:1029F0008F7D9091D00D911180628093950A4FB791
:102A0000F8948091950A96EC91BB469A382F330F33
:102A1000982F9695232F26702064582F551F5527E1
:102A2000551F252B582F5071832F880F8072852BAF
:102A3000307C832B9270906631E035B928B98BB920
:102A40009EB987E881BB4FBF8091950A8F7B90919B
:102A5000D10D911180648093950A4FB7F8948091BD
:102A6000950A96EC91BB469A382F330F982F96957E
:102A7000232F26702064582F551F5527551F252BAF
:102A8000582F5071832F880F8072852B307C832BB9
:102A90009270906631E035B928B98BB99EB987E854
:102AA00081BB4FBF089580919A0990919B09892B12
:102AB00090919C09892B90919D09892B90919E0959
:102AC000892B90919F09892B9091A009892B909136
:102AD000A109892B9091A209892B9091A309892B97
:102AE0009091A409892B9091A509892B9091A60911
:102AF000892B9091A709892B9091A809892B9091F6
:102B0000A909982B09F4DDC08091C20D9091C30DE5
:102B1000A091C40DB091C50D8F3F9F4FAF4FBF4FD8
:102B200009F4EAC00E94824F7BDE8091DA0D8111A8
:102B3000DBC00E94DF269091560F8091E70998171D
:102B400009F457C01092B2098FEF8093B1098093B6
:102B5000B0091092AA091092AB091092AC09109218
:102B6000AD091092BB098093BA098093B9091092FC
:102B7000B3091092B4091092B5091092B6091092D7
:102B8000C4098093C3098093C2091092BC091092B2
:102B9000BD091092BE091092BF091092CD09809311
:102BA000CC098093CB091092C5091092C6091092E6
:102BB000C7091092C8091092D6098093D50980934D
:102BC000D4091092CE091092CF091092D009109218
:102BD000D1091092DF098093DE098093DD091092FC
:102BE000D7091092D8091092D9091092DA09909356
:102BF000E7099091DB0D8091E609981709F459C017
:102C00001092B2098FEF8093B1098093B0091092AE
:102C1000AA091092AB091092AC091092AD0910925A
:102C2000BB098093BA098093B9091092B309109235
:102C3000B4091092B5091092B6091092C409809394
:102C4000C3098093C2091092BC091092BD09109269
:102C5000BE091092BF091092CD098093CC098093D0
:102C6000CB091092C5091092C6091092C70910929B
:102C7000C8091092D6098093D5098093D40910927F
:102C8000CE091092CF091092D0091092D10910925A
:102C9000DF098093DE098093DD091092D709109235
:102CA000D8091092D9091092DA09933018F5909347
:102CB000E6090E948D2A0E94E04A0E94B0230C94EB
:102CC0007F558FEF9FEFDC018093C20D9093C30D72
:102CD000A093C40DB093C50D0E94824FA1DD8091D9
:102CE000DA0D882309F425CF61E08EE19EE00E9491
:102CF000054E21CF90E0DBCF8091440990914509AA
:102D0000A0914609B09147098093C20D9093C30DDD
:102D1000A093C40DB093C50D05CFE82FE695E695B9
:102D2000E695F0E0E75BF64F208130E0982F977052
:102D300002C0359527959A95E2F7217033278032A6
:102D400009F45AC078F0843209F450C0C0F18632D8
:102D500009F449C008F05EC02093D00D81E0809353
:102D6000260EA1CE8C31E8F08C3109F448C0809158
:102D70004C0990E085FB332730F92091D40D207366
:102D8000232B86FD4CC030E0232B880F892F881F12
:102D9000990B892B09F447C082E0282B2093D40D8E
:102DA000DDCF8A31A8F080914C0983FB992790F9F7
:102DB00082FD37C080E0892B8093D50DCFCF823242
:102DC000C1F018F02093CC0DC9CF2093CA0DC6CF07
:102DD000883131F0893109F008952093CE0DBECFAE
:102DE0002093CB0DBBCF2093D10DB8CF2093CD0D29
:102DF000B5CF2093CF0DB2CF2093C90DAFCF909117
:102E00004C09929591708091D20D8E7F892B809381
:102E1000D20DA4CF873201F72093DA0D9FCF38E08F
:102E2000B3CF82E0C8CF80E0B8CFCF93C8E18C2F7A
:102E300074DFCF5FC832D9F7CF9108958091530FD7
:102E40008823C9F08091510F9091520F0E94F45045
:102E50008823B9F08091530F8823D1F00E94BB4E94
:102E60001092260E81E09091530F911101C080E0E5
:102E70008093240E08958BED90E00E94F450811110
:102E8000E9CF81E00E9453518091530F8111E6CF29
:102E9000CCDF8091260E20E0E22FF0E0DF01AC587D
:102EA000B94FAC91AF3F69F0EE0FFF1FE753F24F00
:102EB000AA0FBB0BA15FB54F8D919C91928F818F13
:102EC00081E02F5F2E3141F78093260EC7CF90917E
:102ED000950A977F811198609093950A4FB7F8945F
:102EE0008091950A96EC91BB469A382F330F982F14
:102EF0009695232F26702064582F551F5527551F50
:102F0000252B582F5071832F880F8072852B307C92
:102F1000832B9270906631E035B928B98BB99EB990
:102F200087E881BB4FBF0895EF92FF920F931F93E5
:102F3000CF93DF93EC01162FF42EE22E80919B1697
:102F4000843071F1C230D10509F453C0C330D105CA
:102F500071F1C130D105F9F1C430D105C8F5E09166
:102F60009216F0919316309739F00E2D2F2D412F98
:102F7000BE0186E796E10995E0919416F0919516C9
:102F8000309739F00E2D2F2D412FBE0186E796E1A7
:102F90000995DF91CF911F910F91FF90EF900895C8
:102FA000E0919016F09191163097F9F6D8CF862FD0
:102FB000807F803A09F48DC008F041C0803809F460
:102FC00056C0803961F6E0917A16F0917B1642C0C6
:102FD000C0E0D0E0C4CF683F50F1E0918C16F09192
:102FE0008D16309709F4BBCF612F86E796E10995DE
:102FF000C3CF862F807F803D09F455C0803F09F400
:1030000040C0803C09F0ABCFE0918416F09185166A
:10301000309709F4A4CF133F09F43FC0113FE9F101
:10302000612F6F704F2D86E796E10995A5CF663F1A
:1030300009F095CFE0918E16F0918F16D2CF803E99
:10304000D9F0803FA9F1803B09F089CFE091781653
:10305000F0917916309709F482CF123F99F1612FE0
:103060006F702E2D4F2D86E796E1099585CFE09163
:103070007C16F0917D16EECFE0918016F0918116CE
:10308000E9CF633F59F1613F09F069CFE0918A16BA
:10309000F0918B16309709F462CF4F2D612F86E7A0
:1030A00096E1099569CFE0918616F0918716B0CF29
:1030B000623F09F054CFE0918216F0918316309769
:1030C00009F44DCF2E2D4F2D62EF86E796E109953D
:1030D00053CFE0917E16F0917F16BCCFE091881619
:1030E000F09189163097C9F63ACFE82FF0E0EE0F4D
:1030F000FF1FE15DF14F8081918108958038910536
:1031000038F4FC01E050FF4F208130E0C901089500
:103110002FEF3FEFFBCF26EC90EE87E0F0E8E7E4FF
:1031200077EE67EF52EE4FB7F89421BB469A97B906
:103130008AB99DB915B8F8B98BB91EB8E1BB32E0B0
:103140003A95F1F700C036B1A9B1ACB121BB479AAD
:1031500077B96AB95DB94FBF45E04A95F1F700000C
:1031600032FFE1CF8FB7F89496EC91BB469A15B831
:1031700091E898B993ED9BB990E29EB997E891BB1D
:1031800095E09A95F1F700008FBF089526EC90EE38
:1031900087E0F0E8E7E477EE67EF52EE4FB7F89498
:1031A00021BB469A97B98AB99DB915B8F8B98BB9B8
:1031B0001EB8E1BB32E03A95F1F700C036B1A9B1D3
:1031C000ACB121BB479A77B96AB95DB94FBF45E049
:1031D0004A95F1F7000032FFE1CF8FB7F89496ECF3
:1031E00091BB469A15B890E898B993E09BB990E2E4
:1031F0009EB997E891BB95E09A95F1F700008FBFD3
:1032000008956F928F929F92AF92BF92CF92DF926A
:10321000EF92FF920F931F93CF93DF93E091961657
:10322000F0919716309719F086E796E109952FB738
:10323000F89480915F1790915E17891708F005C187
:1032400000916017080F091B2FBF10E00115110531
:1032500009F476C0C0E0D0E020916017EE24E3943A
:10326000F12CE3E09E2EF4E08F2EA2E0AA2EBB24E8
:10327000B394892F622F90E070E00E942D63E0915B
:103280006117F0916217E80FF91FF081F83F08F01D
:1032900065C0F7FF70C080919B16843031F0F093C9
:1032A0009816F0929D16E0929C168F2F807F803B9F
:1032B00079F198F4803961F1803A51F1803841F127
:1032C000F03F09F4AEC0F73F09F4C2C010929B165C
:1032D00010929D1610929C161DC0803D09F49EC050
:1032E00008F499C0803EA1F0803F51F7EF2FE15FD5
:1032F000EF3030F7AE2FB0E0A454B94F8C9181304D
:1033000009F498C0E8F2823009F488C08330F1F6FD
:1033100090929B163FB7F89490915E17892F90E09A
:10332000019620916017622F70E00E942D63982F04
:1033300080935E173FBF2196C017D10708F499CF3D
:10334000DF91CF911F910F91FF90EF90DF90CF9081
:10335000BF90AF909F908F906F900895D0909B16E4
:10336000B0929B1620E040E06F2F81E090E0DCDD22
:10337000D0929B16CFCF60909B16662059F2409159
:103380009C1650919D169A01ABEABAEA0E94DA6740
:103390006C01D694C794C601880F991F8C0D9D1D92
:1033A0006A01C81AD90AD601AA58B94E9296FC9356
:1033B000CA01019690939D1680939C1621E0C21637
:1033C000D104B1F022E0C216D10409F0A3CF2091BC
:1033D0009A164091991660919816A6DD80919B16D9
:1033E000843009F497CFF0929D16E0929C1692CF0C
:1033F00022E062128FCF20E04091991660919816DA
:1034000093DD80919B16843009F484CFD0929D1671
:10341000C0929C167FCF803C09F052CFA0929B16A1
:1034200079CF80929B16F0939816F0929D16E092B9
:103430009C1670CF80939B1620E040E06F2F81E0B8
:1034400090E072DD10929B1665CF082F091BFCCE11
:1034500040919C1650919D169A01ABEABAEA0E94DF
:10346000DA67969587959C01220F331F280F391F25
:10347000DA01A21BB30BAA58B94E9296FC93CA016B
:10348000019690939D1680939C1620919A164091D8
:1034900099166091981648DD10929B163BCF2F929B
:1034A0003F924F925F926F927F928F929F92AF92D4
:1034B000BF92CF92DF92EF92FF920F931F93CF9321
:1034C000DF93CDB7DEB765970FB6F894DEBF0FBEBA
:1034D000CDBFA62E882309F496C0A091EE0DB09121
:1034E000EF0D2090F00D3090F10D4091E20D5091D4
:1034F000E30D2091E80D3091E90D80901A0E909027
:103500001B0EE0912D0AF0912E0A6090D50D60916E
:10351000DF0DF0935A0FE093590FB0935C0FA09317
:103520005B0F30925E0F20925D0F5093600F4093BF
:103530005F0F3093620F2093610F9092640F80921F
:10354000630F6092650F6093660FCF01880F892F1C
:10355000881F990B91958C011A951E830D83AA0FD4
:10356000AB2FAA1FBB0BB1958D011A95412C512C85
:1035700072016101CC0CDD1CEE1CFF1CCC0CDD1CAF
:10358000EE1CFF1CC20CD31CE41CF51CA3E0F6943B
:10359000E794D794C794AA95D1F756954795569531
:1035A00047953695279536952795DB8AB52E732E48
:1035B000D701C6019927AA27BB278F87988BA98B8C
:1035C000BA8B662309F444C0623008F446C42BEA7F
:1035D000529F312D1124369536953695B32EBB0C5E
:1035E000B30EBB0CBB0C729E212D11242695269583
:1035F0002695722E770C720E770C770C1C861B8624
:103600001A8619862DC0E0912D0AF0912E0A80911C
:10361000590F90915A0FA091EE0DB091EF0D8E17AA
:103620009F0709F4F5C32090F00D3090F10D409103
:10363000E20D5091E30D2091E80D3091E90D80905D
:103640001A0E90901B0E6090D50D6091DF0D61CF2A
:10365000DA01BB27BA87A987F901FF27FC87EB8727
:103660002091DA0D2D87292D33273D8B2C8B30911E
:10367000C10D3E87A7FCDBC0AA2009F4D8C0A7FC77
:1036800033C321E0A21609F42FC3A7FC99C222E09C
:10369000A21609F495C2A7FCFFC123E0A21609F403
:1036A000FBC1A7FC66C154E0A51609F462C1A7FCE2
:1036B0001CC085E0A816C9F065960FB6F894DEBF69
:1036C0000FBECDBFDF91CF911F910F91FF90EF9073
:1036D000DF90CF90BF90AF909F908F907F906F9032
:1036E0005F904F903F902F9008958091DF0988233D
:1036F00019F3F090DE092D813E81442737FD409576
:10370000542F2D833E834F8358872090A30D3090F4
:10371000A40D442437FC4094542C220E331E441E26
:10372000551E45E069858B2D8F0D0E948452280E11
:10373000391E411C511C57FCABC52114310431E02A
:10374000430651040CF09CC38090AF0D9090B00DD7
:10375000AA2497FCA094BA2C2D813E814F815885D4
:10376000820E931EA41EB51EC801AA2797FDA09520
:10377000BA2F880E991EAA1EBB1E4BE06B85872DA3
:103780008F0D0E948452880E991EA11CB11CB7FC9B
:1037900077C58114910431E0A306B1040CF076C31F
:1037A0005D855111DAC3662009F4E9C48F2D90E0DC
:1037B00022E030E02619310902C0959587952A95B7
:1037C000E2F73B89830F0091BB0D1091BC0D41E1E5
:1037D0006F850E948452A801662757FD6095762F59
:1037E000480F591F611D711D77FDC1C54115510558
:1037F00081E06807710524F04FEF5FEF60E070E053
:103800000E85002309F4BDC430927C0D20927B0DFF
:103810009092880D8092870D5093940D4093930D54
:1038200061104ACF5093700D40936F0D45CF80913A
:10383000B209882309F423CF9090B1092D813E81EC
:10384000442737FD4095542F29833A834B835C836B
:103850002090990D30909A0D6101EE24D7FCE094F0
:10386000FE2CC20ED31EE41EF51E40E069858B2D92
:10387000890D0E948452C80ED91EE11CF11CF7FC70
:1038800003C5C114D10431E0E306F1040CF016C302
:103890002090A50D3090A60D442437FC4094542C64
:1038A00029813A814B815C81220E331E441E551EB4
:1038B000C801AA2797FDA095BA2F280E391E4A1EC7
:1038C0005B1E46E06B85872D890D0E948452A20104
:1038D0009101280F391F411D511DDA01C90157FD02
:1038E000AFC4009731E0A307B1050CF0DFC25D85DE
:1038F00051118DC376016C01662009F48DC4892DA8
:1039000090E022E030E02619310902C095958795B4
:103910002A95E2F73B89830F8090B10D9090B20D0C
:103920004CE06F850E948452A401662757FD609584
:10393000762F480F591F611D711D77FD28C5411550
:10394000510581E06807710524F04FEF5FEF60E0FB
:1039500070E02E8521111EC4F0924E0DE0924D0DA7
:10396000D0925A0DC092590D5093660D4093650D3B
:1039700086CE8091D609882309F499CE9090D509F6
:103980002D813E81442737FD4095542F29833A836A
:103990004B835C832090A10D3090A20D442437FC12
:1039A0004094542C220E331E441E551E44E069855B
:1039B0008B2D890D0E948452280E391E411C511CEA
:1039C00057FC4AC42114310431E0430651040CF081
:1039D00067C2C090AD0DD090AE0DEE24D7FCE09440
:1039E000FE2C29813A814B815C81C20ED31EE41EDC
:1039F000F51EC801AA2797FDA095BA2FC80ED91E9B
:103A0000EA1EFB1E4AE06B85872D890D0E948452B9
:103A1000B701A601480F591F611D711D77FD18C41C
:103A20004115510531E0630771050CF069C22D8520
:103A30002111C5C271016A016110F0C38B898090A8
:103A4000B90D9090BA0D40E16F850E948452A40197
:103A5000662757FD6095762F480F591F611D711D10
:103A600077FD99C44115510531E06307710524F0D4
:103A70004FEF5FEF60E070E02E8521119EC3F09262
:103A8000560DE092550DD092620DC092610D50938B
:103A90006E0D40936D0D0BCE8091CD09882309F4F6
:103AA00000CE9090CC092D813E81442737FD409572
:103AB000542F29833A834B835C8320909F0D309051
:103AC000A00D6101EE24D7FCE094FE2CC20ED31EA3
:103AD000E41EF51E43E069858B2D890D0E948452FA
:103AE000C80ED91EE11CF11CF7FCC6C3C114D104D9
:103AF00031E0E306F1040CF0FDC12090AB0D3090F5
:103B0000AC0D442437FC4094542C29813A814B81DC
:103B10005C81220E331E441E551EC801AA2797FD44
:103B2000A095BA2F280E391E4A1E5B1E49E06B85F0
:103B3000872D890D0E948452B201A101480F591F9F
:103B4000611D711D77FD94C34115510531E0630777
:103B500071050CF0C7C12D8521117FC276016A0164
:103B600061104CC38B898090B70D9090B80D4FE0D9
:103B70006F850E948452A401662757FD6095762FB9
:103B8000480F591F611D711D77FDFDC3411551057A
:103B900031E06307710524F04FEF5FEF60E070E004
:103BA0002E852111A5C2F092540DE092530DD092B2
:103BB000600DC0925F0D50936C0D40936B0D71CDF5
:103BC0008091C409882309F466CD9090C3092D81A2
:103BD0003E81442737FD4095542F29833A834B83F8
:103BE0005C8320909D0D30909E0D6101EE24D7FCEA
:103BF000E094FE2CC20ED31EE41EF51E42E0698541
:103C00008B2D890D0E948452C80ED91EE11CF11C17
:103C1000F7FC2AC3C114D10431E0E306F1040CF02F
:103C20005BC12090A90D3090AA0D442437FC40942C
:103C3000542C29813A814B815C81220E331E441E13
:103C4000551EC801AA2797FDA095BA2F280E391E28
:103C50004A1E5B1E48E06B85872D890D0E948452A9
:103C6000B201A101480F591F611D711D77FDF8C2F6
:103C70004115510531E0630771050CF025C12D8513
:103C8000211112C276016A016110AAC28B8980904B
:103C9000B50D9090B60D4EE06F850E948452A40140
:103CA000662757FD6095762F480F591F611D711DBE
:103CB00077FD65C34115510531E06307710524F0B7
:103CC0004FEF5FEF60E070E02E85211145C2F0926A
:103CD000520DE092510DD0925E0DC0925D0D509349
:103CE0006A0D4093690DD7CC8091BB09882309F4F4
:103CF000CCCC9090BA092D813E81442737FD409568
:103D0000542F29833A834B835C8320909B0D309002
:103D10009C0D6101EE24D7FCE094FE2CC20ED31E54
:103D2000E41EF51E41E069858B2D890D0E948452A9
:103D3000C80ED91EE11CF11CF7FC86C2C114D104C7
:103D400031E0E306F1040CF095C02090A70D30900F
:103D5000A80D442437FC4094542C29813A814B818E
:103D60005C81220E331E441E551EC801AA2797FDF2
:103D7000A095BA2F280E391E4A1E5B1E47E06B85A0
:103D8000872D890D0E948452B201A101480F591F4D
:103D9000611D711D77FD50C24115510531E063076A
:103DA00071050CF05FC02D852111B2C076016A014A
:103DB0006110C4C18B898090B30D9090B40D4DE01B
:103DC0006F850E948452A401662757FD6095762F67
:103DD000480F591F611D711D77FDCDC24115510559
:103DE00031E06307710524F04FEF5FEF60E070E0B2
:103DF0002E85211190C1F092500DE0924F0DD0927E
:103E00005C0DC0925B0D5093680D4093670D3DCCE7
:103E100080915B0F90915C0F2090F00D3090F10D30
:103E2000A817B90709F003CC80915D0F90915E0F40
:103E30004091E20D5091E30D2816390609F4AFC206
:103E40002091E80D3091E90D80901A0E90901B0E94
:103E50006090D50D6091DF0D5CCB1C861B861A86A9
:103E60001986FECB4FEF5FEF60E070E02D852111EA
:103E70004FC09CCFCC24CA94DC2CE12CF12C65CF14
:103E800022242A94322C412C512C5ECC88248A94F2
:103E9000982CA12CB12C5D85552309F484CC5DC0F0
:103EA00022242A94322C412C512C93CD8FEF9FEF5A
:103EB000A0E0B0E05D855111AAC01CCDCC24CA940D
:103EC000DC2CE12CF12CE4CC4FEF5FEF60E070E0F4
:103ED0002D852111E9C0D6CECC24CA94DC2CE12C4E
:103EE000F12C9FCE4FEF5FEF60E070E02D85211148
:103EF000B4C034CECC24CA94DC2CE12CF12CFDCD02
:103F00004FEF5FEF60E070E02D85211158C092CD3A
:103F10008C899D89919581959109AA2797FDA095F6
:103F2000BA2FC80ED91EEA1EFB1EF7FC1CC2C11414
:103F3000D104E1E0EE06F1040CF0BFC17601840F7C
:103F4000951FA61FB71FB7FDFEC10097F1E0AF0791
:103F5000B1050CF0BEC16C012BCF8C899D89880FF7
:103F6000991F0C891D89800F911F91958195910949
:103F7000AA2797FDA095BA2FB201A101480F591F9A
:103F80006A1F7B1F77FDEBC14115510511E06107E9
:103F900071050CF087C11A01880E991EAA1EBB1E5E
:103FA000B7FCD5C18114910421E0A206B1040CF440
:103FB000FACB88248A94982CA12CB12CF4CB8C8930
:103FC0009D89880F991F2C893D89820F931FAA27ED
:103FD00097FDA095BA2F280E391E4A1E5B1E57FC6E
:103FE000BAC12114310431E0430651040CF06BC115
:103FF0007101840F951FA61FB71FB7FD90C10097D1
:1040000041E0A407B1050CF070C16C0115CD2C89FD
:104010003D89A901662757FD6095762FC40ED51EF0
:10402000E61EF71EF7FC83C1C114D10431E0E3069C
:10403000F1040CF066C17601840F951FA61FB71F0F
:10404000B7FD7DC1009741E0A407B1050CF453CC46
:104050008FEF9FEFA0E0B0E04ECC8C899D899195C9
:1040600081959109880F991FAA2797FDA095BA2FCE
:10407000C80ED91EEA1EFB1EF7FC55C1C114D1049F
:10408000E1E0EE06F1040CF007C17601840F951F04
:10409000A61FB71FB7FD3BC10097F1E0AF07B10501
:1040A0000CF029C16C015CCD8C899D89880F991F0A
:1040B000AA2797FDA095BA2FC80ED91EEA1EFB1E8F
:1040C000F7FC39C1C114D104E1E0EE06F1040CF0B3
:1040D000EEC07601840F951FA61FB71FB7FD1BC149
:1040E0000097F1E0AF07B1050CF0F9C06C01CCCD41
:1040F000F092780DE092770DD092840DC092830DEE
:104100005093900D40938F0D6110CBCA50936C0D5E
:1041100040936B0DC6CAF092740DE092730DD0926D
:10412000800DC0927F0D50938C0D40938B0D6110CC
:10413000ACCA5093680D4093670DA7CA892D90E0D3
:1041400022E030E02619310902C0959587952A951D
:10415000E2F73B89830F2FCEF092760DE092750D3A
:10416000D092820DC092810D50938E0D40938D0D93
:10417000611091CA50936A0D4093690D8CCA8B8966
:1041800022CB3092580D2092570D9092640D809260
:10419000630D48CBF092720DE092710DD0927E0DBE
:1041A000C0927D0D50938A0D4093890D611067CAAE
:1041B0005093660D4093650D62CAF0927A0DE092BD
:1041C000790DD092860DC092850D5093920D40933B
:1041D000910D61106CCA50936E0D40936D0D67CABE
:1041E000892D90E022E030E02619310902C0959532
:1041F00087952A95E2F73B89830F49CD892D90E079
:1042000022E030E02619310902C0959587952A955C
:10421000E2F73B89830FA7CC8B897ECB892D90E079
:1042200022E030E02619310902C0959587952A953C
:10423000E2F73B89830F03CC40E050E0BA01ACCDFC
:1042400080E090E0DC014DCBC12CD12C760176CD05
:1042500040E050E0BA01E4CB212C312C2101B2CB5B
:1042600040E050E0BA0104CDC12CD12C7601D2CC73
:1042700040E050E0BA0168CCC12CD12C760136CC9C
:10428000812C912C540185CAC12CD12C7601F9CAFC
:10429000212C312C210151CACC24CA94DC2CE12CD4
:1042A000F12CF3CE4FEF5FEF60E070E074CECC24E2
:1042B000CA94DC2CE12CF12C0CCFCC24CA94DC2C3D
:1042C000E12CF12C3BCE22242A94322C412C512C6F
:1042D0008FCE8FEF9FEFA0E0B0E06C0169CD8FEF44
:1042E0009FEFA0E0B0E06C01CFCC8FEF9FEFA0E09C
:1042F000B0E06C01A1CB8FEF9FEFA0E0B0E06C01CC
:104300002FCCCC24CA94DC2CE12CF12C94CE80E070
:1043100090E0DC01C1CE80E090E0DC01E1CE80E005
:1043200090E0DC016CCEC12CD12C7601A7CEC12C43
:10433000D12C760179CEC12CD12C7601C3CE80E070
:1043400090E0DC017FCE80E090E0DC01FECD812CAE
:10435000912C540127CE212C312C210142CE40E05A
:1043600050E0BA0111CEC12CD12C7601E0CD40E055
:1043700050E0BA013BCA40E050E0BA012FCD40E026
:1043800050E0BA0197CC40E050E0BA01FFCB40E0EA
:1043900050E0BA01D4CA40E050E0BA0163CB80914A
:1043A0005F0F9091600F2091E80D3091E90D481753
:1043B000590749F080901A0E90901B0E6090D50D11
:1043C0006091DF0DA6C88091610F9091620F80907F
:1043D0001A0E90901B0E2817390729F06090D50D02
:1043E0006091DF0D96C86091630F7091640F6090CB
:1043F000D50D8616970619F06091DF0D8AC8609179
:10440000650F6612F9CF6091DF0D7091660F67132B
:1044100080C852C9CF92DF92EF92FF9280912F0A0B
:104420009091300AA0E0B0E0E0914F0FF091500F72
:104430006F01E12CF12C8C159D05AE05BF05E4F450
:10444000A7019601281B390B4A0B5B0BA0E0B0E8D3
:104450000E94BB67A70196010E94BF672F3F8FE7AD
:10446000380741055105FCF02FEF3FE7C901FF90E8
:10447000EF90DF90CF9008959C01AD012C193D097C
:104480004E095F09AFEFBFE70E94AF679F0120951C
:10449000309540E050E00E94BF672F3F8FE738071C
:1044A000410551050CF7DA01C901811520E8920791
:1044B0002FEFA207B2073CF09C01C901FF90EF90DB
:1044C000DF90CF90089580E090E8AFEFBFEF9C01C0
:1044D000F4CFEF92FF920F931F93CF93DF937C0162
:1044E000EB01142F40FF09C02091670F3091680F36
:1044F000282739272C7F232B71F511FF0AC08091C3
:10450000690F90916A0F8C279D2788279E7F892BA2
:1045100039F4DF91CF911F910F91FF90EF900895A3
:104520000D2F06954091550F4F70406BE091761618
:10453000F091771621E063E070E086E796E1099557
:10454000D0936A0FC093690FDF91CF911F910F91A4
:10455000FF90EF90089590589C01359527953595DB
:104560002795092F06952F7733274091550F4F70C8
:10457000406EE0917616F091771663E070E086E782
:1045800096E10995F092680FE092670FB6CF0F930E
:104590001F93072F069510E00F771127282F285E0D
:1045A0002F774091550F4F704069E0917616F0914A
:1045B000771663E070E086E796E109951F910F9109
:1045C00008950F93262F4F772F778F708068E09193
:1045D0007616F0917716042F482F63E070E086E797
:1045E00096E109950F910895FF920F931F93CF9332
:1045F000DF93F82EABEA8A9FA12D1124A695A695EC
:10460000A6951A2F1F5F462F50E0A83008F063C010
:104610008A2F90E0880F991FFC01EE0FFF1FEE0F0D
:10462000FF1FEE0FFF1FE80FF91FE40FF51FEE0F3E
:10463000FF1FE15DF14FC081D181183008F46FC0D8
:10464000FA01EE0FFF1FE55DF04F0190F081E02DC4
:10465000DA01AA0FBB1FA95FB04F8D919C919F01FA
:10466000281B390BA12FB0E017970E9427636E0F0C
:104670007F1F811D911D6115710521E08207910544
:1046800008F063C08B010C1B1D0B9BEAF99E912D5A
:104690001124969596959695892F880F890F880FE6
:1046A000880F6F2D681B862F90E0A0E0B0E0772781
:1046B00066272CE030E040E050E00E94E667D80139
:1046C0000E94AF67C80FD91FCE01DF91CF911F9114
:1046D0000F91FF900895FA01EE0FFF1FE55DF04F77
:1046E0000190F081E02DEA01CC0FDD1FC95FD04FB2
:1046F000888199819F01281B390BB0E017970E9490
:1047000027636E0F7F1F811D911D6115710521E0CB
:1047100082079105F8F4EB01183008F091CF812F52
:1047200090E0880F991FFC01EE0FFF1FEE0FFF1F97
:10473000EE0FFF1FE80FF91FE40FF51FEE0FFF1F2D
:10474000E15DF14F608171819DCF6FEF7FEF80E080
:1047500090E098CF6FEF7FEF80E090E0EB01DCCF4F
:10476000AF92BF92CF92DF92EF92FF920F931F937F
:10477000CF93DF93E9E9FDE0119211928DE0ED3BDB
:10478000F807D1F71092BE0D1092BD0D8091DD0D8E
:10479000823009F42DC1833009F416C1813059F0FB
:1047A000DF91CF911F910F91FF90EF90DF90CF900D
:1047B000BF90AF900895C091970DD091980D109132
:1047C000DC0D110F60E0812F0FDF7C0180E00E9483
:1047D00075189701281B390BDE010E942763CC2432
:1047E000CA94DC2CE12CF12CA70196010E94BF6732
:1047F00030939A0D2093990D61E0812FF5DE5C01D5
:1048000081E00E9475189501281B390BDE010E947A
:104810002763A70196010E94BF6730939C0D2093E8
:104820009B0D62E0812FE0DE5C0182E00E94751842
:104830009501281B390BDE010E942763A701960111
:104840000E94BF6730939E0D20939D0D63E0812FE2
:10485000CBDE5C0183E00E9475189501281B390BA3
:10486000DE010E942763A70196010E94BF67309373
:10487000A00D20939F0D64E0812FB6DE5C0184E0E3
:104880000E9475189501281B390BDE010E942763D1
:10489000A70196010E94BF673093A20D2093A10D3E
:1048A00065E0812FA1DE5C0185E00E94751895010D
:1048B000281B390BDE010E942763A70196010E9485
:1048C000BF673093A40D2093A30D66E0812F8CDE8B
:1048D0005C0186E00E9475189501281B390BDE01EA
:1048E0000E942763A70196010E94BF673093A60D1F
:1048F0002093A50D67E0812F77DE5C0187E00E94A1
:1049000075189501281B390BDE010E942763A7014A
:1049100096010E94BF673093A80D2093A70D68E011
:10492000812F62DE5C0188E00E9475189501281BCA
:10493000390BDE010E942763A70196010E94BF6721
:104940003093AA0D2093A90D69E0812F4DDE5C0103
:1049500089E00E9475189501281B390BDE010E9421
:104960002763A70196010E94BF673093AC0D209387
:10497000AB0D6AE0812F38DE5C018AE00E94751879
:104980009501281B390BDE010E942763A7019601C0
:104990000E94BF673093AE0D2093AD0D6BE0812F69
:1049A00023DE8C018BE00E9475189801281B390BBF
:1049B000DE010E942763A70196010E94BF67309322
:1049C000B00D2093AF0DECCE2091DC0DA091970D92
:1049D000B091980D30E00E9427632CE030E040E079
:1049E00050E00E94BF673093BE0D2093BD0DD8CE1E
:1049F0002091DC0DA091970DB091980D30E00E94B0
:104A000027632CE030E040E050E00E94BF67309325
:104A1000B20D2093B10D3093B40D2093B30D3093AC
:104A2000B60D2093B50D3093B80D2093B70D30938C
:104A3000BA0D2093B90D3093BC0D2093BB0DB0CEB1
:104A40004091B1093091B0098091AA099091AB09C8
:104A5000A091AC09B091AD092091B209211121C0FA
:104A60002091BB09211129C02091C409211139C00D
:104A70002091CD09211149C02091D609211159C099
:104A80002091DF09211169C04093B1093093B00929
:104A90008093AA099093AB09A093AC09B093AD0998
:104AA00008952091440C2111DBCF1092B20980E0CF
:104AB00090E0DC013FEF4FEFD3CF20916E0C21113E
:104AC000D3CF1092BB092FEF2093BA092093B909D5
:104AD0001092B3091092B4091092B5091092B60958
:104AE000C3CF2091980C2111C3CF1092C4092FEF8E
:104AF0002093C3092093C2091092BC091092BD09EA
:104B00001092BE091092BF09B3CF2091C20C21119F
:104B1000B3CF1092CD092FEF2093CC092093CB096E
:104B20001092C5091092C6091092C7091092C809BF
:104B3000A3CF2091EC0C2111A3CF1092D6092FEF17
:104B40002093D5092093D4091092CE091092CF0951
:104B50001092D0091092D10993CF2091160D2111F6
:104B600093CF4093B1093093B0098093AA099093F1
:104B7000AB09A093AC09B093AD091092DF098FEF98
:104B80008093DE098093DD091092D7091092D8092D
:104B90001092D9091092DA09089521E030E002C09C
:104BA000220F331F8A95E2F7F901E095F095809185
:104BB000590990915A098E239F2390935A09809303
:104BC000590940915B0950915C094E235F23509332
:104BD0005C0940935B09662331F0282B392B309315
:104BE0005A09209359090895E9E5F9E080819181F6
:104BF000ABE5B9E02D913C9111973E7F2D933C930D
:104C0000916091838083089580914A09881F882745
:104C1000881F0895CF93DF931F92CDB7DEB790E042
:104C200069830E947E1880935D096981862F90E0D8
:104C30000E947E1880935E090F90DF91CF910895B6
:104C400024E630E040E050E00E94BF672AE030E018
:104C500040E050E00E94BF67605D822F805DDACF48
:104C600021E020936309009721F48FEF809362097C
:104C7000089510926209BC0189E699E00E9451678B
:104C800068E978E088E699E00C944667BF92CF9295
:104C9000DF92EF92FF920F931F93CF93DF93CDB7E5
:104CA000DEB764970FB6F894DEBF0FBECDBF00919C
:104CB0002E0E8CE00802800111240C571A4F0E941E
:104CC000BB4ED80112966D917C911397CE0101963F
:104CD0000E94516766E978E0CE0101960E9446671E
:104CE000F8018081813081F020F0823009F054C0D9
:104CF0001EC0E181EE0FFF0BEE51F24F81818093D8
:104D0000280E1092290E48C0E181FF27E7FDF0959B
:104D1000E753F24F8081F801E80FF11DE80FF11D14
:104D200064817581CE0101960E94466735C089E194
:104D3000E9ECFDE0A6E7B4E101900D928A95E1F778
:104D4000C12CD12C7601B701A601F80181810E9406
:104D5000CF4E49E150E069EC7DE086E794E10E94A6
:104D60001867009771F4F8018C2D92E08902E00D2C
:104D7000F11D112464817581CE0101960E94466760
:104D80000BC0AFEFCA1ADA0AEA0AFA0AB4E0CB1685
:104D9000D104E104F104B9F6CE01019661DF649615
:104DA0000FB6F894DEBF0FBECDBFDF91CF911F913C
:104DB0000F91FF90EF90DF90CF90BF900895CF9329
:104DC000DF9300D000D000D0CDB7DEB786E0E6EBB1
:104DD000F6E0DE01119601900D928A95E1F760E010
:104DE000CE0101960E94054E26960FB6F894DEBFBE
:104DF0000FBECDBFDF91CF910895FC01623009F461
:104E000058C038F0633009F483C0643009F432C00C
:104E100008956130E9F726893789468D578DAA278D
:104E2000429FB12D539FC001349FB00D811D9A1F29
:104E3000529FB00D811D9A1F112480A391A340950C
:104E40005095AA27429FB12D539FC001349FB00DAA
:104E5000811D9A1F529FB00D811D9A1F112482A39C
:104E600093A3408551856285738540835183628316
:104E70007383089511A210A2268D378D4689578914
:104E8000AA27249FB12D359FC001529FB00D811DCF
:104E90009A1F349FB00D811D9A1F112482A393A3E2
:104EA0004089518962897389408351836283738306
:104EB00008952689378944895589AA27429FB12DAB
:104EC000539FC001349FB00D811D9A1F529FB00D9A
:104ED000811D9A1F112480A391A340955095AA2764
:104EE000429FB12D539FC001349FB00D811D9A1F69
:104EF000529FB00D811D9A1F112482A393A3448554
:104F000055856685778540835183628373830895D1
:104F100011A210A28689978993A382A308951F9353
:104F2000CF93DF93EC01898D0E94C25318A5012E07
:104F300004C096958795779567950A94D2F724E0F3
:104F4000660F771F881F991F2A95D1F76887798781
:104F50008A879B878B8D0E94C253012E04C0969531
:104F60008795779567950A94D2F734E0660F771F97
:104F7000881F991F3A95D1F76C877D878E879F8709
:104F80008D8D0E94C25304C096958795779567953D
:104F90001A95D2F744E0660F771F881F991F4A952C
:104FA000D1F7688B798B8A8B9B8B69A5CE01DF91BA
:104FB000CF911F9122CF0F931F93FC01808D918D74
:104FC0008617970721F0718F608F61E001C060E064
:104FD000828D938D8417950719F0538F428F61E06E
:104FE000848995898217930719F0358B248B61E0AA
:104FF000848D958D8017910719F0158F048F02C04D
:10500000662321F0CF011F910F9189CF1F910F913E
:105010000895FC0160A783CFFC01148215821682DB
:105020001782108211821282138281A58F5F81A75D
:10503000833009F43BC0853009F434C0823009F074
:1050400008952689378935A324A344895589AA2739
:10505000429FB12D539FC001349FB00D811D9A1FF7
:10506000529FB00D811D9A1F112480A391A34095DA
:105070005095AA27429FB12D539FC001349FB00D78
:10508000811D9A1F529FB00D811D9A1F112482A36A
:1050900093A34485558566857785408351836283D4
:1050A0007383089511A615A214A2089511A210A247
:1050B0008689978993A382A30895CF92DF92EF9276
:1050C000FF92CF93DF93EC01CC80DD80EE80FF80F8
:1050D0008F2D9927AA27BB27892B8A2B8B2B09F089
:1050E00042C089A5823009F433C070F5813009F4DB
:1050F00044C040E050E02AA13BA1AA27429FB12D25
:10510000539FC001349FB00D811D9A1F529FB00D57
:10511000811D9A1F112428A139A1820F931F9DA3DD
:105120008CA3488159816A817B814C0D5D1D6E1D68
:105130007F1D4C835D836E837F83DF91CF91FF90D2
:10514000EF90DF90CF9008958330A1F0843089F6FE
:105150008EA1811122C0BB27AF2D9E2D8D2DAC01BC
:1051600040955095C8CFCE0157DFCC80DD80EE80D2
:10517000FF80B7CF4C895D89BECF8EA1811105C05C
:1051800077276F2D5E2D4D2DB6CF44E853E0C70134
:10519000B6010E945150AC01AECF6D2DEE2DEF3F08
:1051A000E9F08E2D8F5F90E0880F991FF0E0EE0FF1
:1051B000FF1FEC57FE4F20813181FC01EC57FE4F61
:1051C00080819181821B930B492F5527649FC001D9
:1051D000659F900D1124820F931FC1CF8EEF91E038
:1051E000E5CFCF92DF92EF92FF920F931F93CF9371
:1051F000DF93EC01CC80DD80EE80FF808F2D99273E
:10520000AA27BB27892B8A2B8B2B09F04AC02A8D12
:105210006C857D858E859F85233009F467C040F5B8
:10522000213009F4ABC0EC89FD89C60ED71EE81EFB
:10523000F91ECC82DD82EE82FF829F0140E050E0C9
:10524000305841095109A889B9890E94AF672FEFE9
:105250003FEF40E050E00E94BF673F8B2E8BDF9115
:10526000CF911F910F91FF90EF90DF90CF90089515
:10527000243009F45FC02530B1F69701860149E07A
:1052800036952795179507954A95D1F7F8011D8B07
:105290000C8B298D222349F2E095F095FD8BEC8B48
:1052A000C4CFE1E0898DE81BE98FE1116FC0C12C0B
:1052B000D12C7601CC82DD82EE82FF82FF27E19540
:1052C0000CF4F095DF01AA0FBB1F119628853985D4
:1052D0004A855B850E94B9676C877D878E879F872B
:1052E0002A8D211159C0FD8BEC8B9DCFAD2DEE2D5C
:1052F000EF3F09F462C02E2D2F5F30E0220F331FE5
:10530000F0E0EE0FFF1FE559F04F40815181F901A8
:10531000E559F04F20813181241B350B232F332792
:10532000A29FF001A39FF00D1124E40FF51FFD8B48
:10533000EC8B7BCFAB89A295AF70088119812A8154
:105340003B81F32F000F111F221F331FEF2FEE1F82
:10535000EE27EE1FBF2FB295B695B770EB27EF275C
:10536000F695EF27E1700E2BA15058F708831983AB
:105370002A833B83F8011D8B0C8B57CF33272F2DAE
:105380001E2D0D2DF8011D8B0C8B4FCFCC24CA94F4
:10539000DC2CEC2CF12C8ECF223009F03DCF0E947A
:1053A000A3677D8B6C8B2A8D6C857D858E859F8513
:1053B000CC80DD80EE80FF802FCF2EEF31E0A0CFBC
:1053C0001F93CF93DF9335E03A95F1F7000066EC39
:1053D00061BB469AF0EEF7B917E01AB9FDB915B8F6
:1053E00070E478B91BB8E0E2EEB9D7E4D1BB52E083
:1053F0005A95F1F700C046B199B18CB161BB479A9B
:10540000C7EEC7B9B7EFBAB9A2EEADB9242F26954A
:10541000237030E8439FA0011124242B392F3071D1
:10542000232B392F369536953870232B9695907609
:10543000292B90E0880F991F84709927282B30E042
:1054400055E05A95F1F7000061BB469AF7B91AB9D1
:10545000FDB915B878B91BB8EEB9D1BB82E08A9511
:10546000F1F700C046B1F9B18CB161BB479AC7B939
:10547000BAB9ADB961BB469A15B878B91BB8EEB9DF
:1054800097E891BB55E05A95F1F7000061BB469A49
:1054900015B878B91BB8EEB991BB55E05A95F1F73C
:1054A000000061BB469A15B852E458B91BB87EB9E2
:1054B00091BB55E05A95F1F7000061BB469A15B8CB
:1054C00078B91BB87EB991BB95E09A95F1F70000C9
:1054D000642F6695637090E8499FA0011124642BA6
:1054E0009F2F9071692B9F2F969596959870692B99
:1054F0009F2F96959076692B90E0880F991F847066
:105500009927562F582B40E0242B352B209530958A
:10551000C901DF91CF911F910895CF92DF92EF9251
:10552000FF920F931F93CF93DF938091D30DC82FDA
:10553000CC0FC80FCF5F6091D20D87E19DE00E9434
:1055400053536C2F87E19DE00E941B504091C20D88
:105550005091C30D6091C40D7091C50D4F3F2FEF59
:1055600052076207720709F4DCC0809144099091E8
:105570004509A0914609B09147092091C60D309187
:10558000C70D6901E12CF12C841B950BA60BB70B01
:105590008C199D09AE09BF09B7FD17C08091440958
:1055A00090914509A0914609B0914709841B950B3C
:1055B000A60BB70B8C199D09AE09BF098F3F91054A
:1055C000A105B10511F00CF07BC0809144099091C8
:1055D0004509A0914609B0914709841B950BA60B7C
:1055E000B70B8C199D09AE09BF09B7FD9AC0809110
:1055F000440990914509A0914609B0914709841B3F
:10560000950B821B930BD82FCC27E090950DF09033
:10561000960D0090DE0D02C0F694E7940A94E2F72E
:1056200040910C0E50910D0E411532E0530708F4D5
:1056300075C0BA0172502091180E3091190E36952E
:10564000279536952795211582E0380708F43BC049
:10565000890112508091E00D882309F43AC09E011F
:10566000AA27629FB12D739FC001369FB00D811D87
:105670009A1F729FB00D811D9A1F112460910A0E0E
:1056800070910B0EAC0187E19DE00E942B50C80188
:10569000809590958E159F0508F046C04FEF5FEFFF
:1056A0006091160E7091170E82E39DE0DF91CF910D
:1056B0001F910F91FF90EF90DF90CF900C942B50A3
:1056C000C0E0DFEFA2CF00E010E08091E00D81119B
:1056D000C6CFCB01809590958E159F0548F54FEF6D
:1056E0005FEF60910A0E70910B0E87E19DE00E94C2
:1056F0002B509E01AA27029FB12D139FC001309FFE
:10570000B00D811D9A1F129FB00D811D9A1F11248B
:105710006091160E7091170EAC01C6CF60E070E07C
:105720008ACFC0E0D0E071CFA8014E0D5F1DB8CF89
:10573000AB014E0D5F1DD5CF8091540F87FD09C081
:105740006F7070E0992787FD90956817790709F0C9
:10575000089580E8289F90011124242B3052220FB5
:10576000331F220F331F3093980D2093970D0E9403
:10577000B0236FEF81E00C944F1A0F931F93CF93D8
:10578000DF931F92CDB7DEB78B0140FD08C041FD0E
:1057900014C00F90DF91CF911F910F9108959093B6
:1057A000980D8093970D49830E94B0236FEF81E09D
:1057B0000E944F1A498141FFECCF1093960D009340
:1057C000950D0F90DF91CF911F910F91A6CE60950F
:1057D000E0E7F1E19081982B6923608386EC81BB3F
:1057E000469A362F330F962F9695262F221F222763
:1057F000221F832F8670282B20646071832F880FCF
:105800008072862B307C832B9270906C31E035B99E
:1058100028B98BB99EB987E881BB85E08A95F1F7F5
:105820000000EFE6F1E180818F5F8083089596ECC0
:1058300091BB469A482F440F282F2695342F367057
:105840003064982F991F9927991F392B8071942FB5
:10585000990F9072982B407C942B2270206615B87B
:1058600038B99BB92EB987E881BB85E08A95F1F7F5
:105870000000089580959091701189238093701194
:1058800096EC91BB469A482F440F282F2695382F27
:10589000331F3327331F942F9670392B3064807158
:1058A000942F990F9072982B407C942B2270206C2F
:1058B00081E085B938B99BB92EB987E881BB85E00D
:1058C0008A95F1F7000080916F118F5F80936F11BF
:1058D00008958091701180618093701196EC91BB56
:1058E000469A382F330F982F9695282F221F22275C
:1058F000221F832F8670282B2064832F880F8072AD
:105900008061307C832B9270906C31E035B928B97E
:105910008BB99EB987E881BB85E08A95F1F70000D5
:1059200080916F118F5F80936F1108958091701136
:1059300081608F7E8093701196EC91BB469A382FD0
:10594000330F982F9695881F8827881F232F26703E
:10595000822B8064232F220F2072307C232B9270A5
:10596000906C31E035B988B92BB99EB987E881BB15
:1059700085E08A95F1F7000080916F118F5F809329
:105980006F110895FF920F931F93CF93DF93EC0154
:10599000F62E1C821D821E821F820E891F896CA119
:1059A0007DA1CB01A0E0B0E077276627980140E019
:1059B00050E00E94E667B9013F8F2E8FF11023C09F
:1059C00084E089A719A218A2AA27209FB12D319F90
:1059D000C001129FB00D811D9A1F309FB00D811D17
:1059E0009A1F11248AA39BA388899989AA89BB89B4
:1059F00088839983AA83BB83FFA2DF91CF911F91F4
:105A00000F91FF90089581E089A7AA27209FB12DCB
:105A1000319FC001129FB00D811D9A1F309FB00DA4
:105A2000811D9A1F112488A399A360957095AA27B8
:105A3000609FB12D719FC001169FB00D811D9A1FEF
:105A4000709FB00D811D9A1F11248AA39BA3888586
:105A50009985AA85BB8588839983AA83BB83FFA286
:105A6000DF91CF911F910F91FF9008958F929F9298
:105A7000AF92BF92CF92DF92EF92FF920F931F935C
:105A8000CF93DF931F92CDB7DEB7B82E7B0149834A
:105A90000E949A4F6B2D81E00E944F1A4981442346
:105AA00029F080911E0B882309F497C08B2D9AE270
:105AB0008902600111243FE1832E3BE0932E8C0C80
:105AC0009D1CF4011482158216821782068917899B
:105AD00064A175A1CB01A0E0B0E07727662798010B
