:100000004BC0000042C2000040C200003EC20000DF
:100010003CC200000C94E45138C2000036C200001B
:1000200034C2000032C200000C94DA510C94D0515A
:100030002CC200002AC2000028C2000026C2000014
:1000400024C2000022C2000020C200001EC2000024
:100050001CC200000C94B25218C2000016C200006C
:1000600014C2000012C2000010C200000EC2000044
:100070000CC200000AC2000008C2000006C2000054
:1000800004C2000002C2000000C20000FEC1000065
:10009000FCC10000FAC1000011241FBECFEFD0E266
:1000A000DEBFCDBF0E9400F0D7C1000005A84CCD37
:1000B000B2D44EB93836A9020C50B9918688083CA2
:1000C000A6AAAA2ABE000000803F08000000BE9237
:1000D0002449123EABAAAA2ABECDCCCC4C3E00008D
:1000E0000080BEABAAAAAA3E00000000BF0000002C
:1000F000803F0000000000084178D3BB4387D11344
:100100003D190E3CC3BD4282AD2B3E68EC8276BEEB
:10011000D98FE1A93E4C80EFFFBE01C4FF7F3F00B5
:100120000000000007634236B79BD8A71A3968560B
:1001300018AEBAAB558C1D3CB7CC5763BD6DEDFD09
:10014000753EF6177231BF000000803FFF004C8AF9
:1001500097509545406BA6D8E4B2282EAE90BF26A6
:10016000B14EE86FD0FBE0709A51862C379845323B
:10017000539D06840D971A8CE61E2E0DB41D401655
:100180009AC591F9F786A142660620AFAE19EE270F
:10019000C2BB0EBAB90AAA95CA45040444C1796A19
:1001A00091EE7D3E2E4C960BA96E5A6A9FF56D0519
:1001B000BB8F808DB4F54FC14AE99E674536394FF4
:1001C00075ADF44CB227A939D78036F7C49C7E6A46
:1001D000605F677992B4DD0E4786CD1A6DC6258AB9
:1001E000F464D953D154DB67F78B22BD5CFEA44D78
:1001F000F9A7590EC57E3BF9BA7D430AD39F6C3BE4
:100200000BDEB2875E3710ECC8A6856546290CF177
:10021000D6BCA38C755E4934200DFAE9D7C7B6A7C2
:10022000988A7C6E6155493D32271D1209FFF6EE12
:10023000E5DDD5CEC6BFB9B2ACA6A09A958F8A85AA
:10024000817C78736F6B6864605D5A56FF59E97DF5
:1002500015B150F39942EE9D4F04BC7632F1B2765F
:100260003B03CC98653405D8AC8259320CE7C4A264
:100270008161432509EDD3B9A089725C46321E0B1A
:10028000F8E6D5C4B4A596887A6D6053473C30260D
:100290001B1108FEF5EDE4DCD4CDC6BFB8B1ABA5AB
:1002A0009F99948F8A85807C77736F6B6763605D9D
:1002B000595653504D4A484543403E3C3A383634EF
:1002C00032302E2D2B2A282725242321201F1E1DC6
:1002D0001C1B1A19181716161514131312111110C6
:1002E0000F0F0E0E0D0D0C0C0B0B0B0A0A09090952
:1002F0000808080807070706060606060505050597
:1003000005040404040404030303030303030302B6
:1003100002020202020202020202010101010101C3
:1003200001010101010101010101010101000000C0
:1003300000000000000000000000000000000000BD
:10034000000000000000000000000000FF0C0B0B8C
:100350000B0A0A090909080808080707070606061C
:100360000606050505050504040404040403030347
:100370000303030303020202020202020202020258
:10038000010101010101010101010101010101015D
:10039000010101000000000000000000000000005A
:1003A000000000000000000000000000000000004D
:1003B000000000000000000000000000000000003D
:1003C000000000000000000000000000000000002D
:1003D000000000000000000000000000000000001D
:1003E000000000000000000000000000000000000D
:1003F00000000000000000000000000000000000FD
:1004000000000000000000000000000000000000EC
:1004100000000000000000000000000000000000DC
:1004200000000000000000000000000000000000CC
:1004300000000000000000000000000000000000BC
:1004400000000000000000000000000011241FBE9A
:10045000CFEFD0E2DEBFCDBF14E1A6E2B7E001C02E
:100460001D92A93BB107E1F717E0A0E0B1E0E2E39C
:10047000F3EC00E00BBF02C007900D92A632B1076B
:10048000D9F70E94E8520C949761BACD2F923F920F
:100490004F925F926F927F928F929F92AF92BF9294
:1004A000CF92DF92EF92FF920F931F93CF93DF9340
:1004B000CDB7DEB762970FB6F894DEBF0FBECDBFE3
:1004C0000E9410188091C60A80FD02C00C94220F71
:1004D00060904F137090501382FD02C00C941E0F59
:1004E00020904F13309050133A8A298AE090E40A02
:1004F000F090E50AC701A0E0B0E09058A109B10969
:100500007C018091C20A882311F40C94F40E0091AE
:10051000F60A1091F70A20E030E01058210931095D
:10052000809150078F3011F40C94FC0E823011F042
:100530000C94320F8091B31481110C94260F45E076
:1005400050E05A87498724E030E03C832B8343E026
:1005500050E05C874B8722E030E03E832D8341E012
:1005600050E058874F8385E491E10E94751A81E439
:1005700092E10E94751A1D8619821E86D12C1F8653
:100580001A828091260790912707A0912807B091A1
:100590002907CFB6F894892B8A2B8B2B11F40C9456
:1005A0000910D1100C944C104091691150916A11AE
:1005B0004301AA2497FCA094BA2CAA27049FB12D2A
:1005C0001503C001509FB00D811D9A1F14039A0B93
:1005D000B00D811D9A1F1124AA2797FDA095BA2F4F
:1005E000880D991DAA1DBB1D2091541330915513E0
:1005F000820F931FA11DB11DB7FF02C00C94A31061
:10060000009731E0A307B10524F08FEF9FEFA0E042
:10061000B0E09C01232F332726952695F22F66EC18
:1006200061BB469AE22FEE0F7E2F767070682071C4
:10063000332722603E2F330F3072322BE07C3E2B6B
:10064000F695F270F06215B878B93BB9FEB937E8A3
:1006500031BB9695879596958795282F61BB469ACD
:10066000E82FEE0F782F7695221F2227221FFE2FCC
:10067000F6702F2B20688071992782609E2F990F2A
:100680009072982BE07C9E2B727015B828B99BB99C
:100690007EB931BB00C000C061BB469A81E085B91C
:1006A00091E498B990ED9BB990EA9EB931BB00C036
:1006B00000C061BB469A85B987E488B980EF8BB9E1
:1006C00082EA8EB931BB809160139091611314015D
:1006D0002501280E391E411C511CD201C10157FEB3
:1006E00002C00C94AD10009721E0A207B10524F0E0
:1006F0008FEF9FEFA0E0B0E01C01892F992786952E
:100700008695782F26EC21BB469A682F660F362FE8
:1007100036703068807199278260962F990F907299
:10072000982B607C962B76957270706215B838B9EC
:100730009BB97EB997E891BB369427943694279459
:10074000822D21BB469A622D660F322D3695881F69
:100750008827881F762F7670872B8068F101E071DB
:10076000FF27E260762F770F70727E2B607C762BEE
:10077000327015B888B97BB93EB991BB00C000C0D2
:1007800021BB469A31E035B985E488B980ED8BB953
:1007900082EA8EB991BB00C000C021BB469A35B930
:1007A00027E428B920EF2BB98EB991BB29883A8864
:1007B0004101AA2497FCA094BA2C9701AA27249F50
:1007C000B12D3503C001529FB00D811D9A1F340316
:1007D0009A0BB00D811D9A1F1124AA2797FDA09591
:1007E000BA2F880E991EAA1EBB1E80916C13909181
:1007F0006D13880E991EA11CB11CB7FE02C00C948B
:10080000A810D501C4018114910431E0A306B104FC
:1008100024F08FEF9FEFA0E0B0E01C01892F992713
:1008200086958695482FF6EC5F2E51BA469A382F5A
:10083000330F232F26702068807199278260932FB1
:10084000990F9072982B307C932B469542704062A2
:1008500015B828B99BB94EB9A7E88A2E81BA369443
:10086000279436942794822D51BA469A222D220F2E
:10087000922D9695881F8827881F322F3670832BDC
:100880008068A101407155274260322F330F3072CA
:10089000342B207C322B927015B888B93BB99EB9A5
:1008A00081BA00C000C051BA469A4424439445B866
:1008B00081E488B980EE8BB982EA382E3EB881BADD
:1008C00000C000C051BA469A45B827E428B990EF55
:1008D000292E2BB83EB881BAA0906512B09066124E
:1008E0006B2D6695669581E090E4288B0E94DC294B
:1008F000B694A794B694A7948A2D51BA469A3A2DE5
:10090000330F9A2D9695881F8827881F432F46708E
:10091000842B8068A50140715527542F5260432FC6
:10092000440F4072452B307C432B927015B888B928
:100930004BB99EB981BA00C000C051BA469A45B8B9
:1009400085E488B980EB8BB980EA8EB981BA00C0A2
:1009500000C051BA469A45B8288928B92BB83EB884
:1009600081BACFBE80912A0790912B07A0912C07C6
:10097000B0912D07CFB6F894892B8A2B8B2B11F4CD
:100980000C94DF0FD1100C9442104F85242F332785
:1009900027FD30958AE2829FF001839FF00D11249C
:1009A000EF5BFE4E40A551A54301AA2497FCA094FD
:1009B000BA2CAA27049FB12D1503B001509FB00D8A
:1009C000611D7A1F14037A0BB00D611D7A1F11246B
:1009D0001B01442437FC4094542C280C391C4A1C1D
:1009E0005B1C8F819885880F991FFC01EF5BFE4E81
:1009F000ED5EFD4F0190F081E02D2E0E3F1E411C5B
:100A0000511C57FE02C00C9482102114310461E085
:100A1000460651042CF022242A94322C412C512CCD
:100A2000B101F101EF2FFF27E695E6954E2EA6ECDA
:100A3000A1BB469A5E2E550CB52DB670B068E0711C
:100A4000FF27E260F52DFF0FF072FE2BE52DE07C15
:100A5000FE2BE42DE695E270E06215B8B8B9FBB95B
:100A6000EEB9F7E8F1BB7695679576956795E62F31
:100A7000A1BB469A562E550CB62FB695EE1FEE2703
:100A8000EE1F0F2EF6E04F2EF02D4520E429E068F2
:100A9000607177276260752D770F7072762B652DE8
:100AA000607C762BB27015B8E8B97BB9BEB9F1BBE2
:100AB00000C000C0A1BB469A61E065B973E478B993
:100AC00070ED7BB970EA7EB9F1BB00C000C0A1BB7C
:100AD000469A65B967E468B960EF6BB962EA6EB9C6
:100AE000F1BBFC01EF5BFE4EE15EFD4F6081718169
:100AF000860E971EA11CB11CB7FE02C00C947D107F
:100B00008114910471E0A706B1042CF088248A9422
:100B1000982CA12CB12CB401672F77276695669588
:100B2000B62FE6ECE1BB469AA62FAA0FFA2FF67075
:100B3000F0686071772762607A2F770F7072762B7A
:100B4000A07C7A2BB695B270B06215B8F8B97BB9B3
:100B5000BEB977E871BB9694879496948794682D74
:100B6000E1BB469AA82DAA0FF82DF695661F6627B9
:100B7000661FBA2FB6706B2B6068B0E18B22992488
:100B8000B2E02B2E8228BA2FBB0FB072B829A07CFE
:100B9000BA2BF27015B868B9BBB9FEB971BB00C009
:100BA00000C0E1BB469AA1E0A5B9F7E4F8B960ED51
:100BB0006BB962EA6EB971BB00C000C0E1BB469A76
:100BC000A5B9F8B9E0EFEBB96EB971BB49885A889D
:100BD0004201AA2497FCA094BA2CB701AA27649FCB
:100BE000B12D7503F001569FB00DE11DFA1F74037E
:100BF000FA0BB00DE11DFA1F1124AF01662757FD56
:100C00006095762F840E951EA61EB71E8F5B9E4E96
:100C1000FC01E55DFD4F80819181880E991EA11C2C
:100C2000B11CB7FE02C00C9469108114910471E0EC
:100C3000A706B1042CF088248A94982CA12CB12CFE
:100C4000C401A401452F552746954695E42FF6EC9F
:100C50009F2E91BA469A742F770F672F667060683F
:100C6000407155274260572F550F5072542B707C9E
:100C7000572BE695E270E06215B868B95BB9EEB93A
:100C8000A7E88A2E81BA9695879596958795482FDD
:100C900091BA469A682F660F582F5695441F4427DD
:100CA000441F762F7670472B4068807199278260A9
:100CB000962F990F9072982B607C962B527015B8D6
:100CC00048B99BB95EB981BA00C000C091BA469AD2
:100CD0005524539455B883E488B980EE8BB982EAE1
:100CE000482E4EB881BA00C000C091BA469A55B895
:100CF00097E4392E38B840EF242E2BB84EB881BA7D
:100D00008AE2829FF001839FF00D1124EB59FD4E82
:100D1000A080B1806B2D6695669581E090E40E947D
:100D2000DC29B501769567957695679580E090E426
:100D30000E94DC2900C000C091BA469A55B838B864
:100D400080EB8BB980EA8EB981BA00C000C091BA3D
:100D5000469A55B838B82BB84EB881BACFBE8091F4
:100D60002E0790912F07A0913007B0913107CFB691
:100D7000F894892B8A2B8B2B11F40C94BA0FD11079
:100D80000C945F102E84222D332727FD30958AE2A4
:100D9000829FF001839FF00D1124EF5BFE4E40A572
:100DA00051A54301AA2497FCA094BA2CAA27049F1A
:100DB000B12D1503B001509FB00D611D7A1F1403B2
:100DC0007A0BB00D611D7A1F11241B01442437FCDE
:100DD0004094542C280C391C4A1C5B1C8D819E812C
:100DE000880F991FFC01EF5BFE4EED5EFD4F0190F9
:100DF000F081E02D2E0E3F1E411C511C57FE02C0FB
:100E00000C946E102114310461E0460651042CF05C
:100E100022242A94322C412C512CB101F101EF2FC4
:100E2000FF27E695E6954E2EA6ECA1BB469A5E2ED0
:100E3000550CB52DB670B068E071FF27E260F52D56
:100E4000FF0FF072FE2BE52DE07CFE2BE42DE695E6
:100E5000E270E06215B8B8B9FBB9EEB9F7E8F1BBDA
:100E60007695679576956795E62FA1BB469A562E9F
:100E7000550CB62FB695EE1FEE27EE1F0F2EF6E09F
:100E80004F2EF02D4520E429E068607177276260DD
:100E9000752D770F7072762B652D607C762BB27076
:100EA00015B8E8B97BB9BEB9F1BB00C000C0A1BBA1
:100EB000469A61E065B975E478B970ED7BB970EA7E
:100EC0007EB9F1BB00C000C0A1BB469A65B967E41A
:100ED00068B960EF6BB962EA6EB9F1BBFC01EF5B18
:100EE000FE4EE15EFD4F60817181860E971EA11C52
:100EF000B11CB7FE02C00C9478108114910471E00B
:100F0000A706B1042CF088248A94982CA12CB12C2B
:100F1000B401672F772766956695B62FE6ECE1BB9F
:100F2000469AA62FAA0FFA2FF670F06860717727FD
:100F300062607A2F770F7072762BA07C7A2BB69531
:100F4000B270B06215B8F8B97BB9BEB977E871BBB9
:100F50009694879496948794682DE1BB469AA82D21
:100F6000AA0FF82DF695661F6627661FBA2FB67072
:100F70006B2B6068B0E18B229924B2E02B2E822883
:100F8000BA2FBB0FB072B829A07CBA2BF27015B87B
:100F900068B9BBB9FEB971BB00C000C0E1BB469ADD
:100FA00061E065B9F1E4F8B9F0EEFBB9F0EAFEB939
:100FB00071BB00C000C0E1BB469A65B967E468B97F
:100FC00060EF6BB962EA6EB971BB49885A88420119
:100FD000AA2497FCA094BA2CB701AA27649FB12D2C
:100FE0007503F001569FB00DE11DFA1F7403FA0B53
:100FF000B00DE11DFA1F1124AF01662757FD609562
:10100000762F840E951EA61EB71E8F5B9E4EFC018A
:10101000E55DFD4F80819181880E991EA11CB11C58
:10102000B7FE02C00C9473108114910471E0A706FE
:10103000B1042CF088248A94982CA12CB12CC401E2
:10104000A401452F552746954695E42FB6EC9B2ED7
:1010500091BA469A742F770F672F66706068407157
:1010600055274260572F550F5072542B707C572BC9
:10107000E695E270E06215B868B95BB9EEB947E889
:10108000842E81BA9695879596958795482F91BA23
:10109000469A682F660F582F5695441F4427441FC1
:1010A000762F7670472B4068807199278260962F43
:1010B000990F9072982B607C962B527015B848B996
:1010C0009BB95EB981BA00C000C091BA469A442467
:1010D000439445B885E488B980EE8BB962EA562E10
:1010E0005EB881BA00C000C091BA469A45B877E4AC
:1010F000272E28B8E0EF3E2E3BB85EB881BA8AE2D0
:10110000829FF001839FF00D1124EB59FD4EA080CA
:10111000B1806B2D6695669581E090E40E94DC2994
:10112000B501769567957695679580E090E40E9485
:10113000DC2900C000C091BA469A45B881E488B95C
:1011400080EB8BB95EB881BA00C000C091BA469AF4
:1011500045B828B83BB85EB881BACFBE8091320797
:1011600090913307A0913407B0913507CFB6F8942A
:10117000892B8A2B8B2B09F4D8C6D11097C72980CD
:10118000332427FC30943E822D8239812AE2329F1B
:10119000D0011124AF5BBE4E98962D913C9199974A
:1011A0004301AA2497FCA094BA2CAA27029FB12D30
:1011B0001303A001309FB00D411D5A1F12035A0B9B
:1011C000B00D411D5A1F11241A01442437FC4094CC
:1011D000542C280C391C4A1C5B1C8B859C85880F61
:1011E000991FDC01AC5ABC4E6D917C91260E371EC6
:1011F000411C511C57FE01C0B9C7B201A101211405
:101200003104A1E04A06510424F04FEF5FEF60E0A3
:1012100070E0BA01672F772766956695462EA6EC93
:10122000A1BB469A562E550CB52DB670B0686071AC
:1012300077276260752D770F7072762B652D607C35
:10124000762B642D66956270606215B8B8B97BB96B
:101250006EB977E871BB5695479556954795642FBB
:10126000A1BB469A542E550CB42FB695661F66271F
:10127000661FE6E04E2E45206429606840715527C0
:101280004260552D550F5072542B452D407C542BE8
:10129000B27015B868B95BB9BEB971BB00C000C007
:1012A000A1BB469A51E055B947E448B960ED6BB926
:1012B00060EA6EB971BB00C000C0A1BB469A55B9C7
:1012C00048B940EF4BB942EA4EB971BBDC01A05AB4
:1012D000BC4E4D915C91840E951EA11CB11CB7FCB7
:1012E00041C781149104B1E0AB06B1042CF088240D
:1012F0008A94982CA12CB12CA401452F55274695F2
:101300004695B42F66EC61BB469AA42FAA0F7A2F9C
:10131000767070684071552742605A2F550F507291
:10132000542BA07C5A2BB695B270B06215B878B920
:101330005BB9BEB957E851BB96948794969487944D
:10134000482D61BB469AA82DAA0F782D7695441F8B
:101350004427441FBA2FB6704B2B4068E0E18E2221
:101360009924F2E08F2ABA2FBB0FB072B829A07C63
:10137000BA2B727015B848B9BBB97EB951BB00C061
:1013800000C061BB469A41E045B973E478B970EE9C
:101390007BB970EA7EB951BB00C000C061BB469A00
:1013A00045B947E448B940EF4BB942EA4EB951BBA1
:1013B00029883A884101AA2497FCA094BA2CB70145
:1013C000AA27629FB12D7303A001369FB00D411D66
:1013D0005A1F72035A0BB00D411D5A1F1124662764
:1013E00057FD6095762F840E951EA61EB71EDC0154
:1013F000A459BC4E8D919C91880E991EA11CB11CC4
:10140000B7FC85C68114910471E0A706B1042CF0E5
:1014100088248A94982CA12CB12CC4019401232FE8
:10142000332726952695622FF6ECBF2EB1BA469A41
:10143000522F550F452F4670406820713327226088
:10144000352F330F3072322B507C352B262F2695BB
:101450002270206215B848B93BB92EB9A7E8AA2E68
:10146000A1BA9695879596958795282FB1BA469AF1
:10147000482F440F382F3695221F2227221F542F22
:101480005670252B2068807199278260942F990FC0
:101490009072982B407C942B327015B828B99BB968
:1014A0003EB9A1BA00C000C0B1BA469A882483945C
:1014B00085B887E4582E58B880EE8BB992EA992EF9
:1014C0009EB8A1BA00C000C0B1BA469A85B858B853
:1014D00020EF422E4BB89EB8A1BA8AE2ED81FE8180
:1014E0008E9FD0018F9FB00D1124AB59BD4E6D91D1
:1014F0007C91CB01892F992786958695482FB1BA83
:10150000469A382F330F232F267020688071992731
:101510008260932F990F9072982B307C932B469575
:101520004270406215B828B99BB94EB9A1BA7695F8
:1015300067957695679580E090E40E94DC2900C06D
:1015400000C0B1BA469A85B883E488B980EB8BB9FC
:101550009EB8A1BA00C000C0B1BA469A85B858B8C2
:101560004BB89EB8A1BACFBE80913607909137078D
:10157000A0913807B0913907CFB6F894892B8A2B00
:101580008B2B09F4ADC4D11074C52D84222D3327C3
:1015900027FD30958AE2829FF001839FF00D112490
:1015A000EF5BFE4E40A551A54301AA2497FCA094F1
:1015B000BA2CAA27049FB12D1503B001509FB00D7E
:1015C000611D7A1F14037A0BB00D611D7A1F11245F
:1015D0001B01442437FC4094542C280C391C4A1C11
:1015E0005B1C8B819C81880F991FFC01EF5BFE4E79
:1015F000ED5EFD4F0190F081E02D2E0E3F1E411C4F
:10160000511C57FC88C52114310461E04606510481
:101610002CF022242A94322C412C512CB101F101BE
:10162000EF2FFF27E695E6954E2EA6ECA1BB469A36
:101630005E2E550CB52DB670B068E071FF27E260E4
:10164000F52DFF0FF072FE2BE52DE07CFE2BE42D37
:10165000E695E270E06215B8B8B9FBB9EEB9F7E803
:10166000F1BB7695679576956795E62FA1BB469A6F
:10167000562E550CB62FB695EE1FEE27EE1F0F2EE9
:10168000F6E04F2EF02D4520E429E06860717727C1
:101690006260752D770F7072762B652D607C762BCE
:1016A000B27015B8E8B97BB9BEB9F1BB00C000C0D3
:1016B000A1BB469A71E075B961E468B960ED6BB998
:1016C00062EA6EB9F1BB00C000C0A1BB469A75B911
:1016D00077E478B970EF7BB96EB9F1BBFC01EF5BD1
:1016E000FE4EE15EFD4F60817181860E971EA11C4A
:1016F000B11CB7FC18C58114910471E0A706B104B0
:101700002CF088248A94982CA12CB12CB401672F3A
:10171000772766956695B62FE6ECE1BB469AA62F2D
:10172000AA0FFA2FF670F0686071772762607A2F3F
:10173000770F7072762BA07C7A2B6B2F6695627078
:10174000606215B8F8B97BB96EB9F7E8F1BB969449
:10175000879496948794782DE1BB469AB82DBB0F59
:10176000A82DA695771F7727771F6B2F6670762B8E
:10177000706860E18622992462E0262E82286B2F11
:10178000660F60726829B07C6B2BA27015B878B9AF
:101790006BB9AEB9F1BB00C000C0E1BB469A61E0D5
:1017A00065B975E478B970EE7BB970EA7EB9F1BBC2
:1017B00000C000C0E1BB469A65B967E468B960EF54
:1017C0006BB962EA6EB9F1BB49885A884201AA2412
:1017D00097FCA094BA2CB701AA27649FB12D75037A
:1017E000F001569FB00DE11DFA1F7403FA0BB00D06
:1017F000E11DFA1F1124AF01662757FD6095762F72
:10180000840E951EA61EB71E8F5B9E4EFC01E55DE5
:10181000FD4F80819181880E991EA11CB11CB7FCDF
:101820007EC48114910471E0A706B1042CF08824D1
:101830008A94982CA12CB12CC401B401672F77276E
:1018400066956695A62F56EC51BB469AF62FFF0F6C
:10185000EF2FE670E0686071772762604F2F440FCA
:101860004072462BF07C4F2B6A2F66956270606247
:1018700015B8E8B94BB96EB947E841BB969587955D
:1018800096958795682F51BB469AE82FEE0F782FD3
:101890007695661F6627661FFE2FF6706F2B6068B1
:1018A0008071992782609E2F990F9072982BE07C0F
:1018B0009E2B727015B868B99BB97EB941BB00C048
:1018C00000C051BB469A61E065B981E488B970EB0C
:1018D000B72EBBB880EA8EB941BB00C000C051BB77
:1018E000469A65B9B7E4B8B9A0EFABB972EA7EB968
:1018F00041BB8AE2829FF001839FF00D1124EB59D6
:10190000FD4E808191819C01232F332726952695BA
:10191000A22E51BB469AF22FFF0FEF2FE670E06820
:101920002071332722603F2F330F3072322BF07C2F
:101930003F2B2A2D26952270206215B8E8B93BB9B5
:101940002EB941BB9695879596958795282F51BBC3
:10195000469AE82FEE0F382F3695221F2227221F96
:10196000FE2FF6702F2B20688071992782609E2FA2
:10197000990F9072982BE07C9E2B327015B828B985
:101980009BB93EB941BB00C000C051BB469A65B986
:1019900085E488B9BBB87EB941BB00C000C051BB6B
:1019A000469A65B9B8B9ABB97EB941BBCFBE809193
:1019B0003A0790913B07A0913C07B0913D07CFB605
:1019C000F894892B8A2B8B2B09F466C2D11048C35B
:1019D0002A80822D992787FD90952AE2229EF00188
:1019E0001124EF5BFE4E20A531A54301AA2497FCEC
:1019F000A094BA2CAA27029FB12D1303A001309FF7
:101A0000B00D411D5A1F12035A0BB00D411D5A1F34
:101A100011242A01662457FC6094762C480C591C2A
:101A20006A1C7B1CE985FA85EE0FFF1FDF01AC5AAB
:101A3000BC4E6D917C91460E571E611C711C77FC4B
:101A40007EC3B301A20141145104A1E06A067104EE
:101A500024F04FEF5FEF60E070E01A01452F55274B
:101A600046954695B42F76EC71BB469AA42FAA0FE3
:101A70006A2F667060684071552742605A2F550F73
:101A80005072542BA07C5A2B4B2F469542704062CB
:101A900015B868B95BB94EB9A7E8A1BBA1015695C5
:101AA000479556954795642F71BB469A142F110F91
:101AB000B42FB695661F6627661F012F0670602B30
:101AC0006068407155274260512F550F5072542B5A
:101AD000107C512BB27015B868B95BB9BEB9A1BB07
:101AE00000C000C071BB469A51E055B943E448B903
:101AF00040ED4BB942EA4EB9A1BB00C000C071BB7A
:101B0000469A55B957E458B950EF5BB94EB9A1BBE5
:101B1000DF01A05ABC4E4D915C9114012501240EA9
:101B2000351E411C511CB201A10157FC04C34115D3
:101B3000510501E06007710524F04FEF5FEF60E0B1
:101B400070E03A01452F552746954695B42FA6ECEF
:101B5000A1BB469A742F770F672F6670606840713B
:101B600055274260572F550F5072542B707C572BBE
:101B70004B2F46954270406215B868B95BB94EB9B3
:101B800077E871BBA3015695479556954795642F05
:101B9000A1BB469A142F110FB42FB695661F662766
:101BA000661F012F0670602B6068407155274260E8
:101BB000512F550F5072542B107C512BB27015B809
:101BC00068B95BB9BEB971BB00C000C0A1BB469A81
:101BD00051E055B947E448B960EE6BB960EA6EB9B7
:101BE00071BB00C000C0A1BB469A55B948B940EFCF
:101BF0004BB942EA4EB971BB29883A88A1016627E0
:101C000057FD6095762F8701AA27029FB12D1303F8
:101C10005001309FB00DA11CBA1E1203BA0AB00DBC
:101C2000A11CBA1E11248501222717FD2095322FF1
:101C3000400F511F621F731FE459FC4E20813181F8
:101C4000420F531F611D711D77FD71C24115510572
:101C500011E06107710524F04FEF5FEF60E070E085
:101C60009A01232F332726952695E22F06EC01BBF8
:101C7000469A722F770F672F66706068207133273E
:101C80002260372F330F3072322B707C372B2E2F80
:101C900026952270206215B868B93BB92EB917E8AD
:101CA00011BBFA01F695E795F695E7953E2F01BB36
:101CB000469A6E2F660F5E2F5695331F3327331FBC
:101CC000262F2670322B3068E071FF274E2F42609E
:101CD000262F220F2072242B607C262B527015B8E1
:101CE00038B92BB95EB911BB00C000C001BB469A20
:101CF000FF24F394F5B823E428B9E0EBAE2EABB89B
:101D000020EA2EB911BB00C000C001BB469AF5B84D
:101D1000F7E4DF2ED8B8A0EFBA2EBBB8B2EAEB2EAC
:101D2000EEB811BB2AE2289FF001299FF00D112483
:101D3000EB59FD4E80809180692D6695669581E016
:101D400090E40E94DC29B4017695679576956795B5
:101D500080E090E40E94DC2900C000C001BB469AEC
:101D6000F5B8D8B8ABB8EEB811BB00C000C001BB25
:101D7000469AF5B8D8B8BBB8EEB811BBCFBE409103
:101D80005107942F9C7111E009F010E0942F93708B
:101D9000923009F401C4933009F4F5C3913009F489
:101DA000E9C18091C60A82700E942C2F4091510790
:101DB0004F5F4093510762960FB6F894DEBF0FBE97
:101DC000CDBFDF91CF911F910F91FF90EF90DF90EA
:101DD000CF90BF90AF909F908F907F906F905F90CB
:101DE0004F903F902F90089500E010E080915007B1
:101DF0008F3011F00C94960224E02D8733E0398364
:101E000042E04E8724E030E03C832B83DD24DA94EB
:101E100031E03F8743E050E05C874B8722E030E0D1
:101E20003E832D8335E03A8341E050E058874F836D
:101E300025E030E03A8729870C94C1021A8A198A72
:101E40000C947602612C712C0C946C021A86198603
:101E50001C821B821C861B861E821D8218861F8286
:101E60000C94B302833011F40C949A0225E030E014
:101E70003A87298744E050E05C834B8323E030E0DD
:101E80003C872B8742E050E05E834D8321E030E0C9
:101E900038872F830C94B30260E081E090E40E94C5
:101EA000DC2960E080E090E40E94DC2900C000C0F2
:101EB00046EC41BB469A31E035B927E428B980EBBE
:101EC0008BB992EA9EB987E881BB00C000C041BBD4
:101ED000469A35B928B920EF2BB99EB981BB4ECFB0
:101EE00060E081E090E40E94DC2960E080E090E422
:101EF0000E94DC2900C000C036EC31BB469A21E0CC
:101F000025B985E488B980EB8BB992EA9EB987E858
:101F100081BB00C000C031BB469A25B927E428B96F
:101F200020EF2BB99EB981BB41CD60E081E090E408
:101F30000E94DC2960E080E090E40E94DC2900C07F
:101F400000C036EC31BB469A21E025B983E488B95C
:101F500080EB8BB992EA9EB987E881BB00C000C0D4
:101F600031BB469A25B927E428B920EF2BB99EB991
:101F700081BBF9CA60E081E090E40E94DC2960E066
:101F800080E090E40E94DC2900C000C036EC31BB48
:101F9000469A21E025B981E488B980EB8BB992EAB1
:101FA0009EB987E881BB00C000C031BB469A25B905
:101FB00027E428B920EF2BB99EB981BBCEC860E0D9
:101FC00081E090E40E94DC2996EC91BB469A15B81A
:101FD00080E888B982E08BB91EB887E881BB00C071
:101FE00000C091BB469A31E035B927E428B940EBEF
:101FF0004BB940EA4EB981BB00C000C091BB469AC4
:1020000035B928B990EF9BB992EA9EB981BB0C947F
:10201000AE0660E081E090E40E94DC2960E080E0B0
:1020200090E40E94DC2900C000C026EC21BB469A47
:1020300091E095B985E488B980EB8BB980EA8EB9D7
:1020400087E881BB00C000C021BB469A95B997E4E0
:1020500098B990EF9BB992EA9EB981BB0C94B104F8
:1020600087E192E10E94751A83E193E10E94751A5B
:10207000AFCC8DEE91E10E94751A89EE92E10E943B
:10208000751A83CA8FE691E10E94751A8BE692E178
:102090000E94751A0C94C50485E491E10E94751A9A
:1020A00081E492E10E94751A0C94D40283EC91E1D0
:1020B0000E94751A8FEB92E10E94751A60C889E937
:1020C00091E10E94751A85E992E10E94751A0C94BB
:1020D000C206812C912C54010C941506212C312C14
:1020E00021010C940207812C912C54010C941408AA
:1020F000812C912C54010C947D07812C912C54013E
:102100000C948005212C312C21010C940505812C87
:10211000912C540177C9212C312C210174CA812CB6
:10212000912C54017ECB812C912C5401E4CA40E0C7
:1021300050E0BA018BCD40E050E0BA01F8CC412C20
:10214000512C32017ECC80E090E0DC010C94000345
:10215000812C912C54010C94010480E090E0DC016E
:102160000C947303812C912C5401BBC8212C312C6D
:10217000210143C880912F0A811138C28091B31484
:10218000882309F415CE8091B1149091B214609116
:1021900078137091791320915413309155132617A9
:1021A000370708F416C26217730770F4D901A61B2B
:1021B000B70BBD018A179B0708F4BC01261B370B20
:1021C00030935513209354136091841370918513A9
:1021D00020916013309161132617370708F451C21C
:1021E0006217730770F4F901E61BF70BBF018E1736
:1021F0009F0708F4BC01261B370B30936113209313
:102200006013609190137091911320916C13309131
:102210006D132617370708F427C26217730770F487
:102220001901261A370AB1018215930508F4BC0179
:10223000261B370B30936D1320936C1360917A1328
:1022400070917B132091561330915713261737073F
:1022500008F44BC26217730770F42901461A570A33
:10226000B2018415950508F4BC01261B370B309389
:102270005713209356136091861370918713209102
:102280006213309163132617370708F421C26217CF
:10229000730770F43901661A770AB301861597053A
:1022A00008F4BC01261B370B309363132093621391
:1022B000609192137091931320916E1330916F136C
:1022C0002617370708F4F7C16217730770F48901FE
:1022D000061B170BB8018017910708F4BC01261BD9
:1022E000370B30936F1320936E1360917C137091B2
:1022F0007D1320915813309159132617370708F48E
:10230000CDC16217730770F4D901A61BB70BBD01CD
:102310008A179B0708F4BC01261B370B309359130F
:10232000209358136091881370918913209164133E
:10233000309165132617370708F43FC262177307F9
:1023400070F4F901E61BF70BBF018E179F0708F425
:10235000BC01261B370B30936513209364136091E7
:102360009413709195132091701330917113261767
:10237000370708F415C26217730770F41901261A9B
:10238000370AB1018215930508F4BC01261B370BEF
:10239000309371132093701360917E1370917F13AB
:1023A00020915A1330915B132617370708F4EBC1BD
:1023B0006217730770F42901461A570AB20184158F
:1023C000950508F4BC01261B370B30935B13209353
:1023D0005A1360918A1370918B1320916613309178
:1023E00067132617370708F4C1C16217730770F423
:1023F0003901661A770AB3018615970508F4BC01FE
:10240000261B370B30936713209366136091961346
:102410007091971320917213309173132617370719
:1024200008F497C16217730770F48901061B170B34
:10243000B8018017910708F4BC01261B370B3093B5
:102440007313209372136091801370918113209104
:102450005C1330915D132617370708F46DC16217BE
:10246000730770F4D901A61BB70BBD018A179B0730
:1024700008F4BC01261B370B30935D1320935C13CB
:1024800060918C1370918D132091681330916913B2
:102490002617370708F443C16217730770F4F90170
:1024A000E61BF70BBF018E179F0708F4BC01261B24
:1024B000370B3093691320936813609198137091D0
:1024C000991320917413309175132617370708F468
:1024D00019C16217730770F41901261A370AB1017E
:1024E0008215930508F4BC01261B370B3093751336
:1024F00020937413609182137091831320915E1363
:1025000030915F132617370708F09BC0621B730BCF
:102510008617970708F4BC01620F731F70935F134F
:1025200060935E1360918E1370918F1320916A13E4
:1025300030916B132617370708F070C0621B730BBE
:102540008617970708F4BC01620F731F70936B1313
:1025500060936A1360919A1370919B132091761384
:10256000309177132617370708F045C0621B730BAD
:102570008617970708F4BC01620F731F70937713D7
:102580006093761315CC812F0E940334812F0E9413
:10259000AB31409151070CCC111118C00E94491D5C
:1025A0008091411190914211A0914311B091441139
:1025B0000196A11DB11D8093411190934211A093EA
:1025C0004311B093441140915107F2CB0E94AB2DBF
:1025D000E5CF621B730B8617970708F4BC01620FE7
:1025E000731F7093551360935413EECD0E94555191
:1025F00040915107DDCB6217730708F0D9CB8901F1
:10260000061B170BB8018017910708F4BC01261BA5
:10261000370B3093771320937613CACB6217730767
:1026200008F098CF3901661A770AB3018615970525
:1026300008F4BC01261B370B30936B1320936A13ED
:1026400089CF6217730708F06DCF2901461A570A20
:10265000B2018415950508F4BC01261B370B309395
:102660005F1320935E135ECF621B730B8617970771
:1026700008F4BC01620F731F70936D1360936C13A9
:10268000DDCD621B730B8617970708F4BC01620F40
:10269000731F7093611360936013B3CD621B730B50
:1026A0008617970708F4BC01620F731F70935913C4
:1026B0006093581337CE621B730B8617970708F485
:1026C000BC01620F731F70936F1360936E130DCE76
:1026D000621B730B8617970708F4BC01620F731F08
:1026E0007093631360936213E3CD621B730B8617C1
:1026F000970708F4BC01620F731F70935713609320
:102700005613B9CD621B730B8617970708F4BC01EB
:10271000620F731F7093751360937413EBCE621B7B
:10272000730B8617970708F4BC01620F731F709331
:10273000691360936813C1CE621B730B86179707EA
:1027400008F4BC01620F731F70935D1360935C13F8
:1027500097CE621B730B8617970708F4BC01620FB4
:10276000731F70937313609372136DCE621B730BA0
:102770008617970708F4BC01620F731F70936713E5
:102780006093661343CE621B730B8617970708F49A
:10279000BC01620F731F70935B1360935A1319CEC1
:1027A000621B730B8617970708F4BC01620F731F37
:1027B0007093711360937013EFCD621B730B8617C8
:1027C000970708F4BC01620F731F70936513609341
:1027D0006413C5CD2F923F924F925F926F927F927A
:1027E0008F929F92AF92BF92CF92DF92EF92FF9221
:1027F0000F931F93CF93DF9300D000D01F92CDB7DC
:10280000DEB79FB7F89426E637E0F901108247E675
:1028100057E0FA011082E4E6F7E011821082ECE65C
:10282000F7E0108260E071E0E2E6F7E07183608338
:102830001092B10A1092B00AEAEBFAE0808181604E
:1028400080831FB7F894808166EC61BB469A782F2D
:10285000770FA82FA695B72FB670B064082F001F6A
:102860000027001FB02B082F0071872F880F807260
:10287000802B707C872BA270A06671E075B9B8B907
:102880008BB9AEB987E881BB1FBFA081AD7FA083A4
:102890001FB7F894A08161BB469AEA2EEE0CBA2FBE
:1028A000B69506E0F02EFE2000E4F02A0A2F001F65
:1028B0000027001FF02A0A2F0071AE2DAA0FA07268
:1028C000A02B0E2D007CA02BB270B06675B9F8B8A5
:1028D000ABB9BEB981BB1FBFA081A860A0831FB7E1
:1028E000F894A08161BB469AEA2EEE0CBA2FB695F9
:1028F00006E0F02EFE2000E4F02A0A2F001F002739
:10290000001FF02A0A2F0071AE2DAA0FA072A02B73
:102910000E2D007CA02BB270B06675B9F8B8ABB9BB
:10292000BEB981BB1FBFA081AF7EA0831FB7F89443
:10293000A08161BB469AEA2EEE0CBA2FB69506E04E
:10294000F02EFE2000E4F02A0A2F001F0027001FAF
:10295000F02A0A2F0071AE2DAA0FA072A02B0E2D07
:10296000007CA02BB270B06675B9F8B8ABB9BEB92F
:1029700081BB1FBFA081AF7DA0831FB7F894A0814A
:1029800061BB469AEA2EEE0CBA2FB69506E0F02E01
:10299000FE2000E4F02A0A2F001F0027001FF02A63
:1029A0000A2F0071AE2DAA0FA072A02B0E2D007C55
:1029B000A02BB270B06675B9F8B8ABB9BEB981BB1F
:1029C0001FBFA081AF7BA0831FB7F894A08161BB1C
:1029D000469AEA2EEE0CBA2FB69506E0F02EFE20AF
:1029E00000E4F02A0A2F001F0027001FF02A0A2FF8
:1029F0000071AE2DAA0FA072A02B0E2D007CA02B73
:102A0000B270B06675B9F8B8ABB9BEB981BB1FBFBB
:102A1000A081AB7FA0831FB7F894A08161BB469AC9
:102A2000BA2FBB0FEA2FE695FB2FF670F0646A2FE2
:102A3000661F6627661FF62BA0716B2F660F6072EC
:102A40006A2BB07C6B2BE270E06675B9F8B96BB994
:102A5000EEB981BB1FBFE6EBFAE011821082109243
:102A6000B30A1092B20A1092B90A1092B80A1092E0
:102A7000AB0A1092AA0A1092B50A1092B40A80E327
:102A800029833A834B835C839D832ED480E72CD4A7
:102A900082EB2AD4E6EBFAE01182108282E9682EFA
:102AA0008AE0782ECC24CA94DC2CF301D182C08237
:102AB00094E9892E9AE0992EF401D182C08226E908
:102AC000A22E2AE0B22EF501D182C082E8E9FAE016
:102AD000D182C0823AE9432E3AE0532EF201D182EC
:102AE000C0824CE9242E4AE0342EF101D182C0820A
:102AF0005CEAE52E5AE0F52EF701D182C0820EEA9B
:102B00001AE0F8011182108262E180E00E94803CAC
:102B100063E181E00E94803C64E182E00E94803CAD
:102B200065E183E00E94803C66E184E00E94803C95
:102B300067E185E00E94803CF70111821082F80174
:102B4000D182C08262E186E00E94803C63E187E03E
:102B50000E94803C64E188E00E94803C65E189E05D
:102B60000E94803C66E18AE00E94803C67E18BE045
:102B70000E94803CF70111821082F80111821082BC
:102B8000E6EBFAE0D182C082F30111821082F401F7
:102B900011821082F50111821082E8E9FAE01182B7
:102BA0001082F20111821082F1011182108262E121
:102BB0008CE00E94803C63E18DE00E94803C64E1F7
:102BC0008EE00E94803C65E18FE00E94803C66E1DF
:102BD00080E10E94803C67E181E10E94803CE6EB5D
:102BE000FAE01182108210929F0A10929E0A1092AF
:102BF000A10A1092A00A1092A30A1092A20A10929F
:102C0000A50A1092A40A1092A70A1092A60A10927E
:102C1000A90A1092A80A2FD029813A81F9011082BD
:102C20004B815C81FA011082E2E6F7E011821082AA
:102C3000E4E6F7E011821082ECE6F7E010820E94F1
:102C4000B74C9D819FBF0F900F900F900F900F90EA
:102C5000DF91CF911F910F91FF90EF90DF90CF9078
:102C6000BF90AF909F908F907F906F905F904F90AC
:102C70003F902F900895BF92CF92DF92EF92FF92F4
:102C80000F931F93CF93DF93EAE7FAE070E048E0F9
:102C900050E0B6ECA7E8C1E007E480EFB82E92EA76
:102CA000E92E81919191272F2695269526956A01E7
:102CB00002C0CC0CDD1C2A95E2F76C2D6095687F74
:102CC000272F2770622BFFB6F8949C01232F332700
:102CD00026952695C22EB1BB469A122F110FD12FE1
:102CE000D670D068207133272260312F330F3072B5
:102CF000322B212F207C322B2C2D26952270206206
:102D000015B8D8B93BB92EB9A1BB969587959695BC
:102D10008795282FB1BB469AD82FDD0F382F3695CF
:102D2000221F2227221F16E0D12EDD222D29206806
:102D30008071992782609D2F990F9072982B8D2F0B
:102D4000807C982B327015B828B99BB93EB9A1BBCD
:102D500085E08A95F1F70000B1BB469A262F220F35
:102D6000962F9695362F331F3327331F822F867069
:102D7000382B30646071822F880F8072862B207C04
:102D8000822B9270906AC5B938B98BB99EB9A1BB34
:102D90008AE08A95F1F700C0B1BB469AC5B908B977
:102DA000BBB8EEB8A1BB8AE08A95F1F700C0FFBEC0
:102DB0007F5F703209F075CF4FB7F8948091BA0AEF
:102DC00096EC91BB469A382F330F982F9695232F68
:102DD00026702064582F551F5527551F252B582F17
:102DE0005071832F880F8072852B307C832B9270DB
:102DF000906631E035B928B98BB99EB987E881BBB7
:102E00004FBFDF91CF911F910F91FF90EF90DF9017
:102E1000CF90BF90089580912F0C8F7781F46091AF
:102E2000A307663008F4A6C06C3008F09EC0655D4C
:102E300082E60E94BC2981E00E94AB311CDF4091F8
:102E4000A307E42FF0E0EE0FFF1FE658F54F2081B7
:102E50003181542F56955695569588E090E001C0E3
:102E6000880F5A95EAF78095887F4770842BAFB713
:102E7000F894A901452F552746954695F42F66EC01
:102E800061BB469AE42FEE0F7E2F7670706840711A
:102E9000552742609E2F990F9072942BE07C9E2BB9
:102EA0004F2F46954270406215B878B99BB94EB91C
:102EB00057E851BB3695279536952795422F61BB2C
:102EC000469AE22FEE0F722F7695441F4427441F37
:102ED0009E2F9670492B40682071332722609E2FC9
:102EE000990F9072922BE07C9E2B727015B848B9A6
:102EF0009BB97EB951BB95E09A95F1F7000061BB93
:102F0000469A482F440F282F2695382F331F3327F2
:102F1000331F942F9670392B30648071942F990F42
:102F20009072982B407C942B2270206A81E085B9A6
:102F300038B99BB92EB951BB9AE09A95F1F700C008
:102F400061BB469A85B987E488B980EF8BB982EA7C
:102F50008EB951BB8AE08A95F1F700C0AFBF80916E
:102F60002F0C8F5F80932F0C08956B5D86E60E9477
:102F7000BC2961CF6F5C81E60E94BC295CCF8F9237
:102F80009F92AF92BF92CF92DF92EF92FF920F93F8
:102F90001F93CF93DF93C0E3D5E706EC10EEE7E095
:102FA0008E2E99249394F0E4AF2EA0E2BA2EB7E4CB
:102FB000CB2E87EED82E97EFE92E22EEF22E02C00E
:102FC0002097E1F028DF01BB469A17B98AB81DB9EE
:102FD00095B8A8B81BB8BEB8C1BA82E08A95F1F717
:102FE00000C086B199B19CB101BB479AD7B8EAB885
:102FF000FDB8219782FDE4CFCD2B29F480914010BC
:103000008F5F80934010DF91CF911F910F91FF90C0
:10301000EF90DF90CF90BF90AF909F908F900895EA
:103020000F931F938091411390914213A0914313EA
:10303000B09144134B2F552766277727452B462BF6
:10304000472B09F05AC020915313233009F464C070
:103050002430A0F5213009F4B4C0E0914D13F09173
:103060004E13409145135091461360914713709150
:103070004813480F591F6A1F7B1F409341135093F9
:10308000421360934313709344139F0140E050E058
:10309000305841095109A0914913B0914A130E9437
:1030A0003E612FEF3FEF40E050E00E944E613093D1
:1030B000501320934F131F910F910895243009F45A
:1030C00051C0253051F6AC01BD0139E076956795C8
:1030D000579547953A95D1F7FA0150934E1340937F
:1030E0004D1320915213222309F4BBCFE095F095A4
:1030F000F0934E13E0934D13B4CF0E94902780912C
:10310000411390914213A0914313B0914413209125
:103110005313233009F09CCF692FEA2FAF3F09F4F6
:103120005AC02A2F2F5F30E0220F331FF0E0EE0F3E
:10313000FF1FEC55F84F40815181F901EC55F84FD4
:1031400020813181241B350B232F3327629FF0010F
:10315000639FF00D1124E40FF51FF0934E13E093DD
:103160004D137FCFE0914C13E295EF7000913D132A
:1031700010913E1320913F1330914013732F000F95
:10318000111F221F331F672F661F6627661FF72F29
:10319000F295F695F7706F27672776956727617028
:1031A000062BE15058F700933D1310933E132093E4
:1031B0003F1330934013F80110934E1300934D13B7
:1031C00050CF492F5A2F6B2F7727FA0150934E1368
:1031D00040934D1346CF2EEF31E0A8CF80913F10A2
:1031E000806180933F1096EC91BB469A382F330F45
:1031F000982F9695282F221F2227221F832F867013
:10320000282B2064832F880F80728061307C832B71
:103210009270906C31E035B928B98BB99EB987E8C6
:1032200081BB85E08A95F1F7000080913E108F5FA9
:1032300080933E10089530913F10932F98609093A3
:103240003F1086EC81BB469A292F220F892F869545
:10325000991F9927991F422F4670942B9064207CC8
:1032600030713062232B8270806C31E035B998B9AF
:103270002BB98EB987E881BB85E08A95F1F700000C
:1032800080913E108F5F80933E10089540913F10D3
:10329000242F216020933F1086EC81BB469A322F69
:1032A000330F922F9695221F2227221F832F86707D
:1032B000282B2064832F880F80724071842B307CF0
:1032C000832B9270906C31E035B928B98BB99EB9D7
:1032D00087E881BB85E08A95F1F7000080913E1078
:1032E0008F5F80933E10089596EC91BB469A482FCD
:1032F000440F282F2695342F36703064982F991F4D
:103300009927991F392B8071942F990F9072982BC0
:10331000407C942B2270206615B838B99BB92EB921
:1033200087E881BB85E08A95F1F700000895409118
:103330003F10242F226020933F1086EC81BB469AD9
:10334000322F330F922F9695221F2227221F832F71
:103350008670282B2064832F880F80724071842B05
:10336000307C832B9270906C31E035B928B98BB9E1
:103370009EB987E881BB85E08A95F1F700008091CE
:103380003E108F5F80933E100895809590913F107E
:10339000892380933F1096EC91BB469A482F440FA7
:1033A000282F2695382F331F3327331F942F9670DD
:1033B000392B30648071942F990F9072982B407C38
:1033C000942B2270206C81E085B938B99BB92EB955
:1033D00087E881BB85E08A95F1F7000080913E1077
:1033E0008F5F80933E100895FC0126893789468DB2
:1033F000578DAA27429FB12D539FC001349FB00D16
:10340000811D9A1F529FB00D811D9A1F112480A308
:1034100091A340955095AA27429FB12D539FC0017B
:10342000349FB00D811D9A1F529FB00D811D9A1FB0
:10343000112482A393A340855185628573854083BF
:103440005183628373830895FC011482158216826E
:103450001782108211821282138281A58F5F81A749
:10346000833009F43BC0853009F434C0823009F060
:1034700008952689378935A324A344895589AA2725
:10348000429FB12D539FC001349FB00D811D9A1FE3
:10349000529FB00D811D9A1F112480A391A34095C6
:1034A0005095AA27429FB12D539FC001349FB00D64
:1034B000811D9A1F529FB00D811D9A1F112482A356
:1034C00093A34485558566857785408351836283C0
:1034D0007383089511A615A214A2089511A210A233
:1034E0008689978993A382A308950F931F93CF93FF
:1034F000DF93EC010C811D812E813F81832F992761
:10350000AA27BB27892B8A2B8B2B09F040C089A5C2
:10351000823009F431C060F5813009F442C040E0E6
:1035200050E06AA17BA1AA27469FB12D579FC001F9
:10353000749FB00D811D9A1F569FB00D811D9A1F5B
:10354000112448A159A1840F951F9DA38CA34881E4
:1035500059816A817B81400F511F621F731F4C8309
:103560005D836E837F83DF91CF911F910F910895CB
:103570008330A1F0843099F68EA181113BC0BB2726
:10358000A32F922F812FAC0140955095CACFCE0129
:103590005BDF0C811D812E813F81B9CF4C895D8914
:1035A000C0CF8EA1811105C07727632F522F412FE5
:1035B000B8CFA12FE22F2F3FF1F1822F8F5F90E044
:1035C000880F991FF0E0EE0FFF1FE35EFE4F608152
:1035D0007181FC01E35EFE4F80819181861B970B18
:1035E000892F9927A89FA001A99F500D1124460F4C
:1035F000571F97CFA12FE22F2F3F01F1822F8F5F0F
:1036000090E0880F991FF0E0EE0FFF1FE35EFC4F84
:1036100040815181FC01E35EFC4F80819181841BDC
:10362000950B692F7727A69FC001A79F900D1124A6
:10363000840F951FA8CF8EEF91E0C4CF8EEF91E05D
:10364000E2CF86EC81BB469A15B896E898B993E02C
:103650009BB91EB897E891BBEFE9FFE03197F1F70E
:1036600000C0000081BB469A15B823E828B923E1C1
:103670002BB922E02EB991BBFAE0FA95F1F700C020
:1036800081BB469A20EE27B997E09AB92DB915B8B3
:1036900020E828B99BB91EB897E491BB92E09A95AF
:1036A000F1F700C096B199B19CB181BB479A87EE02
:1036B00087B987EF8AB982EE8DB9EAE0EA95F1F72A
:1036C00000C0089586EC81BB469A15B880E488B99D
:1036D0001BB88EB987E881BB85E08A95F1F70000B9
:1036E0000895EF92FF920F931F93CF93DF93EC0116
:1036F000162FF42EE22E8091C113843071F1C23066
:10370000D10509F453C0C330D10571F1C130D105E1
:10371000F9F1C430D105C8F5E091B813F091B913AF
:10372000309739F00E2D2F2D412FBE018CE993E1FA
:103730000995E091BA13F091BB13309739F00E2D33
:103740002F2D412FBE018CE993E10995DF91CF9197
:103750001F910F91FF90EF900895E091B613F091B3
:10376000B7133097F9F6D8CF862F807F803A09F4C7
:103770008DC008F041C0803809F456C0803961F628
:10378000E091A013F091A11342C0C0E0D0E0C4CFFB
:10379000683F50F1E091B213F091B313309709F400
:1037A000BBCF612F8CE993E10995C3CF862F807F32
:1037B000803D09F455C0803F09F440C0803C09F0C9
:1037C000ABCFE091AA13F091AB13309709F4A4CFDB
:1037D000133F09F43FC0113FE9F1612F6F704F2D86
:1037E0008CE993E10995A5CF663F09F095CFE0916B
:1037F000B413F091B513D2CF803ED9F0803FA9F138
:10380000803B09F089CFE0919E13F0919F13309790
:1038100009F482CF123F99F1612F6F702E2D4F2D39
:103820008CE993E1099585CFE091A213F091A31360
:10383000EECFE091A613F091A713E9CF633F59F1C2
:10384000613F09F069CFE091B013F091B113309767
:1038500009F462CF4F2D612F8CE993E1099569CF6F
:10386000E091AC13F091AD13B0CF623F09F054CFAB
:10387000E091A813F091A913309709F44DCF2E2DA4
:103880004F2D62EF8CE993E1099553CFE091A4139A
:10389000F091A513BCCFE091AE13F091AF13309728
:1038A000C9F63ACFCF93DF93E62FF0E0EF01CC0FCC
:1038B000DD1FC050D44F0990D881C02DEE0FFF1FDF
:1038C000E452F44F20813181AE01421B530B9A0127
:1038D000A82FB0E017970E94E85CAB01BC014C0F29
:1038E0005D1F611D711D4115510581E0680771055E
:1038F00020F04FEF5FEF60E070E0CA01DF91CF9101
:103900000895E82FF0E0EE0FFF1FEC5FF44F808189
:1039100091810895CF92DF92EF92FF920F931F93C0
:10392000CF93DF931F92CDB7DEB7E82EF62E9BEA3A
:10393000899F812D1124869586958695182F1F5F66
:10394000883008F04CC0282F30E0220F331FF901D7
:10395000EE0FFF1FEE0FFF1FEE0FFF1FE20FF31F13
:10396000E40FF11DEE0FFF1FEC5FF44FC080D1801C
:103970001830E0F1642F812F95DF8C010C191D099F
:103980003F2D20E09BEAE99E912D11249695969576
:103990009695892F880F890F880F880F6E2D681BC9
:1039A000862F90E0A0E0B0E077276627620F731FB4
:1039B000811D911D2CE030E040E050E00E947561D7
:1039C000D8010E943E618C0D9D1D0F90DF91CF911B
:1039D0001F910F91FF90EF90DF90CF900895642F8B
:1039E000498360DF6C014981183020F6212F30E0D7
:1039F000220F331FF901EE0FFF1FEE0FFF1FEE0F17
:103A0000FF1FE20FF31FE40FF11DEE0FFF1FEC5F2E
:103A1000F44F80819181B1CF55E05A95F1F70000C4
:103A200036EC31BB469A80EE87B997E09AB98DB9EA
:103A300015B880E488B91BB880E28EB987E481BBF1
:103A400082E08A95F1F700C026B199B18CB131BB03
:103A5000479A37EE37B937EF3AB932EE3DB9422FD0
:103A60004695437050E8259F90011124422B292F41
:103A70002071422B292F269526952870422B96954A
:103A80009076492B90E0880F991F84709927842B9A
:103A900008956F928F929F92AF92BF92CF92DF92D2
:103AA000EF92FF920F931F93CF93DF93E091BC139C
:103AB000F091BD13309719F08CE993E109952FB778
:103AC000F8948091851490918414891708F005C1A9
:103AD00000918614080F091B2FBF10E00115110576
:103AE00009F476C0C0E0D0E020918614EE24E3947F
:103AF000F12CA3E09A2EB4E08B2E82E0A82EBB24FA
:103B0000B394892F622F90E070E00E94EE5CE09108
:103B10008714F0918814E80FF91FF081F83F08F03E
:103B200065C0F7FF70C08091C113843031F0F0930D
:103B3000BE13F092C313E092C2138F2F807F803B9D
:103B400079F198F4803961F1803A51F1803841F18E
:103B5000F03F09F4AEC0F73F09F4C2C01092C113A0
:103B60001092C3131092C2131DC0803D09F49EC071
:103B700008F499C0803EA1F0803F51F7EF2FE15F3C
:103B8000EF3030F7AE2FB0E0A35EBA4F8C918130AA
:103B900009F498C0E8F2823009F488C08330F1F665
:103BA0009092C1133FB7F89490918414892F90E0BC
:103BB000019620918614622F70E00E94EE5C982F8F
:103BC000809384143FBF2196C017D10708F499CF82
:103BD000DF91CF911F910F91FF90EF90DF90CF90E9
:103BE000BF90AF909F908F906F900895D090C11329
:103BF000B092C11320E040E06F2F81E090E071DDD2
:103C0000D092C113CFCF6090C113662059F240917A
:103C1000C2135091C3139A01ABEABAEA0E946961D8
:103C20006C01D694C794C601880F991F8C0D9D1DF9
:103C30006A01C81AD90AD601A456BC4E9296FC93C2
:103C4000CA0101969093C3138093C21321E0C21658
:103C5000D104B1F022E0C216D10409F0A3CF209123
:103C6000C0134091BF136091BE133BDD8091C1131F
:103C7000843009F497CFF092C313E092C21392CF2D
:103C800022E062128FCF20E04091BF136091BE13FB
:103C900028DD8091C113843009F484CFD092C313FE
:103CA000C092C2137FCF803C09F052CFA092C113C3
:103CB00079CF8092C113F093BE13F092C313E092B8
:103CC000C21370CF8093C11320E040E06F2F81E0DA
:103CD00090E007DD1092C11365CF082F091BFCCEC1
:103CE0004091C2135091C3139A01ABEABAEA0E9401
:103CF0006961969587959C01220F331F280F391F04
:103D0000DA01A21BB30BA456BC4E9296FC93CA01D7
:103D100001969093C3138093C2132091C0134091D6
:103D2000BF136091BE13DDDC1092C1133BCF2F9205
:103D30003F924F925F926F927F928F929F92AF923B
:103D4000BF92CF92DF92EF92FF920F931F93CF9388
:103D5000DF93CDB7DEB72E970FB6F894DEBF0FBE58
:103D6000CDBF482F0091520A1091530A2091320C76
:103D70003091330C2017310729F01093330C009346
:103D8000320C41E06091DE0A7091DF0A2091340C20
:103D90003091350C2617370729F07093350C609356
:103DA000340C41E08091E00A9091E10A2091360CB8
:103DB0003091370C2817390729F09093370C8093EE
:103DC000360C41E06090D20A7090D30A2091380CF2
:103DD0003091390C2615370529F07092390C609214
:103DE000380C41E04090D80A5090D90A20913A0C02
:103DF00030913B0C2415350529F050923B0C409234
:103E00003A0C41E09090C70A20913C0C921609F4BC
:103E100044C190923C0C2091D10A30913D0C231367
:103E200020933D0C000F012F001F110B11951A95C7
:103E3000660F672F661F770B7195AB015A955E87EA
:103E40004D87A0E0B0E06C017D01CC0CDD1CEE1CC8
:103E5000FF1CCC0CDD1CEE1CFF1CC80ED91EEA1E7C
:103E6000FB1E43E0F694E794D794C7944A95D1F7A4
:103E700076946794769467945694479456944794AE
:103E8000DB86872C352CDD24EE24FF24211126C16E
:103E90009301332738872F83920133273A87298765
:103EA0002090B314309150073C87B0903E0780912A
:103EB000260790912707A0912807B0912907892B01
:103EC0008A2B8B2B09F067C3B0903F0780912A079C
:103ED00090912B07A0912C07B0912D07892B8A2B4D
:103EE0008B2B09F0C2C2B090400780912E079091B1
:103EF0002F07A0913007B0913107892B8A2B8B2B8C
:103F000009F01DC2B09041078091320790913307AC
:103F1000A0913407B0913507892B8A2B8B2B09F0A0
:103F200078C1B09042078091360790913707A091F1
:103F30003807B0913907892B8A2B8B2B09F0D3C016
:103F4000B090430780913A0790913B07A0913C07BE
:103F5000B0913D07892B8A2B8B2B09F4A6C09801C1
:103F6000442737FD4095542F29833A834B835C8344
:103F700080919514909196142C01662457FC6094BE
:103F8000762C420E531E641E751E45E06F81882DEF
:103F90008B0DC0DC93018201080F191F211D311DFB
:103FA00037FDA4C40115110541E02407310524F0B3
:103FB0000FEF1FEF20E030E08091A1149091A21448
:103FC0002C01662457FC6094762C29813A814B8120
:103FD0005C81420E531E641E751E2D853E85C901EF
:103FE000AA2797FDA095BA2F480E591E6A1E7B1E60
:103FF0004BE06985832D8B0D8DDCA3019201280F89
:10400000391F411D511DDA01C90157FD6BC40097CD
:1040100031E0A307B10524F08FEF9FEFA0E0B0E0FF
:104020003C01992009F492C38B2D90E022E030E00E
:104030002919310902C0959587952A95E2F75B8584
:10404000850FA090AD14B090AE1441E16C2D62DCF0
:10405000A501662757FD6095762F480F591F611DF2
:10406000711D77FD53C44115510581E06807710545
:1040700024F04FEF5FEF60E070E09A01211068C319
:1040800010935F1300935E1370926B1360926A1328
:10409000509377134093761308C02091D10A309142
:1040A0003D0C2313BDCE4111BDCE2E960FB6F89414
:1040B000DEBF0FBECDBFDF91CF911F910F91FF905B
:1040C000EF90DF90CF90BF90AF909F908F907F90B8
:1040D0006F905F904F903F902F9008951A861986A9
:1040E00018861F82DDCE9801442737FD4095542F56
:1040F00029833A834B835C83809193149091941429
:104100002C01662457FC6094762C420E531E641ECC
:10411000751E44E06F81882D8B0DFCDBA30192019D
:10412000280F391F411D511DDA01C90157FD1AC45D
:10413000009731E0A307B10524F08FEF9FEFA0E0D7
:10414000B0E09E838D8380919F149091A0142C01E8
:10415000662457FC6094762C29813A814B815C81DE
:10416000420E531E641E751E2D853E85C901AA2769
:1041700097FDA095BA2F480E591E6A1E7B1E4AE075
:104180006985832D8B0DC6DBA3019201280F391F92
:10419000411D511DDA01C90157FDE0C3009731E00F
:1041A000A307B10524F08FEF9FEFA0E0B0E02C0152
:1041B0009110BEC28B85A090AB14B090AC1440E1BE
:1041C0006C2DA8DBA501662757FD6095762F480F5B
:1041D000591F611D711D77FDC9C34115510581E04E
:1041E0006807710524F04FEF5FEF60E070E0CA01EF
:1041F000211053C32D813E8130935D1320935C13B6
:10420000509269134092681350937513409374133E
:1042100097CE9801442737FD4095542F29833A8340
:104220004B835C8380919114909192142C016624AD
:1042300057FC6094762C420E531E641E751E43E09C
:104240006F81882D8B0D66DBA3019201280F391F2A
:10425000411D511DDA01C90157FD78C3009731E0B6
:10426000A307B10524F08FEF9FEFA0E0B0E09E839D
:104270008D8380919D1490919E142C01662457FC8F
:104280006094762C29813A814B815C81420E531EC9
:10429000641E751E2D853E85C901AA2797FDA09530
:1042A000BA2F480E591E6A1E7B1E49E06985832D70
:1042B0008B0D30DBA3019201280F391F411D511DC9
:1042C000DA01C90157FD3EC3009731E0A307B105EC
:1042D00024F08FEF9FEFA0E0B0E02C0191101AC204
:1042E0008B85A090A914B090AA144FE06C2D12DB1E
:1042F000A501662757FD6095762F480F591F611D50
:10430000711D77FD27C34115510581E068077105CF
:1043100024F04FEF5FEF60E070E0CA01211098C217
:104320002D813E8130935B1320935A135092671373
:10433000409266135093731340937213F2CD980119
:10434000442737FD4095542F29833A834B835C8360
:1043500080918F14909190142C01662457FC6094E6
:10436000762C420E531E641E751E42E06F81882D0E
:104370008B0DD0DAA3019201280F391F411D511D69
:10438000DA01C90157FDD6C2009731E0A307B10594
:1043900024F08FEF9FEFA0E0B0E09E838D838091AB
:1043A0009B1490919C142C01662457FC6094762CED
:1043B00029813A814B815C81420E531E641E751E19
:1043C0002D853E85C901AA2797FDA095BA2F480ED5
:1043D000591E6A1E7B1E48E06985832D8B0D9ADA73
:1043E000A3019201280F391F411D511DDA01C90196
:1043F00057FD9CC2009731E0A307B10524F08FEF71
:104400009FEFA0E0B0E02C01911076C18B85A090C9
:10441000A714B090A8144EE06C2D7CDAA501662795
:1044200057FD6095762F480F591F611D711D77FD4F
:1044300085C24115510581E06807710524F04FEFF1
:104440005FEF60E070E0CA012110DDC12D813E8187
:10445000309359132093581350926513409264136C
:1044600050937113409370134DCD9801442737FD3D
:104470004095542F29833A834B835C8380918D141C
:1044800090918E142C01662457FC6094762C420E79
:10449000531E641E751E41E06F81882D8B0D3ADA24
:1044A000A3019201280F391F411D511DDA01C901D5
:1044B00057FD38C2009731E0A307B10524F08FEF14
:1044C0009FEFA0E0B0E09E838D838091991490913E
:1044D0009A142C01662457FC6094762C29813A8129
:1044E0004B815C81420E531E641E751E2D853E85D8
:1044F000C901AA2797FDA095BA2F480E591E6A1E1A
:104500007B1E47E06985832D8B0D04DAA3019201A0
:10451000280F391F411D511DDA01C90157FDFEC188
:10452000009731E0A307B10524F08FEF9FEFA0E0E3
:10453000B0E02C019110D2C08B85A090A514B09052
:10454000A6144DE06C2DE6D9A501662757FD6095B0
:10455000762F480F591F611D711D77FDDBC1411575
:10456000510581E06807710524F04FEF5FEF60E0CF
:1045700070E0CA01211022C12D813E813093571372
:1045800020935613509263134092621350936F130B
:1045900040936E13A8CC9801442737FD4095542FC3
:1045A00029833A834B835C8380918B1490918C1484
:1045B0002C01662457FC6094762C420E531E641E18
:1045C000751E40E06F81882D8B0DA4D9A301920147
:1045D000280F391F411D511DDA01C90157FD8EC138
:1045E000009731E0A307B10524F08FEF9FEFA0E023
:1045F000B0E09E838D8380919714909198142C0144
:10460000662457FC6094762C29813A814B815C8129
:10461000420E531E641E751E2D853E85C901AA27B4
:1046200097FDA095BA2F480E591E6A1E7B1E46E0C4
:104630006985832D8B0D6ED9A3019201280F391F37
:10464000411D511DDA01C90157FD54C1009731E0E8
:10465000A307B10524F08FEF9FEFA0E0B0E02C019D
:1046600091102EC08B85A090A314B090A4144CE0A0
:104670006C2D50D9A501662757FD6095762F480F00
:10468000591F611D711D77FD3DC14115510581E027
:104690006807710524F04FEF5FEF60E070E02D8157
:1046A0003E81211078C030935513209354135092BB
:1046B00061134092601350936D1340936C1304CCBC
:1046C0008B2D90E042E050E04919510902C09595C8
:1046D00087954A95E2F73B85830FC5CF8B2D90E0F8
:1046E00042E050E04919510902C0959587954A95D5
:1046F000E2F75B85850F21CF8B2D90E042E050E003
:104700004919510902C0959587954A95E2F75B854D
:10471000850F7DCE8B2D90E042E050E04919510984
:1047200002C0959587954A95E2F75B85850FD9CDAF
:104730008B2D90E042E050E04919510902C0959557
:1047400087954A95E2F75B85850F35CD8B8579CCCA
:104750005C85523009F41AC1533009F417C185E061
:1047600090E0880F991F8F5B9E4EFC01E95CFD4F26
:1047700011830083FC01ED5BFD4F71826082FC01BF
:10478000E15BFD4F3183208391108FCC3093771301
:10479000209376138ACC3093791320937813509218
:1047A000851340928413509391134093901391106A
:1047B0008BCB50936D1340936C1386CB3C8532307A
:1047C00009F4D8C041E050E0333009F4D3C0440FBD
:1047D000551F4F5B5E4EFA01E95CFD4F2D813E8116
:1047E00031832083FA01ED5BFD4F51824082FA0153
:1047F000E15BFD4F91838083911075CB90936F1394
:1048000080936E1370CB3C85323009F4B9C03330DD
:1048100009F4B6C042E050E0440F551F4F5B5E4EB6
:10482000FA01E95CFD4F2D813E8131832083FA013D
:10483000ED5BFD4F51824082FA01E15BFD4F9183B8
:10484000808391105FCB90937113809370135ACB38
:104850003C85323009F491C0333009F48EC043E016
:1048600050E0440F551F4F5B5E4EFA01E95CFD4F6F
:104870002D813E8131832083FA01ED5BFD4F518212
:104880004082FA01E15BFD4F91838083911049CB17
:10489000909373138093721344CB3C85323009F4A8
:1048A00072C0333009F46FC044E050E0440F551F2C
:1048B0004F5B5E4EFA01E95CFD4F2D813E813183F5
:1048C0002083FA01ED5BFD4F51824082FA01E15BEA
:1048D000FD4F91838083911033CB90937513809318
:1048E00074132ECB80E090E0DC0191CB00E010E06F
:1048F000980158CB80E090E0DC01A8CE80E090E009
:10490000DC016ECE40E050E0BA01BFCE40E050E0A6
:10491000BA01A9CB40E050E0BA0121CE80E090E09E
:10492000DC01FECD80E090E0DC01C4CD80E090E0D1
:10493000DC0160CD80E090E0DC0126CD40E050E07D
:10494000BA0177CD80E090E0DC01BECC80E090E061
:10495000DC0184CC40E050E0BA01D5CC80E090E0AE
:10496000DC011CCC80E090E0DC01E2CB40E050E0D8
:10497000BA0133CC40E050E02ACF40E050E071CFA4
:1049800040E050E049CF40E050E090CF80E090E040
:10499000E8CE86EC81BB469A15B880E488B91BB88E
:1049A00080E28EB987E881BB85E08A95F1F7000047
:1049B0000895CF93DF9330D8C82FD0E02DD8382F6B
:1049C00020E0C22BD32BE5DFE4DFC095D095CE01EC
:1049D000DF91CF91089586EC81BB469A15B882E4A9
:1049E00088B91BB880E48EB987E881BB85E08A95D9
:1049F000F1F700000895FF920F931F93CF93DF9379
:104A0000F82E062F9BEA899F812D11248695869585
:104A10008695182F1F5F883008F044C0282F30E09B
:104A2000220F331FF901EE0FFF1FEE0FFF1FEE0FD6
:104A3000FF1FE20FF31FE60FF11DEE0FFF1FEC5FEC
:104A4000F44FC081D181183090F1602F812F0E94E6
:104A5000521C8C010C1B1D0B2BEAF29E212D1124E4
:104A6000269526952695922F990F920F990F990FBB
:104A70006F2D691B862F90E0A0E0B0E077276627B6
:104A80002CE030E040E050E00E947561D8010E94C7
:104A90003E61C80FD91FCE01DF91CF911F910F91B9
:104AA000FF9008950E94521CEC01183070F6212FDF
:104AB00030E0220F331FF901EE0FFF1FEE0FFF1F33
:104AC000EE0FFF1FE20FF31FE00FF11DEE0FFF1FB0
:104AD000EC5FF44F80819181BCCFBF92CF92DF9287
:104AE000EF92FF920F931F93CF93DF938091540A1D
:104AF0009091550AA0E0B0E0E091240CF091250CD3
:104B00006F01E12CF12C8C159D05AE05BF050CF055
:104B100066C0A7019601281B390B4A0B5B0BA0E06E
:104B2000B0E80E944A61A70196010E944E612F3FA2
:104B30008FE73807410551051CF5DA01C9018115D8
:104B400020E892072FEFA207B2070CF45AC0EC013D
:104B5000D0938A14C09389148091CF0A8230D1F007
:104B6000833009F458C1813009F450C0DF91CF91EE
:104B70001F910F91FF90EF90DF90CF90BF9008951D
:104B8000CFEFDFE7D0938A14C09389148091CF0AC6
:104B9000823031F72091CE0A30E0DE010E94E85CDD
:104BA0002CE030E040E050E00E944E613093A414CD
:104BB0002093A3143093A6142093A5143093A81423
:104BC0002093A7143093AA142093A9143093AC1403
:104BD0002093AB143093AE142093AD14C7CF9C0137
:104BE000AD012C193D094E095F09AFEFBFE70E94E7
:104BF0003E619F012095309540E050E00E944E615B
:104C000096CF80E090E8AFEFBFEFA1CFB090CE0A93
:104C1000BB0C60E08B2DEFDE8C0180E00E94811CDC
:104C20009801281B390BDE010E94E85CCC24CA9451
:104C3000DC2CE12CF12CA70196010E944E613093EF
:104C40008C1420938B1461E08B2DD5DE8C0181E0D8
:104C50000E94811C9801281B390BDE010E94E85C30
:104C6000A70196010E944E6130938E1420938D14FB
:104C700062E08B2DC0DE8C0182E00E94811C9801D5
:104C8000281B390BDE010E94E85CA70196010E94F7
:104C90004E613093901420938F1463E08B2DABDE24
:104CA0008C0183E00E94811C9801281B390BDE01D6
:104CB0000E94E85CA70196010E944E613093921415
:104CC0002093911464E08B2D96DE8C0184E00E9489
:104CD000811C9801281B390BDE010E94E85CA701AA
:104CE00096010E944E61309394142093931465E0D2
:104CF0008B2D81DE8C0185E00E94811C9801281B90
:104D0000390BDE010E94E85CA70196010E944E610A
:104D1000309396142093951466E08B2D6CDE8C01F5
:104D200086E00E94811C9801281B390BDE010E943D
:104D3000E85CA70196010E944E613093981420937D
:104D4000971467E08B2D57DE8C0187E00E94811C51
:104D50009801281B390BDE010E94E85CA70196012F
:104D60000E944E6130939A142093991468E08B2D21
:104D700042DE8C0188E00E94811C9801281B390BBF
:104D8000DE010E94E85CA70196010E944E6130930B
:104D90009C1420939B1469E08B2D2DDE8C0189E0FF
:104DA0000E94811C9801281B390BDE010E94E85CDF
:104DB000A70196010E944E6130939E1420939D148A
:104DC0006AE08B2D18DE8C018AE00E94811C98011C
:104DD000281B390BDE010E94E85CA70196010E94A6
:104DE0004E613093A01420939F146BE08B2D03DE53
:104DF0008C018BE00E94811C9801281B390BDE017D
:104E00000E94E85CA70196010E944E613093A214B3
:104E10002093A114ABCE2091CE0A30E0DE010E9497
:104E2000E85C2CE030E040E050E00E944E613093BE
:104E3000B0142093AF149ACE21E030E002C0220FCC
:104E4000331F8A95E2F7D901A095B095E0916207EA
:104E5000F0916307EA23FB23F0936307E093620773
:104E600080916407909165078A239B23909365073F
:104E700080936407662331F0E22BF32BF0936307F2
:104E8000E0936207442331F0282B392B30936507D8
:104E900020936407089521E030E002C0220F331F01
:104EA0008A95E2F7F901E095F0958091620790917B
:104EB00063078E239F23909363078093620740913B
:104EC0006407509165074E235F2350936507409315
:104ED0006407662331F0282B392B30936307209326
:104EE0006207089521E020936C070097A9F01092C3
:104EF0006B07BC0182E797E00E94E060E1E7F7E022
:104F000001900020E9F7E257F740EF58F84F80E2B0
:104F100090E09183808308958FEF80936B070895CD
:104F2000E1E080915213E81BE0935213EE23B1F1BC
:104F30008FEF9FEFAFEFB0E0809341139093421358
:104F4000A0934313B093441320914B1330914C130F
:104F500040E050E00090511304C0220F331F441F63
:104F6000551F0A94D2F7FF27E1950CF4F095DF0165
:104F7000AA0FBB1F11960E9448616093451370935E
:104F800046138093471390934813809153138111D4
:104F900009C0F0934E13E0934D13089580E090E024
:104FA000DC01CACF823009F008950E94326170930B
:104FB0004E1360934D130895AC01AA27469FB12D5F
:104FC000579F9001749FB00D211D3A1F569FB00D41
:104FD000211D3A1F1124C90108958F929F92AF920B
:104FE000BF92DF92EF92FF920F931F93CF93DF93C5
:104FF0009C01862E912C8114910409F445C081E016
:10500000881A9108A12CB12CAFEF8A1A9A0AAA0A21
:10501000BA0ABA2CA92C982C882480E090E0DC01F4
:10502000A90160E070E0403E51056105710510F591
:105030005F5F6F4F7F4F762F652F542F4427FEE31E
:10504000EF2EFCE0FF2EE80EF91EC0E0D0E000E0FD
:1050500010E06BBFFA01D790F701E00FF11FD0828B
:1050600021968E014F5F5F4F6F4F7F4FC115E1E07B
:10507000DE0779F72F5F3F4F9F5FAF4FBF4F881518
:105080009905AA05BB0561F61092A60980913E0C10
:1050900090913F0CA091400CB091410C22E43CE077
:1050A0003093A5092093A409853A9641A146B105FC
:1050B000B1F42091420C83E49CE09093A509809385
:1050C000A4092093A609DF91CF911F910F91FF9022
:1050D000EF90DF90BF90AF909F908F90089580E009
:1050E00094E0EEE3FCE0DF019C011D922150304092
:1050F000E1F7E9CFCF93CFB7F89461E06EDF80910D
:10510000A609882341F1A091A409B091A50920E046
:105110008D919D91E22FF0E0EE0FFF1FE554F54FCA
:10512000908F878B2F5F293199F7A093A409B093B3
:10513000A50980E09D91B093A509A093A409E82F4B
:10514000F0E0E554F54F90838F5F873199F7CFBF3B
:1051500081E0CF910895CFBFCF910895EEE3FCE0B9
:1051600080E094E0DF019C011D9221503040E1F786
:1051700021E02093A60985EA96E1A1E6B0E08083CC
:105180009183A283B383248383E49CE09093A50955
:105190008093A409089590915007943090F4923030
:1051A000A0F060914C0770914D0780914E0790914F
:1051B0004F0726E030E040E050E00E947561862F06
:1051C00008959F3021F08EEF08958FEF089590910C
:1051D0003E07981729F190913F07981781F1909118
:1051E00040079817D9F190914107981709F446C0E4
:1051F00090914207981709F451C090914307981372
:10520000E2CF80913A0790913B07A0913C07B09183
:105210003D078F3F9F4FAF4FBF4FA9F685E00895E1
:105220004091260750912707609128077091290720
:105230004F3F5F4F6F4F7F4F71F680E00895409171
:105240002A0750912B0760912C0770912D074F3F33
:105250005F4F6F4F7F4F19F681E0089540912E0701
:1052600050912F0760913007709131074F3F5F4F8A
:105270006F4F7F4F09F0B7CF82E00895409132071A
:105280005091330760913407709135074F3F5F4F5E
:105290006F4F7F4F09F0ACCF83E008954091360700
:1052A0005091370760913807709139074F3F5F4F32
:1052B0006F4F7F4F09F0A1CF84E008956095EFE331
:1052C000F0E19081982B6923608386EC81BB469A3C
:1052D000362F330F962F9695262F221F2227221F17
:1052E000832F8670282B20646071832F880F807233
:1052F000862B307C832B9270906C31E035B928B9C5
:105300008BB99EB987E881BB85E08A95F1F70000EB
:10531000EEE3F0E180818F5F8083089524E630E042
:1053200040E050E00E944E612AE030E040E050E072
:105330000E944E61605D205D30E02038310588F4C8
:10534000F901E45DFA4F80818093660770E0603870
:10535000710570F4FB01E45DFA4F8081809367076B
:1053600008958FEF8093660770E06038710590F3C1
:105370008FEF80936707089590E08038910588F457
:10538000FC01E45DFA4F80818093660770E060382D
:10539000710570F4FB01E45DFA4F8081809367072B
:1053A00008958FEF8093660770E06038710590F381
:1053B0008FEF80936707089526EC21BB469A782FDC
:1053C0007695769576958295880F807E462F440F48
:1053D000362F3695242F26702068562F551F5527B7
:1053E000551F252B9295969597706071962B542F8B
:1053F000550F5072952B407C942B3270832B75B9CE
:1054000028B99BB98EB987E881BB08959F92AF9266
:10541000BF92CF92DF92EF92FF920F931F93CF93A1
:10542000DF93C62ED42E790181E00E94971E8091D1
:1054300050078F3009F479C2C0E0D0E08AE28C9F37
:10544000F0018D9FF00D1124E859FD4E80818C15DF
:1054500009F465C28AE28C9F80018D9F100D112492
:105460006C2DC8018B5B9E4E0E94E9396C2DC801E2
:105470008F5B9D4E0E94E939C1100CC0DF91CF9126
:105480001F910F91FF90EF90DF90CF90BF90AF9062
:105490009F9008952091020B3091030BA701AA273A
:1054A000429FB12D539FB001349FB00D611D7A1FF3
:1054B000529FB00D611D7A1F112420953095620F07
:1054C000731F8AE28C9F80018D9F100D1124C801EB
:1054D0008B5B9E4E0E948F3B2091000B3091010B05
:1054E000A701AA27429FB12D539FB001349FB00D51
:1054F000611D7A1F529FB00D611D7A1F11242095E6
:105500003095620F731FC8018F5B9D4E0E948F3BC9
:10551000D7FCB4CF8D2D880F990B8F5B9E4EFC016D
:10552000ED5EFD4F408151816D2D669566956695C6
:1055300028E030E0F90102C0EE0FFF1F6A95E2F7A4
:10554000E095E87F6D2D6770E62BFFB7F894BA0100
:10555000672F772766956695D62FA6ECA1BB469A4E
:10556000C62FCC0FBC2FB670B06860717727626011
:105570007C2F770F7072762BC07C7C2B6D2F6695FD
:105580006270606215B8B8B97BB96EB9B7E8B1BBE3
:105590005695479556954795642FA1BB469AC42FBB
:1055A000CC0F742F7695661F6627661FDC2FD6708A
:1055B0006D2B60684071552742605C2F550F50720B
:1055C000542BC07C5C2B727015B868B95BB97EB97E
:1055D000B1BB45E04A95F1F70000A1BB469ACE2F3A
:1055E000CC0F5E2F56957E2F771F7727771F4C2F76
:1055F0004670742B7064E0714C2F440F40724E2B38
:10560000C07C4C2B5270506AC1E0C5B978B94BB917
:105610005EB9B1BB5AE05A95F1F700C0A1BB469AFA
:10562000C5B9D7E4ED2EE8B840EFF42EFBB8D2EAC6
:10563000DEB9B1BBEAE0EA95F1F700C0FFBFFC01BB
:10564000E15EFD4F40815181FD2DFA5F6F2F669520
:1056500066956695590102C0AA0CBB1C6A95E2F7D3
:10566000EA2DE095E87FF770EF2B9FB6F894BA012A
:10567000672F772766956695A62EA1BB469AB62E0C
:10568000BB0CFB2DF670F0686071772762607B2D94
:10569000770F7072762B6B2D607C762B6A2D66955A
:1056A0006270606215B8F8B97BB96EB9B1BB569536
:1056B000479556954795642FA1BB469AC42ECC0CAE
:1056C000742F7695661F6627661FF6E0BF2EBC20F6
:1056D0006B2960684071552742605C2D550F5072F0
:1056E000542B4C2D407C542B727015B868B95BB9A3
:1056F0007EB9B1BB45E04A95F1F70000A1BB469ADF
:105700006E2F660F5E2F56957E2F771F7727771F98
:10571000462F4670742B7064E071462F440F407220
:105720004E2B607C462B5270506AC5B978B94BB984
:105730005EB9B1BB5AE05A95F1F700C0A1BB469AD9
:10574000C5B9E8B8FBB8DEB9B1BBEAE0EA95F1F754
:1057500000C09FBEFC01E55DFD4F808191817D2DE4
:10576000745F472F469546954695590102C0AA0C8D
:10577000BB1C4A95E2F76A2D6095687F7770672BAE
:105780007FB7F894AC01452F552746954695C42E12
:10579000A1BB469AF42FFF0FEF2FE670E06840712F
:1057A000552742605F2F550F5072542BF07C5F2BB2
:1057B0004C2D46954270406215B8E8B95BB94EB9B8
:1057C000B1BB9695879596958795482FA1BB469A2C
:1057D000E82FEE0F582F5695441F4427441FFE2FE5
:1057E000F6704F2B40688071992782609E2F990F29
:1057F0009072982BE07C9E2B527015B848B99BB9DB
:105800005EB9B1BB45E04A95F1F70000A1BB469AED
:10581000E62FEE0F962F9695562F551F5527551F9D
:105820008E2F8670582B506460718E2F880F807277
:10583000862BE07C8E2B9270906AC5B958B98BB9D3
:105840009EB9B1BB5AE05A95F1F700C0A1BB469A88
:10585000C5B9E8B8FBB8DEB9B1BB8AE08A95F1F703
:1058600000C07FBFF801E75AFD4E8081918181150C
:10587000924008F003CE8D2D8E5E982F96959695CA
:10588000969501C0220F9A95EAF72095287F877098
:10589000282B5FB7F894A1BB469A15B886E888B95B
:1058A00082E78BB982E28EB9B1BBA1BB469A15B82B
:1058B000B8B982EF8BB982E08EB9B1BBF5E0FA9549
:1058C000F1F70000A1BB469A422F440F922F969504
:1058D000322F331F3327331F842F8670382B3064C9
:1058E0002071842F880F8072822B407C842B9270D1
:1058F000906AC5B938B98BB99EB9B1BB4AE04A952F
:10590000F1F700C0A1BB469AC5B9E8B8FBB8DEB94B
:10591000B1BB8AE08A95F1F700C05FBFAFCD80913F
:105920002F0A882309F4A8CD95CDCD2DDD27C7FDFD
:10593000D09584CDE6E2F7E08BE2DF011D928A95F7
:10594000E9F788E1DF011D928A95E9F78FEF8093EF
:105950003E0780933F0780934007809341078093E1
:1059600042078093430748E050E06FEF70E084E423
:1059700097E00C94D960CF938091CC0A81110AC032
:10598000809150078F3021F0D5DF8FE08093500752
:10599000CF910895C091CD0A80915007C817C1F3E7
:1059A000C9DFC0935007CF910895CF93DF930E9432
:1059B000213EE1DFC091C40AD091C50AC23009F48A
:1059C000A8C0C43009F4A5C0C09353130E9432612B
:1059D00060933D1370933E1380933F139093401355
:1059E0008D2F880F80935113A091521320914B1348
:1059F00030914C1340E050E004C0220F331F441F8D
:105A0000551F8A95D2F7BB27A1950CF4B095AA0F24
:105A1000BB1F11960E944861609345137093461313
:105A20008093471390934813C091CA0A8091CB0A80
:105A3000C0936712811169C0D1E0D093691281E4EB
:105A400092E10E945D3AC0939112D09393128BE63B
:105A500092E10E945D3AC093BB12D093BD1285E9DA
:105A600092E10E945D3AC093E512D093E7128FEB6A
:105A700092E10E945D3AC0930F13D093111389EE07
:105A800092E10E945D3AC0933913D0933B1383E1B6
:105A900093E10E945D3AC091C80A8091C90AC093FF
:105AA0006B11811134C0D1E0D0936D1185E491E187
:105AB0000E945D3AC0939511D09397118FE691E1C2
:105AC0000E945D3AC093BF11D093C11189E991E161
:105AD0000E945D3AC093E911D093EB1183EC91E100
