:100000004BC0000042C2000040C200003EC20000DF
:100010003CC200000C947C5C38C2000036C2000078
:1000200034C2000032C200000C94725C0C94685C14
:100030002CC200002AC2000028C2000026C2000014
:1000400024C2000022C2000020C200001EC2000024
:100050001CC200000C94485D18C2000016C20000CB
:1000600014C2000012C2000010C200000EC2000044
:100070000CC200000AC2000008C2000006C2000054
:1000800004C2000002C2000000C20000FEC1000065
:10009000FCC10000FAC1000011241FBECFEFD0E266
:1000A000DEBFCDBF0E9400F0D7C10000076342361B
:1000B000B79BD8A71A39685618AEBAAB558C1D3CF9
:1000C000B7CC5763BD6DEDFD753EF6177231BF00BD
:1000D0000000803F05A84CCDB2D44EB93836A902F5
:1000E0000C50B9918688083CA6AAAA2ABE00000036
:1000F000803F08000000BE922449123EABAAAA2A03
:10010000BECDCCCC4C3E00000080BEABAAAAAA3E1D
:1001100000000000BF000000803F00000000000859
:100120004178D3BB4387D1133D190E3CC3BD4282F6
:10013000AD2B3E68EC8276BED98FE1A93E4C80EFB4
:10014000FFBE01C4FF7F3F0000000000FF004C8A9B
:1001500097509545406BA6D8E4B2282EAE90BF26A6
:10016000B14EE86FD0FBE0709A51862C379845323B
:10017000539D06840D971A8CE61E2E0DB41D401655
:100180009AC591F9F786A142660620AFAE19EE270F
:10019000C2BB0EBAB90AAA95CA45040444C1796A19
:1001A00091EE7D3E2E4C960BA96E5A6A9FF56D0519
:1001B000BB8F808DB4F54FC14AE99E674536394FF4
:1001C00075ADF44CB227A939D78036F7C49C7E6A46
:1001D000605F677992B4DD0E4786CD1A6DC6258AB9
:1001E000F464D953D154DB67F78B22BD5CFEA44D78
:1001F000F9A7590EC57E3BF9BA7D430AD39F6C3BE4
:100200000BDEB2875E3710ECC8A6856546290CF177
:10021000D6BCA38C755E4934200DFAE9D7C7B6A7C2
:10022000988A7C6E6155493D32271D1209FFF6EE12
:10023000E5DDD5CEC6BFB9B2ACA6A09A958F8A85AA
:10024000817C78736F6B6864605D5A56FF59E97DF5
:1002500015B150F39942EE9D4F04BC7632F1B2765F
:100260003B03CC98653405D8AC8259320CE7C4A264
:100270008161432509EDD3B9A089725C46321E0B1A
:10028000F8E6D5C4B4A596887A6D6053473C30260D
:100290001B1108FEF5EDE4DCD4CDC6BFB8B1ABA5AB
:1002A0009F99948F8A85807C77736F6B6763605D9D
:1002B000595653504D4A484543403E3C3A383634EF
:1002C00032302E2D2B2A282725242321201F1E1DC6
:1002D0001C1B1A19181716161514131312111110C6
:1002E0000F0F0E0E0D0D0C0C0B0B0B0A0A09090952
:1002F0000808080807070706060606060505050597
:1003000005040404040404030303030303030302B6
:1003100002020202020202020202010101010101C3
:1003200001010101010101010101010101000000C0
:1003300000000000000000000000000000000000BD
:10034000000000000000000000000000FF0C0B0B8C
:100350000B0A0A090909080808080707070606061C
:100360000606050505050504040404040403030347
:100370000303030303020202020202020202020258
:10038000010101010101010101010101010101015D
:10039000010101000000000000000000000000005A
:1003A000000000000000000000000000000000004D
:1003B000000000000000000000000000000000003D
:1003C000000000000000000000000000000000002D
:1003D000000000000000000000000000000000001D
:1003E000000000000000000000000000000000000D
:1003F00000000000000000000000000000000000FD
:1004000000000000000000000000000000000000EC
:1004100000000000000000000000000000000000DC
:1004200000000000000000000000000000000000CC
:1004300000000000000000000000000000000000BC
:1004400000000000000000000000000011241FBE9A
:10045000CFEFD0E2DEBFCDBF17E1A8E4B9E001C025
:100460001D92A736B107E1F719E0A0E0B1E0EAE19B
:10047000F2ED00E00BBF02C007900D92A834B10767
:10048000D9F70E94815D0C940B69BACD2F923F92EF
:100490004F925F926F927F928F929F92AF92BF9294
:1004A000CF92DF92EF92FF920F931F93CF93DF9340
:1004B00000D000D0CDB7DEB78BE19DE00E94FC35C7
:1004C00000914C0D10914D0D1C830B832091D80D84
:1004D00020FF1BC025FD02C00C940C100B811C8159
:1004E0001A83098324FD13C08091310D9091320D40
:1004F000959587950B811C81080F191F1C830B8311
:1005000021FD07C0C12CD12C08C01A83098321FF0B
:10051000F9CFC090310DD090320D8091F80D9091AF
:10052000F90DA0E0B0E09058A109B1097C018091DB
:10053000D40D882311F40C94081080910A0E909128
:100540000B0EA0E0B0E09058A109B109B7FF02C0BE
:100550000C947012B595A795979587955C019FB6F9
:10056000F8948091B609882311F40C94800F83E2EB
:100570009BE00E9468352090470B3090480B298102
:100580003A812901662457FC6094762C0B811C81EA
:10059000C801AA2797FDA095BA2F40915D0D5091F3
:1005A0005E0D840F951FA11DB11DB7FF02C00C94F5
:1005B000F00F009711E0A107B10524F08FEF9FEF36
:1005C000A0E0B0E0AC01452F552746954695F42FA5
:1005D00066EC61BB469AE42FEE0F7E2F7670706852
:1005E0004071552742605E2F550F5072542BE07CAE
:1005F0005E2B4F2F46954270406215B878B95BB9B3
:100600004EB957E851BB9695879596958795482F93
:1006100061BB469AE82FEE0F782F7695441F44274A
:10062000441FFE2FF6704F2B40688071992782601F
:100630009E2F990F9072982BE07C9E2B727015B8AC
:1006400048B99BB97EB951BB00C000C061BB469A96
:1006500091E095B985E488B980ED8BB982EA8EB9CD
:1006600051BB00C000C061BB469A95B997E498B9E8
:1006700090EF9BB98EB951BB9501A101AA27249F88
:10068000B12D3503C001529FB00D811D9A1F340357
:100690009A0BB00D811D9A1F1124AA2797FDA095D2
:1006A000BA2F840D951DA61DB71D4091510D509177
:1006B000520D840F951FA11DB11DB7FF02C00C94F0
:1006C0000310009751E0A507B10524F08FEF9FEFCD
:1006D000A0E0B0E0AC01452F552746954695F42F94
:1006E000E6ECE1BB469A742F770F672F667060685F
:1006F000407155274260572F550F5072542B707C14
:10070000572B4F2F46954270406215B868B95BB9B8
:100710004EB977E871BBAC0156954795569547950C
:10072000642FE1BB469AA42FAA0FF42FF695661FFB
:100730006627661F8A2F8670682B60684071552770
:1007400042609A2F990F9072942BA07C9A2BF27092
:1007500015B868B99BB9FEB971BB00C000C0E1BB58
:10076000469A81E085B991E498B990ED9BB990EAF9
:100770009EB971BB00C000C0E1BB469A85B987E451
:1007800088B980EF8BB982EA8EB971BBA601662762
:1007900057FD6095762F87019101AA27029FB12D01
:1007A0001303C001309FB00D811D9A1F12039A0BD5
:1007B000B00D811D9A1F1124AA2797FDA095BA2F6D
:1007C000480F591F6A1F7B1F8091690D90916A0D18
:1007D000480F591F611D711D77FF02C00C94FE0F59
:1007E0004115510531E06307710524F04FEF5FEFCC
:1007F00060E070E0CA01892F992786958695682F59
:1008000006EC802E81BA469A382F330F232F26709C
:100810002068807199278260932F990F9072982B8E
:10082000307C932B862F86958270806215B828B90C
:100830009BB98EB987E8782E71BA5695479556952B
:100840004795942F81BA469A342F330F242F26953B
:10085000991F9927991F832F8670982B9068407154
:1008600055274260832F880F8072842B307C832B26
:10087000227015B898B98BB92EB971BA00C000C0F2
:1008800081BA469A6624639465B881E488B980EE9B
:100890008BB922EA522E5EB871BA00C000C081BA8C
:1008A000469A65B837E4332E38B840EF442E4BB83B
:1008B0005EB871BA8FE19CE00E9468358091430C6C
:1008C0009091440C9C01232F332726952695622F67
:1008D00081BA469A522F550F452F467040682071B5
:1008E00033272260352F330F3072322B507C352B5B
:1008F000262F26952270206215B848B93BB92EB92B
:1009000071BA9695879596958795282F81BA469ABC
:10091000482F440F382F3695221F2227221F542F8D
:100920005670252B2068807199278260942F990F2B
:100930009072982B407C942B327015B828B99BB9D3
:100940003EB971BA00C000C081BA469A65B885E464
:1009500088B980EB8BB980EA8EB971BA00C000C04B
:1009600081BA469A65B838B84BB85EB871BA9FBEBE
:100970009FB6F8948091BF09882311F40C94750FE9
:100980008DE49BE00E9468352090710B3090720BD3
:1009900009811A812801662457FC6094762C2B81EA
:1009A0003C81C901AA2797FDA095BA2F40915F0D00
:1009B0005091600D840F951FA11DB11DB7FF02C09E
:1009C0000C94EB0F009731E0A307B10524F08FEFF3
:1009D0009FEFA0E0B0E0AC01452F55274695469526
:1009E000F42F66EC61BB469AE42FEE0F7E2F7670F3
:1009F00070684071552742605E2F550F5072542B1E
:100A0000E07C5E2B4F2F46954270406215B878B956
:100A10005BB94EB957E851BB9695879596958795E2
:100A2000482F61BB469AE82FEE0F782F7695441F2A
:100A30004427441FFE2FF6704F2B40688071992782
:100A400082609E2F990F9072982BE07C9E2B727083
:100A500015B848B99BB97EB951BB00C000C061BB95
:100A6000469A41E045B997E498B980ED8BB982EA9E
:100A70008EB951BB00C000C061BB469A45B998B958
:100A800090EF9BB98EB951BBA501B101AA27469F32
:100A9000B12D5703C001749FB00D811D9A1F5603DD
:100AA0009A0BB00D811D9A1F1124AA2797FDA095BE
:100AB000BA2F840D951DA61DB71D4091530D509161
:100AC000540D840F951FA11DB11DB7FF02C00C94DA
:100AD000E60F009771E0A707B10524F08FEF9FEFB5
:100AE000A0E0B0E0AC01452F552746954695F42F80
:100AF000E6ECE1BB469A742F770F672F667060684B
:100B0000407155274260572F550F5072542B707CFF
:100B1000572B4F2F46954270406215B868B95BB9A4
:100B20004EB977E871BBAC015695479556954795F8
:100B3000642FE1BB469AA42FAA0FF42FF695661FE7
:100B40006627661F8A2F8670682B6068407155275C
:100B500042609A2F990F9072942BA07C9A2BF2707E
:100B600015B868B99BB9FEB971BB00C000C0E1BB44
:100B7000469A81E085B993E498B990ED9BB990EAE3
:100B80009EB971BB00C000C0E1BB469A85B987E43D
:100B900088B980EF8BB982EA8EB971BBA60166274E
:100BA00057FD6095762F87019101AA27029FB12DED
:100BB0001303C001309FB00D811D9A1F12039A0BC1
:100BC000B00D811D9A1F1124AA2797FDA095BA2F59
:100BD000480F591F6A1F7B1F80916B0D90916C0D00
:100BE000480F591F611D711D77FF02C00C94E10F62
:100BF0004115510531E06307710524F04FEF5FEFB8
:100C000060E070E0CA01892F992786958695682F44
:100C100006EC802E81BA469A382F330F232F267088
:100C20002068807199278260932F990F9072982B7A
:100C3000307C932B862F86958270806215B828B9F8
:100C40009BB98EB987E8782E71BA56954795569517
:100C50004795942F81BA469A342F330F242F269527
:100C6000991F9927991F832F8670982B9068407140
:100C700055274260832F880F8072842B307C832B12
:100C8000227015B898B98BB92EB971BA00C000C0DE
:100C900081BA469A6624639465B883E488B980EE85
:100CA0008BB922EA522E5EB871BA00C000C081BA78
:100CB000469A65B837E4432E48B840EF342E3BB827
:100CC0005EB871BA89E49CE00E94683580916D0C31
:100CD00090916E0C9C01232F332726952695622F29
:100CE00081BA469A522F550F452F467040682071A1
:100CF00033272260352F330F3072322B507C352B47
:100D0000262F26952270206215B848B93BB92EB916
:100D100071BA9695879596958795282F81BA469AA8
:100D2000482F440F382F3695221F2227221F542F79
:100D30005670252B2068807199278260942F990F17
:100D40009072982B407C942B327015B828B99BB9BF
:100D50003EB971BA00C000C081BA469A65B848B8B9
:100D600080EB8BB980EA8EB971BA00C000C081BA3D
:100D7000469A65B848B83BB85EB871BA9FBE9FB690
:100D8000F8948091C809882311F40C946B0F87E7BD
:100D90009BE00E94683520909B0B30909C0B098152
:100DA0001A812801662457FC6094762C2B813C81A3
:100DB000C901AA2797FDA095BA2F4091610D5091C6
:100DC000620D840F951FA11DB11DB7FF02C00C94C9
:100DD000DC0F009731E0A307B10524F08FEF9FEF00
:100DE000A0E0B0E0AC01452F552746954695F42F7D
:100DF00066EC61BB469AE42FEE0F7E2F767070682A
:100E00004071552742605E2F550F5072542BE07C85
:100E10005E2B4F2F46954270406215B878B95BB98A
:100E20004EB957E851BB9695879596958795482F6B
:100E300061BB469AE82FEE0F782F7695441F442722
:100E4000441FFE2FF6704F2B4068807199278260F7
:100E50009E2F990F9072982BE07C9E2B727015B884
:100E600048B99BB97EB951BB00C000C061BB469A6E
:100E700081E085B991E498B990EE9BB990EA9EB96A
:100E800051BB00C000C061BB469A85B987E488B9F0
:100E900080EF8BB982EA8EB951BBA501B101AA27B7
:100EA000469FB12D5703C001749FB00D811D9A1F3D
:100EB00056039A0BB00D811D9A1F1124AA2797FD86
:100EC000A095BA2F840D951DA61DB71D4091550DF7
:100ED0005091560D840F951FA11DB11DB7FF02C083
:100EE0000C94F90F009771E0A707B10524F08FEF7C
:100EF0009FEFA0E0B0E0AC01452F55274695469501
:100F0000F42FE6ECE1BB469A742F770F672F6670DB
:100F10006068407155274260572F550F5072542B0F
:100F2000707C572B4F2F46954270406215B868B9B8
:100F30005BB94EB977E871BBAC01569547955695AC
:100F40004795642FE1BB469AA42FAA0FF42FF6957C
:100F5000661F6627661F8A2F8670682B606840713F
:100F6000552742609A2F990F9072942BA07C9A2B50
:100F7000F27015B868B99BB9FEB971BB00C000C06A
:100F8000E1BB469A81E085B995E498B990ED9BB9AB
:100F900090EA9EB971BB00C000C0E1BB469A85B91A
:100FA00087E488B980EF8BB982EA8EB971BBA6015C
:100FB000662757FD6095762F87019101AA27029F2A
:100FC000B12D1303C001309FB00D811D9A1F120374
:100FD0009A0BB00D811D9A1F1124AA2797FDA09589
:100FE000BA2F480F591F6A1F7B1F80916D0D90917A
:100FF0006E0D480F591F611D711D77FF01C0F5C7A8
:101000004115510531E06307710524F04FEF5FEFA3
:1010100060E070E0CA01892F992786958695682F30
:1010200006EC802E81BA469A382F330F232F267074
:101030002068807199278260932F990F9072982B66
:10104000307C932B862F86958270806215B828B9E4
:101050009BB98EB987E8782E71BA56954795569503
:101060004795942F81BA469A342F330F242F269513
:10107000991F9927991F832F8670982B906840712C
:1010800055274260832F880F8072842B307C832BFE
:10109000227015B898B98BB92EB971BA00C000C0CA
:1010A00081BA469A5524539455B885E488B980EEA0
:1010B0008BB922EA622E6EB871BA00C000C081BA44
:1010C000469A55B837E4332E38B840EF442E4BB823
:1010D0006EB871BA83E79CE00E9468358091970CE6
:1010E0009091980C9C01232F332726952695622FEB
:1010F00081BA469A522F550F452F4670406820718D
:1011000033272260352F330F3072322B507C352B32
:10111000262F26952270206215B848B93BB92EB902
:1011200071BA9695879596958795282F81BA469A94
:10113000482F440F382F3695221F2227221F542F65
:101140005670252B2068807199278260942F990F03
:101150009072982B407C942B327015B828B99BB9AB
:101160003EB971BA00C000C081BA469A55B881E450
:1011700088B980EB8BB96EB871BA00C000C081BA73
:10118000469A55B838B84BB86EB871BA9FBE9FB67C
:10119000F8948091D109882309F493C681EA9BE0F1
:1011A0000E9468352090C50B3090C60B09811A81CA
:1011B0002801662457FC6094762C2B813C81C90160
:1011C000AA2797FDA095BA2F4091630D5091640D09
:1011D000840F951FA11DB11DB7FDEAC6009731E030
:1011E000A307B10524F08FEF9FEFA0E0B0E0AC01C2
:1011F000452F552746954695F42F66EC61BB469AD8
:10120000E42FEE0F7E2F7670706840715527426094
:101210005E2F550F5072542BE07C5E2B4F2F46955E
:101220004270406215B878B95BB94EB957E851BB06
:101230009695879596958795482F61BB469AE82F96
:10124000EE0F782F7695441F4427441FFE2FF6702B
:101250004F2B40688071992782609E2F990F907262
:10126000982BE07C9E2B727015B848B99BB97EB95B
:1012700051BB00C000C061BB469A81E085B993E4D0
:1012800098B990EE9BB990EA9EB951BB00C000C0DE
:1012900061BB469A85B987E488B980EF8BB982EA49
:1012A0008EB951BBA501B101AA27469FB12D5703A5
:1012B000C001749FB00D811D9A1F56039A0BB00D8B
:1012C000811D9A1F1124AA2797FDA095BA2F840D7E
:1012D000951DA61DB71D4091570D5091580D840FB7
:1012E000951FA11DB11DB7FD4FC6009771E0A7075F
:1012F000B10524F08FEF9FEFA0E0B0E0AC01452FE7
:10130000552746954695F42FE6ECE1BB469A742F97
:10131000770F672F66706068407155274260572FBE
:10132000550F5072542B707C572B4F2F469542709F
:10133000406215B868B95BB94EB977E871BBAC01CA
:101340005695479556954795642FE1BB469AA42F2D
:10135000AA0FF42FF695661F6627661F8A2F8670E0
:10136000682B60684071552742609A2F990F9072E0
:10137000942BA07C9A2BF27015B868B99BB9FEB972
:1013800071BB00C000C0E1BB469A91E095B987E40B
:1013900088B940ED4BB940EA4EB971BB00C000C0FE
:1013A000E1BB469A95B988B980EF8BB982EA8EB9CC
:1013B00071BBA601662757FD6095762F87019101C5
:1013C000AA27029FB12D1303C001309FB00D811DCC
:1013D0009A1F12039A0BB00D811D9A1F1124AA2780
:1013E00097FDA095BA2F480F591F6A1F7B1F809148
:1013F0006F0D9091700D480F591F611D711D77FD84
:10140000BFC54115510531E06307710524F04FEF69
:101410005FEF60E070E0CA01892F99278695869575
:10142000682F06EC702E71BA469A382F330F232F8F
:1014300026702068807199278260932F990F90728F
:10144000982B307C932B862F86958270806215B8FE
:1014500028B99BB98EB987E8682E61BA5695479529
:1014600056954795942F71BA469A342F330F242FEF
:101470002695991F9927991F832F8670982B90681E
:10148000407155274260832F880F8072842B307CF7
:10149000832B227015B898B98BB92EB961BA00C0E8
:1014A00000C071BA469A4424439445B827E4822E7A
:1014B00088B880EE8BB932EA532E5EB861BA00C0AC
:1014C00000C071BA469A45B888B840EF342E3BB890
:1014D0005EB861BA8DE99CE00E9468358091C10CCC
:1014E0009091C20C9C01232F332726952695622FBD
:1014F00071BA469A522F550F452F46704068207199
:1015000033272260352F330F3072322B507C352B2E
:10151000262F26952270206215B848B93BB92EB9FE
:1015200061BA9695879596958795282F71BA469AB0
:10153000482F440F382F3695221F2227221F542F61
:101540005670252B2068807199278260942F990FFF
:101550009072982B407C942B327015B828B99BB9A7
:101560003EB961BA00C000C071BA469A45B883E47A
:1015700088B980EB8BB95EB861BA00C000C071BA9F
:10158000469A45B888B83BB85EB861BA9FBE9FB668
:10159000F8948091DA09882309F489C48BEC9BE0E4
:1015A0000E9468352090EF0B3090F00B09811A8172
:1015B0002801662457FC6094762C2B813C81C9015C
:1015C000AA2797FDA095BA2F4091650D5091660D01
:1015D000840F951FA11DB11DB7FDCEC4009731E04A
:1015E000A307B10524F08FEF9FEFA0E0B0E0AC01BE
:1015F000452F552746954695F42F66EC61BB469AD4
:10160000E42FEE0F7E2F7670706840715527426090
:101610005E2F550F5072542BE07C5E2B4F2F46955A
:101620004270406215B878B95BB94EB957E851BB02
:101630009695879596958795482F61BB469AE82F92
:10164000EE0F782F7695441F4427441FFE2FF67027
:101650004F2B40688071992782609E2F990F90725E
:10166000982BE07C9E2B727015B848B99BB97EB957
:1016700051BB00C000C061BB469A81E085B995E4CA
:1016800098B990EE9BB990EA9EB951BB00C000C0DA
:1016900061BB469A85B987E488B980EF8BB982EA45
:1016A0008EB951BBA501B101AA27469FB12D5703A1
:1016B000C001749FB00D811D9A1F56039A0BB00D87
:1016C000811D9A1F1124AA2797FDA095BA2F840D7A
:1016D000951DA61DB71D4091590D50915A0D840FAF
:1016E000951FA11DB11DB7FD57C4009771E0A70755
:1016F000B10524F08FEF9FEFA0E0B0E0AC01452FE3
:10170000552746954695F42FE6ECE1BB469A742F93
:10171000770F672F66706068407155274260572FBA
:10172000550F5072542B707C572B4F2F469542709B
:10173000406215B868B95BB94EB977E871BBAC01C6
:101740005695479556954795642FE1BB469AA42F29
:10175000AA0FF42FF695661F6627661F8A2F8670DC
:10176000682B60684071552742609A2F990F9072DC
:10177000942BA07C9A2BF27015B868B99BB9FEB96E
:1017800071BB00C000C0E1BB469A91E095B981E40D
:1017900088B980ED8BB982EA8EB971BB00C000C0F8
:1017A000E1BB469A95B997E498B990EF9BB98EB989
:1017B00071BBA601662757FD6095762F87019101C1
:1017C000AA27029FB12D1303C001309FB00D811DC8
:1017D0009A1F12039A0BB00D811D9A1F1124AA277C
:1017E00097FDA095BA2F480F591F6A1F7B1F809144
:1017F000710D9091720D480F591F611D711D77FD7C
:10180000C7C34115510531E06307710524F04FEF5F
:101810005FEF60E070E0CA01892F99278695869571
:10182000782F36EC31BB469A682F660F262F26702C
:101830002068807199278260962F990F9072982B5B
:10184000607C962B872F86958270806215B828B9A8
:101850009BB98EB927E821BB569547955695479574
:10186000942F31BB469A742F770F642F6695991F7A
:101870009927991F872F8670982B9068407155275C
:101880004260872F880F8072842B707C872B627058
:1018900015B898B98BB96EB921BB00C000C031BB77
:1018A000469A81E085B991E498B990EB9BB990EAAA
:1018B0009EB921BB00C000C031BB469A85B987E400
:1018C00088B980EF8BB982EA8EB921BB4090CB0CEE
:1018D0005090CC0C6090CD0C7090CE0C872D992739
:1018E000AA27BB27892B8A2B8B2B09F026C3809133
:1018F000F00C823009F414C308F00DC3813009F4F0
:101900002EC340E050E02091E90C3091EA0CAA2768
:10191000429FB12D539FC001349FB00D811D9A1F6E
:10192000529FB00D811D9A1F11242091E70C309118
:10193000E80C820F931F9093EC0C8093EB0C40917A
:10194000C70C5091C80C6091C90C7091CA0C440D21
:10195000551D661D771D4093CB0C5093CC0C6093A6
:10196000CD0C7093CE0C9C01232F33272695269502
:10197000722F46EC41BB469A622F660F562F567067
:101980005068207133272260362F330F3072322B8C
:10199000607C362B272F26952270206215B858B907
:1019A0003BB92EB937E831BB9695879596958795C3
:1019B000282F41BB469A682F660F582F5695221F35
:1019C0002227221F762F7670272B20688071992777
:1019D0008260962F990F9072982B607C962B527094
:1019E00015B828B99BB95EB931BB00C000C041BB76
:1019F000469A91E095B985E488B980EB8BB982EA83
:101A00008EB931BB00C000C041BB469A95B997E47E
:101A100098B990EF9BB98EB931BB9FBE9FB6F89431
:101A20008091E309882309F438C285EF9BE00E9486
:101A300068352091190C30911A0C09811A812801FE
:101A4000662457FC6094762C0B811C81C801AA2760
:101A500097FDA095BA2F4091670D5091680D840FA6
:101A6000951FA11DB11DB7FD83C2009711E0A1070D
:101A7000B10524F08FEF9FEFA0E0B0E0AC01452F5F
:101A8000552746954695F42F66EC61BB469AE42FA0
:101A9000EE0F7E2F767070684071552742605E2F82
:101AA000550F5072542BE07C5E2B4F2F46954270A1
:101AB000406215B878B95BB94EB957E851BB9695F5
:101AC000879596958795482F61BB469AE82FEE0F2C
:101AD000782F7695441F4427441FFE2FF6704F2B16
:101AE00040688071992782609E2F990F9072982B81
:101AF000E07C9E2B727015B848B99BB97EB951BB7A
:101B000000C000C061BB469A91E095B987E488B9EE
:101B100040EE4BB940EA4EB951BB00C000C061BBBA
:101B2000469A95B988B980EF8BB982EA8EB951BBD4
:101B3000A501AA27429FB12D5303C001349FB00DC8
:101B4000811D9A1F52039A0BB00D811D9A1F1124FB
:101B5000AA2797FDA095BA2F840D951DA61DB71D28
:101B600040915B0D50915C0D840F951FA11DB11D1F
:101B7000B7FD1AC2009751E0A507B10524F08FEF19
:101B80009FEFA0E0B0E0AC01452F55274695469564
:101B9000F42F66EC61BB469AE42FEE0F7E2F767031
:101BA00070684071552742605E2F550F5072542B5C
:101BB000E07C5E2B4F2F46954270406215B878B995
:101BC0005BB94EB957E851BB969587959695879521
:101BD000482F61BB469AE82FEE0F782F7695441F69
:101BE0004427441FFE2FF6704F2B406880719927C1
:101BF00082609E2F990F9072982BE07C9E2B7270C2
:101C000015B848B99BB97EB951BB00C000C061BBD3
:101C1000469A91E095B983E488B980ED8BB982EA60
:101C20008EB951BB00C000C061BB469A95B997E41C
:101C300098B990EF9BB98EB951BBA601662757FDA5
:101C40006095762F8701AA27029FB12D1303C0014B
:101C5000309FB00D811D9A1F12039A0BB00D811D8C
:101C60009A1F1124AA2797FDA095BA2F480F591F34
:101C70006A1F7B1F8091730D9091740D480F591F3F
:101C8000611D711D77FD8CC14115510511E0610782
:101C9000710524F04FEF5FEF60E070E0CA01892F1B
:101CA000992786958695682F36ECB32EB1BA469A59
:101CB000382F330F232F2670206880719927826078
:101CC000932F990F9072982B307C932B862F8695AB
:101CD0008270806215B828B99BB98EB967E8C62EA4
:101CE000C1BA5695479556954795942FB1BA469ADD
:101CF000342F330F242F2695991F9927991F832F4F
:101D00008670982B9068407155274260832F880F0A
:101D10008072842B307C832B227015B898B98BB9D4
:101D20002EB9C1BA00C000C0B1BA469A11E015B9C7
:101D300083E488B9E0EBDE2EDBB880EA8EB9C1BA65
:101D400000C000C0B1BA469A15B9F7E4FF2EF8B842
:101D5000A0EFEA2EEBB802EA0EB9C1BA81EF9CE01F
:101D60000E9468358091150D9091160D9C01232FCE
:101D7000332726952695622FB1BA469A522F550FD2
:101D8000452F46704068207133272260352F330F6E
:101D90003072322B507C352B262F269522702062F4
:101DA00015B848B93BB92EB9C1BA9695879596959D
:101DB0008795282FB1BA469A482F440F382F369569
:101DC000221F2227221F542F5670252B2068807136
:101DD00099278260942F990F9072982B407C942BB6
:101DE000327015B828B99BB93EB9C1BA00C000C05D
:101DF000B1BA469A15B9F8B8DBB80EB9C1BA00C085
:101E000000C0B1BA469A15B9F8B8EBB80EB9C1BA64
:101E10009FBE90914C09292F2C7111E009F010E020
:101E20009370923009F415C1933009F452C3913084
:101E300009F419C1111159C30E940C268091480957
:101E400090914909A0914A09B0914B090196A11DB1
:101E5000B11D8093480990934909A0934A09B09312
:101E60004B0980914C098F5F80934C090F900F9024
:101E70000F900F90DF91CF911F910F91FF90EF90F6
:101E8000DF90CF90BF90AF909F908F907F906F909A
:101E90005F904F903F902F90089525E32A95F1F79A
:101EA000000060E070E087E10E94FD3EB1CF45E3B5
:101EB0004A95F1F7000060E070E086E10E94FD3E87
:101EC000ACCD45E34A95F1F7000060E070E085E1B4
:101ED0000E94FD3E5BCB45E34A95F1F7000060E0D0
:101EE00070E084E10E94FD3E51C945E34A95F1F757
:101EF000000060E070E083E10E94FD3E0C94BE06AD
:101F000045E34A95F1F7000060E070E082E10E944D
:101F1000FD3E0C94B7048330E9F0843009F0F1CC35
:101F20008091ED0C81118EC07727672D562D452DA0
:101F3000CA01AC0140955095E6CC87EC9CE00E942C
:101F400017354090CB0C5090CC0C6090CD0C70901D
:101F5000CE0CCDCC4091DB0C5091DC0CD4CC8091DC
:101F6000ED0C811167C07727672D562D452DCBCC01
:101F700080E090E0DC0179CD80E090E0DC012ECBC8
:101F800040E050E0BA013DCA80E090E0DC01ADC91C
:101F900040E050E0BA0135CC80E090E0DC01A5CB18
:101FA00040E050E0BA0170CE80E090E0DC01E2CD8C
:101FB00080E090E0DC0112C980E090E0DC010C944C
:101FC000E90640E050E0BA010C94F80580E090E0AA
:101FD000DC010C94690580E090E0DC010C94E204E3
:101FE00080E090E0DC010C94D90240E050E0BA01BE
:101FF00007C880E090E0DC010C94720740E050E0FC
:10200000BA010C94F00380E090E0DC010C946103D1
:10201000A12CB12C0C94AF020091310D1091320D16
:10202000159507954B815C81040F151F1A83098351
:102030000C94720244E853E0C301B2010E941D51A6
:10204000AC0161CC44E851E0C301B2010E941D51D2
:1020500070CF86E39DE00E94FC358091D80D88709A
:102060000E94D83DFECE0E941C238091220B882323
:1020700061F180915B0F882309F455C38091CC0DE9
:10208000882319F181508093CC0D80911D0B909184
:102090001E0B019690931E0B80931D0B20911F0B1E
:1020A0003091200B8217930780F010921E0B109234
:1020B0001D0BEAE9FAE004C03BE0EA31F30729F03E
:1020C00081918F3FC9F30E94961E8091C50D882390
:1020D00009F4C7CE8091C30D9091C40D4091750D48
:1020E0005091760D2091510D3091520D24173507E6
:1020F00008F4E9C24217530770F4B901641B750B69
:10210000AB018617970708F4AC01241B350B3093FD
:10211000520D2093510D4091810D5091820D2091CF
:102120005D0D30915E0D2417350708F4C0C24217CB
:10213000530770F4F901E41BF50BAF018E179F07ED
:1021400008F4AC01241B350B30935E0D20935D0D1C
:1021500040918D0D50918E0D2091690D30916A0D39
:102160002417350708F497C24217530770F4890102
:10217000041B150BA8018017910708F4AC01241B60
:10218000350B30936A0D2093690D4091770D509176
:10219000780D2091530D3091540D2417350708F414
:1021A0006EC24217530770F4B901641B750BAB0183
:1021B0008617970708F4AC01241B350B3093540D98
:1021C0002093530D4091830D5091840D20915F0D0C
:1021D0003091600D2417350708F444C242175307A5
:1021E00070F4F901E41BF50BAF018E179F0708F49B
:1021F000AC01241B350B3093600D20935F0D409193
:102200008F0D5091900D20916B0D30916C0D241716
:10221000350708F41AC24217530770F48901041BEA
:10222000150BA8018017910708F4AC01241B350B8E
:1022300030936C0D20936B0D4091790D50917A0D78
:102240002091550D3091560D2417350708F4F0C133
:102250004217530770F4B901641B750BAB01861765
:10226000970708F4AC01241B350B3093560D2093CF
:10227000550D4091850D5091860D2091610D309145
:10228000620D2417350708F4C6C14217530770F4CE
:10229000F901E41BF50BAF018E179F0708F4AC01A1
:1022A000241B350B3093620D2093610D4091910DED
:1022B0005091920D20916D0D30916E0D24173507C0
:1022C00008F49CC14217530770F48901041B150BD5
:1022D000A8018017910708F4AC01241B350B30933B
:1022E0006E0D20936D0D40917B0D50917C0D2091D2
:1022F000570D3091580D2417350708F472C1421755
:10230000530770F4B901641B750BAB01861797076F
:1023100008F4AC01241B350B3093580D2093570D56
:102320004091870D5091880D2091630D3091640D7F
:102330002417350708F448C14217530770F4F90110
:10234000E41BF50BAF018E179F0708F4AC01241BAB
:10235000350B3093640D2093630D4091930D509194
:10236000940D20916F0D3091700D2417350708F4EE
:102370001EC14217530770F48901041B150BA801F5
:102380008017910708F4AC01241B350B3093700DB6
:1023900020936F0D40917D0D50917E0D2091590D30
:1023A00030915A0D2417350708F4F4C0421753072B
:1023B00070F4B901641B750BAB018617970708F41D
:1023C000AC01241B350B30935A0D2093590D4091CD
:1023D000890D50918A0D2091650D3091660D24175D
:1023E000350708F4CAC04217530770F4F901E41B1B
:1023F000F50BAF018E179F0708F4AC01241B350BBA
:102400003093660D2093650D4091950D5091960D7A
:102410002091710D3091720D2417350708F4A0C07A
:102420004217530770F48901041B150BA80180178C
:10243000910708F4AC01241B350B3093720D2093E7
:10244000710D40917F0D5091800D20915B0D309169
:102450005C0D2417350708F070C0421B530B84171E
:10246000950708F45EC1420F531F50935C0D4093D3
:102470005B0D40918B0D50918C0D2091670D30912B
:10248000680D2417350708F046C0421B530B84170C
:10249000950708F444C1420F531F5093680D4093B1
:1024A000670D4091970D5091980D2091730D3091CB
:1024B000740D24173507E0F4421B530B841795075E
:1024C00008F42BC1420F531F5093740D4093730DAA
:1024D000C8CC812F0E94AE46812F0E94E740C1CC1C
:1024E0000196A11DB11D0C94AA020E942B32A4CC0E
:1024F0004217530708F0B5CC8901041B150BA8013E
:102500008017910708F4AC01241B350B3093740D30
:102510002093730DA6CC4217530718F6F901E41B5C
:10252000F50BAF018E179F0708F4AC01241B350B88
:102530003093680D2093670DB4CF4217530708F00E
:1025400098CFB901641B750BAB018617970708F488
:10255000AC01241B350B30935C0D20935B0D89CFB0
:10256000421B530B8417950708F4D5C0420F531F25
:102570005093720D4093710D64CF421B530B84171F
:10258000950708F4C6C0420F531F5093660D409341
:10259000650D3ACF421B530B8417950708F4B7C05B
:1025A000420F531F50935A0D4093590D10CF421BA9
:1025B000530B8417950708F4A8C0420F531F50937C
:1025C000700D40936F0DE6CE421B530B8417950799
:1025D00008F499C0420F531F5093640D4093630D4C
:1025E000BCCE421B530B8417950708F48AC0420FD8
:1025F000531F5093580D4093570D92CE421B530BCF
:102600008417950708F47BC0420F531F50936E0D3B
:1026100040936D0D68CE421B530B8417950708F449
:102620006CC0420F531F5093620D4093610D3ECE1C
:10263000421B530B8417950708F45DC0420F531FCC
:102640005093560D4093550D14CE421B530B8417D7
:10265000950708F44EC0420F531F50936C0D4093E2
:102660006B0DEACD421B530B8417950708F43FC04E
:10267000420F531F5093600D40935F0DC0CD421B1E
:10268000530B8417950788F1420F531F5093540D35
:102690004093530D97CD421B530B8417950718F1A8
:1026A000420F531F50936A0D4093690D6ECD421B2C
:1026B000530B84179507A8F0420F531F50935E0DDC
:1026C00040935D0D45CD421B530B8417950738F0A1
:1026D000420F531F5093520D4093510D1CCDAC012E
:1026E000F7CFAC01E9CFAC01DBCFAC01CDCFAC0172
:1026F000BFCFAC01B0CFAC01A1CFAC0192CFAC0148
:1027000083CFAC0174CFAC0165CFAC0156CFAC0127
:1027100047CFAC0138CFAC0129CFAC01D3CEAC014F
:10272000BACEAC01A0CE8091CC0D882309F4ADCCFB
:10273000A9CCFF920F931F93CF93DF93EC01F62E5A
:102740001C821D821E821F820E891F896CA17DA1A1
:10275000CB01A0E0B0E077276627980140E050E089
:102760000E94E968B9013F8F2E8FF11023C084E0E9
:1027700089A719A218A2AA27209FB12D319FC001B5
:10278000129FB00D811D9A1F309FB00D811D9A1FA1
:1027900011248AA39BA388899989AA89BB898883E4
:1027A0009983AA83BB83FFA2DF91CF911F910F91E1
:1027B000FF90089581E089A7AA27209FB12D319F1E
:1027C000C001129FB00D811D9A1F309FB00D811D59
:1027D0009A1F112488A399A360957095AA27609FDA
:1027E000B12D719FC001169FB00D811D9A1F709F62
:1027F000B00D811D9A1F11248AA39BA388859985FA
:10280000AA85BB8588839983AA83BB83FFA2DF91B6
:10281000CF911F910F91FF9008958F929F92AF9249
:10282000BF92CF92DF92EF92FF920F931F93CF93BD
:10283000DF931F92CDB7DEB7B82E7B0149830E948C
:102840000C3D6B2D81E00E945A274981442329F0D9
:102850008091220B882309F497C08B2D9AE289027C
:102860006001112433E2832E3BE0932E8C0C9D1CDF
:10287000F40114821582168217820689178964A1D1
:1028800075A1CB01A0E0B0E077276627980140E072
:1028900050E00E94E968B901F401378F268FAA241D
:1028A000A394A1A6AA27209FB12D319FC001129FFA
:1028B000B00D811D9A1F309FB00D811D9A1F1124EC
:1028C00080A391A360957095AA27609FB12D719FF9
:1028D000C001169FB00D811D9A1F709FB00D811D04
:1028E0009A1F112482A393A380859185A285B38525
:1028F00080839183A283B383A7A28FE19CE0C80E5B
:10290000D91EF6011482158216821782068917894C
:1029100064A175A1CB01A0E0B0E0772766279801FC
:1029200040E050E00E94E968B901F601378F268F38
:10293000A1A6AA27209FB12D319FC001129FB00DE3
:10294000811D9A1F309FB00D811D9A1F112480A3F5
:1029500091A360957095AA27609FB12D719FC001CA
:10296000169FB00D811D9A1F709FB00D811D9A1F7B
:10297000112482A393A380859185A285B38580834A
:102980009183A283B383A7A2B7018B2D0F90DF9110
:10299000CF911F910F91FF90EF90DF90CF90BF905C
:1029A000AF909F908F900C94E2492F923F924F925C
:1029B0005F926F927F928F929F92AF92BF92CF92CF
:1029C000DF92EF92FF920F931F93CF93DF93CDB7D8
:1029D000DEB729970FB6F894DEBF0FBECDBF782EB5
:1029E000662E4A8310925D0F70E080E090E00E94B6
:1029F00084659B01AC0160E070E080E090E40E949F
:102A0000476724EA30ED42E851E40E94E4669B0106
:102A1000AC0160E074E284EF99E40E94BF646B83D0
:102A20007C838D839E83262D235081E090E0022EAF
:102A300001C0880F0A94EAF78983EEE05E2E00E079
:102A400010E88FEF9FEF99878887E22FFF27E195A6
:102A50000CF4F0954F01AA2497FCA094BA2C672D92
:102A60008A810E94FF2F288539858217930768F590
:102A7000B901872D0E94B43989810E940F3B6B01F7
:102A80007C016F3F3FEF73078307930709F44FC043
:102A9000C501B4010E9486659B01AC0160E070E055
:102AA00080E090E40E9447671B01482E9F83C70186
:102AB000B6010E9484659B01AC01FF80622D732DDD
:102AC000842D9F2D0E94E46604C06FEF7FEF8FE797
:102AD0009FE7BB81AC81ED81FE802B2F3A2F4E2FDB
:102AE0005F2D0E94706618163CF488859985800FCA
:102AF000911F9987888706C0E885F985E01BF10B4F
:102B0000F987E887169507955A9409F0A8CF22E12E
:102B1000629EF0011124E70DF11DEE0FFF1FED5C29
:102B2000F14F888599859183808380E001C08FEF84
:102B300029960FB6F894DEBF0FBECDBFDF91CF91BF
:102B40001F910F91FF90EF90DF90CF90BF90AF90CB
:102B50009F908F907F906F905F904F903F902F90BD
:102B60000895603E71058105910508F00895DC0126
:102B7000CB019F5FAF4FBF4F6627782F892F9A2FCA
:102B80000C9400F8809177149091781487579241B3
:102B90008130924070F447E752E16CED70E080E0E4
:102BA00090E0DFDF47E753E16DED70E080E090E01B
:102BB000D8CF08952F923F924F925F926F927F925B
:102BC0008F929F92AF92BF92CF92DF92EF92FF923D
:102BD0000F931F93CF93DF9300D000D0CDB7DEB714
:102BE000782E642E552E86958695869590E0E72D55
:102BF000E770F0E0EA54F94F2081FC01E256F64F0D
:102C0000662309F43FC08081822B808390E0C090CE
:102C10004809D0904909E0904A09F0904B09809109
:102C2000EC09882309F48EC08091EA09882309F40D
:102C30002DC2272D30E0392E823009F4C0C78130F3
:102C400009F4E1C780E090E0632D8217930799F0C3
:102C5000E82FE695E695E695F0E0E256F64F4081DE
:102C6000442349F0FC01E770FF27EA54F94F5081F3
:102C7000542309F061E001968038910531F7362E32
:102C800090E0A1C12095808128232083D090B609AF
:102C9000C090B4098C2C912C0091BF096090BD09A3
:102CA000E62CF12CE091C8095090C609252D30E0A2
:102CB0002090D1094090CF09642D70E0B091DA09DD
:102CC0003090D809432D50E01091E3098091E1093B
:102CD0008983A82EB12C8091EA09823009F47CC244
:102CE00080E090E0D110D5C11111A3C30111C9C476
:102CF000EE2EA82FE82FE695E695E695F0E0E25651
:102D0000F64FF080FF2009F4BFC2FC01E770FF27F7
:102D1000EA54F94FE081EF2109F4B6C2EE2021F028
:102D20002817390709F4B0C2222021F06817790763
:102D300009F4AAC2BB2321F04817590709F4A4C219
:102D4000EE2DDDC1E091EB09AE2FA170E0FF17C0C1
:102D50008091B609882309F481C24091AE0950914F
:102D6000AF096091B0097091B1094C155D056E0510
:102D70007F0528F48091B509781609F481C79FEF83
:102D80004E2F4270E1FF17C08091BF09882309F4DC
:102D90005FC20091B7091091B8092091B90930912B
:102DA000BA090C151D052E053F0528F48091BE09B2
:102DB000781609F467C78E2F8470E2FF17C0209140
:102DC000C809222309F451C20091C0091091C10918
:102DD0002091C2093091C3090C151D052E053F0530
:102DE00028F42091C709721609F448C75E2F58705D
:102DF000E3FF17C02091D109222309F431C20091C9
:102E0000C9091091CA092091CB093091CC090C1540
:102E10001D052E053F0528F42091D009721609F4EE
:102E20002BC76E2F6071E4FF17C02091DA092223AF
:102E300009F420C20091D2091091D3092091D4093C
:102E40003091D5090C151D052E053F0528F420915C
:102E5000D909721609F405C77E2F7072E5FF17C0F5
:102E60002091E309222309F40AC20091DB091091A1
:102E7000DC092091DD093091DE090C151D052E05B8
:102E80003F0528F42091E209721609F4FBC19F3F27
:102E900009F098C0A11183C10FEF1FEF98014423DF
:102EA000E1F0B090BD09EB2DE695E695E695F0E0F2
:102EB000E256F64FB081B111EBC28090B709909005
:102EC000B809A090B909B090BA0980169106A20677
:102ED000B30618F49501840191E08823E1F0B090E5
:102EE000C609EB2DE695E695E695F0E0E256F64F3D
:102EF000B081B111E7C28090C0099090C109A09043
:102F0000C209B090C30980169106A206B30618F450
:102F10009501840192E05523E1F0B090CF09EB2DAB
:102F2000E695E695E695F0E0E256F64FB081B111F0
:102F3000DDC28090C9099090CA09A090CB09B090D9
:102F4000CC0980169106A206B30618F495018401F7
:102F500093E06623E1F0B090D809EB2DE695E69575
:102F6000E695F0E0E256F64FB081B111C9C280900B
:102F7000D2099090D309A090D409B090D5098016B9
:102F80009106A206B30618F49501840194E0772314
:102F9000B1F0B090E109EB2DE695E695E695F0E00D
:102FA000E256F64FB081BB2309F47CC2EB2DE770EB
:102FB000F0E0EA54F94FE081EB2309F473C29F3F3C
:102FC00009F48AC3312C24EE39E044244394A72C1D
:102FD000B12CB6E08B2E912C3C832B83592FEB81A7
:102FE000FC818191FC83EB838F3FC9F1052F112771
:102FF00007FD1095F801EE0FFF1FEE0FFF1FEE0FFC
:10300000FF1FE00FF11FE256F64F408E648A558A8B
:10301000768A9501280F311D278BC08AD18AE28AD2
:10302000F38A432D662D752D852FF7DB2091EB0953
:1030300004C0082F112707FD1095C8010196B4019F
:103040000E943064582FFC01EA54F94F308132233A
:1030500081F38B819C818A5E994009F0C0CF0F90EB
:103060000F900F900F90DF91CF911F910F91FF90D4
:10307000EF90DF90CF90BF90AF909F908F907F9018
:103080006F905F904F903F902F900895392E90E071
:103090009ACF01119CC1EE2E111157C0A82FE82F15
:1030A000E695E695E695F0E0E256F64FF080FF20D3
:1030B00009F472C1FC01E770FF27EA54F94FE0817F
:1030C000EF2109F469C18816990609F465C1EE205B
:1030D00021F02817390709F45FC1222021F0681771
:1030E000790709F459C1BB2321F04817590709F49E
:1030F00053C1EE2DDD2019F0C71409F443C28FEF40
:103100009FEF002319F0671409F441C2EE2319F070
:10311000571409F441C2222019F0471409F441C29E
:10312000BB2319F0371409F441C2112321F029817E
:10313000271509F422C2682E592E7A2E91E067CD08
:1031400001968038910509F42CC1A82FE82FE69547
:10315000E695E695F0E0E256F64FF080FF2081F329
:10316000FC01E770FF27EA54F94FE081EF2141F3BA
:103170008816990629F3EE2019F02817390701F36C
:10318000222019F068177907D9F2BB2319F04817E4
:103190005907B1F2A816B90609F0ABCFD1CF3091DB
:1031A000B409E32FE695E695E695F0E0E256F64F92
:1031B0002081211191C10091AE091091AF09209198
:1031C000B0093091B1090F3FEFEF1E072E073E0700
:1031D00009F465CE90E063CE8FE790E0222009F4F9
:1031E00099C1EE2309F4DEC2011122C4EE2EA82FEC
:1031F000E82FE695E695E695F0E0E256F64FF0808A
:10320000FF2009F42DC3FC01E770FF27EA54F94FB2
:10321000E081EF2109F424C3DD2021F0881699060E
:1032200009F41EC32817390709F41AC36817790768
:1032300009F416C3BB2321F04817590709F410C33A
:10324000112321F0A816B90609F40AC3EE2DD9C23C
:1032500081E09F3F09F080E0982FADCD90E090CDC8
:103260009F3F09F0DECD93E0DCCD9F3F09F0BECD5E
:1032700092E0BCCD9F3F09F0EFCD94E0EDCD9F3FB4
:1032800009F0A0CE95E09ECE01968038910509F018
:1032900030CD002391F08091BD0987110EC00E94AE
:1032A0000C3D61E081E00E945A2760E08DE49BE0E4
:1032B00040DA60E089E49CE03CDA8091C809882328
:1032C00091F08091C60987110EC00E940C3D62E00A
:1032D00081E00E945A2760E087E79BE02ADA60E0FD
:1032E00083E79CE026DA8091D109882391F08091D0
:1032F000CF0987110EC00E940C3D63E081E00E945F
:103300005A2760E081EA9BE014DA60E08DE99CE0F6
:1033100010DA8091DA09882391F08091D809871119
:103320000EC00E940C3D64E081E00E945A2760E0DC
:103330008BEC9BE0FED960E087EC9CE0FAD98091B1
:10334000E309882309F48BCE8091E109871187CEA8
:103350000E940C3D65E081E00E945A2760E085EF05
:103360009BE0E7D960E081EF9CE00F900F900F9019
:103370000F90DF91CF911F910F91FF90EF90DF9011
:10338000CF90BF90AF909F908F907F906F905F9005
:103390004F903F902F90CDC901968038910509F04C
:1033A0007DCEDD2009F475CFC71073CF0E940C3D90
:1033B00060E081E00E945A2760E083E29BE0B9D997
:1033C00060E08FE19CE0B5D90091BF0962CFE111C7
:1033D000F2C0EA83A82FE82FE695E695E695F0E09F
:1033E000E256F64F20812223F9F0FC01E770FF2717
:1033F000EA54F94F30813223B9F088169906A1F0CA
:10340000E816F90689F0222019F06817790761F0AB
:10341000BB2319F04817590739F0112319F0A816E2
:10342000B90611F0EA8166CE01968038910591F6D1
:10343000B8CFB111F6C0DE2EA82FE82FE695E6959D
:10344000E695F0E0E256F64F40814423E1F0FC01BE
:10345000E770FF27EA54F94F50815423A1F000236D
:1034600019F0E816F90679F0DD2019F02817390768
:1034700051F0211005C0A816B90629F0ED2D3FCE58
:1034800068177907C1F7019680389105A9F601CF31
:10349000EB2DE770F0E0EA54F94FE081EB2309F0FF
:1034A0001CCD0BCD8090DB099090DC09A090DD094C
:1034B000B090DE0980169106A206B30608F07FCD13
:1034C00095E080CDEB2DE770F0E0EA54F94FE08114
:1034D000EB2309F020CD0FCD3770E32FF0E0EA5455
:1034E000F94F3081322309F0D7CC65CEEB2DE77050
:1034F000F0E0EA54F94FE081EB2309F02ACD19CD31
:10350000EB2DE770F0E0EA54F94FE081EB2309F08E
:103510003ECD2DCDDD2009F478C101112DC2FE2E46
:10352000A82FE82FE695E695E695F0E0E256F64FEF
:103530006081662309F490C1FC01E770FF27EA541B
:10354000F94F7081762309F487C18816990609F42A
:1035500083C1FF2021F02817390709F47DC1BB235F
:1035600021F04817590709F477C1112321F0A81653
:10357000B90609F471C1EF2D44C18091DF09909122
:10358000E009D9CD8091B2099091B309BACD80916B
:10359000BB099091BC09BACD8091C4099091C5092D
:1035A000BACD8091CD099091CE09BACD8091D6093E
:1035B0009091D709BACDEB832A82A82FE82FE69500
:1035C000E695E695F0E0E256F64F2080222021F1C4
:1035D000FC01E770FF27EA54F94FE081E221E1F0B6
:1035E00088159905C9F08E159F05B1F082179307CC
:1035F00099F0FA81FF2319F08617970769F0BB232A
:1036000019F08417950741F0112319F08A159B05CD
:1036100019F0EB812A806ECD01968038910569F60C
:10362000C0CECE2EA82FE82FE695E695E695F0E0E1
:10363000E256F64FD080DD20F9F0FC01E770FF275D
:10364000EA54F94FE081ED21B9F0002319F0E816B2
:10365000F90691F0CC2019F02817390769F02220DB
:1036600019F08617970741F08417950729F08A15F6
:103670009B0511F0EC2D43CD01968038910591F614
:1036800008CECE2EA82FE82FE695E695E695F0E039
:10369000E256F64FD080DD20D1F0FC01E770FF2725
:1036A000EA54F94FE081ED2191F0E816F90679F03E
:1036B000CC2019F02817390751F0222019F068178B
:1036C000790729F0BB23B1F24817590799F60196FB
:1036D00080389105B9F6DDCDF091EA09AA2309F405
:1036E000CAC0F13009F453C208F0F0C10091AE092C
:1036F0001091AF092091B0093091B1090F3FEFEF60
:103700001E072E073E0709F090E04111BFC0E72DCC
:10371000882309F4D0C0F13009F443C208F0FEC197
:103720008090C0099090C109A090C209B090C309CF
:1037300080169106A206B30608F48FC2480159010B
:103740005111C3C095018401662309F4D0C0F13042
:1037500009F408C208F0B6C18090D2099090D3094C
:10376000A090D409B090D50980169106A206B306A0
:1037700008F46DC248015901772381F09501840155
:103780004091DB095091DC096091DD097091DE09FF
:10379000401751076207730708F474CD9F3F09F47F
:1037A0005ECC10CCD110BAC09E2EA82FE82FE69583
:1037B000E695E695F0E0E256F64F2081222309F4E3
:1037C00056C0FC01E770FF27EA54F94F30813223DD
:1037D00009F44DC0002321F0E816F90609F447C0AA
:1037E0006817790709F443C0BB2321F0481759072C
:1037F00009F43DC0112321F0A816B90609F437C019
:10380000E92DAF3F09F4CDCD75CC1111E5C0BE2E29
:10381000A82FE82FE695E695E695F0E0E256F64FFC
:103820006081662309F1FC01E770FF27EA54F94F34
:1038300070817623C9F0002319F0E816F906A1F08B
:10384000BB2019F02817390779F0BB2319F0481766
:10385000590751F0EB2DD5CF019708F061CEA1CDDE
:10386000019708F0C4CC9DCD019790F612CD019739
:1038700008F09BCF0ECD442309F44BC0F13009F47E
:1038800052C108F032C10FEF1FEF98018090B709C5
:103890009090B809A090B909B090BA098016910625
:1038A000A206B30608F4D7C1480159019501840165
:1038B000E72D811135CF552309F446CFF13009F4B6
:1038C00048C108F0E8C0480159010091C9091091A8
:1038D000CA092091CB093091CC09081519052A0590
:1038E0003B0508F46AC195018401611135CF772346
:1038F00009F454CFF13009F43FC108F441CFF2305C
:1039000009F04CCF8091E2098E1708F047CF95E07F
:1039100059CBE72D0FEF1FEF9801FACEEA83A82FBE
:10392000E82FE695E695E695F0E0E256F64F208121
:103930002223F9F0FC01E770FF27EA54F94F3081A8
:103940003223B9F088169906A1F0002319F0E81681
:10395000F90679F06817790761F0BB2319F0481769
:10396000590739F0112319F0A816B90611F0EA81A8
:1039700048CF0197A0F615CDEA8306C0A816B90670
:10398000B1F7019708F40DCDA82FE82FE695E6953D
:10399000E695F0E0E256F64F6081662391F3FC0174
:1039A000E770FF27EA54F94F7081762351F38816A8
:1039B000990639F3E816F90621F36A81662319F0AE
:1039C00028173907F1F2BB2319F048175907C9F234
:1039D0001111D4CFEA8115CF9E2E03C0019708F4B0
:1039E00058CCA82FE82FE695E695E695F0E0E2564C
:1039F000F64F6081662391F3FC01E770FF27EA54DC
:103A0000F94F7081762351F3002319F0E816F90677
:103A100029F3992019F02817390701F3BB2319F06E
:103A200048175907D9F2A816B90609F0E9CED6CF3A
:103A3000EB832A82A82FE82FE695E695E695F0E03D
:103A4000E256F64F2080222019F1FC01E770FF2793
:103A5000EA54F94FE081E221D9F0DD2019F0881510
:103A60009905B1F08E159F0599F08217930781F0A3
:103A70008617970769F0BB2319F08417950741F063
:103A8000112319F08A159B0519F0EB812A80B9CE14
:103A9000019780F686CCF23009F056CE8091D0099D
:103AA0008E1710F4E82F93E0662309F420CF80915D
:103AB000D9098E1708F4CDC08E2F772309F46ECE66
:103AC000E82F20CFF23009F012CFF1CFF23009F019
:103AD000D2CEE091B509E71508F457C0E72D4111A2
:103AE00007C00FEF1FEF980113CEE72DF230C9F793
:103AF0004091BE094E1708F456C04E2F882309F492
:103B0000B2C00FEF1FEF9801E091C709E41708F466
:103B10004CC0E42F552309F417CEC0CFF23009F082
:103B2000CACE4E2FF1CF272DE091BE092E1708F4F3
:103B300040C0E22F882309F49BC08E2F0FEF1FEFA8
:103B40009801E091C7098E17B0F1E82F552309F4C9
:103B5000FBCD8091D009E817B0F08E2FE82F6623B7
:103B600009F4C5CE8091D909E81708F478C08E2FE2
:103B7000772309F413CEE82F8091E209E81708F0C3
:103B80000DCE95E01FCA93E0E9CF90E0A8CFE09179
:103B9000B5097E1660F0E72D442309F4A2CF2E2F3D
:103BA000C3CF8E2FCECF91E0A9CF92E0B3CF90E0DC
:103BB000F3CF91E0BFCF92E0C9CF93E096CE80E003
:103BC00090E0632D06C061E001968038910509F40C
:103BD00056C882179307C1F3E82FE695E695E69558
:103BE000F0E0E256F64F4081442371F3FC01E770A8
:103BF000FF27EA54F94F5081542331F3281739072E
:103C00000CF42DCAE0CF80E090E0632D06C061E0A7
:103C100001968038910509F432C882179307C1F3E1
:103C2000E82FE695E695E695F0E0E256F64F4081FE
:103C3000442371F3FC01E770FF27EA54F94F5081E8
:103C4000542331F3821793070CF409CAE0CF94E0B0
:103C500093CD94E032CF91E029CE92E071CD94E003
:103C600087CF94E0AFC9E42F0FEF1FEF980123CE69
:103C70000FEF1FEF98011FCE93E0A4C992E0A2C9F5
:103C800090E0A0C991E09EC92091580F27FD09C07E
:103C90006F7070E0332727FD30956217730709F0C6
:103CA0000895842F90E0489797FD05C040E050E0CC
:103CB00060E00C94DA1580E090E0F8CFE091580FC6
:103CC000E7FD09C06F7070E0FF27E7FDF0956E1704
:103CD0007F0709F00895842F90E04897422F50E025
:103CE000542F4427550F41505E4F61E0211101C010
:103CF00060E097FF0C94DA1580E090E0FBCFCF9363
:103D000080911C0B8F3F81F0C82FCF7740E050E0AF
:103D100060E08C2F0E94DA156C2F685E40E0809185
:103D2000590FCF910C94EC2FCF9108953F924F9261
:103D30005F926F927F928F929F92AF92BF92CF923B
:103D4000DF92EF92FF920F931F93CF93DF93D7DF12
:103D50008091220B823071F1833009F4F8C18130F7
:103D600009F4F5C1DF91CF911F910F91FF90EF9072
:103D7000DF90CF90BF90AF909F908F907F906F908B
:103D80005F904F903F9008956150710981099109AA
:103D900060687F6F8F6F9F6F6F5F7F4F8F4F9F4FF9
:103DA000FB0170931B0B60931A0BE656F54F808155
:103DB0008F3F69F40E94A6686F77772788279078ED
:103DC00097FFEECFE1CF80931A0B90931B0BA0814E
:103DD0006FE7562E5A22E52DE695E695E695F0E03A
:103DE000E256F64FA770B0E0AA54B94F80819C917B
:103DF000892B8083C0904809D0904909E0904A09F6
:103E0000F0904B098091EC09882369F18091EA09CF
:103E1000882309F4B4C1252D30E0312C823009F417
:103E2000C3C3813009F49CC380E090E082179307FC
:103E3000A1F0E82FE695E695E695F0E0E256F64F1C
:103E40004081442351F0FC01E770FF27EA54F94F09
:103E50005081542311F03324339401968038910516
:103E600029F790E018C1E091EB09CE2FC170E0FD79
:103E700089C19FEFAE2FA270E1FF09C08091BF09F9
:103E80008111D1C181E09F3F09F080E0982F3E2F42
:103E90003470E2FF07C08091C8098111D8C19F3FEB
:103EA00009F46CC22E2F2870E3FF07C08091D1095E
:103EB0008111E1C19F3F09F45FC28E2F8071E4FF41
:103EC00007C04091DA094111EAC19F3F09F452C28B
:103ED000BE2FB072E5FD6FC19F3F09F0DBC0C1117D
:103EE00083C14FEF5FEFBA01AA23D1F01091BD0952
:103EF000E12FE695E695E695F0E0E256F64FD081A3
:103F0000D111F0C18090B7099090B809A090B9097B
:103F1000B090BA0984169506A606B70608F422C220
:103F20003323D1F01091C609E12FE695E695E69589
:103F3000F0E0E256F64FD081D111DEC18090C00989
:103F40009090C109A090C209B090C309841695064B
:103F5000A606B70608F402C22223D1F01091CF09B9
:103F6000E12FE695E695E695F0E0E256F64FD08132
:103F7000D111CCC18090C9099090CA09A090CB09F9
:103F8000B090CC0984169506A606B70608F4E2C1DF
:103F90008823D1F01091D809E12FE695E695E695B2
:103FA000F0E0E256F64FD081D111BAC18090D2092B
:103FB0009090D309A090D409B090D50984169506A5
:103FC000A606B70608F4D2C1BB23B1F01091E109EF
:103FD000E12FE695E695E695F0E0E256F64FD081C2
:103FE000DD2309F4A7C11770E12FF0E0EA54F94F7F
:103FF000E081ED2309F49EC19F3F09F04BC0F09191
:10400000EA09CC2309F4BCC1F13009F46DC208F00F
:104010002DC24091AE095091AF096091B0097091E5
:10402000B1094F3FEFEF5E076E077E0709F090E0A2
:10403000A111B1C1E52D332341F0F13009F469C27A
:1040400008F4BFC1F23009F430C2222341F0F1304C
:1040500009F469C208F4CAC1F23009F430C28823F5
:1040600041F0F13009F469C208F4D5C1F23009F425
:1040700030C2BB2309F4F1C1F13009F468C208F47D
:10408000DEC1F23009F0E9C18091E2098E1708F033
:10409000E4C195E0312C54EE852E59E0952E442450
:1040A0004394AA24AA94BA2C052D10E0C6E0D0E0CF
:1040B000F40181914F018F3FD9F1692E772467FC7C
:1040C0007094F301EE0FFF1FEE0FFF1FEE0FFF1FA7
:1040D000E60DF71DE256F64F408EB58AA48A568A41
:1040E0009801280F311D278BC08AD18AE28AF38A72
:1040F000432D6FEF7FEF892F0E940D144091EB0944
:1041000004C0692E772467FC7094C3010196BE0138
:104110000E9430649C01982FF901EA54F94F808184
:10412000842379F3FAEE8F16F9E09F0609F0C0CFE9
:104130006FEF7FEF852D0E94D22FE0911A0BF09147
:104140001B0BE656F54F808180931C0B0BCE209104
:104150001A0B30911B0B08C09C01FC01E656F54F71
:1041600040814F3F09F02FCEC90101968F7790789B
:1041700097FFF2CF019780689F6F0196EDCF312CAA
:1041800090E089CF8091B609882309F44AC08091D4
:10419000AE099091AF09A091B009B091B1098C1509
:1041A0009D05AE05BF0508F064CE8091B509581293
:1041B00060CE90E06FCF4091E309442309F483C0BF
:1041C0004091DB095091DC096091DD097091DE09B5
:1041D0004C155D056E057F0508F07ECE4091E20925
:1041E00054127ACE95E056CF5091B409E52FE6955A
:1041F000E695E695F0E0E256F64F4081411168C041
:104200004091AE095091AF096091B0097091B10928
:104210004F3FEFEF5E076E077E0709F465CE90E033
:1042200063CE90E027CE4091B7095091B8096091D4
:10423000B9097091BA094C155D056E057F0508F046
:1042400026CE8091BE09581222CE91E023CF409114
:10425000C0095091C1096091C2097091C3094C1500
:104260005D056E057F0508F01DCE8091C7095812C7
:1042700019CE92E00FCF4091C9095091CA096091BF
:10428000CB097091CC094C155D056E057F0508F0D2
:1042900014CE8091D009581210CE93E0FBCE4091FD
:1042A000D2095091D3096091D4097091D5094C1568
:1042B0005D056E057F0508F00BCE4091D9095412BB
:1042C00007CE94E0E7CE9F3F09F0E4CE95E0E2CE42
:1042D0005770E52FF0E0EA54F94F5081542309F06C
:1042E00000CE8ECF1770E12FF0E0EA54F94FE08155
:1042F000ED2309F015CE06CE1770E12FF0E0EA5459
:10430000F94FE081ED2309F027CE18CE1770E12F89
:10431000F0E0EA54F94FE081ED2309F039CE2ACEDE
:104320001770E12FF0E0EA54F94FE081ED2309F036
:104330004BCE3CCE8090DB099090DC09A090DD094B
:10434000B090DE0984169506A606B70608F054CE8E
:1043500095E0A0CEB501A40193E01ACEB501A40169
:1043600092E0FACDB501A40191E0DACDB501A40146
:1043700094E02ACE94E0ACCD93E09FCD92E092CD34
:10438000AA2309F46EC0F13009F4E8C008F07DC03A
:104390004FEF5FEFBA018090B7099090B809A090F5
:1043A000B909B090BA0984169506A606B70608F4AE
:1043B00029C14A015B01B501A401E52D332309F4AC
:1043C00044CE8090C0099090C109A090C209B090DD
:1043D000C30984169506A606B70608F415C14A0156
:1043E0005B01B501A401222309F439CE0091C9096A
:1043F0001091CA092091CB093091CC0904171507F7
:104400002607370708F406C18A019B01B901A801F4
:10441000882309F42ECE0091D2091091D30920915E
:10442000D4093091D509041715072607370708F472
:10443000DFC08A019B01BB2381F0B901A801009173
:10444000DB091091DC092091DD093091DE090417A8
:1044500015072607370708F41CCE9F3F09F468CEDE
:1044600019CEE52D4FEF5FEFBA01E5CDF23009F03F
:1044700087CFE091B509E51508F4BEC0E52DA1117F
:1044800007C04FEF5FEFBA01D6CDE52DF230C9F787
:104490004091BE094E1708F4BFC04E2FE42F3323BE
:1044A00009F4C4C04FEF5FEFBA013091C7093E175E
:1044B00008F4B4C03E2F222309F4B6C0E32F2091A4
:1044C000D0092E1708F4ACC02E2F882309F4B2C0EF
:1044D000E22F8091D9098E1708F4A4C08E2FBB2338
:1044E00009F4BBCFE82FD0CDE091B5095E1608F4F2
:1044F0008FC0E52DAA2329F24E2FE091BE094E1759
:1045000008F484C0E42F332309F490C04FEF5FEF29
:10451000BA013091C709E31708F46CC03E2F22237B
:1045200009F482C0E32F2091D009E21708F466C095
:104530002E2F882309F47EC0E22F8091D909E81735
:1045400008F45EC08E2FBB2309F487CFE82F80913B
:10455000E209E81708F081CF95E09CCD452DCDCF3D
:1045600080E090E007C033243394019680389105B1
:1045700009F477CC82179307C1F3E82FE695E69507
:10458000E695F0E0E256F64F4081442371F3FC01DA
:10459000E770FF27EA54F94F5081542331F3821713
:1045A00093070CF4C5CDDFCF80E090E007C0332443
:1045B000339401968038910509F453CC8217930700
:1045C000C1F3E82FE695E695E695F0E0E256F64F62
:1045D0004081442371F3FC01E770FF27EA54F94F4F
:1045E0005081542331F3281739070CF4A1CDDFCFC4
:1045F00094E021CF92E093CF90E041CF93E099CF28
:1046000094E0A1CF91E0D7CE92E0EBCE91E07BCFCA
:1046100090E070CF93E0FACE91E040CF92E04BCFA4
:1046200093E053CF94E05BCFE32F19CD4FEF5FEFD3
:10463000BA010BCDE22F1DCDCF934FB7F89436ECD6
:1046400031BB469A80EE87B997E09AB98DB981E07F
:1046500085B980E488B91BB880E28EB987E481BB54
:1046600052E05A95F1F700C026B199B18CB131BB37
:10467000479AC22FC695C37050E8259F9001112418
:10468000C22B292F2071C22B292F26952695287001
:10469000C22B96959076C92B90E0880F991F847055
:1046A0009927C82B87EE87B987EF8AB982EE8DB933
:1046B0004FBF8091DE0D882331F0C5FD04C080918D
:1046C0005F0F85FD45C08091220B882351F18091B9
:1046D0005F0F8C2785FF25C0C5FF13C08091210B7C
:1046E000882309F441C0EAE9FAE09FEF05C031965A
:1046F0005BE0EA31F507C1F1808187FFF8CF908355
:10470000F6CF8091210B823049F0EAE9FAE080810E
:10471000806881938BE0EA31F807C9F782E08093E3
:10472000210B80915B0F823021F0C0935F0FCF91FE
:104730000895C0FFFACF80915F0F80FDF6CF809182
:10474000CC0D8F5F8093CC0DC0935F0FCF910895F8
:104750000E94944F86E0E4EEF9E0A2E2BEE0019010
:104760000D928A95E1F7DDCF80E0D9CFCF93DF932B
:10477000D82FC62F8091220B8D17C1F0C0DA2FEFF2
:104780003FEF30931B0B20931A0B8FEF80931C0B82
:1047900040E850E06FEF70E08AE99AE00E944268DA
:1047A0000E94024F80915B0F81112EC08091210BDE
:1047B0008C17A1F0EAE9FAE0C11117C02FEF05C08C
:1047C00031968BE0EA31F80749F0908197FFF8CFF6
:1047D000208331968BE0EA31F807B9F7D093220BAA
:1047E000C093210BDF91CF910895908190689193B0
:1047F0008BE0EA31F80791F39081906891938BE018
:10480000EA31F80791F7EACF2FEF3FE730931E0B1D
:1048100020931D0BCBCF0F931F93CF93DF93D82FF4
:10482000062F80935E0F862F0E94BD39DC3008F082
:1048300058C013E04CE0612F8D2F0E94D5148111D8
:1048400003C01F5F1730B1F7ED2FF0E0DF01AA0FB3
:10485000BB1FA156B14F8D919C919C01220F331F1C
:10486000DF01AA0FBB1FAD53B14F4D915C91241BCB
:10487000350BDF01AA0FBB1FA558B14F2D933C93F9
:10488000A901440F551F481B590BDF01AA0FBB1F7D
:10489000A95AB14F4D935C93440F551FDF01AA0FE6
:1048A000BB1FAD5CB14F421B530B4D935C93DF01BB
:1048B000AA0FBB1FA15DB04FCF01880F991F855F65
:1048C000904FEC0128813981220F331FEE0FFF1F1B
:1048D000E951F14F80819181281B390B2D933C9335
:1048E00024C014E044E2612F8D2F0E94D514882348
:1048F00041F0ED2FF0E0EE0FFF1FED53F14F44E0DC
:1049000004C01F5F183071F7F4CFDF019497208146
:104910003181220F331F84A195A1281B390B1196D9
:104920003C932E934150FD0181F760E0802F0E945F
:10493000C839DF91CF911F910F910C942B3AEF92D0
:10494000FF920F931F93CF93DF93EC01162FF42E5A
:10495000E22E80919F16843071F1C230D10509F4A6
:1049600053C0C330D10571F1C130D105F9F1C43064
:10497000D105C8F5E0919616F0919716309739F069
:104980000E2D2F2D412FBE018AE796E10995E0916A
:104990009816F0919916309739F00E2D2F2D412F42
:1049A000BE018AE796E10995DF91CF911F910F91A2
:1049B000FF90EF900895E0919416F091951630973E
:1049C000F9F6D8CF862F807F803A09F48DC008F0A1
:1049D00041C0803809F456C0803961F6E0917E16F6
:1049E000F0917F1642C0C0E0D0E0C4CF683F50F1E4
:1049F000E0919016F0919116309709F4BBCF612F9A
:104A00008AE796E10995C3CF862F807F803D09F420
:104A100055C0803F09F440C0803C09F0ABCFE09125
:104A20008816F0918916309709F4A4CF133F09F442
:104A30003FC0113FE9F1612F6F704F2D8AE796E17A
:104A40000995A5CF663F09F095CFE0919216F091B8
:104A50009316D2CF803ED9F0803FA9F1803B09F078
:104A600089CFE0917C16F0917D16309709F482CFC2
:104A7000123F99F1612F6F702E2D4F2D8AE796E12D
:104A8000099585CFE0918016F0918116EECFE091E7
:104A90008416F0918516E9CF633F59F1613F09F023
:104AA00069CFE0918E16F0918F16309709F462CF9E
:104AB0004F2D612F8AE796E1099569CFE0918A161B
:104AC000F0918B16B0CF623F09F054CFE09186167B
:104AD000F0918716309709F44DCF2E2D4F2D62EFB0
:104AE0008AE796E1099553CFE0918216F0918316FB
:104AF000BCCFE0918C16F0918D163097C9F63ACF65
:104B0000E82FF0E0EE0FFF1FED5CF14F8081918107
:104B100008958038910538F4FC01E050FF4F208162
:104B200030E0C90108952FEF3FEFFBCF26EC90EE68
:104B300087E0F0E8E7E477EE67EF52EE4FB7F894DE
:104B400021BB469A97B98AB99DB915B8F8B98BB9FE
:104B50001EB8E1BB32E03A95F1F700C036B1A9B119
:104B6000ACB121BB479A77B96AB95DB94FBF45E08F
:104B70004A95F1F7000032FFE1CF8FB7F89496EC39
:104B800091BB469A15B891E898B993ED9BB990E21C
:104B90009EB997E891BB95E09A95F1F700008FBF19
:104BA000089526EC90EE87E0F0E8E7E477EE67EF13
:104BB00052EE4FB7F89421BB469A97B98AB99DB97E
:104BC00015B8F8B98BB91EB8E1BB32E03A95F1F7E8
:104BD00000C036B1A9B1ACB121BB479A77B96AB967
:104BE0005DB94FBF45E04A95F1F7000032FFE1CFD4
:104BF0008FB7F89496EC91BB469A15B890E898B99F
:104C000093E09BB990E29EB997E891BB95E09A95A5
:104C1000F1F700008FBF08956F928F929F92AF922D
:104C2000BF92CF92DF92EF92FF920F931F93CF9399
:104C3000DF93E0919A16F0919B16309719F08AE76E
:104C400096E109952FB7F8948091631790916217B8
:104C5000891708F005C100916417080F091B2FBFC1
:104C600010E00115110509F476C0C0E0D0E02091F4
:104C70006417EE24E394F12CE3E09E2EF4E08F2EF3
:104C8000A2E0AA2EBB24B394892F622F90E070E09B
:104C90000E943064E0916517F0916617E80FF91FE4
:104CA000F081F83F08F065C0F7FF70C080919F1653
:104CB000843031F0F0939C16F092A116E092A01689
:104CC0008F2F807F803B79F198F4803961F1803AB1
:104CD00051F1803841F1F03F09F4AEC0F73F09F4DB
:104CE000C2C010929F161092A1161092A0161DC05D
:104CF000803D09F49EC008F499C0803EA1F0803F39
:104D000051F7EF2FE15FEF3030F7AE2FB0E0AC534B
:104D1000B94F8C91813009F498C0E8F2823009F4DF
:104D200088C08330F1F690929F163FB7F894909127
:104D30006217892F90E0019620916417622F70E02E
:104D40000E943064982F809362173FBF2196C0174E
:104D5000D10708F499CFDF91CF911F910F91FF9068
:104D6000EF90DF90CF90BF90AF909F908F906F901B
:104D70000895D0909F16B0929F1620E040E06F2FCC
:104D800081E090E0DCDDD0929F16CFCF60909F163F
:104D9000662059F24091A0165091A1169A01ABEAF3
:104DA000BAEA0E94DD686C01D694C794C601880FE8
:104DB000991F8C0D9D1D6A01C81AD90AD601A658E3
:104DC000B94E9296FC93CA0101969093A1168093D6
:104DD000A01621E0C216D104B1F022E0C216D1041F
:104DE00009F0A3CF20919E1640919D1660919C16CC
:104DF000A6DD80919F16843009F497CFF092A1161A
:104E0000E092A01692CF22E062128FCF20E0409174
:104E10009D1660919C1693DD80919F16843009F455
:104E200084CFD092A116C092A0167FCF803C09F00B
:104E300052CFA0929F1679CF80929F16F0939C1626
:104E4000F092A116E092A01670CF80939F1620E0FA
:104E500040E06F2F81E090E072DD10929F1665CFE9
:104E6000082F091BFCCE4091A0165091A1169A0163
:104E7000ABEABAEA0E94DD68969587959C01220FFD
:104E8000331F280F391FDA01A21BB30BA658B94EE6
:104E90009296FC93CA0101969093A1168093A01656
:104EA00020919E1640919D1660919C1648DD1092AF
:104EB0009F163BCF2F923F924F925F926F927F92BD
:104EC0008F929F92AF92BF92CF92DF92EF92FF921A
:104ED0000F931F93CF93DF93CDB7DEB765970FB6D0
:104EE000F894DEBF0FBECDBFA62E882309F496C06E
:104EF000A091F20DB091F30D2090F40D3090F50DCE
:104F00004091E60D5091E70D2091EC0D3091ED0DA3
:104F100080901E0E90901F0EE091310AF091320A9F
:104F20006090D90D6091E30DF093610FE093600FF5
:104F3000B093630FA093620F3092650F2092640FBD
:104F40005093670F4093660F3093690F2093680F5B
:104F500090926B0F80926A0F60926C0F60936D0F4E
:104F6000CF01880F892F881F990B91958C011A9575
:104F70001E830D83AA0FAB2FAA1FBB0BB1958D010A
:104F80001A95412C512C72016101CC0CDD1CEE1CD8
:104F9000FF1CCC0CDD1CEE1CFF1CC20CD31CE41C43
:104FA000F51CA3E0F694E794D794C794AA95D1F79B
:104FB0005695479556954795369527953695279555
:104FC000DB8AB52E732ED701C6019927AA27BB27E6
:104FD0008F87988BA98BBA8B662309F444C0623003
:104FE00008F446C42BEA529F312D1124369536958C
:104FF0003695B32EBB0CB30EBB0CBB0C729E212D91
:105000001124269526952695722E770C720E770C14
:10501000770C1C861B861A8619862DC0E091310AF2
:10502000F091320A8091600F9091610FA091F20D82
:10503000B091F30D8E179F0709F4F5C32090F40D7E
:105040003090F50D4091E60D5091E70D2091EC0D5B
:105050003091ED0D80901E0E90901F0E6090D90D36
:105060006091E30D61CFDA01BB27BA87A987F90107
:10507000FF27FC87EB872091DE0D2D87292D332715
:105080003D8B2C8B3091C50D3E87A7FCDBC0AA2041
:1050900009F4D8C0A7FC33C321E0A21609F42FC33A
:1050A000A7FC99C222E0A21609F495C2A7FCFFC191
:1050B00023E0A21609F4FBC1A7FC66C154E0A516C3
:1050C00009F462C1A7FC1CC085E0A816C9F065966A
:1050D0000FB6F894DEBF0FBECDBFDF91CF911F9109
:1050E0000F91FF90EF90DF90CF90BF90AF909F9087
:1050F0008F907F906F905F904F903F902F9008958A
:105100008091E309882319F3F090E2092D813E8113
:10511000442737FD4095542F2D833E834F83588776
:105120002090A70D3090A80D442437FC4094542CB7
:10513000220E331E441E551E45E069858B2D8F0DB2
:105140000E948753280E391E411C511C57FCABC5C9
:105150002114310431E0430651040CF09CC38090CB
:10516000B30D9090B40DAA2497FCA094BA2C2D8175
:105170003E814F815885820E931EA41EB51EC80124
:10518000AA2797FDA095BA2F880E991EAA1EBB1EAE
:105190004BE06B85872D8F0D0E948753880E991EDB
:1051A000A11CB11CB7FC77C58114910431E0A306A2
:1051B000B1040CF076C35D855111DAC3662009F4A1
:1051C000E9C48F2D90E022E030E02619310902C0B9
:1051D000959587952A95E2F73B89830F0091BF0D3E
:1051E0001091C00D41E16F850E948753A801662789
:1051F00057FD6095762F480F591F611D711D77FD72
:10520000C1C54115510581E06807710524F04FEFD4
:105210005FEF60E070E00E85002309F4BDC43092BA
:10522000800D20927F0D90928C0D80928B0D50936B
:10523000980D4093970D61104ACF5093740D409391
:10524000730D45CF8091B609882309F423CF909040
:10525000B5092D813E81442737FD4095542F298380
:105260003A834B835C8320909D0D30909E0D6101AD
:10527000EE24D7FCE094FE2CC20ED31EE41EF51ED5
:1052800040E069858B2D890D0E948753C80ED91E79
:10529000E11CF11CF7FC03C5C114D10431E0E306A5
:1052A000F1040CF016C32090A90D3090AA0D4424EF
:1052B00037FC4094542C29813A814B815C81220E29
:1052C000331E441E551EC801AA2797FDA095BA2F6C
:1052D000280E391E4A1E5B1E46E06B85872D890D00
:1052E0000E948753A2019101280F391F411D511DB2
:1052F000DA01C90157FDAFC4009731E0A307B1053A
:105300000CF0DFC25D8551118DC376016C01662002
:1053100009F48DC4892D90E022E030E0261931098E
:1053200002C0959587952A95E2F73B89830F809077
:10533000B50D9090B60D4CE06F850E948753A40187
:10534000662757FD6095762F480F591F611D711D07
:1053500077FD28C54115510581E06807710524F0E6
:105360004FEF5FEF60E070E02E8521111EC4F092D8
:10537000520DE092510DD0925E0DC0925D0D509392
:105380006A0D4093690D86CE8091DA09882309F46D
:1053900099CE9090D9092D813E81442737FD4095C3
:1053A000542F29833A834B835C832090A50D309042
:1053B000A60D442437FC4094542C220E331E441E68
:1053C000551E44E069858B2D890D0E948753280E58
:1053D000391E411C511C57FC4AC42114310431E0D0
:1053E000430651040CF067C2C090B10DD090B20DCD
:1053F000EE24D7FCE094FE2C29813A814B815C811C
:10540000C20ED31EE41EF51EC801AA2797FDA09563
:10541000BA2FC80ED91EEA1EFB1E4AE06B85872DE7
:10542000890D0E948753B701A601480F591F611DBE
:10543000711D77FD18C44115510531E063077105F1
:105440000CF069C22D852111C5C271016A0161107C
:10545000F0C38B898090BD0D9090BE0D40E16F85AB
:105460000E948753A401662757FD6095762F480F49
:10547000591F611D711D77FD99C44115510531E01A
:105480006307710524F04FEF5FEF60E070E02E8559
:1054900021119EC3F0925A0DE092590DD092660DE3
:1054A000C092650D5093720D4093710D0BCE80919B
:1054B000D109882309F400CE9090D0092D813E8136
:1054C000442737FD4095542F29833A834B835C83CF
:1054D0002090A30D3090A40D6101EE24D7FCE09440
:1054E000FE2CC20ED31EE41EF51E43E069858B2DF3
:1054F000890D0E948753C80ED91EE11CF11CF7FCD0
:10550000C6C3C114D10431E0E306F1040CF0FDC1BF
:105510002090AF0D3090B00D442437FC4094542CB3
:1055200029813A814B815C81220E331E441E551E17
:10553000C801AA2797FDA095BA2F280E391E4A1E2A
:105540005B1E49E06B85872D890D0E948753B20150
:10555000A101480F591F611D711D77FD94C34115AD
:10556000510531E0630771050CF0C7C12D8521118C
:105570007FC276016A0161104CC38B898090BB0D9C
:105580009090BC0D4FE06F850E948753A401662761
:1055900057FD6095762F480F591F611D711D77FDCE
:1055A000FDC34115510531E06307710524F04FEF4C
:1055B0005FEF60E070E02E852111A5C2F092580DDA
:1055C000E092570DD092640DC092630D5093700D10
:1055D00040936F0D71CD8091C809882309F466CD81
:1055E0009090C7092D813E81442737FD4095542F67
:1055F00029833A834B835C832090A10D3090A20DC8
:105600006101EE24D7FCE094FE2CC20ED31EE41EF2
:10561000F51E42E069858B2D890D0E948753C80EC7
:10562000D91EE11CF11CF7FC2AC3C114D10431E0DE
:10563000E306F1040CF05BC12090AD0D3090AE0D8F
:10564000442437FC4094542C29813A814B815C815D
:10565000220E331E441E551EC801AA2797FDA09591
:10566000BA2F280E391E4A1E5B1E48E06B85872D17
:10567000890D0E948753B201A101480F591F611D76
:10568000711D77FDF8C24115510531E063077105C1
:105690000CF025C12D85211112C276016A0161101D
:1056A000AAC28B898090B90D9090BA0D4EE06F859B
:1056B0000E948753A401662757FD6095762F480FF7
:1056C000591F611D711D77FD65C34115510531E0FD
:1056D0006307710524F04FEF5FEF60E070E02E8507
:1056E000211145C2F092560DE092550DD092620DF7
:1056F000C092610D50936E0D40936D0DD7CC80918B
:10570000BF09882309F4CCCC9090BE092D813E813D
:10571000442737FD4095542F29833A834B835C837C
:1057200020909F0D3090A00D6101EE24D7FCE094F5
:10573000FE2CC20ED31EE41EF51E41E069858B2DA2
:10574000890D0E948753C80ED91EE11CF11CF7FC7D
:1057500086C2C114D10431E0E306F1040CF095C017
:105760002090AB0D3090AC0D442437FC4094542C69
:1057700029813A814B815C81220E331E441E551EC5
:10578000C801AA2797FDA095BA2F280E391E4A1ED8
:105790005B1E47E06B85872D890D0E948753B20100
:1057A000A101480F591F611D711D77FD50C24115A0
:1057B000510531E0630771050CF05FC02D852111A3
:1057C000B2C076016A016110C4C18B898090B70DA7
:1057D0009090B80D4DE06F850E948753A401662715
:1057E00057FD6095762F480F591F611D711D77FD7C
:1057F000CDC24115510531E06307710524F04FEF2B
:105800005FEF60E070E02E85211190C1F092540DA1
:10581000E092530DD092600DC0925F0D50936C0DCD
:1058200040936B0D3DCC8091620F9091630F20905F
:10583000F40D3090F50DA817B90709F003CC80914D
:10584000640F9091650F4091E60D5091E70D281679
:10585000390609F4AFC22091EC0D3091ED0D809026
:105860001E0E90901F0E6090D90D6091E30D5CCBE1
:105870001C861B861A861986FECB4FEF5FEF60E011
:1058800070E02D8521114FC09CCFCC24CA94DC2C14
:10589000E12CF12C65CF22242A94322C412C512C5E
:1058A0005ECC88248A94982CA12CB12C5D8555233C
:1058B00009F484CC5DC022242A94322C412C512C32
:1058C00093CD8FEF9FEFA0E0B0E05D855111AAC0AE
:1058D0001CCDCC24CA94DC2CE12CF12CE4CC4FEF71
:1058E0005FEF60E070E02D852111E9C0D6CECC24B9
:1058F000CA94DC2CE12CF12C9FCE4FEF5FEF60E0DF
:1059000070E02D852111B4C034CECC24CA94DC2C97
:10591000E12CF12CFDCD4FEF5FEF60E070E02D85C5
:10592000211158C092CD8C899D89919581959109BD
:10593000AA2797FDA095BA2FC80ED91EEA1EFB1EF6
:10594000F7FC1CC2C114D104E1E0EE06F1040CF036
:10595000BFC17601840F951FA61FB71FB7FDFEC1FB
:105960000097F1E0AF07B1050CF0BEC16C012BCF81
:105970008C899D89880F991F0C891D89800F911F23
:10598000919581959109AA2797FDA095BA2FB2010B
:10599000A101480F591F6A1F7B1F77FDEBC14115FD
:1059A000510511E0610771050CF087C11A01880EDD
:1059B000991EAA1EBB1EB7FCD5C18114910421E01B
:1059C000A206B1040CF4FACB88248A94982CA12C5A
:1059D000B12CF4CB8C899D89880F991F2C893D8926
:1059E000820F931FAA2797FDA095BA2F280E391E64
:1059F0004A1E5B1E57FCBAC12114310431E0430634
:105A000051040CF06BC17101840F951FA61FB71FC5
:105A1000B7FD90C1009741E0A407B1050CF070C13B
:105A20006C0115CD2C893D89A901662757FD60952C
:105A3000762FC40ED51EE61EF71EF7FC83C1C114D7
:105A4000D10431E0E306F1040CF066C17601840F65
:105A5000951FA61FB71FB7FD7DC1009741E0A407A2
:105A6000B1050CF453CC8FEF9FEFA0E0B0E04ECC2B
:105A70008C899D89919581959109880F991FAA27F5
:105A800097FDA095BA2FC80ED91EEA1EFB1EF7FC83
:105A900055C1C114D104E1E0EE06F1040CF007C1D8
:105AA0007601840F951FA61FB71FB7FD3BC1009756
:105AB000F1E0AF07B1050CF029C16C015CCD8C8918
:105AC0009D89880F991FAA2797FDA095BA2FC80E08
:105AD000D91EEA1EFB1EF7FC39C1C114D104E1E056
