:1000000081C100009EC100009CC100009AC1000097
:1000100098C1000096C1000094C1000092C1000088
:1000200090C100008EC100000C94934B0C94944935
:1000300088C100000C94D54B84C1000082C100002F
:1000400080C100007EC100007CC100007AC10000B8
:1000500078C1000077C1000074C1000072C10000C7
:1000600070C100006EC100006CC100006AC10000D8
:1000700068C1000066C1000064C1000062C10000E8
:1000800060C100005EC100005CC100005AC10000F8
:1000900058C1000056C1000005A84CCDB2D44EB9DD
:1000A0003836A9020C50B9918688083CA6AAAA2A1B
:1000B000BE000000803F08000000BE922449123EAE
:1000C000ABAAAA2ABECDCCCC4C3E00000080BEAB71
:1000D000AAAAAA3E00000000BF000000803F000066
:1000E000000000084178D3BB4387D1133D190E3C73
:1000F000C3BD4282AD2B3E68EC8276BED98FE1A9AA
:100100003E4C80EFFFBE01C4FF7F3F0000000000B7
:1001100007634236B79BD8A71A39685618AEBAABF0
:10012000558C1D3CB7CC5763BD6DEDFD753EF61784
:100130007231BF000000803F4572726F723A2062D8
:100140006164207061676520210A005761726E69E1
:100150006E673A2061737369676E65725F67657475
:10016000566F69636546726F6D4E6F746520666F7A
:10017000756E64206E6F20766F696365210A006278
:10018000616420666C697020666C6F7020737461A6
:10019000747573203A20002074696D656F75742042
:1001A000636F756E74203A20000A004572726F7298
:1001B0003A2077726974696E6720746F6F206D756D
:1001C0006368206461746120746F2073746F72615E
:1001D000676520210A00000100007F021200020072
:1001E0000091022200220000B3021500210000A3AA
:1001F000020900030000C8020401030904CC021430
:1002000002030904E20220000001C12600457272C7
:100210006F723A204E4D4920617373657274656444
:100220002C206E6F2055415254204952510A0045EE
:1002300072726F723A2055415254204952512077C0
:100240006974686F757420646174610A0045727224
:100250006F723A2055415254206672616D696E6723
:10026000206572726F720A005761726E696E673A2A
:100270002055415254206F76657272756E0A0012D5
:1002800001000200000020C01679040001010200F4
:100290000109022200010100C0320904000001032B
:1002A0000000000921110100012215000705830348
:1002B0002000010631FF0974A1537508150026FFBF
:1002C00000952009758102C0040309041403590034
:1002D0006F007500720020004E0061006D00650027
:1002E0000000200359006F007500720020005500C7
:1002F000530042002000440065007600690063005E
:100300006500000011241FBECFEFD0E2DEBFCDBFDD
:1003100015E1A0E0BAE001C01D92A43EB107E1F7EB
:100320001AE0A0E0B1E0EAECFAEB00E00BBF02C09B
:1003300007900D92A030B107D9F70E94B84C0C94E9
:10034000635D5ECE1F920F920FB60F9211240BB613
:100350000F922F923F924F925F926F927F928F9265
:100360009F92AF92BF92CF92DF92EF92FF920F9344
:100370001F932F933F934F935F936F937F938F932D
:100380009F93AF93BF93EF93FF93CF93DF93CDB73B
:10039000DEB76097DEBFCDBF80916E008D7F80930A
:1003A0006E0078944091520C842F8C7111E009F00A
:1003B00010E0942F9370923011F40C9486119330C6
:1003C00011F40C947C11913011F40C94E40C809194
:1003D0001B0C84FF02C00C94A3114F5F4093520C7E
:1003E00010917D14112311F40C94EC1080906B1477
:1003F00090906C14A0906D14B0906E144B2D5527F6
:1004000066277727452B462B472B11F00C940911B3
:1004100060916F14709170148091711490917214A6
:10042000123011F40C944911143011F40C9454113D
:100430002091771430917814DC01CB01880D991D3F
:10044000AA1DBB1D80936B1490936C14A0936D1424
:10045000B0936E1440E050E0305841095109A0912A
:100460007314B09174140E940A5D2FEF3FEF40E0C7
:1004700050E00E941A5D3A87298730937A142093BE
:10048000791480911B0C81FD02C00C94E810E98462
:10049000FA8482FD02C01A8619860091360C1091EA
:1004A000370C20E030E01058210931098091200CF0
:1004B00087FD02C00C94E4106090480C7090490CC9
:1004C000C301A0E0B0E09058A109B1093C018091BE
:1004D000150CDD24D39481110C94EB0E25E030E053
:1004E0003A83298344E050E058874F8363E070E00B
:1004F0007E836D8322E030E03C832B83AA24A39487
:10050000B12C8091000C87FD02C00C94070F8091E4
:10051000010C87FD00C2D1100C94B8111C861B86FB
:10052000CFB6F8948CE28B849C84889DF001899DE1
:10053000F00D1124E55AFD4E24A135A117014424E4
:1005400037FC4094542CB301AA27629FB12D73034A
:10055000A001369FB00D411D5A1F72035A0BB00DFA
:10056000411D5A1F1124662757FD6095762F420DB5
:10057000531D641D751DC501880F991FFC01E55AA7
:10058000FD4EED5DFD4F0190F081E02D4E0F5F1FA0
:10059000611D711D77FF02C00C942D12411551058C
:1005A000A1E06A07710524F04FEF5FEF60E070E0B3
:1005B000BA01672F772766956695B62FE6ECE1BB03
:1005C000469AA62FAA0FFA2FF670F0686071772767
:1005D00062607A2F770F7072762BA07C7A2BB6959B
:1005E000B270B06215B8F8B97BB9BEB977E871BB23
:1005F0005695479556954795642FE1BB469AA42F8B
:10060000AA0FF42FF695661F6627661FBA2FB670DD
:100610006B2B60684071552742605A2F550F5072FE
:10062000542BA07C5A2BF27015B868B95BB9FEB98F
:1006300071BBE1BB469A41E045B953E458B950ED6E
:100640005BB950EA5EB971BBE1BB469A45B947E474
:1006500048B940EF4BB942EA4EB971BBFC01E55ACB
:10066000FD4EE15DFD4F4081518152014101840EFB
:10067000951EA11CB11CB501A401B7FE02C00C94CB
:10068000281241155105A1E06A07710524F04FEFCA
:100690005FEF60E070E01A01452F552746954695BB
:1006A000F42F66EC61BB469AE42FEE0F7E2F767036
:1006B00070684071552742605E2F550F5072542B61
:1006C000E07C5E2BF695F270F06215B878B95BB9F4
:1006D000FEB957E851BB3694279436942794422D9F
:1006E00061BB469AE22DEE0F722D7695441F44278A
:1006F000441FFE2FF6704F2B4068D101A071BB271D
:10070000A260FE2FFF0FF072FA2BE07CFE2B7270BE
:1007100015B848B9FBB97EB951BB61BB469AE1E057
:10072000E5B977E478B940ED4BB942EA4EB951BB2F
:1007300061BB469AE5B978B960EF6BB94EB951BB68
:1007400089849A841401442437FC4094542CAA27A9
:10075000029FB12D1303A001309FB00D411D5A1F00
:1007600012035A0BB00D411D5A1F1124662757FD65
:100770006095762F240E351E461E571E855A9D4EB7
:10078000FC01E55CFD4F80819181280E391E411CE2
:10079000511C57FE02C00C942312D201C101211436
:1007A000310421E04206510424F08FEF9FEFA0E0D6
:1007B000B0E09C01232F332726952695722F56EC07
:1007C00051BB469A622F660F462F467040682071D3
:1007D00033272260362F330F3072322B607C362B5A
:1007E00076957270706215B848B93BB97EB947E822
:1007F00041BB9695879596958795282F51BB469A2C
:10080000682F660F382F3695221F2227221F762F3A
:100810007670272B2068807199278260962F990F18
:100820009072982B607C962B327015B828B99BB9C2
:100830003EB941BB51BB469A61E065B983E488B9D2
:1008400080EE8BB972EA7EB941BB51BB469A65B95D
:10085000A7E4A8B9B0EFBBB97EB941BB8CE28B84E9
:100860009C84889DF001899DF00D1124E957FC4E70
:10087000808191819C01232F332726952695B22EC6
:1008800051BB469AF22FFF0FEF2FE670E068207100
:10089000332722603F2F330F3072322BF07C3F2BF7
:1008A0002B2D26952270206215B8E8B93BB92EB9D8
:1008B00041BB9695879596958795282F51BB469A6B
:1008C000E82FEE0F382F3695221F2227221FFE2FEA
:1008D000F6702F2B20688071992782609E2F990FC8
:1008E0009072982BE07C9E2B327015B828B99BB97A
:1008F0003EB941BB51BB469A65B9A8B980EB8BB9EB
:1009000080EA8EB941BB51BB469A65B9A8B9BBB95B
:100910007EB941BBCFBE8091020C87FD08C2D110C9
:100920000C94C61120E030E0CFB6F8948CE2829FA0
:10093000F001839FF00D1124E55AFD4E44A155A10D
:100940004701AA2497FCA094BA2CB301AA27649F5C
:10095000B12D75031001569FB00D211C3A1E740372
:100960003A0AB00D211C3A1E1124442437FC40944D
:10097000542C280C391C4A1C5B1C8B819C81880FD1
:10098000991FFC01E55AFD4EED5DFD4F0190F08190
:10099000E02D2E0E3F1E411C511C57FE02C00C9430
:1009A0000F122114310471E0470651042CF0222467
:1009B0002A94322C412C512CB101F101EF2FFF2749
:1009C000E695E6954E2EA6ECA1BB469A5E2E550CFA
:1009D000B52DB670B068E071FF27E260F52DFF0F0E
:1009E000F072FE2BE52DE07CFE2BE42DE695E27007
:1009F000E06215B8B8B9FBB9EEB9F7E8F1BB769586
:100A0000679576956795E62FA1BB469A562E550CAD
:100A1000B62FB695EE1FEE27EE1F0F2EF6E04F2EE7
:100A2000F02D4520E429E068607177276260752D1C
:100A3000770F7072762B652D607C762BB27015B8AF
:100A4000E8B97BB9BEB9F1BBA1BB469A61E065B913
:100A500075E478B970ED7BB970EA7EB9F1BBA1BBE2
:100A6000469A65B967E468B960EF6BB962EA6EB936
:100A7000F1BBFC01E55AFD4EE15DFD4F60817181E6
:100A8000860E971EA11CB11CB7FE02C00C940A1260
:100A900081149104A1E0AA06B1042CF088248A9460
:100AA000982CA12CB12CB401672F772766956695F9
:100AB000B62FE6ECE1BB469AA62FAA0FFA2FF670E6
:100AC000F0686071772762607A2F770F7072762BEB
:100AD000A07C7A2BB695B270B06215B8F8B97BB924
:100AE000BEB977E871BB9694879496948794682DE5
:100AF000E1BB469AA82DAA0FF82DF695661F66272A
:100B0000661FBA2FB6706B2B6068B0E18B229924F8
:100B1000B2E0AB2E8A28BA2FBB0FB072B829A07CE6
:100B2000BA2BF27015B868B9BBB9FEB971BBE1BB9D
:100B3000469A61E065B9F1E4F8B9F0EEFBB9F0EA84
:100B4000FEB971BBE1BB469A65B967E468B960EF6D
:100B50006BB962EA6EB971BB69857A854B01AA24CB
:100B600097FCA094BA2CAA27049FB12D1503B001BD
:100B7000509FB00D611D7A1F14037A0BB00D611DDB
:100B80007A1F1124AB01662757FD6095762F840EDE
:100B9000951EA61EB71E855A9D4EFC01E55CFD4FB5
:100BA00080819181880E991EA11CB11CB7FE02C0E4
:100BB0000C9405128114910471E0A706B1042CF085
:100BC00088248A94982CA12CB12CC401B401672FDD
:100BD000772766956695A62F56EC51BB469AF62F59
:100BE000FF0FEF2FE670E0686071772762604F2F8C
:100BF000440F4072462BF07C4F2B6A2F6695627033
:100C0000606215B8E8B94BB96EB947E841BB969533
:100C1000879596958795682F51BB469AE82FEE0FDA
:100C2000782F7695661F6627661FFE2FF6706F2B4E
:100C300060688071992782609E2F990F9072982B1F
:100C4000E07C9E2B727015B868B99BB97EB941BB28
:100C500051BB469A71E075B985E488B980EE8BB9CD
:100C600062EA6EB941BB51BB469A75B9B7E4B8B9EF
:100C7000A0EFABB96EB941BB8CE2829FF001839FBC
:100C8000F00D1124E957FC4E808191819C01232FA6
:100C9000332726952695B22E51BB469AF22FFF0F89
:100CA000EF2FE670E0682071332722603F2F330F6B
:100CB0003072322BF07C3F2B2B2D26952270206238
:100CC00015B8E8B93BB92EB941BB9695879596956D
:100CD0008795282F51BB469AE82FEE0F382F36956F
:100CE000221F2227221FFE2FF6702F2B20688071D3
:100CF000992782609E2F990F9072982BE07C9E2BF3
:100D0000327015B828B99BB93EB941BB51BB469A60
:100D100075B981E488B980EB8BB96EB941BB51BB21
:100D2000469A75B9B8B9ABB96EB941BBCFBE80911F
:100D3000030C87FD00C2D1100C94DE1120E030E0DE
:100D4000CFB6F8948CE2829FF001839FF00D1124BE
:100D5000E55AFD4E44A155A14701AA2497FCA09451
:100D6000BA2CB301AA27649FB12D75031001569FB9
:100D7000B00D211C3A1E74033A0AB00D211C3A1E14
:100D80001124442437FC4094542C280C391C4A1C50
:100D90005B1C8D819E81880F991FFC01E258FB4EE0
:100DA0000190F081E02D2E0E3F1E411C511C57FE7C
:100DB00002C00C94FB112114310471E04706510468
:100DC0002CF022242A94322C412C512CB101F10117
:100DD000EF2FFF27E695E6954E2EA6ECA1BB469A8F
:100DE0005E2E550CB52DB670B068E071FF27E2603D
:100DF000F52DFF0FF072FE2BE52DE07CFE2BE42D90
:100E0000E695E270E06215B8B8B9FBB9EEB9F7E85B
:100E1000F1BB7695679576956795E62FA1BB469AC7
:100E2000562E550CB62FB695EE1FEE27EE1F0F2E41
:100E3000F6E04F2EF02D4520E429E0686071772719
:100E40006260752D770F7072762B652D607C762B26
:100E5000B27015B8E8B97BB9BEB9F1BBA1BB469A6F
:100E600071E075B967E468B9E0EDEBB9E0EAEEB9B5
:100E7000F1BBA1BB469A75B968B960EF6BB962EA7C
:100E80006EB9F1BBFC01E657FB4E60817181860EA5
:100E9000971EA11CB11CB7FE02C00C94F611811460
:100EA0009104A1E0AA06B1042CF088248A94982C1D
:100EB000A12CB12CB401672F772766956695B62FC4
:100EC000E6ECE1BB469AA62FAA0FFA2FF670F0685F
:100ED0006071772762607A2F770F7072762BA07C13
:100EE0007A2BB695B270B06215B8F8B97BB9BEB9B5
:100EF000F7E8F1BB9694879496948794782DE1BB9C
:100F0000469AB82DBB0FA82DA695771F7727771F78
:100F10006B2F6670762B706860E18622992462E000
:100F2000A62E8A286B2F660F60726829B07C6B2B07
:100F3000A27015B878B96BB9AEB9F1BBE1BB469AEE
:100F400061E065B973E478B970EE7BB970EA7EB997
:100F5000F1BBE1BB469A65B967E468B960EF6BB96C
:100F600062EA6EB9F1BB69857A854B01AA2497FCC8
:100F7000A094BA2CAA27049FB12D1503B001509F4D
:100F8000B00D611D7A1F14037A0BB00D611D7A1F1D
:100F90001124AB01662757FD6095762F840E951EB0
:100FA000A61EB71EFC01EA56FB4E80819181880E79
:100FB000991EA11CB11CB7FE02C00C940012811432
:100FC000910471E0A706B1042CF088248A94982C2F
:100FD000A12CB12CC401B401672F772766956695C3
:100FE000A62F56EC51BB469AF62FFF0FEF2FE67057
:100FF000E0686071772762604F2F440F4072462B84
:10100000F07C4F2B6A2F66956270606215B8E8B964
:101010004BB96EB947E841BB9695879596958795EC
:10102000682F51BB469AE82FEE0F782F7695661FF2
:101030006627661FFE2FF6706F2B606880719927F8
:1010400082609E2F990F9072982BE07C9E2B72707D
:1010500015B868B99BB97EB941BB51BB469A71E0DE
:1010600075B9A7E4A8B980EE8BB962EA6EB941BB45
:1010700051BB469A75B9A8B9B0EFBBB96EB941BBBF
:101080008CE2829FF001839FF00D1124E957FC4E02
:10109000808191819C01232F332726952695B22E9E
:1010A00051BB469AF22FFF0FEF2FE670E0682071D8
:1010B000332722603F2F330F3072322BF07C3F2BCF
:1010C0002B2D26952270206215B8E8B93BB92EB9B0
:1010D00041BB9695879596958795282F51BB469A43
:1010E000E82FEE0F382F3695221F2227221FFE2FC2
:1010F000F6702F2B20688071992782609E2F990FA0
:101100009072982BE07C9E2B327015B828B99BB951
:101110003EB941BB51BB469A75B983E488B980EBAF
:101120008BB96EB941BB51BB469A75B9A8B9BBB969
:101130006EB941BBCFBE8091040C87FD09C2D110AE
:101140000C94D21120E030E0CFB6F8948CE2829F6C
:10115000F001839FF00D1124E55AFD4E44A155A1E5
:101160004701AA2497FCA094BA2CB301AA27649F34
:10117000B12D75031001569FB00D211C3A1E74034A
:101180003A0AB00D211C3A1E1124442437FC409425
:10119000542C280C391C4A1C5B1C8F819885880FA5
:1011A000991FFC01E55AFD4EED5DFD4F0190F08168
:1011B000E02D2E0E3F1E411C511C57FE02C00C9408
:1011C0001E122114310471E0470651042CF0222430
:1011D0002A94322C412C512CB101F101EF2FFF2721
:1011E000E695E6954E2EA6ECA1BB469A5E2E550CD2
:1011F000B52DB670B068E071FF27E260F52DFF0FE6
:10120000F072FE2BE52DE07CFE2BE42DE695E270DE
:10121000E06215B8B8B9FBB9EEB9F7E8F1BB76955D
:10122000679576956795E62FA1BB469A562E550C85
:10123000B62FB695EE1FEE27EE1F0F2EF6E04F2EBF
:10124000F02D4520E429E068607177276260752DF4
:10125000770F7072762B652D607C762BB27015B887
:10126000E8B97BB9BEB9F1BBA1BB469A71E075B9CB
:1012700061E468B960ED6BB962EA6EB9F1BBA1BB1C
:10128000469A75B977E478B970EF7BB96EB9F1BB5E
:10129000FC01E55AFD4EE15DFD4F60817181860ED6
:1012A000971EA11CB11CB7FE02C00C941912811428
:1012B0009104A1E0AA06B1042CF088248A94982C09
:1012C000A12CB12CB401672F772766956695B62FB0
:1012D000E6ECE1BB469AA62FAA0FFA2FF670F0684B
:1012E0006071772762607A2F770F7072762BA07CFF
:1012F0007A2B6B2F66956270606215B8F8B97BB96E
:101300006EB9F7E8F1BB9694879496948794782DFC
:10131000E1BB469AB82DBB0FA82DA695771F77275E
:10132000771F6B2F6670762B706860E18622992498
:1013300062E0A62E8A286B2F660F60726829B07C47
:101340006B2BA27015B878B96BB9AEB9F1BBE1BB24
:10135000469A61E065B975E478B970EE7BB970EAD8
:101360007EB9F1BBE1BB469A65B967E468B960EF45
:101370006BB962EA6EB9F1BB69857A854B01AA2423
:1013800097FCA094BA2CAA27049FB12D1503B00195
:10139000509FB00D611D7A1F14037A0BB00D611DB3
:1013A0007A1F1124AB01662757FD6095762F840EB6
:1013B000951EA61EB71E855A9D4EFC01E55CFD4F8D
:1013C00080819181880E991EA11CB11CB7FE02C0BC
:1013D0000C9414128114910471E0A706B1042CF04E
:1013E00088248A94982CA12CB12CC401892F992788
:1013F00086958695782F56EC51BB469A682F660FD6
:10140000462F46704068807199278260962F990F09
:101410009072982B607C962B872F869582708062C5
:1014200015B848B99BB98EB947E841BB96948794E3
:1014300096948794982D51BB469A782D770F682DF6
:101440006695991F9927991F872F8670982B90680A
:10145000F401E071FF27E260872F880F80728E2BE6
:10146000707C872B627015B898B98BB96EB941BB87
:1014700051BB469A61E065B981E488B970EBB72E3B
:10148000BBB880EA8EB941BB51BB469A65B9B7E497
:10149000B8B9A0EFABB972EA7EB941BB8CE2829FCA
:1014A000F001839FF00D1124E957FC4E808191815A
:1014B0009C01232F332726952695A22E51BB469AB1
:1014C000F22FFF0FEF2FE670E068207133272260C4
:1014D0003F2F330F3072322BF07C3F2B2A2D269575
:1014E0002270206215B8E8B93BB92EB941BB969578
:1014F000879596958795282F51BB469AE82FEE0F32
:10150000382F3695221F2227221FFE2FF6702F2BF1
:1015100020688071992782609E2F990F9072982B76
:10152000E07C9E2B327015B828B99BB93EB941BBFF
:1015300051BB469A65B985E488B9BBB87EB941BB51
:1015400051BB469A65B9B8B9ABB97EB941BBCFBEFC
:101550008091050C87FD07C2D110FFC680E090E0A6
:10156000DFB6F8942CE2289FF001299FF00D11249A
:10157000E55AFD4E44A055A04701AA2497FCA0942B
:10158000BA2C8D869E86AF86B88A9301A201AA27BF
:10159000249FB12D3503F001529FB00DE11DFA1FBC
:1015A0003403FA0BB00DE11DFA1F11244F01AA24D8
:1015B00097FCA094BA2C2D853E854F855889820EC4
:1015C000931EA41EB51EE981FA81EE0FFF1FDF01F5
:1015D000A258BB4E0D90BC91A02D8A0E9B1EA11C43
:1015E000B11CB7FCFFC68114910431E0A306B1041D
:1015F0002CF088248A94982CA12CB12CD401AB2FE8
:10160000BB27A695A695BA2E46ECF42EF1BA469ABB
:10161000CA2ECC0C56E0E52EEC2040E8E42AA0715E
:10162000BB27A260BC2DBB0FB072BA2BAC2DA07C27
:10163000BA2BAB2DA695A270A06215B8E8B8BBB9BD
:10164000AEB967E8E62EE1BA9694879496948794AB
:10165000B82DF1BA469AB82CBB0CC82CC694BB1F47
:10166000BB27BB1FAB2DA670BA2BB06850E18522FB
:10167000992462E0862AAB2DAA0FA072A82970ECEB
:10168000B722AB29C62215B8B8B9ABB9CEB8E1BA02
:10169000F1BA469AB1E0B5B9A3E4A8B9A0EDABB9E7
:1016A000A2EAAEB9E1BAF1BA469AB5B9B7E4B8B9A7
:1016B000B0EFBBB9AEB9E1BADF01A657BB4E0D9092
:1016C000BC91A02D4D855E856F8578894A0F5B1F83
:1016D000611D711D77FD82C641155105A1E06A07A4
:1016E000710524F04FEF5FEF60E070E0BA01672F03
:1016F000772766956695E62EA6ECA1BB469AF62E50
:10170000FF0CBF2DB670B0686071772762607F2DC7
:10171000770F7072762B6F2D607C762B6E2D669511
:101720006270606215B8B8B97BB96EB977E871BB01
:101730005695479556954795642FA1BB469AF42E2A
:10174000FF0CB42FB695661F6627661F26E0E22EB3
:10175000EF206E2960684071552742605F2D550F5C
:101760005072542B4F2D407C542BB27015B868B971
:101770005BB9BEB971BBA1BB469A51E055B947E40C
:1017800048B960EE6BB960EA6EB971BBA1BB469A0D
:1017900055B948B940EF4BB942EA4EB971BB89849B
:1017A0009A84A401662757FD6095762F9201AA2797
:1017B000029FB12D13037001309FB00DE11CFA1E82
:1017C0001203FA0AB00DE11CFA1E11248701222728
:1017D00017FD2095322F400F511F621F731FEA56CD
:1017E000FB4E20813181420F531F611D711D77FD1A
:1017F000F1C54115510531E06307710524F04FEF44
:101800005FEF60E070E09A01232F3327269526953D
:10181000F22F76EC71BB469AE22FEE0F6E2F6670B8
:1018200060682071332722603E2F330F3072322BD5
:10183000E07C3E2B2F2F26952270206215B868B9C8
:101840003BB92EB967E861BB5695479556954795C4
:10185000342F71BB469AF42FFF0FE42FE695331F08
:101860003327331F2F2F2670322B306840715527B6
:1018700042602F2F220F2072242BF07C2F2BE2703E
:1018800015B838B92BB9EEB961BB71BB469A41E0C6
:1018900045B923E428B910EB1BB920EA2EB961BB86
:1018A00071BB469A45B9A7E4A8B9B0EFBBB952EAF3
:1018B0005EB961BB2CE2289FF001299FF00D112435
:1018C000E957FC4E808191819C01232F3327269577
:1018D0002695022F71BB469AF22FFF0FEF2FE6706D
:1018E000E0682071332722603F2F330F3072322B94
:1018F000F07C3F2B202F26952270206215B8E8B986
:101900003BB92EB961BB9695879596958795282FFB
:1019100071BB469AE82FEE0F382F3695221F2227EB
:10192000221FFE2FF6702F2B20688071992782606E
:101930009E2F990F9072982BE07C9E2B327015B8D9
:1019400028B99BB93EB961BB71BB469A45B9A8B9E4
:101950001BB95EB961BB71BB469A45B9A8B9BBB9A1
:101960005EB961BBDFBEF89480916E0082608093A7
:101970006E0060960FB6F894DEBF0FBECDBFDF914C
:10198000CF91FF91EF91BF91AF919F918F917F91F7
:101990006F915F914F913F912F911F910F91FF9008
:1019A000EF90DF90CF90BF90AF909F908F907F90FF
:1019B0006F905F904F903F902F900F900BBE0F90C5
:1019C0000FBE0F901F9018958091DF15882311F49A
:1019D0000C94ED018091DD159091DE156091A214BB
:1019E0007091A31420917E1430917F14261737072D
:1019F00008F466C56217730770F44901861A970ADE
:101A0000B4018815990508F4BC01261B370B3093E7
:101A10007F1420937E146091AE147091AF142091C6
:101A20008A1430918B142617370708F49EC5621765
:101A3000730770F45901A61AB70AB5018A159B05F8
:101A400008F4BC01261B370B30938B1420938A14A7
:101A50006091BA147091BB14209196143091971430
:101A60002617370708F474C56217730770F4D90195
:101A7000A61BB70BBD018A179B0708F4BC01261BE8
:101A8000370B30939714209396146091A41470919F
:101A9000A51420918014309181142617370708F47B
:101AA00098C56217730770F4F901E61BF70BBF01C5
:101AB0008E179F0708F4BC01261B370B3093811447
:101AC000209380146091B0147091B11420918C1403
:101AD00030918D142617370708F46EC56217730707
:101AE00070F44901861A970AB4018815990508F41B
:101AF000BC01261B370B30938D1420938C146091FE
:101B0000BC147091BD14209198143091991426172B
:101B1000370708F444C56217730770F45901A61A11
:101B2000B70AB5018A159B0508F4BC01261B370BC3
:101B300030939914209398146091A6147091A7146F
:101B400020918214309183142617370708F41AC5A0
:101B50006217730770F4D901A61BB70BBD018A1772
:101B60009B0708F4BC01261B370B3093831420938A
:101B700082146091B2147091B31420918E1430913C
:101B80008F142617370708F489C56217730770F496
:101B9000F901E61BF70BBF018E179F0708F4BC0184
:101BA000261B370B30938F1420938E146091BE1434
:101BB0007091BF1420919A1430919B142617370707
:101BC00008F460C56217730770F44901861A970A12
:101BD000B4018815990508F4BC01261B370B309316
:101BE0009B1420939A146091A8147091A9142091C9
:101BF0008414309185142617370708F437C5621707
:101C0000730770F45901A61AB70AB5018A159B0526
:101C100008F4BC01261B370B3093851420938414E1
:101C20006091B4147091B514209190143091911476
:101C30002617370708F40EC56217730770F4D90129
:101C4000A61BB70BBD018A179B0708F4BC01261B16
:101C5000370B30939114209390146091C0147091BD
:101C6000C11420919C1430919D142617370708F455
:101C7000E4C46217730770F4F901E61BF70BBF01A8
:101C80008E179F0708F4BC01261B370B30939D1459
:101C900020939C146091AA147091AB142091861427
:101CA000309187142617370708F4BAC462177307F0
:101CB00070F44901861A970AB4018815990508F449
:101CC000BC01261B370B3093871420938614609138
:101CD000B6147091B7142091921430919314261772
:101CE000370708F490C46217730770F45901A61AF5
:101CF000B70AB5018A159B0508F4BC01261B370BF2
:101D000030939314209392146091C2147091C31471
:101D100020919E1430919F142617370708F466C44B
:101D20006217730770F4D901A61BB70BBD018A17A0
:101D30009B0708F4BC01261B370B30939F1420939C
:101D40009E146091AC147091AD1420918814309160
:101D500089142617370708F0E8C3621B730B861730
:101D6000970708F4CCC4620F731F709389146093B3
:101D700088146091B8147091B91420919414309122
:101D800095142617370708F0BDC3621B730B86171F
:101D9000970708F4B2C4620F731F70939514609391
:101DA00094146091C4147091C5142091A0143091C2
:101DB000A1142617370708F090C3621B730B861710
:101DC000970708F498C4620F731F7093A11460936F
:101DD000A0140C94ED01D12C833021F0843011F04B
:101DE0000C946E028091DF15882309F4FDC11A82DC
:101DF000198218861F821E821D821C821B82A12CC2
:101E0000B12C8091000C87FF02C00C9487028BE5F7
:101E100092E10E944E2583E693E10E944E258FB603
:101E2000F89420917F12309180121701442437FCDE
:101E30004094542CB301AA27629FB12D7303C001B3
:101E4000369FB00D811D9A1F72039A0BB00D811D34
:101E50009A1F1124AA2797FDA095BA2F820D931DD2
:101E6000A41DB51D40917E1450917F14840F951FC1
:101E7000A11DB11DB7FD1CC3009771E0A707B105F7
:101E80000CF052C2AC01452F552746954695A42F1C
:101E900076EC71BB469AF42FFF0FEF2FE670E068E7
:101EA0004071552742605F2F550F5072542BF07CC4
:101EB0005F2BA695A270A06215B8E8B95BB9AEB960
:101EC00057E851BB9695879596958795482F71BB96
:101ED000469AF82FFF0FE82FE695441F4427441F2A
:101EE000AF2FA6704A2B40688071992782609F2F80
:101EF000990F9072982BF07C9F2BE27015B848B91F
:101F00009BB9EEB951BB71BB469A81E085B991E4AA
:101F100098B990ED9BB990EA9EB951BB71BB469AB6
:101F200085B987E488B980EF8BB982EA8EB951BB55
:101F300080918A1490918B14B201A101480F591F0E
:101F4000611D711DDB01CA0177FDAEC2009751E032
:101F5000A507B1050CF0F2C11C01892F99278695C0
:101F60008695E82F46EC41BB469A782F770F572F7E
:101F700056705068807199278260972F990F9072E0
:101F8000982B707C972BE695E270E06215B858B9F3
:101F90009BB9EEB997E891BB369427943694279471
:101FA000822D41BB469A722D770F522D5695881F70
:101FB0008827881FE72FE6708E2B8068F101E0717B
:101FC000FF27FE2FF260E72FEE0FE072EF2B707C01
:101FD000E72B527015B888B9EBB95EB991BB41BB1C
:101FE000469A51E055B985E488B980ED8BB982EA0B
:101FF0008EB991BB41BB469A55B947E448B940EF09
:102000004BB98EB991BB69857A851B01442437FC95
:102010004094542CAA27029FB12D1303A001309F96
:10202000B00D411D5A1F12035A0BB00D411D5A1F0E
:102030001124CA01AA2797FDA095BA2F280E391E90
:102040004A1E5B1E8091961490919714280E391E9B
:10205000411C511C57FC30C2D201C1012114310472
:1020600071E0470651040CF064C19C01232F332713
:1020700026952695E22F46EC41BB469A722F770FA4
:10208000572F56705068207133272260372F330F37
:102090003072322B707C372BE695E270E06215B817
:1020A00058B93BB9EEB957E851BB969587959695C7
:1020B0008795282F41BB469A782F770F382F369572
:1020C000221F2227221FE72FE6702E2B2068807107
:1020D00099278260972F990F9072982B707C972B7D
:1020E000327015B828B99BB93EB951BB41BB469A6D
:1020F00071E075B981E488B980EE8BB9E2EAEEB996
:1021000051BB41BB469A75B9A7E4A8B9F0EFFBB93A
:10211000EEB951BB80918713909188139C01232FB6
:10212000332726952695922E41BB469AC22ECC0C7B
:10213000BC2DB670B0682071332722603C2D330F60
:102140003072322B2C2D207C322B292D269522709B
:10215000206215B8B8B93BB92EB951BB9695879591
:1021600096958795282F41BB469AB82FBB0F382FDD
:102170003695221F2227221F66E0C62ECB222C294D
:1021800020688071992782609B2F990F9072982BFD
:10219000B07C9B2B327015B828B99BB93EB951BBA6
:1021A00041BB469A75B985E488B980EB8BB980EA62
:1021B0008EB951BB41BB469A75B9A8B9FBB9EEB906
:1021C00051BB8FBE0C948702612C712C0C9467025A
:1021D000E12CF12C0C94490210927A14109279148B
:1021E0001A8619860C94410245E050E05A834983CF
:1021F00064E070E078876F8323E030E03E832D83D6
:1022000042E050E05C834B83AA24A394B12C0C944D
:102210008102E1E080917C14E81BE0937C14E111E1
:102220007DC0C12CD12C7601C0926B14D0926C145D
:10223000E0926D14F0926E14209175143091761422
:1022400040E050E000907B1404C0220F331F441F75
:10225000551F0A94D2F7FF27E1950CF4F095DF01A2
:10226000AA0FBB1F11960E94145D60936F147093A8
:1022700070148093711490937214113009F40CC18E
:10228000133009F4EFC046015701123011F00C94DD
:102290001402FF24EB2CDA2CC92C9601D09278146E
:1022A000C09277140C941C02192DEA2DEF3F09F40B
:1022B00001C22A2D2F5F30E0220F331FF0E0EE0F16
:1022C000FF1FE050F64F0190F081E02DD901A050A2
:1022D000B64F2D913C912E1B3F0B432F5527149F3A
:1022E0009001159F300D11242E0F3F1F309378144D
:1022F000209377140C941C02812F0E94C03A812FE6
:102300000E94BE1A4091520C0C94ED01111122C092
:102310000E942A314091520C0C94ED01CC24CA94B5
:10232000DC2CEC2CF12C80CF8FEF9FEFA0E0B0E005
:10233000A9CD8FEF9FEFA0E0B0E097CE8FEF9FEF9A
:10234000A0E0B0E009CE81E00E94AB474091520C82
:102350000C94ED010E94FD2ADBCF87E393E10E94FC
:102360004E258FE394E10E944E2585E090E0F8C869
:1023700087E892E10E944E258FE893E10E944E2566
:1023800081E090E09C878B870C94900283EB92E134
:102390000E944E258BEB93E10E944E2522E030E017
:1023A0000C9494048BE093E10E944E2583E194E128
:1023B0000E944E2524E030E00C94A4088FED92E1B9
:1023C0000E944E2587EE93E10E944E2523E030E0E7
:1023D0000C94A00640E050E0BA010BCA40E050E087
:1023E000BA017AC9812C912C5401FDC8812C912C01
:1023F00054010C944F07212C312C21010C94DB0645
:10240000812C912C54010C94DF07812C912C5401C8
:102410000C94DA05812C912C54010C944805212C44
:10242000312C21010C94D104812C912C54010C9459
:10243000EA09812C912C54010C945709212C312C40
:1024400021010C94E108212C312C21010C94CD03A5
:1024500040E050E0BA010C94410340E050E0BA0182
:102460000C94CE020E94FC5C9093781480937714B5
:1024700010917D1460916F1470917014809171149B
:102480009091721480906B1490906C14A0906D14C5
:10249000B0906E140C941002F0937814E0937714BB
:1024A000460157010C94180280E090E0DC014ECD0B
:1024B00080E090E0DC01E0CC212C312C2101CCCD5E
:1024C000621B730B8617970708F413C1620F731F03
:1024D00070937F1460937E149ECA6217730710F086
:1024E0000C94ED015901A61AB70AB5018A159B058E
:1024F00008F4BC01261B370B3093A1142093A014C1
:102500000C94ED016217730708F04BCC4901861A51
:10251000970AB4018815990508F4BC01261B370BEE
:1025200030939514209394143CCC6217730708F0F1
:1025300020CCF901E61BF70BBF018E179F0708F4AB
:10254000BC01261B370B309389142093881411CCBF
:10255000621B730B8617970708F4C9C0620F731FBD
:10256000709397146093961490CA621B730B86172E
:10257000970708F4BAC0620F731F70938B146093AF
:102580008A1466CA621B730B8617970708F4ABC0E0
:10259000620F731F7093831460938214EACA621BE4
:1025A000730B8617970708F49CC0620F731F709314
:1025B000991460939814C0CA621B730B861797070F
:1025C00008F48DC0620F731F70938D1460938C1488
:1025D00096CA621B730B8617970708F47EC0620FBA
:1025E000731F70938114609380146CCA621B730B09
:1025F0008617970708F46FC0620F731F70939F14BC
:1026000060939E149ECB621B730B8617970708F48A
:1026100060C0620F731F709393146093921474CB15
:10262000621B730B8617970708F451C0620F731F64
:1026300070938714609386144ACB621B730B8617C2
:10264000970708F442C0620F731F70939D14609344
:102650009C1420CB621B730B86179707A0F1620FA7
:10266000731F7093911460939014F7CA621B730BDD
:102670008617970730F1620F731F7093851460936C
:102680008414CECA621B730B86179707C0F0620FC3
:10269000731F70939B1460939A14A5CA621B730BEB
:1026A0008617970750F0620F731F70938F14609313
:1026B0008E147CCA2EEF31E001CEBC01F4CFBC01F8
:1026C000E6CFBC01D8CFBC01CACFBC01BCCFBC0196
:1026D000ADCFBC019ECFBC018FCFBC0180CFBC0170
:1026E00071CFBC0162CFBC0153CFBC0144CFBC0150
:1026F00035CFBC01EBCEBC0166CBBC014CCBBC01E1
:1027000032CB2F923F924F925F926F927F928F9235
:102710009F92AF92BF92CF92DF92EF92FF920F9370
:102720001F93CF93DF9300D000D01F92CDB7DEB7B9
:102730009FB7F89427E63CE0F901108248E65CE098
:10274000FA011082E5E6FCE011821082EDE6FCE081
:10275000108260E071E0E3E6FCE07183608360E298
:102760007EE47093E3106093E210ECEEF0E1808180
:10277000816080831FB7F894808166EC61BB469AC4
:10278000782F770FA82FA695B72FB670B064082FB3
:10279000001F0027001FB02B082F0071872F880F04
:1027A0008072802B707C872BA270A06671E075B957
:1027B000B8B98BB9AEB987E881BB1FBFA081AD7F27
:1027C000A0831FB7F894A08161BB469AEA2EEE0C55
:1027D000BA2FB69506E0F02EFE2000E4F02A0A2F6C
:1027E000001F0027001FF02A0A2F0071AE2DAA0F2C
:1027F000A072A02B0E2D007CA02BB270B06675B914
:10280000F8B8ABB9BEB981BB1FBFA081A860A083D7
:102810001FB7F894A08161BB469AEA2EEE0CBA2F3E
:10282000B69506E0F02EFE2000E4F02A0A2F001FE5
:102830000027001FF02A0A2F0071AE2DAA0FA072E8
:10284000A02B0E2D007CA02BB270B06675B9F8B825
:10285000ABB9BEB981BB1FBFA081AF7EA0831FB73C
:10286000F894A08161BB469AEA2EEE0CBA2FB69579
:1028700006E0F02EFE2000E4F02A0A2F001F0027B9
:10288000001FF02A0A2F0071AE2DAA0FA072A02BF4
:102890000E2D007CA02BB270B06675B9F8B8ABB93C
:1028A000BEB981BB1FBFA081AF7DA0831FB7F894C5
:1028B000A08161BB469AEA2EEE0CBA2FB69506E0CF
:1028C000F02EFE2000E4F02A0A2F001F0027001F30
:1028D000F02A0A2F0071AE2DAA0FA072A02B0E2D88
:1028E000007CA02BB270B06675B9F8B8ABB9BEB9B0
:1028F00081BB1FBFA081AF7BA0831FB7F894A081CD
:1029000061BB469AEA2EEE0CBA2FB69506E0F02E81
:10291000FE2000E4F02A0A2F001F0027001FF02AE3
:102920000A2F0071AE2DAA0FA072A02B0E2D007CD5
:10293000A02BB270B06675B9F8B8ABB9BEB981BB9F
:102940001FBFA081AB7FA0831FB7F894A08161BB9C
:10295000469ABA2FBB0FEA2FE695FB2FF670F0646C
:102960006A2F661F6627661FF62BA0716B2F660FF6
:1029700060726A2BB07C6B2BE270E06675B9F8B9B7
:102980006BB9EEB981BB1FBFE8EEF0E11182108296
:102990001092E5101092E4101092EB101092EA10D1
:1029A0001092DD101092DC101092E7101092E610D9
:1029B00080E329833A834B835C839D8322D180E724
:1029C00020D182EB1ED1E8EEF0E11182108284EC7E
:1029D000682E80E1782ECC24CA94DC2CF301D182BD
:1029E000C08296EC892E90E1992EF401D182C082AA
:1029F00028ECA22E20E1B22EF501D182C082EAECB1
:102A0000F0E1D182C0823CEC432E30E1532EF20142
:102A1000D182C0824EEC242E40E1342EF101D182CD
:102A2000C0825EEDE52E50E1F52EF701D182C08225
:102A300000EE10E1F8011182108262E180E00E9454
:102A4000512463E181E00E94512464E182E00E940C
:102A5000512465E183E00E94512466E184E00E94F4
:102A6000512467E185E00E945124F7011182108210
:102A7000F801D182C08262E186E00E94512463E1C4
:102A800087E00E94512464E188E00E94512465E1BE
:102A900089E00E94512466E18AE00E94512467E1A6
:102AA0008BE00E945124F70111821082F8011182FB
:102AB0001082E8EEF0E1D182C082F301118210822F
:102AC000F40111821082F50111821082EAECF0E12A
:102AD00011821082F20111821082F10111821082A2
:102AE00062E18CE00E94512463E18DE00E94512458
:102AF00064E18EE00E94512465E18FE00E94512440
:102B000066E180E10E94512467E181E10E94512445
:102B1000E8EEF0E1118210821092D1101092D010E4
:102B20001092D3101092D2101092D5101092D4108F
:102B30001092D7101092D6101092D9101092D8106F
:102B40001092DB101092DA100E944A2829813A81F3
:102B5000F90110824B815C81FA011082E3E6FCE00E
:102B600011821082E5E6FCE011821082EDE6FCE0C5
:102B7000108231D29D819FBF0F900F900F900F90C8
:102B80000F90DF91CF911F910F91FF90EF90DF9009
:102B9000CF90BF90AF909F908F907F906F905F90FD
:102BA0004F903F902F9008958091591280618093AB
:102BB000591296EC91BB469A382F330F982F969561
:102BC000282F221F2227221F832F8670282B206464
:102BD000832F880F80728061307C832B9270906C81
:102BE00031E035B928B98BB99EB987E881BB85E05A
:102BF0008A95F1F70000809158128F5F80935812E8
:102C0000089596EC91BB469A482F440F282F26959D
:102C1000342F36703064982F991F9927991F392BBC
:102C20008071942F990F9072982B407C942B227076
:102C3000206615B838B99BB92EB987E881BB85E005
:102C40008A95F1F70000089540915912242F2260CF
:102C50002093591286EC81BB469A322F330F922F64
:102C60009695221F2227221F832F8670282B2064EF
:102C7000832F880F80724071842B307C832B92705D
:102C8000906C31E035B928B98BB99EB987E881BB22
:102C900085E08A95F1F70000809158128F5F80934C
:102CA0005812089530915912932F986090935912A9
:102CB00086EC81BB469A292F220F892F8695991F72
:102CC0009927991F422F4670942B9064207C307175
:102CD0003062232B8270806C31E035B998B92BB902
:102CE0008EB987E881BB85E08A95F1F70000809175
:102CF00058128F5F80935812089540915912242FD3
:102D000021602093591286EC81BB469A322F330FF3
:102D1000922F9695221F2227221F832F8670282B01
:102D20002064832F880F80724071842B307C832B2A
:102D30009270906C31E035B928B98BB99EB987E8AB
:102D400081BB85E08A95F1F70000809158128F5F72
:102D5000809358120895582F52955F705A3008F496
:102D600094C067E39091E3159923D9F19FB7F89444
:102D700023E02093E9002091561221117DC030916B
:102D8000E4003C5F2091E80025FD1EC09FBF9091AC
:102D9000E400391709F47BC09091E315992309F1F8
:102DA00043E00AC09FBF9091E400391709F46FC057
:102DB0009091E3159923A9F09FB7F8944093E90007
:102DC0002091E80025FFEECF560F5093F10020919F
:102DD000E80025FD65C02AE32093E8001092E21583
:102DE0009FBF8F708A3008F44EC057E39091E3156F
:102DF0009923D1F19FB7F89423E02093E900209123
:102E00005612211132C03091E4003C5F2091E8005D
:102E100025FD1DC09FBF9091E4003917E1F190910D
:102E2000E315992309F446C043E009C09FBF909180
:102E3000E400391781F19091E315992381F19FB74F
:102E4000F8944093E9002091E80025FFEFCF850F2B
:102E50008093F1008091E80085FD27C08AE380938C
:102E6000E8001092E2159FBF08952091E80025FF29
:102E7000FACF10925612C7CF2091E80025FFB0CFAD
:102E8000109256127CCF50E3B1CF60E36BCF91E04C
:102E900090935612A6CF81E080935612089508951C
:102EA00022E02093E2159FBF9CCF82E08093E21541
:102EB0009FBFDACF089553E0BDE0A2E07AE361E07E
:102EC000FC010196E491EE23A9F1EA3009F443C034
:102ED0002091E3152223A1F32FB7F8945093E90032
:102EE00030915612332331F03091E80035FF2DC078
:102EF000109256124091E4004C5F3091E80035FF8B
:102F00000DC019C02091E3152223D1F22FB7F894F8
:102F10005093E9003091E80035FD0DC02FBF20919E
:102F2000E4004213EFCF60935612FC010196E49146
:102F3000E111CBCF0895E093F1003091E80035FD29
:102F400006C07093E8001092E2152FBFB9CFA0938E
:102F5000E2152FBFB5CF2091E315222309F4B8CF96
:102F60002FB7F8945093E90030915612332331F083
:102F70003091E80035FF29C0109256124091E400CC
:102F80004C5F3091E80035FF0EC015C02091E3156D
:102F9000222309F49DCF2FB7F8945093E900309184
:102FA000E80035FD08C02FBF2091E4004213EECFAA
:102FB000609356128DCFB093F1003091E80035FD4B
:102FC00006C07093E8001092E2152FBF81CFA09346
:102FD000E2152FBF7DCFCF93DF93CFB7F89480E07A
:102FE00094E0E5EAFCE0DF019C011D9221503040B5
:102FF000E1F721E02093A71085EA90E0A6E1B1E691
:103000008093A50C9093A60CA093A70CB093A80C4A
:103010002093A90C8AEA9CE09093A6108093A510B7
:10302000AC0160E070E0D4E2D69FF001D79FF00DD4
:103030001124E15DFE4E80E090E021913191DA01B2
:10304000A80FB91F2D933C93029684329105A9F7DE
:103050006F5F7F4F4C5D5F4F6830710529F780913E
:103060005112909152129093CB0D8093CA0D809182
:103070004F12909150129093CD0D8093CC0D809172
:1030800053128093CE0D809154128093CF0D80ED1A
:103090009DE09093A6108093A51045EA5CE060E067
:1030A0007CED81E090E00E9400F845EA5DE060E0A0
:1030B0007DED81E090E00E9400F845EA5EE060E08E
:1030C0007EED81E090E00E9400F845EA5FE060E07C
:1030D0007FED81E090E00E9400F8CFBFDF91CF91BB
:1030E00008951F93CF93DF931FB7F894A0E0B0E04B
:1030F000803E9105A105B105A0F49F5FAF4FBF4F82
:10310000BA2FA92F982F8827C5EADCE0ABBFFC01B6
:10311000279129930196A11DB11D3DE0C53AD30722
:10312000A9F71092A7108091A50C9091A60CA091E0
:10313000A70CB091A80C29EA3CE03093A61020938C
:10314000A510853A9105A641B14609F05FC02091CE
:10315000A90C8AEA9CE09093A6108093A510209376
:10316000A710222309F463C02091A5103091A61066
:10317000F90181919191A191B191F093A610E09301
:10318000A5108093200C9093210CA093220CB09357
:10319000230CA4E2BCE02E5C3F4F819191918D9372
:1031A0009D93E217F307C9F7F093A610E093A510DB
:1031B000DF018D91B093A610A093A5108093160CFB
:1031C00081818093170C82818093180C8381809376
:1031D000190C848180931A0C858180931B0C868145
:1031E00080931C0C878180931D0C808580931E0C1E
:1031F00081853A96F093A610E093A51080931F0C5A
:103200001FBF81E0DF91CF911F91089588E391E086
:1032100052DE80E094E0E5EAFCE0DF019C011D92D3
:1032200021503040E1F72091A71021119DCF1FBF01
:1032300080E0DF91CF911F910895FC0126893789A5
:10324000468D578DAA27429FB12D539FC001349FB1
:10325000B00D811D9A1F529FB00D811D9A1F112420
:1032600080A391A340955095AA27429FB12D539FCB
:10327000C001349FB00D811D9A1F529FB00D811D5A
:103280009A1F112482A393A340855185628573857B
:103290004083518362837383089586EC81BB469A91
:1032A00015B896E898B993E09BB91EB897E891BB1A
:1032B000EFE9FFE03197F1F700C0000081BB469ACB
:1032C00015B823E828B923E12BB922E02EB991BB28
:1032D000FAE0FA95F1F700C081BB469A20EE27B9D3
:1032E00097E09AB92DB915B820E828B99BB91EB84E
:1032F00097E491BB92E09A95F1F700C096B199B12D
:103300009CB181BB479A87EE87B987EF8AB982EE75
:103310008DB9EAE0EA95F1F700C0089586EC81BB2B
:10332000469A15B880E488B91BB88EB987E881BB86
:1033300085E08A95F1F7000008952F923F924F9211
:103340005F926F927F928F929F92AF92BF92CF9235
:10335000DF92EF92FF920F931F93CF93DF9300D0F2
:10336000CDB7DEB73FB6F894982F92959F7020E2C4
:1033700030E002C0359527959A95E2F7982F9F7017
:10338000922B26EC21BB469A492F440F292F2695D4
:10339000392F331F3327331F542F5670352B30648A
:1033A000592F5071942F990F9072952B407C942B2C
:1033B0002270206441E045B938B99BB92EB997E82D
:1033C00091BB25E02A95F1F70000682E712CF301DE
:1033D000E85FFE4FE081F0E080E190E08E1B9F0B04
:1033E0006FEF7FEF082E02C0769567950A94E2F79B
:1033F00002C0660F771F8A95E2F77A83698340E0FF
:1034000050E020E030E88FEF9FEF17E867E0962E5E
:10341000AA24A39470E4B72EA0E2CA2EB7E4DB2E50
:1034200007EEE02E67EFF62E72EE572E0AC0820FDF
:10343000931F369527954F5F5F4FE417F5070CF400
:103440006FC0BC01672F772766956695462EA6EC60
:10345000A1BB469AB62FBB0FAB2FA670A0686071B8
:10346000772762607B2F770F7072762B6B2F607CD3
:10347000762B642D66956270606215B8A8B97BB929
:103480006EB911BBBC017695679576956795B6ECDC
:10349000B1BB469A062F000FA62FA695B62FBB1FCD
:1034A000BB27BB1F0F2EF6E02F2EF02D2022B229B6
:1034B000B068607177276260702F770F7072762B1B
:1034C000602F607C762BA27015B8B8B97BB9AEB905
:1034D00011BB00C000C066EC61BB469A70EE77B9C4
:1034E0009AB87DB9A5B8B8B81BB8CEB8D1BAA2E021
:1034F000AA95F1F700C066B169B17CB1B6ECB1BB79
:10350000479AE7B8FAB85DB865FD91CF821B930B77
:10351000369527954F5F5F4FE417F5070CF091CF75
:1035200026EC21BB469A21E025B927E428B920EFF3
:103530002BB922E42EB927E821BBF301EE0FFF1FC0
:10354000E151FF4E29813A81822393239183808325
:103550003FBE0F900F90DF91CF911F910F91FF9081
:10356000EF90DF90CF90BF90AF909F908F907F9023
:103570006F905F904F903F902F900895CF93882346
:1035800039F18091690C8F5F8093690C853148F027
:1035900081E090916A0C9111CDC080936A0C1092D9
:1035A000690CC0916D0CC11179C05091670C90915C
:1035B000680CE0916E0CE13009F4D3C008F4AFC0A0
:1035C000E23009F4C4C020E0F0E0ED59F34F248765
:1035D000AFB7F89456EC51BB469A41E045B980E448
:1035E00088B91BB880E28EB937E831BB00C000C093
:1035F00080E190E000906E0C02C0880F991F0A9441
:10360000E2F7282F51BB469A782F770F682F6695DF
:10361000221F2227221F972F9670292B206480714A
:10362000972F990F9072982B707C972B627045B9E9
:1036300028B99BB96EB931BB00C000C0E0916E0CD7
:10364000F0E0ED59F34F848551BB469A582F550F42
:10365000982F9695252F26702064682F661F662761
:10366000661F262B682F6071852F880F8072862B2E
:10367000507C852B9270906245B928B98BB99EB960
:1036800031BBAFBF80916E0C90E0019663E070E0BB
:103690000E94B75880936E0CCF91089540916B0CA7
:1036A0004F5F40936B0CE2E7FCE001900020E9F7EC
:1036B000E357FC4020916C0C332727FD3095C9015E
:1036C00001966E2F772767FD70950E94B758F90114
:1036D000ED59F34F278530E02038310588F15FEF51
:1036E000E82FFF27E7FDF095ED59F34F278530E0F0
:1036F0002038310550F5F901E85DFE4F90814D30DD
:1037000008F457CF80936C0C10926B0C811151CF41
:103710001C160CF04ECFC150C0936D0C4ACF2091B7
:10372000630C80916A0C882309F44ECF8091650C5C
:1037300028274ACF80E080936A0C1092690C31CF21
:10374000F901E85DFE4F5081CBCF9FEFD8CF292FF5
:103750002F778091630C9091640C90FF35CF206897
:1037600033CF252F2F778091630C9091640C91FFBC
:103770002BCF206829CF1F93CF93DF9380915412D2
:1037800087FD0CC06F7070E0992787FD90956817D2
:10379000790721F0DF91CF911F91089550E04C50AF
:1037A000510957FD54C12091150C222309F413C16E
:1037B00080910C0C481709F465C290910D0C4917C3
:1037C00009F463C230910E0C431709F461C25091A1
:1037D0000F0C451709F442C16091100C461709F40B
:1037E0005CC27091110C471709F45AC2E091120C97
:1037F0004E1709F45AC2F091130C4F1709F458C22E
:10380000A22FA350243009F4CAC1213009F485C184
:10381000223009F4C4C1233009F47FC18F3F09F479
:103820001BC1B1E0C1E09F3F09F412C2DB2FDC23D2
:1038300009F0982F1B2F1F5F21E02B272C232D2B06
:1038400009F4FCC1212F892FB1E03F3F09F4FEC1EB
:10385000C1E0211101C0C0E0CB2309F0382F922F25
:103860009F5FD1E02111D0E0BD23BC2B09F4E4C15E
:10387000292FB1E05F3F09F4E7C1C1E0211101C088
:10388000C0E0CB2309F0532F922F9F5FD1E021118D
:10389000D0E0BD23BC2B11F4922F532F81E06F3F5A
:1038A00009F4D0C121E0911101C020E0282309F0E2
:1038B000652F392F3F5FB1E09111B0E08B23822B50
:1038C00009F4B8C1932F81E07F3F09F4B9C121E029
:1038D000911101C020E0282309F0762F592F5F5F56
:1038E00031E0911130E08323822B09F4A1C1952F9F
:1038F00081E0EF3F09F4AEC121E0911101C020E069
:10390000282309F0E72FC92FCF5F31E0911130E074
:103910008323822B09F48AC19C2F81E0FF3F09F4A5
:103920009BC121E0911101C020E0282309F0FE2F66
:10393000C92FCF5F31E0911130E08323822B09F44E
:10394000C92F882309F486C0C1114F2FA23008F473
:10395000D7C086E0E0E0FCE0DF011D928A95E9F740
:103960004093060C4093070C4093080C4093090CBD
:1039700040930A0C40930B0CDFEF4F3F09F40ACF42
:103980000E942C338091150C882309F44AC180E0F1
:1039900090E021E0C11101C020E03CE2389FF0013D
:1039A000399FF00D1124E55AFD4E37A1231719F068
:1039B00020A731E031A73CE2389FF001399FF00D9C
:1039C0001124ED59FC4E87A1281709F4E3CE20A756
:1039D00081E081A7DFCE8091000C87FD05C080913A
:1039E000060C481709F452C08091010C87FD05C0F0
:1039F0008091070C481709F477C08091020C87FD6D
:103A000005C08091080C481709F471C08091030C1F
:103A100087FD05C08091090C481709F46BC080919F
:103A2000040C87FD05C080910A0C481709F465C095
:103A30008091050C87FD05C080910B0C481709F497
:103A40003AC18BE491E0DF91CF911F9134CA40E0FD
:103A500050E0A9CEFE2F78CFB0E0E4CE83E090E036
:103A6000FC01E050F44F3FEF348780910C0C9091B3
:103A70000D0C30910E0C50910F0C6091100C709148
:103A8000110CE091120CF091130CBACEC0E0D0E012
:103A9000FE01E050F44F81E0808346830E942C3386
:103AA0008091150C882311F0C0E0D0E08CE28C9F4F
:103AB000F0018D9FF00D1124E55AFD4E87A188235A
:103AC00019F010A681E081A78CE28C9FF0018D9FF8
:103AD000F00D1124ED59FC4E87A1882309F45ACE2C
:103AE00010A681E081A756CEC1E0D0E0D1CFC2E0E0
:103AF000D0E0CECFC3E0D0E0CBCFC4E0D0E0C8CFA1
:103B0000D091140CD7FDE0C0ED2FFF27E7FDF09515
:103B1000E050F44F1082468330CF8F3F09F4D8C075
:103B20009F3F09F4B8C0891708F0892FC1E0CF5F23
:103B30003F3F09F49BC0CC2319F0831708F4382FBA
:103B4000CF5F5F3F09F490C0CC2319F0351708F41C
:103B5000532FCF5F6F3F09F485C0CC2319F0561760
:103B600008F4652FCF5F7F3F09F47AC0CC2319F0AA
:103B7000671708F4762FCF5FEF3F09F46FC0CC23AF
:103B800019F07E1708F4E72FCF5FFF3F09F462CFEB
:103B9000CC2319F0EF1708F441C0CF5FD5CE8F3F8B
:103BA00009F48CC09F3F09F47EC0981708F0892F54
:103BB000C1E0CF5F3F3F09F463C0CC2319F0381751
:103BC00008F4382FCF5F5F3F09F458C0CC2319F0B9
:103BD000531708F4532FCF5F6F3F09F44DC0CC2328
:103BE00019F0651708F4652FCF5F7F3F09F442C0D5
:103BF000CC2319F0761708F4762FCF5FEF3FC1F191
:103C0000CC2319F0E71708F4E72FCF5FFF3F09F443
:103C100021CFCC2311F2FE1708F0BFCFFE2FCF5FCC
:103C200093CE8D2F992787FD9095B3CEE72F75CE34
:103C3000762F5ECE652F47CE382F1BCE2B2F04CE8E
:103C400080E045CE80E02ECEB0E017CEB0E000CED2
:103C5000C0E0ECCD80E050CE80E063CEE72F95CF82
:103C6000762F8ACF652F7FCF532F74CF382F69CF10
:103C7000E72FCCCF762FC2CF652FB7CF532FACCF46
:103C8000382FA1CF80E090E0EBCE81E090E0E8CE4D
:103C900082E090E0E5CEC1E04BCF84E090E0E0CE62
:103CA00085E090E0DDCEC1E085CF86E090E0D8CE23
:103CB00087E090E0D5CEC5E0D0E0EACE892FC0E025
:103CC0009F3F09F076CF76CFDF3F09F056CE41CE49
:103CD000892FC0E09F3F09F02ACF2ACF0F931F936F
:103CE000CF93DF93182F8091150C81119CC0809188
:103CF000000C662309F4BBC19091060C191709F456
:103D000079C387FD77C388300CF08BC19091010C8B
:103D10002091070C121709F470C397FD6EC3981712
:103D20000CF084C1C1E06091020C8091080C18175E
:103D300009F466C367FD64C369170CF088C1C2E06B
:103D40004091030C8091090C181709F45CC347FDDE
:103D50005AC346170CF0C7C1C3E05091040C8091C0
:103D60000A0C181709F452C357FD50C354170CF02E
:103D7000CAC1C4E08091050C90910B0C191709F48D
:103D800048C387FD46C385170CF418C2992787FDE1
:103D90009095252F332727FD30952A5F3F4F281711
:103DA00039070CF40BC2DD27C7FDD0952091140C08
:103DB000822F992787FD9095019666E070E00E941A
:103DC000B7588093140CFE01E050F44F80831683A3
:103DD0001F3F21F10E942C338091150C882311F094
:103DE000C0E0D0E08CE28C9FF0018D9FF00D11249B
:103DF000E55AFD4E87A1813019F081E080A781A7A7
:103E00008CE28C9FF0018D9FF00D1124ED59FC4E3A
:103E100087A1813019F081E080A781A7DF91CF9140
:103E20001F910F91089590910C0C662309F4D1C055
:103E30009F3F09F4F4C220910D0C2F3F09F4F5C205
:103E400030910E0C3F3F09F4F6C240910F0C4F3FEA
:103E500009F4F4C25091100C5F3F09F45AC27091FA
:103E6000110C7F3F09F4F0C2E091120CEF3F09F40E
:103E7000F1C2F091130CFF3F09F4F2C2A82FA35036
:103E8000843009F4F6C1813009F4ACC1823009F400
:103E9000F0C1833009F4A6C19F3F09F465C2B1E0C7
:103EA000C1E02F3F09F45EC2DB2FDC2309F0292F8C
:103EB0000B2F0F5F81E08B278C238D2B09F41FC202
:103EC000802F922FB1E03F3F09F44AC2C1E0811137
:103ED00001C0C0E0CB2309F0392F282F2F5FD1E09C
:103EE0008111D0E0BD23BC2B09F40DC2822FB1E0BB
:103EF0004F3F09F433C2C1E0811101C0C0E0CB23C0
:103F000009F0432F982F9F5FD1E08111D0E0BD23AE
:103F1000BC2B09F4F6C1892F91E05F3F09F41CC264
:103F200021E0811101C020E0292309F0542F382F0E
:103F30003F5FB1E08111B0E09B23922B09F4E7C110
:103F4000832F91E07F3F09F405C221E0811101C078
:103F500020E0292309F0752F482F4F5F31E08111B0
:103F600030E09323922B09F4D0C1842F91E0EF3FEE
:103F700009F4EEC121E0811101C020E0292309F0FC
:103F8000E72F482F4F5F31E0811130E09323922BD0
:103F900009F4B3C1842F91E0FF3F09F4D7C121E0B8
:103FA000811101C020E0292309F0FE2F482F4F5F27
:103FB00031E0811130E09323922B09F0842F992373
:103FC00009F4B1C08111B3C0A23008F49CC2C0E0B2
:103FD000B3C0911709F420C220910D0C211709F4E8
:103FE00021C230910E0C311709F422C240910F0CFE
:103FF000411709F426C25091100C511709F49FC1C2
:104000007091110C711709F422C2E091120CE117A2
:1040100009F423C2F091130CF11330CFE7E0F0E084
:1040200090C18F300CF072CE88E070CE492F5527AA
:1040300047FD5095282F332727FD30952A5F3F4FA6
:10404000241735070CF46ECE982FC0E06CCE462FA7
:10405000552747FD5095292F332727FD30952A5F97
:104060003F4F241735070CF46ACE692F69CE87FDC0
:1040700005C08091060C181709F4F5C18091010C58
:1040800087FD05C08091070C181709F423C28091A1
:10409000020C87FD05C08091080C181709F417C29F
:1040A0008091030C87FD05C08091090C181709F455
:1040B0000BC28091040C87FD05C080910A0C181773
:1040C00009F40BC28091050C87FD05C080910B0C93
:1040D000181709F405C28BE491E0DF91CF911F918D
:1040E0000F910C945B17842F992787FD9095262FAD
:1040F000332727FD30952A5F3F4F281739070CF4E7
:104100002BCE462F2ACE852F992787FD9095242FD9
:10411000332727FD30952A5F3F4F281739070CF4C6
:1041200028CE542F27CEFE2F882309F44DCFA2305E
:1041300008F446C01F2FC1E086E0E0E0FCE0DF01AC
:104140001D928A95E9F71093060C1093070C1093B3
:10415000080C1093090C10930A0C10930B0CDFEF52
:104160001F3F09F45BCE0E942C338091150C8823ED
:1041700009F47AC080E090E02CE2289FF001299FAA
:10418000F00D1124E55AFD4E27A1C21719F0C0A762
:1041900021E021A72CE2289FF001299FF00D112496
:1041A000ED59FC4E87A1C81709F438CEC0A781E0AD
:1041B00081A7DF91CF911F910F910895C5E0F3CDB5
:1041C000813009F4D3C0D091140C1F2FC1E0D7FD6A
:1041D0008AC1ED2FFF27E7FDF095E050F44F1082E4
:1041E0001683BECF9F3F09F482C12F3F09F4FEC062
:1041F000921708F0922F81E08F5F3F3F09F4E2C0F1
:10420000882319F0931708F4392F8F5F4F3F09F473
:10421000E1C0882319F0341708F4432F8F5F5F3F04
:1042200009F4D6C0882319F0451708F4542F8F5F7E
:104230007F3F09F4CBC0882319F0571708F4752F76
:104240008F5FEF3F09F4C0C0882319F07E1708F490
:10425000E72F8F5FFF3F09F466CF882319F0EF1730
:1042600008F448C08F5FAECE8D2F992787FD9095BB
:1042700083CF9F3F09F441C12F3F09F4B9C02917EB
:1042800008F0922F81E08F5F3F3F09F4A5C088239B
:1042900019F0391708F4392F8F5F4F3F09F4A4C084
:1042A000882319F0431708F4432F8F5F5F3F09F409
:1042B00099C0882319F0541708F4542F8F5F7F3F5B
:1042C00009F48EC0882319F0751708F4752F8F5FD5
:1042D000EF3F09F483C0882319F0E71708F4E72FAC
:1042E0008F5FFF3F09F41FCF882309F4BBCFFE1770
:1042F00008F0B8CFFE2F8F5F65CEE72F4CCE8B2F07
:10430000E1CD432F09CE392FF2CD752F2FCE542F6B
:1043100018CEE4E0F0E0E050F44F148790910C0CDC
:1043200020910D0C30910E0C40910F0C5091100CFF
:104330007091110CE091120CF091130C9FCDE4E000
:10434000F0E0E050F44F9FEF9487E8CF90E027CE65
:1043500090E010CE90E0F9CD90E0E2CDB0E0CBCD92
:10436000B0E0B4CDC0E0A0CDB0E09ACD662309F4B2
:104370002ACF8091140C9FEF9093000C9093060C21
:104380009093010C9093070C9093020C9093080C5F
:104390009093030C9093090C9093040C90930A0C47
:1043A0009093050C90930B0C992787FD909501969F
:1043B00066E070E00E94B758D82F8093140C1F2F2E
:1043C000C1E005CF392F22CFE72F44CF752F39CF4A
:1043D000542F2ECF432F23CF392F5FCFE72F81CFFD
:1043E000752F76CF542F6BCF432F60CF81E005CF51
:1043F00081E04ACFC0E0D0E0D9CCC1E0D0E0D6CC5B
:10440000C2E0D0E0D3CCC3E0D0E0D0CCC4E0D0E078
:10441000CDCCC5E0D0E0CACCE0E0F0E092CFE0E067
:10442000F0E079CFE1E0F0E08CCFE1E0F0E073CFB5
:10443000E2E0F0E086CFE2E0F0E06DCFE3E0F0E034
:104440006ACFE3E0F0E07DCFE5E0F0E064CFE5E0C7
:10445000F0E077CFE6E0F0E05ECFE6E0F0E071CFAD
:10446000E7E0F0E058CFC0E0D0E0FE01E050F44FCC
:1044700081E0808316831F3F09F4D0CC0E942C3347
:104480008091150C882311F0C0E0D0E08CE28C9F65
:10449000F0018D9FF00D1124E55AFD4E87A1882370
:1044A00019F010A681E081A78CE28C9FF0018D9F0E
:1044B000F00D1124ED59FC4E87A1882309F4AECCF0
:1044C00010A681E081A7AACCC3E0D0E0CECFC2E0A5
:1044D000D0E0CBCFC1E0D0E0C8CFC4E0D0E0C5CFC2
:1044E000C5E0D0E0C2CFDF3F09F03ACE25CE922F13
:1044F00080E02F3F09F080CE80CE922F80E02F3FCA
:1045000009F0C1CEC1CED091140CC0E060CEE091D4
:104510005412E7FD09C06F7070E0FF27E7FDF095CA
:104520006E177F0709F00895842F90E00C9761E0E3
:10453000211101C060E097FFD1CB80E090E0FCCF7B
:10454000CF938091200C9091210CA091220CB091DE
:10455000230C92FD2EC08091150C882309F459C0BC
:1045600086E1E0E0FCE0DF011D928A95E9F78FEF3C
:104570008093000C8093060C8093010C8093070CB1
:104580008093020C8093080C8093030C8093090C99
:104590008093040C80930A0C8093050C80930B0C81
:1045A00048E050E06FEF70E08CE09CE0CF910C941D
:1045B000A25CC091190C8091150CC81751F186E1CD
:1045C000E0E0FCE0DF011D928A95E9F78FEF809330
:1045D000000C8093060C8093010C8093070C809351
:1045E000020C8093080C8093030C8093090C809339
:1045F000040C80930A0C8093050C80930B0C48E00C
:1046000050E06FEF70E08CE09CE00E94A25CC093F1
:10461000150CCF9108958091E01587FD54C0882333
:10462000E9F08091E11587FD14C0805D90E080384D
:10463000910530F08FEF8093670C1092680C08950D
:10464000FC01E85DFE4F80818093670C1092680C3E
:1046500008951092670C1092680C089560915112A1
:104660007091521280E090E024E630E040E050E0AB
:104670000E941A5D2AE030E040E050E00E941A5D9E
:10468000205DA22FB0E0A85DBE4F8C918093670C97
:10469000605DE62FF0E0E85DFE4F80818093680C5E
:1046A0008091630C9091640C9D7F9093640C809337
:1046B000630C8091650C9091660C9D7F9093660CC5
:1046C0008093650C08951092670C1092680C80918D
:1046D000630C9091640C2091650C3091660C3D7FC9
:1046E0003093660C2093650C92609093640C8093D9
:1046F000630C0895982F96959695969528E030E04E
:1047000001C0220F9A95EAF72095287F8770282B01
:10471000CB01892F992786958695E82F56EC51BBBA
:10472000469A482F440F342F36703068807199278D
:104730008260942F990F9072982B407C942B8E2F2F
:1047400086958270806215B838B99BB98EB947E8F2
:1047500041BB7695679576956795962F51BB469A9E
:10476000E62FEE0F362F3695991F9927991F8E2F1A
:104770008670982B90686071772762608E2F880F03
:104780008072862BE07C8E2B327015B898B98BB96D
:104790003EB941BB51BB469A622F660F922F969548
:1047A000322F331F3327331F862F8670382B306408
:1047B0002071862F880F8072822B607C862B9270EE
:1047C000906A21E025B938B98BB99EB941BB51BB7C
:1047D000469A25B987E488B980EF8BB982EA8EB909
:1047E00041BB08956095E9E5F2E19081982B69233A
:1047F000608386EC81BB469A362F330F962F9695B1
:10480000262F221F2227221F832F8670282B206409
:104810006071832F880F8072862B307C832B92707F
:10482000906C31E035B928B98BB99EB987E881BB66
:1048300085E08A95F1F70000E8E5F2E180818F5F7D
:1048400080830895809590915912892380935912FD
:1048500096EC91BB469A482F440F282F2695382F67
:10486000331F3327331F942F9670392B3064807198
:10487000942F990F9072982B407C942B2270206C6F
:1048800081E085B938B99BB92EB987E881BB85E04D
:104890008A95F1F70000809158128F5F809358122B
:1048A00008950F931F93CF93DF93082F8093A40C49
:1048B000C62FD0E02296FE01EE0FFF1FE855FF4EF7
:1048C00020E030E83183208319E1E4D31150E9F787
:1048D0000C3008F47CC044E264E0802F0E94F74171
:1048E000811105C044E265E0802F0E94F741802FCE
:1048F00090E08C01000F111F01541E4ED8012D9124
:104900003C91A901440F551FFC01EE0FFF1FED5113
:10491000FE4E60817181461B570BBC01660F771FED
:1049200065567E4EDB014D935C93440F551F421B31
:10493000530B9C01220F331F29583E4ED9014D9332
:104940005C93440F551FDB016D917C91461B570B07
:10495000BC01660F771F6D5A7E4EDB014D935C9351
:10496000440F551FBC01660F771F615D7E4ED90154
:104970002D913C91421B530BDB014D935C932081A5
:104980003181220F331FD8014D915C91241B350BCF
:10499000DC01AA0FBB1FA95FBD4E2D933C93220FD4
:1049A000331FDC01AA0FBB1FA55DBD4E8081918125
:1049B000281B390B2D933C93CC0FDD1FC855DF4EC0
:1049C00019821882DF91CF911F910F9163C34CE040
:1049D00063E0802F0E94F741811113C04CE064E036
:1049E000802F0E94F74181110CC04CE065E0802FC0
:1049F0000E94F741811105C04CE066E0802F0E94C3
:104A0000F741802F90E0FC01EE0FFF1FE556FE4EB0
:104A1000608171819B01220F331FFC01EE0FFF1F8C
:104A2000E154FE4E40815181241B350BFC01EE0FF9
:104A3000FF1FE958FE4E31832083A901440F551F03
:104A4000461B570BFC01EE0FFF1FED5AFE4E518324
:104A50004083440F551FFC01EE0FFF1FE15DFE4E2A
:104A6000421B530B51834083FC01EE0FFF1FE55D9A
:104A7000FD4EDC01AA0FBB1FA95FBD4E2D913C91DD
:104A8000220F331FDC01AA0FBB1FAD51BE4E8D910B
:104A90009C91281B390B318320838ECF8F929F925C
:104AA000AF92BF92EF92FF920F931F93CF93DF933A
:104AB000EC0189A5811110C0EBA5E11144C01DA234
:104AC0001CA2DF91CF911F910F91FF90EF90BF90AB
:104AD000AF909F908F9008951C821D821E821F822E
:104AE0000E891F896CA17DA1CB01A0E0B0E07727E2
:104AF0006627980140E050E00E94415DB9013F8F78
:104B00002E8F28A5211175C084E08BA719A218A2A9
:104B1000AA27609FB12D719FC001169FB00D811D06
:104B20009A1F709FB00D811D9A1F11248AA39BA309
:104B300088899989AA89BB8988839983AA83BB8339
:104B4000E4E02FA319A64C815D816E817F81872FC0
:104B50009927AA27BB27892B8A2B8B2B09F02FC0DB
:104B600088809980AA80BB80E23009F475C008F083
:104B70006EC0E13009F47FC080E090E0EAA0FBA0C5
:104B80008C019701AA27029FB12D139FF001309F3E
:104B9000B00DE11DFA1F129FB00DE11DFA1F112487
:104BA00088A199A1E80FF91FFDA3ECA3480D591D99
:104BB0006A1D7B1D4C835D836E837F8382CF1C8245
:104BC0001D821E821F82188219821A821B82EF5F49
:104BD000EBA7E33009F457C0E53009F447C0E230F1
:104BE00009F458C0812C912C540140E050E0BA01E6
:104BF000BBCF81E08BA7AA27609FB12D719FC00119
:104C0000169FB00D811D9A1F709FB00D811D9A1FB8
:104C1000112488A399A360957095AA27609FB12D50
:104C2000719FC001169FB00D811D9A1F709FB00D1E
:104C3000811D9A1F11248AA39BA388859985AA8523
:104C4000BB8588839983AA83BB83E1E07ACFE33075
:104C500079F0E43009F090CF8EA181114CC0BB27D0
:104C6000A72F962F852F8095909588CF1BA627CFAD
:104C70008C899D8983CF8EA1811160C0BB27A72F0E
:104C8000962F852F7BCF19A218A28E899F899BA36F
:104C90008AA317CF2E893F893DA32CA34C895D8918
:104CA000AA27429FB12D539FC001349FB00D811D93
:104CB0009A1F529FB00D811D9A1F112488A399A39A
:104CC00040955095AA27429FB12D539FC001349F14
:104CD000B00D811D9A1F529FB00D811D9A1F112486
:104CE0008AA39BA38C859D85AE85BF858883998388
:104CF000AA83BB83E6CEF52EE62F6F3F09F440C0B2
:104D0000862F8F5F90E0880F991FF0E0EE0FFF1F56
:104D1000E855FC4F0190F081E02DDC01A855BC4F17
:104D20008D919C918E1B9F0BA92FBB27FA9EC001D2
:104D3000FB9E900D11248E0F9F1F95CFF52EE62F11
:104D40006F3F09F1862F8F5F90E0880F991FF0E089
:104D5000EE0FFF1FE855FE4F0190F081E02DDC01C2
:104D6000A855BE4F8D919C918E1B9F0BA92FBB27E1
:104D7000FA9EC001FB9E900D11248E0F9F1FFECE48
:104D80008EEF91E0C2CF8EEF91E0E1CFCF92DF9234
:104D9000EF92FF92CF93DF930E94AE40C090200C21
:104DA000D090210CE090220CF090230CD2FCE3C0B8
:104DB0008091150C882341F186E1E0E0FCE0DF0101
:104DC0001D928A95E9F78FEF8093000C8093060C73
:104DD0008093010C8093070C8093020C8093080C45
:104DE0008093030C8093090C8093040C80930A0C2D
:104DF0008093050C80930B0C48E050E06FEF70E05F
:104E00008CE09CE00E94A25CD1FEAAC092E080915E
:104E10001A0C880F890F80937D1480911C0C880FC9
:104E200080937B14A0917C1420917514309176149A
:104E300040E050E004C0220F331F441F551F8A95E5
:104E4000D2F7BB27A1950CF4B095AA0FBB1F119602
:104E50000E94145D60936F147093701480937114AA
:104E6000909372148091160CD82FD17081FF7CC062
:104E7000C3E0D0938913C0938D1383E693E14AD6A0
:104E8000D093B513C093B9138FE893E143D6D09371
:104E9000E113C093E5138BEB93E13CD6D0930D1453
:104EA000C093111487EE93E135D6D0933914C09393
:104EB0003D1483E194E12ED6D0936514C093691418
:104EC0008FE394E127D68091170CD82FD17081FF02
:104ED00049C0C3E0D0938112C09385128BE592E163
:104EE00019D6D093AD12C093B11287E892E112D6D1
:104EF000D093D912C093DD1283EB92E10BD6D093FD
:104F00000513C09309138FED92E104D6D0933113AA
:104F1000C09335138BE093E1FDD5D0935D13C0931F
:104F2000611387E393E1F6D58091E01587FD9BC07F
:104F3000882309F45DC08091E11587FD4EC0805D36
:104F400090E08038910590F08FEF8093670C10927D
:104F5000680CDF91CF91FF90EF90DF90CF90089594
:104F600091E055CFC1E0B6CFC1E083CFFC01E85D51
:104F7000FE4F8081EACFC091190C8091150CC817A3
:104F800009F442CF86E1E0E0FCE0DF011D928A9562
:104F9000E9F78FEF8093000C8093060C8093010C4F
:104FA0008093070C8093020C8093080C8093030C71
:104FB0008093090C8093040C80930A0C8093050C59
:104FC00080930B0C48E050E06FEF70E08CE09CE0C9
:104FD0000E94A25CC093150C17CF1092670C109220
:104FE000680CDF91CF91FF90EF90DF90CF90089504
:104FF000609151127091521280E090E024E630E00E
:1050000040E050E00E941A5D2AE030E040E050E0CD
:105010000E941A5D205DA22FB0E0A85DBE4F8C916A
:105020008093670C605DE62FF0E0E85DFE4F8081C5
:105030008093680C8091630C9091640C9D7F909399
:10504000640C8093630C8091650C9091660C9D7F3D
:105050009093660C8093650CDF91CF91FF90EF9059
:10506000DF90CF9008951092670C1092680C809199
:10507000630C9091640C2091650C3091660C3D7F1F
:105080003093660C2093650C92609093640C80932F
:10509000630C5FCFBF92CF92DF92EF92FF920F939C
:1050A0001F93CF93DF93ECEAF0E170E048E050E02B
:1050B000B6ECA7E8C1E007E480EFB82E92EAE92E4B
:1050C00081919191272F2695269526956A0102C0F8
:1050D000CC0CDD1C2A95E2F76C2D6095687F272F9C
:1050E0002770622BFFB6F8949C01232F3327269557
:1050F0002695C22EB1BB469A122F110FD12FD67012
:10510000D068207133272260312F330F3072322B59
:10511000212F207C322B2C2D26952270206215B851
:10512000D8B93BB92EB9A1BB969587959695879529
:10513000282FB1BB469AD82FDD0F382F3695221F66
:105140002227221F16E0D12EDD222D292068807112
:10515000992782609D2F990F9072982B8D2F807CBC
:10516000982B327015B828B99BB93EB9A1BBB1BB19
:10517000469A262F220F962F9695362F331F3327C8
:10518000331F822F8670382B30646071822F880F16
:105190008072862B207C822B9270906AC5B938B9B8
:1051A0008BB99EB9A1BB8DE08A95F1F70000B1BB28
:1051B000469AC5B908B9BBB8EEB8A1BB8DE08A95CF
:1051C000F1F70000FFBE7F5F703209F079CF4FB773
:1051D000F8948091EC1096EC91BB469A382F330FDF
:1051E000982F9695232F26702064582F551F5527EA
:1051F000551F252B582F5071832F880F8072852BB8
:10520000307C832B9270906631E035B928B98BB928
:105210009EB987E881BB4FBFDF91CF911F910F915E
:10522000FF90EF90DF90CF90BF900895809157123C
:105230008F77B1F4E091A40CE63008F4B3C0EC3001
:1052400008F0A0C08CE78093670CE55DF0E0E85DB6
:10525000FE4F80818093680C81E00E94BE1A1ADFA5
:105260004091A40CE42FF0E0EE0FFF1FE455FF4E39
:1052700020813181542F56955695569588E090E0BF
:1052800001C0880F5A95EAF78095887F4770842B74
:10529000AFB7F894A901452F552746954695F42FA9
:1052A00066EC61BB469AE42FEE0F7E2F7670706835
:1052B0004071552742609E2F990F9072942BE07C8D
:1052C0009E2B4F2F46954270406215B878B99BB916
:1052D0004EB957E851BB3695279536952795422FFD
:1052E00061BB469AE22FEE0F722F7695441F44273A
:1052F000441F9E2F9670492B4068207133272260EF
:105300009E2F990F9072922BE07C9E2B727015B895
:1053100048B99BB97EB951BB61BB469A482F440F2F
:10532000282F2695382F331F3327331F942F96703D
:10533000392B30648071942F990F9072982B407C98
:10534000942B2270206A81E085B938B99BB92EB9B7
:1053500051BB9DE09A95F1F7000061BB469A85B973
:1053600087E488B980EF8BB982EA8EB951BB8DE0B2
:105370008A95F1F70000AFBF809157128F5F80933D
:1053800057120895EB5D81E78093670C8E2F90E0B4
:105390008038910560F4FC01E85DFE4F80818093C8
:1053A000680C5ACF87E78093670CEF5C4FCF8FEF85
:1053B000F6CF7F928F929F92AF92BF92CF92DF9261
:1053C000EF92FF920F931F93CF93DF93C0E3D5E744
:1053D000F6EC7F2EA0EE8A2EB7E09B2EAA24A39493
:1053E00010E4B12E00E2C02E87E4D82E97EEE92E0D
:1053F00027EFF22E02EE03C0209709F443C016DF18
:1054000071BA469A87B89AB88DB8A5B8B8B81BB81B
:10541000CEB8D1BA82E08A95F1F700C046B189B121
:105420002CB171BA479A142F1695137090E8499FC2
:10543000A0011124142B982F9071192B982F969559
:1054400096959870192B86958076182B30E0220F50
:10545000331F24703327122BE7B8FAB80DB9219700
:1054600011FFCACFCD2B71F0DF91CF911F910F911A
:10547000FF90EF90DF90CF90BF90AF909F908F9074
:105480007F90089580915A128F5F80935A128FE710
:1054900091E00E945B17809158120E94AB16812FF9
:1054A0000E94AB1687E991E00E945B1780915A1227
:1054B0000E94AB1689EA91E0DF91CF911F910F9185
:1054C000FF90EF90DF90CF90BF90AF909F908F9024
:1054D0007F900C945B177F928F929F92AF92BF92B6
:1054E000CF92DF92EF92FF920F931F93CF93DF93B0
:1054F000C0E3D5E756EC752E60EE862E77E0972E4A
:10550000AA24A394E0E4BE2EF0E2CF2EA7E4DA2E84
:10551000B7EEEB2E17EFF12E02EE03C0209709F441
:1055200043C084DE71BA469A87B89AB88DB8A5B8D8
:10553000B8B81BB8CEB8D1BA82E08A95F1F700C0EE
:1055400046B189B12CB171BA479A142F16951370D0
:1055500090E8499FA0011124142B982F9071192BCA
:10556000982F969596959870192B86958076182B7E
:1055700030E0220F331F24703327122BE7B8FAB81C
:105580000DB9219711FDCACFCD2B71F0DF91CF91CD
:105590001F910F91FF90EF90DF90CF90BF90AF9051
:1055A0009F908F907F90089580915A128F5F809383
:1055B0005A128FE791E00E945B17809158120E9467
:1055C000AB16812F0E94AB1687E991E00E945B1712
:1055D00080915A120E94AB1689EA91E0DF91CF9137
:1055E0001F910F91FF90EF90DF90CF90BF90AF9001
:1055F0009F908F907F900C945B172091150C809159
:10560000000C87FDA9C180918E13882309F465C021
:105610008091010C87FD37C1222309F469C080E025
:1056200090E03CE2389FF001399FF00D1124ED59D4
:10563000FC4E83A5882309F4D7C18091020C87FD15
:1056400058C1211162C082E090E03CE2389FF00135
:10565000399FF00D1124ED59FC4E83A5882309F4E0
:10566000B9C18091030C87FD5CC0211157C083E054
:1056700090E03CE2389FF001399FF00D1124ED5984
:10568000FC4E83A5882309F49BC18091040C87FDFF
:105690007EC0211140C084E090E03CE2389FF001E0
:1056A000399FF00D1124ED59FC4E83A5882309F490
:1056B000A5C18091050C87FDA0C0222349F180E09F
:1056C00090E02CE2289FF001299FF00D1124ED5964
:1056D000FC4E83A5882379F008958FEF8093000C0A
:1056E0008093060C2111BBC08091010C87FDCBC0BB
:1056F00081E090E096CF8091150C811189C18FEFE8
:105700008093050C80930B0C089580E090E09DCF72
:1057100085E090E0D6CF80E090E0BFCF80E090E0E1
:10572000A8CF5FB7F89496EC91BB469A15B840E8BD
:1057300048B932E03BB980E28EB987E881BB91BBC2
:10574000469A15B848B93BB91EB881BB91BB469A79
:1057500041E045B933E438B930EB3BB932EA3EB900
:1057600081BB6DE06A95F1F7000091BB469A45B99F
:1057700097E498B990EF9BB93EB981BB8DE08A95CB
:10578000F1F700005FBF8091040C87FF82CF5FB705
:10579000F89496EC91BB469A15B840E848B932E0C7
:1057A0003BB980E28EB987E881BB91BB469A15B8B8
:1057B00048B93BB91EB881BB91BB469A41E045B997
:1057C00035E438B930EB3BB932EA3EB981BB6DE024
:1057D0006A95F1F7000091BB469A45B997E498B9EC
:1057E00090EF9BB93EB981BB8DE08A95F1F700003F
:1057F0005FBF8091050C87FF60CF5FB7F89496EC90
:1058000091BB469A15B830E838B922E02BB980E24E
:105810008EB987E881BB91BB469A15B838B92BB9C8
:105820001EB881BB91BB469A41E045B937E438B90F
:1058300020EB2BB922EA2EB981BB6DE06A95F1F716
:10584000000091BB469A45B938B990EF9BB92EB983
:1058500081BB8DE08A95F1F700005FBF08958093CA
:10586000010C8093070C8093020C8093080C8093AA
:10587000030C8093090C8093040C80930A0C809392
:10588000050C80930B0C5FB7F89496EC91BB469A8D
:1058900015B840E848B932E03BB980E28EB987E8F4
:1058A00081BB91BB469A15B848B93BB91EB881BBBC
:1058B00091BB469A41E045B937E438B960EB6BB922
:1058C00060EA6EB981BB6DE06A95F1F7000091BBAB
:1058D000469A45B938B990EF9BB992EA9EB981BB17
:1058E0008DE08A95F1F700005FBF8091020C87FF81
:1058F000A8CE5FB7F89496EC91BB469A15B840E8ED
:1059000048B932E03BB980E28EB987E881BB91BBF0
:10591000469A15B848B93BB91EB881BB91BB469AA7
:1059200041E045B931E438B930EB3BB932EA3EB930
:1059300081BB6DE06A95F1F7000091BB469A45B9CD
:1059400097E498B990EF9BB93EB981BB8DE08A95F9
:10595000F1F700005FBF85CE5FB7F89496EC91BB7E
:10596000469A15B840E848B932E03BB980E28EB9B2
:1059700087E881BB91BB469A15B848B93BB91EB8B8
:1059800081BB91BB469A31E035B945E448B940EB5B
:105990004BB940EA4EB981BB4DE04A95F1F70000A2
:1059A00091BB469A35B997E498B990EF9BB992EAC2
:1059B0009EB981BB6DE06A95F1F700005FBF28CE0C
:1059C0008091150C811158C08FEF8093030C809348
:1059D000090C5BCE8091150C811134C08FEF809340
:1059E000020C8093080C3DCE8091150C811178C07B
:1059F0008FEF8093010C8093070C1FCE8091150CC4
:105A0000811154C08FEF8093040C80930A0C51CE07
:105A10008FEF8093000C8093060C8093010C809391
:105A2000070C8093020C8093080C8093030C8093E6
:105A3000090C8093040C80930A0C8093050C8093CE
:105A40000B0C08958FEF8093000C8093060C8093CD
:105A5000010C8093070C8093020C8093080C8093B8
:105A6000030C8093090C8093040C80930A0C8093A0
:105A7000050C80930B0CF5CD8FEF8093000C809379
:105A8000060C8093010C8093070C8093020C80938A
:105A9000080C8093030C8093090C8093040C809372
:105AA0000A0C8093050C80930B0CEFCD8FEF809345
:105AB000000C8093060C8093010C8093070C80935C
:105AC000020C8093080C8093030C8093090C809344
:105AD000040C80930A0C8093050C80930B0CE9CD89
