:100000004BC0000042C2000040C200003EC20000DF
:100010003CC200000C943E6938C2000036C20000A9
:1000200034C2000032C200000C9434690C942A6976
:100030002CC200002AC2000028C2000026C2000014
:1000400024C2000022C2000020C200001EC2000024
:100050001CC200000C94EA6918C2000016C200001D
:1000600014C2000012C2000010C200000EC2000044
:100070000CC200000AC2000008C2000006C2000054
:1000800004C2000002C2000000C20000FEC1000065
:10009000FCC10000FAC1000011241FBECFEFD0E266
:1000A000DEBFCDBF0E9400F0D7C10000076342361B
:1000B000B79BD8A71A39685618AEBAAB558C1D3CF9
:1000C000B7CC5763BD6DEDFD753EF6177231BF00BD
:1000D0000000803F05A84CCDB2D44EB93836A902F5
:1000E0000C50B9918688083CA6AAAA2ABE00000036
:1000F000803F08000000BE922449123EABAAAA2A03
:10010000BECDCCCC4C3E00000080BEABAAAAAA3E1D
:1001100000000000BF000000803F00000000000859
:100120004178D3BB4387D1133D190E3CC3BD4282F6
:10013000AD2B3E68EC8276BED98FE1A93E4C80EFB4
:10014000FFBE01C4FF7F3F0000000000FF004C8A9B
:1001500097509545406BA6D8E4B2282EAE90BF26A6
:10016000B14EE86FD0FBE0709A51862C379845323B
:10017000539D06840D971A8CE61E2E0DB41D401655
:100180009AC591F9F786A142660620AFAE19EE270F
:10019000C2BB0EBAB90AAA95CA45040444C1796A19
:1001A00091EE7D3E2E4C960BA96E5A6A9FF56D0519
:1001B000BB8F808DB4F54FC14AE99E674536394FF4
:1001C00075ADF44CB227A939D78036F7C49C7E6A46
:1001D000605F677992B4DD0E4786CD1A6DC6258AB9
:1001E000F464D953D154DB67F78B22BD5CFEA44D78
:1001F000F9A7590EC57E3BF9BA7D430AD39F6C3BE4
:100200000BDEB2875E3710ECC8A6856546290CF177
:10021000D6BCA38C755E4934200DFAE9D7C7B6A7C2
:10022000988A7C6E6155493D32271D1209FFF6EE12
:10023000E5DDD5CEC6BFB9B2ACA6A09A958F8A85AA
:10024000817C78736F6B6864605D5A56FF59E97DF5
:1002500015B150F39942EE9D4F04BC7632F1B2765F
:100260003B03CC98653405D8AC8259320CE7C4A264
:100270008161432509EDD3B9A089725C46321E0B1A
:10028000F8E6D5C4B4A596887A6D6053473C30260D
:100290001B1108FEF5EDE4DCD4CDC6BFB8B1ABA5AB
:1002A0009F99948F8A85807C77736F6B6763605D9D
:1002B000595653504D4A484543403E3C3A383634EF
:1002C00032302E2D2B2A282725242321201F1E1DC6
:1002D0001C1B1A19181716161514131312111110C6
:1002E0000F0F0E0E0D0D0C0C0B0B0B0A0A09090952
:1002F0000808080807070706060606060505050597
:1003000005040404040404030303030303030302B6
:1003100002020202020202020202010101010101C3
:1003200001010101010101010101010101000000C0
:1003300000000000000000000000000000000000BD
:10034000000000000000000000000000FF0C0B0B8C
:100350000B0A0A090909080808080707070606061C
:100360000606050505050504040404040403030347
:100370000303030303020202020202020202020258
:10038000010101010101010101010101010101015D
:10039000010101000000000000000000000000005A
:1003A000000000000000000000000000000000004D
:1003B000000000000000000000000000000000003D
:1003C000000000000000000000000000000000002D
:1003D000000000000000000000000000000000001D
:1003E000000000000000000000000000000000000D
:1003F00000000000000000000000000000000000FD
:1004000000000000000000000000000000000000EC
:1004100000000000000000000000000000000000DC
:1004200000000000000000000000000000000000CC
:1004300000000000000000000000000000000000BC
:1004400000000000000000000000000011241FBE9A
:10045000CFEFD0E2DEBFCDBF1AE1A4EAB9E001C020
:100460001D92AF37B107E1F719E0A0E0B1E0E4EE8B
:10047000FEEE00E00BBF02C007900D92A43AB10758
:10048000D9F70E94236A0C947077BACD2F923F92CD
:100490004F925F926F927F928F929F92AF92BF9294
:1004A000CF92DF92EF92FF920F931F93CF93DF9340
:1004B00000D000D0CDB7DEB78AE090E10E94F128ED
:1004C00040903B1050903C102091C81020FF15C068
:1004D00025FD02C00C94030E420124FD0FC0809143
:1004E00020109091211095958795480E591E21FD59
:1004F00007C0C12CD12C76010BC0420121FFF9CFDE
:10050000C0902010D0902110EE24D7FCE094FE2C57
:100510000091E9101091EA1020E030E01058210914
:1005200031098091C410882311F40C94FF0D80913F
:10053000FB109091FC10A0E0B0E09058A109B10927
:10054000B7FF02C00C945110B595A7959795879564
:100550009C838B833FB6F89482E19EE00E947A28C8
:100560002091360E3091370E3A832983AA2497FCC6
:10057000A094BA2C662457FC6094762C80914C1081
:1005800090914D10B301A201480F591F611D711DBB
:10059000DB01CA01009751E0A507B10524F08FEFF8
:1005A0009FEFA0E0B0E0B7FF02C00C94170E0E94CE
:1005B000CE1246EC41BB469A31E035B925E428B964
:1005C00050EF5BB992EA9EB987E881BB00C000C0DA
:1005D00041BB469A35B928B960ED6BB99EB981BB6C
:1005E00000C000C041BB469A35B928B95BB99EB975
:1005F00081BB6B817C8129813A81AA27629FB12DC1
:100600007303C001369FB00D811D9A1F72039A0BB0
:10061000B00D811D9A1F1124AA2797FDA095BA2F0E
:10062000880D991DAA1DBB1D2091401030914110CD
:10063000820F931FA11DB11D009731E0A307B105E3
:1006400024F08FEF9FEFA0E0B0E0B7FF02C00C9462
:10065000120E0E94CE1246EC41BB469A31E035B9EB
:1006600021E428B950EF5BB990EA9EB987E881BBD5
:1006700000C000C041BB469A35B928B960ED6BB9DE
:100680009EB981BB00C000C041BB469A35B928B9AC
:100690005BB99EB981BB49815A81AA27049FB12DBC
:1006A0001503C001509FB00D811D9A1F14039A0BB2
:1006B000B00D811D9A1F1124AA2797FDA095BA2F6E
:1006C0008C0D9D1DAE1DBF1D2091581030915910ED
:1006D000820F931FA11DB11D009751E0A507B10521
:1006E00024F08FEF9FEFA0E0B0E0B7FF02C00C94C2
:1006F0000D0E0E94CE1246EC41BB469A31E035B950
:1007000021E428B950EF5BB992EA9EB987E881BB32
:1007100000C000C041BB469A35B928B960EE6BB93C
:100720009EB981BB00C000C041BB469A35B928B90B
:100730005BB99EB981BB8EE09FE00E947A288091D0
:10074000320F9091330F009711F00C94AA0C0E9475
:10075000CE1246EC41BB469A31E035B925E428B9C2
:1007600050EF5BB990EA9EB987E881BB00C000C03A
:1007700041BB469A35B928B960EB6BB99EB981BBCC
:1007800000C000C041BB469A35B928B95BB99EB9D3
:1007900081BB3FBE3FB73983F8948091400E909162
:1007A000410EA091420EB091430E8B2F9927AA279C
:1007B000BB27892B8A2B8B2B11F00C94A40C8091D6
:1007C000650E823011F40C944F0C10F00C94480C10
:1007D000813011F40C94590D80E090E060915E0E30
:1007E00070915F0E0E948A1920905C0E30905D0E11
:1007F000280E391E3092610E2092600E80913C0EC0
:1008000090913D0EA0913E0EB0913F0E4091400E52
:100810005091410E6091420E7091430E840F951FCE
:10082000A61FB71F8093400E9093410EA093420ED7
:10083000B093430E80914E1090914F10B301A201DE
:10084000480F591F611D711D4115510581E0680751
:10085000710524F04FEF5FEF60E070E0DB01CA014B
:1008600077FF02C00C94A50D0E94CE1266EC61BB0E
:10087000469A51E055B947E448B970EF7BB992EA1E
:100880009EB987E881BB00C000C061BB469A55B9DC
:1008900048B9E0EDEBB99EB981BB00C000C061BBB7
:1008A000469A55B948B97BB99EB981BB2B813C8129
:1008B000B101AA27269FB12D3703A001729FB00D69
:1008C000411D5A1F36035A0BB00D411D5A1F1124EA
:1008D000662757FD6095762F480D591D6A1D7B1DB3
:1008E0008091421090914310480F591F611D711D56
:1008F0004115510581E06807710524F04FEF5FEF66
:1009000060E070E0DB01CA0177FF02C00C94940D37
:100910000E94CE1266EC61BB469A51E055B943E4A1
:1009200048B970EF7BB990EA9EB987E881BB00C0F7
:1009300000C061BB469A55B948B9E0EDEBB99EB924
:1009400081BB00C000C061BB469A55B948B97BB9AC
:100950009EB981BB9101AA27029FB12D1303A0016B
:10096000309FB00D411D5A1F12035A0BB00D411D8F
:100970005A1F1124662757FD6095762F4C0D5D1D7B
:100980006E1D7F1D80915A1090915B10480F591F6A
:10099000611D711D4115510531E06307710524F09A
:1009A0004FEF5FEF60E070E0DB01CA0177FF02C04C
:1009B0000C948F0D0E94CE1246EC41BB469A31E05A
:1009C00035B923E428B950EF5BB992EA9EB987E8BC
:1009D00081BB00C000C041BB469A35B928B960EE62
:1009E0006BB99EB981BB00C000C041BB469A35B906
:1009F00028B95BB99EB981BB80913C0F90913D0FA6
:100A0000A0913E0FB0913F0F8B2F9927AA27BB27AC
:100A1000892B8A2B8B2B09F054C78091610F823070
:100A200009F4F3C608F0EBC6813009F4E1C780E0B1
:100A300090E060915A0F70915B0F0E948A1920918B
:100A4000580F3091590F280F391F30935D0F2093A5
:100A50005C0F8091380F9091390FA0913A0FB091AF
:100A60003B0F40913C0F50913D0F60913E0F7091B4
:100A70003F0F840F951FA61FB71F80933C0F9093C5
:100A80003D0FA0933E0FB0933F0F2115310509F0A4
:100A900022C780E090E00E94CE1246EC41BB469A0D
:100AA00031E035B927E428B950EF5BB990EA9EB937
:100AB00087E881BB00C000C041BB469A35B928B960
:100AC00060EB6BB99EB981BB00C000C041BB469AC8
:100AD00035B928B95BB99EB981BB39813FBF2FB702
:100AE0002983F89480916A0E90916B0EA0916C0E00
:100AF000B0916D0E8B2F9927AA27BB27892B8A2BA4
:100B00008B2B09F0E3C680918F0E823009F494C6D6
:100B100008F08CC6813009F4BBC780E090E060919A
:100B2000880E7091890E0E948A192090860E30904E
:100B3000870E280E391E30928B0E20928A0E8091DD
:100B4000660E9091670EA091680EB091690E40916B
:100B50006A0E50916B0E60916C0E70916D0E840F49
:100B6000951FA61FB71F80936A0E90936B0EA093DC
:100B70006C0EB0936D0E8091501090915110B30196
:100B8000A201480F591F611D711D4115510531E02A
:100B90006307710524F04FEF5FEF60E070E0DB0169
:100BA000CA0177FF01C0CDC70E94CE1266EC61BBBF
:100BB000469A51E055B941E448B970EF7BB990EAE3
:100BC0009EB987E881BB00C000C061BB469A55B999
:100BD00048B9E0EEEBB99EB981BB00C000C061BB73
:100BE000469A55B948B97BB99EB981BB6B817C8166
:100BF0009101AA27629FB12D7303A001369FB00D0A
:100C0000411D5A1F72035A0BB00D411D5A1F11246A
:100C1000662757FD6095762F480D591D6A1D7B1D6F
:100C20008091441090914510480F591F611D711D0E
:100C30004115510531E06307710524F04FEF5FEF77
:100C400060E070E0DB01CA0177FF01C076C70E9457
:100C5000CE1266EC61BB469A51E055B945E448B9FD
:100C600070EF7BB990EA9EB987E881BB00C000C0F5
:100C700061BB469A55B948B9E0EDEBB99EB981BB65
:100C800000C000C061BB469A55B948B97BB99EB94E
:100C900081BBB101AA27069FB12D1703A001709F48
:100CA000B00D411D5A1F16035A0BB00D411D5A1F9E
:100CB0001124662757FD6095762F4C0D5D1D6E1D26
:100CC0007F1D80915C1090915D10480F591F611D30
:100CD000711D4115510581E06807710524F04FEF42
:100CE0005FEF60E070E0DB01CA0177FD22C70E9480
:100CF000CE1246EC41BB469A31E035B925E428B91D
:100D000050EF5BB992EA9EB987E881BB00C000C092
:100D100041BB469A35B928B960EE6BB99EB981BB23
:100D200000C000C041BB469A35B928B95BB99EB92D
:100D300081BB8091660F9091670FA091680FB09171
:100D4000690F8B2F9927AA27BB27892B8A2B8B2BDF
:100D500009F0EDC580918B0F823009F486C508F04B
:100D60007EC5813009F407C680E090E06091840F71
:100D70007091850F0E948A192091820F3091830F04
:100D8000280F391F3093870F2093860F8091620FB1
:100D90009091630FA091640FB091650F4091660F21
:100DA0005091670F6091680F7091690F840F951FC4
:100DB000A61FB71F8093660F9093670FA093680FCD
:100DC000B093690F2115310509F0B6C580E090E0B8
:100DD0000E94CE1246EC41BB469A31E035B921E47F
:100DE00028B950EF5BB992EA9EB987E881BB00C091
:100DF00000C041BB469A35B928B960EB6BB99EB9C2
:100E000081BB00C000C041BB469A35B928B95BB967
:100E10009EB981BB29812FBF3FB73983F894809158
:100E2000940E9091950EA091960EB091970E8B2FE7
:100E30009927AA27BB27892B8A2B8B2B09F072C5F0
:100E40008091B90E823009F4C7C408F0BFC4813064
:100E500009F4A7C580E090E06091B20E7091B30EE6
:100E60000E948A192090B00E3090B10E280E391EC3
:100E70003092B50E2092B40E8091900E9091910E0A
:100E8000A091920EB091930E4091940E5091950EB8
:100E90006091960E7091970E840F951FA61FB71F35
:100EA0008093940E9093950EA093960EB093970E08
:100EB0008091521090915310B301A201480F591F15
:100EC000611D711D4115510581E06807710524F010
:100ED0004FEF5FEF60E070E0DB01CA0177FDFFC517
:100EE0000E94CE1266EC61BB469A51E055B943E4CC
:100EF00048B970EF7BB990EA9EB987E881BB00C022
:100F000000C061BB469A55B948B9E0EEEBB99EB94D
:100F100081BB00C000C061BB469A55B948B97BB9D6
:100F20009EB981BB2B813C81B101AA27269FB12D9F
:100F30003703A001729FB00D411D5A1F36035A0B93
:100F4000B00D411D5A1F1124662757FD6095762F5D
:100F5000480D591D6A1D7B1D8091461090914710C8
:100F6000480F591F611D711D4115510581E068072A
:100F7000710524F04FEF5FEF60E070E0DB01CA0124
:100F800077FDC5C50E94CE1266EC61BB469A51E062
:100F900055B947E448B970EF7BB990EA9EB987E844
:100FA00081BB00C000C061BB469A55B948B9E0EDAD
:100FB000EBB99EB981BB00C000C061BB469A55B970
:100FC00048B97BB99EB981BB9101AA27029FB12D77
:100FD0001303A001309FB00D411D5A1F12035A0B7D
:100FE000B00D411D5A1F1124662757FD6095762FBD
:100FF0004C0D5D1D6E1D7F1D80915E1090915F10E8
:10100000480F591F611D711D4115510531E06307DE
:10101000710524F04FEF5FEF60E070E0DB01CA0183
:1010200077FD71C50E94CE1246EC41BB469A31E075
:1010300035B927E428B950EF5BB992EA9EB987E841
:1010400081BB00C000C041BB469A35B928B960EEEB
:101050006BB99EB981BB00C000C041BB469A35B98F
:1010600028B95BB99EB981BB8091900F9091910F87
:10107000A091920FB091930F8B2F9927AA27BB278E
:10108000892B8A2B8B2B09F033C48091B50F8230CA
:1010900009F489C308F081C3813009F4E8C480E011
:1010A00090E06091AE0F7091AF0F0E948A1920916D
:1010B000AC0F3091AD0F280F391F3093B10F209333
:1010C000B00F80918C0F90918D0FA0918E0FB091E9
:1010D0008F0F4091900F5091910F6091920F7091EE
:1010E000930F840F951FA61FB71F8093900F9093A7
:1010F000910FA093920FB093930F2115310509F032
:1011000001C480E090E00E94CE1246EC41BB469ABA
:1011100031E035B923E428B950EF5BB992EA9EB9C2
:1011200087E881BB00C000C041BB469A35B928B9E9
:1011300060EB6BB99EB981BB00C000C041BB469A51
:1011400035B928B95BB99EB981BB29812FBF3FB79B
:101150003983F8948091BE0E9091BF0EA091C00E7D
:10116000B091C10E8B2F9927AA27BB27892B8A2BD9
:101170008B2B09F0C2C38091E30E823009F4FAC2CE
:1011800008F0F2C2813009F41DC480E090E0609163
:10119000DC0E7091DD0E0E948A192090DA0E3090DC
:1011A000DB0E280E391E3092DF0E2092DE0E80916B
:1011B000BA0E9091BB0EA091BC0EB091BD0E4091A5
:1011C000BE0E5091BF0E6091C00E7091C10E840F83
:1011D000951FA61FB71F8093BE0E9093BF0EA093BE
:1011E000C00EB093C10E8091541090915510B30170
:1011F000A201480F591F611D711D4115510581E064
:101200006807710524F04FEF5FEF60E070E0DB01ED
:10121000CA0177FD80C40E94CE1266EC61BB469A7B
:1012200051E055B945E448B970EF7BB990EA9EB9F1
:1012300087E881BB00C000C061BB469A55B948B978
:10124000E0EEEBB99EB981BB00C000C061BB469A1D
:1012500055B948B97BB99EB981BB2B813C81B1019D
:10126000AA27269FB12D3703A001729FB00D411D03
:101270005A1F36035A0BB00D411D5A1F1124662701
:1012800057FD6095762F480D591D6A1D7B1D809175
:10129000481090914910480F591F611D711D41154B
:1012A000510581E06807710524F04FEF5FEF60E0C2
:1012B00070E0DB01CA0177FD22C40E94CE1266EC09
:1012C00061BB469A51E055B941E448B970EF7BB92A
:1012D00092EA9EB987E881BB00C000C061BB469A14
:1012E00055B948B9E0EDEBB99EB981BB00C000C06B
:1012F00061BB469A55B948B97BB99EB981BB91018A
:10130000AA27029FB12D1303A001309FB00D411DEC
:101310005A1F12035A0BB00D411D5A1F1124662784
:1013200057FD6095762F4C0D5D1D6E1D7F1D8091C4
:10133000601090916110480F591F611D711D41157A
:10134000510531E06307710524F04FEF5FEF60E076
:1013500070E0DB01CA0177FDCEC30E94CE1246ECDD
:1013600041BB469A31E035B921E428B950EF5BB969
:1013700090EA9EB987E881BB00C000C041BB469A95
:1013800035B928B960EB6BB99EB981BB00C000C00C
:1013900041BB469A35B928B95BB99EB981BB8091EA
:1013A000BA0F9091BB0FA091BC0FB091BD0F8B2FC6
:1013B0009927AA27BB27892B8A2B8B2B09F093C24D
:1013C0008091DF0F823009F4BCC108F0B4C18130D4
:1013D00009F43CC380E090E06091D80F7091D90F80
:1013E0000E948A192091D60F3091D70F280F391FEC
:1013F0003093DB0F2093DA0F8091B60F9091B70FE7
:10140000A091B80FB091B90F4091BA0F5091BB0F96
:101410006091BC0F7091BD0F840F951FA61FB71F61
:101420008093BA0F9093BB0FA093BC0FB093BD0FE6
:101430002115310509F097C280E090E00E94CE129C
:1014400046EC41BB469A31E035B925E428B950EF66
:101450005BB992EA9EB987E881BB00C000C041BB7E
:10146000469A35B928B960EB6BB99EB981BB00C00B
:1014700000C041BB469A35B928B95BB99EB981BB5A
:1014800029812FBF3FB73983F89484EE9EE00E94F4
:101490007A282090080F3090090F80915610909173
:1014A0005710480E591E611C711C4114510441E033
:1014B000640671042CF044244A94542C612C712C41
:1014C000D301C20177FC07C30E94CE1246EC41BB98
:1014D000469A31E035B927E428B950EF5BB990EA74
:1014E0009EB987E881BB00C000C041BB469A35B9B0
:1014F00028B960EE6BB99EB981BB00C000C041BB8A
:10150000469A35B928B95BB99EB981BB6B817C819C
:101510009101AA27629FB12D7303A001369FB00DE0
:10152000411D5A1F72035A0BB00D411D5A1F112441
:10153000662757FD6095762F480D591D6A1D7B1D46
:1015400080914A1090914B10480F591F611D711DD9
:101550004115510531E06307710524F04FEF5FEF4E
:1015600060E070E0DB01CA0177FDC1C20E94CE12CB
:1015700046EC41BB469A31E035B923E428B950EF37
:101580005BB992EA9EB987E881BB00C000C041BB4D
:10159000469A35B928B960ED6BB99EB981BB00C0D8
:1015A00000C041BB469A35B928B95BB99EB981BB29
:1015B000B101AA27069FB12D1703A001709FB00D9E
:1015C000411D5A1F16035A0BB00D411D5A1F1124FD
:1015D000662757FD6095762F4C0D5D1D6E1D7F1D96
:1015E0008091621090916310480F591F611D711D09
:1015F0004115510581E06807710524F04FEF5FEF59
:1016000060E070E0DB01CA0177FD6DC2C7D746EC30
:1016100041BB469A31E035B923E428B950EF5BB9B4
:1016200090EA9EB987E881BB00C000C041BB469AE2
:1016300035B928B960EB6BB99EB981BB00C000C059
:1016400041BB469A35B928B95BB99EB981BB80EEDA
:101650009FE00E947A2880910410909105100097D5
:1016600009F058C19BD746EC41BB469A31E035B9E9
:1016700027E428B950EF5BB992EA9EB987E881BBAD
:1016800000C000C041BB469A35B928B960EB6BB9C0
:101690009EB981BB00C000C041BB469A35B928B98C
:1016A0005BB99EB981BB29812FBF2091A809922FD8
:1016B0009C7111E009F010E0922F9370923009F4C0
:1016C000E4C4933009F4D6C4913009F4B5C21111C1
:1016D000F3C480E00E94353D8091A4099091A50952
:1016E000A091A609B091A7090196A11DB11D8093F3
:1016F000A4099093A509A093A609B093A7092091E6
:10170000A8092F5F2093A8090F900F900F900F90BA
:10171000DF91CF911F910F91FF90EF90DF90CF90CD
:10172000BF90AF909F908F907F906F905F904F9001
:101730003F902F900895833009F483C1843009F0DD
:1017400049CE6091BA0F7091BB0F8091BC0F909100
:10175000BD0F2091DC0F211124C2BB27A92F982F88
:10176000872F8095909538CE833009F465C18430F9
:1017700009F00BCD6091BE0E7091BF0E8091C00E2E
:101780009091C10E2091E00E21112FC2BB27A92FED
:10179000982F872F80959095FACC833009F447C114
:1017A000843009F07CCC6091900F7091910F809102
:1017B000920F9091930F2091B20F211102C2BB277B
:1017C000A92F982F872F809590956BCC833009F4A3
:1017D000E3C0843009F03ECB6091940E7091950E79
:1017E0008091960E9091970E2091B60E2111CFC147
:1017F000BB27A92F982F872F809590952DCB8330CD
:1018000009F4F1C0843009F012C960913C0F709165
:101810003D0F80913E0F90913F0F20915E0F40EA67
:1018200051E00E94FC278095909503C9833009F40C
:10183000F9C0843009F071C960916A0E70916B0E25
:1018400080916C0E90916D0E20918C0E2111B4C17F
:10185000BB27A92F982F872F8095909560C983303B
:1018600009F4DBC0843009F07FCA6091660F709183
:10187000670F8091680F9091690F2091880F211157
:101880008BC1BB27A92F982F872F809590956ECA63
:10189000833009F4BCC0843011F00C94EC036091E7
:1018A000400E7091410E8091420E9091430E209116
:1018B000620E40EA51E00E94FC27809590950C94BE
:1018C000EE0388E39FE00E942928A7C886E69EE0F1
:1018D0000E94292818C921154DEF340708F440C18A
:1018E0008FEF9FEFD8C886EB9FE00E94292868CD34
:1018F0008CE89FE00E942928C8CB8AEB9EE00E94DA
:10190000292839CC21154DEF340708F423C18FEF76
:101910009FEFF9CB8115EDEF9E0708F425C18FEFFE
:101920009FEFA0CE80E99EE00E94292889CA82E626
:101930009FE00E9429280ECA21159DEF390708F45F
:101940000CC18FEF9FEF44CA8CE39EE00E942928D0
:101950000C94DF0381156DEF960708F40AC18FEF31
:101960009FEF0C94A70321154DEF340708F4FEC038
:101970008FEF9FEF63CD6091660F7091670F80913D
:10198000680F9091690F2091880F21111FC1BB270B
:10199000A92F982F872FEAC98091A40E9091A50EA8
:1019A0005BCA6091940E7091950E8091960E909105
:1019B000970E2091B60E21110EC1BB27A92F982F8B
:1019C000872F4ACA6091BE0E7091BF0E8091C00EE3
:1019D0009091C10E2091E00E2111D4C0BB27A92FF8
:1019E000982F872FD4CB80914C0F90914D0F21C809
:1019F00060913C0F70913D0F80913E0F90913F0F91
:101A000020915E0F40EA53E00E94FC2712C88091AB
:101A1000500E9091510E0C94EE038091760F9091A0
:101A2000770FA4C980917A0E90917B0E78C880912F
:101A3000A00F9091A10F35CB8091CE0E9091CF0E3B
:101A4000A6CB8091CA0F9091CB0FC6CC6091BA0FF4
:101A50007091BB0F8091BC0F9091BD0F2091DC0F56
:101A60002111C8C0BB27A92F982F872FB5CC609113
:101A7000900F7091910F8091920F9091930F209100
:101A8000B20F2111ADC0BB27A92F982F872F09CBEB
:101A900060916A0E70916B0E80916C0E90916D0E3C
:101AA00020918C0E211182C0BB27A92F982F872F40
:101AB00036C86091400E7091410E8091420E909117
:101AC000430E2091620E211157C0BB27A92F982FDA
:101AD000872F0C94EE0380E090E0DC01F5CC80E0F1
:101AE00090E0DC01FDC980E090E0DC018FCD80E07A
:101AF00090E0DC013BCD80E090E0DC012ECC80E08A
:101B000090E0DC01DACB80E090E0DC018BCA80E081
:101B100090E0DC0137CA80E090E0DC017CCB80E023
:101B200090E0DC010C94DA0480E090E0DC010C949D
:101B3000880480E090E0DC01DAC880E090E0DC011D
:101B400086C880E090E0DC012FC880E090E0DC01F6
:101B50000C943404C9019D5FD6CAC9019D5F38C980
:101B6000C9019D5F0C944B059D5F7CCDC9019D5FB4
:101B700065CC9D5F0C94A70340EA53E00E949B193B
:101B80000C94EE0340EA53E00E949B1900CB40EA1C
:101B900051E00E949B1930CE40EA51E00E949B190F
:101BA00074CE40EA51E00E949B19DBCD40EA53E03D
:101BB0000E949B190C948F0540EA51E00E949B19EA
:101BC0004BCE40EA51E00E949B19FDCD40EA53E024
:101BD0000E949B19CBC840EA53E00E949B193CC964
:101BE00040EA53E00E949B195CCA40EA51E00E941F
:101BF0009B19D0CD40EA53E00E949B19EDCB1C828B
:101C00001B820C94AA028090201090902110959431
:101C10008794840C951C0C946D0280E090E0DC01AC
:101C20000C94790380E090E0DC010C94290380E0BF
:101C300090E0DC010C94D7020E945F588091511211
:101C4000882309F433C28091BB10882379F0815036
:101C50008093BB108091030D811131C28091040DDE
:101C600081112DC28091020D811147C38091B41062
:101C7000882309F407C28091B2109091B31040916B
:101C8000641050916510209140103091411024173C
:101C9000350708F402C34217530770F4B901641BF7
:101CA000750BAB018617970708F4AC01241B350BA5
:101CB000309341102093401040917010509171105A
:101CC00020914C1030914D102417350708F4D9C2DB
:101CD0004217530770F4F901E41BF50BAF018E179F
:101CE0009F0708F4AC01241B350B30934D10209353
:101CF0004C1040917C1050917D10209158103091E3
:101D000059102417350708F4B0C24217530770F46E
:101D1000B901641B750BAB018617970708F4AC017A
:101D2000241B350B309359102093581040916610A6
:101D300050916710209142103091431024173507BD
:101D400008F487C24217530770F4F901E41BF50B3E
:101D5000AF018E179F0708F4AC01241B350B30939D
:101D600043102093421040917210509173102091B3
:101D70004E1030914F102417350708F45DC24217FA
:101D8000530770F4B901641B750BAB0186179707F5
:101D900008F4AC01241B350B30934F1020934E10E8
:101DA00040917E1050917F1020915A1030915B101D
:101DB0002417350708F433C24217530770F4F901AA
:101DC000E41BF50BAF018E179F0708F4AC01241B31
:101DD000350B30935B1020935A104091681050914E
:101DE000691020914410309145102417350708F4EC
:101DF00009C24217530770F4B901641B750BAB019C
:101E00008617970708F4AC01241B350B3093451057
:101E100020934410409174105091751020915010EF
:101E2000309151102417350708F4DFC142175307CA
:101E300070F4F901E41BF50BAF018E179F0708F44E
:101E4000AC01241B350B309351102093501040915E
:101E500080105091811020915C1030915D102417FA
:101E6000350708F4B5C14217530770F4B901641B74
:101E7000750BAB018617970708F4AC01241B350BD3
:101E800030935D1020935C1040916A1050916B105C
:101E900020914610309147102417350708F48BC164
:101EA0004217530770F4F901E41BF50BAF018E17CD
:101EB0009F0708F4AC01241B350B30934710209387
:101EC0004610409176105091771020915210309129
:101ED00053102417350708F461C14217530770F4F3
:101EE000B901641B750BAB018617970708F4AC01A9
:101EF000241B350B309353102093521040918210C5
:101F00005091831020915E1030915F102417350797
:101F100008F437C14217530770F4F901E41BF50BBD
:101F2000AF018E179F0708F4AC01241B350B3093CB
:101F30005F1020935E1040916C1050916D102091B5
:101F40004810309149102417350708F40DC1421785
:101F5000530770F4B901641B750BAB018617970723
:101F600008F4AC01241B350B309349102093481022
:101F70004091781050917910209154103091551063
:101F80002417350708F4E3C04217530770F4F9012A
:101F9000E41BF50BAF018E179F0708F4AC01241B5F
:101FA000350B30935510209354104091841050916C
:101FB000851020916010309161102417350708F4C6
:101FC000B9C04217530770F4B901641B750BAB011C
:101FD0008617970708F4AC01241B350B309361106A
:101FE0002093601040916E1050916F1020914A1014
:101FF00030914B102417350708F089C0421B530B52
:102000008417950708F477C1420F531F50934B1064
:1020100040934A1040917A1050917B1020915610B5
:10202000309157102417350708F05EC0421B530B40
:102030008417950708F45DC1420F531F5093571042
:102040004093561040918610509187102091621055
:102050003091631024173507A8F5421B530B8417E2
:10206000950708F444C1420F531F509363104093E7
:10207000621008C022FD45CB812F0E945132812F72
:102080000E94201F2091A8093CCB85E290E10E948C
:10209000F1288091C81088700E9485242091A80999
:1020A00030CB0196A11DB11D0C94A4028091BB10F0
:1020B000882309F4CFCDCBCD0E945A360ACB0E949B
:1020C0005357D0CD42175307E8F6F901E41BF50B3F
:1020D000AF018E179F0708F4AC01241B350B30931A
:1020E000631020936210CECF4217530708F0AACF97
:1020F000B901641B750BAB018617970708F4AC0197
:10210000241B350B30935710209356109BCF42174A
:10211000530708F07FCFF901E41BF50BAF018E17D1
:102120009F0708F4AC01241B350B30934B10209310
:102130004A1070CF421B530B8417950708F4D5C083
:10214000420F531F50936110409360104BCF421BBE
:10215000530B8417950708F4C6C0420F531F5093C2
:1021600055104093541021CF421B530B84179507F1
:1021700008F4B7C0420F531F5093491040934810C2
:10218000F7CE421B530B8417950708F4A8C0420FE3
:10219000531F50935F1040935E10CDCE421B530BE4
:1021A0008417950708F499C0420F531F509353109A
:1021B00040935210A3CE421B530B8417950708F48B
:1021C0008AC0420F531F509347104093461079CE58
:1021D000421B530B8417950708F47BC0420F531F13
:1021E00050935D1040935C104FCE421B530B8417ED
:1021F000950708F46CC0420F531F50935110409341
:10220000501025CE421B530B8417950708F45DC070
:10221000420F531F5093451040934410FBCD421B77
:10222000530B8417950708F44EC0420F531F509369
:102230005B1040935A10D1CD421B530B8417950766
:1022400008F43FC0420F531F50934F1040934E105D
:10225000A7CD421B530B8417950788F1420F531FDC
:1022600050934310409342107ECD421B530B841772
:10227000950718F1420F531F50935910409358106F
:1022800055CD421B530B84179507A8F0420F531FDF
:1022900050934D1040934C102CCD421B530B841780
:1022A000950738F0420F531F509341104093401050
:1022B00003CDAC01F7CFAC01E9CFAC01DBCFAC0172
:1022C000CDCFAC01BFCFAC01B0CFAC01A1CFAC0141
:1022D00092CFAC0183CFAC0174CFAC0165CFAC0120
:1022E00056CFAC0147CFAC0138CFAC0129CFAC0100
:1022F000BACEAC01A1CEAC0187CE0E94D457B6CCE9
:10230000E82FF0E0EE0FFF1FE75DFE4E8081918128
:1023100008958038910538F4FC01E45EFE4F208179
:1023200030E0C90108952FEF3FEFFBCFCF93DF934C
:10233000CFE8D7E1E881F98185EA96E1A1E6B0E04E
:1023400081939193A193B193F983E883DF91CF9126
:102350000895AFE8B7E1ED91FC9111978191ED936C
:10236000FC930895AFE8B7E1ED91FC91119781914D
:10237000ED93FC930895AFE8B7E1ED91FC911197CF
:10238000808191813296ED93FC930895AFE8B7E197
:10239000ED91FC91119760817181828193813496D6
:1023A000ED93FC930895E82FE695E695E695F0E029
:1023B000E659F54F9081992351F08770E82FF0E0AE
:1023C000E65DF84F2081292381E009F0089580E03F
:1023D0000895FC01A18DBB27A1950CF4B095AA0F1F
:1023E000BB1F119620853185428553850E940D774C
:1023F00064877587868797870895CF92DF92EF92DB
:10240000FF92CF93603E710581059105F8F4DC01E0
:10241000CB019F5FAF4FBF4FCC24D82EE92EFA2EB1
:10242000A0E0B0E020E030E0EBBEF601C791A40FE1
:10243000B51FCC932F5F3F4FD9018FEFC81AD80A31
:10244000E80AF80A211581E0380771F7CF91FF906B
:10245000EF90DF90CF900895CF93DF93BC0180E0A1
:1024600090E04FE855E1C9DFCFE8D5E1D093901770
:10247000C0938F171092911789DF653A7641814694
:10248000910551F080E092E0FE019C0111922150F3
:102490003040E1F780E004C065DF8093911781E070
:1024A000DF91CF910895AF92BF92CF92DF92EF92DA
:1024B000FF920F931F93CF93DF935C01C12CD12C1C
:1024C0007601C0E0D0E0062F10E00EC0A601415713
:1024D0005A4EBE016A0D7B1D80E090E08EDF219692
:1024E0002FEFD21AE20AF20AC017D10778F3CFE829
:1024F000D5E1D0939017C0938F171092911746DFB4
:10250000653A76418146910551F080E092E0FE0106
:102510009C01119221503040E1F780E004C022DF9D
:102520008093911781E0DF91CF911F910F91FF90E0
:10253000EF90DF90CF90BF90AF9008956095E9E75E
:10254000F4E19081982B6923608386EC81BB469AE5
:10255000362F330F962F9695262F221F2227221FC4
:10256000832F8670282B20646071832F880F8072E0
:10257000862B307C832B9270906C31E035B928B972
:102580008BB99EB987E881BB85E08A95F1F7000099
:10259000E8E7F4E180818F5F808308959C01232F19
:1025A000332726952695722F66EC61BB469A522FEB
:1025B000550F452F46704068207133272260352F14
:1025C000330F3072322B507C352B272F26952270FB
:1025D000206215B848B93BB92EB957E851BB96955A
:1025E000879596958795282F61BB469A482F440F6B
:1025F000382F3695221F2227221F642F6670262B24
:102600002068807199278260942F990F9072982B7F
:10261000407C942B327015B828B99BB93EB951BB98
:1026200008950F931F93072F069510E00F7711273A
:10263000282F2F7740914F124F704069E0919219E7
:10264000F091931963E070E082E999E109951F9197
:102650000F9108950F93262F4F772F778F708068F3
:10266000E0919219F0919319042F482F63E070E0E4
:1026700082E999E109950F910895EF92FF920F93E6
:102680001F93CF93DF93EC01162FF42EE22E80914F
:10269000B719843071F1C230D10509F453C0C33089
:1026A000D10571F1C130D105F9F1C430D105C8F5BA
:1026B000E091AE19F091AF19309739F00E2D2F2D12
:1026C000412FBE0182E999E10995E091B019F0919D
:1026D000B119309739F00E2D2F2D412FBE0182E90F
:1026E00099E10995DF91CF911F910F91FF90EF90A4
:1026F0000895E091AC19F091AD193097F9F6D8CF63
:10270000862F807F803A09F48DC008F041C0803860
:1027100009F456C0803961F6E0919619F091971945
:1027200042C0C0E0D0E0C4CF683F50F1E091A819AA
:10273000F091A919309709F4BBCF612F82E999E193
:102740000995C3CF862F807F803D09F455C0803F17
:1027500009F440C0803C09F0ABCFE091A019F091A2
:10276000A119309709F4A4CF133F09F43FC0113FDA
:10277000E9F1612F6F704F2D82E999E10995A5CF9D
:10278000663F09F095CFE091AA19F091AB19D2CF2D
:10279000803ED9F0803FA9F1803B09F089CFE091DC
:1027A0009419F0919519309709F482CF123F99F15D
:1027B000612F6F702E2D4F2D82E999E1099585CFFC
:1027C000E0919819F0919919EECFE0919C19F09150
:1027D0009D19E9CF633F59F1613F09F069CFE0915D
:1027E000A619F091A719309709F462CF4F2D612FE8
:1027F00082E999E1099569CFE091A219F091A319B5
:10280000B0CF623F09F054CFE0919E19F0919F192B
:10281000309709F44DCF2E2D4F2D62EF82E999E1CB
:10282000099553CFE0919A19F0919B19BCCFE09193
:10283000A419F091A5193097C9F63ACF86EC81BB5F
:10284000469A15B880E488B980E58BB980E68EB9E0
:1028500087E881BB85E08A95F1F70000089586EC52
:1028600081BB469A15B880E488B980ED8BB980E6C3
:102870008EB987E881BB85E08A95F1F7000008955D
:1028800086EC81BB469A15B885E488B980E58BB99A
:1028900080E68EB987E881BB85E08A95F1F7000074
:1028A0000895EF92FF920F931F93CF93DF93F82E2B
:1028B000E62EABEA8A9FA12D1124A695A695A69592
:1028C0001A2F1F5F50E0A83008F06AC08A2F90E0EE
:1028D000880F991FFC01EE0FFF1FEE0FFF1FEE0F79
:1028E000FF1FE80FF91FE40FF51FEE0FFF1FE75D55
:1028F000FE4EC081D181183008F476C0FA01EE0F87
:10290000FF1FEB5DFD4E0190F081E02DDA01AA0F73
:10291000BB1FAF5FBD4E8D919C919F01281B390B52
:10292000A12FB0E017970E9445726E0F7F1F811D87
:10293000911D6115710521E08207910508F06AC0BB
:102940008B010C1B1D0B3E2D20E09BEAF99E912D67
:102950001124969596959695892F880F890F880F43
:10296000880F6F2D681B862F90E0A0E0B0E07727DE
:102970006627620F731F811D911D2CE030E040E03F
:1029800050E00E944E77D8010E940377C80FD91FEC
:10299000CE01DF91CF911F910F91FF90EF9008959D
:1029A000FA01EE0FFF1FEB5DFD4E0190F081E02D6F
:1029B000EA01CC0FDD1FCF5FDD4E888199819F0139
:1029C000281B390BB0E017970E9445726E0F7F1FCE
:1029D000811D911D6115710521E082079105F8F4B3
:1029E000EB01183008F08ACF812F90E0880F991FF3
:1029F000FC01EE0FFF1FEE0FFF1FEE0FFF1FE80F92
:102A0000F91FE40FF51FEE0FFF1FE75DFE4E60811B
:102A1000718196CF6FEF7FEF80E090E091CF6FEF05
:102A20007FEF80E090E0EB01DCCFFF920F931F93EC
:102A3000CF93DF93F82EABEA8A9FA12D1124A695A0
:102A4000A695A6951A2F1F5F462F50E0A83008F0D4
:102A500063C08A2F90E0880F991FFC01EE0FFF1FC3
:102A6000EE0FFF1FEE0FFF1FE80FF91FE40FF51F1A
:102A7000EE0FFF1FE75DFE4EC081D181183008F4D4
:102A80006FC0FA01EE0FFF1FEB5DFD4E0190F0816C
:102A9000E02DDA01AA0FBB1FAF5FBD4E8D919C9157
:102AA0009F01281B390BA12FB0E017970E94457298
:102AB0006E0F7F1F811D911D6115710521E0820739
:102AC000910508F063C08B010C1B1D0B9BEAF99E5E
:102AD000912D1124969596959695892F880F890F9B
:102AE000880F880F6F2D681B862F90E0A0E0B0E064
:102AF000772766272CE030E040E050E00E944E77D8
:102B0000D8010E940377C80FD91FCE01DF91CF9162
:102B10001F910F91FF900895FA01EE0FFF1FEB5DDB
:102B2000FD4E0190F081E02DEA01CC0FDD1FCF5F5B
:102B3000DD4E888199819F01281B390BB0E01797E2
:102B40000E9445726E0F7F1F811D911D61157105D9
:102B500021E082079105F8F4EB01183008F091CFDD
:102B6000812F90E0880F991FFC01EE0FFF1FEE0FE1
:102B7000FF1FEE0FFF1FE80FF91FE40FF51FEE0F09
:102B8000FF1FE75DFE4E608171819DCF6FEF7FEF8C
:102B900080E090E098CF6FEF7FEF80E090E0EB0176
:102BA000DCCFEF92FF920F931F93CF93DF93ECE86C
:102BB000F0E11192119280E1E03BF807D1F7109219
:102BC000B1101092B0108091D110823009F4F4C08D
:102BD000833009F4D7C0813039F0DF91CF911F9154
:102BE0000F91FF90EF900895C0918A10D0918B10B3
:102BF0001091D010110F60E0812F17DF7C0180E071
:102C00007FDB9701281B390BDE010E9445729093F0
:102C10008D1080938C1061E0812F07DF7C0181E0B3
:102C20006FDB9701281B390BDE010E9445729093E0
:102C30008F1080938E1062E0812FF7DE7C0182E09E
:102C40005FDB9701281B390BDE010E9445729093D0
:102C500091108093901063E0812FE7DE7C0183E088
:102C60004FDB9701281B390BDE010E9445729093C0
:102C700093108093921064E0812FD7DE7C0184E072
:102C80003FDB9701281B390BDE010E9445729093B0
:102C900095108093941065E0812FC7DE7C0185E05C
:102CA0002FDB9701281B390BDE010E9445729093A0
:102CB00097108093961066E0812FB7DE7C0186E046
:102CC0001FDB9701281B390BDE010E944572909390
:102CD00099108093981067E0812FA7DE7C0187E030
:102CE0000FDB9701281B390BDE010E944572909380
:102CF0009B1080939A1068E0812F97DE7C0188E01A
:102D0000FFDA9701281B390BDE010E944572909370
:102D10009D1080939C1069E0812F87DE7C0189E003
:102D2000EFDA9701281B390BDE010E944572909360
:102D30009F1080939E106AE0812F77DE7C018AE0ED
:102D4000DFDA9701281B390BDE010E944572909350
:102D5000A1108093A0106BE0812F67DE8C018BE0C7
:102D6000CFDA9801281B390BDE010E94457290933F
:102D7000A3108093A210DF91CF911F910F91FF902C
:102D8000EF9008952091D010A0918A10B0918B10EF
:102D900030E00E9445729B01AC01A5E5B5E10E94BF
:102DA00003779093B1108093B010DF91CF911F9172
:102DB0000F91FF90EF9008952091D010A0918A106C
:102DC000B0918B1030E00E9445729B01AC01A5E5EB
:102DD000B5E10E940377BB2797FDB095AB2F909389
:102DE000A5108093A4109093A7108093A6109093A1
:102DF000A9108093A8109093AB108093AA10909381
:102E0000AD108093AC109093AF108093AE10DF9113
:102E1000CF911F910F91FF90EF90089521E030E046
:102E200002C0220F331F8A95E2F7D901A095B09511
:102E30008091290A90912A0A8A239B2390932A0A37
:102E40008093290AE0912B0AF0912C0AEA23FB23B4
:102E5000F0932C0AE0932B0A662371F0822B932BBC
:102E600090932A0A8093290A442331F02E2B3F2B7A
:102E700030932C0A20932B0A089521E030E002C001
:102E8000220F331F8A95E2F7F901E095F0958091C2
:102E9000290A90912A0A8E239F2390932A0A8093CD
:102EA000290A40912B0A50912C0A4E235F235093FC
:102EB0002C0A40932B0A662331F0282B392B3093B0
:102EC0002A0A2093290A0895CF93DF931F92CDB742
:102ED000DEB790E069831DDA80932D0A6981862F21
:102EE00090E017DA80932E0A0F90DF91CF9108952A
:102EF00024E630E040E050E00E9427772AE030E00E
:102F000040E050E00E942777605D822F805DDCCF3B
:102F100021E02093330A009721F48FEF8093320A47
:102F200008951092320ABC0189E39AE00E947676F5
:102F300068ED78E088E39AE00C946B761092820B4F
:102F40001092840B8FEF8093810B8093800B1092F3
:102F50007A0B10927B0B10927C0B10927D0B1092CF
:102F60008D0B10928F0B80938C0B80938B0B109298
:102F7000850B1092860B1092870B1092880B109283
:102F8000980B10929A0B8093970B8093960B10924C
:102F9000900B1092910B1092920B1092930B109237
:102FA000A30B1092A50B8093A20B8093A10B109200
:102FB0009B0B10929C0B10929D0B10929E0B1092EB
:102FC000AE0B1092B00B8093AD0B8093AC0B1092B4
:102FD000A60B1092A70B1092A80B1092A90B10929F
:102FE000B90B1092BB0B8093B80B8093B70B109268
:102FF000B10B1092B20B1092B30B1092B40B089558
:103000001F93CF93DF93D82FC92F162F8091C40B16
:1030100068130AC046E050E06CEB7BE08D2F0E9405
:103020003D76009711F424C089DF1093C40B46E06D
:1030300050E06FEF70E08CEB9BE00E946476ED2F28
:10304000FC2FACEBBBE080E091919F3F19F488230B
:1030500041F004C09D938F5F8630B1F71092BC0B96
:1030600007C086E0ECEBFBE0DF011D928A95E9F7F3
:10307000DF91CF911F910895CF93DF9300D000D0BF
:1030800000D0CDB7DEB786E0E2EDF6E0DE011196C6
:1030900001900D928A95E1F760E0CE010196B0DFD4
:1030A00026960FB6F894DEBF0FBECDBFDF91CF914D
:1030B0000895EF92FF920F931F93CF93DF9300D069
:1030C00000D000D0CDB7DEB746E050E06FEF70E043
:1030D0008E010F5F1F4FC8010E946476F12CE12C16
:1030E0008F2D61D98823A9F0F801EE0DF11DE7FCC1
:1030F000FA95F082EE2021F089819F2D981B908314
:10310000E39485E08E152CF461E0CE01019678DF22
:1031100005C0F39490E8F912E3CFF6CF26960FB6E8
:10312000F894DEBF0FBECDBFDF91CF911F910F91FD
:10313000FF90EF90089586E0ECEBFBE0A3E1B1E1B6
:1031400001900D928A95E1F7089555E05A95F1F7AF
:10315000000036EC31BB469A80EE87B997E09AB909
:103160008DB915B880E488B91BB880E28EB987E4C0
:1031700081BB82E08A95F1F700C026B199B18CB18C
:1031800031BB479A37EE37B937EF3AB932EE3DB92E
:10319000422F4695437050E8259F90011124422B01
:1031A000292F2071422B292F269526952870422BF6
:1031B00096959076492B90E0880F991F84709927F7
:1031C000842B08951092CD0B1092CE0B1092CF0B42
:1031D0001092D00B8FEF8093320C80931C118FEFE5
:1031E0009FEFDC0180931D1190931E11A0931F117E
:1031F000B093201108958F929F92AF92BF92CF9279
:10320000DF92EF92FF920F931F934A015B016801D7
:103210007901BC0180E090E00E94A6739058A5015E
:1032200094010E94E1720E944E73A70196010E94D0
:1032300006750E947A73CB011F910F91FF90EF905A
:10324000DF90CF90BF90AF909F908F9008950F9395
:103250001F938091091190910A1100E010E42CE174
:1032600035E440E050E86BE376E480959095C3DF69
:103270009093BA108093B9101F910F9108950F93F6
:103280001F93CF93DF93EC018A899B8900E01FEFA6
:103290002FE737E440E050E26BE476E480959095C8
:1032A000AADFAC0160E070E0088C04C0440F551F39
:1032B000661F771F0A94D2F7488759876A877B87EA
:1032C000DF91CF911F910F910895CF93DF93EC0180
:1032D000888D681739F0688FCE01D1DFCE01DF917C
:1032E000CF9177C8DF91CF910895CF93DF93EC0111
:1032F000598B488B8A899B896817790741F07B8BAA
:103300006A8BCE01BCDFCE01DF91CF9162C8DF9125
:10331000CF910895AC01AA27469FB12D579F9001E8
:10332000749FB00D211D3A1F569FB00D211D3A1FED
:103330001124C9010895A72F8F3FF9F0282F2F5F7F
:1033400030E0220F331FE82FF0E0EE0FFF1FE40FF5
:10335000F51F60817181FA01E20FF31F8081918175
:10336000861B970B892F9927A89F9001A99F300D45
:103370001124260F371FC90108952EEF31E0E3CF46
:103380008FBF0895F89481E008958FBF0895EFE806
:10339000F7E1A081B1818C93808191810196918325
:1033A00080830895EFE8F7E1A081B1818C9380815B
:1033B00091810196918380830895CF93DF93EFE805
:1033C000F5E180E092E0DF019C011D922150304048
:1033D000E1F7F0939017E0938F17C1E9D7E184E00C
:1033E00088830E9496118881DF91CF91DBCFAFE86F
:1033F000B7E1ED91FC91119781939193ED93FC933B
:103400000895F89481E00895CF93DF93DFB7F9DF53
:10341000882309F448C08CE5EDEBF0E1DF011D9253
:103420008A95E9F720E030E83093DC102093DB1038
:103430003093E2102093E1104FEF5FEF5093E610CE
:103440004093E5103093EA102093E9105093F61062
:103450004093F5105093DA104093D9103093061131
:1034600020930511309312112093111130930C11F8
:1034700020930B1185E08093D010C1E0C093D11050
:10348000C093CA10C093CC10C093D21082E0809336
:10349000D31046E050E06FEF70E083E191E10E94CD
:1034A0006476C093BD108D2FDF91CF916ECFCF92F8
:1034B000DF92EF92FF920F931F93CF93DF931F92B0
:1034C000CDB7DEB7F82E8B01EFB699839ADF9981DD
:1034D0008823F1F08F2D0E942C12EFE8F6E16F01A6
:1034E0008FE895E1C81AD90A82918823C1F3F09236
:1034F000921723E937E1EFE8F5E1A601BF01C90121
:103500000E944A769FEFC91AD90AF801D182C08277
:103510008E2D0F90DF91CF911F910F91FF90EF9023
:10352000DF90CF9032CF0F931F93CF93DF93182F5D
:10353000EB010FB766DF811104C0802F26DF81E029
:1035400016C0812F992787FD909588539F4F0E9421
:103550002C12811108C0802F18DF80E008C00E9463
:10356000B211899301C011E8115039F3F8CFDF91FE
:10357000CF911F910F9108951F93CF93DF93EC018B
:103580001FB73FDF811104C0812FFFDEC1E05EC0A5
:10359000CE010E942C12882309F455C01092CF103E
:1035A000109213119FEF9093141190931511909313
:1035B0001611909317119093181180919117811102
:1035C00002C0C1E041C0C0E00E94BB11EC2FF0E09E
:1035D000EE0FFF1FE952FF4E91838083CF5FC93109
:1035E00099F7D0E00E94B211ED2FF0E0E354FF4EC6
:1035F0008083DF5FD731B1F78091CD108093D610F3
:10360000809191178230E8F20E94BB11EC2FF0E01C
:10361000EE0FFF1FE952FF4E91838083CF5FCE31C3
:1036200099F70E94B2118093D4100E94B211809336
:10363000D510C3E1D1E10E94B211899381E1C93172
:10364000D807C9F7A1CFC0E0812F9FDE8C2FDF9173
:10365000CF911F9108951F93CF93DF93182FDFB75A
:10366000D0DE882309F448C08CE5EDEBF0E1DF0102
:103670001D928A95E9F720E030E83093DC10209322
:10368000DB103093E2102093E1104FEF5FEF509387
:10369000E6104093E5103093EA102093E910509320
:1036A000F6104093F5105093DA104093D9103093F0
:1036B00006112093051130931211209311113093AC
:1036C0000C1120930B1185E08093D010C1E0C093C2
:1036D000D110C093CA10C093CC10C093D21082E016
:1036E0008093D31046E050E06FEF70E083E191E10A
:1036F0000E946476111105C08D2FDF91CF911F912B
:1037000044CEC093BD10F8CFFF920F931F93CF9379
:10371000DF93FFB676DE811104C08F2D36DEC1E067
:1037200064C062E08CED90E00E945312882309F49B
:1037300059C08FE3809350121092521280919117CA
:10374000882319F0C9E2D1E113C0C1E04CC00E9446
:10375000BB11FE01E00FF11F918380830E5F1F4FAD
:1037600004321105A1F7A49682E1C934D80719F0F3
:1037700000E010E0ECCF0E94BB1190934C128093BC
:103780004B120E94BB1190934A12809349120E94DF
:10379000B21180934D120E94A91180934E12809114
:1037A0009117823090F20E94B211809350120E94C1
:1037B000A91180934F1280919117833030F20E94AB
:1037C000B2118093511280919117843008F4BDCFCB
:1037D0000E94A9118093521280919117853008F0B0
:1037E0009CCFB3CFC0E08F2DD0DD8C2FDF91CF9158
:1037F0001F910F91FF900895833061F0893151F04E
:103800008F3141F091E08F3019F0803109F090E074
:10381000892F089591E0892F0895BF92CF92DF926A
:10382000EF92FF920F931F93CF93DF9310927F1429
:10383000C0E0D0E0B4E2BB2E0CC00193119313871B
:103840000287778B668B8150C1F72196C830D105EE
:1038500091F16C2F772767FD7095872F972F0E9426
:10386000A8736B017C012DEB3EE140EC55E40E9416
:10387000067520E030E44CE955E40E947A720E941B
:103880007A738B0121E33CE043E455E4C701B601C0
:103890000E94067520E030E44CE156E40E947A7202
:1038A0000E947A73BC9EF001BD9EF00D1124E75D6D
:1038B000FE4E86E0C2CFDF91CF911F910F91FF9016
:1038C000EF90DF90CF90BF900895CF93CFB799DD61
:1038D0008823B1F02AE231E0E9E2F1E1DF01C90138
:1038E0001D920197E9F720E030E830934A122093C7
:1038F00049128FEF80934E128FE3809350128DDF29
:103900008C2FCF9142CD8FBF0895E7E7F4E18081FE
:103910008F5F80830895F89481E008958C3F59F07B
:103920008138C1F19091030D933039F19091040DDC
:103930009330B1F008958091030D8330E9F18091C7
:10394000040D8330B9F7E091060EEE2399F3E150B0
:10395000E093060EF0E0EB57F24F8FEF808308956F
:103960009091060E97FDE6CFE92FF0E0EB57F24F6E
:1039700080839F5F9093060E08959091050E97FDAA
:10398000D5CFE92FF0E0ED5FF24F82839F5F9093F8
:10399000050ECCCF8091030D8330E1F08091040DB2
:1039A000833041F61092060E40E850E06FEF70E071
:1039B00085E89DE00C946476E091050EEE2309F411
:1039C000BECFE150E093050EF0E0ED5FF24F8FEFD8
:1039D0008283B5CF1092050E40E850E06FEF70E0A3
:1039E00085E09DE00E946476D9CFCF93DF93EC0110
:1039F0006A8F88819981AA81BB81892B8A2B8B2B25
:103A000051F46091A4097091A5098091A609909143
:103A1000A7090E94CB760E94C876688379838A833F
:103A20009B83DF91CF9108950F931F93CF93DF93E3
:103A3000FC018BE1DF011D928A95E9F706E712E1AF
:103A400060E070E080E89FEBC0E0D0E01BC0BE010A
:103A5000882777FD8095982F0E94A87321E830E889
:103A600040E85BE30E94067520E030E040E85FE359
:103A70000E947A722BED3FE049E450E40E94067503
:103A80000E94DE7220E030E040E85FE30E947A723C
:103A900020E03FEF4FEF56E40E9406750E947A73D4
:103AA000F801619371938F012196C115F1E0DF0751
:103AB00071F6DF91CF911F910F9108950F931F938E
:103AC000082F10E0F801E45BFE4F8491F801E45BFD
:103AD000FD4F9491F801E45BFC4F049110E020E06D
:103AE00030E0980111270027192B082BB801C901D4
:103AF0001F910F91089510922D0A10922E0A109284
:103B00002A0A1092290A10922C0A10922B0A10925B
:103B1000330A089596EC91BB469A982F9695969500
:103B200096958295880F807E95B990E498B91BB8D8
:103B30008EB987E881BB85E08A95F1F7000008958A
:103B400036EC20EE97E0A0E8F7E4E7EE77EF62EEE0
:103B50005FB7F89431BB469A27B99AB92DB915B811
:103B6000A8B99BB91EB8F1BB42E04A95F1F700C075
:103B700046B1B9B1BCB131BB479AE7B97AB96DB9B1
:103B80005FBF55E05A95F1F7000042FFE1CF5FB704
:103B9000F89496EC91BB469A382F330F982F969550
:103BA000232F26702068482F441F4427441F242BAE
:103BB00080718360432F440F4072842B307C832BB1
:103BC0009270906215B828B98BB99EB987E881BB0D
:103BD00085E08A95F1F700005FBF089526EC90EE2E
:103BE00087E0F0E8E7E477EE67EF52EE4FB7F8943E
:103BF00021BB469A97B98AB99DB915B8F8B98BB95E
:103C00001EB8E1BB32E03A95F1F700C036B1A9B178
:103C1000ACB121BB479A77B96AB95DB94FBF45E0EE
:103C20004A95F1F7000032FFE1CF8FB7F89496EC98
:103C300091BB469A15B892E898B993EC9BB990E27B
:103C40009EB997E891BB95E09A95F1F700008FBF78
:103C5000089526EC90EE87E0F0E8E7E477EE67EF72
:103C600052EE4FB7F89421BB469A97B98AB99DB9DD
:103C700015B8F8B98BB91EB8E1BB32E03A95F1F747
:103C800000C036B1A9B1ACB121BB479A77B96AB9C6
:103C90005DB94FBF45E04A95F1F7000032FFE1CF33
:103CA0008FB7F89496EC91BB469A15B894E898B9FA
:103CB00093E19BB992E29EB997E891BB95E09A9502
:103CC000F1F700008FBF089526EC90EE87E0F0E852
:103CD000E7E477EE67EF52EE4FB7F89421BB469AD0
:103CE00097B98AB99DB915B8F8B98BB91EB8E1BBB7
:103CF00032E03A95F1F700C036B1A9B1ACB121BBC1
:103D0000479A77B96AB95DB94FBF45E04A95F1F76F
:103D1000000032FFE1CF8FB7F89496EC91BB469A42
:103D200015B892E898B993E09BB990E29EB997E8EC
:103D300091BB95E09A95F1F700008FBF089526ECAE
:103D400090EE87E0F0E8E7E477EE67EF52EE4FB7EA
:103D5000F89421BB469A97B98AB99DB915B8F8B9B4
:103D60008BB91EB8E1BB32E03A95F1F700C036B12D
:103D7000A9B1ACB121BB479A77B96AB95DB94FBF58
:103D800045E04A95F1F7000032FFE1CF9FB7F89484
:103D900086EC81BB469A15B887E888B923ED2BB924
:103DA00022E22EB981BB85E08A95F1F700009FBF22
:103DB0000895CF93DF93E6ECFBE08081C8ECDBE075
:103DC000688190E070E00E946672A091C90BB0918A
:103DD000CA0BA80FB91F2C913FB7F894808190E0CF
:103DE0000196688170E00E94667280833FBF822FD7
:103DF000DF91CF91A5CECF93DF93A7D9C82FD0E085
:103E0000A4D9382F20E0C22BD32B81E083DE81E0C0
:103E100081DE86EC81BB469A15B882E488B91BB86E
:103E200080E48EB987E881BB85E08A95F1F70000D0
:103E300082E070DEC095D095CE01DF91CF910895DC
:103E4000CF93882339F180912F0A8F5F80932F0AB7
:103E5000853148F081E09091300A9111CDC0809376
:103E6000300A10922F0AC091330AC11179C05091C3
:103E70002D0A90912E0AE091340AE13009F4DEC057
:103E800008F4AFC0E23009F4C4C020E0F0E0E75D20
:103E9000F54F2487AFB7F89456EC51BB469A41E0F2
:103EA00045B980E488B91BB880E28EB937E831BBE8
:103EB00000C000C080E190E00090340A02C0880F8A
:103EC000991F0A94E2F7282F51BB469A782F770F53
:103ED000682F6695221F2227221F972F9670292B65
:103EE00020648071972F990F9072982B707C972B7C
:103EF000627045B928B99BB96EB931BB00C000C02A
:103F0000E091340AF0E0E75DF54F848551BB469AB5
:103F1000582F550F982F9695252F26702064682FBF
:103F2000661F6627661F262B682F6071852F880FF6
:103F30008072862B507C852B9270906245B928B98F
:103F40008BB99EB931BBAFBF8091340A90E0019626
:103F500063E070E00E9466728093340ACF91089506
:103F60004091310A4F5F4093310AE8E3FAE0019053
:103F70000020E9F7E953FA402091320A332727FD60
:103F80003095C90101966E2F772767FD70950E94C5
:103F90006672F901E75DF54F278530E0203831057D
:103FA00088F15FEFE82FFF27E7FDF095E75DF54F1C
:103FB000278530E02038310550F5F901E45EFE4FE9
:103FC0009081403108F457CF8093320A1092310A21
:103FD000811151CF1C160CF04ECFC150C093330A43
:103FE0004ACF2091290A8091300A882309F44ECFC4
:103FF00080912B0A28274ACF80E08093300A1092C4
:104000002F0A31CFF901E45EFE4F5081CBCF9FEFF5
:10401000D8CF292F2F778091290A90912A0A90FDD5
:10402000206880912B0A90912C0A90FF2FCF8091CD
:10403000300A882309F42ACF205828CF252F2F773C
:104040008091290A90912A0A91FD206880912B0A7B
:1040500090912C0A91FF1ACFEACFCF9380912F0A2B
:104060008F5F80932F0A853148F081E09091300A6C
:104070009111D3C08093300A10922F0AC091330A55
:10408000CC2309F441C04091310A4F5F4093310A7B
:10409000E8E3FAE001900020E9F7E953FA402091C3
:1040A000320A332727FD3095C90101966E2F7727F5
:1040B00067FD70950E946672F901E75DF54F2785EF
:1040C00030E02038310508F4A3C05FEFE82FFF2768
:1040D000E7FDF095E75DF54F278530E020383105A5
:1040E00008F09DC0F901E45EFE4F9081403180F000
:1040F0008093320A1092310A81110AC01C1644F4CE
:10410000C150C093330A04C050912D0A90912E0AD9
:10411000E091340AE13009F499C008F46EC0E2304D
:1041200009F47FC020E0F0E0E75DF54F2487AFB7EA
:10413000F89456EC51BB469A41E045B980E488B901
:104140001BB880E28EB937E831BB00C000C080E107
:1041500090E00090340A02C0880F991F0A94E2F799
:10416000282F51BB469A782F770F682F6695221F0C
:104170002227221F972F9670292B20648071972F5A
:10418000990F9072982B707C972B627045B928B963
:104190009BB96EB931BB00C000C0E091340AF0E0B9
:1041A000E75DF54F848551BB469A582F550F982FE0
:1041B0009695252F26702064682F661F6627661F38
:1041C000262B682F6071852F880F8072862B507C7C
:1041D000852B9270906245B928B98BB99EB931BBD5
:1041E000AFBF8091340A90E0019663E070E00E94D6
:1041F00066728093340ACF9108952091290A8091A4
:10420000300A882309F48FCF80912B0A28278BCF7F
:10421000F901E45EFE4F508159CF80E02BCF9FEF34
:1042200065CF292F2F778091290A90912A0A90FD36
:10423000206880912B0A90912C0A90FF74CF809176
:10424000300A882309F46FCF20586DCF252F2F77A0
:104250008091290A90912A0A91FD206880912B0A69
:1042600090912C0A91FF5FCF8091300A882309F446
:104270005ACFEACF86EC81BB469A15B896E898B932
:1042800093E09BB91EB897E891BBEFE9FFE0319747
:10429000F1F700C0000081BB469A15B823E828B9A1
:1042A00023E12BB922E02EB991BBFAE0FA95F1F7A0
:1042B00000C081BB469A20EE27B997E09AB92DB984
:1042C00015B820E828B99BB91EB897E491BB92E0D5
:1042D0009A95F1F700C096B199B19CB181BB479A0C
:1042E00087EE87B987EF8AB982EE8DB9EAE0EA9561
:1042F000F1F700C0089526EC90EE87E0F0E8E7E4DF
:1043000077EE67EF52EE4FB7F89421BB469A97B914
:104310008AB99DB915B8F8B98BB91EB8E1BB32E0BE
:104320003A95F1F700C036B1A9B1ACB121BB479ABB
:1043300077B96AB95DB94FBF45E04A95F1F700001A
:1043400032FFE1CF8FB7F89496EC91BB469A15B83F
:1043500091E898B993ED9BB990E29EB997E891BB2B
:1043600095E09A95F1F700008FBF08950F931F9382
:10437000CF93DF9380E492E4AFE0B0E036EC20EE40
:1043800017E0D1E0C0E4F0E2E7E477EE67EF52EE49
:1043900004C00097A105B10521F131BB469A27B9A8
:1043A0001AB92DB9D5B9C8B91BB8FEB9E1BB42E0FD
:1043B0004A95F1F700C046B109B10CB131BB479A3B
:1043C00077B96AB95DB90197A109B10942FDE1CF99
:1043D000892B8A2B8B2B29F0DF91CF911F910F9185
:1043E0000895DF91CF911F910F918FCA8091511243
:1043F000813009F00895683FE9F06A3FD9F78FEFFF
:104400009FEF9093080E8093070E2FEF3FE73093B6
:104410000F0E20930E0E90930A0E8093090E909328
:10442000F90C8093F80C3093FE0C2093FD0C109245
:10443000BB1008958091BB108F5F8093BB100895CF
:104440001F93CF93DF93D82FD86F86958695869547
:1044500028E030E001C0220F8A95EAF7C22FC0950C
:10446000CD231FB7F894CB010E94CE12E6ECE1BB3E
:10447000469A3D2F330F367031649D2F969592707A
:10448000906A71E075B938B9A0EFABB99EB967E829
:1044900061BB85E08A95F1F70000E1BB469AFC2FED
:1044A000FF0F4C2F46955C2F551F5527551F8F2FFB
:1044B0008670582B5064C0718F2F880F80728C2BA0
:1044C000F07C8F2B4270406A75B958B98BB94EB9E0
:1044D00061BB8AE08A95F1F700C0E1BB469A75B9E5
:1044E00038B9ABB99EB961BB8AE08A95F1F700C0D3
:1044F0001FBFDF91CF911F9108950F931F93CF930B
:10450000DF9380E492E4AFE0B0E036EC20EE17E019
:10451000D1E0C0E4F0E2E7E477EE67EF52EE04C0EA
:104520000097A105B10521F131BB469A27B91AB907
:104530002DB9D5B9C8B91BB8FEB9E1BB42E04A955F
:10454000F1F700C046B109B10CB131BB479A77B958
:104550006AB95DB90197A109B10942FFE1CF892B81
:104560008A2B8B2B29F0DF91CF911F910F9108950A
:10457000DF91CF911F910F91C8C91F93CF93DF9304
:1045800080E492E4AFE0B0E036EC20EE17E0D1E05A
:10459000C0E4F0E2E7E477EE67EF52EE04C0009784
:1045A000A105B10519F131BB469A27B91AB92DB940
:1045B000D5B9C8B91BB8FEB9E1BB42E04A95F1F7DD
:1045C00000C046B149B14CB131BB479A77B96AB91D
:1045D0005DB90197A109B10941FDE1CF892B8A2B72
:1045E0008B2B21F0DF91CF911F910895DF91CF9117
:1045F0001F918BC91F93CF93DF9380E492E4AFE0C8
:10460000B0E036EC20EE17E0D1E0C0E4F0E2E7E401
:1046100077EE67EF52EE04C00097A105B10519F1DE
:1046200031BB469A27B91AB92DB9D5B9C8B91BB843
:10463000FEB9E1BB42E04A95F1F700C046B149B18D
:104640004CB131BB479A77B96AB95DB90197A109F5
:10465000B10941FFE1CF892B8A2B8B2B21F0DF9110
:10466000CF911F910895DF91CF911F914EC92F9245
:104670003F924F925F926F927F928F929F92AF92F2
:10468000BF92CF92DF92EF92FF920F931F93CF933F
:10469000DF93CDB7DEB728970FB6F894DEBF0FBE15
:1046A000CDBF8D832FB72E83F894282F2595259580
:1046B0002595259580E290E002C0959587952A95ED
:1046C000E2F79D819F70982B86EC81BB469A492F1B
:1046D000440F292F2695392F331F3327331F842F5B
:1046E0008670382B30649071842F880F8072892BEC
:1046F000407C842B2270206491E095B938B98BB945
:104700002EB987E881BB35E03A95F1F700002D819D
:10471000332727FD30953A832983F901E852F94F71
:10472000C080D12C80E190E08C199D092FEF3FEFE4
:10473000082E02C0369527950A94E2F702C0220F90
:10474000331F8A95E2F73C832B83E12CF12C00E0A8
:1047500010E82FEF3FEF56ECA52E60EEB62E77E077
:10476000272E33243394E0E44E2EF0E25F2EA7E4AC
:104770006A2EB7EE7B2E87EF882E92EE992E0AC016
:10478000200F311F16950795AFEFEA1AFA0ACE14DB
:10479000DF0434F1C9012F8338870E94CE1282E0F2
:1047A0008A95F1F700C0A1BA469AB7B82AB8BDB841
:1047B00035B848B81BB85EB861BA92E09A95F1F77F
:1047C00000C086B189B19CB1A1BA479A77B88AB8BE
:1047D0009DB82F81388585FDD3CF201B310BD2CFDB
:1047E00086EC81BB469A81E085B987E488B980EF81
:1047F0008BB982E48EB987E881BBB5E0BA95F1F751
:104800000000EB81FC812E233F23E981FA81EE0F2A
:10481000FF1FEF50F44F31832083232F3327E9818B
:10482000FA81E353F44F848190E0821B930B97FD50
:104830001DC0059704F53E813FBF28960FB6F8943A
:10484000DEBF0FBECDBFDF91CF911F910F91FF90C3
:10485000EF90DF90CF90BF90AF909F908F907F9020
:104860006F905F904F903F902F9008959195819514
:104870009109059704F3248381E090E0A0E0B0E083
:104880000D8004C0880F991FAA1FBB1F0A94D2F77E
:104890004091CD0B5091CE0B6091CF0B7091D00B0E
:1048A000842B952BA62BB72B8093CD0B9093CE0BFF
:1048B000A093CF0BB093D00B2D812093320CBBCFA4
:1048C0009091030D933021F09091040D9330E1F419
:1048D0008130C1F028F0823079F08330A9F406C02D
:1048E00087EC98E00E94881781E80DC08DEC98E075
:1048F0000E9488178EEF07C082ED98E00E9488170B
:104900008DEF01C08CEF0AC80895CF92DF92EF922D
:10491000FF92CF939091BF102091C210992309F478
:1049200094C04091DB105091DC1060E070E02223D5
:1049300009F485C0C090E110D090E210E12CF12C78
:104940008823A1F0992381F08091C81085FD0CC0C7
:104950008091201090912110AA2797FDA095BA2F41
:10496000480F591F6A1F7B1F211174C0CFB7F894DD
:104970004115510521E06207710524F04FEF5FEF0B
:1049800060E070E0DB01CA0177FD79C00E94CE12C1
:1049900046EC41BB469A31E035B921E428B950EFE5
:1049A0005BB992EA9EB987E881BB00C000C041BBF9
:1049B000469A35B928B960E76BB99EB981BB00C08A
:1049C00000C041BB469A35B928B95BB99EB981BBD5
:1049D000D701C601C114D10421E0E206F10424F09C
:1049E0008FEF9FEFA0E0B0E0B7FD45C00E94CE1270
:1049F00046EC41BB469A31E035B927E428B950EF7F
:104A00005BB992EA9EB987E881BB00C000C041BB98
:104A1000469A35B928B960E76BB99EB981BB00C029
:104A200000C041BB469A35B928B95BB99EB981BB74
:104A3000CFBFCF91FF90EF90DF90CF900895CC241F
:104A4000CA94DC2CE12CF12C7BCF4FEF5FEF60E0C0
:104A500070E06DCF8091C81084FD88CF80912010C8
:104A600090912110AA2797FDA095BA2FC80ED91EA4
:104A7000EA1EFB1E7BCF80E090E0DC01B7CF80E038
:104A800090E0DC0183CF8095909179148923809305
:104A9000791496EC91BB469A482F440F282F2695FF
:104AA000382F331F3327331F942F9670392B3064E0
:104AB0008071942F990F9072982B407C942B2270C8
:104AC000206C81E085B938B99BB92EB987E881BBE4
:104AD00085E08A95F1F70000809178148F5F8093CC
:104AE000781408958091791480618093791496ECFC
:104AF00091BB469A382F330F982F9695282F221F57
:104B00002227221F832F8670282B2064832F880F53
:104B100080728061307C832B9270906C31E035B96B
:104B200028B98BB99EB987E881BB85E08A95F1F7F2
:104B30000000809178148F5F80937814089580919D
:104B4000791481608F7E8093791496EC91BB469A9C
:104B5000382F330F982F9695881F8827881F232F6B
:104B60002670822B8064232F220F2072307C232B0F
:104B70009270906C31E035B988B92BB99EB987E84D
:104B800081BB85E08A95F1F70000809178148F5FF2
:104B900080937814089530917914832F88608E7FE4
:104BA0008093791496EC91BB469A282F220F982F68
:104BB0009695881F8827881F422F4670842B806413
:104BC000207C30713062232B9270906C31E035B9CB
:104BD00088B92BB99EB987E881BB85E08A95F1F742
:104BE0000000809178148F5F80937814089540912D
:104BF0007914242F22602093791486EC81BB469A85
:104C0000322F330F922F9695221F2227221F832F98
:104C10008670282B2064832F880F80724071842B2C
:104C2000307C832B9270906C31E035B928B98BB908
:104C30009EB987E881BB85E08A95F1F700008091F5
:104C400078148F5F8093781408954FB7F89480910B
:104C5000770C96EC91BB469A382F330F982F969588
:104C6000232F26702064582F551F5527551F252B9D
:104C7000582F5071832F880F8072852B307C832BA7
:104C80009270906631E035B928B98BB99EB987E842
:104C900081BB4FBF08959091770C977F81119860E9
:104CA0009093770CD2CF9091770C9E7F8111916079
:104CB0009093770CCACF9091770C9B7F8111946071
:104CC0009093770CC2CF9091770C9F7D8111906269
:104CD0009093770CBACF9091770C9F7E8111906161
:104CE0009093770CB2CF9091770C9D7F8111926059
:104CF0009093770CAACFE82FF0E0EE0FFF1FE95C4E
:104D0000F34F718360830895E82FF0E0EE0FFF1FEB
:104D1000E95CF34F118210820895E82FF0E0EE0F66
:104D2000FF1FE95CF34F86EC94E99183808308953B
:104D3000E82FF0E0EE0FFF1FE95CF34F83E094E60D
:104D4000918380830895E82FF0E0EE0FFF1FE95C68
:104D5000F34F82EA9BEB918380830895E82FF0E084
:104D6000EE0FFF1FE95CF34F83E99BE5918380839E
:104D70000895E82FF0E0EE0FFF1FE95CF34F8FEF8F
:104D80009FEF91838083089560FD05C090936C0C24
:104D900080936B0C0895BC018AE152CB60FD05C085
:104DA00090936A0C8093690C0895BC0189E148CB0B
:104DB00060FD05C09093740C8093730C0895BC0142
:104DC0008EE13ECBFC01623009F43BC018F1633048
:104DD00069F1643011F511A210A2268D378D468934
:104DE0005789AA27249FB12D359FC001529FB00D2E
:104DF000811D9A1F349FB00D811D9A1F112482A31B
:104E000093A3408951896289738940835183628366
:104E100073830895613009F443C011A210A213A254
:104E200012A21082118212821382089511A210A27E
:104E30008689978993A382A310821182128213829A
:104E400008952689378944895589AA27429FB12D1B
:104E5000539FC001349FB00D811D9A1F529FB00D0A
:104E6000811D9A1F112480A391A340955095AA27D4
:104E7000429FB12D539FC001349FB00D811D9A1FD9
:104E8000529FB00D811D9A1F112482A393A34485C4
:104E90005585668577854083518362837383089542
:104EA00026893789468D578DAA27429FB12D539F5A
:104EB000C001349FB00D811D9A1F529FB00D811DFE
:104EC0009A1F112480A391A340955095AA27429F31
:104ED000B12D539FC001349FB00D811D9A1F529F69
:104EE000B00D811D9A1F112482A393A34085518583
:104EF00062857385408351836283738308951F9312
:104F0000CF93DF93EC01898D0E945E1D18A5012EC1
:104F100004C096958795779567950A94D2F724E013
:104F2000660F771F881F991F2A95D1F768877987A1
:104F30008A879B878B8D0E945E1D012E04C09695EB
:104F40008795779567950A94D2F734E0660F771FB7
:104F5000881F991F3A95D1F76C877D878E879F8729
:104F60008D8D0E945E1D04C09695879577956795F7
:104F70001A95D2F744E0660F771F881F991F4A954C
:104F8000D1F7688B798B8A8B9B8B69A5CE01DF91DA
:104F9000CF911F9117CF0F931F93FC01808D918D9F
:104FA0008617970721F0718F608F61E001C060E084
:104FB000828D938D8417950719F0538F428F61E08E
:104FC000848995898217930719F0358B248B61E0CA
:104FD000848D958D8017910719F0158F048F02C06D
:104FE000662321F0CF011F910F9189CF1F910F915F
:104FF0000895FC0160A783CF211107C0BB27A92F0B
:10500000982F872FBC01CB010895A72FE82F8F3F42
:10501000E9F08F5F90E0880F991FF0E0EE0FFF1F1F
:10502000E40FF51F20813181FA01E80FF91F80811B
:105030009181821B930B892F9927A89FB001A99F6B
:10504000700D1124620F731FCB0108958EEF91E054
:10505000E4CFFC011482158216821782108211821D
:105060001282138281A58F5F81A7833009F43BC030
:10507000853009F434C0823009F0089526893789D3
:1050800035A324A344895589AA27429FB12D539F54
:10509000C001349FB00D811D9A1F529FB00D811D1C
:1050A0009A1F112480A391A340955095AA27429F4F
:1050B000B12D539FC001349FB00D811D9A1F529F87
:1050C000B00D811D9A1F112482A393A34485558599
:1050D000668577854083518362837383089511A623
:1050E00015A214A2089511A210A28689978993A3EC
:1050F00082A30895CF92DF92EF92FF92CF93DF9336
:10510000EC01CC80DD80EE80FF808F2D9927AA27CF
:10511000BB27892B8A2B8B2B09F042C089A58230B3
:1051200009F433C070F5813009F444C040E050E028
:105130002AA13BA1AA27429FB12D539FC001349FB2
:10514000B00D811D9A1F529FB00D811D9A1F112411
:1051500028A139A1820F931F9DA38CA34881598157
:105160006A817B814C0D5D1D6E1D7F1D4C835D83AF
:105170006E837F83DF91CF91FF90EF90DF90CF9090
:1051800008958330A1F0843089F68EA1811122C068
:10519000BB27AF2D9E2D8D2DAC0140955095C8CFCE
:1051A000CE0157DFCC80DD80EE80FF80B7CF4C8909
:1051B0005D89BECF8EA1811105C077276F2D5E2D31
:1051C0004D2DB6CF40EA53E0C701B6010E949B19AE
:1051D000AC01AECF40EA51E0C701B6010E949B1975
:1051E000DBCF8F929F92AF92BF92CF92DF92EF92DE
:1051F000FF920F931F93CF93DF93EC010C811D81DE
:105200002E813F81832F9927AA27BB27892B8A2BA1
:105210008B2B09F054C04A8D6C857D858E859F85CA
:10522000433009F473C008F02FC0413009F4B7C00F
:10523000EC89FD89060F171F281F391F0C831D835A
:105240002E833F839F01305848895989AA27249F7C
:10525000B12D3503C001529FB00D811D9A1F34033B
:105260009A0BB00D811D9A1F11248E8B9F8BDF919D
:10527000CF911F910F91FF90EF90DF90CF90BF9053
:10528000AF909F908F900895443009F463C04530EB
:1052900009F0CECF6801790149E0F694E794D794FC
:1052A000C7944A95D1F7F601DD8ACC8A498D44230B
:1052B00009F4C0CFE095F095FD8BEC8BBBCFE1E01E
:1052C000898DE81BE98FE11172C0C12CD12C7601C8
:1052D000CC82DD82EE82FF82FF27E1950CF4F0950F
:1052E000DF01AA0FBB1F1196288539854A855B858A
:1052F0000E940D776C877D878E879F874A8D41112D
:105300005CC0FD8BEC8B9701860192CFF12EE22FD2
:105310002F3F09F465C0422F4F5F50E0440F551FE7
:10532000F0E0EE0FFF1FEA58FD4EA081B181FA01B7
:10533000EA58FD4E408151814A1B5B0B452F552792
:10534000F49EF001F59EF00D1124EA0FFB1FFD8B7A
:10535000EC8B70CF4B8942954F7088809980AA80E2
:10536000BB80FB2D880C991CAA1CBB1CEF2FEE1FC9
:10537000EE27EE1FEF2EE294E694A7E0EA22EE2558
:10538000EF27F695EF27E1708E2A415050F788827B
:105390009982AA82BB82F4019D8A8C8A4BCFC12E4E
:1053A000D22EE32EFF24F601DD8ACC8A43CFCC2413
:1053B000CA94DC2CEC2CF12C8BCF423019F09701E5
:1053C00086012ECF0E94C8767D8B6C8B4A8D6C85B2
:1053D0007D858E859F850C811D812E813F8120CF0B
:1053E0004EEF51E09DCFFF920F931F93CF93DF932A
:1053F000EC01F62E1C821D821E821F820E891F89DF
:105400006CA17DA1CB01A0E0B0E0772766279801D1
:1054100040E050E00E944E773F8F2E8FF11023C066
:1054200084E089A719A218A2AA27209FB12D319F35
:10543000C001129FB00D811D9A1F309FB00D811DBC
:105440009A1F11248AA39BA388899989AA89BB8959
:1054500088839983AA83BB83FFA2DF91CF911F9199
:105460000F91FF90089581E089A7CE010E942A360E
:10547000FFA2DF91CF911F910F91FF900895FC0142
:1054800011A210A2268D378D46895789AA27249FFD
:10549000B12D359FC001529FB00D811D9A1F349FC1
:1054A000B00D811D9A1F112482A393A340895189B5
:1054B0006289738940835183628373830895CF9295
:1054C000DF92EF92FF920F931F93CF93DF93809120
:1054D000C710C82FCC0FC80FCF5F6091C6108AE0ED
:1054E00090E10E94F51C6C2F8AE090E10E94651902
:1054F0008091B5109091B610A091B710B091B810EE
:105500008F3F2FEF9207A207B20709F49CC02091AA
:10551000091130910A112115324008F05DC0CFEF1A
:10552000DFEFE0908810F09089100090D21002C058
:10553000F694E7940A94E2F7409101115091021118
:10554000411582E0580708F4ACC09A0132508091AE
:105550000D1190910E1196958795969587958115C9
:1055600042E0940708F472C08C0112508091D4106C
:10557000882309F471C0AE01AA27249FB12D359F5D
:10558000C001529FB00D811D9A1F349FB00D811D27
:105590009A1F11246091FF1070910011AC018AE0F4
:1055A00090E10E947519C801809590958E159F0510
:1055B00008F07AC04FEF5FEF60910B1170910C1102
:1055C00085E290E1DF91CF911F910F91FF90EF90D5
:1055D000DF90CF900C9475192091B9103091BA10CA
:1055E00040E050E0820F931FA41FB51FC090A40994
:1055F000D090A509E090A609F090A709C816D90691
:10560000EA06FB0600F1C090A409D090A509E0903D
:10561000A609F090A709C81AD90AEA0AFB0AC21615
:10562000D306E406F50608F07ACF9E2D8D2D7C2D4D
:1056300066270E944E77F901EE0FFF1FE056FC4FE0
:10564000C081D1816ECFC0E0D0E06BCF00E010E030
:105650008091D41081118FCFC901809590958E15BE
:105660009F0530F54FEF5FEF6091FF1070910011D3
:105670008AE090E10E9475199E01AA27029FB12D30
:10568000139FC001309FB00D811D9A1F129FB00D56
:10569000811D9A1F112460910B1170910C11AC01A6
:1056A0008FCF20E030E053CFA8014E0D5F1D84CF97
:1056B000A9014E0D5F1DD8CF80914E1287FD09C004
:1056C0006F7070E0992787FD90956817790709F04A
:1056D000089580E8289F90011124242B3052220F36
:1056E000331F220F331F30938B1020938A100E9498
:1056F000D1156FEF81E00C94BA5A4F925F926F927E
:105700007F928F929F92AF92BF92CF92DF92EF9251
:10571000FF920F931F93CF93DF9380914912909143
:105720004A129093010180930001C0900401D0902F
:1057300005017C01EC18FD08C80ED91EC0910201BC
:10574000D091030197012C1B3D0B40E050E0812CD0
:10575000912CA12CF0E8BF2EC501B4010E944E7718
:1057600029013A0120930601309307014093080173
:10577000509309018E010095109598012C193D094F
:1057800040E050E0C501B4010E944E7749015A0142
:1057900020930A0130930B0140930C0150930D01AB
:1057A0008091110C9091120C08171907E0F48FEFFB
:1057B0009FE790938B1080938A100E94D1156FEF12
:1057C00081E0DF91CF911F910F91FF90EF90DF90DB
:1057D000CF90BF90AF909F908F907F906F905F9091
:1057E0004F900C94BA5A8C179D07C0F0AC0160E042
:1057F00070E08E159F0530F0C816D90690F080E055
:1058000090E0D7CFCB01BA016C1B7D0B81099109C8
:10581000A30192010E944B729058CBCF80E090E898
:10582000C8CF9A01AB012C193D0941095109C501A5
:10583000B4010E944B7290589058BBCFCF93DF9326
:10584000CDB7DEB728970FB6F894DEBF0FBECDBF39
:1058500092E09D8394E09E8397E09F839CE09887ED
:1058600095E0998393E09A8391E09B831C82823038
:1058700081F134F4882361F0813009F069C013C0EC
:10588000843009F450C0D4F1853009F061C05AC0A9
:10589000440F551F661F771F8091C6108170842B9F
:1058A0008093C61055C08091C8108F7C413051053F
:1058B0006105710521F480618093C81049C04230B0
:1058C00051056105710509F001C080628093C8101F
:1058D0003FC0DB01CA0181709927AA27BB2721E0BD
:1058E00082278093CC1042705527662777277595BD
:1058F0006795579547954093D6102AC0DB01CA019A
:1059000081709927AA27BB2721E082278093CA109C
:105910004270552766277727759567955795479560
:105920004093CB1015C0FE01E40FF51F85818093D5
:10593000D01028960FB6F894DEBF0FBECDBFDF9112
:10594000CF91DBCEFE01E40FF51F81818093D21051
:1059500028960FB6F894DEBF0FBECDBFDF91CF9172
:105960000895BF92CF92DF92EF92FF920F931F9311
:10597000CF93DF93CDB7DEB764970FB6F894DEBF51
:105980000FBECDBF009127118CE0080280011124C9
:1059900000561A4F0E94E218D80112966D917C9120
:1059A0001397CE0101960E94767666ED78E0CE01DF
:1059B00001960E946B76F80180818130D9F020F049
:1059C000823009F05EC029C0E181EE0FFF0BE95281
:1059D000FF4E808191819093221180932111A0E04C
:1059E000B0E080931D1190931E11A0931F11B093EE
:1059F000201147C0E181FF27E7FDF095E354FF4EFA
:105A00008081F801E80FF11DE80FF11D64817581B7
:105A1000CE0101960E946B7634C08AE1EDEBF0E195
:105A2000A2E9B7E101900D928A95E1F7C12CD12C42
:105A30007601B701A601F801818100DF4AE150E05B
:105A40006DEB70E182E997E10E943D76009771F479
:105A5000F8018C2D92E08902E00DF11D1124648182
:105A60007581CE0101960E946B760BC0AFEFCA1A0A
:105A7000DA0AEA0AFA0AB4E0CB16D104E104F10426
:105A8000C1F6CE0101960E94881764960FB6F8946D
:105A9000DEBF0FBECDBFDF91CF911F910F91FF9061
:105AA000EF90DF90CF90BF90089580916A0A909117
:105AB0006B0A892B90916C0A892B90916D0A892B26
:105AC00090916E0A892B90916F0A892B9091700AA0
:105AD000892B9091710A892B9091720A892B909150
