:100000004BC0000042C2000040C200003EC20000DF
:100010003CC200000C94315C38C2000036C20000C3
:1000200034C2000032C200000C94275C0C941D5CAA
:100030002CC200002AC2000028C2000026C2000014
:1000400024C2000022C2000020C200001EC2000024
:100050001CC200000C94FF5C18C2000016C2000015
:1000600014C2000012C2000010C200000EC2000044
:100070000CC200000AC2000008C2000006C2000054
:1000800004C2000002C2000000C20000FEC1000065
:10009000FCC10000FAC1000011241FBECFEFD0E266
:1000A000DEBFCDBF0E9400F0D7C10000076342361B
:1000B000B79BD8A71A39685618AEBAAB558C1D3CF9
:1000C000B7CC5763BD6DEDFD753EF6177231BF00BD
:1000D0000000803F05A84CCDB2D44EB93836A902F5
:1000E0000C50B9918688083CA6AAAA2ABE00000036
:1000F000803F08000000BE922449123EABAAAA2A03
:10010000BECDCCCC4C3E00000080BEABAAAAAA3E1D
:1001100000000000BF000000803F00000000000859
:100120004178D3BB4387D1133D190E3CC3BD4282F6
:10013000AD2B3E68EC8276BED98FE1A93E4C80EFB4
:10014000FFBE01C4FF7F3F0000000000FF004C8A9B
:1001500097509545406BA6D8E4B2282EAE90BF26A6
:10016000B14EE86FD0FBE0709A51862C379845323B
:10017000539D06840D971A8CE61E2E0DB41D401655
:100180009AC591F9F786A142660620AFAE19EE270F
:10019000C2BB0EBAB90AAA95CA45040444C1796A19
:1001A00091EE7D3E2E4C960BA96E5A6A9FF56D0519
:1001B000BB8F808DB4F54FC14AE99E674536394FF4
:1001C00075ADF44CB227A939D78036F7C49C7E6A46
:1001D000605F677992B4DD0E4786CD1A6DC6258AB9
:1001E000F464D953D154DB67F78B22BD5CFEA44D78
:1001F000F9A7590EC57E3BF9BA7D430AD39F6C3BE4
:100200000BDEB2875E3710ECC8A6856546290CF177
:10021000D6BCA38C755E4934200DFAE9D7C7B6A7C2
:10022000988A7C6E6155493D32271D1209FFF6EE12
:10023000E5DDD5CEC6BFB9B2ACA6A09A958F8A85AA
:10024000817C78736F6B6864605D5A56FF59E97DF5
:1002500015B150F39942EE9D4F04BC7632F1B2765F
:100260003B03CC98653405D8AC8259320CE7C4A264
:100270008161432509EDD3B9A089725C46321E0B1A
:10028000F8E6D5C4B4A596887A6D6053473C30260D
:100290001B1108FEF5EDE4DCD4CDC6BFB8B1ABA5AB
:1002A0009F99948F8A85807C77736F6B6763605D9D
:1002B000595653504D4A484543403E3C3A383634EF
:1002C00032302E2D2B2A282725242321201F1E1DC6
:1002D0001C1B1A19181716161514131312111110C6
:1002E0000F0F0E0E0D0D0C0C0B0B0B0A0A09090952
:1002F0000808080807070706060606060505050597
:1003000005040404040404030303030303030302B6
:1003100002020202020202020202010101010101C3
:1003200001010101010101010101010101000000C0
:1003300000000000000000000000000000000000BD
:10034000000000000000000000000000FF0C0B0B8C
:100350000B0A0A090909080808080707070606061C
:100360000606050505050504040404040403030347
:100370000303030303020202020202020202020258
:10038000010101010101010101010101010101015D
:10039000010101000000000000000000000000005A
:1003A000000000000000000000000000000000004D
:1003B000000000000000000000000000000000003D
:1003C000000000000000000000000000000000002D
:1003D000000000000000000000000000000000001D
:1003E000000000000000000000000000000000000D
:1003F00000000000000000000000000000000000FD
:1004000000000000000000000000000000000000EC
:1004100000000000000000000000000000000000DC
:1004200000000000000000000000000000000000CC
:1004300000000000000000000000000000000000BC
:1004400000000000000000000000000011241FBE9A
:10045000CFEFD0E2DEBFCDBF17E1ACE3B9E001C022
:100460001D92AE35B107E1F719E0A0E0B1E0E4E993
:10047000F3ED00E00BBF02C007900D92AC33B10763
:10048000D9F70E94385D0C94C869BACD2F923F927B
:100490004F925F926F927F928F929F92AF92BF9294
:1004A000CF92DF92EF92FF920F931F93CF93DF9340
:1004B00000D000D0CDB7DEB78FE09DE00E94313391
:1004C0000091400D1091410D1C830B832091CC0DA8
:1004D00020FF1BC025FD02C00C940C100B811C8159
:1004E0001A83098324FD13C08091250D9091260D58
:1004F000959587954B815C81480F591F5C834B8391
:1005000021FD07C0C12CD12C08C01A83098321FF0B
:10051000F9CFC090250DD090260D8091EC0D9091D3
:10052000ED0DA0E0B0E09058A109B1097C018091E7
:10053000C80D882311F40C9408108091FE0D909141
:10054000FF0DA0E0B0E09058A109B109B7FF02C0CB
:100550000C946F12B595A795979587955C019FB6FA
:10056000F8948091A609882311F40C94800F87E1F8
:100570009BE00E94BD3220903B0B30903C0B2981C8
:100580003A812901662457FC6094762C4B815C816A
:10059000CA01AA2797FDA095BA2F4091510D5091FD
:1005A000520D840F951FA11DB11DB7FF02C00C9401
:1005B000F00F009751E0A507B10524F08FEF9FEFF2
:1005C000A0E0B0E0AC01452F552746954695F42FA5
:1005D00066EC61BB469AE42FEE0F7E2F7670706852
:1005E0004071552742605E2F550F5072542BE07CAE
:1005F0005E2B4F2F46954270406215B878B95BB9B3
:100600004EB957E851BB9695879596958795482F93
:1006100061BB469AE82FEE0F782F7695441F44274A
:10062000441FFE2FF6704F2B40688071992782601F
:100630009E2F990F9072982BE07C9E2B727015B8AC
:1006400048B99BB97EB951BB00C000C061BB469A96
:1006500091E095B985E488B980ED8BB982EA8EB9CD
:1006600051BB00C000C061BB469A95B997E498B9E8
:1006700090EF9BB98EB951BBB5018101AA27609F4C
:10068000B12D7103C001169FB00D811D9A1F70031B
:100690009A0BB00D811D9A1F1124AA2797FDA095D2
:1006A000BA2F840D951DA61DB71D4091450D509183
:1006B000460D840F951FA11DB11DB7FF02C00C94FC
:1006C0000310009711E0A107B10524F08FEF9FEF11
:1006D000A0E0B0E0AC01452F552746954695F42F94
:1006E000E6ECE1BB469A742F770F672F667060685F
:1006F000407155274260572F550F5072542B707C14
:10070000572B4F2F46954270406215B868B95BB9B8
:100710004EB977E871BBAC0156954795569547950C
:10072000642FE1BB469AA42FAA0FF42FF695661FFB
:100730006627661F8A2F8670682B60684071552770
:1007400042609A2F990F9072942BA07C9A2BF27092
:1007500015B868B99BB9FEB971BB00C000C0E1BB58
:10076000469A81E085B991E498B990ED9BB990EAF9
:100770009EB971BB00C000C0E1BB469A85B987E451
:1007800088B980EF8BB982EA8EB971BBA601662762
:1007900057FD6095762F97018101AA27209FB12DE3
:1007A0003103C001129FB00D811D9A1F30039A0BB7
:1007B000B00D811D9A1F1124AA2797FDA095BA2F6D
:1007C000480F591F6A1F7B1F80915D0D90915E0D30
:1007D000480F591F611D711D77FF02C00C94FE0F59
:1007E0004115510511E06107710524F04FEF5FEFEE
:1007F00060E070E0CA01892F992786958695682F59
:1008000006EC802E81BA469A382F330F232F26709C
:100810002068807199278260932F990F9072982B8E
:10082000307C932B862F86958270806215B828B90C
:100830009BB98EB987E8782E71BA5695479556952B
:100840004795942F81BA469A342F330F242F26953B
:10085000991F9927991F832F8670982B9068407154
:1008600055274260832F880F8072842B307C832B26
:10087000227015B898B98BB92EB971BA00C000C0F2
:1008800081BA469A6624639465B881E488B980EE9B
:100890008BB922EA522E5EB871BA00C000C081BA8C
:1008A000469A65B837E4332E38B840EF442E4BB83B
:1008B0005EB871BA83E19CE00E94BD328091370C32
:1008C0009091380C9C01232F332726952695622F73
:1008D00081BA469A522F550F452F467040682071B5
:1008E00033272260352F330F3072322B507C352B5B
:1008F000262F26952270206215B848B93BB92EB92B
:1009000071BA9695879596958795282F81BA469ABC
:10091000482F440F382F3695221F2227221F542F8D
:100920005670252B2068807199278260942F990F2B
:100930009072982B407C942B327015B828B99BB9D3
:100940003EB971BA00C000C081BA469A65B885E464
:1009500088B980EB8BB980EA8EB971BA00C000C04B
:1009600081BA469A65B838B84BB85EB871BA9FBEBE
:100970009FB6F8948091AF09882311F40C94750FF9
:1009800081E49BE00E94BD322090650B3090660BA5
:1009900049815A812A01662457FC6094762C0B8188
:1009A0001C81C801AA2797FDA095BA2F4091530D2D
:1009B0005091540D840F951FA11DB11DB7FF02C0AA
:1009C0000C94EB0F009711E0A107B10524F08FEF15
:1009D0009FEFA0E0B0E0AC01452F55274695469526
:1009E000F42F66EC61BB469AE42FEE0F7E2F7670F3
:1009F00070684071552742605E2F550F5072542B1E
:100A0000E07C5E2B4F2F46954270406215B878B956
:100A10005BB94EB957E851BB9695879596958795E2
:100A2000482F61BB469AE82FEE0F782F7695441F2A
:100A30004427441FFE2FF6704F2B40688071992782
:100A400082609E2F990F9072982BE07C9E2B727083
:100A500015B848B99BB97EB951BB00C000C061BB95
:100A6000469A41E045B997E498B980ED8BB982EA9E
:100A70008EB951BB00C000C061BB469A45B998B958
:100A800090EF9BB98EB951BB9501A101AA27249F74
:100A9000B12D3503C001529FB00D811D9A1F340343
:100AA0009A0BB00D811D9A1F1124AA2797FDA095BE
:100AB000BA2F840D951DA61DB71D4091470D50916D
:100AC000480D840F951FA11DB11DB7FF02C00C94E6
:100AD000E60F009751E0A507B10524F08FEF9FEFD7
:100AE000A0E0B0E0AC01452F552746954695F42F80
:100AF000E6ECE1BB469A742F770F672F667060684B
:100B0000407155274260572F550F5072542B707CFF
:100B1000572B4F2F46954270406215B868B95BB9A4
:100B20004EB977E871BBAC015695479556954795F8
:100B3000642FE1BB469AA42FAA0FF42FF695661FE7
:100B40006627661F8A2F8670682B6068407155275C
:100B500042609A2F990F9072942BA07C9A2BF2707E
:100B600015B868B99BB9FEB971BB00C000C0E1BB44
:100B7000469A81E085B993E498B990ED9BB990EAE3
:100B80009EB971BB00C000C0E1BB469A85B987E43D
:100B900088B980EF8BB982EA8EB971BBA60166274E
:100BA00057FD6095762F87019101AA27029FB12DED
:100BB0001303C001309FB00D811D9A1F12039A0BC1
:100BC000B00D811D9A1F1124AA2797FDA095BA2F59
:100BD000480F591F6A1F7B1F80915F0D9091600D18
:100BE000480F591F611D711D77FF02C00C94E10F62
:100BF0004115510531E06307710524F04FEF5FEFB8
:100C000060E070E0CA01892F992786958695682F44
:100C100006EC802E81BA469A382F330F232F267088
:100C20002068807199278260932F990F9072982B7A
:100C3000307C932B862F86958270806215B828B9F8
:100C40009BB98EB987E8782E71BA56954795569517
:100C50004795942F81BA469A342F330F242F269527
:100C6000991F9927991F832F8670982B9068407140
:100C700055274260832F880F8072842B307C832B12
:100C8000227015B898B98BB92EB971BA00C000C0DE
:100C900081BA469A6624639465B883E488B980EE85
:100CA0008BB922EA522E5EB871BA00C000C081BA78
:100CB000469A65B837E4432E48B840EF342E3BB827
:100CC0005EB871BA8DE39CE00E94BD328091610CE8
:100CD0009091620C9C01232F332726952695622F35
:100CE00081BA469A522F550F452F467040682071A1
:100CF00033272260352F330F3072322B507C352B47
:100D0000262F26952270206215B848B93BB92EB916
:100D100071BA9695879596958795282F81BA469AA8
:100D2000482F440F382F3695221F2227221F542F79
:100D30005670252B2068807199278260942F990F17
:100D40009072982B407C942B327015B828B99BB9BF
:100D50003EB971BA00C000C081BA469A65B848B8B9
:100D600080EB8BB980EA8EB971BA00C000C081BA3D
:100D7000469A65B848B83BB85EB871BA9FBE9FB690
:100D8000F8948091B809882311F40C946B0F8BE6CA
:100D90009BE00E94BD3220908F0B3090900B098118
:100DA0001A812801662457FC6094762C2B813C81A3
:100DB000C901AA2797FDA095BA2F4091550D5091D2
:100DC000560D840F951FA11DB11DB7FF02C00C94D5
:100DD000DC0F009731E0A307B10524F08FEF9FEF00
:100DE000A0E0B0E0AC01452F552746954695F42F7D
:100DF00066EC61BB469AE42FEE0F7E2F767070682A
:100E00004071552742605E2F550F5072542BE07C85
:100E10005E2B4F2F46954270406215B878B95BB98A
:100E20004EB957E851BB9695879596958795482F6B
:100E300061BB469AE82FEE0F782F7695441F442722
:100E4000441FFE2FF6704F2B4068807199278260F7
:100E50009E2F990F9072982BE07C9E2B727015B884
:100E600048B99BB97EB951BB00C000C061BB469A6E
:100E700081E085B991E498B990EE9BB990EA9EB96A
:100E800051BB00C000C061BB469A85B987E488B9F0
:100E900080EF8BB982EA8EB951BBA501B101AA27B7
:100EA000469FB12D5703C001749FB00D811D9A1F3D
:100EB00056039A0BB00D811D9A1F1124AA2797FD86
:100EC000A095BA2F840D951DA61DB71D4091490D03
:100ED00050914A0D840F951FA11DB11DB7FF02C08F
:100EE0000C94F90F009771E0A707B10524F08FEF7C
:100EF0009FEFA0E0B0E0AC01452F55274695469501
:100F0000F42FE6ECE1BB469A742F770F672F6670DB
:100F10006068407155274260572F550F5072542B0F
:100F2000707C572B4F2F46954270406215B868B9B8
:100F30005BB94EB977E871BBAC01569547955695AC
:100F40004795642FE1BB469AA42FAA0FF42FF6957C
:100F5000661F6627661F8A2F8670682B606840713F
:100F6000552742609A2F990F9072942BA07C9A2B50
:100F7000F27015B868B99BB9FEB971BB00C000C06A
:100F8000E1BB469A81E085B995E498B990ED9BB9AB
:100F900090EA9EB971BB00C000C0E1BB469A85B91A
:100FA00087E488B980EF8BB982EA8EB971BBA6015C
:100FB000662757FD6095762F87019101AA27029F2A
:100FC000B12D1303C001309FB00D811D9A1F120374
:100FD0009A0BB00D811D9A1F1124AA2797FDA09589
:100FE000BA2F480F591F6A1F7B1F8091610D909186
:100FF000620D480F591F611D711D77FF01C0F5C7B4
:101000004115510531E06307710524F04FEF5FEFA3
:1010100060E070E0CA01892F992786958695682F30
:1010200006EC802E81BA469A382F330F232F267074
:101030002068807199278260932F990F9072982B66
:10104000307C932B862F86958270806215B828B9E4
:101050009BB98EB987E8782E71BA56954795569503
:101060004795942F81BA469A342F330F242F269513
:10107000991F9927991F832F8670982B906840712C
:1010800055274260832F880F8072842B307C832BFE
:10109000227015B898B98BB92EB971BA00C000C0CA
:1010A00081BA469A5524539455B885E488B980EEA0
:1010B0008BB922EA622E6EB871BA00C000C081BA44
:1010C000469A55B837E4332E38B840EF442E4BB823
:1010D0006EB871BA87E69CE00E94BD3280918B0C9D
:1010E00090918C0C9C01232F332726952695622FF7
:1010F00081BA469A522F550F452F4670406820718D
:1011000033272260352F330F3072322B507C352B32
:10111000262F26952270206215B848B93BB92EB902
:1011200071BA9695879596958795282F81BA469A94
:10113000482F440F382F3695221F2227221F542F65
:101140005670252B2068807199278260942F990F03
:101150009072982B407C942B327015B828B99BB9AB
:101160003EB971BA00C000C081BA469A55B881E450
:1011700088B980EB8BB96EB871BA00C000C081BA73
:10118000469A55B838B84BB86EB871BA9FBE9FB67C
:10119000F8948091C109882309F493C685E99BE0FE
:1011A0000E94BD322090B90B3090BA0B09811A8190
:1011B0002801662457FC6094762C2B813C81C90160
:1011C000AA2797FDA095BA2F4091570D5091580D21
:1011D000840F951FA11DB11DB7FDEAC6009731E030
:1011E000A307B10524F08FEF9FEFA0E0B0E0AC01C2
:1011F000452F552746954695F42F66EC61BB469AD8
:10120000E42FEE0F7E2F7670706840715527426094
:101210005E2F550F5072542BE07C5E2B4F2F46955E
:101220004270406215B878B95BB94EB957E851BB06
:101230009695879596958795482F61BB469AE82F96
:10124000EE0F782F7695441F4427441FFE2FF6702B
:101250004F2B40688071992782609E2F990F907262
:10126000982BE07C9E2B727015B848B99BB97EB95B
:1012700051BB00C000C061BB469A81E085B993E4D0
:1012800098B990EE9BB990EA9EB951BB00C000C0DE
:1012900061BB469A85B987E488B980EF8BB982EA49
:1012A0008EB951BBA501B101AA27469FB12D5703A5
:1012B000C001749FB00D811D9A1F56039A0BB00D8B
:1012C000811D9A1F1124AA2797FDA095BA2F840D7E
:1012D000951DA61DB71D40914B0D50914C0D840FCF
:1012E000951FA11DB11DB7FD4FC6009771E0A7075F
:1012F000B10524F08FEF9FEFA0E0B0E0AC01452FE7
:10130000552746954695F42FE6ECE1BB469A742F97
:10131000770F672F66706068407155274260572FBE
:10132000550F5072542B707C572B4F2F469542709F
:10133000406215B868B95BB94EB977E871BBAC01CA
:101340005695479556954795642FE1BB469AA42F2D
:10135000AA0FF42FF695661F6627661F8A2F8670E0
:10136000682B60684071552742609A2F990F9072E0
:10137000942BA07C9A2BF27015B868B99BB9FEB972
:1013800071BB00C000C0E1BB469A91E095B987E40B
:1013900088B940ED4BB940EA4EB971BB00C000C0FE
:1013A000E1BB469A95B988B980EF8BB982EA8EB9CC
:1013B00071BBA601662757FD6095762F87019101C5
:1013C000AA27029FB12D1303C001309FB00D811DCC
:1013D0009A1F12039A0BB00D811D9A1F1124AA2780
:1013E00097FDA095BA2F480F591F6A1F7B1F809148
:1013F000630D9091640D480F591F611D711D77FD9C
:10140000BFC54115510531E06307710524F04FEF69
:101410005FEF60E070E0CA01892F99278695869575
:10142000682F06EC702E71BA469A382F330F232F8F
:1014300026702068807199278260932F990F90728F
:10144000982B307C932B862F86958270806215B8FE
:1014500028B99BB98EB987E8682E61BA5695479529
:1014600056954795942F71BA469A342F330F242FEF
:101470002695991F9927991F832F8670982B90681E
:10148000407155274260832F880F8072842B307CF7
:10149000832B227015B898B98BB92EB961BA00C0E8
:1014A00000C071BA469A4424439445B827E4822E7A
:1014B00088B880EE8BB932EA532E5EB861BA00C0AC
:1014C00000C071BA469A45B888B840EF342E3BB890
:1014D0005EB861BA81E99CE00E94BD328091B50C92
:1014E0009091B60C9C01232F332726952695622FC9
:1014F00071BA469A522F550F452F46704068207199
:1015000033272260352F330F3072322B507C352B2E
:10151000262F26952270206215B848B93BB92EB9FE
:1015200061BA9695879596958795282F71BA469AB0
:10153000482F440F382F3695221F2227221F542F61
:101540005670252B2068807199278260942F990FFF
:101550009072982B407C942B327015B828B99BB9A7
:101560003EB961BA00C000C071BA469A45B883E47A
:1015700088B980EB8BB95EB861BA00C000C071BA9F
:10158000469A45B888B83BB85EB861BA9FBE9FB668
:10159000F8948091CA09882309F489C48FEB9BE0F1
:1015A0000E94BD322090E30B3090E40B09811A8138
:1015B0002801662457FC6094762C2B813C81C9015C
:1015C000AA2797FDA095BA2F4091590D50915A0D19
:1015D000840F951FA11DB11DB7FDCEC4009731E04A
:1015E000A307B10524F08FEF9FEFA0E0B0E0AC01BE
:1015F000452F552746954695F42F66EC61BB469AD4
:10160000E42FEE0F7E2F7670706840715527426090
:101610005E2F550F5072542BE07C5E2B4F2F46955A
:101620004270406215B878B95BB94EB957E851BB02
:101630009695879596958795482F61BB469AE82F92
:10164000EE0F782F7695441F4427441FFE2FF67027
:101650004F2B40688071992782609E2F990F90725E
:10166000982BE07C9E2B727015B848B99BB97EB957
:1016700051BB00C000C061BB469A81E085B995E4CA
:1016800098B990EE9BB990EA9EB951BB00C000C0DA
:1016900061BB469A85B987E488B980EF8BB982EA45
:1016A0008EB951BBA501B101AA27469FB12D5703A1
:1016B000C001749FB00D811D9A1F56039A0BB00D87
:1016C000811D9A1F1124AA2797FDA095BA2F840D7A
:1016D000951DA61DB71D40914D0D50914E0D840FC7
:1016E000951FA11DB11DB7FD57C4009771E0A70755
:1016F000B10524F08FEF9FEFA0E0B0E0AC01452FE3
:10170000552746954695F42FE6ECE1BB469A742F93
:10171000770F672F66706068407155274260572FBA
:10172000550F5072542B707C572B4F2F469542709B
:10173000406215B868B95BB94EB977E871BBAC01C6
:101740005695479556954795642FE1BB469AA42F29
:10175000AA0FF42FF695661F6627661F8A2F8670DC
:10176000682B60684071552742609A2F990F9072DC
:10177000942BA07C9A2BF27015B868B99BB9FEB96E
:1017800071BB00C000C0E1BB469A91E095B981E40D
:1017900088B980ED8BB982EA8EB971BB00C000C0F8
:1017A000E1BB469A95B997E498B990EF9BB98EB989
:1017B00071BBA601662757FD6095762F87019101C1
:1017C000AA27029FB12D1303C001309FB00D811DC8
:1017D0009A1F12039A0BB00D811D9A1F1124AA277C
:1017E00097FDA095BA2F480F591F6A1F7B1F809144
:1017F000650D9091660D480F591F611D711D77FD94
:10180000C7C34115510531E06307710524F04FEF5F
:101810005FEF60E070E0CA01892F99278695869571
:10182000782F36EC31BB469A682F660F262F26702C
:101830002068807199278260962F990F9072982B5B
:10184000607C962B872F86958270806215B828B9A8
:101850009BB98EB927E821BB569547955695479574
:10186000942F31BB469A742F770F642F6695991F7A
:101870009927991F872F8670982B9068407155275C
:101880004260872F880F8072842B707C872B627058
:1018900015B898B98BB96EB921BB00C000C031BB77
:1018A000469A81E085B991E498B990EB9BB990EAAA
:1018B0009EB921BB00C000C031BB469A85B987E400
:1018C00088B980EF8BB982EA8EB921BB4090BF0CFA
:1018D0005090C00C6090C10C7090C20C872D99275D
:1018E000AA27BB27892B8A2B8B2B09F025C3809134
:1018F000E40C823009F414C308F00DC3813009F4FC
:101900002DC360E070E04091DD0C5091DE0CAA2701
:10191000649FB12D759F9001569FB00D211D3A1FF8
:10192000749FB00D211D3A1F11248091DB0C909102
:10193000DC0C280F391F3093E00C2093DF0C8091D2
:10194000BB0C9091BC0CA091BD0CB091BE0C840D51
:10195000951DA61DB71D8093BF0C9093C00CA0933E
:10196000C10CB093C20CC901892F99278695869521
:10197000782F56EC51BB469A682F660F462F46705B
:101980004068807199278260962F990F9072982BEA
:10199000607C962B872F86958270806215B848B937
:1019A0009BB98EB947E841BB369527953695279563
:1019B000922F51BB469A722F770F622F6695991F0F
:1019C0009927991F872F8670982B9068207133274D
:1019D0002260872F880F8072822B707C872B627029
:1019E00015B898B98BB96EB941BB00C000C051BBE6
:1019F000469A91E095B985E488B980EB8BB982EA83
:101A00008EB941BB00C000C051BB469A95B997E45E
:101A100098B990EF9BB98EB941BB9FBE9FB6F89421
:101A20008091D309882309F438C289EE9BE00E9493
:101A3000BD3220910D0C30910E0C09811A812801C4
:101A4000662457FC6094762C4B815C81CA01AA27DE
:101A500097FDA095BA2F40915B0D50915C0D840FBE
:101A6000951FA11DB11DB7FD83C2009751E0A507C9
:101A7000B10524F08FEF9FEFA0E0B0E0AC01452F5F
:101A8000552746954695F42F66EC61BB469AE42FA0
:101A9000EE0F7E2F767070684071552742605E2F82
:101AA000550F5072542BE07C5E2B4F2F46954270A1
:101AB000406215B878B95BB94EB957E851BB9695F5
:101AC000879596958795482F61BB469AE82FEE0F2C
:101AD000782F7695441F4427441FFE2FF6704F2B16
:101AE00040688071992782609E2F990F9072982B81
:101AF000E07C9E2B727015B848B99BB97EB951BB7A
:101B000000C000C061BB469A91E095B987E488B9EE
:101B100040EE4BB940EA4EB951BB00C000C061BBBA
:101B2000469A95B988B980EF8BB982EA8EB951BBD4
:101B3000B501AA27629FB12D7303C001369FB00D76
:101B4000811D9A1F72039A0BB00D811D9A1F1124DB
:101B5000AA2797FDA095BA2F840D951DA61DB71D28
:101B600040914F0D5091500D840F951FA11DB11D37
:101B7000B7FD1AC2009771E0A707B10524F08FEFF7
:101B80009FEFA0E0B0E0AC01452F55274695469564
:101B9000F42F66EC61BB469AE42FEE0F7E2F767031
:101BA00070684071552742605E2F550F5072542B5C
:101BB000E07C5E2B4F2F46954270406215B878B995
:101BC0005BB94EB957E851BB969587959695879521
:101BD000482F61BB469AE82FEE0F782F7695441F69
:101BE0004427441FFE2FF6704F2B406880719927C1
:101BF00082609E2F990F9072982BE07C9E2B7270C2
:101C000015B848B99BB97EB951BB00C000C061BBD3
:101C1000469A91E095B983E488B980ED8BB982EA60
:101C20008EB951BB00C000C061BB469A95B997E41C
:101C300098B990EF9BB98EB951BBA601662757FDA5
:101C40006095762F8701AA27029FB12D1303C0014B
:101C5000309FB00D811D9A1F12039A0BB00D811D8C
:101C60009A1F1124AA2797FDA095BA2F480F591F34
:101C70006A1F7B1F8091670D9091680D480F591F57
:101C8000611D711D77FD8CC14115510511E0610782
:101C9000710524F04FEF5FEF60E070E0CA01892F1B
:101CA000992786958695682F36ECB32EB1BA469A59
:101CB000382F330F232F2670206880719927826078
:101CC000932F990F9072982B307C932B862F8695AB
:101CD0008270806215B828B99BB98EB967E8C62EA4
:101CE000C1BA5695479556954795942FB1BA469ADD
:101CF000342F330F242F2695991F9927991F832F4F
:101D00008670982B9068407155274260832F880F0A
:101D10008072842B307C832B227015B898B98BB9D4
:101D20002EB9C1BA00C000C0B1BA469A11E015B9C7
:101D300083E488B9E0EBDE2EDBB880EA8EB9C1BA65
:101D400000C000C0B1BA469A15B9F7E4FF2EF8B842
:101D5000A0EFEA2EEBB802EA0EB9C1BA85EE9CE01C
:101D60000E94BD328091090D90910A0D9C01232F94
:101D7000332726952695622FB1BA469A522F550FD2
:101D8000452F46704068207133272260352F330F6E
:101D90003072322B507C352B262F269522702062F4
:101DA00015B848B93BB92EB9C1BA9695879596959D
:101DB0008795282FB1BA469A482F440F382F369569
:101DC000221F2227221F542F5670252B2068807136
:101DD00099278260942F990F9072982B407C942BB6
:101DE000327015B828B99BB93EB9C1BA00C000C05D
:101DF000B1BA469A15B9F8B8DBB80EB9C1BA00C085
:101E000000C0B1BA469A15B9F8B8EBB80EB9C1BA64
:101E10009FBE90913C09292F2C7111E009F010E030
:101E20009370923009F414C1933009F451C3913086
:101E300009F418C1111158C30E945C498091130B19
:101E40009091140BA091150BB091160B0196A11D4A
:101E5000B11D8093130B9093140BA093150BB093AB
:101E6000160B80913C098F5F80933C090F900F9077
:101E70000F900F90DF91CF911F910F91FF90EF90F6
:101E8000DF90CF90BF90AF909F908F907F906F909A
:101E90005F904F903F902F90089525E32A95F1F79A
:101EA000000060E070E087E10E94B034B1CF45E30C
:101EB0004A95F1F7000060E070E086E10E94B034DE
:101EC000ACCD45E34A95F1F7000060E070E085E1B4
:101ED0000E94B0345BCB45E34A95F1F7000060E027
:101EE00070E084E10E94B03451C945E34A95F1F7AE
:101EF000000060E070E083E10E94B0340C94BE0604
:101F000025E32A95F1F7000060E070E082E10E948D
:101F1000B0340C94B7048330E1F0843009F0F1CC94
:101F20008091E10C81118CC0BB27A72D962D852DAA
:101F3000BC0160957095E7CC8BEB9CE00E940F375D
:101F40004090BF0C5090C00C6090C10C7090C20CBF
:101F5000CECC6091CF0C7091D00CD5CC8091E10C9F
:101F6000811166C0BB27A72D962D852DBC01CBCC3A
:101F700080E090E0DC0179CD80E090E0DC012ECBC8
:101F800040E050E0BA013DCA80E090E0DC01ADC91C
:101F900040E050E0BA0135CC80E090E0DC01A5CB18
:101FA00040E050E0BA0170CE80E090E0DC01E2CD8C
:101FB00080E090E0DC0112C980E090E0DC010C944C
:101FC000E90640E050E0BA010C94F80580E090E0AA
:101FD000DC010C94690580E090E0DC010C94E204E3
:101FE00080E090E0DC010C94D90240E050E0BA01BE
:101FF00007C880E090E0DC010C94720740E050E0FC
:10200000BA010C94F00380E090E0DC010C946103D1
:10201000A12CB12C0C94AF024091250D5091260DAE
:1020200055954795400F511F5A8349830C9472026E
:10203000F301EE0FFF1FEC57FC4F6081718163CC01
:10204000F301EE0FFF1FEC57FE4F6081718171CFDE
:102050008AE29DE00E9431338091CC0D88700E940D
:102060005927FFCE0E94BC558091670A882361F1F1
:1020700080914E0F882309F455C38091C00D8823A9
:1020800019F181508093C00D8091620A9091630A8A
:1020900001969093630A8093620A2091640A3091BA
:1020A000650A8217930780F01092630A1092620A01
:1020B000EFEDF9E004C03AE0EF35F30729F0819144
:1020C0008F3FC9F30E94C7518091B90D882309F44D
:1020D000C8CE8091B70D9091B80D4091690D509187
:1020E0006A0D2091450D3091460D2417350708F4EF
:1020F000E9C24217530770F4B901641B750BAB01B9
:102100008617970708F4AC01241B350B3093460D56
:102110002093450D4091750D5091760D2091510DF4
:102120003091520D2417350708F4C0C242175307E7
:1021300070F4F901E41BF50BAF018E179F0708F44B
:10214000AC01241B350B3093520D2093510D40915F
:10215000810D5091820D20915D0D30915E0D2417FF
:10216000350708F497C24217530770F48901041B1E
:10217000150BA8018017910708F4AC01241B350B3F
:1021800030935E0D20935D0D40916B0D50916C0D61
:102190002091470D3091480D2417350708F46EC281
:1021A0004217530770F4B901641B750BAB01861716
:1021B000970708F4AC01241B350B3093480D20938E
:1021C000470D4091770D5091780D2091530D30912E
:1021D000540D2417350708F444C24217530770F40E
:1021E000F901E41BF50BAF018E179F0708F4AC0152
:1021F000241B350B3093540D2093530D4091830DC8
:102200005091840D20915F0D3091600D241735079A
:1022100008F41AC24217530770F48901041B150B06
:10222000A8018017910708F4AC01241B350B3093EB
:10223000600D20935F0D40916D0D50916E0D2091BA
:10224000490D30914A0D2417350708F4F0C14217A3
:10225000530770F4B901641B750BAB018617970720
:1022600008F4AC01241B350B30934A0D2093490D23
:102270004091790D50917A0D2091550D3091560D68
:102280002417350708F4C6C14217530770F4F90143
:10229000E41BF50BAF018E179F0708F4AC01241B5C
:1022A000350B3093560D2093550D4091850D50916F
:1022B000860D2091610D3091620D2417350708F4C9
:1022C0009CC14217530770F48901041B150BA80128
:1022D0008017910708F4AC01241B350B3093620D75
:1022E0002093610D40916F0D5091700D20914B0D19
:1022F00030914C0D2417350708F472C1421753076B
:1023000070F4B901641B750BAB018617970708F4CD
:10231000AC01241B350B30934C0D20934B0D409199
:102320007B0D50917C0D2091570D3091580D241745
:10233000350708F448C14217530770F4F901E41B4C
:10234000F50BAF018E179F0708F4AC01241B350B6A
:102350003093580D2093570D4091870D5091880D63
:102360002091630D3091640D2417350708F41EC1C8
:102370004217530770F48901041B150BA80180173D
:10238000910708F4AC01241B350B3093640D2093A6
:10239000630D4091710D5091720D20914D0D309152
:1023A0004E0D2417350708F4F4C04217530770F494
:1023B000B901641B750BAB018617970708F4AC01D4
:1023C000241B350B30934E0D20934D0D40917D0D08
:1023D00050917E0D2091590D30915A0D24173507DB
:1023E00008F4CAC04217530770F4F901E41BF50B57
:1023F000AF018E179F0708F4AC01241B350B3093F7
:102400005A0D2093590D4091890D50918A0D2091BC
:10241000650D3091660D2417350708F4A0C04217EA
:10242000530770F48901041B150BA801801791074D
:1024300008F4AC01241B350B3093660D2093650D19
:102440004091730D5091740D20914F0D3091500DAE
:102450002417350708F070C0421B530B84179507EB
:1024600008F45EC1420F531F5093500D40934F0D1F
:1024700040917F0D5091800D20915B0D30915C0D4E
:102480002417350708F046C0421B530B84179507E5
:1024900008F444C1420F531F50935C0D40935B0DF1
:1024A00040918B0D50918C0D2091670D3091680DEE
:1024B00024173507E0F4421B530B8417950708F4E3
:1024C0002BC1420F531F5093680D4093670DC9CC29
:1024D000812F0E941750812F0E94E32AC2CC0196BF
:1024E000A11DB11D0C94AA020E940D21A5CC42177A
:1024F000530708F0B6CC8901041B150BA8018017FF
:10250000910708F4AC01241B350B3093680D209320
:10251000670DA7CC4217530718F6F901E41BF50B1A
:10252000AF018E179F0708F4AC01241B350B3093C5
:102530005C0D20935B0DB4CF4217530708F098CF82
:10254000B901641B750BAB018617970708F4AC0142
:10255000241B350B3093500D20934F0D89CF421B18
:10256000530B8417950708F4D5C0420F531F50939F
:10257000660D4093650D64CF421B530B841795077E
:1025800008F4C6C0420F531F50935A0D4093590D83
:102590003ACF421B530B8417950708F4B7C0420F7C
:1025A000531F50934E0D40934D0D10CF421B530BB4
:1025B0008417950708F4A8C0420F531F5093640D69
:1025C0004093630DE6CE421B530B8417950708F426
:1025D00099C0420F531F5093580D4093570DBCCED6
:1025E000421B530B8417950708F48AC0420F531FF0
:1025F00050934C0D40934B0D92CE421B530B8417BE
:10260000950708F47BC0420F531F5093620D40930F
:10261000610D68CE421B530B8417950708F46CC0FC
:10262000420F531F5093560D4093550D3ECE421B03
:10263000530B8417950708F45DC0420F531F509346
:102640004A0D4093490D14CE421B530B8417950736
:1026500008F44EC0420F531F5093600D40935F0D1E
:10266000EACD421B530B8417950708F43FC0420F75
:10267000531F5093540D4093530DC0CD421B530B29
:102680008417950788F1420F531F5093480D4093CC
:10269000470D97CD421B530B8417950718F1420F36
:1026A000531F50935E0D40935D0D6ECD421B530B37
:1026B00084179507A8F0420F531F5093520D409373
:1026C000510D45CD421B530B8417950738F0420F2F
:1026D000531F5093460D4093450D1CCDAC01F7CFD1
:1026E000AC01E9CFAC01DBCFAC01CDCFAC01BFCFAA
:1026F000AC01B0CFAC01A1CFAC0192CFAC0183CF84
:10270000AC0174CFAC0165CFAC0156CFAC0147CF63
:10271000AC0138CFAC0129CFAC01D3CEAC01BACEDD
:10272000AC01A0CE8091C00D882309F4ADCCA9CC1A
:10273000EF92FF920F931F93CF93DF93F82EE62E25
:10274000ABEA8A9FA12D1124A695A695A6951A2FCE
:102750001F5F50E0A83008F06AC08A2F90E0880F11
:10276000991FFC01EE0FFF1FEE0FFF1FEE0FFF1F63
:10277000E80FF91FE40FF51FEE0FFF1FEA5DF14FA1
:10278000C081D181183008F476C0FA01EE0FFF1F26
:10279000EE5DF04F0190F081E02DDA01AA0FBB1F32
:1027A000A250B14F8D919C919F01281B390BA12FF5
:1027B000B0E017970E94E7646E0F7F1F811D911D87
:1027C0006115710521E08207910508F06AC08B014F
:1027D0000C1B1D0B3E2D20E09BEAF99E912D112430
:1027E000969596959695892F880F890F880F880F53
:1027F0006F2D681B862F90E0A0E0B0E0772766275A
:10280000620F731F811D911D2CE030E040E050E00D
:102810000E94A669D8010E946F69C80FD91FCE0116
:10282000DF91CF911F910F91FF90EF900895FA01E2
:10283000EE0FFF1FEE5DF04F0190F081E02DEA01F9
:10284000CC0FDD1FC250D14F888199819F01281B79
:10285000390BB0E017970E94E7646E0F7F1F811D50
:10286000911D6115710521E082079105F8F4EB01D6
:10287000183008F08ACF812F90E0880F991FFC0153
:10288000EE0FFF1FEE0FFF1FEE0FFF1FE80FF91FE8
:10289000E40FF51FEE0FFF1FEA5DF14F60817181BC
:1028A00096CF6FEF7FEF80E090E091CF6FEF7FEFFB
:1028B00080E090E0EB01DCCFE82FF0E0EE0FFF1FAF
:1028C000EA5DF14F8081918108958038910538F457
:1028D000FC01E050FF4F208130E0C90108952FEF47
:1028E0003FEFFBCFCF93DF93CEE6D4E1E881F981D0
:1028F00085EA96E1A1E6B0E081939193A193B1932B
:10290000F983E883DF91CF91089580914E0F813054
:1029100009F00895683F59F06A3FD9F78FEF9FE7B4
:102920009093630A8093620A1092C00D089580917B
:10293000C00D8F5F8093C00D0895AEE6B4E1ED91B8
:10294000FC9111978191ED93FC930895AEE6B4E16B
:10295000ED91FC9111978191ED93FC930895AEE672
:10296000B4E1ED91FC911197808191813296ED93C4
:10297000FC930895AEE6B4E1ED91FC91119760816E
:102980007181828193813496ED93FC930895E82FB1
:10299000E695E695E695F0E0E257F64F90819923AB
:1029A00051F08770E82FF0E0EE5DF84F2081292389
:1029B00081E009F0089580E00895FC01A18DBB2716
:1029C000A1950CF4B095AA0FBB1F119620853185F7
:1029D000428553850E9479696487758786879787C2
:1029E0000895CF92DF92EF92FF92CF93603E7105F0
:1029F00081059105F8F4DC01CB019F5FAF4FBF4F1C
:102A0000CC24D82EE92EFA2EA0E0B0E020E030E071
:102A1000EBBEF601C791A40FB51FCC932F5F3F4FBC
:102A2000D9018FEFC81AD80AE80AF80A211581E0FF
:102A3000380771F7CF91FF90EF90DF90CF90089516
:102A4000CF93DF93BC0180E090E04EE652E1C9DF16
:102A5000CEE6D2E1D0936F14C0936E14109270142E
:102A600089DF653A76418146910549F080E092E040
:102A7000FE019C01119221503040E1F703C066DF56
:102A800080937014DF91CF910895AF92BF92CF924F
:102A9000DF92EF92FF920F931F93CF93DF935C012E
:102AA000C12CD12C7601C0E0D0E0062F10E00EC082
:102AB000A60142595D4EBE016A0D7B1D80E090E08B
:102AC00090DF21962FEFD21AE20AF20AC017D1073F
:102AD00078F3CEE6D2E1D0936F14C0936E141092C7
:102AE000701448DF653A76418146910549F080E0EF
:102AF00092E0FE019C01119221503040E1F703C0A9
:102B000025DF80937014DF91CF911F910F91FF907B
:102B1000EF90DF90CF90BF90AF9008952F923F92AB
:102B20004F925F926F927F928F929F92AF92BF92DD
:102B3000CF92DF92EF92FF920F931F93CF93DF9389
:102B4000CDB7DEB765970FB6F894DEBF0FBECDBF29
:102B5000A62E882309F496C0A091E60DB091E70D4A
:102B60002090E80D3090E90D4091DA0D5091DB0D89
:102B70002091E00D3091E10D8090120E9090130E97
:102B8000E091AA0AF091AB0A6090CD0D6091D70D4B
:102B9000F093570FE093560FB093590FA093580F2F
:102BA00030925B0F20925A0F50935D0F40935C0F51
:102BB00030935F0F20935E0F9092610F8092600FB1
:102BC0006092620F6093630FCF01880F892F881F77
:102BD000990B91958C011A951E830D83AA0FAB2F2B
:102BE000AA1FBB0BB1958D011A95412C512C720176
:102BF0006101CC0CDD1CEE1CFF1CCC0CDD1CEE1CA2
:102C0000FF1CC20CD31CE41CF51C93E0F694E79463
:102C1000D794C7949A95D1F7569547955695479569
:102C20003695279536952795DB8AB52E732ED701D5
:102C3000C6019927AA27BB278F87988BA98BBA8BA8
:102C4000662309F444C0623008F434C42BEA529F6E
:102C5000312D1124369536953695B32EBB0CB30E17
:102C6000BB0CBB0C729E212D112426952695269512
:102C7000722E770C720E770C770C1C861B861A86C8
:102C800019862DC0E091AA0AF091AB0A8091560FE7
:102C90009091570FA091E60DB091E70D8E179F0709
:102CA00009F4E3C32090E80D3090E90D4091DA0D6E
:102CB0005091DB0D2091E00D3091E10D8090120ECE
:102CC0009090130E6090CD0D6091D70D61CFDA0119
:102CD000BB27BA87A987F901FF27FC87EB872091DB
:102CE000D20D2D87292D33273D8B2C8B3091B90D9B
:102CF0003E87A7FCD8C0AA2009F4D5C0A7FC24C3EE
:102D000021E0A21609F420C3A7FC8DC222E0A2167E
:102D100009F489C2A7FCF6C123E0A21609F4F2C1A6
:102D2000A7FC60C154E0A51609F45CC1A7FC1CC057
:102D300085E0A816C9F065960FB6F894DEBF0FBE01
:102D4000CDBFDF91CF911F910F91FF90EF90DF905A
:102D5000CF90BF90AF909F908F907F906F905F903B
:102D60004F903F902F9008958091D309882319F3B5
:102D7000F090D2092D813E81442737FD4095542F94
:102D80002D833E834F83588720909B0D30909C0D60
:102D9000442437FC4094542C220E331E441E551EEE
:102DA00045E069858B2D8F0DC3DC280E391E411C33
:102DB000511C57FC9AC52114310431E043065104DB
:102DC0000CF08BC38090A70D9090A80DAA2497FCBF
:102DD000A094BA2C2D813E814F815885820E931E7E
:102DE000A41EB51EC801AA2797FDA095BA2F880E6C
:102DF000991EAA1EBB1E4BE06B85872D8F0D98DC9C
:102E0000880E991EA11CB11CB7FC67C581149104E2
:102E100031E0A306B1040CF066C35D855111CAC34D
:102E2000662009F4D9C48F2D90E022E030E0261905
:102E3000310902C0959587952A95E2F73B89830F62
:102E40000091B30D1091B40D41E16F8571DCA801C3
:102E5000662757FD6095762F480F591F611D711D1C
:102E600077FDB2C54115510581E06807710524F071
:102E70004FEF5FEF60E070E00E85002309F4AEC411
:102E80003092740D2092730D9092800D80927F0D80
:102E900050938C0D40938B0D61104DCF5093680D66
:102EA0004093670D48CF8091A609882309F426CF67
:102EB0009090A5092D813E81442737FD4095542FE0
:102EC00029833A834B835C832090910D3090920D3F
:102ED0006101EE24D7FCE094FE2CC20ED31EE41E4A
:102EE000F51E40E069858B2D890D22DCC80ED91EA8
:102EF000E11CF11CF7FCF5C4C114D10431E0E30678
:102F0000F1040CF008C320909D0D30909E0D4424D8
:102F100037FC4094542C29813A814B815C81220EEC
:102F2000331E441E551EC801AA2797FDA095BA2F2F
:102F3000280E391E4A1E5B1E46E06B85872D890DC3
:102F4000F7DBA2019101280F391F411D511DDA0144
:102F5000C90157FDA2C4009731E0A307B1050CF0E9
:102F6000D2C25D85511180C376016C01662009F4DF
:102F700080C4892D90E022E030E02619310902C09A
:102F8000959587952A95E2F73B89830F8090A90D47
:102F90009090AA0D4CE06F85CBDBA401662757FD0E
:102FA0006095762F480F591F611D711D77FD1CC557
:102FB0004115510581E06807710524F04FEF5FEF7F
:102FC00060E070E02E85211112C4F092460DE0926F
:102FD000450DD092520DC092510D50935E0D40930D
:102FE0005D0D8CCE8091CA09882309F49FCE909004
:102FF000C9092D813E81442737FD4095542F2983EF
:103000003A834B835C832090990D30909A0D442431
:1030100037FC4094542C220E331E441E551E44E0AF
:1030200069858B2D890D84DB280E391E411C511CAE
:1030300057FC3FC42114310431E0430651040CF025
:103040005CC2C090A50DD090A60DEE24D7FCE094F4
:10305000FE2C29813A814B815C81C20ED31EE41E75
:10306000F51EC801AA2797FDA095BA2FC80ED91E34
:10307000EA1EFB1E4AE06B85872D890D59DBB701DF
:10308000A601480F591F611D711D77FD0EC4411522
:10309000510531E0630771050CF05FC22D852111E8
:1030A000BBC271016A016110E6C38B898090B10DCA
:1030B0009090B20D40E16F853BDBA401662757FD80
:1030C0006095762F480F591F611D711D77FD90C4C3
:1030D0004115510531E06307710524F04FEF5FEFB3
:1030E00060E070E02E85211195C3F0924E0DE092C4
:1030F0004D0DD0925A0DC092590D5093660D4093CC
:10310000650D14CE8091C109882309F409CE9090F1
:10311000C0092D813E81442737FD4095542F2983D6
:103120003A834B835C832090970D3090980D61011A
:10313000EE24D7FCE094FE2CC20ED31EE41EF51E36
:1031400043E069858B2D890DF3DAC80ED91EE11C89
:10315000F11CF7FCBEC3C114D10431E0E306F10455
:103160000CF0F5C12090A30D3090A40D442437FC41
:103170004094542C29813A814B815C81220E331E6C
:10318000441E551EC801AA2797FDA095BA2F280EE8
:10319000391E4A1E5B1E49E06B85872D890DC8DAF2
:1031A000B201A101480F591F611D711D77FD8DC32B
:1031B0004115510531E0630771050CF0C0C12D8543
:1031C000211178C276016A01611045C38B89809014
:1031D000AF0D9090B00D4FE06F85AADAA40166277D
:1031E00057FD6095762F480F591F611D711D77FDA2
:1031F000F7C34115510531E06307710524F04FEF26
:103200005FEF60E070E02E8521119FC2F0924C0DBF
:10321000E0924B0DD092580DC092570D5093640D13
:103220004093630D7DCD8091B809882309F472CD58
:103230009090B7092D813E81442737FD4095542F4A
:1032400029833A834B835C832090950D3090960DB3
:103250006101EE24D7FCE094FE2CC20ED31EE41EC6
:10326000F51E42E069858B2D890D62DAC80ED91EE4
:10327000E11CF11CF7FC25C3C114D10431E0E306C5
:10328000F1040CF056C12090A10D3090A20D442401
:1032900037FC4094542C29813A814B815C81220E69
:1032A000331E441E551EC801AA2797FDA095BA2FAC
:1032B000280E391E4A1E5B1E48E06B85872D890D3E
:1032C00037DAB201A101480F591F611D711D77FD49
:1032D000F4C24115510531E0630771050CF021C1BD
:1032E0002D8521110EC276016A016110A6C28B895B
:1032F0008090AD0D9090AE0D4EE06F8519DAA4016F
:10330000662757FD6095762F480F591F611D711D67
:1033100077FD62C34115510531E06307710524F063
:103320004FEF5FEF60E070E02E85211142C2F09216
:103330004A0DE092490DD092560DC092550D509312
:10334000620D4093610DE6CC8091AF09882309F4AA
:10335000DBCC9090AE092D813E81442737FD40950E
:10336000542F29833A834B835C832090930D3090B4
:10337000940D6101EE24D7FCE094FE2CC20ED31E06
:10338000E41EF51E41E069858B2D890DD1D9C80E4B
:10339000D91EE11CF11CF7FC84C2C114D10431E038
:1033A000E306F1040CF093C020909F0D3090A00D27
:1033B000442437FC4094542C29813A814B815C8110
:1033C000220E331E441E551EC801AA2797FDA09544
:1033D000BA2F280E391E4A1E5B1E47E06B85872DCB
:1033E000890DA6D9B201A101480F591F611D711D98
:1033F00077FD4FC24115510531E0630771050CF0AF
:103400005EC02D852111B1C076016A016110C3C172
:103410008B898090AB0D9090AC0D4DE06F8588D975
:10342000A401662757FD6095762F480F591F611D2F
:10343000711D77FDCDC24115510531E0630771055E
:1034400024F04FEF5FEF60E070E02E85211190C116
:10345000F092480DE092470DD092540DC092530D5A
:103460005093600D40935F0D4FCC8091580F909119
:10347000590F2090E80D3090E90DA817B90709F011
:1034800015CC80915A0F90915B0F4091DA0D5091BD
:10349000DB0D2816390609F4AFC22091E00D3091FA
:1034A000E10D8090120E9090130E6090CD0D609102
:1034B000D70D6ECB1C861B861A86198610CC4FEF53
:1034C0005FEF60E070E02D8521114FC09DCFCC24CF
:1034D000CA94DC2CE12CF12C67CF22242A94322CC4
:1034E000412C512C6FCC88248A94982CA12CB12C7F
:1034F0005D85552309F494CC5DC022242A94322C96
:10350000412C512C9ECD8FEF9FEFA0E0B0E05D8568
:103510005111AAC029CDCC24CA94DC2CE12CF12C69
:10352000F2CC4FEF5FEF60E070E02D852111E9C034
:10353000DACECC24CA94DC2CE12CF12CA4CE4FEFB3
:103540005FEF60E070E02D852111B4C03BCECC244C
:10355000CA94DC2CE12CF12C05CE4FEF5FEF60E03C
:1035600070E02D85211158C09CCD8C899D89919545
:1035700081959109AA2797FDA095BA2FC80ED91E4B
:10358000EA1EFB1EF7FC1CC2C114D104E1E0EE06EA
:10359000F1040CF0BFC17601840F951FA61FB71F61
:1035A000B7FDFEC10097F1E0AF07B1050CF0BEC159
:1035B0006C012CCF8C899D89880F991F0C891D89DE
:1035C000800F911F919581959109AA2797FDA0954C
:1035D000BA2FB201A101480F591F6A1F7B1F77FD47
:1035E000EBC14115510511E0610771050CF087C170
:1035F0001A01880E991EAA1EBB1EB7FCD5C18114E4
:10360000910421E0A206B1040CF40ACC88248A9427
:10361000982CA12CB12C04CC8C899D89880F991FE2
:103620002C893D89820F931FAA2797FDA095BA2F59
:10363000280E391E4A1E5B1E57FCBAC121143104E4
:1036400031E0430651040CF06BC17101840F951FEA
:10365000A61FB71FB7FD90C1009741E0A407B105B1
:103660000CF070C16C011FCD2C893D89A901662722
:1036700057FD6095762FC40ED51EE61EF71EF7FC8B
:1036800083C1C114D10431E0E306F1040CF066C13A
:103690007601840F951FA61FB71FB7FD7DC1009748
:1036A00041E0A407B1050CF460CC8FEF9FEFA0E0E0
:1036B000B0E05BCC8C899D89919581959109880FAB
:1036C000991FAA2797FDA095BA2FC80ED91EEA1EEA
:1036D000FB1EF7FC55C1C114D104E1E0EE06F10474
:1036E0000CF007C17601840F951FA61FB71FB7FD09
:1036F0003BC10097F1E0AF07B1050CF029C16C01A7
:1037000063CD8C899D89880F991FAA2797FDA09565
:10371000BA2FC80ED91EEA1EFB1EF7FC39C1C11410
:10372000D104E1E0EE06F1040CF0EEC07601840F66
:10373000951FA61FB71FB7FD1BC10097F1E0AF078C
:10374000B1050CF0F9C06C01D0CDF092700DE09293
:103750006F0DD0927C0DC0927B0D5093880D4093DD
:10376000870D6110DDCA5093640D4093630DD8CA74
:10377000F0926C0DE0926B0DD092780DC092770DA7
:103780005093840D4093830D6110BECA5093600D19
:1037900040935F0DB9CA892D90E022E030E02619F0
:1037A000310902C0959587952A95E2F73B89830FE9
:1037B00030CEF0926E0DE0926D0DD0927A0DC092E7
:1037C000790D5093860D4093850D6110A3CA5093D7
:1037D000620D4093610D9ECA8B8932CB3092500DA1
:1037E00020924F0D90925C0D80925B0D57CBF09222
:1037F0006A0DE092690DD092760DC092750D5093CE
:10380000820D4093810D611079CA50935E0D4093F3
:103810005D0D74CAF092720DE092710DD0927E0D22
:10382000C0927D0D50938A0D4093890D61107ECA20
:103830005093660D4093650D79CA892D90E022E082
:1038400030E02619310902C0959587952A95E2F74F
:103850003B89830F4DCD892D90E022E030E0261981
:10386000310902C0959587952A95E2F73B89830F28
:10387000AECC8B898BCB892D90E022E030E02619ED
:10388000310902C0959587952A95E2F73B89830F08
:103890000DCC40E050E0BA01ADCD80E090E0DC011D
:1038A0005ACBC12CD12C760178CD40E050E0BA0142
:1038B000EECB212C312C2101BDCB40E050E0BA01F0
:1038C00008CDC12CD12C7601D7CC40E050E0BA0114
:1038D0006FCCC12CD12C76013ECC812C912C540183
:1038E00095CAC12CD12C760107CB212C312C21017A
:1038F00062CACC24CA94DC2CE12CF12CF3CE4FEF1D
:103900005FEF60E070E074CECC24CA94DC2CE12C34
:10391000F12C0CCFCC24CA94DC2CE12CF12C3BCE26
:1039200022242A94322C412C512C8FCE8FEF9FEFE2
:10393000A0E0B0E06C016ACD8FEF9FEFA0E0B0E0B7
:103940006C01D3CC8FEF9FEFA0E0B0E06C01ABCB6C
:103950008FEF9FEFA0E0B0E06C0136CCCC24CA948E
:10396000DC2CE12CF12C94CE80E090E0DC01C1CE87
:1039700080E090E0DC01E1CE80E090E0DC016CCE04
:10398000C12CD12C7601A7CEC12CD12C760179CEB9
:10399000C12CD12C7601C3CE80E090E0DC017FCE3B
:1039A00080E090E0DC01FECD812C912C540127CEEB
:1039B000212C312C210142CE40E050E0BA0111CE41
:1039C000C12CD12C7601E0CD40E050E0BA014ACACA
:1039D00040E050E0BA012FCD40E050E0BA019ACC6F
:1039E00040E050E0BA0105CC40E050E0BA01E0CA46
:1039F00040E050E0BA016CCB80915C0F90915D0F7C
:103A00002091E00D3091E10D4817590749F0809061
:103A1000120E9090130E6090CD0D6091D70DB8C826
:103A200080915E0F90915F0F8090120E9090130E18
:103A30002817390729F06090CD0D6091D70DA8C8DF
:103A40006091600F7091610F6090CD0D86169706A2
:103A500019F06091D70D9CC86091620F6612F9CF82
:103A60006091D70D7091630F671392C864C9EF928C
:103A7000FF920F931F93CF93DF937C01EB01142FE1
:103A800040FF09C02091640F3091650F2827392726
:103A90002C7F232B71F511FF0AC08091660F909146
:103AA000670F8C279D2788279E7F892B39F4DF910C
:103AB000CF911F910F91FF90EF9008950D2F0695D4
:103AC00040914C0F4F70406BE0917116F09172165F
:103AD00021E063E070E081E796E10995D093670FFC
:103AE000C093660FDF91CF911F910F91FF90EF90E0
:103AF000089590589C013595279535952795092F60
:103B000006952F77332740914C0F4F70406EE09110
:103B10007116F091721663E070E081E796E1099505
:103B2000F092650FE092640FB6CF0F931F93072FAB
:103B3000069510E00F771127282F285E2F774091E8
:103B40004C0F4F704069E0917116F091721663E06E
:103B500070E081E796E109951F910F910895EF922A
:103B6000FF920F931F93CF93DF93EC01162FF42E48
:103B7000E22E80919616843071F1C230D10509F49D
:103B800053C0C330D10571F1C130D105F9F1C43052
:103B9000D105C8F5E0918D16F0918E16309739F069
:103BA0000E2D2F2D412FBE0181E796E10995E09161
:103BB0008F16F0919016309739F00E2D2F2D412F42
:103BC000BE0181E796E10995DF91CF911F910F9199
:103BD000FF90EF900895E0918B16F0918C1630973E
:103BE000F9F6D8CF862F807F803A09F48DC008F08F
:103BF00041C0803809F456C0803961F6E0917516ED
:103C0000F091761642C0C0E0D0E0C4CF683F50F1DA
:103C1000E0918716F0918816309709F4BBCF612F99
:103C200081E796E10995C3CF862F807F803D09F417
:103C300055C0803F09F440C0803C09F0ABCFE09113
:103C40007F16F0918016309709F4A4CF133F09F442
:103C50003FC0113FE9F1612F6F704F2D81E796E171
:103C60000995A5CF663F09F095CFE0918916F091AF
:103C70008A16D2CF803ED9F0803FA9F1803B09F06F
:103C800089CFE0917316F0917416309709F482CFC2
:103C9000123F99F1612F6F702E2D4F2D81E796E124
:103CA000099585CFE0917716F0917816EECFE091E7
:103CB0007B16F0917C16E9CF633F59F1613F09F023
:103CC00069CFE0918516F0918616309709F462CF9E
:103CD0004F2D612F81E796E1099569CFE09181161B
:103CE000F0918216B0CF623F09F054CFE0917D167B
:103CF000F0917E16309709F44DCF2E2D4F2D62EFA7
:103D000081E796E1099553CFE0917916F0917A1603
:103D1000BCCFE0918316F09184163097C9F63ACF64
:103D2000FF920F931F93CF93DF93F82EABEA8A9FF6
:103D3000A12D1124A695A695A6951A2F1F5F462F93
:103D400050E0A83008F063C08A2F90E0880F991FD8
:103D5000FC01EE0FFF1FEE0FFF1FEE0FFF1FE80F1E
:103D6000F91FE40FF51FEE0FFF1FEA5DF14FC08151
:103D7000D181183008F46FC0FA01EE0FFF1FEE5D1D
:103D8000F04F0190F081E02DDA01AA0FBB1FA25085
:103D9000B14F8D919C919F01281B390BA12FB0E051
:103DA00017970E94E7646E0F7F1F811D911D61159B
:103DB000710521E08207910508F063C08B010C1B9F
:103DC0001D0B9BEAF99E912D11249695969596953B
:103DD000892F880F890F880F880F6F2D681B862FFA
:103DE00090E0A0E0B0E0772766272CE030E040E0EC
:103DF00050E00E94A669D8010E946F69C80FD91FC0
:103E0000CE01DF91CF911F910F91FF900895FA019C
:103E1000EE0FFF1FEE5DF04F0190F081E02DEA0103
:103E2000CC0FDD1FC250D14F888199819F01281B83
:103E3000390BB0E017970E94E7646E0F7F1F811D5A
:103E4000911D6115710521E082079105F8F4EB01E0
:103E5000183008F091CF812F90E0880F991FFC0156
:103E6000EE0FFF1FEE0FFF1FEE0FFF1FE80FF91FF2
:103E7000E40FF51FEE0FFF1FEA5DF14F60817181C6
:103E80009DCF6FEF7FEF80E090E098CF6FEF7FEFF7
:103E900080E090E0EB01DCCFAF92BF92CF92DF9257
:103EA000EF92FF920F931F93CF93DF9381111EC167
:103EB0008091D50D823009F45CC1833009F481C151
:103EC000813059F0DF91CF911F910F91FF90EF90CA
:103ED000DF90CF90BF90AF9008951091D40D110F47
:103EE000C0918F0DD091900D60E0812F19DF7C0182
:103EF00080E00E945C149701281B390BDE010E94B0
:103F0000E764CC24CA94DC2CE12CF12CA7019601A7
:103F10000E947F693093920D2093910D61E0812F73
:103F2000FFDE5C0181E00E945C149501281B390BC7
:103F3000DE010E94E764A70196010E947F69309329
:103F4000940D2093930D62E0812FEADE5C0182E004
:103F50000E945C149501281B390BDE010E94E76466
:103F6000A70196010E947F693093960D2093950DCD
:103F700063E0812FD5DE5C0183E00E945C14950133
:103F8000281B390BDE010E94E764A70196010E94FD
:103F90007F693093980D2093970D64E0812FC0DEE8
:103FA0005C0184E00E945C149501281B390BDE0142
:103FB0000E94E764A70196010E947F6930939A0DE1
:103FC0002093990D65E0812FABDE5C0185E00E94B6
:103FD0005C149501281B390BDE010E94E764A701E0
:103FE00096010E947F6930939C0D20939B0D66E0A3
:103FF000812F96DE5C0186E00E945C149501281BEF
:10400000390BDE010E94E764A70196010E947F69D7
:1040100030939E0D20939D0D67E0812F81DE5C0122
:1040200087E00E945C149501281B390BDE010E9479
:10403000E764A70196010E947F693093A00D209349
:104040009F0D68E0812F6CDE5C0188E00E945C14AB
:104050009501281B390BDE010E94E764A701960138
:104060000E947F693093A20D2093A10D69E0812FFA
:1040700057DE5C0189E00E945C149501281B390B16
:10408000DE010E94E764A70196010E947F693093D8
:10409000A40D2093A30D6AE0812F42DE5C018AE02B
:1040A0000E945C149501281B390BDE010E94E76415
:1040B000A70196010E947F693093A60D2093A50D5C
:1040C0006BE0812F2DDE8C018BE00E945C14980147
:1040D000281B390BDE010E94E764A70196010E94AC
:1040E0007F693093A80D2093A70DECCE2091AC0AE8
:1040F0003091AD0AC901A0E0B0E0E091460FF09127
:10410000470F6F01E12CF12C8C159D05AE05BF0505
:104110000CF46BC09C01AD012C193D094E095F09DF
:10412000AFEFBFE70E946F699F012095309540E097
:1041300050E00E947F692F3F8FE738074105510506
:104140000CF068C0DA01C901811520E892072FEF51
:10415000A207B20724F480E090E8AFEFBFEF9C0124
:104160003093900D20938F0D8091D50D823009F002
:10417000A4CE2091D40DA0918F0DB091900D30E080
:104180000E94E7642CE030E040E050E00E947F694C
:104190003093AA0D2093A90D3093AC0D2093AB0D55
:1041A0003093AE0D2093AD0D3093B00D2093AF0D35
:1041B0003093B20D2093B10D3093B40D2093B30D15
:1041C00081CE2091D40DA0918F0DB091900D30E053
:1041D0000E94E7642CE030E040E050E00E947F69FC
:1041E0003093B60D2093B50D6DCEA7019601281B17
:1041F000390B4A0B5B0BA0E0B0E80E947B69A7017A
:1042000096010E947F692F3F8FE7380741055105CE
:104210000CF498CF2FEF3FE7A3CF4091A509309141
:10422000A40980919E0990919F09A091A009B09145
:10423000A1092091A609211121C02091AF092111C6
:1042400029C02091B809211139C02091C10921113B
:1042500049C02091CA09211159C02091D3092111C7
:1042600069C04093A5093093A40980939E09909357
:104270009F09A093A009B093A109089520913C0C37
:104280002111DBCF1092A60980E090E0DC013FEF26
:104290004FEFD3CF2091660C2111D3CF1092AF09ED
:1042A0002FEF2093AE092093AD091092A709109229
:1042B000A8091092A9091092AA09C3CF2091900CC5
:1042C0002111C3CF1092B8092FEF2093B709209383
:1042D000B6091092B0091092B1091092B209109269
:1042E000B309B3CF2091BA0C2111B3CF1092C109F9
:1042F0002FEF2093C0092093BF091092B9091092A3
:10430000BA091092BB091092BC09A3CF2091E40C0A
:104310002111A3CF1092CA092FEF2093C90920932E
:10432000C8091092C2091092C3091092C4091092D0
:10433000C50993CF20910E0D211193CF4093A5096C
:104340003093A40980939E0990939F09A093A0099C
:10435000B093A1091092D3098FEF8093D209809373
:10436000D1091092CB091092CC091092CD0910926C
:10437000CE09089521E030E002C0220F331F8A9554
:10438000E2F7D901A095B095E0914D09F0914E0961
:10439000EA23FB23F0934E09E0934D0980914F09E6
:1043A000909150098A239B239093500980934F0941
:1043B000662331F0E22BF32BF0934E09E0934D0985
:1043C000442331F0282B392B3093500920934F0987
:1043D000089521E030E002C0220F331F8A95E2F7F2
:1043E000F901E095F09580914D0990914E098E2349
:1043F0009F2390934E0980934D0940914F0950910E
:1044000050094E235F235093500940934F09662370
:1044100031F0282B392B30934E0920934D09089504
:10442000EDE4F9E080819181AFE4B9E02D913C9118
:1044300011973E7F2D933C939160918380830895E3
:1044400080913E09881F8827881F0895CF93DF93A6
:104450001F92CDB7DEB790E069830E946514809308
:1044600051096981862F90E00E946514809352095A
:104470000F90DF91CF91089524E630E040E050E0C6
:104480000E947F692AE030E040E050E00E947F69AE
:10449000605D822F805DDACF21E02093570900977D
:1044A00021F48FEF80935609089510925609BC01AC
:1044B0008DE599E00E94116960E978E08CE599E06A
:1044C0000C9406691092A6098FEF8093A50980933A
:1044D000A40910929E0910929F091092A0091092AF
:1044E000A1091092AF098093AE098093AD09109293
:1044F000A7091092A8091092A9091092AA0910926E
:10450000B8098093B7098093B6091092B009109248
:10451000B1091092B2091092B3091092C1098093A7
:10452000C0098093BF091092B9091092BA0910927C
:10453000BB091092BC091092CA098093C9098093E3
:10454000C8091092C2091092C3091092C4091092AE
:10455000C5091092D3098093D2098093D109109292
:10456000CB091092CC091092CD091092CE09089572
:104570001F93CF93DF93D82FC92F162F8091DC097B
:1045800068130AC046E050E064ED79E08D2F0E9488
:10459000D868009711F424C095DF1093DC0946E039
:1045A00050E06FEF70E084ED99E00E94FF68ED2F1E
:1045B000FC2FA4EDB9E080E091919F3F19F488238E
:1045C00041F004C09D938F5F8630B1F71092D409FB
:1045D00007C086E0E4EDF9E0DF011D928A95E9F776
:1045E000DF91CF911F910895CF93DF9300D000D03A
:1045F00000D0CDB7DEB786E0E2EBF6E0DE01119643
:1046000001900D928A95E1F760E0CE010196B0DF4E
:1046100026960FB6F894DEBF0FBECDBFDF91CF91C7
:104620000895EF92FF920F931F93CF93DF9300D0E3
:1046300000D000D0CDB7DEB746E050E06FEF70E0BD
:104640008E010F5F1F4FC8010E94FF68F12CE12C03
:104650008F2D0E94C7148823A9F0F801EE0DF11DDB
:10466000E7FCFA95F082EE2021F089819F2D981BBE
:104670009083E39485E08E152CF461E0CE010196E1
:1046800077DF05C0F39490E8F912E2CFF6CF2696D3
:104690000FB6F894DEBF0FBECDBFDF91CF911F9153
:1046A0000F91FF90EF90089596EC91BB469A482F9A
:1046B000440F282F2695342F36703064982F991F79
:1046C0009927991F392B8071942F990F9072982BED
:1046D000407C942B2270206615B838B99BB92EB94E
:1046E00087E881BB85E08A95F1F70000089586E0B0
:1046F000E4EDF9E0A6E1BEE001900D928A95E1F7C4
:1047000008958F929F92AF92BF92CF92DF92EF92D5
:10471000FF920F931F934A015B0168017901BC016D
:1047200080E090E00E9441669058A50194010E94AB
:104730007C650E94E965A70196010E94A1670E941D
:104740001566CB011F910F91FF90EF90DF90CF90F6
:10475000BF90AF909F908F9008950F931F9380917B
:104760000C0E90910D0E00E010E42CE135E440E0D9
:1047700050E86BE376E480959095C3DF9093BF0D8E
:104780008093BE0D1F910F91089580918E09909195
:104790008F09892B90919009892B90919109892BF0
:1047A00090919209892B90919309892B909194096A
:1047B000892B90919509892B90919609892B90913D
:1047C0009709892B90919809892B90919909892BA8
:1047D00090919A09892B90919B09892B90919C0922
:1047E000892B90919D09982B71F08091BA0D909131
:1047F000BB0DA091BC0DB091BD0D8F3F9F4FAF4F32
:10480000BF4F69F008958FEF9FEFDC018093BA0DE1
:104810009093BB0DA093BC0DB093BD0D08958091F6
:10482000130B9091140BA091150BB091160B809364
:10483000BA0D9093BB0DA093BC0DB093BD0D089520
:104840000F931F93CF93DF93EC018A899B8900E03C
:104850001FEF2FE737E440E050E26BE476E4809509
:1048600090954FDFAC0160E070E0088C04C0440F0D
:10487000551F661F771F0A94D2F7488759876A87A2
:104880007B87DF91CF911F910F910895CF93DF9395
:10489000EC01888D681741F0688FCE01D1DFCE0121
:1048A000DF91CF910C94DD14DF91CF910895CF93D8
:1048B000DF93EC01598B488B8A899B8968177907AC
:1048C00049F07B8B6A8BCE01BBDFCE01DF91CF91AC
:1048D0000C94DD14DF91CF910895AC01AA27469F77
:1048E000B12D579F9001749FB00D211D3A1F569F07
:1048F000B00D211D3A1F1124C9010895A72F8F3F24
:10490000F9F0282F2F5F30E0220F331FE82FF0E05F
:10491000EE0FFF1FE40FF51F60817181FA01E20FB6
:10492000F31F80819181861B970BA89F9001A99FFF
:10493000300D1124232F3327260F371FC901089567
:104940002EEF31E0E3CF8FBF0895F89481E0089512
:104950008FBF0895EEE6F4E1A081B1818C93808150
:1049600091810196918380830895EEE6F4E1A08120
:10497000B1818C9380819181019691838083089588
:10498000CF93DF93EEE6F2E180E092E0DF019C015D
:104990001D9221503040E1F7F0936F14E0936E14B4
:1049A000C0E7D4E182E088830E9472148881DF919D
:1049B000CF91DBCFAEE6B4E1ED91FC9111978193FD
:1049C0009193ED93FC930895F89481E00895CF922C
:1049D000DF92EF92FF920F931F93CF93DF931F927B
:1049E000CDB7DEB7F82E8B01EFB69983EDDF998155
:1049F0008823F1F08F2D0E942015EEE6F3E16F0180
:104A00008EE692E1C81AD90A82918823C1F3F09206
:104A1000711422E734E1EEE6F2E1A601BF01C9011B
:104A20000E94E5689FEFC91AD90AF801D182C082B5
:104A30008E2D0F90DF91CF911F910F91FF90EF90EE
:104A4000DF90CF9085CF1F93CF93DF93EC011FB7FB
:104A5000BBDF811104C0812F7BDFC1E055C0CE01D7
:104A60000E9420151092D30D1092160E9FEF909376
:104A7000170E9093180E9093190E90931A0E909310
:104A80001B0E80917014C0E08823E1F10E94AF14E6
:104A9000EC2FF0E0EE0FFF1FEF53F24F928F818F5C
:104AA000CF5FC93199F7D0E00E94A614ED2FF0E056
:104AB000EF53F24F8083DF5FD731B1F780917014ED
:104AC0008230F8F00E94AF14EC2FF0E0EE0FFF1FE1
:104AD000EF53F24F928F818FCF5FCE3199F70E94C3
:104AE000A6148093D80D0E94A6148093D90DC6E118
:104AF000DEE00E94A61489938EE0CC31D807C9F776
:104B0000AACFC1E0812F24DF8C2FDF91CF911F919D
:104B10000895CF93DF93D82FCFB756DF882309F4BA
:104B200043C08BE5E1ECFDE0DF011D928A95E9F7DA
:104B30002FEF3FE73093DF0D2093DE0D3093E50D2F
:104B40002093E40D4FEF5FEF5093E90D4093E80D94
:104B50003093ED0D2093EC0D5093F90D4093F80D2B
:104B60005093DD0D4093DC0D3093090E2093080E19
:104B70009FEF9093170E9093180E9093190E9093A9
:104B80001A0E90931B0E85E08093D40D91E09093C4
:104B9000D50D9093CE0D9093D00D9093D60D82E0CD
:104BA0008093D70DD11104C08C2FDF91CF91D0CE3F
:104BB0009093C10DF9CFFF920F931F93CF93DF9383
:104BC000FFB602DF811104C08F2DC2DEC1E054C0E8
:104BD00062E08CED90E00E9445158091701488236E
:104BE00009F447C0C6E2DEE011C00E94AF14FE0126
:104BF000E00FF11F918380830E5F1F4F0432110578
:104C0000A1F7A4968FE0C634D80719F000E010E0B1
:104C1000ECCF0E94AF149093490F8093480F0E94ED
:104C2000AF149093470F8093460F0E94A614809371
:104C30004A0F0E949D1480934B0F80917014823014
:104C400010F4C1E017C00E94A61480934D0F0E947B
:104C50009D1480934C0F80917014833090F30E94C8
:104C6000A61480934E0F80917014843008F0ACCF5E
:104C7000E8CFC0E08F2D6CDE8C2FDF91CF911F919C
:104C80000F91FF900895BF92CF92DF92EF92FF9223
:104C90000F931F93CF93DF9310926B11C0E0D0E07E
:104CA00044E2B42E0CC00193119313870287778BD3
:104CB000668B8150C1F72196C830D10591F16C2FD8
:104CC000772767FD7095872F972F0E9443666B01AA
:104CD0007C012CE83EE24AEB55E40E94A16720E00B
:104CE00030E44CE955E40E9415650E9415668B017D
:104CF0002CE83EE24AE355E4C701B6010E94A167F1
:104D000020E030E44CE156E40E9415650E941566EF
:104D1000BC9EF001BD9EF00D1124EA5DF14F86E0CE
:104D2000C2CFDF91CF911F910F91FF90EF90DF9055
:104D3000CF90BF900895CF93CFB746DE8823B1F0D0
:104D400029E231E0E6E2FEE0DF01C9011D920197B0
:104D5000E9F72FEF3FE73093470F2093460F8FEF90
:104D600080934B0F8FE380934D0F8DDF8C2FCF916E
:104D7000EFCD8FBF0895F89481E00895CF93DF932E
:104D8000EC016A8F88819981AA81BB81892B8A2B4A
:104D90008B2B51F46091130B7091140B8091150BB8
:104DA0009091160B0E9466690E94636968837983FB
:104DB0008A839B83DF91CF9108958091660A08953D
:104DC0008091670A08950F931F93CF93DF93FC019F
:104DD0008BE1DF011D928A95E9F708E61FE060E0AC
:104DE00070E080E89FEBC0E0D0E01BC0BE018827E8
:104DF00077FD8095982F0E94436621E830E840E8CF
:104E00005BE30E94A16720E030E040E85FE30E949E
:104E100015652BED3FE049E450E40E94A1670E9434
:104E2000796520E030E040E85FE30E94156520E00E
:104E30003FEF4FEF56E40E94A1670E941566F8010C
:104E4000619371938F012196C115F1E0DF0771F62F
:104E5000DF91CF911F910F9108950F931F93082F0A
:104E600010E0F801E45BFE4F8491F801E45BFD4F34
:104E70009491F801E45BFC4F049110E020E030E0F5
:104E8000980111270027192B082BB801C9011F9180
:104E90000F910895109251091092520910924E09E3
:104EA00010924D091092500910924F091092570913
:104EB00008950F931F93382F2091C30DE091C60DD5
:104EC000222309F4FAC04091DE0D5091DF0D60E01D
:104ED00070E0EE2309F4ECC08091E40D9091E50DB3
:104EE000A0E0B0E03323A1F0222381F02091CC0D8B
:104EF00025FD0CC00091250D1091260D222717FDD0
:104F00002095322F400F511F621F731FE111DAC02D
:104F10002FB7F89477FDEAC04115510531E06307DA
:104F2000710524F04FEF5FEF60E070E0BA01672F8A
:104F3000772766956695062FE6ECE1BB469A162F15
:104F4000110FF12FF670F068607177276260312FD2
:104F5000330F3072362B107C312B602F66956270C8
:104F6000606215B8F8B93BB96EB977E871BB569570
:104F7000479556954795642FE1BB469A142F110F1C
:104F8000F42FF695661F6627661F312F3670632B48
:104F90006068407155274260312F330F3072342BD7
:104FA000107C312BF27015B868B93BB9FEB971BBF2
:104FB00000C000C0E1BB469A41E045B931E438B9D0
:104FC00030E73BB932EA3EB971BB00C000C0E1BB7B
:104FD000469A45B947E448B940EF4BB93EB971BB71
:104FE000B7FD88C0009731E0A307B10524F08FEF2B
:104FF0009FEFA0E0B0E0AC01452F552746954695C0
:10500000F42F66EC61BB469AE42FEE0F7E2F76708C
:1050100070684071552742603E2F330F3072342B39
:10502000E07C3E2B4F2F46954270406215B878B910
:105030003BB94EB947E841BB9695879596958795BC
:10504000382F61BB469A782F770F582F5695331F0C
:105050003327331FE72FE6703E2B30688071992786
:105060008260972F990F9072982B707C972B5270BB
:1050700015B838B99BB95EB941BB00C000C061BB6F
:10508000469A31E035B997E498B980E78BB982EA5E
:105090008EB941BB00C000C061BB469A35B998B912
:1050A00090EF9BB98EB941BB2FBF1F910F9108950F
:1050B0008FEF9FEFA0E0B0E015CF4FEF5FEF60E024
:1050C00070E007CF2091CC0D24FD22CF0091250D5B
:1050D0001091260D222717FD2095322F800F911F4A
:1050E000A21FB31F2FB7F89477FF16CF40E050E010
:1050F000BA0112CF80E090E0DC0174CFE82FF0E03D
:10510000EE0FFF1FEE52F54F40815181982F96957B
:105110009695969528E030E001C0220F9A95EAF71F
:105120002095287F8770282BFFB7F894CA01892F14
:10513000992786958695E82F76EC71BB469A682F5D
:10514000660F362F36703068807199278260962FEF
:10515000990F9072982B607C962B8E2F869582707B
:10516000806215B838B99BB98EB967E861BBCA01CE
:105170009695879596958795382F71BB469A582FA7
:10518000550F482F4695331F3327331FE52FE67001
:105190003E2B3068807199278260952F990F90720D
:1051A000982B507C952B427015B838B99BB94EB9E5
:1051B00061BB85E08A95F1F7000071BB469A422FEA
:1051C000440F922F9695322F331F3327331F842F8E
:1051D0008670382B30642071842F880F8072822B68
:1051E000407C842B9270906A21E025B938B98BB944
:1051F0009EB961BB8AE08A95F1F700C0FFBF0895B0
:105200002F923F924F925F926F927F928F929F92D6
:10521000AF92BF92CF92DF92EF92FF920F931F93C4
:10522000CF93DF9300D0CDB7DEB7382E4FB6F894CA
:10523000282F259525952595259580E290E002C09B
:10524000959587952A95E2F7932D9F70982B86EC7C
:1052500081BB469A492F440F292F2695392F331F9A
:105260003327331F842F8670382B30649071842F3E
:10527000880F8072892B407C842B2270206491E0FF
:1052800095B938B98BB92EB987E881BB25E02A9545
:10529000F1F70000832D992787FD90959A838983E4
:1052A000FC01E854F94FE081F0E080E190E08E1BD2
:1052B0009F0B66246A94762C082E02C0769467941D
:1052C0000A94E2F702C0660C771C8A95E2F740E088
:1052D00050E020E030E88FEF9FEF66EC262E17E8D5
:1052E00077E0972EAA24A394A0E4BA2EB0E2CB2EA6
:1052F00007E4D02E67EEE62E77EFF72EA2EE5A2EB9
:105300000AC0820F931F369527954F5F5F4FE417B2
:10531000F5070CF46BC0BC01672F7727669566957F
:10532000062F21BA469AB62FBB0FAB2FA670A068E6
:105330006071772762607B2F770F7072762BB07C5D
:105340007B2B602F66956270606215B8A8B97BB937
:105350006EB911BBBC017695679576956795A62FBA
:1053600021BA469A062F000FB62FB695AA1FAA2774
:10537000AA1F0F2EF6E08F2EF02D8022A829A068FC
:10538000607177276260702F770F7072762B007CC8
:10539000702BB27015B8A8B97BB9BEB911BBA2E029
:1053A000AA95F1F700C021BA469AB0EEB7B99AB8FB
:1053B000BDB9A5B8B8B81BB8CEB8D1BA62E06A9585
:1053C000F1F700C066B169B17CB121BA479AE7B87C
:1053D000FAB85DB865FD95CF821B930B369527957E
:1053E0004F5F5F4FE417F5070CF095CF26EC21BB1C
:1053F000469A21E025B927E428B920EF2BB922E409
:105400002EB927E821BBA5E0AA95F1F70000862177
:105410009721E981FA81EE0FFF1FE457F54F918341
:105420008083892F9927A981BA81A859B54F1496ED
:105430002C91149730E0281B390B37FD19C025300B
:105440003105E4F44FBE0F900F90DF91CF911F9183
:105450000F91FF90EF90DF90CF90BF90AF909F9013
:105460008F907F906F905F904F903F902F90089516
:105470003195219531092530310524F314968C930B
:1054800081E090E0A0E0B0E0032C04C0880F991FF9
:10549000AA1FBB1F0A94D2F74091680A5091690A6B
:1054A00060916A0A70916B0A842B952BA62BB72BFF
:1054B0008093680A9093690AA0936A0AB0936B0A72
:1054C0003092CD0ABFCF0F931F93CF93DF9380E429
:1054D0009DE0A3E0B0E036EC20EE17E0D1E0C0E4C0
:1054E000F0E2E7E477EE67EF52EE04C00097A10523
:1054F000B105F9F031BB469A27B91AB92DB9D5B91A
:10550000C8B91BB8FEB9E1BB42E04A95F1F700C04B
:1055100046B109B10CB131BB479A77B96AB95DB9E7
:105520000197A109B10942FFE1CF892B8A2B8B2B6F
:1055300029F480916A118F5F80936A11DF91CF9176
:105540001F910F9108950F931F93CF93DF9380E4E2
:105550009DE0A3E0B0E036EC20EE17E0D1E0C0E43F
:10556000F0E2E7E477EE67EF52EE04C00097A105A2
:10557000B105F9F031BB469A27B91AB92DB9D5B999
:10558000C8B91BB8FEB9E1BB42E04A95F1F700C0CB
:1055900046B109B10CB131BB479A77B96AB95DB967
:1055A0000197A109B10942FDE1CF892B8A2B8B2BF1
:1055B00029F480916A118F5F80936A11DF91CF91F6
:1055C0001F910F910895CF93882339F1809153094A
:1055D0008F5F80935309853148F081E090915409A1
:1055E0009111CDC08093540910925309C09157096D
:1055F000C11179C05091510990915209E091580917
:10560000E13009F4DEC008F4AFC0E23009F4C4C0F0
:1056100020E0F0E0E35BF64F2487AFB7F89456EC58
:1056200051BB469A41E045B980E488B91BB880E295
:105630008EB937E831BB00C000C080E190E0009037
:10564000580902C0880F991F0A94E2F7282F51BB0E
:10565000469A782F770F682F6695221F2227221FE0
:10566000972F9670292B20648071972F990F907235
:10567000982B707C972B627045B928B99BB96EB98D
:1056800031BB00C000C0E0915809F0E0E35BF64F89
:10569000848551BB469A582F550F982F9695252FE4
:1056A00026702064682F661F6627661F262B682FCA
:1056B0006071852F880F8072862B507C852B9270AD
:1056C000906245B928B98BB99EB931BBAFBF809103
:1056D000580990E0019663E070E00E94ED648093C9
:1056E0005809CF910895409155094F5F409355094E
:1056F000ECE5F9E001900020E9F7ED55F940209143
:105700005609332727FD3095C90101966E2F77275B
:1057100067FD70950E94ED64F901E35BF64F278504
:1057200030E02038310588F15FEFE82FFF27E7FDF3
:10573000F095E35BF64F278530E02038310550F5D2
:10574000F901E050FF4F90814D3008F457CF80931E
:10575000560910925509811151CF1C160CF04ECFED
:10576000C150C09357094ACF20914D0980915409E7
:10577000882309F44ECF80914F0928274ACF80E033
:10578000809354091092530931CFF901E050FF4F33
:105790005081CBCF9FEFD8CF292F2F7780914D0904
:1057A00090914E0990FD206880914F099091500989
:1057B00090FF2FCF80915409882309F42ACF2058D5
:1057C00028CF252F2F7780914D0990914E0991FD7B
:1057D000206880914F099091500991FF1ACFEACF2C
:1057E0009091120B9D7F811192609093120B4FB795
:1057F000F8948091120B96EC91BB469A382F330F98
:10580000982F9695232F26702064582F551F5527C3
:10581000551F252B582F5071832F880F8072852B91
:10582000307C832B9270906631E035B928B98BB902
:105830009EB987E881BB4FBF0895CF9380911C0E1E
:10584000882309F465C0813009F487C080911D0E5A
:1058500060E287FD6FC0805D0E94262260914A0F42
:1058600084E00E94E92180911C0E811134C061E026
:1058700080914A0F882379F186E00E94E9216091A6
:105880003E0970E0660F672F661F770B87E00E9466
:10589000E9218091670A811120C061E080911C0E8E
:1058A000823009F060E0462F85E00E94BA218091A5
:1058B0004F099091500920914D0930914E09237F55
:1058C00030934E0920934D09837F90935009809324
:1058D0004F09CF91089560E0CFCF6091660A85E0CF
:1058E0000E94E92161E08091670A813009F060E05F
:1058F00082E00E94E9218091670A41E0823009F04C
:1059000040E061E0813021F183E0CF910C94BA2135
:10591000C091200E6C2F70E080E090E00E943C224D
:1059200041E0C83C80F061E0C43640F089E00E946C
:10593000BA2194CF80E20E94262290CF60E089E0D5
:105940000E94BA218BCF40E061E0C43678F7F6CFF1
:1059500060E083E0CF910C94BA216091480F709180
:10596000490F80E090E00E943C2260911E0E89E089
:105970000E94E92173CFFC01623009F458C038F06D
:10598000633009F483C0643009F432C00895613093
:10599000E9F726893789468D578DAA27429FB12D71
:1059A000539FC001349FB00D811D9A1F529FB00DAF
:1059B000811D9A1F112480A391A340955095AA2779
:1059C000429FB12D539FC001349FB00D811D9A1F7E
:1059D000529FB00D811D9A1F112482A393A340856D
:1059E00051856285738540835183628373830895F3
:1059F00011A210A2268D378D46895789AA27249F88
:105A0000B12D359FC001529FB00D811D9A1F349F4B
:105A1000B00D811D9A1F112482A393A3408951893F
:105A200062897389408351836283738308952689D1
:105A3000378944895589AA27429FB12D539FC001B8
:105A4000349FB00D811D9A1F529FB00D811D9A1F6A
:105A5000112480A391A340955095AA27429FB12D70
:105A6000539FC001349FB00D811D9A1F529FB00DEE
:105A7000811D9A1F112482A393A3448555856685B1
:105A800077854083518362837383089511A210A2A6
:105A90008689978993A382A308951F93CF93DF9359
:105AA000EC01898DDAD918A5012E04C09695879549
:105AB000779567950A94D2F724E0660F771F881FC1
:105AC000991F2A95D1F7688779878A879B878B8D5D
:105AD000C4D9012E04C096958795779567950A9449
