:1000000020C100003DC100003BC1000039C100001B
:1000100037C1000035C1000033C1000031C100000C
:100020002FC100002DC100000C947F370C94803547
:1000300027C1000026C1000023C1000021C100002B
:100040001FC100000C94C1371BC1000019C1000082
:1000500017C1000015C1000013C1000011C100004C
:100060000FC100000DC100000BC1000009C100005C
:1000700007C1000005C1000003C1000001C100006C
:10008000FFC00000FDC00000FBC00000F9C0000080
:10009000F7C00000F5C0000005A84CCDB2D44EB9A1
:1000A0003836A9020C50B9918688083CA6AAAA2A1B
:1000B000BE000000803F08000000BE922449123EAE
:1000C000ABAAAA2ABECDCCCC4C3E00000080BEAB71
:1000D000AAAAAA3E00000000BF000000803F000066
:1000E000000000084178D3BB4387D1133D190E3C73
:1000F000C3BD4282AD2B3E68EC8276BED98FE1A9AA
:100100003E4C80EFFFBE01C4FF7F3F0000000000B7
:1001100007634236B79BD8A71A39685618AEBAABF0
:10012000558C1D3CB7CC5763BD6DEDFD753EF61784
:100130007231BF000000803F5761726E696E673A8E
:100140002061737369676E65725F676574566F6966
:10015000636546726F6D4E6F746520666F756E6471
:10016000206E6F20766F696365210A0062616420EA
:10017000666C697020666C6F70207374617475733F
:10018000203A20000A0000010000BD011200020018
:1001900000CF012200220000F1011500210000E142
:1001A000010900030000060204010309040A021405
:1001B00002030904200220000001C12600120100F0
:1001C0000200000020C016790400010102000109AC
:1001D000022200010100C0320904000001030000F6
:1001E00000092111010001221500070583032000E9
:1001F000010631FF0974A1537508150026FF00950B
:100200002009758102C004030904140359006F001A
:100210007500720020004E0061006D006500000056
:10022000200359006F007500720020005500530034
:10023000420020004400650076006900630065000C
:10024000000011241FBECFEFD0E2DEBFCDBF10E112
:10025000A2EAB9E001C01D92A73AB107E1F719E09F
:10026000A0E0B1E0E0E8F2E900E00BBF02C00790D7
:100270000D92A23AB107D9F70E94CB370C943E49B0
:10028000BFCE1F920F920FB60F9211240BB60F9292
:100290002F923F924F925F926F927F928F929F9296
:1002A000AF92BF92CF92DF92EF92FF920F931F9384
:1002B0002F933F934F935F936F937F938F939F936E
:1002C000AF93BF93EF93FF93CF93DF93CDB7DEB799
:1002D000AC97DEBFCDBF8091F50E982F9F7121E0C6
:1002E0002CA391111CA2982F937069F48091F40EA5
:1002F00081110C94D90D8CA10E94BC288CA10E9464
:10030000D8158091F50E8F5F8093F50E1091730EC6
:10031000112311F40C947C118090610E9090620E68
:10032000A090630EB090640E4B2D5527662777275B
:10033000452B462B472B11F00C948E0D6091650ECA
:100340007091660E8091670E9091680E123011F4D4
:100350000C94CE0D143011F40C94901120916D0E6C
:1003600030916E0EDC01CB01880D991DAA1DBB1DBD
:100370008093610E9093620EA093630EB093640E0F
:1003800040E050E0305841095109A091690EB09108
:100390006A0E0E94E5482FEF3FEF40E050E00E94D8
:1003A000F548C9013093700E20936F0E2091C10E55
:1003B00021FD02C00C94FA101C0122FD02C00C9415
:1003C00018109BA38AA324FF02C00C941E10009156
:1003D000BC0B1091BD0B20E030E010582109310911
:1003E0008091A60B85FF02C00C948411E12CF12CA6
:1003F00080910B0CDD24D39481110C94D50FCC2467
:10040000C39421E030E03EA32DA3DD2011F40C9431
:10041000E60F8091F60B8095881F8827881F982FFC
:100420009C259B8F882311F40C94111281E59CE08C
:100430000E946C2489E59DE00E946C24A090750CBC
:10044000B090760C2101662457FC6094762CB7019D
:100450009501AA27629FB12D7303A001369FB00DAD
:10046000411D5A1F72035A0BB00D411D5A1F112412
:10047000662757FD6095762F440D551D661D771D27
:100480008091740E9091750E480F591F611D711D5A
:1004900077FF02C00C94B612CB01BA016115710549
:1004A00031E08307910524F06FEF7FEF80E090E06B
:1004B00080E00E9468178091800E9091810EB301B8
:1004C000A201480F591F611D711DDB01CA0177FF91
:1004D00002C00C94A912BC01CD016115710551E057
:1004E0008507910524F06FEF7FEF80E090E086E0D4
:1004F0000E946817B501AA27069FB12D1703C001F6
:10050000709FB00D811D9A1F16039A0BB00D811DAF
:100510009A1F11242AA13BA1442737FD4095542F4F
:100520002FA338A749A75AA7AA2797FDA095BA2FA6
:10053000820F931FA41FB51F20918C0E30918D0E3A
:10054000820F931FA11DB11DB7FF02C00C94A4120E
:10055000009731E0A307B10524F08FEF9FEFA0E0F3
:10056000B0E06FB7F89446EC41BB50EC58B9292F76
:100570003327722F7695F72FF695E72FE670E06810
:10058000707C20723327722B2F2F20712260722BE8
:10059000F695F270F062E8B97BB9FEB937E831BB85
:1005A00000C000C041BB9695879596958795282FEA
:1005B000E82FEE0F782F7695221F2227221FFE2F7D
:1005C000F6702F2B20688071992782609E2F990FDB
:1005D0009072982BE07C9E2B727028B99BB97EB9E3
:1005E00031BB41BB58B9BB24B394B5B881E488B9D9
:1005F00080EE8BB982EA8EB931BB41BB58B9B5B830
:1006000097E498B990EF9BB98EB931BB6FBF6091F9
:100610007D0D70917E0D82E10E9468178091F70B2D
:100620008095881F8827881FB826BC8E882309F4E8
:10063000E9C1D1100C942D128D2C912C8CE2889D47
:10064000F001899DF00D1124EF5AF34F44A155A1FB
:100650005CA74BA7B701AA27649FB12D7503C00102
:10066000569FB00D811D9A1F74039A0BB00D811D0A
:100670009A1F1124AA2797FDA095BA2F840D951DC6
:10068000A61DB71DAC2CAA0CBB08F501EC58F14F08
:1006900020813181820F931FA11DB11DB7FF02C0C0
:1006A0000C949F12009771E0A707B10524F08FEF1B
:1006B0009FEFA0E0B0E0FFB7F89446EC41BB50ECF0
:1006C00058B9292F3327622F6695E62FE695762FA6
:1006D00076707068607C20723327622B2E2F207119
:1006E0002260622BE695E270E06278B96BB9EEB9F0
:1006F00037E831BB00C000C041BB96958795969501
:100700008795282F782F770F682F6695221F22272D
:10071000221FE72FE6702E2B2068807199278260B8
:10072000972F990F9072982B707C972B627028B935
:100730009BB96EB931BB41BB58B981E085B993E42F
:1007400098B990ED9BB990EA9EB931BB41BB58B9BD
:1007500085B987E488B980EF8BB982EA8EB931BB5D
:10076000FFBFF501E058F14F80819181480E591E7D
:10077000611C711C77FE02C00C948112411451045B
:1007800081E0680671042CF044244A94542C612CB6
:10079000712C4FB7F89426EC21BB30EC38B9852D7D
:1007A0009927582F5695752F7695652F6670606836
:1007B000507C80729927582B872F80718260582B2C
:1007C00076957270706268B95BB97EB997E891BB33
:1007D00000C000C021BB5694479456944794842D82
:1007E000642D660F542D5695881F8827881F762FF5
:1007F0007670872B8068F201E071FF27E260762F28
:10080000770F70727E2B607C762B527088B97BB923
:100810005EB991BB21BB38B961E065B957E458B9FD
:1008200080ED8BB982EA8EB991BB21BB38B965B92D
:1008300058B920EF2BB98EB991BB4FBF2BA53CA562
:10084000AA27029FB12D1303C001309FB00D811D57
:100850009A1F12039A0BB00D811D9A1F1124AA270B
:1008600097FDA095BA2F4FA158A569A57AA5840F29
:10087000951FA61FB71FF501E457F14F2081318165
:10088000820F931FA11DB11DB7FF02C00C947C12F3
:10089000009751E0A507B10524F08FEF9FEFA0E08E
:1008A000B0E0EFB7F89456EC51BB60EC68B9292F73
:1008B0003327422F4695F42FF695742F7670706883
:1008C000407C20723327422B3F2F30713260432B04
:1008D0002F2F26952270206278B94BB92EB947E8A0
:1008E00041BB00C000C051BB9695879596958795F2
:1008F000282F782F770F382F3695221F2227221F77
:10090000F72FF6702F2B2068807199278260972F20
:10091000990F9072982B707C972B327028B99BB9E5
:100920003EB941BB51BB68B971E075B983E488B980
:1009300080EE8BB9A2EAAEB941BB51BB68B975B9BB
:10094000B7E4B8B980EFC82ECBB8AEB941BBEFBFA2
:100950008CE2889DF001899DF00D1124E358F24F3F
:10096000808191819FB6F89451BB68B9292F3327B4
:10097000F22FF695AF2EA694EF2FE670E068F07C8C
:1009800020723327F22B2A2D20712260F22B2A2D80
:10099000269522702062E8B9FBB92EB941BB00C090
:1009A00000C051BB9695879596958795282FF82F6F
:1009B000FF0F382F3695221F2227221FE6E0BE2E7A
:1009C000BF222B2920688071992782609F2F990F61
:1009D0009072982BF07C9F2B327028B99BB93EB94E
:1009E00041BB51BB68B975B9B8B980EB8BB980EA26
:1009F0008EB941BB51BB68B975B9B8B9CBB8AEB9FE
:100A000041BB9FBE8091F80B8095881F8827881F67
:100A100091E098279D8F882309F40CC2D1100C9483
:100A200054122D2D220F30E08CE2829FF001839F23
:100A3000F00D1124EF5AF34F44A155A14101AA240E
:100A400097FCA094BA2CB701AA27649FB12D750317
:100A50002001569FB00D411C5A1E74035A0AB00D56
:100A6000411C5A1E11248DA1880F90E0662457FC6A
:100A70006094762C480C591C6A1C7B1C880F991FAB
:100A8000FC01EC58F14F0190F081E02D4E0E5F1EFD
:100A9000611C711C77FE02C00C949A12411451041F
:100AA00071E0670671042CF044244A94542C612CA4
:100AB000712CB201CFB6F894A6ECA1BBB0ECB8B9DA
:100AC000E52DFF277E2E7694572C56940F2EF6E0B8
:100AD0006F2EF02D67206894442447F864287B2209
:100AE000E072FF277E2AE52DE071E2607E2AE52D87
:100AF000E695E270E06268B87BB8EEB9F7E8F1BB62
:100B000000C000C0A1BB7695679576956795E62FE6
:100B1000662E660C762E7694EE1FEE27EE1F0F2EB5
:100B2000F6E05F2EF02D5620E529E068607177270A
:100B30006260762D770F7072762B662D607C762B37
:100B400062E07622E8B97BB97EB8F1BBA1BBB8B947
:100B500061E065B975E478B970ED7BB970EA7EB98A
:100B6000F1BBA1BBB8B965B967E468B960EF6BB90F
:100B700062EA6EB9F1BBCFBEFC01E058F14F608173
:100B80007181860E971EA11CB11CB7FE02C00C9489
:100B900095128114910471E0A706B1042CF0882409
:100BA0008A94982CA12CB12CAFB6F894E6ECE1BB5A
:100BB000F0ECF8B9692D7727B62FB695BB2EB69411
:100BC000AB2FA670A068B07C60727727B62B6B2D18
:100BD00060716260B62B6B2D669562706062A8B919
:100BE000BBB96EB977E871BB00C000C0E1BB969499
:100BF000879496948794682DC82CCC0CB82DB69504
:100C0000661F6627661FA6E0BA2EBC206B296068A7
:100C1000A0E18A229924A2E04A2E8428BC2CBB0C95
:100C2000A0E2BA22B828A0EC4A2EC420BC28B27098
:100C300068B9BBB8BEB971BBE1BBF8B961E065B9D1
:100C4000B1E4B8B9B0EEBBB9B0EABEB971BBE1BBB3
:100C5000F8B965B967E468B960EF6BB962EA6EB973
:100C600071BBAFBEAA27049FB12D1503B001509FE1
:100C7000B00D611D7A1F14037A0BB00D611D7A1F30
:100C800011244AA15BA14A01AA2497FCA094BA2C82
:100C9000AB01662757FD6095762F840E951EA61E24
:100CA000B71EFC01E457F14F40815181840E951E1F
:100CB000A11CB11CB7FE02C00C94901281149104C7
:100CC00051E0A506B1042CF088248A94982CA12C1C
:100CD000B12CC401BFB6F89456EC51BB60EC68B9B6
:100CE000E92DFF277E2F7695472F4695A72FA670D3
:100CF000A068707CE072FF277E2BE42FE071E26039
:100D00007E2B469542704062A8B97BB94EB947E840
:100D100041BB00C000C051BB9695879596958795BD
:100D2000782FF82FFF0FE82FE695771F7727771F8B
:100D3000AF2FA6707A2B70688071992782609F2FE1
:100D4000990F9072982BF07C9F2BE27078B99BB929
:100D5000EEB941BB51BB68B9A1E0A5B985E488B93A
:100D600080EE8BB972EA7EB941BB51BB68B9A5B9B7
:100D7000F7E4CF2EC8B8B0EFBBB97EB941BBBFBE58
:100D80008CE2829FF001839FF00D1124E358F24F13
:100D9000808191819FB6F89451BB68B9292F332780
:100DA000F22FF695AF2EA694EF2FE670E068F07C58
:100DB00020723327F22B2A2D20712260F22B2A2D4C
:100DC000269522702062E8B9FBB92EB941BB00C05C
:100DD00000C051BB9695879596958795282FF82F3B
:100DE000FF0F382F3695221F2227221FE6E0BE2E46
:100DF000BF222B2920688071992782609F2F990F2D
:100E00009072982BF07C9F2B327028B99BB93EB919
:100E100041BB51BB68B9A5B981E488B980EB8BB9F6
:100E20007EB941BB51BB68B9A5B9C8B8BBB97EB9D9
:100E300041BB9FBE8091F90B8095881F8827881F32
:100E400091E098279E8F882309F40EC2D1100C944C
:100E50004A12AD2DAA0FAD0DEA2FF0E06CE2A69F6D
:100E6000D0011124AF5AB34F94962D913C91959790
:100E70004101AA2497FCA094BA2CB701AA27629F2B
:100E8000B12D7303A001369FB00D411D5A1F72038F
:100E90005A0BB00D411D5A1F11249DA1892F880F97
:100EA000890F90E02A01662457FC6094762C480C48
:100EB000591C6A1C7B1C880F991FDC01AC58B14F70
:100EC0006D917C91460E571E611C711C77FE02C00D
:100ED0000C948B124114510471E0670671042CF0DC
:100EE00044244A94542C612C712CA201CFB6F8945E
:100EF000A6ECA1BBB0ECB8B9652D7727762E769419
:100F0000572C56940F2EF6E06F2EF02D6720689424
:100F1000442447F864287B2260727727762A652D5F
:100F200060716260762A652D66956270606268B84D
:100F30007BB86EB977E871BB00C000C0A1BB569505
:100F4000479556954795642F642E660C742E7694BB
:100F5000661F6627661F0F2EF6E05F2EF02D5620C7
:100F600065296068407155274260562D550F5072B3
:100F7000542B462D407C542B42E0742268B95BB957
:100F80007EB871BBA1BBB8B951E055B947E448B9C7
:100F900060ED6BB960EA6EB971BBA1BBB8B955B968
:100FA00048B940EF4BB942EA4EB971BBCFBEDC0144
:100FB000A058B14F4D915C91840E951EA11CB11C9F
:100FC000B7FE02C00C9477128114910451E0A5067B
:100FD000B1042CF088248A94982CA12CB12CAFB6A3
:100FE000F89466EC61BB70EC78B9492D5527B42FA5
:100FF000B695BB2EB694AB2FA670A068B07C40729D
:101000005527B42B4B2D40714260B42B4B2D469588
:1010100042704062A8B9BBB94EB957E851BB00C095
:1010200000C061BB9694879496948794482DC82CF1
:10103000CC0CB82DB695441F4427441FA6E0BA2E09
:10104000BC204B294068A0E18A229924A2E04A2EC4
:101050008428BC2CBB0CA0E2BA22B828A0EC4A2EF3
:10106000C420BC28B27048B9BBB8BEB951BB61BB83
:1010700078B941E045B9B3E4B8B9B0EEBBB9B0EA6C
:10108000BEB951BB61BB78B945B947E448B940EF37
:101090004BB942EA4EB951BBAFBEAA27029FB12D50
:1010A0001303A001309FB00D411D5A1F12035A0BAC
:1010B000B00D411D5A1F11242AA13BA14901AA24A8
:1010C00097FCA094BA2C662757FD6095762F840E66
:1010D000951EA61EB71EDC01A457B14F2D913C9161
:1010E000820E931EA11CB11CB7FE02C00C9472129A
:1010F0008114910431E0A306B1042CF088248A9471
:10110000982CA12CB12CC401AFB7F89456EC51BB6C
:1011100060EC68B9292D3327422F4695B42FB69538
:10112000742F76707068407C20723327422B3B2FDF
:1011300030713260432B2B2F26952270206278B9B4
:101140004BB92EB947E841BB00C000C051BB9695D2
:10115000879596958795282F782F770F382F369576
:10116000221F2227221FB72FB6702B2B20688071D9
:1011700099278260972F990F9072982B707C972BEC
:10118000327028B99BB93EB941BB51BB68B9CC2478
:10119000C394C5B837E4B32EB8B880EE8BB972EA01
:1011A0007EB941BB51BB68B9C5B8B8B8B0EFAB2E7A
:1011B000ABB87EB941BBAFBF8CE28E9FD0018F9F91
:1011C000B00D1124A358B24F8D919C91EFB7F894B4
:1011D00051BB68B9292F3327F22FF695BF2FB6954B
:1011E000AF2FA670A068F07C20723327F22B2B2F34
:1011F00020712260F22BB695B270B062A8B9FBB92B
:10120000BEB941BB00C000C051BB9695879596956D
:101210008795282FF82FFF0F382F3695221F22276A
:10122000221FAF2FA6702A2B206880719927826019
:101230009F2F990F9072982BF07C9F2B327028B9BA
:101240009BB93EB941BB51BB68B9C5B883E488B905
:1012500080EB8BB97EB941BB51BB68B9C5B8B8B892
:10126000ABB87EB941BBEFBF8091FA0B8095881F68
:101270008827881F91E098279F8F882309F40DC243
:10128000D1100C9440122D2D220F220F30E08CE251
:10129000829FF001839FF00D1124EF5AF34F44A178
:1012A00055A14101AA2497FCA094BA2CB701AA2702
:1012B000649FB12D75032001569FB00D411C5A1E2D
:1012C00074035A0AB00D411C5A1E11248DA1880FB7
:1012D000880F90E0662457FC6094762C480C591CCB
:1012E0006A1C7B1C880F991FFC01EC58F14F019080
:1012F000F081E02D4E0E5F1E611C711C77FE02C056
:101300000C9486124114510471E0670671042CF0AC
:1013100044244A94542C612C712CB201CFB6F89419
:10132000A6ECA1BBB0ECB8B9E52DFF277E2E7694D4
:10133000572C56940F2EF6E06F2EF02D67206894F0
:10134000442447F864287B22E072FF277E2AE52D9B
:10135000E071E2607E2AE52DE695E270E06268B811
:101360007BB8EEB9F7E8F1BB00C000C0A1BB769531
:10137000679576956795E62F662E660C762E7694A1
:10138000EE1FEE27EE1F0F2EF6E05F2EF02D5620FB
:10139000E529E068607177276260762D770F7072BB
:1013A000762B662D607C762B62E07622E8B97BB9DD
:1013B0007EB8F1BBA1BBB8B971E075B961E468B999
:1013C00060ED6BB962EA6EB9F1BBA1BBB8B975B992
:1013D00077E478B970EF7BB96EB9F1BBCFBEFC0191
:1013E000E058F14F60817181860E971EA11CB11CDF
:1013F000B7FE02C00C946D128114910471E0A7062F
:10140000B1042CF088248A94982CA12CB12CAFB66E
:10141000F894E6ECE1BBF0ECF8B9692D7727B62F2C
:10142000B695BB2EB694AB2FA670A068B07C607248
:101430007727B62B6B2D60716260B62B6B2D66958E
:1014400062706062A8B9BBB96EB977E871BB00C0C1
:1014500000C0E1BB9694879496948794682DC82C1D
:10146000CC0CB82DB695661F6627661FA6E0BA2E6F
:10147000BC206B296068A0E18A229924A2E04A2E50
:101480008428BC2CBB0CA0E2BA22B828A0EC4A2EBF
:10149000C420BC28B27068B9BBB8BEB971BBE1BB8F
:1014A000F8B961E065B9B5E4B8B9B0EEBBB9B0EA76
:1014B000BEB971BBE1BBF8B965B967E468B960EF63
:1014C0006BB962EA6EB971BBAFBEAA27049FB12D9A
:1014D0001503B001509FB00D611D7A1F14037A0BE4
:1014E000B00D611D7A1F11244AA15BA14A01AA24F3
:1014F00097FCA094BA2CAB01662757FD6095762F18
:10150000840E951EA61EB71EFC01E457F14F4081C4
:101510005181840E951EA11CB11CB7FE01C0D9C714
:101520008114910451E0A506B1042CF088248A941A
:10153000982CA12CB12CC401AFB6F89456EC51BB39
:1015400060EC68B9E92DFF277E2F7695472F4695E9
:10155000A72FA670A068707CE072FF277E2BE42F77
:10156000E071E2607E2B469542704062A8B97BB97B
:101570004EB947E841BB00C000C051BB9695879566
:1015800096958795782FF82FFF0FE82FE695771F10
:101590007727771FAF2FA6707A2B706880719927F5
:1015A00082609F2F990F9072982BF07C9F2BE27096
:1015B00078B99BB9EEB941BB51BB68B971E075B957
:1015C00081E488B9F0EBBF2EBBB880EA8EB941BB8D
:1015D00051BB68B975B9A7E4CA2EC8B8B0EFBBB99A
:1015E000A2EAAEB941BBAFBE8CE2829FF001839FFD
:1015F000F00D1124E358F24F808191818FB6F89459
:1016000051BB68B9292F3327F22FF6959F2E969458
:10161000EF2FE670E068F07C20723327F22B292D43
:1016200020712260F22B292D269522702062E8B9C4
:10163000FBB92EB941BB00C000C051BB9695879540
:1016400096958795282FF82FFF0F382F3695221F54
:101650002227221FE6E0AE2EAF222A2920688071C1
:10166000992782609F2F990F9072982BF07C9F2B67
:10167000327028B99BB93EB941BB51BB68B975B945
:1016800085E488B9BBB8AEB941BB51BB68B975B97F
:10169000C8B8BBB9AEB941BB8FBE8091FB0B80957A
:1016A000881F8827881F91E0982798A3882309F42A
:1016B00003C2D110DCC6ED2DEE0FEE0FED0D6E2E38
:1016C000712C6CE2E69FF0011124EF5AF34F24A134
:1016D00035A14101AA2497FCA094BA2CA701AA27FE
:1016E000429FB12D5303B001349FB00D611D7A1F8D
:1016F00052037A0BB00D611D7A1F11249DA1892F11
:10170000880F880F890F90E06B01EE24D7FCE094DE
:10171000FE2CC80CD91CEA1CFB1C880F991FFC016D
:10172000EC58F14F0190F081E02DCE0EDF1EE11C50
:10173000F11CF7FCCAC6C114D10451E0E506F1045E
:101740002CF0CC24CA94DC2CE12CF12CB601FFB691
:10175000F894A6ECA1BBB0ECB8B9ED2DFF27EE2EA6
:10176000E694CE2CC69446E0D42EDE2050E8452EDA
:10177000D428EB22E072FF27EE2AFC2DF071F260F4
:10178000EF2AEC2DE695E270E062D8B8EBB8EEB93E
:10179000F7E8F1BB00C000C0A1BB769567957695D0
:1017A0006795E62FD62EDD0CE62EE694EE1FEE278B
:1017B000EE1F46E0C42ECD20EC29E068607177274B
:1017C00062607D2D770F7072762B6D2D607C762B8D
:1017D00042E0E422E8B97BB9EEB8F1BBA1BBB8B9ED
:1017E00071E075B963E468B960ED6BB962EA6EB92E
:1017F000F1BBA1BBB8B975B977E478B970EF7BB923
:101800006EB9F1BBFFBEFC01E058F14F6081718100
:1018100075016401C60ED71EE11CF11CF7FCA2C6BF
:10182000C114D10451E0E506F1042CF0CC24CA9493
:10183000DC2CE12CF12C1601DFB6F894F6ECF1BBB0
:10184000A0ECA8B9632D7727E62FE695EE2EE69457
:10185000BE2FB670B068E07C60727727E62B7E2DD5
:1018600070717260E72B6E2D669562706062B8B918
:10187000EBB96EB9E7E8E1BB00C000C0F1BB36943C
:10188000279436942794722DE22CEE0CF22CF694C9
:10189000771F7727771F6E2D6670762B706860E153
:1018A00026223324B2E02B2A6E2D660F6072622945
:1018B00040EC442EE4206E29FB2278B96BB9FEB8C7
:1018C000E1BBF1BBA8B971E075B967E468B950EE46
:1018D000F52EFBB8B0EAFB2EFEB8E1BBF1BBA8B910
:1018E00075B968B960EF6BB962EA6EB9E1BBDFBE8A
:1018F000AA27029FB12D1303B001309FB00D611DC7
:101900007A1F12037A0BB00D611D7A1F11244AA1B0
:101910005BA18A01222717FD2095322F6B01EE244F
:10192000D7FCE094FE2C0C0D1D1D2E1D3F1DFC014F
:10193000E457F14F80819181080F191F211D311D3E
:1019400037FD0CC60115110551E02507310524F0BE
:101950000FEF1FEF20E030E0EFB7F89476EC71BBAB
:10196000A0ECA8B9812F9927282F2695622F66957C
:10197000322F36703068207C80729927282B962F62
:1019800090719260292B862F86958270806238B97B
:101990002BB98EB967E861BB00C000C071BB16955A
:1019A000079516950795902F302F330F202F2695EA
:1019B000991F9927991F832F8670982B9068007123
:1019C00011270260832F880F8072802B307C832B3D
:1019D000227098B98BB92EB961BB71BBA8B9B1E0BF
:1019E000B5B983E488B920EBE22EEBB880EA8EB972
:1019F00061BB71BBA8B9B5B907E408B930EFF32EE4
:101A0000FBB812EA1EB961BBEFBF8CE2869DF00104
:101A1000879DF00D1124E358F24F80819181EFB73B
:101A2000F89471BBA8B9292F3327422F4695F42F7C
:101A3000F695542F56705068407C20723327422B05
:101A40003F2F30713260432B2F2F2695227020625A
:101A500058B94BB92EB961BB00C000C071BB969597
:101A6000879596958795282F482F440F382F3695C0
:101A7000221F2227221F542F5670252B2068807189
:101A800099278260942F990F9072982B407C942B09
:101A9000327028B99BB93EB961BB71BBA8B9B5B961
:101AA00008B9EBB81EB961BB71BBA8B9B5B908B923
:101AB000FBB81EB961BBEFBF65E36A95F1F70000A3
:101AC0004CA041109BC3AC960FB6F894DEBF0FBE7E
:101AD000CDBFDF91CF91FF91EF91BF91AF919F91DA
:101AE0008F917F916F915F914F913F912F911F91B6
:101AF0000F91FF90EF90DF90CF90BF90AF909F90AD
:101B00008F907F906F905F904F903F902F900F90AD
:101B10000BBE0F900FBE0F901F901895E1E08091C3
:101B2000720EE81BE093720EE1115BC4C12CD12C44
:101B30007601C092610ED092620EE092630EF09236
:101B4000640E20916B0E30916C0E40E050E00090DE
:101B5000710E04C0220F331F441F551F0A94D2F781
:101B6000FF27E1950CF4F095DF01AA0FBB1F11963A
:101B70000E94EF486093650E7093660E8093670E27
:101B80009093680E113009F4FCC6133009F4DFC6D7
:101B900046015701123011F00C94AA01FF24EB2CDE
:101BA000DA2CC92C9601D0926E0EC0926D0E0C9458
:101BB000B2018091F20E9091F30E4091980E5091E7
:101BC000990E2091740E3091750E2417350708F088
:101BD00015C4421B530B8417950708F4AC01420F40
:101BE000531F5093750E4093740E4091A40E509164
:101BF000A50E2091800E3091810E2417350708F430
:101C0000BAC44217530770F4D901A41BB50BAD0138
:101C10008A179B0708F4DEC6241B350B3093810E10
:101C20002093800E4091B00E5091B10E20918C0EF9
:101C300030918D0E2417350708F4F1C4421753076D
:101C400070F4B901641B750BAB018617970708F494
:101C5000A3C6241B350B30938D0E20938C0E409120
:101C60009A0E50919B0E2091760E3091770E24178C
:101C7000350708F4C7C44217530770F4D901A41BF1
:101C8000B50BAD018A179B0708F48AC6241B350BD8
:101C90003093770E2093760E4091A60E5091A70EAA
:101CA0002091820E3091830E2417350708F447C522
:101CB0004217530770F4B901641B750BAB0186170B
:101CC000970708F46BC6241B350B3093830E2093C3
:101CD000820E4091B20E5091B30E20918E0E309133
:101CE0008F0E2417350708F41DC54217530770F4EB
:101CF000D901A41BB50BAD018A179B0708F458C680
:101D0000241B350B30938F0E20938E0E40919C0E2A
:101D100050919D0E2091780E3091790E2417350741
:101D200008F4F3C44217530770F4B901641B750B30
:101D3000AB018617970708F439C6241B350B30937F
:101D4000790E2093780E4091A80E5091A90E209103
:101D5000840E3091850E2417350708F4C9C4421744
:101D6000530770F4D901A41BB50BAD018A179B076B
:101D700008F41AC6241B350B3093850E2093840E6D
:101D80004091B40E5091B50E2091900E3091910E6D
:101D90002417350708F49FC44217530770F4B9019C
:101DA000641B750BAB018617970708F4FBC5241B52
:101DB000350B3093910E2093900E40919E0E5091D2
:101DC0009F0E20917A0E30917B0E2417350708F470
:101DD00075C44217530770F4D901A41BB50BAD01AC
:101DE0008A179B0708F4F4C5241B350B30937B0E30
:101DF00020937A0E4091AA0E5091AB0E2091860E40
:101E00003091870E2417350708F44BC44217530747
:101E100070F4B901641B750BAB018617970708F4C2
:101E2000D5C5241B350B3093870E2093860E409129
:101E3000B60E5091B70E2091920E3091930E24174A
:101E4000350708F421C44217530770F4D901A41BC5
:101E5000B50BAD018A179B0708F4B6C5241B350BDB
:101E60003093930E2093920E4091A00E5091A10EAC
:101E700020917C0E30917D0E2417350708F4B5C3F0
:101E80004217530770F4B901641B750BAB01861739
:101E9000970708F497C5241B350B30937D0E2093CC
:101EA0007C0E4091AC0E5091AD0E2091880E309179
:101EB000890E2417350708F48BC34217530770F4B3
:101EC000D901A41BB50BAD018A179B0708F478C58F
:101ED000241B350B3093890E2093880E4091B80E49
:101EE0005091B90E2091940E3091950E241735071C
:101EF00008F461C34217530770F4B901641B750BF2
:101F0000AB018617970708F459C5241B350B30938E
:101F1000950E2093940E4091A20E5091A30E209105
:101F20007E0E30917F0E2417350708F031C3421B17
:101F3000530B8417950708F4AC01420F531F5093BD
:101F40007F0E40937E0E4091AE0E5091AF0E2091C9
:101F50008A0E30918B0E2417350708F082C3421B7E
:101F6000530B8417950708F4AC01420F531F50938D
:101F70008B0E40938A0E4091BA0E5091BB0E209169
:101F8000960E3091970E2417350708F055C3421B63
:101F9000530B8417950708F4AC01420F531F50935D
:101FA000970E4093960E0C947B01D12C833021F038
:101FB000843011F00C94FF0191E08091F40E8111B6
:101FC00090E0492F50E05EA34DA3C92E81E59CE02F
:101FD0000E946C2489E59DE00E946C248091F60BA0
:101FE0008095881F8827881F91E0282F29272B8F0D
:101FF00081110C941E028091F70B8095881F882711
:10200000881F98279C8F882311F40C9402052101C6
:10201000662457FC6094762C4AA15BA1662757FD85
:102020006095762F4FA358A769A77AA70C941C0335
:102030001BA21AA224FD02C00C94E701AA2797FD57
:10204000A095BA2F2091E60B3091E70B4091A50B9C
:1020500040FFCDC1AC01BD01420F531F611D711D79
:1020600077FDC2C44115510521E06207710524F0D6
:102070004FEF5FEF60E070E0652F752F7695272FAB
:102080002695F72FF670F068322F3071607232604B
:10209000707C762B732B269522702062569547957F
:1020A00056954795642F342F330FE42FE695661F1E
:1020B0006627661F132F1670612B606840715527C5
:1020C0004260532F550F5072542B307C532BE270CB
:1020D0001FB7F89436EC31BB40EC48B9F8B97BB97E
:1020E0002EB927E821BB00C000C031BB68B95BB97D
:1020F000EEB921BB31BB48B961E065B951E458B9CB
:1021000050E75BB952EA5EB921BB31BB48B965B94A
:1021100037E438B930EF3BB95EB921BB1FBF20911E
:10212000D00B3091D10B4091A50B41FFC7C1820F5D
:10213000931FA11DB11DB7FD53C4009731E0A30744
:10214000B10524F08FEF9FEFA0E0B0E0392F692FA9
:102150006695562F5695E62FE670E068252F20717C
:1021600030722260607C632B622B569552705062F5
:102170009695879596958795482F382F330F782F0A
:102180007695441F4427441F232F2670422B406816
:10219000807199278260232F220F2072282B307C98
:1021A000232B7270FFB7F89496EC91BB30EC38B9E2
:1021B000E8B96BB95EB987E881BB00C000C091BBCC
:1021C00048B92BB97EB981BB91BB38B951E055B93B
:1021D00047E448B920E72BB922EA2EB981BB91BB6D
:1021E00038B955B948B990EF9BB92EB981BBFFBF3B
:1021F0000C94E701212C312C0C94DD0180910B0C07
:102200008111B6C08091F60B87FD05C08091840DC9
:10221000882309F4F1C38091F70B87FD05C08091F5
:10222000B00D882309F4E4C38091F80B87FD05C045
:102230008091DC0D882309F4FDC38091F90B87FDA3
:1022400005C08091080E882309F4F0C38091FA0B31
:1022500087FD05C08091340E882309F4E3C3809183
:10226000FB0B87FD05C08091600E882309F4B5C083
:102270008B8D811139C38C8D811104C38D8D81119A
:10228000CFC28E8D81119AC28F8D811165C288A1B6
:10229000882309F418CC6FB7F89496EC91BB20EC26
:1022A00028B940E848B932E03BB980E28EB987E806
:1022B00081BB00C000C091BB48B93BB91EB881BB0F
:1022C00091BB28B951E055B947E448B930EB3BB967
:1022D00032EA3EB981BB7DE07A95F1F7000091BB0F
:1022E00028B955B948B990EF9BB93EB981BB88E28E
:1022F0008A95F1F76FBFE7CB1092700E10926F0EB8
:1023000080E090E00C94D6018091E80B9091E90B6D
:10231000A0E0B0E09058A109B1097C010C94F8014B
:10232000F92CEA2DEF3F09F434C32A2D2F5F30E05A
:10233000220F331FF0E0EE0FFF1FEE55F64F019016
:10234000F081E02DD901AE55B64F2D913C912E1B59
:102350003F0B032F1127F09E9001F19E300D1124A9
:102360002E0F3F1F30936E0E20936D0E0C94B20112
:102370008091F60B87FD05C08091840D882309F4B8
:102380004EC38091F70B87FD05C08091840D882393
:1023900009F441C38091F80B87FD05C08091840D3D
:1023A000882309F434C38091F90B87FD05C080911F
:1023B000840D882309F427C38091FA0B87FD05C09B
:1023C0008091840D882309F41AC38091FB0B87FD4B
:1023D0004FCF8091840D81114BCF85E00E94242046
:1023E00047CFCC24CA94DC2CEC2CF12CA2CBE2E01D
:1023F00052EF67E822E272E7F6E86ACE4217530727
:1024000008F0F3CBB901641B750BAB018617970776
:1024100008F4E2C2241B350B3093750E2093740E22
:10242000E4CB8091F70B8095881F8827881F982F11
:102430009C259C8F882311F40C94020521016624AD
:1024400057FC6094762C2AA13BA1442737FD409588
:10245000542F2FA338A749A75AA78DE79CE00E94C5
:102460006C2485E89DE00E946C240C941C038DE292
:102470009DE00E946C2485E39EE00E946C241BC9B1
:1024800081E09DE00E946C2489E09EE00E946C2423
:102490000C94430985ED9CE00E946C248DED9DE039
:1024A0000E946C240C94290789EA9CE00E946C2409
:1024B00081EB9DE00E946C240C94110572E022EFE8
:1024C00047E852E262E7E6E86DCEC12CD12C7601F6
:1024D00032C9812C912C540123C8812C912C540198
:1024E0000C94FC09812C912C54010C947808812CBB
:1024F000912C54010C94E40780E090E0DC010C94F2
:102500004804412C512C32010C94BE03412C512C17
:1025100032010C948209412C512C32010C946A072F
:10252000812C912C54010C945E06812C912C540129
:102530000C94C905412C512C32010C944E0580E0BD
:1025400090E0DC010C94520380E090E0DC010C94FC
:10255000A80280E090E0DC010C946B0200E010E047
:102560009801F0C9C12CD12C76015AC940E050E045
:10257000BA010C944C02421B530B8417950708F4C4
:10258000AC01420F531F5093810E4093800E4ACBF3
:102590004217530708F0D7CCD901A41BB50BAD01E6
:1025A0008A179B0708F408C2241B350B30937F0E53
:1025B00020937E0EC8CC421B530B8417950708F45A
:1025C000AC01420F531F5093950E4093940EA3CC31
:1025D000421B530B8417950708F4AC01420F531F9D
:1025E0005093890E4093880E79CC421B530B84176D
:1025F000950708F4AC01420F531F50937D0E409392
:102600007C0E4FCC421B530B8417950708F4AC018A
:10261000420F531F5093770E4093760E3DCB421BD3
:10262000530B8417950708F4AC01420F531F5093C6
:102630008D0E40938C0E13CB4217530710F00C9461
:102640007B01D901A41BB50BAD018A179B0708F4C8
:10265000B1C1241B350B3093970E2093960E0C942A
:102660007B014217530708F086CCB901641B750B38
:10267000AB018617970708F4B1C1241B350B3093C3
:102680008B0E20938A0E77CC421B530B8417950731
:1026900008F4AC01420F531F5093930E4093920ED7
:1026A000E3CB421B530B8417950708F4AC01420F90
:1026B000531F5093870E4093860EB9CB421B530B8A
:1026C0008417950708F4AC01420F531F50937B0EFB
:1026D00040937A0E8FCB421B530B8417950708F457
:1026E000AC01420F531F5093910E4093900E65CB57
:1026F000421B530B8417950708F4AC01420F531F7C
:102700005093850E4093840E3BCB421B530B841792
:10271000950708F4AC01420F531F5093790E409374
:10272000780E11CB421B530B8417950708F4AC01AC
:10273000420F531F50938F0E40938E0EE7CA421BD9
:10274000530B8417950708F4AC01420F531F5093A5
:10275000830E4093820EBDCA5FB7F89496EC91BB8E
:1027600020EC28B940E848B932E03BB980E28EB9A4
:1027700087E881BB00C000C091BB48B93BB91EB817
:1027800081BB91BB28B941E045B935E438B930EB9C
:102790003BB932EA3EB981BBADE0AA95F1F7000042
:1027A00091BB28B945B997E498B990EF9BB93EB968
:1027B00081BBB8E2BA95F1F75FBF69CD5FB7F89416
:1027C00096EC91BB20EC28B940E848B932E03BB91F
:1027D00080E28EB987E881BB00C000C091BB48B9D8
:1027E0003BB91EB881BB91BB28B941E045B933E480
:1027F00038B930EB3BB932EA3EB981BB6DE06A953E
:10280000F1F7000091BB28B945B997E498B990EF6A
:102810009BB93EB981BB78E27A95F1F75FBF34CDC1
:102820005FB7F89496EC91BB20EC28B940E848B922
:1028300032E03BB980E28EB987E881BB00C000C0BE
:1028400091BB48B93BB91EB881BB91BB28B941E0E7
:1028500045B931E438B930EB3BB932EA3EB981BB16
:10286000ADE0AA95F1F7000091BB28B945B997E40E
:1028700098B990EF9BB93EB981BBB8E2BA95F1F730
:102880005FBFFFCC5FB7F89496EC91BB20EC28B902
:1028900040E848B932E03BB980E28EB987E881BBB5
:1028A00000C000C091BB48B93BB91EB881BB91BB09
:1028B00028B941E045B937E438B960EB6BB960EA53
:1028C0006EB981BB7DE07A95F1F7000091BB28B924
:1028D00045B938B990EF9BB992EA9EB981BB88E2BD
:1028E0008A95F1F75FBFCACC5FB7F89496EC91BBBD
:1028F00020EC28B940E848B932E03BB980E28EB913
:1029000087E881BB00C000C091BB48B93BB91EB885
:1029100081BB91BB28B931E035B945E448B940EBFA
:102920004BB940EA4EB981BB4DE04A95F1F7000042
:1029300091BB28B935B997E498B990EF9BB992EA61
:102940009EB981BB68E26A95F1F75FBF94CC0E94A3
:10295000D74890936E0E80936D0E1091730E609118
:10296000650E7091660E8091670E9091680E809052
:10297000610E9090620EA090630EB090640E0C9465
:10298000A601F0936E0EE0936D0E460157010C9474
:10299000AE012EEF31E0CECCAC015BC9AC0193C9E6
:1029A000AC0174C9AC0103CAAC01E4C9AC01C5C92E
:1029B000AC01A6C9AC014DCEAC01F6CDAC01A5CAA7
:1029C000AC0186CAAC0167CAAC0148CAAC0129CACD
:1029D000AC010ACAAC0120C9AC011CCDAC014DCE82
:1029E00080E090E0DC01A9CB40E050E0BA013ACBB6
:1029F00081E00E94242018CC0E9424200CCC84E08A
:102A00000E942420E2CC83E00E942420D5CC82E0E6
:102A10000E942420C8CC81E00E942420BBCC0E94CC
:102A20002420AFCC84E00E94242019CC83E00E94B3
:102A300024200CCC82E00E942420FFCB9091A61091
:102A4000992309F440C09FB7F89423E02093E9004C
:102A50002091A11021112FC03091E4003C5F209102
:102A6000E80025FD1CC09FBF9091E400931769F119
:102A70009091A610992339F143E009C09FBF90912E
:102A8000E400931711F19091A6109923E1F09FB7FC
:102A9000F8944093E9002091E80025FFEFCF809360
:102AA000F1008091E80085FF15C082E08093A510B9
:102AB0009FBF80E008952091E80025FF03C0109299
:102AC000A110CACF9FBF8FEF089581E08093A1101E
:102AD0008FEF08958AE38093E8001092A5109FBFBE
:102AE00080E008955AE05A95F1F700C046EC41BBEA
:102AF00030EC38B980EE87B997E09AB98DB915B83E
:102B000080E488B91BB880E28EB987E481BB00C03D
:102B100000C026B199B18CB141BB38B937EE37B995
:102B200037EF3AB932EE3DB9422F4695437050E83F
:102B3000259F90011124422B292F2071422B292FF0
:102B4000269526952870422B96959076492B90E0F5
:102B5000880F991F84709927842B089586EC81BB78
:102B600080EC88B915B880E488B91BB88EB987E8BD
:102B700081BB8AE08A95F1F700C00895CF93C82FF2
:102B800082958F708A3050F097E3890F57DFCF70AE
:102B9000CA3050F087E38C0FCF9150CF90E3890F6C
:102BA0004DDFCF70CA30B0F780E38C0FCF9146CFA6
:102BB000CF93882309F46DC08091FC0E8F5F8093C2
:102BC000FC0E853148F081E09091FD0E9111DEC040
:102BD0008093FD0E1092FC0E8091FE0E8F5F80930D
:102BE000FE0E8D3008F446C0C091000FCC2309F4CE
:102BF00041C0E5E0FFE001900020E9F7E650FF402A
:102C00002091FF0E332727FD3095C90101966E2FC5
:102C1000772767FD70950E945344E82FFF27E7FD53
:102C2000F095EA50F14F9785F901EA50F14F478549
:102C300050E04038510508F0BCC0FA01E25DFA4F9F
:102C400020812093FA0E292F30E02038310508F03A
:102C5000AEC0F901E25DFA4F90819093FB0E809334
:102C6000FF0E1092FE0E811105C01C161CF4C150FF
:102C7000C093000FE091010FE13009F47CC008F42B
:102C80006FC0E23009F488C020E0F0E0EA50F14F74
:102C90002487AFB7F89466EC61BB50EC58B941E0BB
:102CA00045B980E488B91BB880E28EB937E831BBFA
:102CB00000C000C080E190E00090010F02C0880FCA
:102CC000991F0A94E2F7282F61BB58B9E82FEE0F3D
:102CD000782F7695221F2227221F9E2F9670292B50
:102CE000206480719E2F990F9072982BE07C9E2B10
:102CF000727045B928B99BB97EB931BB00C000C01C
:102D0000E091010FF0E0EA50F14F848561BB58B9C2
:102D1000582F550F982F9695252F26702064682FD1
:102D2000661F6627661F262B682F6071852F880F08
:102D30008072862B507C852B9270906245B928B9A1
:102D40008BB99EB931BBAFBF8091010F90E0019666
:102D500063E070E00E9453448093010FCF91089587
:102D60002091F60E8091FD0E882309F48ECF80917C
:102D7000F80E28278ACF2091FA0E2F778091F60E31
:102D80009091F70E91FF81CF20687FCF80E08093F4
:102D9000FD0E1092FC0E20CF2091FB0E2F7780911C
:102DA000F60E9091F70E90FF70CF20686ECF9FEFD8
:102DB00054CF2FEF46CF982F96959695969528E06D
:102DC00030E001C0220F9A95EAF72095287F87709E
:102DD000282BFFB7F89436EC31BB50EC58B9872F4D
:102DE0009927E82FE695BE2FB695AE2FA670A0685E
:102DF000E07C80729927E82B9B2F90719260E92BE1
:102E00008B2F869582708062A8B9EBB98EB997E84E
:102E100091BB00C000C031BB7695679576956795EC
:102E2000E62FB62FBB0FA62FA695EE1FEE27EE1F9F
:102E30008B2F8670E82BE0686071772762608B2F9C
:102E4000880F8072862BB07C8B2BA270E8B98BB96F
:102E5000AEB991BB31BB58B9822F880F722F7695CE
:102E6000E22FEE1FEE27EE1F682F6670E62BE06460
:102E70002071682F660F6072622B807C682B7270E5
:102E8000706A81E085B9E8B96BB97EB991BB41112F
:102E90000CC031BB58B985B987E488B980EF8BB9CC
:102EA00082EA8EB991BBFFBF08952DE02A95F1F714
:102EB000000031BB58B985B987E488B980EF8BB978
:102EC00082EA8EB991BB88E28A95F1F7FFBF089537
:102ED000982F96959695969528E030E001C0220FA0
:102EE0009A95EAF72095287F8770282BAFB7F8943A
:102EF00056EC51BBE0ECE8B9872F9927382F36956F
:102F0000F32FF695432F46704068307C80729927E6
:102F1000382B9F2F90719260392B8F2F869582705E
:102F2000806248B93BB98EB947E841BB00C000C0D8
:102F300051BB7695679576956795962FF62FFF0F7F
:102F4000362F3695991F9927991F8F2F8670982BAA
:102F500090686071772762608F2F880F8072862B50
:102F6000F07C8F2B327098B98BB93EB941BB51BB05
:102F7000E8B9622F660F922F9695322F331F3327B1
:102F8000331F862F8670382B30642071862F880F70
:102F90008072822B607C862B9270906A21E025B92A
:102FA00038B98BB99EB941BB51BBE8B925B987E4A3
:102FB00088B980EF8BB982EA8EB941BBAFBF089563
:102FC0008091C00E880F8F5F9091A50B92959170A4
:102FD000890F8093730E8091C20E880F8093710EBB
:102FE000A091720E20916B0E30916C0E40E050E07B
:102FF00004C0220F331F441F551F8A95D2F7BB27E9
:10300000A1950CF4B095AA0FBB1F11960E94EF4832
:103010006093650E7093660E8093670E9093680EB2
:10302000089586EC81BB80EC88B915B880E488B936
:103030001BB880E28EB987E881BB8AE08A95F1F7F8
:1030400000C00895CF93DF934DDDC82FD0E04ADD57
:10305000382F20E0C22BD32BE4DFE3DF9E01209545
:103060003095265F3F4FC901DF91CF91089586ECDF
:1030700081BB80EC88B915B882E488B91BB880E4BC
:103080008EB987E881BB8AE08A95F1F700C0089580
:10309000AF92BF92CF92DF92EF92FF920F931F9366
:1030A000CF93DF93062F9BEA899FA12C1124A6942E
:1030B000A694A6946A2D70E0683071050CF06FC07C
:1030C000A394B12C10E09B01220F331FF901EE0FE6
:1030D000FF1FEE0FFF1FEE0FFF1FE20FF31FE00FAA
:1030E000F11FEE0FFF1FE95CF04FC081D1819BEA19
:1030F000899F912D1124969596959695692F660F27
:10310000690F660F660F861B682F70E080E090E005
:103110000E947C452BEA3AEA4AEA5DE30E94AE4609
:103120006B017C01AA0CBB1CF501EE0FFF1FEE0F1B
:10313000FF1FEE0FFF1FEA0DFB1DE00FF11FEE0F4B
:10314000FF1FE95CF04F608171816C1B7D0B80E09B
:1031500090E00E947A459B01AC01C701B6010E9434
:10316000AE466B017C01BE0180E090E00E947A4592
:103170009B01AC01C701B6010E947B440E945D47E0
:103180000E944E456C7FCB01DF91CF911F910F9133
:10319000FF90EF90DF90CF90BF90AF900895C9E07F
:1031A000AC2EB12C8FCFE82FF0E0EE0FFF1FE95CC3
:1031B000F04F6081718180E090E00E947A450E942A
:1031C0005D470E944E456C7FCB0108952F923F9240
:1031D0004F925F926F927F928F929F92AF92BF9227
:1031E000CF92DF92EF92FF920F931F93CF93DF93D3
:1031F000CDB7DEB72E970FB6F894DEBF0FBECDBFAA
:103200000091D50B10E0005811098091F40B9091BA
:10321000F50B880F892F881F990B91959C013A9582
:103220003A872987C090B80BD090B90BE12CF12CCC
:103230008090F30B869486949090F10B96949694DC
:103240007090BE0E6090F40E30910B0C3B83709129
:10325000FC0B8091F60B87FF37C07091FD0B8091BE
:10326000F70B87FFDDC07091FE0B8091F80B87FF95
:1032700083C17091FF0B8091F90B87FF29C2709178
:10328000000C8091FA0B87FFCFC27091010C8091E6
:10329000FB0B87FF75C32E960FB6F894DEBF0FBEEB
:1032A000CDBFDF91CF911F910F91FF90EF90DF90F5
:1032B000CF90BF90AF909F908F907F906F905F90D6
:1032C0004F903F902F9008951801442437FC40946C
:1032D000542C2091CA0E3091CB0EC901AA2797FD1C
:1032E000A095BA2F820D931DA41DB51D8B879C87B9
:1032F000AD87BE8760E0882D870F7887C9DE2B8574
:103300003C854D855E85280F391F411D511DDA0111
:10331000C901788557FDE9C5009731E0A307B105DC
:103320000CF001C49A8389832091D60E3091D70E78
:10333000442737FD4095542F220D331D441D551D44
:1033400029843A84C101AA2797FDA095BA2F280F96
:10335000391F4A1F5B1F66E0892D870F2C833D8331
:103360004E835F83788794DE2C813D814E815F811F
:1033700019012A01280E391E411C511CD201C1011C
:10338000788557FCAEC5009721E0A207B1050CF087
:10339000C5C35C0177FCC9C42091E20E3091E30EF5
:1033A000442737FD4095542F2C0D3D1D4E1D5F1DAC
:1033B0006CE0872F2C833D834E835F8369DE072C6F
:1033C00002C0969587950A94E2F72C813D814E8143
:1033D0005F8119012A01280E391E411C511CD2019E
:1033E000C10157FCBAC5009721E0A207B1050CF056
:1033F0009FC39C016110FCC349815A815093750E93
:103400004093740EB092810EA092800E30938D0E78
:1034100020938C0E7091FD0B8091F70B87FD23CFCD
:103420001801442437FC4094542C2091CC0E309148
:10343000CD0EC901AA2797FDA095BA2F820D931D25
:10344000A41DB51D8B879C87AD87BE8761E0872F44
:10345000880D78871DDE2B853C854D855E85280F80
:10346000391F411D511DDA01C901788557FD65C518
:10347000009731E0A307B1050CF023C39A83898339
:103480002091D80E3091D90E442737FD4095542F06
:10349000220D331D441D551D29843A84C101AA27DC
:1034A00097FDA095BA2F280F391F4A1F5B1F67E0B1
:1034B000872F890D2C833D834E835F837887E8DDDA
:1034C0002C813D814E815F8119012A01280E391E10
:1034D000411C511CD201C101788557FC2AC50097B7
:1034E00021E0A207B1050CF0E7C25C0177FCCDC476
:1034F0002091E40E3091E50E442737FD4095542F7E
:103500002C0D3D1D4E1D5F1D6DE0872F2C833D83CF
:103510004E835F83BDDD072C02C0969587950A9484
:10352000E2F72C813D814E815F8119012A01280E2D
:10353000391E411C511CD201C10157FC06C5009720
:1035400021E0A207B1050CF0F8C29C01611060C334
:1035500049815A815093770E4093760EB092830E34
:10356000A092820E30938F0E20938E0E7091FE0BE0
:103570008091F80B87FD7DCE1801442437FC4094E0
:10358000542C2091CE0E3091CF0EC901AA2797FD61
:10359000A095BA2F820D931DA41DB51D8B879C8706
:1035A000AD87BE8762E0872F880D788771DD2B8518
:1035B0003C854D855E85280F391F411D511DDA015F
:1035C000C901788557FDB1C4009731E0A307B10563
:1035D0000CF081C29A8389832091DA0E3091DB0E40
:1035E000442737FD4095542F220D331D441D551D92
:1035F00029843A84C101AA2797FDA095BA2F280FE4
:10360000391F4A1F5B1F68E0872F890D2C833D837C
:103610004E835F8378873CDD2C813D814E815F81C5
:1036200019012A01280E391E411C511CD201C10169
:10363000788557FC76C4009721E0A207B1050CF00D
:1036400045C25C0177FC9DC32091E60E3091E70EE8
:10365000442737FD4095542F2C0D3D1D4E1D5F1DF9
:103660006EE0872F2C833D834E835F8311DD072C13
:1036700002C0969587950A94E2F72C813D814E8190
:103680005F8119012A01280E391E411C511CD201EB
:10369000C10157FC56C4009721E0A207B1050CF008
:1036A0005BC29C01611062C249815A815093790EBC
:1036B0004093780EB092850EA092840E3093910EB6
:1036C0002093900E7091FF0B8091F90B87FDD7CD61
:1036D0001801442437FC4094542C2091D00E309192
:1036E000D10EC901AA2797FDA095BA2F820D931D6F
:1036F000A41DB51D8B879C87AD87BE8763E0872F90
:10370000880D7887C5DC2B853C854D855E85280F27
:10371000391F411D511DDA01C901788557FDFDC3CF
:10372000009731E0A307B1050CF0DFC19A838983CC
:103730002091DC0E3091DD0E442737FD4095542F4B
:10374000220D331D441D551D29843A84C101AA2729
:1037500097FDA095BA2F280F391F4A1F5B1F69E0FC
:10376000872F890D2C833D834E835F83788790DC80
:103770002C813D814E815F8119012A01280E391E5D
:10378000411C511CD201C101788557FCC2C300976E
:1037900021E0A207B1050CF0A3C15C0177FC49C38D
:1037A0002091E80E3091E90E442737FD4095542FC3
:1037B0002C0D3D1D4E1D5F1D6FE0872F2C833D831B
:1037C0004E835F8365DC072C02C0969587950A942B
:1037D000E2F72C813D814E815F8119012A01280E7B
:1037E000391E411C511CD201C10157FCB2C30097C4
:1037F00021E0A207B1050CF0A5C19C01611029C20E
:1038000049815A8150937B0E40937A0EB092870E75
:10381000A092860E3093930E2093920E7091000C1E
:103820008091FA0B87FD31CD1801442437FC409478
:10383000542C2091D20E3091D30EC901AA2797FDA6
:10384000A095BA2F820D931DA41DB51D8B879C8753
:10385000AD87BE8764E0872F880D788719DC2B85BC
:103860003C854D855E85280F391F411D511DDA01AC
:10387000C901788557FD49C3009731E0A307B10519
:103880000CF03DC19A8389832091DE0E3091DF0ECA
:10389000442737FD4095542F220D331D441D551DDF
:1038A00029843A84C101AA2797FDA095BA2F280F31
:1038B000391F4A1F5B1F6AE0872F890D2C833D83C8
:1038C0004E835F837887E4DB2C813D814E815F816D
:1038D00019012A01280E391E411C511CD201C101B7
:1038E000788557FC0EC3009721E0A207B1050CF0C4
:1038F00001C15C0177FC71C22091EA0E3091EB0EA0
:10390000442737FD4095542F2C0D3D1D4E1D5F1D46
:1039100060E1872F2C833D834E835F83B9DB072CC7
:1039200002C0969587950A94E2F72C813D814E81DD
:103930005F8119012A01280E391E411C511CD20138
:10394000C10157FC12C3009721E0A207B1050CF09A
:1039500008C19C0161102BC149815A8150937D0E91
:1039600040937C0EB092890EA092880E3093950EF3
:103970002093940E7091010C8091FB0B87FD8BCCF2
:103980001801442437FC4094542C2091D40E3091DB
:10399000D50EC901AA2797FDA095BA2F820D931DB8
:1039A000A41DB51D8B879C87AD87BE8765E0872FDB
:1039B000880D78876DDB2B853C854D855E85280FCE
:1039C000391F411D511DDA01C901788557FD95C286
:1039D000009731E0A307B1050CF09BC08C0120914A
:1039E000E00E3091E10E442737FD4095542F220D13
:1039F000331D441D551D29843A84C101AA2797FD12
:103A0000A095BA2F280F391F4A1F5B1F6BE0872F25
:103A1000890D2C833D834E835F83788739DB2C812E
:103A20003D814E815F8149015A01880E991EA11C7A
:103A3000B11CD501C4017885B7FC5BC2009721E0B9
:103A4000A207B1050CF060C02C0177FC42C12091A7
:103A5000EC0E3091ED0E4901AA2497FCA094BA2CEB
:103A60008C0C9D1CAE1CBF1C61E1872F11DB02C0BA
:103A7000969587957A94E2F775016401C80ED91E70
:103A8000E11CF11CD701C601F7FC6BC2009721E0D5
:103A9000A207B1050CF05BC09C016110FBC0109344
:103AA0007F0E00937E0E50928B0E40928A0E3093C2
:103AB000970E2093960EEFCB8FEF9FEFA0E0B0E034
:103AC00014CD8FEF9FEFA0E0B0E0D8CC8FEF9FEF49
:103AD000A0E0B0E0B6CD8FEF9FEFA0E0B0E07ACDF0
:103AE0008FEF9FEFA0E0B0E058CE8FEF9FEFA0E008
:103AF000B0E01CCE8FEF9FEFA0E0B0E0FACE8FEFEA
:103B00009FEFA0E0B0E0BECE8FEF9FEFA0E0B0E06F
:103B10009BCF8FEF9FEFA0E0B0E060CF8FEF9FEFE4
:103B2000A0E0B0E036CC8FEF9FEFA0E0B0E0FACBA2
:103B30008FEF9FEFA0E0B0E05CCC8FEF9FEFA0E0B5
:103B4000B0E003CD8FEF9FEFA0E0B0E056CE8FEF57
:103B50009FEFA0E0B0E0A0CF8FEF9FEFA0E0B0E03C
:103B6000A0CD8FEF9FEFA0E0B0E0F3CE5B81298086
:103B70003A80533079F0543069F030929D0E2092A3
:103B80009C0EB092A90EA092A80E3093B50E209371
:103B9000B40E6FCB3092990E2092980EB092A50E73
:103BA000A092A40E3093B10E2093B00E62CB5B8135
:103BB00029803A80533079F0543069F03092A10E68
:103BC0002092A00EB092AD0EA092AC0E3093B90E22
:103BD0002093B80E5ACB3092990E2092980EB09244
:103BE000A50EA092A40E3093B10E2093B00E4DCB33
:103BF0005B8129803A803092990E2092980EB09283
:103C0000A50EA092A40E3093B10E2093B00E25CB3A
:103C10005B8129803A80533079F0543069F03092DA
:103C20009B0E20929A0EB092A70EA092A60E3093F1
:103C3000B30E2093B20E17CB3092990E2092980EAD
:103C4000B092A50EA092A40E3093B10E2093B00EA8
:103C50000ACB5B8129803A80533079F0543069F087
:103C600030929F0E20929E0EB092AB0EA092AA0EA2
:103C70003093B70E2093B60E02CB3092990E20925D
:103C8000980EB092A50EA092A40E3093B10E209380
:103C9000B00EF5CA4B81433079F0443069F010938F
:103CA000A30E0093A20E5092AF0E4092AE0E309330
:103CB000BB0E2093BA0EEFCA1093990E0093980E84
:103CC0005092A50E4092A40E3093B10E2093B00EE8
:103CD000E2CA4091EC0E5091ED0E662757FD6095BB
:103CE000762F4C0D5D1D6E1D7F1D81E14E835F8320
:103CF0006C83788758DA4E815F816C8178854A01C0
:103D00005B01880E991EA11CB11CD501C401B7FC32
:103D10005AC1009721E0A207B1050CF039C19C01FE
:103D20009093970E8093960EB8CE4091E20E5091EC
:103D3000E30E662757FD6095762F4C0D5D1D6E1DB9
:103D40007F1D8CE04E835F836C8378872CDA4E81F5
:103D50005F816C8178851A012B01280E391E411C68
:103D6000511CD201C10157FC26C1009721E0A207D6
:103D7000B1050CF017C19C0190938D0E80938C0EB1
:103D800039CB4091E60E5091E70E662757FD6095BE
:103D9000762F4C0D5D1D6E1D7F1D8EE04E835F8363
:103DA0006C83788700DA4E815F816C8178851A0197
:103DB0002B01280E391E411C511CD201C10157FC98
:103DC000F6C0009721E0A207B1050CF0E6C09C0107
:103DD0009093910E8093900E65CC4091EA0E509195
:103DE000EB0E662757FD6095762F4C0D5D1D6E1D01
:103DF0007F1D80E14E835F836C837887D4D94E81A9
:103E00005F816C8178851A012B01280E391E411CB7
:103E1000511CD201C10157FCDEC0009721E0A2076E
:103E2000B1050CF0ABC09C019093950E8093940E5D
:103E300091CD4091E80E5091E90E662757FD6095AF
:103E4000762F4C0D5D1D6E1D7F1D8FE04E835F83B1
:103E50006C837887A8D94E815F816C8178851A013F
:103E60002B01280E391E411C511CD201C10157FCE7
:103E7000AEC0009721E0A207B1050CF07AC09C010A
:103E80009093930E8093920EB9CC4091E40E509192
:103E9000E50E662757FD6095762F4C0D5D1D6E1D56
:103EA0007F1D8DE04E835F836C8378877CD94E8144
:103EB0005F816C8178851A012B01280E391E411C07
:103EC000511CD201C10157FC7AC0009721E0A20722
:103ED000B1050CF058C09C0190938F0E80938E0E0C
:103EE00035CB80E090E0DC014ECA80E090E0DC0160
:103EF00013CA80E090E0DC01A1CD80E090E0DC011D
:103F000067CD80E090E0DC01EECC80E090E0DC0169
:103F1000B3CC80E090E0DC013ACC80E090E0DC01C2
:103F2000FFCB80E090E0DC0186CB80E090E0DC011C
:103F30004BCB80E090E0DC01D2CA80E090E0DC0175
:103F400097CA80E090E0DC01A6CB80E090E0DC0145
:103F5000F6CA80E090E0DC014ACC80E090E0DC0131
:103F600042CA80E090E0DC0191CD80E090E0DC018D
:103F7000EACC8FEF9FEFA0E0B0E081CF8FEF9FEF13
:103F8000A0E0B0E050CF8FEF9FEFA0E0B0E0A3CF74
:103F90008FEF9FEFA0E0B0E0C2CE8FEF9FEFA0E0E9
:103FA000B0E015CF8FEF9FEFA0E0B0E0E4CE80E06F
:103FB00090E0DC0106CF80E090E0DC01D6CE80E02E
:103FC00090E0DC0182CF80E090E0DC01A2CE80E0D6
:103FD00090E0DC014ECF80E090E0DC011ECFCF937B
:103FE000DF9300D0CDB7DEB74A836983EFD88091E5
:103FF0000B0C4A816981882319F140E050E08CE282
:10400000849FF001859FF00D1124EF5AF34F87A193
:10401000681719F060A781E081A78CE2849FF00106
:10402000859FF00D1124E75AF24F87A1681719F008
:1040300060A781E081A70F900F90DF91CF91089545
:10404000552747FD5095DBCF90910B0C91110CC07B
:1040500087FD24C0E82FFF27E7FDF095EA50F44FD5
:104060008FEF8083868308958FEF8093F60B809384
:10407000FC0B8093F70B8093FD0B8093F80B8093E0
:10408000FE0B8093F90B8093FF0B8093FA0B8093C8
:10409000000C8093FB0B8093010C08958F3F29F354
:1040A000089586E1E6EFFBE0DF011D928A95E9F7CE
:1040B0008FEFCADF48E050E06FEF70E082E09CE0F5
:1040C0000C947D48CF938091A60B90E0880F892FA8
:1040D000881F990B892B29F4E4DF10920B0CCF91E8
:1040E0000895C091BF0EDDDFC0930B0CCF910895F2
:1040F000942F87FD0FC0E82FFF27E7FDF095EA50CA
:10410000F44F608346839F3F21F0482F622F892F11
:1041100066CF08958F3FB9F76093F60B4093FC0B81
:104120006093F70B4093FD0B6093F80B4093FE0BED
:104130006093F90B4093FF0B6093FA0B4093000CD4
:104140006093FB0B4093010CDECFAC01AA27469F86
:10415000B12D579F9001749FB00D211D3A1F569F9E
:10416000B00D211D3A1F1124C90108956093000F5D
:104170000097A9F01092FF0EBC0186E09FE00E941C
:104180008448E5E0FFE001900020E9F7E650FF40B9
:10419000EB5FF04F80E290E09183808308958FEF92
:1041A0008093FF0E08951F93CF93DF93EC01219628
:1041B000FC011491111109C00EC0812F0E941E151F
:1041C000FE0121961491112331F01A30B1F78DE0E0
:1041D0000E941E15F2CFDF91CF911F9108950F938A
:1041E0001F93CF93DF93C82F80910B0C81117BC05D
:1041F0008091F60B662309F49CC19091FC0BC917C2
:1042000009F403C387FD01C388300CF06CC19091A1
:10421000F70B2091FD0BC21709F4FBC297FDF9C201
:1042200098170CF065C141E05091F80B8091FE0B9E
:10423000C81709F4F2C257FDF0C259170CF069C152
:1042400042E06091F90B8091FF0BC81709F4E9C2B5
:1042500067FDE7C265170CF0A7C143E05091FA0B68
:104260008091000CC81709F4E0C257FDDEC2561752
:104270000CF0AAC144E08091FB0B9091010CC9178E
:1042800009F4D7C287FDD5C285170CF4BDC19927A3
:1042900087FD9095252F332727FD30952A5F3F4FC7
:1042A000281739070CF4B0C1E42FFF27E7FDF0957C
:1042B00020910A0C822F992787FD9095019666E040
:1042C00070E00E94534480930A0CEA50F44F8083BC
:1042D000C683CF3F09F49AC161E08C2FDF91CF9163
:1042E0001F910F917CCE9091020C662309F4D3C0EC
:1042F0009F3F09F4A2C22091030C2F3F09F4A3C2EF
:104300003091040C3F3F09F4B3C24091050C4F3F7C
:1043100009F4B4C25091060C5F3F09F42AC27091AF
:10432000070C7F3F09F4B3C2E091080CEF3F09F49A
:10433000B4C2F091090CFF3F09F4B2C2A82FA350F8
:10434000843009F406C2813009F46DC1823009F469
:10435000BBC1833009F467C19F3F09F435C2B1E0A6
:10436000D1E02F3F09F42EC21B2F1D2309F0292F66
:104370000B2F0F5F81E08B278D23812B09F49AC1CE
:10438000802F922FB1E03F3F09F41AC2D1E0811192
:1043900001C0D0E0DB2309F0392F282F2F5F11E077
:1043A000811110E0B123BD2B09F482C1822FB1E04D
:1043B0004F3F09F403C2D1E0811101C0D0E0DB23FB
:1043C00009F0432F982F9F5F11E0811110E0B12376
:1043D000BD2B09F477C1892F91E05F3F09F4ECC14F
:1043E00021E0811101C020E0292309F0542F382F4A
:1043F0003F5FB1E08111B0E09B23922B09F460C1D3
:10440000832F91E07F3F09F4D5C121E0811101C0E4
:1044100020E0292309F0752F482F4F5F31E08111EB
:1044200030E09323922B09F449C1842F91E0EF3FB0
:1044300009F4BEC121E0811101C020E0292309F067
:10444000E72F482F4F5F31E0811130E09323922B0B
:1044500009F432C1842F91E0FF3F09F4A7C121E0A4
:10446000811101C020E0292309F420C1DE2F482F4B
:104470004F5F31E0811130E09323922B09F0842FBC
:10448000992309F4B1C08111B3C0A23008F420C24D
:1044900020E08FEFB2C09C1709F4D2C12091030C29
:1044A0002C1709F4E2C13091040C3C1709F4E3C164
:1044B0004091050C4C1709F4E4C15091060C5C17AF
:1044C00009F46DC17091070C7C1709F4DDC1E0910E
:1044D000080CEC1709F4DEC1F091090CFC132ECF87
:1044E000E7E0F0E05EC18F300CF091CE88E08FCE37
:1044F000692F772767FD7095282F332727FD309583
:104500002A5F3F4F261737070CF48DCE982F40E0D7
:104510008BCE652F772767FD7095292F332727FDD1
:1045200030952A5F3F4F261737070CF489CE592F55
:1045300088CE87FD05C08091FC0BC81709F4B3C174
:104540008091F70B87FD05C08091FD0BC81709F41A
:10455000B3C18091F80B87FD05C08091FE0BC81791
:1045600009F4A8C18091F90B87FD05C08091FF0B6C
:10457000C81709F49DC18091FA0B87FD05C0809191
:10458000000CC81709F49AC18091FB0B87FD05C088
:104590008091010CC81709F493C188E391E0DF9181
:1045A000CF911F910F91FFCD862F992787FD909571
:1045B000252F332727FD30952A5F3F4F28173907CE
:1045C0000CF44BCE652F4ACE852F992787FD909509
:1045D000262F332727FD30952A5F3F4F28173907AD
:1045E0000CF448CE562F47CEDE2F882309F44DCF4A
:1045F000A23088F0CD2F21E08FEF4C2F60E0DF91CB
:10460000CF911F910F9174CD45E04ECEDF91CF91A8
:104610001F910F910895813009F4D8C080910A0C40
:10462000CD2F21E0EACF9F3F09F44CC12F3F09F481
:10463000E8C0921708F0922F81E08F5F3F3F09F4A6
:10464000CCC0882319F0931708F4392F8F5F4F3FA0
:1046500009F4CBC0882319F0341708F4432F8F5F77
:104660005F3F09F4C0C0882319F0451708F4542FA0
:104670008F5F7F3F09F4B5C0882319F0571708F4FE
:10468000752F8F5FEF3F09F4AAC0882319F07E17BA
:1046900008F4E72F8F5FDF2FFF3F09F4A5CF8823B2
:1046A00019F0EF1708F452C08F5FEDCEDF2FDFCE89
:1046B000392F7DCE8B2F66CEE72FCDCE752FB6CE80
:1046C000542F9FCE432F88CE9F3F09F44CC02F3FDD
:1046D00009F499C0291708F0922F81E08F5F3F3FBE
:1046E00009F48DC0882319F0391708F4392F8F5F2A
:1046F0004F3F09F482C0882319F0431708F4432F71
:104700008F5F5F3F09F477C0882319F0541708F4CE
:10471000542F8F5F7F3F09F46CC0882319F0751701
:1047200008F4752F8F5FEF3F09F461C0882319F0FB
:10473000E71708F4E72F8F5FDF2FFF3F09F454CF0F
:10474000882309F4B1CFFE1708F0AECFDE2F8F5FBC
:104750009ACE9F3F41F02F3F09F455C0291708F426
:10476000BCCF922FBACF922F80E02F3F09F0B6CF67
:10477000B6CFE4E0F0E0EA50F44FC4879091020C29
:104780002091030C3091040C4091050C5091060CC3
:104790007091070CE091080CF091090CCFCDE4E08A
:1047A000F0E0EA50F44F9FEF9487E8CF90E057CEC7
:1047B00090E040CE90E029CE90E012CEB0E0FBCD6C
:1047C000B0E0E4CDD0E0D0CDB0E0CACD80910A0C0D
:1047D00061113CC0CD2F21E010CF392F38CFE72F0A
:1047E0005ACF752F4FCF542F44CF432F39CFE72FB8
:1047F000A3CF752F98CF542F8DCF432F82CF392F32
:1048000077CF81E01BCF81E06ACF40E0E0E0F0E0CD
:104810004FCD41E0E1E0F0E04BCD42E0E2E0F0E0FE
:1048200047CD43E0E3E0F0E043CD44E0E4E0F0E0F6
:104830003FCD45E0E5E0F0E03BCDE0E0F0E09BCFB0
:10484000E0E0F0E0AECFE1E0F0E095CFFDDB80917D
:104850000A0C992787FD9095019666E070E00E940A
:104860005344282F20930A0CB5CFE1E0F0E099CF14
:10487000E2E0F0E080CFE2E0F0E093CFE3E0F0E0D0
:104880007ACFE3E0F0E08DCFE5E0F0E08ACFE5E03D
:10489000F0E071CFE6E0F0E084CFE6E0F0E06BCF4F
:1048A000E7E0F0E068CF80E020E04C2F61E0A7CEA9
:1048B00083E0FACF82E0F8CF81E0F6CF84E0F4CF56
:1048C00085E0F2CF922F80E02F3F09F0B6CEB6CE32
:1048D00080910A0C20E091CE8F929F92AF92BF926E
:1048E000EF92FF920F931F93CF93DF93EC0189A573
:1048F000811110C0EBA5E11144C01DA21CA2DF91E3
:10490000CF911F910F91FF90EF90BF90AF909F902C
:104910008F9008951C821D821E821F820E891F891E
:104920006CA17DA1CB01A0E0B0E0772766279801BC
:1049300040E050E00E941C49B9013F8F2E8F28A50E
:10494000211175C084E08BA719A218A2AA27609F25
:10495000B12D719FC001169FB00D811D9A1F709FD0
:10496000B00D811D9A1F11248AA39BA38889998960
:10497000AA89BB8988839983AA83BB83E4E02FA398
:1049800019A64C815D816E817F81872F9927AA2787
:10499000BB27892B8A2B8B2B09F02FC0888099800D
:1049A000AA80BB80E23009F475C008F06EC0E13027
:1049B00009F47FC080E090E0EAA0FBA08C019701A1
:1049C000AA27029FB12D139FF001309FB00DE11D6A
:1049D000FA1F129FB00DE11DFA1F112488A199A1A1
:1049E000E80FF91FFDA3ECA3480D591D6A1D7B1D9F
:1049F0004C835D836E837F8382CF1C821D821E82E7
:104A00001F82188219821A821B82EF5FEBA7E330A4
:104A100009F457C0E53009F447C0E23009F458C042
:104A2000812C912C540140E050E0BA01BBCF81E0D1
:104A30008BA7AA27609FB12D719FC001169FB00D53
:104A4000811D9A1F709FB00D811D9A1F112488A38C
:104A500099A360957095AA27609FB12D719FC001A1
:104A6000169FB00D811D9A1F709FB00D811D9A1F5A
:104A700011248AA39BA388859985AA85BB858883F1
:104A80009983AA83BB83E1E07ACFE33079F0E43005
:104A900009F090CF8EA181114CC0BB27A72F962F74
:104AA000852F8095909588CF1BA627CF8C899D89CF
:104AB00083CF8EA1811160C0BB27A72F962F852F92
:104AC0007BCF19A218A28E899F899BA38AA317CF97
:104AD0002E893F893DA32CA34C895D89AA27429F3B
:104AE000B12D539FC001349FB00D811D9A1F529F5D
:104AF000B00D811D9A1F112488A399A3409550954C
:104B0000AA27429FB12D539FC001349FB00D811D34
:104B10009A1F529FB00D811D9A1F11248AA39BA337
:104B20008C859D85AE85BF8588839983AA83BB8349
:104B3000E6CEF52EE62F6F3F09F440C0862F8F5F3B
:104B400090E0880F991FF0E0EE0FFF1FE050FD4F3F
:104B50000190F081E02DDC01A050BD4F8D919C9122
:104B60008E1B9F0BA92FBB27FA9EC001FB9E900DA9
:104B700011248E0F9F1F95CFF52EE62F6F3F09F161
:104B8000862F8F5F90E0880F991FF0E0EE0FFF1FD8
:104B9000E050FF4F0190F081E02DDC01A050BF4FAD
:104BA0008D919C918E1B9F0BA92FBB27FA9EC00154
:104BB000FB9E900D11248E0F9F1FFECE8EEF91E075
:104BC000C2CF8EEF91E0E1CFCF93DF930E942A32E4
:104BD00079DA0E94E0178091BC0ED82FD17081FF46
:104BE00070C0C3E0D0937F0DC093830D89E59DE035
:104BF0000E94FB30D093AB0DC093AF0D85E89DE0D4
:104C00000E94FB30D093D70DC093DB0D81EB9DE06C
:104C10000E94FB30D093030EC093070E8DED9DE0F4
:104C20000E94FB30D0932F0EC093330E89E09EE09C
:104C30000E94FB30D0935B0EC0935F0E85E39EE035
:104C40000E94FB308091BD0ED82FD17081FF3BC0F8
:104C5000C3E0D093770CC0937B0C81E59CE00E946D
:104C6000FB30D093A30CC093A70C8DE79CE00E946F
:104C7000FB30D093CF0CC093D30C89EA9CE00E9408
:104C8000FB30D093FB0CC093FF0C85ED9CE00E94A1
:104C9000FB30D093270DC0932B0D81E09DE00E9447
:104CA000FB30D093530DC093570D8DE29DE00E94D1
:104CB000FB301092000F8FEF8093FF0EDF91CF91AA
:104CC0000895C1E08FCFC1E0C4CFCF92DF92EF92C1
:104CD000FF920F931F93CF93DF93CDB7DEB7659706
:104CE0000FB6F894DEBF0FBECDBF8B018D8B0E9437
:104CF0002A324D890115110509F061C0423109F4CC
:104D0000D2C0473209F4D4C00115110509F073C0AF
:104D10004C3109F480C0012B09F442C0433039F111
:104D2000842F8450823008F4FEC0842F8750833053
:104D3000B8F5473009F4E6C0483009F489C08091DD
:104D4000D60B9091D70BA0E0B0E09054A109B10927
:104D5000B7FD87C1009721E0A207B1050CF076C12D
:104D60009093C50E8093C40E83EE98E085C0809129
:104D7000C30E992787FD9095029666E070E00E9429
:104D80005344E82F8093C30E853008F0C9C0F0E08B
:104D9000EE0FFF1FEC5FFA4F8081918161E0E6D951
:104DA00065960FB6F894DEBF0FBECDBFDF91CF91F1
:104DB0001F910F91FF90EF90DF90CF9008954111D8
:104DC000A0CF8091BF0E83708F5F8093BF0E4D8BFD
:104DD00079D9E091BF0E4D89E53008F02BC1F0E0A4
:104DE000EE0FFF1FE65EFA4F8081918161E04D8BEF
:104DF000BDD94D8990CF842F8150823008F088CF63
:104E0000413009F06CC18091C00E242F281B822FE5
:104E10002093C00E02C08091C00EE091A50BE295D8
:104E2000E170EF5F880FE80FE530C0F5F0E0EE0FBE
:104E3000FF1FEC5DFA4FE080F180423009F44CC076
:104E40004D8B0E94E01761E0C70190D94D8963CF77
:104E50008091F10E90E00196837099278093F10E76
:104E60008150863008F0ECC0E82FF0E0EE0FFF1F15
:104E7000E25FFA4F8081918124E2EAECFEE0DF01FB
:104E80001D922A95E9F72091C60E3091C70E209504
:104E900030953093C70E2093C60E80CFA5EDEA2E35
:104EA000A8E0FA2ECACF0E9474338EDE4D892CCF33
:104EB0004D8B08D9E0910B0C4D89E53008F0BDC051
:104EC000F0E0EE0FFF1FE65EFA4F8081918161E016
:104ED0004D8B4CD94D8918CF2091C20E822F90E076
:104EE000019663E070E00E9453448093C20E8130CB
:104EF00009F4FDC0823009F4F5C0FBEDEF2EF8E0B7
:104F0000FF2E9ECF8091F00E853009F4F5C08C30D5
:104F100009F4F8C0833009F49EC080E090E0ACCF83
:104F200080E090E03BCF19821A821B821C82FE0136
:104F3000359680E1DF011D928A95E9F7DD24D3944F
:104F4000453009F0D12CED2CF12C81E59CE0E80EE8
:104F5000F91EF701E559FD4F208130E02F5F3F4FEB
:104F6000C90183709927808389010170112721FD70
:104F70006AC0CC24C394D11078C000937F0DC09236
:104F8000830D89E59DE04D8B0E94FB300093AB0DB6
:104F9000C092AF0D85E89DE00E94FB300093D70DD5
:104FA000C092DB0D81EB9DE00E94FB300093030E6D
:104FB000C092070E8DED9DE00E94FB3000932F0EF6
:104FC000C092330E89E09EE00E94FB3000935B0E9E
:104FD000C0925F0E85E39EE00E94FB304D89F70191
:104FE000E559FD4F8081813009F499C008F090C0E7
:104FF000CE010196DC010D900020E9F7119729E020
:10500000EEEFF8E001900D922A95E1F7DC010D90AA
:105010000020E9F7119725E0DD2009F459C0E0E20E
:10502000F9E001900D922A95E1F761E04D8B9ED851
:105030004D897BCE85ED98E0D9CE85ED98E047CFC0
:105040008AEF98E019CF53E0C52E95CF8FEF9FEFF1
:10505000A0E0B0E085CE85E08093F00E86EF98E08A
:105060000BCF80E090E0DC0175CE0093770CC0920E
:105070007B0C81E59CE04D8B0E94FB300093A30CE0
:10508000C092A70C8DE79CE00E94FB300093CF0CF0
:10509000C092D30C89EA9CE00E94FB300093FB0C89
:1050A000C092FF0C85ED9CE00E94FB300093270D21
:1050B000C0922B0D81E09DE00E94FB300093530DC8
:1050C000C092570D8DE29DE00E94FB304D8987CF45
:1050D000E5E2F9E001900D922A95E1F7A6CFE12CE7
:1050E000F12CABCEE6EDEE2EE8E0FE2EA9CE7FED64
:1050F000E72E78E0F72EA4CE8CE08093F00E82EFBE
:1051000098E0BACE83E08093F00E8EEE98E0B4CEB5
:10511000823019F1833091F0CE01019677CFCE0124
:105120000196DC010D900020E9F7119729E0E7E0F6
:10513000F9E001900D922A95E1F768CFCE01019632
:10514000DC010D900020E9F7119728E0E8E1F9E093
:1051500001900D922A95E1F759CFCE010196DC011D
:105160000D900020E9F7119728E0E0E1F9E00190C7
:105170000D922A95E1F74ACF4F925F926F927F92FC
:105180008F929F92AF92BF92CF92DF92EF92FF9257
:105190000F931F93CF93DF9300D01F92CDB7DEB74D
:1051A0006FB6F894882309F4A5C0B12C1B2D110FFC
:1051B000110F110F96EC00ECDD24D39477E8772ED5
:1051C000E0EEEE2EF7E08F2EA0E4FA2EB7E49B2E51
:1051D00087EEA82E47EF52EE91BB08B92B2D220F78
:1051E000322F36703064822F880F8072207C822BA1
:1051F0002B2D26952270D5B838B98BB92EB971BA36
:105200006DE06A95F1F7000091BB08B9E7B88AB87C
:10521000EDB8D5B8F8B81BB8FEB891BA00C000C058
:1052200036B189B12CB1C32EC694E3E0CE22F0E8AA
:105230003F9FB0011124C62A382F3071C32A382F5E
:10524000369536953870C32A86958076C82A30E020
:10525000220F331F24703327C22A91BB08B9A7B885
:105260004AB95DB96DE06A95F1F70000EB2DF0E009
:10527000EE55F44F50805C24C082552001F150FC63
:105280003CC05694C69450FC4BC056944C2C46944B
:1052900050FC5CC0C52CC694542C5694C0FC6DC008
:1052A000C6945694C0FC7EC0C6945694C0FC8FC071
:1052B000C6945694C0FCA0C0C69409F0B1C0B39483
:1052C000185F8FE08B1508F087CF6FBE0F900F909F
:1052D0000F90DF91CF911F910F91FF90EF90DF9092
:1052E000CF90BF90AF909F908F907F906F905F9086
:1052F0004F90089598E0B92E59CF6C2D61701034FD
:1053000008F4A8C0812F80544A835B8399830E944C
:10531000EF2099815B814A815694C69450FEB5CFA7
:105320006C2D6170812F8F5F803408F4C3C0812F92
:105330008F534A835B8399830E94EF2099815B811D
:105340004A8156944C2C469450FEA4CF642D617033
:10535000812F8E5F803408F4B6C0812F8E534A832C
:105360005B8399830E94EF2099815B814A81C52CE0
:10537000C694542C5694C0FE93CF652D6170812F36
:105380008D5F803408F484C0812F8D534A835B8302
:1053900099830E94EF2099815B814A81C69456943B
:1053A000C0FE82CF652D6170812F8C5F803408F440
:1053B00078C0812F8C534A835B8399830E94EF20AE
:1053C00099815B814A81C6945694C0FE71CF652D48
:1053D0006170812F8B5F803408F448C0812F8B531C
:1053E0004A835B8399830E94EF2099815B814A8184
:1053F000C6945694C0FE60CF652D6170812F8A5F80
:10540000803408F43CC0812F8A534A835B8399839C
:105410000E94EF2099815B814A81C69409F44FCFA5
:10542000652D6695812F895F803458F0812F8953CF
:105430004A835B8399830E94EF2099815B814A8133
:105440003ECF70E04A835B8399833FDC4A815B8176
:10545000998135CF772767FD7095812F4A835B83CC
:10546000998333DC4A815B8199810BCF70E04A8359
:105470005B8399832ADC4A815B81998119CF70E033
:105480004A835B83998321DC4A815B81998114CFB4
:1054900070E04A835B83998318DC4A815B81998140
:1054A000FFCE70E04A835B8399830FDC4A815B8186
:1054B0009981FACE70E04A835B83998306DC4A8146
:1054C0005B819981E2CE70E04A835B839983FDDB47
:1054D0004A815B819981DECE4091A210242F226007
:1054E0002093A21086EC81BB80EC88B9322F330F59
:1054F000922F9695221F2227221F832F8670282BFA
:105500002064832F880F80724071842B307C832B22
:105510009270906C31E035B928B98BB99EB987E8A3
:1055200081BB85E08A95F1F700008091A3108F5F21
:105530008093A310089580959091A2108923809361
:10554000A21096EC91BB90EC98B9482F440F282FED
:105550002695382F331F3327331F942F9670392BFE
:1055600030648071942F990F9072982B407C942B0B
:105570002270206C81E085B938B99BB92EB987E8D3
:1055800081BB85E08A95F1F700008091A3108F5FC1
:105590008093A31008958091A21080618093A2103F
:1055A00096EC91BB90EC98B9382F330F982F9695C5
:1055B000282F221F2227221F832F8670282B20644A
:1055C000832F880F80728061307C832B9270906C67
:1055D00031E035B928B98BB99EB987E881BB85E040
:1055E0008A95F1F700008091A3108F5F8093A3103C
:1055F00008953091A210932F98609093A21086EC9A
:1056000081BB80EC88B9292F220F892F8695991F9D
:105610009927991F422F4670942B9064207C3071FB
:105620003062232B8270806C31E035B998B92BB988
:105630008EB987E881BB85E08A95F1F700008091FB
:10564000A3108F5F8093A31008956095E2EAF0E1C4
:105650009081982B6923608386EC81BB80EC88B9AC
:10566000362F330F962F9695262F221F2227221F83
:10567000832F8670282B20646071832F880F80729F
:10568000862B307C832B9270906C31E035B928B931
:105690008BB99EB987E881BB85E08A95F1F7000058
:1056A000E3EAF0E180818F5F808308954091A2104A
:1056B000242F21602093A21086EC81BB80EC88B956
:1056C000322F330F922F9695221F2227221F832FCE
:1056D0008670282B2064832F880F80724071842B62
:1056E000307C832B9270906C31E035B928B98BB93E
:1056F0009EB987E881BB85E08A95F1F7000080912B
:10570000A3108F5F8093A3100895AF92BF92CF92A2
:10571000DF92EF92FF920F931F93CF93DF93E0E11D
:10572000FCE070E048E050E0B6ECC0ECA7E8D1E067
:1057300087E4F82E90EFA92E22EAD22E8191919142
:10574000272F2695269526958A0102C0000F111F46
:105750002A95E2F7602F6095687F272F2770622BCC
:10576000EFB6F894B1BBC8B9292F3327122F16957D
:10577000B12EB694012F06700068107C207233277A
:10578000122B3B2D30713260132B2B2D269522705E
:10579000206208B91BB92EB9A1BB00C000C0B1BBC3
:1057A0009695879596958795282F182F110F382F46
:1057B0003695221F2227221F06E0C02EC1222C2947
:1057C0002068807199278260912F990F9072982B91
:1057D000812F807C982B327028B99BB93EB9A1BB30
:1057E000B1BBC8B9262F220F962F9695362F331F9F
:1057F0003327331F822F8670382B30646071822FDD
:10580000880F8072862B207C822B9270906AD5B98B
:1058100038B98BB99EB9A1BB1DE01A95F1F700000C
:10582000B1BBC8B9D5B9F8B8ABB8DEB8A1BB88E28E
:105830008A95F1F7EFBE7F5F703209F07FCF8091DC
:10584000500C96EC91BB90EC98B9382F330F982FF1
:105850009695232F26702064482F441F4427441F09
:10586000242B482F4071832F880F8072842B307C2B
:10587000832B9270906631E035B928B98BB99EB907
:1058800087E881BBDF91CF911F910F91FF90EF903F
:10589000DF90CF90BF90AF9008958091A4108F7348
:1058A000B1F4E0919F10E63008F4AEC0EC3008F09F
:1058B0009BC08FE78093FA0EE55DF0E0E25DFA4F62
:1058C00080818093FB0E81E00E94D8151EDF4091FD
:1058D0009F10E42FF0E0EE0FFF1FE05FF34F2081F9
:1058E0003181542F56955695569588E090E001C029
:1058F000880F5A95EAF78095887F4770842BAFB759
:10590000F89476EC71BBE0ECE8B9432F5527642F8F
:105910006695962F9695F62FF670F068607C40722B
:105920005527642B492F40714260642B96959270E5
:105930009062F8B96BB99EB957E851BB00C000C07E
:1059400071BB3695279536952795422FF22FFF0F7D
:10595000622F6695441F4427441F9F2F9670492B42
:1059600040682071332722609F2F990F9072922BED
:10597000F07C9F2B627048B99BB96EB951BB71BB6B
:10598000E8B9482F440F282F2695382F331F332787
:10599000331F942F9670392B30648071942F990F98
:1059A0009072982B407C942B2270206A81E085B9FC
:1059B00038B99BB92EB951BB9DE09A95F1F700001B
:1059C00071BBE8B985B987E488B980EF8BB982EA01
:1059D0008EB951BB88E28A95F1F7AFBF8091A410D0
:1059E0008F5F8093A4100895EB5D81E78093FA0E9A
:1059F0008E2F90E08038910560F4FC01E25DFA4F53
:105A000080818093FB0E5FCF87E78093FA0EEF5C77
:105A100054CF8FEFF6CF6F927F928F929F92AF927B
:105A2000BF92CF92DF92EF92FF920F931F93CF938B
:105A3000DF93C0E1D7E2E6EC6E2EF0EC7F2EA0EE15
:105A40008A2EB7E09B2EAA24A39410E4B12E00E284
:105A5000C02E87E4D82E97EEE92E27EFF22E02EE25
:105A600003C0209709F442C018DF61BA78B887B83C
:105A70009AB88DB8A5B8B8B81BB8CEB8D1BA00C01E
:105A800000C046B189B12CB1142F1695137090E85F
:105A9000499FA0011124142B982F9071192B982F36
:105AA000969596959870192B86958076182B30E0F0
:105AB000220F331F24703327122B61BA78B8E7B84E
:105AC000FAB80DB9219711FFCCCFCD2B79F0DF912A
:105AD000CF911F910F91FF90EF90DF90CF90BF90EB
