:100000004BC0000042C2000040C200003EC20000DF
:100010003CC200000C94AF4938C2000036C2000058
:1000200034C2000032C200000C94A5490C949B49D4
:100030002CC200002AC2000028C2000026C2000014
:1000400024C2000022C2000020C200001EC2000024
:100050001CC200000C945B4A18C2000016C20000CB
:1000600014C2000012C2000010C200000EC2000044
:100070000CC200000AC2000008C2000006C2000054
:1000800004C2000002C2000000C20000FEC1000065
:10009000FCC10000FAC1000011241FBECFEFD0E266
:1000A000DEBFCDBF0E9400F0D7C10000076342361B
:1000B000B79BD8A71A39685618AEBAAB558C1D3CF9
:1000C000B7CC5763BD6DEDFD753EF6177231BF00BD
:1000D0000000803F05A84CCDB2D44EB93836A902F5
:1000E0000C50B9918688083CA6AAAA2ABE00000036
:1000F000803F08000000BE922449123EABAAAA2A03
:10010000BECDCCCC4C3E00000080BEABAAAAAA3E1D
:1001100000000000BF000000803F00000000000859
:100120004178D3BB4387D1133D190E3CC3BD4282F6
:10013000AD2B3E68EC8276BED98FE1A93E4C80EFB4
:10014000FFBE01C4FF7F3F0000000000FF004C8A9B
:1001500097509545406BA6D8E4B2282EAE90BF26A6
:10016000B14EE86FD0FBE0709A51862C379845323B
:10017000539D06840D971A8CE61E2E0DB41D401655
:100180009AC591F9F786A142660620AFAE19EE270F
:10019000C2BB0EBAB90AAA95CA45040444C1796A19
:1001A00091EE7D3E2E4C960BA96E5A6A9FF56D0519
:1001B000BB8F808DB4F54FC14AE99E674536394FF4
:1001C00075ADF44CB227A939D78036F7C49C7E6A46
:1001D000605F677992B4DD0E4786CD1A6DC6258AB9
:1001E000F464D953D154DB67F78B22BD5CFEA44D78
:1001F000F9A7590EC57E3BF9BA7D430AD39F6C3BE4
:100200000BDEB2875E3710ECC8A6856546290CF177
:10021000D6BCA38C755E4934200DFAE9D7C7B6A7C2
:10022000988A7C6E6155493D32271D1209FFF6EE12
:10023000E5DDD5CEC6BFB9B2ACA6A09A958F8A85AA
:10024000817C78736F6B6864605D5A56FF59E97DF5
:1002500015B150F39942EE9D4F04BC7632F1B2765F
:100260003B03CC98653405D8AC8259320CE7C4A264
:100270008161432509EDD3B9A089725C46321E0B1A
:10028000F8E6D5C4B4A596887A6D6053473C30260D
:100290001B1108FEF5EDE4DCD4CDC6BFB8B1ABA5AB
:1002A0009F99948F8A85807C77736F6B6763605D9D
:1002B000595653504D4A484543403E3C3A383634EF
:1002C00032302E2D2B2A282725242321201F1E1DC6
:1002D0001C1B1A19181716161514131312111110C6
:1002E0000F0F0E0E0D0D0C0C0B0B0B0A0A09090952
:1002F0000808080807070706060606060505050597
:1003000005040404040404030303030303030302B6
:1003100002020202020202020202010101010101C3
:1003200001010101010101010101010101000000C0
:1003300000000000000000000000000000000000BD
:10034000000000000000000000000000FF0C0B0B8C
:100350000B0A0A090909080808080707070606061C
:100360000606050505050504040404040403030347
:100370000303030303020202020202020202020258
:10038000010101010101010101010101010101015D
:10039000010101000000000000000000000000005A
:1003A000000000000000000000000000000000004D
:1003B000000000000000000000000000000000003D
:1003C000000000000000000000000000000000002D
:1003D000000000000000000000000000000000001D
:1003E000000000000000000000000000000000000D
:1003F00000000000000000000000000000000000FD
:1004000000000000000000000000000000000000EC
:1004100000000000000000000000000000000000DC
:1004200000000000000000000000000000000000CC
:1004300000000000000000000000000000000000BC
:1004400000000000000000000000000011241FBE9A
:10045000CFEFD0E2DEBFCDBF1AE1A4EAB9E001C020
:100460001D92AA34B107E1F719E0A0E0B1E0E6E09F
:10047000FEEA00E00BBF02C007900D92A43AB1075C
:10048000D9F70E94944A0C940157BACD2F923F920B
:100490004F925F926F927F928F929F92AF92BF9294
:1004A000CF92DF92EF92FF920F931F93CF93DF9340
:1004B000CDB7DEB727970FB6F894DEBF0FBECDBF1E
:1004C00088E192E10E94BB144090491250904A1278
:1004D0002091E21220FF19C025FD02C00C94070DE7
:1004E000420124FD13C080912E1290912F129595F8
:1004F0008795480E591E21FD0BC0C12CD12C7601C9
:1005000022FD10C00FEF1FEF1BC0420121FFF5CFEE
:10051000C0902E12D0902F12EE24D7FCE094FE2C27
:1005200022FFF0CF009128121091291216950795FD
:100530000095109580912E1290912F12080F191F7F
:100540008091031390910413A0E0B0E09058A109AA
:10055000B1091C018091DE12882311F40C94030D63
:100560008091151390911613A0E0B0E09058A10966
:10057000B109B7FF02C00C94BE0DB595A79597952C
:1005800087959C838B832FB72D83F89480E290E12D
:100590000E94AE3240914410509145105A834983D5
:1005A000AA2497FCA094BA2C662457FC6094762C5D
:1005B00080915A1290915B12A3019201280F391F6A
:1005C000411D511DDA01C901009731E0A307B105B2
:1005D00024F08FEF9FEFA0E0B0E0B7FF02C00C94D3
:1005E000110D0E94940E46EC41BB469A31E035B99C
:1005F00025E428B950EF5BB992EA9EB987E881BB40
:1006000000C000C041BB469A35B928B960ED6BB94E
:100610009EB981BB00C000C041BB469A35B928B91C
:100620005BB99EB981BB4B815C8169817A81AA27C4
:10063000469FB12D5703C001749FB00D811D9A1FB5
:1006400056039A0BB00D811D9A1F1124AA2797FDFE
:10065000A095BA2F880D991DAA1DBB1D20914E1281
:1006600030914F12820F931FA11DB11D009771E0B1
:10067000A707B10524F08FEF9FEFA0E0B0E0B7FF30
:1006800002C00C94160D0E94940E46EC41BB469A93
:1006900031E035B921E428B950EF5BB990EA9EB951
:1006A00087E881BB00C000C041BB469A35B928B974
:1006B00060ED6BB99EB981BB00C000C041BB469ADA
:1006C00035B928B95BB99EB981BB910149815A817D
:1006D000AA27249FB12D3503C001529FB00D811D63
:1006E0009A1F34039A0BB00D811D9A1F1124AA275B
:1006F00097FDA095BA2F8C0D9D1DAE1DBF1D20919D
:10070000661230916712820F931FA11DB11D409197
:1007100096125091971260E070E0481759076A07E7
:100720007B0714F00C94BF0BDB01CA010E94940EEE
:1007300046EC41BB469A31E035B921E428B950EF87
:100740005BB992EA9EB987E881BB00C000C041BB9B
:10075000469A35B928B960EE6BB99EB981BB00C025
:1007600000C041BB469A35B928B95BB99EB981BB77
:100770008CE191E10E94AE32209140113091411103
:10078000AA27209FB12D319FC001129FB00D811D5E
:100790009A1F309FB00D811D9A1F1124A0E0B0E078
:1007A0000097A105B10509F4E7C79D5FAF4FBF4FA3
:1007B000009751E0A507B10524F08FEF9FEFA0E06F
:1007C000B0E00E94940E46EC41BB469A31E035B948
:1007D00025E428B950EF5BB990EA9EB987E881BB60
:1007E00000C000C041BB469A35B928B960EB6BB96F
:1007F0009EB981BB00C000C041BB469A35B928B93B
:100800005BB99EB981BB6D816FBF7FB77983F89467
:100810008AE490E10E94AE3220916E1030916F1008
:100820003F832E8380915C1290915D12B301A201EF
:10083000480F591F611D711D4115510531E06307B6
:10084000710524F04FEF5FEF60E070E0DB01CA015B
:1008500077FF02C00C94BD0C0E94940E46EC41BB85
:10086000469A31E035B927E428B950EF5BB992EAEE
:100870009EB987E881BB00C000C041BB469A35B92C
:1008800028B960ED6BB99EB981BB00C000C041BB07
:10089000469A35B928B95BB99EB981BB6B817C8119
:1008A0002E813F81AA27629FB12D7303A001369F3D
:1008B000B00D411D5A1F72035A0BB00D411D5A1F36
:1008C0001124662757FD6095762F480D591D6A1D26
:1008D0007B1D8091501290915112480F591F611D3C
:1008E000711D4115510531E06307710524F04FEF8B
:1008F0005FEF60E070E0DB01CA0177FF02C00C949B
:10090000DE0C0E94940E46EC41BB469A31E035B9AC
:1009100023E428B950EF5BB990EA9EB987E881BB20
:1009200000C000C041BB469A35B928B960ED6BB92B
:100930009EB981BB00C000C041BB469A35B928B9F9
:100940005BB99EB981BBB1012E813F81AA27629F0D
:10095000B12D7303A001369FB00D411D5A1F7203C4
:100960005A0BB00D411D5A1F1124662757FD609583
:10097000762F4C0D5D1D6E1D7F1D8091681290912C
:100980006912480F591F611D711D80919812909135
:100990009912A0E0B0E084179507A607B70734F0D6
:1009A00077FF02C00C94ED0CDB01CA010E94940E8B
:1009B00046EC41BB469A31E035B923E428B950EF03
:1009C0005BB992EA9EB987E881BB00C000C041BB19
:1009D000469A35B928B960EE6BB99EB981BB00C0A3
:1009E00000C041BB469A35B928B95BB99EB981BBF5
:1009F00086E491E10E94AE3220916A1130916B1130
:100A0000AA27209FB12D319FC001129FB00D811DDB
:100A10009A1F309FB00D811D9A1F1124A0E0B0E0F5
:100A20000097A105B10509F4A4C69D5FAF4FBF4F64
:100A3000009731E0A307B10524F08FEF9FEFA0E00E
:100A4000B0E00E94940E46EC41BB469A31E035B9C5
:100A500027E428B950EF5BB990EA9EB987E881BBDB
:100A600000C000C041BB469A35B928B960EB6BB9EC
:100A70009EB981BB00C000C041BB469A35B928B9B8
:100A80005BB99EB981BB49814FBF3FB73983F894A9
:100A900084E790E10E94AE324091981050919910F5
:100AA0005F834E8380915E1290915F12B301A20129
:100AB000480F591F611D711D4115510581E06807DF
:100AC000710524F04FEF5FEF60E070E0DB01CA01D9
:100AD00077FF01C057C70E94940E46EC41BB469A6F
:100AE00031E035B921E428B950EF5BB990EA9EB9FD
:100AF00087E881BB00C000C041BB469A35B928B920
:100B000060EE6BB99EB981BB00C000C041BB469A84
:100B100035B928B95BB99EB981BB2B813C816E8107
:100B20007F81AA27269FB12D3703A001729FB00DA8
:100B3000411D5A1F36035A0BB00D411D5A1F112477
:100B4000662757FD6095762F480D591D6A1D7B1D40
:100B50008091521290915312480F591F611D711DBF
:100B60004115510581E06807710524F04FEF5FEFF3
:100B700060E070E0DB01CA0177FD25C70E94940E9A
:100B800046EC41BB469A31E035B925E428B950EF2F
:100B90005BB990EA9EB987E881BB00C000C041BB49
:100BA000469A35B928B960ED6BB99EB981BB00C0D2
:100BB00000C041BB469A35B928B95BB99EB981BB23
:100BC00091016E817F81AA27269FB12D3703A00155
:100BD000729FB00D411D5A1F36035A0BB00D411DB7
:100BE0005A1F1124662757FD6095762F4C0D5D1D09
:100BF0006E1D7F1D80916A1290916B12480F591FD4
:100C0000611D711D80919A1290919B12A0E0B0E03D
:100C100084179507A607B70724F077FDD8C6DB0130
:100C2000CA010E94940E46EC41BB469A31E035B9A8
:100C300025E428B950EF5BB992EA9EB987E881BBF9
:100C400000C000C041BB469A35B928B960EE6BB907
:100C50009EB981BB00C000C041BB469A35B928B9D6
:100C60005BB99EB981BB8091741190917511A0916F
:100C70007611B09177118B2F9927AA27BB27892B43
:100C80008A2B8B2B09F0F8C580919911823009F4D9
:100C90009BC508F093C5813009F460C680E090E000
:100CA00060919211709193110E948514209190117E
:100CB00030919111280F391F309395112093941181
:100CC0008091701190917111A0917211B091731176
:100CD0004091741150917511609176117091771156
:100CE000840F951FA61FB71F8093741190937511E1
:100CF000A0937611B0937711AA27209FB12D319F31
:100D0000C001129FB00D811D9A1F309FB00D811D33
:100D10009A1F1124A0E0B0E00097A105B10509F4E5
:100D200025C59D5FAF4FBF4F009771E0A707B10585
:100D300024F08FEF9FEFA0E0B0E0F6D746EC41BB88
:100D4000469A31E035B921E428B950EF5BB992EA0F
:100D50009EB987E881BB00C000C041BB469A35B947
:100D600028B960EB6BB99EB981BB00C000C041BB24
:100D7000469A35B928B95BB99EB981BB39813FBF65
:100D80003FB73983F8948091A2109091A310A0915D
:100D9000A410B091A5108B2F9927AA27BB27892BC8
:100DA0008A2B8B2B09F07CC58091C710823009F407
:100DB00022C508F01AC5813009F4C1C580E090E071
:100DC0006091C0107091C1100E9485144091BE10B6
:100DD0005091BF10480F591F5F834E835093C3102B
:100DE0004093C21080919E1090919F10A091A010EE
:100DF000B091A1104091A2105091A3106091A41045
:100E00007091A510840F951FA61FB71F8093A21085
:100E10009093A310A093A410B093A510809160129A
:100E200090916112B301A201480F591F611D711DFC
:100E30004115510581E06807710524F04FEF5FEF20
:100E400060E070E0DB01CA0177FDACC56DD766ECF0
:100E500061BB469A51E055B943E448B970EF7BB99C
:100E600090EA9EB987E881BB00C000C061BB469A8A
:100E700055B948B9E0EEEBB99EB981BB00C000C0DE
:100E800061BB469A55B948B97BB99EB981BB2B81E4
:100E90003C816E817F81AA27269FB12D3703A00157
:100EA000729FB00D411D5A1F36035A0BB00D411DE4
:100EB0005A1F1124662757FD6095762F480D591D3E
:100EC0006A1D7B1D8091541290915512480F591F35
:100ED000611D711D4115510581E06807710524F000
:100EE0004FEF5FEF60E070E0DB01CA0177FD56C5B0
:100EF0001BD766EC61BB469A51E055B947E448B947
:100F000070EF7BB990EA9EB987E881BB00C000C052
:100F100061BB469A55B948B9E0EDEBB99EB981BBC2
:100F200000C000C061BB469A55B948B97BB99EB9AB
:100F300081BB91016E817F81AA27269FB12D370346
:100F4000A001729FB00D411D5A1F36035A0BB00D00
:100F5000411D5A1F1124662757FD6095762F4C0DB1
:100F60005D1D6E1D7F1D80916C1290916D12480F5A
:100F7000591F611D711D80919C1290919D12A0E0DE
:100F8000B0E084179507A607B70724F077FD2CC5B6
:100F9000DB01CA01C9D646EC41BB469A31E035B9FE
:100FA00027E428B950EF5BB992EA9EB987E881BB84
:100FB00000C000C041BB469A35B928B960EE6BB994
:100FC0009EB981BB00C000C041BB469A35B928B963
:100FD0005BB99EB981BB80919E1190919F11A091A8
:100FE000A011B091A1118B2F9927AA27BB27892B7C
:100FF0008A2B8B2B09F04AC48091C311823009F4EB
:101000002AC408F022C4813009F454C480E090E07E
:101010006091BC117091BD110E9485142091BA118C
:101020003091BB11280F391F3093BF112093BE118F
:1010300080919A1190919B11A0919C11B0919D115A
:1010400040919E1150919F116091A0117091A1113A
:10105000840F951FA61FB71F80939E1190939F1119
:10106000A093A011B093A111AA27209FB12D319F69
:10107000C001129FB00D811D9A1F309FB00D811DC0
:101080009A1F1124A0E0B0E00097A105B10509F472
:101090006AC39D5FAF4FBF4F009771E0A707B105CF
:1010A00024F08FEF9FEFA0E0B0E03ED646EC41BBCE
:1010B000469A31E035B923E428B950EF5BB992EA9A
:1010C0009EB987E881BB00C000C041BB469A35B9D4
:1010D00028B960EB6BB99EB981BB00C000C041BBB1
:1010E000469A35B928B95BB99EB981BB39813FBFF2
:1010F0002FB72983F8948091CC109091CD10A091B6
:10110000CE10B091CF108B2F9927AA27BB27892B00
:101110008A2B8B2B09F0B5C38091F110823009F432
:1011200081C308F079C3813009F4D3C380E090E033
:101130006091EA107091EB100E9485144091E810C4
:101140005091E910480F591F5F834E835093ED1063
:101150004093EC108091C8109091C910A091CA10D2
:10116000B091CB104091CC105091CD106091CE1029
:101170007091CF10840F951FA61FB71F8093CC10BE
:101180009093CD10A093CE10B093CF1080916212A7
:1011900090916312B301A201480F591F611D711D87
:1011A0004115510581E06807710524F04FEF5FEFAD
:1011B00060E070E0DB01CA0177FDF8C3B5D566ECED
:1011C00061BB469A51E055B945E448B970EF7BB927
:1011D00090EA9EB987E881BB00C000C061BB469A17
:1011E00055B948B9E0EEEBB99EB981BB00C000C06B
:1011F00061BB469A55B948B97BB99EB981BB2B8171
:101200003C816E817F81AA27269FB12D3703A001E3
:10121000729FB00D411D5A1F36035A0BB00D411D70
:101220005A1F1124662757FD6095762F480D591DCA
:101230006A1D7B1D8091561290915712480F591FBD
:10124000611D711D4115510581E06807710524F08C
:101250004FEF5FEF60E070E0DB01CA0177FDAAC3EA
:1012600063D566EC61BB469A51E055B941E448B993
:1012700070EF7BB992EA9EB987E881BB00C000C0DD
:1012800061BB469A55B948B9E0EDEBB99EB981BB4F
:1012900000C000C061BB469A55B948B97BB99EB938
:1012A00081BB91016E817F81AA27269FB12D3703D3
:1012B000A001729FB00D411D5A1F36035A0BB00D8D
:1012C000411D5A1F1124662757FD6095762F4C0D3E
:1012D0005D1D6E1D7F1D80916E1290916F12480FE3
:1012E000591F611D711D80919E1290919F12A0E067
:1012F000B0E084179507A607B70724F077FD6AC307
:10130000DB01CA0111D546EC41BB469A31E035B943
:1013100021E428B950EF5BB990EA9EB987E881BB18
:1013200000C000C041BB469A35B928B960EB6BB923
:101330009EB981BB00C000C041BB469A35B928B9EF
:101340005BB99EB981BB84EC91E10E94AE322091E1
:10135000E8113091E911AA27209FB12D319FC001DA
:10136000129FB00D811D9A1F309FB00D811D9A1FD5
:101370001124A0E0B0E00097A105B10509F4F0C187
:101380009D5FAF4FBF4F009771E0A707B10524F0F5
:101390008FEF9FEFA0E0B0E0C7D446EC41BB469A88
:1013A00031E035B925E428B950EF5BB992EA9EB92E
:1013B00087E881BB00C000C041BB469A35B928B957
:1013C00060EB6BB99EB981BB00C000C041BB469ABF
:1013D00035B928B95BB99EB981BB29812FBF3FB709
:1013E0003D83F89482EF90E10E94AE324091161155
:1013F000509117115A83498380916412909165121C
:10140000480E591E611C711C4114510451E06506BF
:1014100071042CF044244A94542C612C712CD30177
:10142000C20177FCB3C280D446EC41BB469A31E09E
:1014300035B927E428B950EF5BB990EA9EB987E83F
:1014400081BB00C000C041BB469A35B928B960EEE7
:101450006BB99EB981BB00C000C041BB469A35B98B
:1014600028B95BB99EB981BB6B817C8129813A81A6
:10147000AA27629FB12D7303A001369FB00D411DB5
:101480005A1F72035A0BB00D411D5A1F11246627B3
:1014900057FD6095762F480D591D6A1D7B1D809163
:1014A000581290915912480F591F611D711D411515
:1014B000510531E06307710524F04FEF5FEF60E005
:1014C00070E0DB01CA0177FD65C22ED446EC41BB5A
:1014D000469A31E035B923E428B950EF5BB992EA76
:1014E0009EB987E881BB00C000C041BB469A35B9B0
:1014F00028B960ED6BB99EB981BB00C000C041BB8B
:10150000469A35B928B95BB99EB981BBB101298129
:101510003A81AA27629FB12D7303A001369FB00DB7
:10152000411D5A1F72035A0BB00D411D5A1F112441
:10153000662757FD6095762F4C0D5D1D6E1D7F1D36
:101540008091701290917112480F591F611D711D89
:101550008091A0129091A112A0E0B0E084179507AD
:10156000A607B70724F077FD3CC2DB01CA01DCD334
:1015700046EC41BB469A31E035B923E428B950EF37
:101580005BB990EA9EB987E881BB00C000C041BB4F
:10159000469A35B928B960EB6BB99EB981BB00C0DA
:1015A00000C041BB469A35B928B95BB99EB981BB29
:1015B0008091F2119091F311A091F411B091F51175
:1015C0008B2F9927AA27BB27892B8A2B8B2B09F0D6
:1015D00062C180911712823009F4DFC008F0D7C0D1
:1015E000813009F49BC180E090E06091101270910D
:1015F00011120E94851420910E1230910F12280FA3
:10160000391F30931312209312124091EE11509112
:10161000EF116091F0117091F111C090F211D09022
:10162000F311E090F411F090F5114C0D5D1D6E1D5D
:101630007F1D4093F2115093F3116093F411709356
:10164000F511AA27209FB12D319FC001129FB00D27
:10165000811D9A1F309FB00D811D9A1F1124A0E09B
:10166000B0E00097A105B10509F477C09D5FAF4FC9
:10167000BF4F009731E0A307B10524F08FEF9FEF34
:10168000A0E0B0E051D346EC41BB469A31E035B919
:1016900027E428B950EF5BB992EA9EB987E881BB8D
:1016A00000C000C041BB469A35B928B960EB6BB9A0
:1016B0009EB981BB00C000C041BB469A35B928B96C
:1016C0005BB99EB981BB3D813FBF2091A409922F98
:1016D0009C7111E009F010E0922F9370923009F4A0
:1016E000AAC1933009F43EC2913009F4AFC111117F
:1016F00050C280E00E940A428091690D90916A0D6B
:10170000A0916B0DB0916C0D0196A11DB11D809340
:10171000690D90936A0DA0936B0DB0936C0D2091A1
:10172000A4092F5F2093A40927960FB6F894DEBF73
:101730000FBECDBFDF91CF911F910F91FF90EF9022
:10174000DF90CF90BF90AF909F908F907F906F90E1
:101750005F904F903F902F90089580E090E092CF5F
:1017600080E090E019CE80E090E09FCC80E090E0B7
:10177000E4CA80E090E065C980E090E022C8B7FD4F
:1017800002C00C94960380E090E00C9496038330A2
:1017900009F4BFC0843009F026CF6091F211709136
:1017A000F3118091F4119091F5112091141240E2FF
:1017B00051E00E94EC248095909517CF833009F476
:1017C00099C0843009F06ACA6091741170917511E2
:1017D00080917611909177112091961140E251E01D
:1017E0000E94EC24809590955BCA833009F45DC01B
:1017F000843009F0E3CA6091A2107091A310809127
:10180000A4109091A5102091C41040E251E00E94D4
:10181000EC2480959095D4CA833009F475C0843047
:1018200009F084CC6091CC107091CD108091CE10D5
:101830009091CF102091EE102111DDC0BB27A92F70
:10184000982F872F8095909573CC833009F457C0DB
:10185000843009F0DBCB60919E1170919F118091D3
:10186000A0119091A1112091C01140E251E00E947D
:10187000EC2480959095CCCB80E791E10E94693271
:1018800003CA88EC90E10E94693246CC8AE991E172
:101890000E946932B1CB8EEE91E10E94693299CEFD
:1018A0008EE990E10E9469327FCA8091B2109091D6
:1018B000B31086CA60919E1170919F118091A01102
:1018C0009091A1112091C01140E253E00E94EC24BC
:1018D0009FCB6091CC107091CD108091CE109091E3
:1018E000CF102091EE1021118AC0BB27A92F982F6D
:1018F000872F1ECC8091841190918511D1C9809140
:10190000AE119091AF1184CB8091DC109091DD10DD
:101910000FCC809102129091031267CE6091F21168
:101920007091F3118091F4119091F511209114129E
:1019300021115DC0BB27A92F982F872F56CE60910C
:10194000A2107091A3108091A4109091A5102091E5
:10195000C41040E253E00E94EC2432CA609174113A
:101960007091751180917611909177112091961157
:1019700040E253E00E94EC2493C980E090E0DC0157
:101980000C942C0480E090E0DC01A5C880E090E09D
:10199000DC0149CD80E090E0DC0197CD80E090E073
:1019A000DC01A6CA80E090E0DC0150CA80E090E053
:1019B000DC0104CC80E090E0DC0152CC80E090E0DF
:1019C000DC010C94810480E090E0DC01D7C880E069
:1019D00090E027C980E090E095CC80E090E00C9406
:1019E000D60480E090E0C3CD80E090E0D3CA40E22E
:1019F00053E09CD7FACD40E251E098D723CF40E2A4
:101A000053E094D795CB1C821B820C94C302809028
:101A10002E1290902F1295948794840C951C0C9400
:101A2000710280E090E0DC010C94F10280E090E033
:101A3000DC010C94430383E392E19DD78091E21291
:101A400088700E94FA272091A4096BCE0E9406217B
:101A500080918814882309F496C08091D512882338
:101A600039F081508093D5120E946C198111BAC04F
:101A70008091CE12882309F47EC02091CC1230913F
:101A8000CD1202E712E18EE4882E82E1982EA6E6BE
:101A9000B2E16AE872E19AE5A92E92E1B92E4EE729
:101AA00052E1D12C42C0E81AF90A2E153F0508F47C
:101AB0007901E80EF91EF401F182E082FA01E19069
:101AC000F190AF01F501808191818E159F0508F09D
:101AD00063C0E81AF90A2E153F0508F47901E80EEB
:101AE000F91EF501F182E082FB01E190F190BF0166
:101AF0008D919C9111978E159F0508F05FC0E81A93
:101B0000F90A2E153F0508F47901E80EF91E119621
:101B1000FC92EE92D394F2E08F0E911C129682E02A
:101B2000A80EB11C96E0D91631F1F801E190F190C0
:101B30008F01F401808191818E159F0508F4B3CF48
:101B4000E816F90608F0BACFFC01EE19FF097F018B
:101B50002E173F0708F479018E199F09F40191832C
:101B60008083ACCF22FDDDCD812F0E945629812FAD
:101B700046D2111135C02091A409D3CD0196A11DE3
:101B8000B11D0C94BD028091D512882309F46CCF4D
:101B900068CF0E942533ADCDE816F90608F0A4CF32
:101BA000FC01EE19FF097F012E173F0708F47901A8
:101BB0008E199F09F5019183808396CFE816F90667
:101BC00008F0A8CFFC01EE19FF097F012E173F078F
:101BD00008F479018E199F0911969C938E939ACFE0
:101BE000AFD5C9CF8091C80B811103C08091500C33
:101BF00081110E946C228091610D882309F438CFF5
:101C00000E94A12135CFECE5F8E180818F5F8083D0
:101C1000089555E05A95F1F7000036EC31BB469A2D
:101C200080EE87B997E09AB98DB915B880E488B984
:101C30001BB880E28EB987E481BB82E08A95F1F718
:101C400000C026B199B18CB131BB479A37EE37B994
:101C500037EF3AB932EE3DB9422F4695437050E81E
:101C6000259F90011124422B292F2071422B292FCF
:101C7000269526952870422B96959076492B90E0D4
:101C8000880F991F84709927842B089536EC20EED5
:101C900097E0A0E8F7E4E7EE77EF62EE5FB7F8943D
:101CA00031BB469A27B99AB92DB915B8A8B99BB9CD
:101CB0001EB8F1BB42E04A95F1F700C046B1B9B198
:101CC000BCB131BB479AE7B97AB96DB95FBF55E08E
:101CD0005A95F1F7000042FFE1CF5FB7F89496EC18
:101CE00091BB469A382F330F982F9695232F267045
:101CF0002068482F441F4427441F242B8071836091
:101D0000432F440F4072842B307C832B927090625F
:101D100015B828B98BB99EB987E881BB85E08A954B
:101D2000F1F700005FBF08959C01232F332726950C
:101D30002695722F66EC61BB469A522F550F452FA0
:101D400046704068207133272260352F330F307280
:101D5000322B507C352B272F26952270206215B808
:101D600048B93BB92EB957E851BB969587959695DA
:101D70008795282F61BB469A482F440F382F3695F8
:101D8000221F2227221F642F6670262B2068807155
:101D900099278260942F990F9072982B407C942BF6
:101DA000327015B828B99BB93EB951BB08952F922E
:101DB0003F924F925F926F927F928F929F92AF92DB
:101DC000BF92CF92DF92EF92FF920F931F93CF9328
:101DD000DF93CDB7DEB728970FB6F894DEBF0FBEFE
:101DE000CDBF8D832FB72E83F894282F2595259569
:101DF0002595259580E290E002C0959587952A95D6
:101E0000E2F79D819F70982B86EC81BB469A492F03
:101E1000440F292F2695392F331F3327331F842F43
:101E20008670382B30649071842F880F8072892BD4
:101E3000407C842B2270206491E095B938B98BB92D
:101E40002EB987E881BB35E03A95F1F700002D8186
:101E5000332727FD30953A832983F901EC5CF94F4C
:101E6000C080D12C80E190E08C199D092FEF3FEFCD
:101E7000082E02C0369527950A94E2F702C0220F79
:101E8000331F8A95E2F73C832B83E12CF12C00E091
:101E900010E82FEF3FEF96ECA92E40EEB42E57E05E
:101EA000252E3324339460E4462E70E2572EE7E467
:101EB0006E2EF7EE7F2EA7EF8A2EB2EE9B2E0AC073
:101EC000200F311F16950795AFEFEA1AFA0ACE14C4
:101ED000DF042CF1C9012F83388726DF82E08A9541
:101EE000F1F700C0A1BA469AB7B82AB8BDB835B85C
:101EF00048B81BB85EB861BA92E09A95F1F700C095
:101F000086B189B19CB1A1BA479A77B88AB89DB811
:101F10002F81388585FDD4CF201B310BD3CF86ECA4
:101F200081BB469A81E085B987E488B980EF8BB997
:101F300082E48EB987E881BBB5E0BA95F1F700007D
:101F4000EB81FC812E233F23E981FA81EE0FFF1FF5
:101F5000EB56F04F31832083232F3327E981FA8119
:101F6000EF58F04F848190E0821B930B97FD1DC0CA
:101F7000059704F53E813FBF28960FB6F894DEBF63
:101F80000FBECDBFDF91CF911F910F91FF90EF90CA
:101F9000DF90CF90BF90AF909F908F907F906F9089
:101FA0005F904F903F902F90089591958195910962
:101FB000059704F3248381E090E0A0E0B0E00D8079
:101FC00004C0880F991FAA1FBB1F0A94D2F7409123
:101FD000710F5091720F6091730F7091740F842B79
:101FE000952BA62BB72B8093710F9093720FA09314
:101FF000730FB093740F2D812093D60FBBCFCF9367
:10200000882339F180912B0A8F5F80932B0A8531C9
:1020100048F081E090912C0A9111CDC080932C0A58
:1020200010922B0AC0912F0AC11179C05091290A30
:1020300090912A0AE091300AE13009F4DEC008F4F8
:10204000AFC0E23009F4C4C020E0F0E0EB5DF54F32
:102050002487AFB7F89456EC51BB469A41E045B996
:1020600080E488B91BB880E28EB937E831BB00C084
:1020700000C080E190E00090300A02C0880F991FF4
:102080000A94E2F7282F51BB469A782F770F682FD2
:102090006695221F2227221F972F9670292B2064D6
:1020A0008071972F990F9072982B707C972B62708C
:1020B00045B928B99BB96EB931BB00C000C0E091E9
:1020C000300AF0E0EB5DF54F848551BB469A582FFE
:1020D000550F982F9695252F26702064682F661F20
:1020E0006627661F262B682F6071852F880F8072E8
:1020F000862B507C852B9270906245B928B98BB99C
:102100009EB931BBAFBF8091300A90E0019663E089
:1021100070E00E94F3518093300ACF91089540916E
:102120002D0A4F5F40932D0AE4E3FAE0019000206E
:10213000E9F7E553FA4020912E0A332727FD309521
:10214000C90101966E2F772767FD70950E94F351A4
:10215000F901EB5DF54F278530E02038310588F136
:102160005FEFE82FFF27E7FDF095EB5DF54F278543
:1021700030E02038310550F5F901EC5AF94F9081E3
:10218000403108F457CF80932E0A10922D0A811106
:1021900051CF1C160CF04ECFC150C0932F0A4ACF1E
:1021A0002091250A80912C0A882309F44ECF809132
:1021B000270A28274ACF80E080932C0A10922B0A06
:1021C00031CFF901EC5AF94F5081CBCF9FEFD8CFE7
:1021D000292F2F778091250A9091260A90FD20685B
:1021E0008091270A9091280A90FF2FCF80912C0A86
:1021F000882309F42ACF205828CF252F2F778091C4
:10220000250A9091260A91FD20688091270A9091D5
:10221000280A91FF1ACFEACF4FB7F89480911B108C
:1022200096EC91BB469A382F330F982F9695232F13
:1022300026702064582F551F5527551F252B582FC2
:102240005071832F880F8072852B307C832B927086
:10225000906631E035B928B98BB99EB987E881BB62
:102260004FBF089596EC91BB469A582F56955695B8
:1022700056958295880F807E462F440F362F3695CF
:10228000242F26702064962F991F9927991F292B98
:102290006071942F990F9072962B407C942B327022
:1022A000832B55B928B99BB98EB987E881BB85E0E6
:1022B0008A95F1F700000895CF93DF93AADCC82F29
:1022C000D0E0A7DC382F20E0C22BD32B60E081E0E8
:1022D000C9DF60E081E0C6DF61E082E0C3DF60E08B
:1022E00082E0C0DFC095D095CE01DF91CF910895F7
:1022F0006095EBE5F8E19081982B6923608386EC8B
:1023000081BB469A362F330F962F9695262F221F84
:102310002227221F832F8670282B20646071832F31
:10232000880F8072862B307C832B9270906C31E00A
:1023300035B928B98BB99EB987E881BB85E08A9504
:10234000F1F70000EAE5F8E180818F5F808308956E
:10235000CF92DF92EF92FF920F931F93CF93DF9371
:1023600090E040E452E46FE070E0F6ECE0EEC7E0AD
:10237000DC2EEE24E394D0E4FD2E00E217E4D7EE49
:10238000C7EFB2EE05C0411551056105710571F148
:10239000F1BB469AE7B9DAB8EDB9E5B8F8B81BB8B9
:1023A0000EB911BB22E02A95F1F700C0A6B1C9B061
:1023B000CCB0F1BB479AD7B9CAB9BDB941505109A0
:1023C00061097109A2FB222720F930E082179307E7
:1023D000D1F6452B462B472B49F0DF91CF911F912A
:1023E0000F91FF90EF90DF90CF900895DF91CF9104
:1023F0001F910F91FF90EF90DF90CF9004CCDF9270
:10240000EF92FF920F931F93CF93DF9390E040E4FE
:1024100052E46FE070E0F6ECE0EE17E0D12EEE242F
:10242000E39400E4F02E00E217E4D7EEC7EFB2EE3B
:1024300005C0411551056105710569F1F1BB469A69
:10244000E7B9DAB8EDB9E5B8F8B81BB80EB911BB01
:1024500022E02A95F1F700C0A6B1A9B1ACB1F1BB59
:10246000479AD7B9CAB9BDB9415051096109710933
:10247000A1FB222720F930E082179307D1F6452BE4
:10248000462B472B41F0DF91CF911F910F91FF9089
:10249000EF90DF900895DF91CF911F910F91FF9002
:1024A000EF90DF90B0CBCF93DF93E2E6FDE0808149
:1024B000C4E6DDE0688190E070E00E94F351A091F5
:1024C000650DB091660DA80FB91F2C913FB7F89418
:1024D000808190E00196688170E00E94F3518083D2
:1024E0003FBF822FDF91CF91D1CB0F931F93072F47
:1024F000069510E00F771127282F2F77409186142B
:102500004F704069E0915D19F0915E1963E070E0F1
:102510008DE599E109951F910F9108950F93262F4D
:102520004F772F778F708068E0915D19F0915E1979
:10253000042F482F63E070E08DE599E109950F9134
:102540000895EF92FF920F931F93CF93DF93EC01C7
:10255000162FF42EE22E80918219843071F1C23050
:10256000D10509F453C0C330D10571F1C130D10593
:10257000F9F1C430D105C8F5E0917919F0917A19D3
:10258000309739F00E2D2F2D412FBE018DE599E1A9
:102590000995E0917B19F0917C19309739F00E2D57
:1025A0002F2D412FBE018DE599E10995DF91CF9146
:1025B0001F910F91FF90EF900895E0917719F0919E
:1025C00078193097F9F6D8CF862F807F803A09F4B2
:1025D0008DC008F041C0803809F456C0803961F6DA
:1025E000E0916119F091621942C0C0E0D0E0C4CF1F
:1025F000683F50F1E0917319F0917419309709F424
:10260000BBCF612F8DE599E10995C3CF862F807FE0
:10261000803D09F455C0803F09F440C0803C09F07A
:10262000ABCFE0916B19F0916C19309709F4A4CFFE
:10263000133F09F43FC0113FE9F1612F6F704F2D37
:102640008DE599E10995A5CF663F09F095CFE09119
:102650007519F0917619D2CF803ED9F0803FA9F15B
:10266000803B09F089CFE0915F19F09160193097B4
:1026700009F482CF123F99F1612F6F702E2D4F2DEB
:102680008DE599E1099585CFE0916319F091641981
:10269000EECFE0916719F0916819E9CF633F59F1E6
:1026A000613F09F069CFE0917119F091721930978B
:1026B00009F462CF4F2D612F8DE599E1099569CF1E
:1026C000E0916D19F0916E19B0CF623F09F054CFCF
:1026D000E0916919F0916A19309709F44DCF2E2DC8
:1026E0004F2D62EF8DE599E1099553CFE091651982
:1026F000F0916619BCCFE0916F19F0917019309785
:10270000C9F63ACF21E020932F0A0097A9F0109242
:102710002E0ABC0185E39AE00E940756E4E3FAE042
:1027200001900020E9F7E553FA40EC5CF54F80E2B8
:1027300090E09183808308958FEF80932E0A08950F
:1027400080915C13882319F0815080935C13089565
:102750001092710F1092720F1092730F1092740FEB
:102760008FEF8093D60F80934E138FEF9FEFDC0196
:1027700080934F1390935013A0935113B09352131F
:1027800008958F929F92AF92BF92CF92DF92EF9275
:10279000FF920F931F934A015B0168017901BC010D
:1027A00080E090E00E9437539058A50194010E9468
:1027B00072520E94DF52A70196010E94BB540E94F0
:1027C0000B53CB011F910F91FF90EF90DF90CF90B3
:1027D000BF90AF909F908F9008950F931F93E6E660
:1027E000FAE090E02191922B2AE0E637F207D1F748
:1027F00031E0911101C030E0EEE7FBE090E0208194
:10280000922B3C962BE0E63CF207C9F791110BC0E6
:102810004FEF5FEFBA014093CF125093D012609305
:10282000D1127093D212332321F09091B0169923D4
:10283000D1F03093B016882399F0809123139091B2
:10284000241300E010E42CE135E440E050E86BE3B1
:1028500076E48095909595DF9093D4128093D3126F
:102860001F910F9108954091690D50916A0D6091EB
:102870006B0D70916C0D4093CF125093D0126093FA
:10288000D1127093D212D5CF0F931F93CF93DF93B2
:10289000EC018A899B8900E01FEF2FE737E440E0D5
:1028A00050E26BE476E4809590956BDFAC0160E0DC
:1028B00070E0088C04C0440F551F661F771F0A94F0
:1028C000D2F7488759876A877B87DF91CF911F911D
:1028D0000F910895CF93DF93EC017B8B6A8BD4DF4C
:1028E000A98DBB27A1950CF4B095AA0FBB1F11961B
:1028F000288539854A855B850E949E566C877D8731
:102900008E879F87DF91CF910895AC01AA27469FBC
:10291000B12D579F9001749FB00D211D3A1F569FF6
:10292000B00D211D3A1F1124C9010895A72F8F3F13
:10293000F9F0282F2F5F30E0220F331FE82FF0E04F
:10294000EE0FFF1FE40FF51F60817181FA01E20FA6
:10295000F31F80819181861B970B892F9927A89F50
:102960009001A99F300D1124260F371FC90108952A
:102970002EEF31E0E3CF8F929F92AF92BF92CF9232
:10298000DF92EF92FF92CF93DF93EC01CC80DD805A
:10299000EE80FF808F2D9927AA27BB27892B8A2BB2
:1029A0008B2B09F051C08A8D8C849D84AE84BF84AA
:1029B000833009F470C068F5813009F498C08C89BF
:1029C0009D89C80CD91CEA1CFB1CCC82DD82EE82DE
:1029D000FF82BC01705848895989AA27649FB12D8C
:1029E00075039001569FB00D211D3A1F74033A0BD9
:1029F000B00D211D3A1F11242E8B3F8BDF91CF91FB
:102A0000FF90EF90DF90CF90BF90AF909F908F900E
:102A10000895843009F447C0853009F0D0CFB7015C
:102A2000A601E9E07695679557954795EA95D1F720
:102A3000CA015D8B4C8B298D222309F4C2CF80956E
:102A400090959D8B8C8BBDCFE1E0898DE81BE98F44
:102A5000E11155C0C12CD12C7601CC82DD82EE82F1
:102A6000FF82FF27E1950CF4F095DF01AA0FBB1F51
:102A70001196288539854A855B850E949E564B01B3
:102A80005C016C877D878E879F878A8D81113DC011
:102A9000FD8BEC8B94CF40EB54E1C701B60146DFD0
:102AA0009D8B8C8B8ECF2B8922952F7048815981DD
:102AB0006A817B81972F440F551F661F771F892FCF
:102AC000881F8827881F392F3295369537708327BE
:102AD0008927969589278170482B215058F748837C
:102AE00059836A837B83CA015D8B4C8B6ACF7727BE
:102AF0006F2D5E2D4D2DCA015D8B4C8B62CFCC248A
:102B0000CA94DC2CEC2CF12CA8CF823009F050CFE9
:102B10000E9459567D8B6C8B8A8D8C849D84AE84EB
:102B2000BF84CC80DD80EE80FF8042CFEF92FF92A9
:102B30000F931F93CF93DF93F82EEFB6F89484E7AB
:102B4000E7EDF2E1DF011D928A95E9F780E090E878
:102B50009093F6128093F5129093FC128093FB12DF
:102B60002FEF3FEF309300132093FF129093041345
:102B7000809303133093101320930F133093F412A8
:102B80002093F3129093201380931F1390932C1390
:102B900080932B13909326138093251385E08093C5
:102BA000EA1281E08093EB128093E4128093E612A4
:102BB0008093EC1282E08093ED1246E050E06FEFDC
:102BC00070E08DE293E10E94F55503E313E1C0E06C
:102BD000D0E0BE01882777FD8095982F0E94395359
:102BE0002BEA3AEA4AEA55E40E94BB540E940B538E
:102BF000F801619371938F012196CC30D10549F78B
:102C0000F11008C0EFBEDF91CF911F910F91FF909F
:102C1000EF90089581E08093D712EFBEDF91CF91BE
:102C20001F910F91FF90EF9008958F929F92AF9216
:102C3000BF92DF92EF92FF920F931F93CF93DF9398
:102C40009C01862E912C8114910409F445C081E0E9
:102C5000881A9108A12CB12CAFEF8A1A9A0AAA0AF5
:102C6000BA0ABA2CA92C982C882480E090E0DC01C8
:102C7000A90160E070E0403E51056105710510F565
:102C80005F5F6F4F7F4F762F652F542F4427FEE6EF
:102C9000EF2EFDE0FF2EE80EF91EC0E0D0E000E0D0
:102CA00010E06BBFFA01D790F701E00FF11FD0825F
:102CB00021968E014F5F5F4F6F4F7F4FC115E1E04F
:102CC000DE0779F72F5F3F4F9F5FAF4FBF4F8815EC
:102CD0009905AA05BB0561F61092700F80916E0DE3
:102CE00090916F0DA091700DB091710D22E73DE0B4
:102CF00030936F0F20936E0F853A9641A146B10530
:102D0000B9F42091720D83E79DE090936F0F80934B
:102D10006E0F2093700F81E0DF91CF911F910F9183
:102D2000FF90EF90DF90BF90AF909F908F900895AD
:102D300080E092E0EEE6FDE0DF019C011D92215073
:102D40003040E1F780E0E8CFEF92FF920F931F93BE
:102D5000CF93DF93E82EEB01FFB6F89461E065DFD7
:102D6000EEE6FEE040E051E004C0A9012115310586
:102D7000F9F09A012150310992919923B1F39A0106
:102D80008A010F5F1F4FE092C016E1ECF6E18EE67C
:102D90009DE0A901BC01CF010E94DB551983088386
:102DA000FFBEDF91CF911F910F91FF90EF9008959B
:102DB00001E010E020E030E0E6CF1F93CF93DF93F7
:102DC0001FB7F89461E031DF882309F496C080E0F2
:102DD000ADDE10922D138FEF80932E1380932F135F
:102DE0008093301380933113809332133091700F9E
:102DF000332309F47CC0C0916E0FD0916F0F20E097
:102E000089919991E22FF0E0EE0FFF1FEF50FD4EF8
:102E1000918380832F5F293199F7C0936E0FD093F0
:102E20006F0F80E09991DE01D0936F0FC0936E0F0A
:102E3000E82FF0E0E952FD4E90838F5F873191F7E4
:102E40008091E7128093F012323008F450C08D91D7
:102E50009D91E22FF0E0EE0FFF1FEF50FD4E9183AA
:102E600080832F5F2E3199F7B0936F0FA0936E0F71
:102E7000FD018191F0936F0FE0936E0F8093EE123E
:102E800011968C911197ED012296D0936F0FC093FC
:102E90006E0F8093EF12EDE2F3E18991D0936F0F03
:102EA000C0936E0F819383E1E333F807B1F780910C
:102EB0008B1490918C1490932C1380932B13373098
:102EC000B0F0FD013896C3E3D3E1909681919191E2
:102ED00089939993EA17FB07C9F7F0936F0FE09373
:102EE0006E0F1FBF81E0DF91CF911F91089581E0A8
:102EF0001FBFDF91CF911F91089580E01FBFF9CFD1
:102F0000EEE6FDE080E092E0DF019C011D922150A1
:102F10003040E1F727E02093700F85EA96E1A1E6C3
:102F2000B0E080839183A283B383248383E79DE011
:102F300090936F0F80936E0F0895833061F0893105
:102F400051F08F3141F091E08F3019F0803109F06C
:102F500090E0892F089591E0892F08958F929F9294
:102F6000AF92BF92EF92FF921F93CF93DF93109295
:102F70006D0DC0E0D0E014E26C2F772767FD7095EF
:102F8000872F972F0E9439534B015C012DEB3EE1B7
:102F900040EC55E40E94BB5420E030E44CE955E499
:102FA0000E9407520E940B537B0121E33CE043E463
:102FB00055E4C501B4010E94BB5420E030E44CE16B
:102FC00056E40E9407520E940B531C9FF0011D9F64
:102FD000F00D1124E05AFC4E86E0E192F192F38666
:102FE000E286778B668B8150C1F72196C830D10578
:102FF00019F6DF91CF911F91FF90EF90BF90AF90A6
:103000009F908F900895DF92EF92FF920F931F93FE
:10301000CF93DF93E82FD62E6BEA869F612D112484
:10302000669566956695F62FFF5F50E0683008F06C
:1030300071C0862F90E0880F991FEC01CC0FDD1F27
:10304000CC0FDD1FCC0FDD1FC80FD91FC40FD51F3C
:10305000CC0FDD1FC05ADC4E0990D881C02DF8304E
:1030600008F47DC0DA01AA0FBB1FA45ABB4E0D9114
:103070001C91DA01AA0FBB1FA85CBB4E8D919C91DD
:103080009801281B390BAF2FB0E017970E94DE5133
:10309000600F711F811D911D6115710521E082076F
:1030A000910508F072C09BEAE99F912D1124969535
:1030B00096959695892F880F890F880F880FE81BA2
:1030C000F0E0EE0FFF1FED5CFC4EE080F1808B0125
:1030D0000C1B1D0B8D2D90E0A0E0B0E06627782F33
:1030E000892F9A2F2CE030E040E050E00E94DF561C
:1030F0002E0D3F1D411D511DD8010E949456C80F31
:10310000D91FCE01DF91CF911F910F91FF90EF90CA
:10311000DF900895EA01CC0FDD1FC45ADB4E099001
:10312000D881C02DDA01AA0FBB1FA85CBB4E8D91C0
:103130009C919E01281B390BA62FB0E017970E9487
:10314000DE516C0F7D1F811D911D6115710521E000
:1031500082079105F8F4EB01F83008F083CF8F2F48
:1031600090E0880F991FDC01AA0FBB1FAA0FBB1F9D
:10317000AA0FBB1FA80FB91FA40FB51FAA0FBB1F13
:10318000A05ABC4E6D917C918ECF6FEF7FEF80E0A7
:1031900090E089CF6FEF7FEF80E090E0EB01DCCF34
:1031A000EF92FF920F931F93CF93DF9380E0E82F6E
:1031B000F0E0EE0FFF1FEA55FD4E118210828F5F87
:1031C0008231A9F71092CB121092CA128091EB12A1
:1031D000823009F44FC0833099F1813039F0DF91AA
:1031E000CF911F910F91FF90EF9008950091A4123D
:1031F0001091A512E090EA12EE0CF12C4F2D60E038
:103200008E2D01DFEC014F2D60E080E0FCDE9E01A1
:10321000281B390BEF2DF0E0EE0FFF1FEA55FD4E96
:10322000D8010E94DE5191838083F3948CE0F812E0
:10323000E5CFDF91CF911F910F91FF90EF9008950F
:103240002091EA12A091A412B091A51230E00E9440
:10325000DE519B01AC01A5E5B5E10E949456909327
:10326000CB128093CA12DF91CF911F910F91FF90E3
:10327000EF9008952091EA12A091A412B091A512A6
:1032800030E00E94DE519B01AC01A5E5B5E10E9452
:103290009456BB2797FDB095AB2F9093BF128093A8
:1032A000BE129093C1128093C0129093C312809368
:1032B000C2129093C5128093C4129093C712809348
:1032C000C6129093C9128093C812DF91CF911F91BB
:1032D0000F91FF90EF90089520911E1030911F10D4
:1032E0002F3F8FEF380791F080911C1090911D10A7
:1032F000019690931D1080931C108217930730F055
:1033000010921D1010921C1081E0089580E0089525
:103310000F931F93CF93DF93FC018BE1DF011D928D
:103320008A95E9F700EB14E160E070E080E89FEB3C
:10333000C0E0D0E01BC0BE01882777FD8095982FA4
:103340000E94395320E030E04FE753E40E9472526C
:1033500020E030E040E85FE30E9407522BED3FE0C1
:1033600049E450E40E94BB540E946F5220E030E0D8
:1033700040E85FE30E94075220E030E040E05FE376
:103380000E94BB5420E03FEF4FE757E40E94BB543C
:103390000E940B53F801619371938F012196C1151F
:1033A000F1E0DF0741F6DF91CF911F910F91089572
:1033B00021E030E002C0220F331F8A95E2F7D901E5
:1033C000A095B0958091250A9091260A8A239B2387
:1033D0009093260A8093250AE091270AF091280A03
:1033E000EA23FB23F093280AE093270A662371F06F
:1033F000822B932B9093260A8093250A442331F045
:103400002E2B3F2B3093280A2093270A089524E679
:1034100030E040E050E00E94B8562AE030E040E062
:1034200050E00E94B856605D205D30E020383105E4
:1034300088F4F901EC5AF94F80818093290A70E0F1
:103440006038710570F4FB01EC5AF94F808180936C
:103450002A0A08958FEF8093290A70E06038710579
:1034600090F38FEF80932A0A089590E080389105B9
:1034700088F4FC01EC5AF94F80818093290A70E0AE
:103480006038710570F4FB01EC5AF94F808180932C
:103490002A0A08958FEF8093290A70E06038710539
:1034A00090F38FEF80932A0A08951F93CF93DF93B1
:1034B0001FB7F89453DD0E94243E1092181010920A
:1034C0001710109200101092FF0FCFEFDFEFD09384
:1034D000F40FC093F30F1092021010920110D093CA
:1034E000F60FC093F50F1092041010920310D093B2
:1034F000F80FC093F70F1092061010920510D0939A
:10350000FA0FC093F90F1092081010920710D09381
:10351000FC0FC093FB0F10920A1010920910D09369
:10352000FE0FC093FD0F80911B10816080931B10D4
:103530000E940C11D0930E10C0930D101092101019
:1035400010920F10C0E06C2F6E5E8C2F0E9408400E
:10355000CF5FC630C1F780911B108E7F80931B1008
:103560000E940C1180911B10886080931B100E9498
:103570000C1110920E1010920D108FEF9FEF909380
:10358000101080930F106C2F645F8C2F0E940840E6
:10359000CF5FCC30C1F780911B10877F80931B10C9
:1035A0000E940C1110920E1010920D10109210101B
:1035B00010920F108FEF9FEF9093181080931710B9
:1035C0001092F40F1092F30F1092F60F1092F50F65
:1035D0001092F80F1092F70F1092FA0F1092F90F45
:1035E0001092FC0F1092FB0F1092FE0F1092FD0F25
:1035F0006C2F6A5F8C2F0E940840CF5FC231C1F7E9
:103600001092181010921710109200101092FF0FC5
:1036100010920210109201101092041010920310D8
:1036200010920610109205101092081010920710B8
:1036300010920A10109209100E94973D1092290AC8
:1036400010922A0A1092260A1092250A1092280A2D
:103650001092270A10922F0AD3D01FBFDF91CF916B
:103660001F910895AF92BF92CF92DF92EF92FF9297
:103670000F93CF93DF931092C70B84EDA82E86E0B3
:10368000B82E9FE7E92E9BE0F92E20E8C22E2BE012
:10369000D22EE5014C2F4A1989919091C50B8923AF
:1036A00041F0F7018081882321F0F6018081882391
:1036B000A1F0FCE0EF0EF11C8CE0C80ED11CE6E09E
:1036C000CA3DDE0739F7DF91CF910F91FF90EF9060
:1036D000DF90CF90BF90AF900895F701359720818C
:1036E0003181F701329700E060E080810E94293546
:1036F000F7011082DECF842F2091851427FD09C0A9
:103700006F7070E0332727FD30956217730709F05B
:10371000089520E040E050E060E00C94A935842F4B
:10372000E0918514E7FD09C06F7070E0FF27E7FDA9
:10373000F0956E177F0709F00895422F50E0542F3F
:103740004427550F41505E4F61E0211101C060E0F8
:1037500020E00C94A9358F929F92AF92BF92CF92A6
:10376000DF92EF92FF920F93CF93DF93EC01809162
:103770006E0F90916F0F8E569D4081309240A0F554
:10378000862E912C8114910479F181E0881A910898
:10379000A12CB12C2FEF821A920AA20AB20ABA2CDB
:1037A000A92C982C8824C12CD12C7601CE01A0E024
:1037B000B0E0803E9105A105B10560F4A601425933
:1037C000524F9F5FAF4FBF4F6627782F892F9A2F99
:1037D0000E9400F821968FEFD81AE80AF80AC81458
:1037E000D904EA04FB0411F7DF91CF910F91FF9008
:1037F000EF90DF90CF90BF90AF909F908F90089503
:103800000F931F93CF93DF931FB7F89479DBC09189
:103810006E0FD0916F0FAE0160E070E004E2069F82
:10382000F001079FF00D1124E05AFC4E80E090E07B
:1038300021913191DA01A80FB91F2D933C93029683
:1038400084329105A9F76F5F7F4F4C5D5F4F683001
:10385000710529F78091821490918314FE01E05E36
:10386000FE4F91838083FE01EE5DFE4F80918014B8
:103870009091811491838083CC5DDE4FD0936F0F44
:10388000C0936E0F809184148883E0916E0FF09145
:103890006F0FCF01019690936F0F80936E0F809101
:1038A00085148183E0916E0FF0916F0FCF01019627
:1038B00090936F0F80936E0F809187148183E091B6
:1038C0006E0FF0916F0FCF01019690936F0F809361
:1038D0006E0F809186148183E0916E0FF0916F0FCF
:1038E000CF01019690936F0F80936E0F8091881493
:1038F0008183E0916E0FF0916F0FCF01019690934D
:103900006F0F80936E0F809189148183E0916E0F09
:10391000F0916F0FCF01019690936F0F80936E0F10
:1039200080918A148183E0916E0FF0916F0F8091E6
:103930002B1390912C1390938C1480938B1492835F
:1039400081833396F0936F0FE0936E0F62E08CEDFE
:1039500090E001DF1FBFDF91CF911F910F9108957C
:103960002F923F924F925F926F927F928F929F928F
:10397000AF92BF92CF92DF92EF92FF920F931F937D
:10398000CF93DF93CDB7DEB760970FB6F894DEBF65
:103990000FBECDBF80900F13909010139C868B8626
:1039A000A0900713B0900813BE86AD86212C312C51
:1039B000F3C083E0EF85F88980A7CF010E94D73359
:1039C0009091E512992309F40CC183E0ED81FE8109
:1039D00080A7CF010E94D73390918914992309F4CD
:1039E000FCC01595812F992787FD9095019620FEA3
:1039F000FAC04FEF5FEF849F9001859F300D949F39
:103A0000300D1124922F8827AC01662757FD609551
:103A1000762F80911313909114134A015B01880E45
:103A2000991EA11CB11CD501C401B7FCF5C02091A1
:103A30001113309112136A017B01C20ED31EE11CD7
:103A4000F11CF7FCE5C020910D1330910E134A01D3
:103A50005B01820E931EA11CB11C89829A82AB82EB
:103A6000BC82B7FCD0C020910B1330910C134A01DB
:103A70005B01820E931EA11CB11CB7FCC0C020913B
:103A8000091330910A132A013B01420E531E611C97
:103A9000711C77FCB0C00091051310910613F8015A
:103AA0008A019B010E0F1F1F211D311D0F831887D7
:103AB00029873A8737FD9AC009811A812B813C8179
:103AC00001151105F1E02F07310524F00FEF1FEF6D
:103AD00020E030E0C982DA82EB82FC82C114D1049A
:103AE00041E0E406F10444F04FEF5FEF60E070E086
:103AF00049835A836B837C83BC01CD0161157105B9
:103B000051E08507910524F06FEF7FEF80E090E0B2
:103B1000AFE0CA2EE12CF12C2B853C8549815A81DE
:103B20008F8598890E94E1340F81188529853A850F
:103B30000115110561E02607310524F00FEF1FEF95
:103B400020E030E0B301A2014114510481E0680695
:103B5000710424F04FEF5FEF60E070E08114910496
:103B600091E0A906B1042CF088248A94982CA12C09
:103B7000B12CEFE0CE2EE12CF12C2D853E85B40149
:103B80008D819E810E94E134EFEF2E1A3E0AF6E00D
:103B90002F16310409F444C0122D0AE2B02EB29C53
:103BA000C001B39C900D11249C01245E3E4E388BC5
:103BB0002F872091E612EF85F88926A39C01205ECD
:103BC0003F4E3E832D839091E412F90196A390918C
:103BD000F0129111EECE81E0EDCE40E050E0BA015E
:103BE00018CF81E0F3CE41E050E005CF1F82188668
:103BF00019861A8661CF412C512C32014CCF812C71
:103C0000912C54013CCF19821A821B821C822BCF2B
:103C1000C12CD12C760117CF80E090E0DC0107CFDA
:103C200060960FB6F894DEBF0FBECDBFDF91CF9187
:103C30001F910F91FF90EF90DF90CF90BF90AF90CA
:103C40009F908F907F906F905F904F903F902F90BC
:103C50000895CF92DF92FF920F931F93CF93DF933C
:103C60001F92CDB7DEB781E00E94ED130E948A3328
:103C70008091E81281114CC00E9417421091871464
:103C80008091C50B181721F081E0FDD41093C50B6E
:103C90001091E9128091C40B181731F081E0F3D430
:103CA0001330A0F51093C40B0E94F53759DE78DA73
:103CB000F0908A1486E9C82E82E1D82E2CE00FEF0E
:103CC0001FEF09C0F601118300832F5FF2E0CF0ED2
:103CD000D11C223189F0FF20A9F3422F60E08EE74A
:103CE000298391D9F6019183808329812F5FF2E0A6
:103CF000CF0ED11C223179F70F90DF91CF911F9118
:103D00000F91FF90DF90CF900C94B03010E0CACFAD
:103D100061E08DE293E1DBD4B1CFCF93DF932091CB
:103D2000851427FD0BC06F7070E0332727FD309599
:103D30006217730719F0DF91CF9108958091841471
:103D40008823C9F34436B8F7C42FD0E08091821499
:103D500090918314C817D90771F3CE012ED8882308
:103D600051F3D0938314C093821410924D1348DD05
:103D7000DF91CF916ECFE82FF0E0EB55F64F9081B9
:103D80009170803209F456C078F0843209F44CC046
:103D9000A0F1863209F445C008F058C09093DE12B5
:103DA00081E080934D1355CF8C31C8F08C3109F4EC
:103DB00044C08091C20981709091E2129473892B62
:103DC0009091C30990FD47C090E0892B9091C40960
:103DD00090FF45C092E0892B8093E212E1CF8A31B7
:103DE000A8F08091C00981709091BF0990FD35C005
:103DF00090E0892B8093E312D3CF8232C1F018F088
:103E00009093DA12CDCF9093D812CACF883131F087
:103E1000893109F008959093DC12C2CF9093D912A2
:103E2000BFCF9093DF12BCCF9093DB12B9CF9093AA
:103E3000DD12B6CF9093D712B3CF9091C109809184
:103E4000E01290FB80F98093E012AACF873211F73D
:103E50009093E812A5CF98E0B8CF92E0CACF90E057
:103E6000BACFCF93809184148823D1F080918214AB
:103E7000909183140E94DD168823C1F080918414F0
:103E80008823D9F00E94A81310924D1381E09091DD
:103E90008414911101C080E080934B13CF91089559
:103EA0008BED90E00E94DD168111E8CF81E00E9449
:103EB0009615809184148111E5CFC8E18C2F5BDFCA
:103EC000CF5FC832D9F781E00E94A340DBCFCF9308
:103ED000DF93C42FD22F8091851487FD0BC06F70A4
:103EE00070E0992787FD90956817790719F0DF91A1
:103EF000CF910895C11135C020918414D23008F4B7
:103F000081C02223A1F38C2F80518E3198F18C2F08
:103F100080558E3108F04FC0EC2FF0E0EE0FFF1F00
:103F2000EF5AFD4E408151812D2F30E0CA01969508
:103F30008795969587958F77992782179307B9F27A
:103F4000CA0188279E7F220F331F220F331F822B27
:103F5000932B9183808381E080934D13DF91CF91E8
:103F600078CEC13009F460C0C03409F469C0209132
:103F70008414C7CFEC2FF0E0EE0FFF1FEF52FD4E81
:103F8000808191812D2F30E0AC01452F552746953A
:103F90004217530709F4ABCF8C7F9170322F222741
:103FA000330F822B932B9183808381E080934D1379
:103FB000DF91CF914ECE8C2F80538A3108F097CF6E
:103FC000EC2FF0E0F0972D2F30E0DF01A452B94F35
:103FD0004C9187E090E0841B910902C035952795AC
:103FE0008A95E2F7822FDF01A952BD4E9C912917D5
:103FF00009F43DC02C93C1E0719759F1CC2309F429
:1040000076CFA9CF622F772767FD70958D2F90E02F
:104010006817790709F475CFD0938414F1DB21DF99
:1040200018DE209184146DCF7D2F770F20E042E0C1
:1040300060E080E090E00E946C392091841461CFB0
:10404000D11103C0DF91CF910DCB81E08093C70BDD
:104050004ECF882371F00E94354286E0EEEBFBE004
:10406000ADE2B3E101900D928A95E1F7C7CFC0E0D0
:10407000C3CF0E941742F1CFCF9380915D0D8F3F48
:10408000B1F0C82FCF7780915F0D8C0F20E040E01A
:1040900050E060E0885E0E94A93560915F0D6C0F72
:1040A000685E40E080918614CF910C948E12CF917F
:1040B00008959F92AF92BF92CF92DF92EF92FF92BC
:1040C0000F931F93CF93DF93182F962E8091610D3E
:1040D000811709F443C0D0DF8FEF9FEF90935C0D01
:1040E00080935B0D8FEF80935D0D40E850E06FEFA4
:1040F00070E08BED9CE00E94F555C4EDAC2EC6E05F
:10410000BC2EDFE7ED2EDBE0FD2E01E8C02E0BE03C
:10411000D02EE5014C2F4A1989919091C50B892326
:1041200041F0D7018C91882321F0F6018081811123
:104130005BC0BCE0EB0EF11CECE0CE0ED11CF6E057
:10414000CA3DDF0739F780E1E6E6FAE0DF011D92BC
:104150008A95E9F71092C70B111116C0911004C08F
:104160008091600D811129C01093610D9092600DB6
:10417000DF91CF911F910F91FF90EF90DF90CF9043
:10418000BF90AF909F900895209188148FEF9FEF7C
:1041900090935C0D80935B0D2111E0CF8091C80B53
:1041A0008230E1F28091500C8230C1F28FEF9FE7B4
:1041B00090931D1080931C10D1CFABEDBCE0FD019E
:1041C0009FEF05C031968DE0EB35F80749F080810F
:1041D00087FFF8CF9083F6CFEDE0AB35BE07A1F0B7
:1041E0008D918F3FC9F3C0CF379720813181F60180
:1041F000349700E060E080810E942935D7011C924D
:10420000F6013197108295CF37DFAECF0F93CF9362
:104210004FB7F89436EC31BB469A80EE87B997E0F9
:104220009AB98DB981E085B980E488B91BB880E27C
:104230008EB987E481BB52E05A95F1F700C026B1F0
:1042400099B18CB131BB479AC22FC695C37050E863
:10425000259F90011124C22B292F2071C22B292FB9
:10426000269526952870C22B96959076C92B90E0BE
:10427000880F991F84709927C82B87EE87B987EF1D
:104280008AB982EE8DB94FBF8091E812882381F000
:104290008091B116C5FF2FC08C2785FD0EC080917F
:1042A00088148230C1F0C093B116CF910F91089558
:1042B0008091B1168C2785FFF2CF8091610D882304
:1042C00041F161E0C5FD60E0F4DE0E94B030809114
:1042D0008814823041F7C0FFE6CF8091B11680FD8F
:1042E000E2CF8091D5128E5F8093D512C093B11624
:1042F000CF910F91089585FFCFCF0E94354286E080
:10430000EEEBFBE0ADE2B3E101900D928A95E1F7AF
:10431000C6CFC5FF11C0A6D900E0409186144F70EA
:10432000406BE0915D19F0915E1920E463E070E06C
:104330008DE599E10995B3CF81E08093C70B0FE735
:10434000ECCFCF938091610D882399F0EBEDFCE0E9
:1043500004C08DE0EB35F80761F081918F3FC9F320
:104360008BDE8091610D8230E1F0833019F1813074
:1043700009F1CF910895615071098109910960682F
:104380007F6F8F6F9F6F6F5F7F4F8F4F9F4FFB01CF
:1043900070935C0D60935B0DE552F34F80818F3F0E
:1043A00021F50E9459566F7777278827907897FFD5
:1043B000EECFE1CF20915B0D30915C0D07C09C01E9
:1043C000FC01E552F34F40814F3F59F4C90101967A
:1043D0008F77907897FFF3CF019780689F6F019652
:1043E000EECF80935B0D90935C0DC081CF77809171
:1043F0005E0D885E20E040E050E861E08C0F0E9496
:10440000A93580915E0D885E60E070E88C0F0E9497
:104410007512E0915B0DF0915C0DE552F34F8081D8
:1044200080935D0D80915E0D80935F0DCF91089517
:10443000BF92CF92DF92EF92FF920F931F93CF9391
:10444000DF938C017C0181E8E80EF11CF70180818B
:104450008823C1F1E801CC57DF4F8881998197FD0E
:1044600031C0F801E80FF91F81816801F7E8CF0E2C
:10447000D11C23C038E1B32EB80EF6018081B80EEE
:1044800020E040E050E060E08B2D0E94A93540E044
:104490006B2D809186140E948E12888199810196DD
:1044A000F701608170E00E94F35199838883F801DD
:1044B000E80FF91F818187FF05C08F73982F9E53E6
:1044C0009230C0F6DF91CF911F910F91FF90EF9046
:1044D000DF90CF90BF9008958F929F92AF92BF923E
:1044E000CF92DF92EF92FF920F931F93CF93DF93C0
:1044F0001F92CDB7DEB700E010E068E8B62EB09EA0
:104500004001B19E900C112488EC9BE0880E991E0E
:10451000D4018C91823099F00F5F1F4F023011054A
:1045200071F70F90DF91CF911F910F91FF90EF9056
:10453000DF90CF90BF90AF909F908F9008956401CF
:10454000B1E8CB0ED11CF6018081882329F37401D8
:10455000F2E8EF0EF11CD701ED91FC91E80DF91D89
:1045600041814E33B1F0C401498362DF4981842F18
:104570008E53823070F0F401EC57FF4FD7012D912C
:104580003C91318320838091D80CF401E957FF4F8F
:1045900080834F73842F8E53823090F058E1A52E84
:1045A000A40E8091D80CA80E20E040E050E861E015
:1045B0008A2D0E94A93560E070E88A2D0E9475124C
:1045C000F701808191810196D6016C9170E00E9483
:1045D000F35191838083F401E80FF91F418147FD76
:1045E000D8CF9ACF80918814813009F008956A3F1E
:1045F000A9F06C3F41F0683FC9F78091D5128F5FF9
:104600008093D51208958091C80B823081F18091FA
:10461000500C823059F780E59CE00ACF8091C80B9E
:10462000823069F110924B0C10924A0C8FEF9FEF81
:1046300090934D0C80934C0C8091500C8230D9F0AB
:104640001092D30C1092D20C8FEF9FEF9093D50C59
:104650008093D40C90935C0D80935B0D8FEF9FE75C
:1046600090931D1080931C101092D512089588EC21
:104670009BE0DEDECCCF80E59CE0DADEE1CF88ECAB
:104680009BE0D6DECFCFE0E8FBE09FEFDF011297A3
:104690001C921082DF0113979C93DF0114979C9367
:1046A000DF011A971D921D921D921C9213973C9642
:1046B0002BE0E83CF20751F7811101C0089580E139
:1046C000E6E6FAE0DF011D928A95E9F708951F9367
:1046D000CF93DF93182FD92FC62F8091C60B861743
:1046E000F1F080E0D0DFC093C60B46E050E06FEF02
:1046F00070E08EEB9BE00E94F555E12FFD2FAEEBB5
:10470000BBE080E091919F3FB9F09D938F5F863031
:10471000C9F71092BE0BDF91CF911F91089546E02B
:1047200050E06EEB7BE0812F0E94CE550097D9F6CA
:10473000DF91CF911F9108958111EBCFEEEBFBE05C
:1047400086E0DF011D928A95E9F7DF91CF911F91F5
:104750000895CF93DF93FC01D62FCFB7F894218132
:1047600030E0C90101964281642F70E00E94F3514C
:10477000408150E08417950791F0A381B481A20F86
:10478000B31FDC93818190E00196628170E00E940A
:10479000F3518183CFBF81E0DF91CF910895CFBFE7
:1047A00080E0DF91CF910895FC013FB7F89421811B
:1047B0009081291728F48281820F891B3FBF0895B9
:1047C000822F891B3FBF0895AF92BF92CF92DF9295
:1047D000EF92FF920F931F93CF93DF93082FD62E64
:1047E000C0E0D0E088E8E82E98EEC92EC00E2FE396
:1047F000F22E1FEFEC9EF001ED9EF00D1124E85318
:10480000F44F8081833079F02196C230D10591F741
:10481000DF91CF911F910F91FF90EF90DF90CF909C
:10482000BF90AF9008950C3F09F45AC00D3F09F4B2
:104830006AC00E3F09F48CC0DD2091F14091DA0C82
:10484000842F8F5F8093DA0C5F0161E8A60EB11CA4
:10485000D5016C91862F90E02091D90CDC01A20F3C
:10486000B11DA038B10584F6442309F49EC0462F3B
:104870004150242F332727FD30952E5F3F4F2E0FB9
:104880003F1FD9015E919D01752F7F73C71609F4F3
:10489000BBCF57FF03C0415047FFF3CF20E88DC087
:1048A0008091DA0C811177C05F0161E8A60EB11C1E
:1048B000D5012C9130E02F5F3F4F2E0F3F1F4091CD
:1048C000D90C50E06EE370E0C9010E94F55580916B
:1048D000D90CF5019081890F80831092D90C94CF67
:1048E000DF01AF57BF4F1C92DF01AA57BF4F1C9289
:1048F0001092D90C319640E850E06FEF70E0CF0194
:104900000E94F55581CFDF01AA57BF4F8C918823B4
:1049100009F47ACF81508C938091D90C811141C0D8
:104920005F0161E8A60EB11CD5018C91882309F4C2
:104930006BCF8150D5018C939F01280F311DD90178
:1049400011969C91119711961C9397FF5DCFEECF16
:104950005F01B1E8AB0EB11CD5014C91842F90E002
:104960002091D90CBC01620F711D603871050CF0EB
:104970004BCF9F012A573F4FD9015C915F5F5C93FA
:104980002091DA0C211122C0E80FF91FF1824F5F4C
:10499000F501408339CF81508093DA0C811134CFF7
:1049A00083CF81508093D90C2FCF9F012A573F4F3F
:1049B000D9014C914F5F4C9320E0E80FF91F822FF3
:1049C0008C2981836F5FF50160831ECF8091D90CA4
:1049D0008F5F8093D90C18CF211106C0472F582F15
:1049E000692F7727CA0108950C9496142F923F924D
:1049F0004F925F926F927F928F929F92AF92BF92EF
:104A0000CF92DF92EF92FF920F931F93CF93DF939A
:104A1000CDB7DEB7A0970FB6F894DEBF0FBECDBFFF
:104A20008C87362E882309F49BC0E091FD12F0910B
:104A3000FE124090FF12509000134091F1125091DD
:104A4000F2128091F7129091F8122091291330916F
:104A50002A130091B30F1091B40F2090E3126091CC
:104A6000ED121093B3160093B216F093B516E093BF
:104A7000B4165092B7164092B6165093B91640939A
:104A8000B8169093BB168093BA163093BD16209338
:104A9000BC162092BE166093BF16000F012F001F98
:104AA000110B11951A95EE0FEF2FEE1FFF0BF195DD
:104AB0005F01BA94612C712C73016201CC0CDD1C76
:104AC000EE1CFF1CCC0CDD1CEE1CFF1CC40CD51C0A
:104AD000E61CF71C73E0F694E794D794C7947A9594
:104AE000D1F756954795569547954C0196948794DE
:104AF000969487948D2D99279B878A87A52FBB270E
:104B0000BF83AE83E92DFF27F987E887D701C60168
:104B10009927AA27BB278B8B9C8BAD8BBE8B6623DB
:104B200009F443C0623008F430C29CE0E92EF12C55
:104B30008E819F81B7010E94F351AE81BF81A81B76
:104B4000B90BBF83AE83CF01B7010E94F351E81BBD
:104B5000F90BF987E887188A1F861E861D862DC0E7
:104B60000091B30F1091B40F8091B2169091B316CB
:104B7000E091FD12F091FE128017910709F4E1C156
:104B80004090FF12509000134091F1125091F21298
:104B90008091F7129091F8122091291330912A13E5
:104BA0002090E3126091ED125CCFFA01FF27FE879F
:104BB000ED87A4015527588B4F875091E812598BE8
:104BC000709189147D8F832F99279C8F8B8F3091C3
:104BD000CE123A8BE12CF12C58E15D8320E0B80134
:104BE000882777FD8095982F69837A838B839C83B0
:104BF000C501AA2797FDA095BA2F8F8B988FA98FF3
:104C0000BA8FF8A2EF8E0AC02F5F4F8D58A14E5F6A
:104C10005F4F58A34F8F263009F438C137FC02C0CC
:104C20002311F2CF8F8D98A1880F991FAF8CB8A058
:104C30008A0D9B1D880F991F8A59954FFC01E85ECC
:104C4000FE4F3081332309F43AC1FC01E95EFE4F87
:104C5000B080BD823D81A32EB12C48E1A41AB108D9
:104C6000888499848A0C9B1C0F8D18A1005E1F4EAE
:104C7000F801EA57FD4FC080D180EE24D7FCE094C4
:104C8000FE2C69817A818B819C81C60ED71EE81E1D
:104C9000F91E8E819F818A0D9B1D97FD27C1422F92
:104CA0006D852E8F0E940318C80ED91EE11CF11CC1
:104CB0002E8DF7FC29C1C114D10471E0E706F1047F
:104CC0002CF0CC24CA94DC2CE12CF12CF801EE560B
:104CD000FD4F40805180662457FC6094762C89817A
:104CE0009A81AB81BC81480E591E6A1E7B1E4F897A
:104CF000588D698D7A8D440E551E661E771E422F83
:104D00004A5FC40197FCFDC06F852E8F0E94031877
:104D1000480E591E611C711C2E8D77FCEEC041148B
:104D2000510451E0650671042CF044244A94542C3B
:104D3000612C712C8A859B85222051F061E026161A
:104D400009F4F2C08A859B858A0D9B1D97FDF6C0EC
:104D5000422F445F6B892E8F0E940318F801E256A0
:104D6000FD4F80809180AA2497FCA094BA2C880ED5
:104D7000991EA11CB11C2E8DB7FCBBC081149104DF
:104D800081E0A806B1042CF088248A94982CA12CE8
:104D9000B12C3989311104C05D8D552309F451C0FE
:104DA000822F8595992787FD9095019620FF9BC0BE
:104DB0006FEF7FEF869FA001879F500D969F500D4C
:104DC00011246B8D7C8D469FC001479F900D569F8F
:104DD000900D1124AA2797FDA095BA2FC80ED91EB1
:104DE000EA1EFB1EF7FC9CC0C114D10471E0E7066B
:104DF000F1042CF0CC24CA94DC2CE12CF12C480ECC
:104E0000591E6A1E7B1E77FC87C041145104E1E0E5
:104E10006E0671042CF044244A94542C612C712C9D
:104E2000880E991EAA1EBB1EB7FC72C08114910485
:104E3000F1E0AF06B1042CF088248A94982CA12CC0
:104E4000B12CAA88F801AA2009F43EC0EE5AFD4F01
:104E5000D182C082F801E25AFD4F51824082F801AE
:104E6000E659FD4F918280822110CECEF801EA5B97
:104E7000FD4F91828082C8CE6091BE162612B7C0C7
:104E80006091ED127091BF166713EBCDA0960FB62F
:104E9000F894DEBF0FBECDBFDF91CF911F910F9170
:104EA000FF90EF90DF90CF90BF90AF909F908F904A
:104EB0007F906F905F904F903F902F9008953C852A
:104EC0003F3F09F0A1CEC6CEE25DFD4FD182C08248
:104ED000F801E65CFD4F51824082F801EA5BFD4F2C
:104EE0009182808291CE61E070E064CF80E090E0BA
:104EF000D6CE812C912C540141CF412C512C320122
:104F00000ECF80E090E000CFC12CD12C7601D3CE23
:104F1000812C912C54018ACF412C512C320175CF18
:104F2000C12CD12C760160CFB7FC34C0B594A794C6
:104F30008A859B858A0D9B1D97FF0ACF80E090E0B4
:104F400007CF8091B4169091B5164090FF12509003
:104F50000013E817F90709F017CE8091B616909163
:104F6000B7164091F1125091F21248165906B1F05D
:104F70008091F7129091F8122091291330912A1301
:104F80002090E3126091ED126CCD188A1F861E8668
:104F90001D8613CE7FEFA71AB70AC8CF8091B81627
:104FA0009091B9164817590719F78091F712909107
:104FB000F8122091BA163091BB168217930749F068
:104FC0002091291330912A132090E3126091ED1261
:104FD00048CD2091291330912A136091BC1670910D
:104FE000BD162090E3122617370709F445CF6091CC
:104FF000ED1237CDCF92DF92EF92FF92CF93909147
:10500000D9122091DC12992309F494C04091F51231
:105010005091F61260E070E0222309F485C0C09040
:10502000FB12D090FC12E12CF12C8823A1F09923E3
:1050300081F08091E21285FD0CC080912E1290913A
:105040002F12AA2797FDA095BA2F480F591F6A1F44
:105050007B1F211174C0CFB7F8944115510521E091
:105060006207710524F04FEF5FEF60E070E0DB0155
:10507000CA0177FD79C00E94940E46EC41BB469A66
:1050800031E035B921E428B950EF5BB992EA9EB915
:1050900087E881BB00C000C041BB469A35B928B93A
:1050A00060E76BB99EB981BB00C000C041BB469AA6
:1050B00035B928B95BB99EB981BBD701C601C11406
:1050C000D10421E0E206F10424F08FEF9FEFA0E08D
:1050D000B0E0B7FD45C00E94940E46EC41BB469A35
:1050E00031E035B927E428B950EF5BB992EA9EB9AF
:1050F00087E881BB00C000C041BB469A35B928B9DA
:1051000060E76BB99EB981BB00C000C041BB469A45
:1051100035B928B95BB99EB981BBCFBFCF91FF909C
:10512000EF90DF90CF900895CC24CA94DC2CE12C32
:10513000F12C7BCF4FEF5FEF60E070E06DCF80919F
:10514000E21284FD88CF80912E1290912F12AA270F
:1051500097FDA095BA2FC80ED91EEA1EFB1E7BCF65
:1051600080E090E0DC01B7CF80E090E0DC0183CF0D
:1051700086EC81BB469A15B896E898B993E09BB93E
:105180001EB897E891BBEFE9FFE03197F1F700C057
:10519000000081BB469A15B823E828B923E12BB952
:1051A00022E02EB991BBFAE0FA95F1F700C081BB7D
:1051B000469A20EE27B997E09AB92DB915B820E89C
:1051C00028B99BB91EB897E491BB92E09A95F1F784
:1051D00000C096B199B19CB181BB479A87EE87B95F
:1051E00087EF8AB982EE8DB9EAE0EA95F1F700C05F
:1051F00008951F93CF93DF93D82FD86F8695869508
:10520000869528E030E001C0220F8A95EAF7C22F88
:10521000C095CD231FB7F894CB010E94940EE6EC05
:10522000E1BB469A3D2F330F367031649D2F969522
:105230009270906A71E075B938B9A0EFABB99EB9B8
:1052400067E861BB85E08A95F1F70000E1BB469A0B
:10525000FC2FFF0F4C2F46955C2F551F5527551FD0
:105260008F2F8670582B5064C0718F2F880F8072DB
:105270008C2BF07C8F2B4270406A75B958B98BB972
:105280004EB961BB8AE08A95F1F700C0E1BB469A4E
:1052900075B938B9ABB99EB961BB8AE08A95F1F7A7
:1052A00000C01FBFDF91CF911F9108952F923F92B1
:1052B0004F925F926F927F928F929F92AF92BF9226
:1052C000CF92DF92EF92FF920F931F93CF93DF93D2
:1052D000CDB7DEB7CE55D1090FB6F894DEBF0FBEFD
:1052E000CDBF882309F405C3212C422C440C440C67
:1052F000440C76EC572EAA24A394B12CAC0EBD1E00
:105300009E01285F3F4F69963FAF2EAF69974FB719
:10531000F89451BA469A922D990F292F267020643D
:10532000892F880F8072907C892B922D9695927090
:1053300031E035B928B98BB99EB987E881BB5DE00A
:105340005A95F1F7000051BA469A80EE87B997E076
:105350009AB98DB935B980E488B91BB88EB987E49C
:1053600081BB82E08A95F1F700C026B199B18CB17A
:1053700051BA479AC22EC694A3E0CA22B0E82B9F26
:1053800090011124C22A292F2071C22A292F269583
:1053900026952870C22A96959076C92A90E0880FA3
:1053A000991F84709927C82A87EE87B987EF8AB931
:1053B00082EE8DB94FBFD42C712C67E0862E9924D4
:1053C0009A9409C082508083C6947394D39488E0E1
:1053D000781609F4CFC0ED2CF12CF701EB55F64F00
:1053E0008081982F9E7F71F73C2D31708170381726
:1053F00059F3832F8A608083EFE3ED1508F472C0C0
:10540000032F112707FD10958D2D6F963FAF6F97D6
:105410000E94BB1E6F963FAD6F970115110509F4F1
:10542000C9C08D2D8051823008F4F3C1FAE0DF1637
:1054300009F4DEC14BE08091610DD41609F410C26D
:10544000882309F4B7C05DE0D512F6C061E0909101
:10545000600D911160E00E94592091E0012B09F448
:10546000B8C08091B40980FF13C1A9E0AD1508F060
:1054700075C1B2E1DB1609F4FDC52CE0D21609F4C2
:1054800057C13DE0D31609F415C290914B139530E6
:1054900009F418C1992309F42FC289E08D1508F485
:1054A00098C0923009F49CC308F4F2C2953008F019
:1054B00090C080914C13BD2DAAE08A9FB00D11249D
:1054C0008B2FB0934C13943009F4B0C5992787FD06
:1054D00090950E94DD168111F8C490924C130E94A1
:1054E000311F77C0832F992787FD909520915A13FC
:1054F000211172C020915B1321116EC0892B51F0D4
:105500008091C80B813009F4D9C28091500C813050
:1055100009F4C9C29091610D9111EBC01D2D185273
:105520008091C80B833009F457C18091500C8330AF
:1055300009F452C18091D61221E040E050E8632F77
:10554000810F6F963FAF6F970E94A9358091D61259
:10555000810F6F963FAD6F973111BAC140E4682F4C
:10556000809186140E948E12C6947394D39488E01E
:10557000781231CF2394480E9FE0921508F0C7CEE1
:10558000C25ADF4F0FB6F894DEBF0FBECDBFDF911A
:10559000CF911F910F91FF90EF90DF90CF90BF9030
:1055A000AF909F908F907F906F905F904F903F90C3
:1055B0002F90089587E2D81609F453C001151105FC
:1055C000F1F54FE0D41609F447C090E0012B09F043
:1055D00048CF0E94291EF8CE892B09F4F5CEE6EFBC
:1055E000F6E0D501882D01900D928A95E1F7699634
:1055F000EEADFFAD699729E011922A95E9F78D2D5F
:1056000088558093D6128093D80C80935E0D4AE023
:1056100050E0BE01695F7F4F992787FD90950E94FA
:105620006556C5010E94821380915A13882309F49C
:10563000CBCE10925B13C8CE27E2D216A9F09EE023
:10564000D91679F15FE0D512C0CF80915B13882322
:1056500009F4B3C010925B1330935A1390925D1308
:10566000B4CF01151105D1F00E94354286E0EEEB72
:10567000FBE0ADE2B3E101900D928A95E1F78091F4
:1056800084148111A2CF8BED90E00E94FA439DCF4C
:10569000F2E1DF12F2CE0E94551A9BCF0E94174210
:1056A000E5CF80918414882309F4EFCE80914B13C9
:1056B000882309F412C110924B1390914B1395302B
:1056C00009F0E8CE8091C80B833029F08091500C0E
:1056D000833009F07ECF42E04D1508F47ACFF70110
:1056E000E85DF84F80818F3F09F473CF61E06CD89B
:1056F00070CF2D2D20543111BEC08091600D8823B4
:1057000009F4A6C1913009F4CFC3EBEDFCE080E0D1
:1057100090E005C001968038910509F455CE31918D
:105720002313F8CFFC01E552F34F206820834CCEC1
:1057300080918414811106C08BED90E00E94FA43A1
:105740008091841491E0811190E0909384140E94E0
:10575000001C0E94311F0E94291E3BCF10925C1337
:1057600010925B1382E2E6E0F7E0DE01D39601904F
:105770000D928A95E1F780915D138D1509F436C27B
:10578000E4E0DE1609F4BFC3F5E0DF1609F4BCC19E
:10579000D0925D13B5E0BD1508F02BC148E0D416DA
:1057A00009F4F5C14D1508F4ADC256E0D51211CF7C
:1057B0008CEF98E00E9482130CCF80915C138823B9
:1057C00009F48FC010925C1381E080935B133093D7
:1057D0005A1390925D13F9CE632F812F6F963FAFCE
:1057E0006F970E94E423BCD46F963FAD6F97A2CE13
:1057F00081E09091610D913009F453C16091600D89
:105800006F963FAF6F970E9459206F963FAD6F978D
:10581000D5CE81E0F1E1DF1280E028E8829FF0013F
:105820001124E853F44F9081913081F008F404C1C1
:10583000923009F467C1933009F0FCCD91E02091DA
:105840008414222309F49FC190934B1362E06F9656
:105850003FAF6F970E9483426F963FAD6F97E6CD43
:10586000823009F437C108F4DBC0833009F43EC14B
:105870008111ABCEA3CEABEDBCE0FD0105C03DE098
:10588000EB35F30709F423C281918F3FC1F39130C7
:1058900009F46BC180E090E005C001968038910565
:1058A00009F492CD3D913F3FC1F7FC01E552F34F22
:1058B00020838ACD9111E9CD80914B13823009F478
:1058C00084C1843009F481C182E080934B1381CE7E
:1058D00060E070E80E94751277CD81E080934B13F1
:1058E000D4CD8FE380935C1330935A1390925D1361
:1058F0006CCEF8E02F2EF9CC7091591359E05D155C
:1059000008F467CE6D2D7D1509F450C1472F55273A
:1059100047FD50952D2D332727FD3095265F3F4FAE
:105920004217530709F4DDC2D09259138FEF9FEF4E
:10593000DC018093551390935613A0935713B093A3
:105940005813862F992787FD90958C01000F111F02
:10595000080F191F000F111F000F111F005E1A4FB3
:105960000E94A813D80112966D917C911397C501DE
:105970000E940756F50101900020E9F73197CF0109
:105980008A199B092DE330E240E020833183428372
:10599000F8012081213009F4C3C108F05BC1E2E0C5
:1059A000F0E0EC0FFD1FE80FF91F1082D8011196EF
:1059B000EC91EE0FFF0BEF50FD4E808191819093A3
:1059C000541380935313A0E0B0E080934F1390934F
:1059D0005013A0935113B0935213C5010E94821328
:1059E000809184148111F5CD8BED90E00E94FA43F3
:1059F000F0CDE4E0DE1608F09DC0F1E0DF1609F41A
:105A00000BC2DF1608F403C222E0D21609F4E2C189
:105A100033E0D312DECD85ED98E00E948213D9CD1C
:105A20006091600D83E06F963FAF6F970E945920A1
:105A30006F963FAD6F97C2CD90914B13923009F4A2
:105A4000B8C290915A13992309F400CF61E0FFCEB8
:105A5000913009F47AC1EBEDFCE080E090E004C005
:105A600001968038910539F031912313F9CFFC016B
:105A7000E552F34F9082EBEDFCE081918F3F09F00E
:105A8000A3CC5DE0EB35F507C1F70E943C209CCC30
:105A9000913009F09ECDD0924C1383E080934B134C
:105AA00098CD80E0ABCE62E06F963FAF6F970E94DB
:105AB000834256D36F963FAD6F972CCD62E080E066
:105AC0006F963FAF6F970E9483424AD36F963FAD68
:105AD0006F971BCD6091600D80E06F963FAF6F9721
