:1000000020C100003DC100003BC1000039C100001B
:1000100037C1000035C1000033C1000031C100000C
:100020002FC100002DC100000C94CE360C94CF34AB
:1000300027C1000026C1000023C1000021C100002B
:100040001FC100000C9410371BC1000019C1000033
:1000500017C1000015C1000013C1000011C100004C
:100060000FC100000DC100000BC1000009C100005C
:1000700007C1000005C1000003C1000001C100006C
:10008000FFC00000FDC00000FBC00000F9C0000080
:10009000F7C00000F5C0000005A84CCDB2D44EB9A1
:1000A0003836A9020C50B9918688083CA6AAAA2A1B
:1000B000BE000000803F08000000BE922449123EAE
:1000C000ABAAAA2ABECDCCCC4C3E00000080BEAB71
:1000D000AAAAAA3E00000000BF000000803F000066
:1000E000000000084178D3BB4387D1133D190E3C73
:1000F000C3BD4282AD2B3E68EC8276BED98FE1A9AA
:100100003E4C80EFFFBE01C4FF7F3F0000000000B7
:1001100007634236B79BD8A71A39685618AEBAABF0
:10012000558C1D3CB7CC5763BD6DEDFD753EF61784
:100130007231BF000000803F62616420666C6970AC
:1001400020666C6F7020737461747573203A2000A0
:100150000A005761726E696E673A2061737369674E
:100160006E65725F676574566F69636546726F6D21
:100170004E6F746520666F756E64206E6F20766FAB
:10018000696365210A0000010000BD011200020040
:1001900000CF012200220000F1011500210000E142
:1001A000010900030000060204010309040A021405
:1001B00002030904200220000001C12600120100F0
:1001C0000200000020C016790400010102000109AC
:1001D000022200010100C0320904000001030000F6
:1001E00000092111010001221500070583032000E9
:1001F000010631FF0974A1537508150026FF00950B
:100200002009758102C004030904140359006F001A
:100210007500720020004E0061006D006500000056
:10022000200359006F007500720020005500530034
:10023000420020004400650076006900630065000C
:10024000000011241FBECFEFD0E2DEBFCDBF1FE004
:10025000A8E9B9E001C01D92A53CB107E1F719E09A
:10026000A0E0B1E0E8E7FDE800E00BBF02C00790C6
:100270000D92A839B107D9F70E941A370C94BA46E3
:10028000BFCE1F920F920FB60F9211240BB60F9292
:100290002F923F924F925F926F927F928F929F9296
:1002A000AF92BF92CF92DF92EF92FF920F931F9384
:1002B0002F933F934F935F936F937F938F939F936E
:1002C000AF93BF93EF93FF93CF93DF93CDB7DEB799
:1002D0002797DEBFCDBF8091EB0E982F9F7121E055
:1002E0002D8391111D82982F937061F48091EA0EF5
:1002F0008111E7C08D810E941B338D810E94C4163D
:100300008091EB0E8F5F8093EB0E1091690E11239D
:1003100011F40C944B10C090570ED090580EE090F2
:10032000590EF0905A0E4F2D552766277727452BEB
:10033000462B472B09F079C060915B0E70915C0EE3
:1003400080915D0E90915E0E123009F4B0C01430B1
:1003500011F40C945F112091630E3091640EDC0156
:10036000CB018C0D9D1DAE1DBF1D8093570E90932C
:10037000580EA093590EB0935A0E40E050E03058FA
:1003800041095109A0915F0EB091600E0E94614633
:100390002FEF3FEF40E050E00E947146C9013093DB
:1003A000660E2093650E2091B70E21FD02C00C94BD
:1003B00009109F838E8322FD02C00C94280F8C01AC
:1003C00024FF02C00C942E0F2090B20B3090B30B80
:1003D000C101A0E0B0E09058A109B1091C018091D1
:1003E0009C0B85FF02C00C947B101A8219828091AD
:1003F000460CEE24E39481117FC2AA24A39421E049
:1004000030E03C832B83EE2009F486C28091310CCE
:1004100087FF02C00C94341187E49CE00E94A33152
:100420008FE49DE00E94A33185C2E1E08091680ED7
:10043000E81BE093680EE1110C94BD11812C912C06
:1004400054018092570E9092580EA092590EB0927D
:100450005A0E2091610E3091620E40E050E0009003
:10046000670E04C0220F331F441F551F0A94D2F792
:10047000FF27E1950CF4F095DF01AA0FBB1F119641
:100480000E946B4660935B0E70935C0E80935D0ED2
:1004900090935E0E113011F40C945713133011F435
:1004A0000C943D1375016401123009F050CF8D2C6E
:1004B0009E2CAF2CBB2494019092640E8092630E0C
:1004C0004ECF8091E80E9091E90E40918E0E5091A2
:1004D0008F0E20916A0E30916B0E2417350710F0A5
:1004E0000C94CB11421B530B8417950708F4AC01F5
:1004F000420F531F50936B0E40936A0E40919A0E19
:1005000050919B0E2091760E3091770E241735076F
:1005100010F40C942F134217530778F4F901E41BDD
:10052000F50BAF018E179F0710F40C946213241B78
:10053000350B3093770E2093760E4091A60E509196
:10054000A70E2091820E3091830E2417350710F4E8
:100550000C9421134217530778F46901C41AD50A81
:10056000A6018C159D0510F40C949113241B350BDA
:100570003093830E2093820E4091900E5091910EF5
:1005800020916C0E30916D0E2417350710F40C94E9
:1005900013134217530778F4B901641B750BAB01B1
:1005A0008617970710F40C948E13241B350B309389
:1005B0006D0E20936C0E40919C0E50919D0E2091DB
:1005C000780E3091790E2417350710F40C9405132A
:1005D0004217530778F4F901E41BF50BAF018E17AE
:1005E0009F0710F40C948B13241B350B3093790E5A
:1005F0002093780E4091A80E5091A90E2091840E60
:100600003091850E2417350710F40C94F712421719
:10061000530778F46901C41AD50AA6018C159D0503
:1006200010F40C948813241B350B3093850E209303
:10063000840E4091920E5091930E20916E0E309147
:100640006F0E2417350710F40C94E9124217530764
:1006500078F4B901641B750BAB018617970710F48A
:100660000C948513241B350B30936F0E20936E0E64
:1006700040919E0E50919F0E20917A0E30917B0EEC
:100680002417350710F40C94DB124217530778F443
:10069000F901E41BF50BAF018E179F0710F40C94C2
:1006A0008213241B350B30937B0E20937A0E4091DE
:1006B000AA0E5091AB0E2091860E3091870E241712
:1006C000350710F40C94CD124217530778F46901E2
:1006D000C41AD50AA6018C159D0510F40C947F133D
:1006E000241B350B3093870E2093860E4091940E79
:1006F0005091950E2091700E3091710E2417350790
:1007000010F40C94BF124217530778F4B901641B1C
:10071000750BAB018617970710F40C947C13241B00
:10072000350B3093710E2093700E4091A00E5091B6
:10073000A10E20917C0E30917D0E2417350710F408
:100740000C94B1124217530778F4F901E41BF50B2E
:10075000AF018E179F0710F40C947913241B350BEF
:1007600030937D0E20937C0E4091AC0E5091AD0ED7
:100770002091880E3091890E2417350710F40C94BF
:10078000A3124217530778F46901C41AD50AA601C7
:100790008C159D0510F40C947613241B350B3093A7
:1007A000890E2093880E4091960E5091970E2091BD
:1007B000720E3091730E2417350710F40C949512B5
:1007C0004217530778F4B901641B750BAB01861708
:1007D000970710F40C947313241B350B3093730E8E
:1007E0002093720E4091A20E5091A30E20917E0E86
:1007F00030917F0E2417350710F40C94871242179E
:10080000530778F4F901E41BF50BAF018E179F072E
:1008100010F40C947013241B350B30937F0E20932F
:100820007E0E4091AE0E5091AF0E20918A0E309107
:100830008B0E2417350710F40C94791242175307C6
:1008400078F46901C41AD50AA6018C159D0510F427
:100850000C946D13241B350B30938B0E20938A0E52
:100860004091980E5091990E2091740E3091750E12
:100870002417350710F00C946412421B530B841795
:10088000950708F4AC01420F531F5093750E409327
:10089000740E4091A40E5091A50E2091800E3091BF
:1008A000810E2417350710F00C944F12421B530B86
:1008B0008417950708F4AC01420F531F5093810E23
:1008C0004093800E4091B00E5091B10E20918C0E4D
:1008D00030918D0E2417350710F00C943A12421BFC
:1008E000530B8417950708F4AC01420F531F509324
:1008F0008D0E40938C0EFECCE12C833019F08430A9
:1009000009F07BCD91E08091EA0E811190E0492FB2
:1009100050E05C834B83A92E87E49CE00E94A331C6
:100920008FE49DE00E94A3318091310C87FF02C0CB
:100930000C94341120916B0C30916C0C4E815F81C2
:100940002A01662457FC6094762C49815A81AA2793
:10095000429FB12D5303C001349FB00D811D9A1FDA
:1009600052039A0BB00D811D9A1F1124AA2797FDDF
:10097000A095BA2F840D951DA61DB71D40916A0E36
:1009800050916B0E840F951FA11DB11DB7FF02C0C2
:100990000C942E12009751E0A507B10524F08FEFBB
:1009A0009FEFA0E0B0E0EFB7F89466EC61BB70ECAD
:1009B00078B9492F5527F42FF695BF2FB695AF2F4D
:1009C000A670A068F07C40725527F42B4B2F407125
:1009D0004260F42BB695B270B062A8B9FBB9BEB94B
:1009E00057E851BB61BB9695879596958795482F9B
:1009F000A82FAA0FF82FF695441F4427441FBA2F9B
:100A0000B6704B2B40688071992782609A2F990F9E
:100A10009072982BA07C9A2BF27048B99BB9FEB9C2
:100A200051BB61BB78B981E085B991E498B990ED8B
:100A30009BB990EA9EB951BB61BB78B985B987E48F
:100A400088B980EF8BB982EA8EB951BBEFBF809134
:100A5000760E9091770EB301A201480F591F611DC8
:100A6000711DDB01CA0177FF02C00C9429120097A7
:100A700051E0A507B10524F08FEF9FEFA0E0B0E0B3
:100A8000EFB7F89466EC61BB70EC78B9492F552745
:100A9000F42FF695BF2FB695AF2FA670A068F07C07
:100AA00040725527F42B5B2F50715260F52B4B2F62
:100AB000469542704062A8B9FBB94EB957E851BBA0
:100AC00061BB9695879596958795482FA82FAA0F75
:100AD000F82FF695441F4427441FBA2FB6704B2BAE
:100AE00040688071992782609A2F990F9072982B95
:100AF000A07C9A2BF27048B99BB9FEB951BB61BB7F
:100B000078B991E095B985E488B980ED8BB982EA2E
:100B10008EB951BB61BB78B995B997E498B990EF9C
:100B20009BB98EB951BBEFBFB101AA27629FB12D0E
:100B30007303A001369FB00D411D5A1F72035A0B5B
:100B4000B00D411D5A1F1124C801AA2797FDA09579
:100B5000BA2F662757FD6095762F840F951FA61F25
:100B6000B71F2091820E3091830E820F931FA11D1B
:100B7000B11DB7FF02C00C942412009771E0A707C3
:100B8000B10524F08FEF9FEFA0E0B0E0BFB7F8947D
:100B900046EC41BB50EC58B9292F3327622F66959C
:100BA000E62FE695762F76707068607C207233278A
:100BB000622B3E2F30713260632B2E2F26952270D0
:100BC000206278B96BB92EB967E861BB41BB9695D5
:100BD000879596958795282F782F770F382F3695FC
:100BE000221F2227221FE72FE6702E2B20688071FC
:100BF00099278260972F990F9072982B707C972B72
:100C0000327028B99BB93EB961BB41BB58B971E09C
:100C100075B981E488B980EE8BB9E2EAEEB961BBBF
:100C200041BB58B975B9A7E4A8B9F0EFFBB9EEB963
:100C300061BBBFBF8091730D9091740DFFB6F894A6
:100C400041BB58B9292F3327D22ED694BD2CB69448
:100C5000BD2DB670B0680F2EF0EC9F2EF02DD92070
:100C600020723327D22A2B2D20712260D22A2B2DDD
:100C7000269522702062B8B9DBB82EB961BB41BBA2
:100C80009695879596958795282FD82EDD0C382F29
:100C90003695221F2227221FB6E0CB2ECD202C29ED
:100CA00020688071992782609D2D990F9072982BF2
:100CB0008D2D807C982B327028B99BB93EB961BBD1
:100CC00041BB58B975B985E488B980EB8BB980EA26
:100CD0008EB961BB41BB58B975B9A8B9FBB9EEB9BA
:100CE00061BBFFBE8091320C87FF02C00C940A11D9
:100CF000EE2041F083E79CE00E94A3318BE79DE06A
:100D00000E94A3318E2C912C8CE2889DF001899D4C
:100D1000F00D1124E95BF34FC4A0D5A02E813F81D3
:100D20002901662457FC6094762C49815A81B601CA
:100D3000AA27469FB12D5703C001749FB00D811D96
:100D40009A1F56039A0BB00D811D9A1F1124AA27D2
:100D500097FDA095BA2F840D951DA61DB71DAA0C51
:100D6000BB08F501E659F14F0190F081E02D8E0F9F
:100D70009F1FA11DB11DB7FF02C00C941F12BC0123
:100D8000CD0161157105A1E08A07910524F06FEF8F
:100D90007FEF80E090E081E00E940319F501EA58BE
:100DA000F14F80819181A3019201280F391F411DCC
:100DB000511DDA01C90157FF02C00C941A12BC017F
:100DC000CD016115710531E08307910524F06FEFC6
:100DD0007FEF80E090E087E00E940319A101B60157
:100DE000AA27469FB12D5703C001749FB00D811DE6
:100DF0009A1F56039A0BB00D811D9A1F1124A8014A
:100E0000662757FD6095762FAA2797FDA095BA2FE4
:100E1000480F591F6A1F7B1FF501EE57F14F808164
:100E20009181480F591F611D711D77FF02C00C94FD
:100E30001512CB01BA0161157105A1E08A07910570
:100E400024F06FEF7FEF80E090E08DE00E940319C7
:100E50008CE2889DF001899DF00D1124ED58F24F30
:100E60006081718183E10E9403198091330C87FFB7
:100E700002C00C948910EE2041F08FE99CE00E94A2
:100E8000A33187EA9DE00E94A3312E2D220F30E08E
:100E90008CE2829FF001839FF00D1124E95BF34FF8
:100EA00064A075A0CE80DF804601AA2497FCA094A0
:100EB000BA2C49815A81B301AA27469FB12D570305
:100EC0006001749FB00DC11CDA1E5603DA0AB00D22
:100ED000C11CDA1E11248B81880F90E0A6016627C1
:100EE00057FD6095762F480D591D6A1D7B1D880F93
:100EF000991FFC01E659F14F0190F081E02D4E0F52
:100F00005F1F611D711D77FF02C00C941012411507
:100F10005105A1E06A07710524F04FEF5FEF60E033
:100F200070E0BA01DFB6F894A6ECA1BBB0ECB8B99A
:100F3000E52FFF27CE2EC6944C2C469446E0542E27
:100F40005C2040E8542ACB22E072FF27CE2AE42D11
:100F5000E071E260CE2AE42DE695E270E06258B8D6
:100F6000CBB8EEB9F7E8F1BBA1BB7695679576955E
:100F70006795E62F562E550CC62EC694EE1FEE270B
:100F8000EE1F46E0442E4520E429E0686071772793
:100F90006260752D770F7072762B652D607C762BD5
:100FA00052E0C522E8B97BB9CEB8F1BBA1BBB8B954
:100FB00061E065B975E478B970ED7BB970EA7EB926
:100FC000F1BBA1BBB8B965B967E468B960EF6BB9AB
:100FD00062EA6EB9F1BBDFBEFC01EA58F14F6081F5
:100FE0007181860E971EA11CB11CB7FE02C00C9425
:100FF0000B128114910461E0A606B1042CF0882440
:101000008A94982CA12CB12C4FB7F894E6ECE1BB54
:10101000F0ECF8B9692D7727B62FB695CB2EC6948C
:10102000AB2FA670A068B07C60727727B62B6C2DB2
:1010300060716260B62B6C2D669562706062A8B9B3
:10104000BBB96EB9B7E8B1BBE1BB969487949694EF
:101050008794782DC82CCC0CD82CD694771F772762
:10106000771F6C2D6670762B7068A0E18A22992418
:1010700062E0A62E8A286C2D660F60726829CF2246
:101080006C29DA2078B96BB9DEB8B1BBE1BBF8B92D
:1010900061E065B971E478B970EE7BB970EA7EB948
:1010A000B1BBE1BBF8B965B967E468B960EF6BB98A
:1010B00062EA6EB9B1BB4FBFA101B301AA27469F37
:1010C000B12D5703F001749FB00DE11DFA1F5603B7
:1010D000FA0BB00DE11DFA1F11244801AA2497FC58
:1010E000A094BA2CAF01662757FD6095762F840E29
:1010F000951EA61EB71EFC01EE57F14F408151818F
:10110000840E951EA11CB11CB7FE02C00C940612E1
:101110008114910471E0A706B1042CF088248A940C
:10112000982CA12CB12CC401CFB6F89456EC51BB2D
:1011300060EC68B9E92DFF277E2F7695472F4695FD
:10114000A72FA670A068707CE072FF277E2BE42F8B
:10115000E071E2607E2B469542704062A8B97BB98F
:101160004EB947E841BB51BB9695879596958795B3
:10117000782FF82FFF0FE82FE695771F7727771F37
:10118000AF2FA6707A2B70688071992782609F2F8D
:10119000990F9072982BF07C9F2BE27078B99BB9D5
:1011A000EEB941BB51BB68B9A1E0A5B985E488B9E6
:1011B00080EE8BB972EA7EB941BB51BB68B9A5B963
:1011C000E7E4DE2ED8B8B0EFBBB97EB941BBCFBEE5
:1011D0008CE2829FF001839FF00D1124ED58F24FB5
:1011E00080819181FFB6F89451BB68B9292F3327CC
:1011F000F22FF695BF2EB694EF2FE670E068F07CE4
:1012000020723327F22B3B2D30713260F32B2B2DC4
:10121000269522702062E8B9FBB92EB941BB51BBBB
:101220009695879596958795282FF82FFF0F382F3D
:101230003695221F2227221FE6E0CE2ECF222C2910
:1012400020688071992782609F2F990F9072982B48
:10125000F07C9F2B327028B99BB93EB941BB51BB82
:1012600068B9A5B981E488B980EB8BB97EB941BB77
:1012700051BB68B9A5B9D8B8BBB97EB941BBFFBEEF
:101280008091340C87FD71C7EE2041F08BEC9CE01F
:101290000E94A33183ED9DE00E94A331EE2DEE0F5D
:1012A000EE0D4E2E512C8CE2E89FF0011124E95BEB
:1012B000F34F24A135A1CE80DF804601AA2497FCFC
:1012C000A094BA2C69817A81AA27629FB12D7303F9
:1012D000A001369FB00D411D5A1F72035A0BB00D6D
:1012E000411D5A1F11249B81892F880F890F90E07F
:1012F000662757FD6095762F480D591D6A1D7B1D89
:10130000880F991FFC01E659F14F0190F081E02D03
:101310004E0F5F1F611D711D77FF02C00C940112FB
:1013200041155105A1E06A07710524F04FEF5FEF09
:1013300060E070E0FFB6F894E6ECE1BBF0ECF8B9E1
:10134000652F7727B62FB695CB2EC694AB2FA670F8
:10135000A068B07C60727727B62B6C2D60716260DC
:10136000B62B6C2D669562706062A8B9BBB96EB978
:1013700077E871BBE1BB5695479556954795642F25
:10138000D42EDD0CB42FB695661F6627661FA6E027
:10139000CA2ECD206C2960684071552742605D2DB2
:1013A000550F5072542B4D2D407C542BB27068B9A0
:1013B0005BB9BEB971BBE1BBF8B951E055B947E4BF
:1013C00048B960ED6BB960EA6EB971BBE1BBF8B9C1
:1013D00055B948B940EF4BB942EA4EB971BBFFBEAF
:1013E000FC01EA58F14F40815181840E951EA11CE9
:1013F000B11CB7FE02C00C94FC1181149104E1E011
:10140000AE06B1042CF088248A94982CA12CB12C1F
:10141000EFB7F89466EC61BB70EC78B9492D5527AD
:10142000F42FF695BF2FB695AF2FA670A068F07C6D
:1014300040725527F42B4B2F40714260F42B4B2FF9
:10144000469542704062A8B9FBB94EB9F7E8F1BBC6
:1014500061BB9694879496948794582DB82DBB0FB2
:10146000A82DA695551F5527551F4B2F4670542B59
:10147000506840E18422992442E0A42E8A284B2F10
:10148000440F40724829B07C4B2BA27058B94BB91D
:10149000AEB9F1BB61BB78B941E045B953E458B985
:1014A00050EE5BB950EA5EB9F1BB61BB78B945B9A2
:1014B00047E448B940EF4BB942EA4EB9F1BBEFBF40
:1014C000B101AA27629FB12D7303A001369FB00D11
:1014D000411D5A1F72035A0BB00D411D5A1F112492
:1014E0004801AA2497FCA094BA2C662757FD609562
:1014F000762F840E951EA61EB71EFC01EE57F14FE7
:1015000020813181820E931EA11CB11CB7FC70C7D3
:101510008114910471E0A706B1042CF088248A9408
:10152000982CA12CB12CC401EFB7F89456EC51BB08
:1015300060EC68B9292D3327422F4695F42FF69594
:10154000742F76707068407C20723327422B3F2FB7
:1015500030713260432B2F2F26952270206278B98C
:101560004BB92EB947E841BB51BB969587959695E7
:101570008795282F782F770F382F3695221F22270F
:10158000221FF72FF6702F2B206880719927826019
:10159000972F990F9072982B707C972B327028B9E7
:1015A0009BB93EB941BB51BB68B9A1E0A5B9B7E44D
:1015B000B8B980EE8BB972EA7EB941BB51BB68B94C
:1015C000A5B9B8B980EFD82EDBB87EB941BBEFBF63
:1015D0008CE2849DF001859DF00D1124ED58F24FB1
:1015E00080819181FFB6F89451BB68B9292F3327C8
:1015F000F22FF695BF2EB694EF2FE670E068F07CE0
:1016000020723327F22B3B2D30713260F32B2B2DC0
:10161000269522702062E8B9FBB92EB941BB51BBB7
:101620009695879596958795282FF82FFF0F382F39
:101630003695221F2227221FE6E0CE2ECF222C290C
:1016400020688071992782609F2F990F9072982B44
:10165000F07C9F2B327028B99BB93EB941BB51BB7E
:1016600068B9A5B983E488B980EB8BB97EB941BB71
:1016700051BB68B9A5B9B8B9DBB87EB941BBFFBEEB
:101680008091350C87FD9DC5EE2041F087EF9CE0F1
:101690000E94A3318FEF9DE00E94A3314E2D440F95
:1016A000440F642E712C8CE2869DF001879DF00D15
:1016B0001124E95BF34F64A175A1CE80DF80460160
:1016C000AA2497FCA094BA2C29813A81AA27269FA4
:1016D000B12D3703C001729FB00D811D9A1F3603D3
:1016E0009A0BB00D811D9A1F11242B81220F220FFE
:1016F00030E0AA2797FDA095BA2F880D991DAA1D45
:10170000BB1D220F331FF901E659F14F0190F08103
:10171000E02D8E0F9F1FA11DB11DB7FD65C600975F
:1017200041E0A407B10524F08FEF9FEFA0E0B0E007
:10173000FC01DFB6F89486EC81BB90EC98B9AF2F32
:10174000BB27CA2EC6944C2C469456E0552E5C20DE
:1017500050E8552AC922A072BB27CA2AA42DA0711D
:10176000A260CA2AA42DA695A270A06258B8CBB8D0
:10177000AEB9B7E8B1BB81BBF695E795F695E795AD
:10178000AE2F5E2E550CCE2EC694AA1FAA27AA1FD6
:1017900046E0442E4520A429A068E071FF27E260BE
:1017A000F52DFF0FF072FE2BE52DE07CFE2BE2E025
:1017B000CE22A8B9FBB9CEB8B1BB81BB98B9F1E0D4
:1017C000F5B9E1E4E8B9E0EDEBB9E2EAEEB9B1BBB5
:1017D00081BB98B9F5B987E488B980EF8BB9EEB9C8
:1017E000B1BBDFBEF901EA58F14F80819181880ECB
:1017F000991EA11CB11CB7FCF3C581149104F1E042
:10180000AF06B1042CF088248A94982CA12CB12C1A
:10181000FFB6F894E6ECE1BBF0ECF8B9892D992716
:10182000B82FB695CB2EC694AB2FA670A068B07C0F
:1018300080729927B82B8C2D80718260B82B8C2DEB
:10184000869582708062A8B9BBB98EB9B7E8B1BB82
:10185000E1BB9694879496948794982DC82CCC0CD1
:10186000D82CD694991F9927991F8C2D8670982B68
:10187000906840E18422992452E0852A8C2D880FBB
:1018800080728829CF228C29D52298B98BB9DEB8ED
:10189000B1BBE1BBF8B981E085B995E498B990EEA8
:1018A0009BB990EA9EB9B1BBE1BBF8B985B987E4B1
:1018B00088B980EF8BB982EA8EB9B1BBFFBEA101B6
:1018C000AA27469FB12D5703C001749FB00D811DFB
:1018D0009A1F56039A0BB00D811D9A1F11244801BF
:1018E000AA2497FCA094BA2CAA2797FDA095BA2FFA
:1018F000880E991EAA1EBB1EF901EE57F14F80817A
:101900009181880E991EA11CB11CB7FC65C581147C
:10191000910451E0A506B1042CF088248A94982CF7
:10192000A12CB12C6FB7F89426EC21BB30EC38B960
:10193000892D9927782F7695F72FF695E72FE67062
:10194000E068707C80729927782B9F2F907192604D
:10195000792B8F2F869582708062E8B97BB98EB91A
:1019600077E871BB21BB9694879496948794982DC1
:10197000F82DFF0FE82DE695991F9927991F8F2FB6
:101980008670982B9068D401A071BB27A2608F2F1E
:10199000880F80728A2BF07C8F2BE27098B98BB9FC
:1019A000EEB971BB21BB38B981E085B991E498B932
:1019B00090EB9BB990EA9EB971BB21BB38B985B950
:1019C00087E488B980EF8BB982EA8EB971BB6FBFAB
:1019D0008CE2869DF001879DF00D1124ED58F24FA9
:1019E0006081718186E10E9403198091360C87FD28
:1019F0005AC3EE2041F083E29DE00E94A3318BE2C6
:101A00009EE00E94A331EE2DEE0FEE0FEE0D8E2F15
:101A100090E06CE2E69FF0011124E95BF34F24A112
:101A200035A14E815F816A01EE24D7FCE094FE2C43
:101A300049815A81AA27429FB12D53034001349F07
:101A4000B00D811C9A1E52039A0AB00D811C9A1E79
:101A500011245B81452F440F440F450F50E0AA2409
:101A600097FCA094BA2C8C0C9D1CAE1CBF1C440F80
:101A7000551FFA01E659F14F60817181860E971E5C
:101A8000A11CB11CB7FCA4C48114910461E0A6069A
:101A9000B1042CF088248A94982CA12CB12CAFB7D7
:101AA000F894E6ECE1BBF0ECF8B9692D7727B62F96
:101AB000B6957B2E76940F2EF6E0BF2EF02DBB222E
:101AC0006894AA24A7F8BA28B07C60727727B62B4E
:101AD000772D70717260B72B672D669562706062AA
:101AE000B8B8BBB96EB9B7E8B1BBE1BB96948794FF
:101AF00096948794782DA82CAA0CB82CB694771FAE
:101B00007727771F6A2D6670762B706860E18622D2
:101B1000992462E0862A6A2D660F60726829AF22D6
:101B20006A296894992491F8B92078B96BB9BEB83C
:101B3000B1BBE1BBF8B971E075B963E468B960EDB8
:101B40006BB962EA6EB9B1BBE1BBF8B975B977E4BC
:101B500078B970EF7BB96EB9B1BBAFBFFA01EA5883
:101B6000F14F6081718146015701860E971EA11CBD
:101B7000B11CB7FC29C48114910461E0A606B1042C
:101B80002CF088248A94982CA12CB12CFFB6F894C0
:101B9000F6ECF1BBA0ECA8B9692D7727E62FE69506
:101BA000EE2EE694BE2FB670B068E07C60727727A8
:101BB000E62B7E2D70717260E72B6E2D669562703C
:101BC0006062B8B9EBB96EB9E7E8E1BBF1BB9694D6
:101BD000879496948794782DE82CEE0CB82DB695C2
:101BE000771F7727771F6E2D6670762B706860E100
:101BF0008622992462E0A62E8A286E2D660F6072D6
:101C00006829EA226E29B27078B96BB9BEB9E1BB16
:101C1000F1BBA8B971E075B967E468B9B0EEBBB9BA
:101C2000B0EABEB9E1BBF1BBA8B975B968B960EF5C
:101C30006BB962EA6EB9E1BBFFBEB101AA27629F30
:101C4000B12D73034001369FB00D811C9A1E7203A3
:101C50009A0AB00D811C9A1E1124222717FD209587
:101C6000322FAA2497FCA094BA2C080D191D2A1D06
:101C70003B1DFA01EE57F14F40815181040F151FB2
:101C8000211D311D37FD9CC30115110571E027078A
:101C9000310524F00FEF1FEF20E030E0FFB7F8949C
:101CA00056EC51BB60EC68B9212F3327422F469583
:101CB000E42FE695742F76707068407C207233278D
:101CC000422B3E2F30713260432B2E2F26952270EF
:101CD000206278B94BB92EB947E841BB51BB169584
:101CE000079516950795302FE02FEE0F702F7695FC
:101CF000331F3327331F2E2F2670322B306800718D
:101D0000112702602E2F220F2072202BE07C2E2B19
:101D1000727038B92BB97EB941BB51BB68B9A1E02B
:101D2000A5B923E428B910EB1BB920EA2EB941BBB1
:101D300051BB68B9A5B977E4F72EF8B8E0EFEE2EFD
:101D4000EBB8B2EABEB941BBFFBF2CE2289FF0015D
:101D5000299FF00D1124ED58F24F80819181FFB73A
:101D6000F89451BB68B9292F3327722F7695072F26
:101D70000695E72FE670E068707C20723327722B9F
:101D8000302F30713260732B202F26952270206205
:101D9000E8B97BB92EB941BB51BB9695879596950D
:101DA0008795282F782F770F382F3695221F2227D7
:101DB000221FE72FE6702E2B206880719927826002
:101DC000972F990F9072982B707C972B327028B9AF
:101DD0009BB93EB941BB51BB68B9A5B9F8B81BB9AD
:101DE000BEB941BB51BB68B9A5B9F8B8EBB8BEB92B
:101DF00041BBFFBF9D80911010C127960FB6F8948C
:101E0000DEBF0FBECDBFDF91CF91FF91EF91BF91AC
:101E1000AF919F918F917F916F915F914F913F9182
:101E20002F911F910F91FF90EF90DF90CF90BF9077
:101E3000AF909F908F907F906F905F904F903F906A
:101E40002F900F900BBE0F900FBE0F901F90189504
:101E500000E010E024FD02C00C94E401AA2797FDE5
:101E6000A095BA2F2091DC0B3091DD0B40919B0B9C
:101E700040FF8AC2AC01BD01420F531F611D711D9D
:101E800077FD56C44115510521E06207710524F024
:101E90004FEF5FEF60E070E0652F752F7695272F8D
:101EA0002695F72FF670F068322F3071607232602D
:101EB000707C762B732B2695227020625695479561
:101EC00056954795642F342F330FE42FE695661F00
:101ED0006627661F0F2EF6E0EF2EF02DE3226E2907
:101EE0006068407155274260532F550F5072542B34
:101EF000307C532BE270EFB6F89436EC31BB40ECFB
:101F000048B9F8B97BB92EB927E821BB31BB68B90C
:101F10005BB9EEB921BB31BB48B961E065B951E4A9
:101F200058B950E75BB952EA5EB921BB31BB48B939
:101F300065B937E438B930EF3BB95EB921BBEFBEC4
:101F40002091C60B3091C70B40919B0B41FF8BC278
:101F5000820F931FA11DB11DB7FDE6C3009731E0AD
:101F6000A307B10524F08FEF9FEFA0E0B0E0392F79
:101F7000692F6695562F5695E62FE670E068252F57
:101F8000207130722260607C632B622B56955270F8
:101F900050629695879596958795482F382F330FE1
:101FA000782F7695441F4427441F232F2670422BF9
:101FB0004068807199278260232F220F2072282B7E
:101FC000307C232B7270FFB7F89496EC91BB30EC09
:101FD00038B9E8B96BB95EB987E881BB91BB48B93C
:101FE0002BB97EB981BB91BB38B951E055B947E4F3
:101FF00048B920E72BB922EA2EB981BB91BB38B989
:1020000055B948B990EF9BB92EB981BBFFBF0C946D
:10201000E4011F821E820C94DB018091460C882310
:1020200009F475C18091310C87FD05C080917A0D4E
:10203000882309F491C38091320C87FD05C08091FB
:102040007A0D882309F484C38091330C87FD05C081
:1020500080917A0D882309F477C38091340C87FD31
:1020600005C080917A0D882309F46AC38091350CEC
:1020700087FD05C080917A0D882309F45DC38091A6
:10208000360C87FDBACE80917A0D8111B6CE85E0EF
:102090000E948D21B2CE1092660E1092650E80E0E5
:1020A00090E00C94D3016FB7F89496EC91BB20ECC0
:1020B00028B940E848B932E03BB980E28EB987E8F8
:1020C00081BB91BB48B93BB91EB881BB91BB28B954
:1020D00051E055B947E448B930EB3BB932EA3EB973
:1020E00081BB91BB28B955B948B990EF9BB93EB9AE
:1020F00081BB6FBF7FCE6090DE0B7090DF0BC301A2
:10210000A0E0B0E09058A109B1099A8389830C94AA
:10211000F7015FB7F89496EC91BB20EC28B940E842
:1021200048B932E03BB980E28EB987E881BB91BB08
:1021300048B93BB91EB881BB91BB28B941E045B94C
:1021400031E438B930EB3BB932EA3EB981BB91BBDF
:1021500028B945B997E498B990EF9BB93EB981BBCE
:102160005FBF8091340C87FF8FC85FB7F89496ECFF
:1021700091BB20EC28B940E848B932E03BB980E295
:102180008EB987E881BB91BB48B93BB91EB881BB0A
:1021900091BB28B941E045B933E438B930EB3BB9DC
:1021A00032EA3EB981BB91BB28B945B997E498B9E9
:1021B00090EF9BB93EB981BB5FBF8091350C87FF23
:1021C00063CA5FB7F89496EC91BB20EC28B940E85D
:1021D00048B932E03BB980E28EB987E881BB91BB58
:1021E00048B93BB91EB881BB91BB28B941E045B99C
:1021F00035E438B930EB3BB932EA3EB981BB91BB2B
:1022000028B945B997E498B990EF9BB93EB981BB1D
:102210005FBFEBCB5FB7F89496EC91BB20EC28B98D
:1022200040E848B932E03BB980E28EB987E881BB2B
:1022300091BB48B93BB91EB881BB91BB28B941E0FD
:1022400045B937E438B960EB6BB960EA6EB981BB68
:1022500091BB28B945B938B990EF9BB992EA9EB9BC
:1022600081BB5FBF0C9435075FB7F89496EC91BBC8
:1022700020EC28B940E848B932E03BB980E28EB999
:1022800087E881BB91BB48B93BB91EB881BB91BB04
:1022900028B931E035B945E448B940EB4BB940EADB
:1022A0004EB981BB91BB28B935B997E498B990EF85
:1022B0009BB992EA9EB981BB5FBF0C9472061D2D3B
:1022C000EE2DEF3F09F4FBC12E2D2F5F30E0220FE2
:1022D000331FF0E0EE0FFF1FE856F64F0190F0813C
:1022E000E02DD901A856B64F2D913C912E1B3F0BE6
:1022F000432F5527149F9001159F300D11242E0F49
:102300003F1F3093640E2093630E0C94AF018091B5
:10231000310C87FD05C080917A0D882309F42FC206
:102320008091320C87FD05C08091A60D882309F4A9
:1023300022C28091330C87FD05C08091D20D882385
:1023400009F415C28091340C87FD05C08091FE0D03
:10235000882309F408C28091350C87FD05C080915F
:102360002A0E882309F4FBC18091360C87FD45CDE8
:102370008091560E811141CD8ACE88248A94982C62
:10238000A82CB12C0C942102E2E052EF67E822E283
:1023900072E7F6E8B0CD4217530710F00C947E02B6
:1023A000B901641B750BAB018617970708F48DC143
:1023B000241B350B30936B0E20936A0E0C947E0217
:1023C00000E010E0980160CC812C912C5401D3CB1B
:1023D000812C912C540158CB812C912C540197CAFB
:1023E000812C912C540109CA80E090E0DC0197C94E
:1023F000812C912C54018CC8812C912C54010C946B
:10240000FD0940E050E0BA010C949009812C912C18
:1024100054010C948808812C912C54010C94F907D8
:1024200040E050E0BA010C94870740E050E0BA0168
:102430000C94190780E090E0DC010C94DF0680E04A
:1024400090E0DC010C94BF0680E090E0DC010C948D
:10245000BD0580E090E0DC010C94370580E090E061
:10246000DC010C94CA0472E022EF47E852E262E712
:10247000E6E8A9CD4217530710F00C947A016901E0
:10248000C41AD50AA6018C159D0508F424C1241B85
:10249000350B30938D0E20938C0E0C947A014217DD
:1024A000530710F00C946204F901E41BF50BAF0123
:1024B0008E179F0708F40DC1241B350B3093810E36
:1024C0002093800E0C9462044217530710F00C9472
:1024D0004904B901641B750BAB018617970708F413
:1024E000F6C0241B350B3093750E2093740E0C949C
:1024F0004904421B530B8417950708F4AC01420FA3
:10250000531F50938B0E40938A0E0C943004421B41
:10251000530B8417950708F4AC01420F531F5093D7
:102520007F0E40937E0E0C941104421B530B8417B4
:10253000950708F4AC01420F531F5093730E40935C
:10254000720E0C94F203421B530B8417950708F488
:10255000AC01420F531F5093890E4093880E0C9488
:10256000D303421B530B8417950708F4AC01420FA9
:10257000531F50937D0E40937C0E0C94B403421B6A
:10258000530B8417950708F4AC01420F531F509367
:10259000710E4093700E0C949503421B530B8417DD
:1025A000950708F4AC01420F531F5093870E4093D8
:1025B000860E0C947603421B530B8417950708F480
:1025C000AC01420F531F50937B0E40937A0E0C9434
:1025D0005703421B530B8417950708F4AC01420FB5
:1025E000531F50936F0E40936E0E0C943803421B92
:1025F000530B8417950708F4AC01420F531F5093F7
:10260000850E4093840E0C941903421B530B8417C0
:10261000950708F4AC01420F531F5093790E409375
:10262000780E0C94FA02421B530B8417950708F49A
:10263000AC01420F531F50936D0E40936C0E0C94DF
:10264000DB02421B530B8417950708F4AC01420FC1
:10265000531F5093830E4093820E0C94BC02421B76
:10266000530B8417950708F4AC01420F531F509386
:10267000770E4093760E0C949D020E9453469093E1
:10268000640E8093630E1091690E60915B0E7091E1
:102690005C0E80915D0E90915E0EC090570ED090B2
:1026A000580EE090590EF0905A0E0C94A401F0933D
:1026B000640EE093630E750164010C94AB012EEF80
:1026C00031E007CEAC010C949702AC0171CEAC01A5
:1026D00008CFAC01F1CEAC01DACEAC010C942A04E7
:1026E000AC010C940B04AC010C94EC03AC010C9405
:1026F000CD03AC010C94AE03AC010C948F03AC0180
:102700000C947003AC010C945103AC010C94320393
:10271000AC010C941303AC010C94F402AC010C94C6
:10272000D502AC010C94B60280E090E0DC0116CC3E
:1027300040E050E0BA01A6CB84E00E948D219FCCFE
:1027400083E00E948D2192CC82E00E948D2185CC75
:1027500081E00E948D2178CC0E948D216CCC84E098
:102760000E948D2101CE83E00E948D21F4CD82E074
:102770000E948D21E7CD81E00E948D21DACD0E945B
:102780008D21CECD9091C40F992309F440C09FB7FD
:10279000F89423E02093E9002091BF0F21112FC06E
:1027A0003091E4003C5F2091E80025FD1CC09FBFF4
:1027B0009091E400931769F19091C40F992339F136
:1027C00043E009C09FBF9091E400931711F19091ED
:1027D000C40F9923E1F09FB7F8944093E90020914A
:1027E000E80025FFEFCF8093F1008091E80085FF9E
:1027F00015C082E08093C30F9FBF80E008952091B1
:10280000E80025FF03C01092BF0FCACF9FBF8FEF14
:10281000089581E08093BF0F8FEF08958AE380933E
:10282000E8001092C30F9FBF80E00895CF93C82F98
:1028300082958F708A3050F097E3890FA3DFCF70B5
:10284000CA3050F087E38C0FCF919CCF90E3890F73
:1028500099DFCF70CA30B0F780E38C0FCF9192CF61
:102860001F93CF93DF93EC012196FC01149111117A
:1028700008C00CC0812F86DFFE0121961491112320
:1028800029F01A30B9F78DE07DDFF4CFDF91CF91D9
:102890001F9108955AE05A95F1F700C046EC41BBEC
:1028A00030EC38B980EE87B997E09AB98DB915B890
:1028B00080E488B91BB880E28EB987E481BB00C090
:1028C00000C026B199B18CB141BB38B937EE37B9E8
:1028D00037EF3AB932EE3DB9422F4695437050E892
:1028E000259F90011124422B292F2071422B292F43
:1028F000269526952870422B96959076492B90E048
:10290000880F991F84709927842B0895AF92BF92E6
:10291000CF92DF92EF92FF920F931F93CF93DF93AB
:10292000E0EFFBE070E048E050E0B6ECC0ECA7E878
:10293000D1E087E4F82E90EFA92E22EAD22E8191E1
:102940009191272F2695269526958A0102C0000F82
:10295000111F2A95E2F7602F6095687F272F277057
:10296000622BEFB6F894B1BBC8B9292F3327122FC9
:102970001695B12EB694012F06700068107C207257
:102980003327122B3B2D30713260132B2B2D2695C4
:102990002270206208B91BB92EB9A1BBB1BB9695B4
:1029A000879596958795282F182F110F382F3695D4
:1029B000221F2227221F06E0C02EC1222C292068B8
:1029C000807199278260912F990F9072982B812F97
:1029D000807C982B327028B99BB93EB9A1BBB1BBA2
:1029E000C8B9262F220F962F9695362F331F3327DF
:1029F000331F822F8670382B30646071822F880FCE
:102A00008072862B207C822B9270906AD5B938B95F
:102A10008BB99EB9A1BB15E01A95F1F70000B1BBC7
:102A2000C8B9D5B9F8B8ABB8DEB8A1BBEFBE7F5F07
:102A3000703209F084CF8091300C96EC91BB90EC11
:102A400098B9382F330F982F9695232F267020642E
:102A5000482F441F4427441F242B482F4071832FA5
:102A6000880F8072842B307C832B9270906631E0CB
:102A700035B928B98BB99EB987E881BBDF91CF9171
:102A80001F910F91FF90EF90DF90CF90BF90AF908C
:102A90000895982F96959695969528E030E001C078
:102AA000220F9A95EAF72095287F8770282B3FB749
:102AB000F894F6ECF1BBB0ECB8B9872F9927582FF2
:102AC0005695A52FA695E52FE670E068507C80729C
:102AD0009927582B9A2F90719260592B8A2F86959F
:102AE00082708062E8B95BB98EB9E7E8E1BBF1BBFF
:102AF0007695679576956795962FA62FAA0F562FF0
:102B00005695991F9927991F8A2F8670982B906840
:102B10006071772762608A2F880F8072862BA07C75
:102B20008A2B527098B98BB95EB9E1BBF1BBB8B9C9
:102B3000622F660F922F9695522F551F5527551FBE
:102B4000862F8670582B50642071862F880F8072D4
:102B5000822B607C862B9270906A21E025B958B94F
:102B60008BB99EB9E1BB442321F085E08A95F1F74A
:102B7000000086EC81BB80EC88B981E085B987E4F0
:102B800088B980EF8BB982EA8EB987E881BB3FBFF5
:102B900008956095E2ECFFE09081982B69236083B3
:102BA00086EC81BB80EC88B9362F330F962F969533
:102BB000262F221F2227221F832F8670282B206476
:102BC0006071832F880F8072862B307C832B9270EC
:102BD000906C31E035B928B98BB99EB987E881BBD3
:102BE00085E08A95F1F70000E1ECFFE080818F5FDE
:102BF000808308958091C20F80618093C20F96EC0C
:102C000091BB90EC98B9382F330F982F9695282FB9
:102C1000221F2227221F832F8670282B2064832FB8
:102C2000880F80728061307C832B9270906C31E0D1
:102C300035B928B98BB99EB987E881BB85E08A95FB
:102C4000F1F700008091C10F8F5F8093C10F08954D
:102C50003091C20F932F98609093C20F86EC81BB86
:102C600080EC88B9292F220F892F8695991F9927E3
:102C7000991F422F4670942B9064207C30713062F3
:102C8000232B8270806C31E035B998B92BB98EB99D
:102C900087E881BB85E08A95F1F700008091C10F3C
:102CA0008F5F8093C10F08954091C20F242F216040
:102CB0002093C20F86EC81BB80EC88B9322F330F92
:102CC000922F9695221F2227221F832F8670282B52
:102CD0002064832F880F80724071842B307C832B7B
:102CE0009270906C31E035B928B98BB99EB987E8FC
:102CF00081BB85E08A95F1F700008091C10F8F5F5D
:102D00008093C10F0895FC0126893789468D578D20
:102D1000AA27429FB12D539FC001349FB00D811D42
:102D20009A1F529FB00D811D9A1F112480A391A359
:102D300040955095AA27429FB12D539FC001349FC3
:102D4000B00D811D9A1F529FB00D811D9A1F112435
:102D500082A393A340855185628573854083518307
:102D6000628373830895AC01AA27469FB12D579FB4
:102D70009001749FB00D211D3A1F569FB00D211D6B
:102D80003A1F1124C9010895CF93882309F46DC017
:102D90008091F20E8F5F8093F20E853148F081E0D2
:102DA0009091F30E9111DEC08093F30E1092F20E0B
:102DB0008091F40E8F5F8093F40E8B3008F446C040
:102DC000C091F60ECC2309F441C0EBEFFEE0019078
:102DD0000020E9F7EC5FFE402091F50E332727FD38
:102DE0003095C90101966E2F772767FD70950E9477
:102DF0000A42E82FFF27E7FDF095E451F14F978550
:102E0000F901E451F14F478550E04038510508F091
:102E1000BCC0FA01EC5FFA4F20812093F00E292FFD
:102E200030E02038310508F0AEC0F901EC5FFA4F10
:102E300090819093F10E8093F50E1092F40E811113
:102E400005C01C161CF4C150C093F60EE091F70E9D
:102E5000E13009F47CC008F46FC0E23009F488C0A6
:102E600020E0F0E0E451F14F2487AFB7F89466EC2E
:102E700061BB50EC58B941E045B980E488B91BB852
:102E800080E28EB937E831BB00C000C080E190E03D
:102E90000090F70E02C0880F991F0A94E2F7282FBE
:102EA00061BB58B9E82FEE0F782F7695221F2227A5
:102EB000221F9E2F9670292B206480719E2F990FC0
:102EC0009072982BE07C9E2B727045B928B99BB903
:102ED0007EB931BB00C000C0E091F70EF0E0E451D4
:102EE000F14F848561BB58B9582F550F982F96958F
:102EF000252F26702064682F661F6627661F262BE5
:102F0000682F6071852F880F8072862B507C852BEF
:102F10009270906245B928B98BB99EB931BBAFBFE9
:102F20008091F70E90E0019663E070E00E940A4203
:102F30008093F70ECF9108952091EC0E8091F30EBF
:102F4000882309F48ECF8091EE0E28278ACF209116
:102F5000F00E2F778091EC0E9091ED0E91FF81CFC6
:102F600020687FCF80E08093F30E1092F20E20CF86
:102F70002091F10E2F778091EC0E9091ED0E90FF45
:102F800070CF20686ECF9FEF54CF2FEF46CF809148
:102F9000C00F8F7091F4E091BD0FE63028F1EC3056
:102FA00098F48FE78093F00EE55DF0E0EC5FFA4F68
:102FB00080818093F10E81E0E7DEA8DC8091C00F74
:102FC0008F5F8093C00F0895EB5D81E78093F00ED3
:102FD0008E2F90E08038910560F4FC01EC5FFA4F91
:102FE00080818093F10EE7CF87E78093F00EEF5C4E
:102FF000DCCF8FEFF6CF6F927F928F929F92AF923E
:10300000BF92CF92DF92EF92FF920F931F93CF93D5
:10301000DF93C8EED3E016EC612E00EC702E80EE4C
:10302000882E97E0992EAA24A39420E4B22E30E2B1
:10303000C32E47E4D42E57EEE52E67EFF62E02EEB0
:1030400003C0209709F442C0A2DF61BA78B887B8FC
:103050009AB88DB8A5B8B8B81BB8CEB8D1BA00C068
:1030600000C046B189B12CB1142F1695137090E8A9
:10307000499FA0011124142B982F9071192B982F80
:10308000969596959870192B86958076182B30E03A
:10309000220F331F24703327122B61BA78B8E7B898
:1030A000FAB80DB9219711FFCCCFCD2B79F0DF9174
:1030B000CF911F910F91FF90EF90DF90CF90BF9035
:1030C000AF909F908F907F906F90089588E391E0EC
:1030D000C7DB8091C10FAADB812FA8DB80E591E0DF
:1030E000DF91CF911F910F91FF90EF90DF90CF90E4
:1030F000BF90AF909F908F907F906F90B1CB6F9269
:103100007F928F929F92AF92BF92CF92DF92EF9277
:10311000FF920F931F93CF93DF93C8EED3E0E6ECBB
:103120006E2EF0EC7F2EA0EE8A2EB7E09B2EAA2406
:10313000A39410E4B12E00E2C02E87E4D82E97EEBF
:10314000E92E27EFF22E02EE03C0209709F442C0C9
:103150001EDF61BA78B887B89AB88DB8A5B8B8B884
:103160001BB8CEB8D1BA00C000C046B189B12CB1ED
:10317000142F1695137090E8499FA0011124142B69
:10318000982F9071192B982F969596959870192BCA
:1031900086958076182B30E0220F331F247033275A
:1031A000122B61BA78B8E7B8FAB80DB9219711FDBA
:1031B000CCCFCD2B79F0DF91CF911F910F91FF9064
:1031C000EF90DF90CF90BF90AF909F908F907F90C7
:1031D0006F90089588E391E043DB8091C10F26DB77
:1031E000812F24DB80E591E0DF91CF911F910F913A
:1031F000FF90EF90DF90CF90BF90AF909F908F9017
:103200007F906F902DCB982F96959695969528E068
:1032100030E001C0220F9A95EAF72095287F877049
:10322000282BAFB7F89456EC51BBE0ECE8B9872FE8
:103230009927382F3695F32FF695432F467040681F
:10324000307C80729927382B9F2F90719260392B98
:103250008F2F86958270806248B93BB98EB947E856
:1032600041BB51BB7695679576956795962FF62F5E
:10327000FF0F362F3695991F9927991F8F2F86702C
:10328000982B90686071772762608F2F880F80720B
:10329000862BF07C8F2B327098B98BB93EB941BB2D
:1032A00051BBE8B9622F660F922F9695322F331FCC
:1032B0003327331F862F8670382B30642071862F7A
:1032C000880F8072822B607C862B9270906A21E03E
:1032D00025B938B98BB99EB941BB51BBE8B925B9FD
:1032E00087E488B980EF8BB982EA8EB941BBAFBF62
:1032F00008958091B60E880F8F5F90919B0B9295E9
:103300009170890F8093690E8091B80E880F809319
:10331000670EA091680E2091610E3091620E40E020
:1033200050E004C0220F331F441F551F8A95D2F767
:10333000BB27A1950CF4B095AA0FBB1F11960E9454
:103340006B4660935B0E70935C0E80935D0E909362
:103350005E0E089586EC81BB80EC88B915B880E4D8
:1033600088B91BB880E28EB987E881BB8AE08A956C
:10337000F1F700C00895CF93DF938CDAC82FD0E027
:1033800089DA382F20E0C22BD32BE4DFE3DFC095AE
:10339000D095CE01DF91CF91089596EC91BB90EC42
:1033A00098B9482F440F282F2695342F3670306453
:1033B000982F991F9927991F392B8071942F990F56
:1033C0009072982B407C942B2270206615B838B9E7
:1033D0009BB92EB987E881BB8AE08A95F1F700C0D6
:1033E00008950F931F93CF93DF93C62FD0E0682FDC
:1033F00070E080E090E00E9431432BEA3AEA4AEA2A
:103400005DE30E946544FE01EE0FFF1FEE0FFF1FFC
:10341000E35DF04F20813181428153810E946544F8
:10342000CC0FDD1FCC0FDD1FCB58D04F2881398149
:103430004A815B810E9432428B01D82FC92F20E044
:1034400030E0A901FE01712F8F2F9E2F0E941C4496
:1034500087FD1EC020E03FEF4FE757E4FE01602FDD
:10346000712F8F2F9C2F0E949642181624F400E093
:103470001FEFDFE7C7E49E01602F712F832F9C2F82
:103480000E940543CB01DF91CF911F910F910895C9
:1034900000E010E0D0E0C0E0DDCF2F923F924F92ED
:1034A0005F926F927F928F929F92AF92BF92CF92D4
:1034B000DF92EF92FF920F931F93CF93DF93CDB7DD
:1034C000DEB72E970FB6F894DEBF0FBECDBF0091CA
:1034D000CB0B10E0005811098091EA0B9091EB0B97
:1034E000880F892F881F990B91959C013A953A87EF
:1034F0002987C090AE0BD090AF0BE12CF12C8090BF
:10350000E90B869486949090E70B9694969470902D
:10351000B40E6090EA0E3091460C3B837091370CEC
:103520008091310C87FF37C07091380C8091320C3C
:1035300087FFDDC07091390C8091330C87FF83C108
:1035400070913A0C8091340C87FF29C270913B0C2A
:103550008091350C87FFCFC270913C0C8091360C66
:1035600087FF75C32E960FB6F894DEBF0FBECDBF92
:10357000DF91CF911F910F91FF90EF90DF90CF904F
:10358000BF90AF909F908F907F906F905F904F9083
:103590003F902F9008951801442437FC4094542CF8
:1035A0002091C00E3091C10EC901AA2797FDA095A8
:1035B000BA2F820D931DA41DB51D8B879C87AD87E7
:1035C000BE8760E0882D870F78870BDF2B853C85D1
:1035D0004D855E85280F391F411D511DDA01C90136
:1035E000788557FDEBC5009731E0A307B1050CF0D6
:1035F00001C49A8389832091CC0E3091CD0E44274B
:1036000037FD4095542F220D331D441D551D29842F
:103610003A84C101AA2797FDA095BA2F280F391F18
:103620004A1F5B1F66E0892D870F2C833D834E83E5
:103630005F837887D6DE2C813D814E815F811901C1
:103640002A01280E391E411C511CD201C101788566
:1036500057FCB0C5009721E0A207B1050CF0C5C327
:103660005C0177FCC6C42091D80E3091D90E442756
:1036700037FD4095542F2C0D3D1D4E1D5F1D6CE0F8
:10368000872F2C833D834E835F83ABDE072C02C0E4
:10369000969587950A94E2F72C813D814E815F8152
:1036A00019012A01280E391E411C511CD201C101E9
:1036B00057FCBCC5009721E0A207B1050CF09FC3E1
:1036C0009C016110FCC349815A8150936B0E409359
:1036D0006A0EB092770EA092760E3093830E2093EE
:1036E000820E7091380C8091320C87FD23CF180127
:1036F000442437FC4094542C2091C20E3091C30EC8
:10370000C901AA2797FDA095BA2F820D931DA41D6C
:10371000B51D8B879C87AD87BE8761E0872F880D9D
:1037200078875FDE2B853C854D855E85280F391FA8
:10373000411D511DDA01C901788557FD67C5009704
:1037400031E0A307B1050CF023C39A83898320914C
:10375000CE0E3091CF0E442737FD4095542F220DC9
:10376000331D441D551D29843A84C101AA2797FDA4
:10377000A095BA2F280F391F4A1F5B1F67E0872FBC
:10378000890D2C833D834E835F8378872ADE2C81CD
:103790003D814E815F8119012A01280E391E411C8D
:1037A000511CD201C101788557FC2CC5009721E03E
:1037B000A207B1050CF0E7C25C0177FCCEC42091F2
:1037C000DA0E3091DB0E442737FD4095542F2C0D37
:1037D0003D1D4E1D5F1D6DE0872F2C833D834E8365
:1037E0005F83FFDD072C02C0969587950A94E2F768
:1037F0002C813D814E815F8119012A01280E391EDD
:10380000411C511CD201C10157FC08C5009721E0A1
:10381000A207B1050CF0F8C29C01611060C3498198
:103820005A8150936D0E40936C0EB092790EA09217
:10383000780E3093850E2093840E7091390C809110
:10384000330C87FD7DCE1801442437FC4094542C62
:103850002091C40E3091C50EC901AA2797FDA095ED
:10386000BA2F820D931DA41DB51D8B879C87AD8734
:10387000BE8762E0872F880D7887B3DD2B853C8576
:103880004D855E85280F391F411D511DDA01C90183
:10389000788557FDB3C4009731E0A307B1050CF05C
:1038A00081C29A8389832091D00E3091D10E442712
:1038B00037FD4095542F220D331D441D551D29847D
:1038C0003A84C101AA2797FDA095BA2F280F391F66
:1038D0004A1F5B1F68E0872F890D2C833D834E8331
:1038E0005F8378877EDD2C813D814E815F81190168
:1038F0002A01280E391E411C511CD201C1017885B4
:1039000057FC78C4009721E0A207B1050CF045C22E
:103910005C0177FC9BC32091DC0E3091DD0E4427C7
:1039200037FD4095542F2C0D3D1D4E1D5F1D6EE043
:10393000872F2C833D834E835F8353DD072C02C08A
:10394000969587950A94E2F72C813D814E815F819F
:1039500019012A01280E391E411C511CD201C10136
:1039600057FC58C4009721E0A207B1050CF05BC2D8
:103970009C01611062C249815A8150936F0E40933D
:103980006E0EB0927B0EA0927A0E3093870E20932B
:10399000860E70913A0C8091340C87FDD7CD1801BA
:1039A000442437FC4094542C2091C60E3091C70E0D
:1039B000C901AA2797FDA095BA2F820D931DA41DBA
:1039C000B51D8B879C87AD87BE8763E0872F880DE9
:1039D000788707DD2B853C854D855E85280F391F4F
:1039E000411D511DDA01C901788557FDFFC30097BC
:1039F00031E0A307B1050CF0DFC19A8389832091E0
:103A0000D20E3091D30E442737FD4095542F220D0E
:103A1000331D441D551D29843A84C101AA2797FDF1
:103A2000A095BA2F280F391F4A1F5B1F69E0872F07
:103A3000890D2C833D834E835F837887D2DC2C8174
:103A40003D814E815F8119012A01280E391E411CDA
:103A5000511CD201C101788557FCC4C3009721E0F5
:103A6000A207B1050CF0A3C15C0177FC49C320910A
:103A7000DE0E3091DF0E442737FD4095542F2C0D7C
:103A80003D1D4E1D5F1D6FE0872F2C833D834E83B0
:103A90005F83A7DC072C02C0969587950A94E2F70E
:103AA0002C813D814E815F8119012A01280E391E2A
:103AB000411C511CD201C10157FCB4C3009721E045
:103AC000A207B1050CF0A5C19C01611029C2498172
:103AD0005A815093710E4093700EB0927D0EA09259
:103AE0007C0E3093890E2093880E70913B0C809150
:103AF000350C87FD31CD1801442437FC4094542CFB
:103B00002091C80E3091C90EC901AA2797FDA09532
:103B1000BA2F820D931DA41DB51D8B879C87AD8781
:103B2000BE8764E0872F880D78875BDC2B853C851A
:103B30004D855E85280F391F411D511DDA01C901D0
:103B4000788557FD4BC3009731E0A307B1050CF012
:103B50003DC19A8389832091D40E3091D50E44279C
:103B600037FD4095542F220D331D441D551D2984CA
:103B70003A84C101AA2797FDA095BA2F280F391FB3
:103B80004A1F5B1F6AE0872F890D2C833D834E837C
:103B90005F83788726DC2C813D814E815F8119010E
:103BA0002A01280E391E411C511CD201C101788501
:103BB00057FC10C3009721E0A207B1050CF001C12A
:103BC0005C0177FC70C22091E00E3091E10E442739
:103BD00037FD4095542F2C0D3D1D4E1D5F1D60E19E
:103BE000872F2C833D834E835F83FBDB072C02C032
:103BF000969587950A94E2F72C813D814E815F81ED
:103C000019012A01280E391E411C511CD201C10183
:103C100057FC14C3009721E0A207B1050CF008C1BE
:103C20009C0161102BC149815A815093730E4093BE
:103C3000720EB0927F0EA0927E0E30938B0E209368
:103C40008A0E70913C0C8091360C87FD8BCC18014C
:103C5000442437FC4094542C2091CA0E3091CB0E52
:103C6000C901AA2797FDA095BA2F820D931DA41D07
:103C7000B51D8B879C87AD87BE8765E0872F880D34
:103C80007887AFDB2B853C854D855E85280F391FF6
:103C9000411D511DDA01C901788557FD97C2009772
:103CA00031E0A307B1050CF09BC08C012091D60E2A
:103CB0003091D70E442737FD4095542F220D331DE8
:103CC000441D551D29843A84C101AA2797FDA0955A
:103CD000BA2F280F391F4A1F5B1F6BE0872F890DF2
:103CE0002C833D834E835F8378877BDB2C813D81F2
:103CF0004E815F8149015A01880E991EA11CB11C99
:103D0000D501C4017885B7FC5DC2009721E0A20708
:103D1000B1050CF060C02C012091E20E3091E30E51
:103D200077FC3EC14901AA2497FCA094BA2C8C0CC4
:103D30009D1CAE1CBF1C61E1872F53DB02C0969512
:103D400087957A94E2F775016401C80ED91EE11CCB
:103D5000F11CD701C601F7FC6DC2009721E0A20754
:103D6000B1050CF05BC09C016110FBC01093750E97
:103D70000093740E5092810E4092800E30938D0EFF
:103D800020938C0EEFCB8FEF9FEFA0E0B0E014CD2F
:103D90008FEF9FEFA0E0B0E0D8CC8FEF9FEFA0E0D7
:103DA000B0E0B6CD8FEF9FEFA0E0B0E07ACD8FEF1F
:103DB0009FEFA0E0B0E058CE8FEF9FEFA0E0B0E023
:103DC0001CCE8FEF9FEFA0E0B0E0FACE8FEF9FEF19
:103DD000A0E0B0E0BECE8FEF9FEFA0E0B0E09BCFC1
:103DE0008FEF9FEFA0E0B0E060CF8FEF9FEFA0E0FC
:103DF000B0E036CC8FEF9FEFA0E0B0E0FACB8FEFD2
:103E00009FEFA0E0B0E05CCC8FEF9FEFA0E0B0E0D0
:103E100003CD8FEF9FEFA0E0B0E056CE8FEF9FEF86
:103E2000A0E0B0E0A0CF8FEF9FEFA0E0B0E0A0CD8A
:103E30008FEF9FEFA0E0B0E0F3CE5B8129803A8066
:103E4000533079F0543069F03092930E2092920EF4
:103E5000B0929F0EA0929E0E3093AB0E2093AA0EAE
:103E60006FCB30928F0E20928E0EB0929B0EA0924E
:103E70009A0E3093A70E2093A60E62CB5B81298009
:103E80003A80533079F0543069F03092970E209296
:103E9000960EB092A30EA092A20E3093AF0E209376
:103EA000AE0E5ACB30928F0E20928E0EB0929B0E99
:103EB000A0929A0E3093A70E2093A60E4DCB5B8155
:103EC00029803A8030928F0E20928E0EB0929B0EF7
:103ED000A0929A0E3093A70E2093A60E25CB5B815D
:103EE00029803A80533079F0543069F03092910E45
:103EF0002092900EB0929D0EA0929C0E3093A90E2F
:103F00002093A80E17CB30928F0E20928E0EB09277
:103F10009B0EA0929A0E3093A70E2093A60E0ACB6A
:103F20005B8129803A80533079F0543069F03092C7
:103F3000950E2092940EB092A10EA092A00E3093F6
:103F4000AD0E2093AC0E02CB30928F0E20928E0ECF
:103F5000B0929B0EA0929A0E3093A70E2093A60EBD
:103F6000F5CA4B81433079F0443069F01093990ED3
:103F70000093980E5092A50E4092A40E3093B10E6D
:103F80002093B00EEFCA10938F0E00938E0E5092B6
:103F90009B0E40929A0E3093A70E2093A60EE2CA73
:103FA000442737FD4095542F2C0D3D1D4E1D5F1DA0
:103FB00061E180E02C833D834E835F8312DA2C81A4
:103FC0003D814E815F8149015A01880E991EA11CD5
:103FD000B11CD501C401B7FC5FC1009721E0A20765
:103FE000B1050CF03EC19C0190938D0E80938C0E18
:103FF000BBCE2091D80E3091D90E442737FD409585
:10400000542F2C0D3D1D4E1D5F1D6CE080E02C8358
:104010003D834E835F83E5D92C813D814E815F8155
:1040200019012A01280E391E411C511CD201C1015F
:1040300057FC2AC1009721E0A207B1050CF01BC173
:104040009C019093830E8093820E3BCB2091DC0EDB
:104050003091DD0E442737FD4095542F2C0D3D1D2A
:104060004E1D5F1D6EE080E02C833D834E835F8399
:10407000B8D92C813D814E815F8119012A01280E1A
:10408000391E411C511CD201C10157FCF9C00097D7
:1040900021E0A207B1050CF0E9C09C019093870EC6
:1040A0008093860E66CC2091E00E3091E10E44277D
:1040B00037FD4095542F2C0D3D1D4E1D5F1D60E1B9
:1040C00080E02C833D834E835F838BD92C813D819F
:1040D0004E815F8119012A01280E391E411C511C95
:1040E000D201C10157FCE0C0009721E0A207B10551
:1040F0000CF0ADC09C0190938B0E80938A0E91CDF5
:104100002091DE0E3091DF0E442737FD4095542F6D
:104110002C0D3D1D4E1D5F1D6FE080E02C833D8307
:104120004E835F835ED92C813D814E815F81190171
:104130002A01280E391E411C511CD201C10157FC15
:10414000AFC0009721E0A207B1050CF07BC09C0135
:104150009093890E8093880EB8CC2091DA0E30911E
:10416000DB0E442737FD4095542F2C0D3D1D4E1D71
:104170005F1D6DE080E02C833D834E835F8331D9EA
:104180002C813D814E815F8119012A01280E391E43
:10419000411C511CD201C10157FC7AC0009721E09B
:1041A000A207B1050CF058C09C019093850E809336
:1041B000840E33CB80E090E0DC014CCA80E090E0DC
:1041C000DC0111CA80E090E0DC019FCD80E090E04E
:1041D000DC0165CD80E090E0DC01ECCC80E090E09B
:1041E000DC01B1CC80E090E0DC0138CC80E090E0F4
:1041F000DC01FDCB80E090E0DC0184CB80E090E04E
:10420000DC0149CB80E090E0DC01D0CA80E090E0A6
:10421000DC0195CA80E090E0DC01A4CB80E090E076
:10422000DC01F4CA80E090E0DC0148CC80E090E062
:10423000DC0140CA80E090E0DC018FCD80E090E0BE
:10424000DC01E8CC8FEF9FEFA0E0B0E080CF8FEFF4
:104250009FEFA0E0B0E04ECF8FEF9FEFA0E0B0E087
:10426000A3CF8FEF9FEFA0E0B0E0BDCE8FEF9FEF29
:10427000A0E0B0E012CF8FEF9FEFA0E0B0E0E0CE83
:1042800080E090E0DC0103CF80E090E0DC01D2CE62
:1042900080E090E0DC0182CF80E090E0DC019DCE08
:1042A00080E090E0DC014DCF80E090E0DC011CCFAD
:1042B000CF93DF9300D0CDB7DEB74A836983EDD8C3
:1042C0008091460C4A816981882319F140E050E0D1
:1042D0008CE2849FF001859FF00D1124E95BF34F80
:1042E00087A1681719F060A781E081A78CE2849FFD
:1042F000F001859FF00D1124E15BF24F87A1681753
:1043000019F060A781E081A70F900F90DF91CF9106
:104310000895552747FD5095DBCF9091460C91119C
:104320000CC087FD24C0E82FFF27E7FDF095EF5C68
:10433000F34F8FEF8083868308958FEF8093310C46
:104340008093370C8093320C8093380C8093330C1D
:104350008093390C8093340C80933A0C8093350C05
:1043600080933B0C8093360C80933C0C08958F3FD8
:1043700029F3089586E1E1E3FCE0DF011D928A95CF
:10438000E9F78FEFCADF48E050E06FEF70E08DE3B0
:104390009CE00C94F945CF9380919C0B90E0880FA2
:1043A000892F881F990B892B29F4E4DF1092460C82
:1043B000CF910895C091B50EDDDFC093460CCF912B
:1043C0000895942F87FD0FC0E82FFF27E7FDF09594
:1043D000EF5CF34F608346839F3F21F0482F622FAD
:1043E000892F66CF08958F3FB9F76093310C4093C2
:1043F000370C6093320C4093380C6093330C40932D
:10440000390C6093340C40933A0C6093350C409314
:104410003B0C6093360C40933C0CDECF0F931F9304
:10442000CF93DF93C82F8091460C81116FC0662314
:1044300009F4C0C18091310C9091370CC91709F46F
:104440000EC387FD0CC388300CF060C15091320C54
:104450009091380CC91709F406C357FD04C35817C7
:104460000CF059C141E06091330C8091390CC817B0
:1044700009F4FFC267FDFDC265170CF05DC142E0A3
:104480005091340C80913A0CC81709F4F6C257FDCC
:10449000F4C256170CF060C143E06091350C809176
:1044A0003B0CC81709F4EDC267FDEBC265170CF0B1
:1044B00063C144E08091360C90913C0CC91709F41B
:1044C000E4C287FDE2C286170CF066C145E0E42F26
:1044D000FF27E7FDF0952091450C822F992787FD56
:1044E0009095019666E070E00E940A428093450C28
:1044F000EF5CF34F8083C683CF3F09F4B3C161E023
:104500008C2FDF91CF911F910F91D2CE90913D0CC6
:10451000662309F4D3C09F3F09F4BEC220913E0C2C
:104520002F3F09F4CEC230913F0C3F3F09F4CFC278
:104530004091400C4F3F09F4D0C25091410C5F3F75
:1045400009F443C27091420C7F3F09F4C9C2E09163
:10455000430CEF3F09F4CAC2F091440CFF3F09F449
:10456000CBC2A82FA350843009F41FC2813009F4B4
:1045700086C1823009F4D4C1833009F480C19F3FE1
:1045800009F44EC2B1E0D1E02F3F09F447C21B2F1E
:104590001D2309F0292F0B2F0F5F81E08B278D231F
:1045A000812B09F4B7C1802F922FB1E03F3F09F46E
:1045B00033C2D1E0811101C0D0E0DB2309F0392FF3
:1045C000282F2F5F11E0811110E0B123BD2B09F4DA
:1045D0009FC1822FB1E04F3F09F41CC2D1E081118D
:1045E00001C0D0E0DB2309F0432F982F9F5F11E03B
:1045F000811110E0B123BD2B09F488C1892F91E00E
:104600005F3F09F405C221E0811101C020E02923A8
:1046100009F0542F382F3F5FB1E08111B0E09B23A8
:10462000922B09F471C1832F91E07F3F09F4EEC111
:1046300021E0811101C020E0292309F0752F482FC6
:104640004F5F31E0811130E09323922B09F466C172
:10465000842F91E0EF3F09F4D7C121E0811101C01F
:1046600020E0292309F0E72F482F4F5F31E0811127
:1046700030E09323922B09F44FC1842F91E0FF3F48
:1046800009F4C0C121E0811101C020E0292309F40F
:1046900039C1DE2F482F4F5F31E0811130E0932385
:1046A000922B09F0842F992309F4CCC08111CEC03C
:1046B000A23008F436C220E08FEFCDC09C1709F479
:1046C000E8C120913E0C2C1709F4F8C130913F0C41
:1046D0003C1709F4F9C14091400C4C1709F4FAC198
:1046E0005091410C5C1709F486C17091420C7C1703
:1046F00009F4F9C1E091430CEC1709F4FAC1F09107
:10470000440CFC132ECFE7E0F0E077C18F300CF0C3
:104710009DCE88E09BCE652F772767FD7095282F6B
:10472000332727FD30952A5F3F4F261737070CF4B4
:1047300099CE582F40E097CE862F992787FD9095E8
:10474000252F332727FD30952A5F3F4F281739073C
:104750000CF495CE652F94CE852F992787FD9095E3
:10476000262F332727FD30952A5F3F4F281739071B
:104770000CF492CE562F91CE862F992787FD9095D7
:10478000252F332727FD30952A5F3F4F28173907FC
:104790000CF48FCE652F8ECE992787FD9095262F0E
:1047A000332727FD30952A5F3F4F281739070CF430
:1047B0008DCE8DCE6091310C67FD05C08091370C98
:1047C000C81709F49CC16091320C67FD05C0809147
:1047D000380CC81709F495C16091330C67FD05C00A
:1047E0008091390CC81709F490C16091340C67FDB1
:1047F00005C080913A0CC81709F485C16091350C49
:1048000067FD05C080913B0CC81709F480C1609119
:10481000360C67FD05C080913C0CC81709F479C1BE
:1048200082E591E00E94301460912F0C8EEF60952C
:10483000661F6627661F20E04C2FDF91CF911F91E6
:104840000F91BFCDDE2F882309F432CFA23078F04C
:10485000CD2F21E08FEF4C2F60E0DF91CF911F91A2
:104860000F91AFCDDF91CF911F910F9108958130BE
:1048700009F4D8C08091450CCD2F21E0ECCF9F3FAB
:1048800009F449C12F3F09F4E8C0921708F0922FAC
:1048900081E08F5F3F3F09F4CCC0882319F0931764
:1048A00008F4392F8F5F4F3F09F4CBC0882319F0EC
:1048B000341708F4432F8F5F5F3F09F4C0C088238B
:1048C00019F0451708F4542F8F5F7F3F09F4B5C0E6
:1048D000882319F0571708F4752F8F5FEF3F09F4FD
:1048E000AAC0882319F07E1708F4E72F8F5FDF2F07
:1048F000FF3F09F4A7CF882319F0EF1708F452C03F
:104900008F5FD4CEDF2FC6CE542F8ECE432F77CEDF
:10491000392F60CE8B2F49CEE72FB0CE752F99CE91
:104920009F3F09F44CC02F3F09F4A1C0291708F09C
:10493000922F81E08F5F3F3F09F48DC0882319F0EB
:10494000391708F4392F8F5F4F3F09F482C088234D
:1049500019F0431708F4432F8F5F5F3F09F477C0C6
:10496000882319F0541708F4542F8F5F7F3F09F400
:104970006CC0882319F0751708F4752F8F5FEF3F0F
:1049800009F461C0882319F0E71708F4E72F8F5F57
:10499000DF2FFF3F09F456CF882309F4B1CFFE176C
:1049A00008F0AECFDE2F8F5F81CE9F3F41F02F3FCB
:1049B00009F45DC0291708F4BCCF922FBACF922F0B
:1049C00080E02F3F09F0B6CFB6CFE4E0F0E0EF5C37
:1049D000F34FC48790913D0C20913E0C30913F0CD9
:1049E0004091400C5091410C7091420CE091430C6D
:1049F000F091440CB6CDE4E0F0E0EF5CF34F9FEFB4
:104A00009487E8CF90E03ECE90E027CE90E010CEA5
:104A100090E0F9CDB0E0E2CDB0E0CBCDD0E0B7CDC5
:104A2000B0E0B1CD8091450C611139C0CD2F21E0AE
:104A300012CF392F38CFE72F5ACF752F4FCF542FA2
:104A400044CF432F39CFE72FA3CF752F98CF542FC3
:104A50008DCF432F82CF392F77CF81E01BCF40E01E
:104A6000E0E0F0E038CD41E0E1E0F0E034CD81E09D
:104A700062CF42E0E2E0F0E02ECD43E0E3E0F0E0A0
:104A80002ACD44E0E4E0F0E026CD45E0E5E0F0E0CA
:104A900022CDE0E0F0E0B1CFE0E0F0E098CF3DDC07
:104AA0008091450C992787FD9095019666E070E00E
:104AB0000E940A42282F2093450CB8CFE1E0F0E095
:104AC0009CCFE1E0F0E083CFE2E0F0E096CFE2E0DF
:104AD000F0E07DCFE3E0F0E090CFE3E0F0E077CFEF
:104AE000E5E0F0E074CFE5E0F0E087CFE6E0F0E06D
:104AF0006ECFE6E0F0E081CFE7E0F0E068CF80E065
:104B000096CE81E094CE83E092CE82E090CE84E097
:104B10008ECE85E08CCE922F80E02F3F09F0B9CE6B
:104B2000B9CE8091450C20E096CE6093F60E0097AA
:104B3000A9F01092F50EBC018CEF9EE00E94004699
:104B4000EBEFFEE001900020E9F7EC5FFE40E5505E
:104B5000F14F80E290E09183808308958FEF8093FE
:104B6000F50E089596EC91BB90EC98B9482F440F40
:104B7000282F2695342F36703064982F991F992747
:104B8000991F392B8071942F990F9072982B407C2C
:104B9000942B2270206415B838B99BB92EB987E8D8
:104BA00081BB8AE08A95F1F700C008954091C20F59
:104BB000242F22602093C20F86EC81BB80EC88B941
:104BC000322F330F922F9695221F2227221F832FD9
:104BD0008670282B2064832F880F80724071842B6D
:104BE000307C832B9270906C31E035B928B98BB949
:104BF0009EB987E881BB85E08A95F1F70000809136
:104C0000C10F8F5F8093C10F089580959091C20F5F
:104C100089238093C20F96EC91BB90EC98B9482FF2
:104C2000440F282F2695382F331F3327331F942FF7
:104C30009670392B30648071942F990F9072982B55
:104C4000407C942B2270206C81E085B938B99BB9E7
:104C50002EB987E881BB85E08A95F1F70000809145
:104C6000C10F8F5F8093C10F0895CF92DF92EF92B3
:104C7000FF92CF93DF930E94C7171092C20F10923A
:104C8000C10F6AE081E10E94C9150E94AA190E9421
:104C9000AA1981E067DF80E065DF88DF81E0B5DFAA
:104CA0000E947F180E9454160E94FB170E9428162B
:104CB0000E947F1880E1A9DF0E94FB170E94FA156D
:104CC0000E947F1888E0A1DF0E94FB1782E09DDF31
:104CD0006DDF0E94BB19EC0181E097DF0E947F1815
:104CE0000E9454160E94FB170E9428160E947F18EB
:104CF00080E18BDF0E94FB170E94FA150E947F184B
:104D000088E083DF0E94FB1782E07FDF4FDF0E9495
:104D1000BB196C0181E079DF0E947F180E94541654
:104D20000E94FB170E9428160E947F1880E16DDF09
:104D30000E94FB170E94FA150E947F1888E065DF29
:104D40000E94FB1782E061DF31DF0E94BB19E12C7A
:104D5000F12CC80ED91EE11CF11CCC0EDD1EE11C8D
:104D6000F11C81E052DF0E947F180E9454160E94BD
:104D7000FB170E9428160E947F1880E146DF0E94E0
:104D8000FB170E94FA150E947F1888E03EDF0E9400
:104D9000FB1782E03ADF0ADF0E94BB19C80ED91E5A
:104DA000E11CF11CB601C701DF91CF91FF90EF909C
:104DB000DF90CF9008954F925F926F927F92AF9263
:104DC000BF92CF92DF92EF92FF920F931F93CF93F8
:104DD000DF932A013B01C82FD0E08E01000F111F85
:104DE000000F111F5E01AA0CBB1C80EF9BE0A80EF8
:104DF000B91E035D104FCC0FDD1FCC0FDD1FCB584C
:104E0000D04F49C020E03FEF4FE757E46C2D7D2D98
:104E10008E2D9F2D0E94964218163CF4C12CDD2445
:104E2000DA948FE7E82E97E4F92E6C2D7D2D8E2DE8
:104E30009F2D0E940543F5017183608316DFC880B2
:104E4000D980EA80FB800E94314325E23DE249E8B7
:104E500058E30E9465442DEC3CEC4CE45FE30E9477
:104E6000C844A70196010E9465449B01462F532F19
:104E7000682F792F488359836A837B83482F592F62
:104E8000C701B6010E9431429F77A30192010E949F
:104E90001C4418160CF520E030E040EA50E4F8011C
:104EA00060817181828193810E946544288139816A
:104EB0004A815B810E9432426B017C0120E030E03C
:104EC000A9017D2D9F2D0E941C4487FF9BCFC12CE3
:104ED000D12CE12CF12C96CFDF91CF911F910F9126
:104EE000FF90EF90DF90CF90BF90AF907F906F904A
:104EF0005F904F9008954F925F926F927F92AF9222
:104F0000BF92CF92DF92EF92FF920F931F93CF93B6
:104F1000DF932A013B01C82FD0E08E01000F111F43
:104F2000000F111F5E01AA0CBB1C80EF9BE0A80EB6
:104F3000B91E035D104FCC0FDD1FCC0FDD1FCB580A
:104F4000D04F49C020E03FEF4FE757E46C2D7D2D57
:104F50008E2D9F2D0E94964218163CF4C12CDD2404
:104F6000DA945FE7E52E67E4F62E6C2D7D2D8E2D0D
:104F70009F2D0E940543F5017183608376DEC88012
:104F8000D980EA80FB800E94314325E23DE249E876
:104F900058E30E9465442DEC3CEC4CE45FE30E9436
:104FA000C844A70196010E9465449B01462F532FD8
:104FB000682F792F488359836A837B83482F592F21
:104FC000C701B6010E9431429F77A30192010E945E
:104FD0001C4418160CF520E030E040EC50E4F801D9
:104FE00060817181828193810E9465442881398129
:104FF0004A815B810E9432426B017C0120E030E0FB
:10500000A9017D2D9F2D0E941C4487FF9BCFC12CA1
:10501000D12CE12CF12C96CFDF91CF911F910F91E4
:10502000FF90EF90DF90CF90BF90AF907F906F9008
:105030005F904F900895CF92DF92EF92FF92CF93BF
:10504000C82F0E94C7171092C20F1092C10F6AE0BA
:1050500081E10E94C9150E94AA190E94AA1981E043
:1050600081DD80E07FDDA2DDC12CD12C7601CC2357
:1050700021F181E0CADD0E947F180E9454160E942F
:10508000FB170E9428160E947F1880E1BEDD0E9457
:10509000FB170E94FA150E947F1888E0B6DD0E9477
:1050A000FB1782E0B2DD82DDC1500E94BB19C80E41
:1050B000D91EE11CF11CC111DCCFB601C701CF9193
:1050C000FF90EF90DF90CF9008952F923F924F92F4
:1050D0005F926F927F928F929F92AF92BF92CF9288
:1050E000DF92EF92FF920F931F93CF93DF93082FDE
:1050F00010E0E801CC0FDD1FCC0FDD1FC35DD04FEA
:105100001801220C331C220C331C85E79FE0280E6B
:10511000391E000F111F0051144F88C020E03FEFCF
:105120004FE757E4682D792D8A2D9B2D0E949642DA
:1051300018163CF4812C99249A948FE7A82E97E4B2
:10514000B92E682D792D8A2D9B2D0E940543F801DB
:10515000718360838ADD4B015C0120E030E040EE2A
:1051600050E4C301B2010E946544A70196010E9468
:1051700032426B017C0120E030E0A9017D2D9F2DA2
:105180000E941C4487FD77C020E03FEF4FE757E4C3
:105190006C2D7D2D8E2D9F2D0E94964218163CF46D
:1051A000C12CDD24DA94AFE7EA2EB7E4FB2E6C2D98
:1051B0007D2D8E2D9F2D0E940543F8017183608304
:1051C00080E239DFC880D980EA80FB800E943143C9
:1051D0002B013C01C501B4010E9431439B01AC018C
:1051E000C301B2010E949D422AE939E949E95EE31F
:1051F0000E94C844A70196010E9465449B01462F66
:10520000532F682F792F488359836A837B83482FD4
:10521000592FC701B6010E9431429F7720E030E04C
:1052200040E251E40E941C44181654F5488059800D
:105230006A807B80F101C080D180E280F38020E031
:1052400030E040E850E4C301B2010E946544A70188
:1052500096010E9432424B015C0120E030E0A9013E
:10526000792D9B2D0E941C4487FF58CF812C912CB7
:10527000A12CB12C53CFC12CD12CE12CF12C84CFFB
:10528000DF91CF911F910F91FF90EF90DF90CF9022
:10529000BF90AF909F908F907F906F905F904F9056
:1052A0003F902F9008953F924F925F926F927F921E
:1052B0008F929F92AF92BF92CF92DF92EF92FF9226
:1052C0000F931F93CF93DF93CDB7DEB761970FB6E0
:1052D000F894DEBF0FBECDBFF82E562F0B871C876C
:1052E0002D873E87242F30E0261B31092E5F3F4F4C
:1052F00081E090E001C0880F2A95EAF7382E660F0A
:10530000650F660F660F70E080E090E04F870E94A7
:1053100031436B837C838D839E830F2D10E04F85FB
:10532000642F660F640F660F660F70E080E090E0F8
:105330000E9431436F83788789879A877801EE0CC2
:10534000FF1CEE0CFF1C8DE29FE0E80EF91EF80139
:10535000EE0FFF1FEE0FFF1FEB58F04FFA83E983AC
:10536000000F111F0051144FF98AE88A8EC020E007
:105370003FEF4FE757E4682D792D8A2D9B2D0E9432
:10538000964218163CF4812C99249A947FE7A72E14
:10539000E7E4BE2E682D792D8A2D9B2D0E940543B2
:1053A000F8017183608361DC4B015C01242D352D94
:1053B000462D572D6F81788589859A850E94654491
:1053C000A70196010E9432426B017C0120E030E08F
:1053D000A9017D2D9F2D0E941C4487FD89C020E0DE
:1053E0003FEF4FE757E46C2D7D2D8E2D9F2D0E94B2
:1053F000964218163CF4C12CDD24DA945FE7E52EC2
:1054000067E4F62E6C2D7D2D8E2D9F2D0E94054379
:10541000F80171836083832D0EDEE889F989C080ED
:10542000D180E280F3800E9431432B013C01C50111
:10543000B4010E9431439B01AC01C301B2010E943F
:105440009D422AE939E949E95EE30E94C844A7017F
:1054500096010E9465449B01462F532F682F792F98
:10546000E889F9894083518362837383482F592FD8
:10547000C701B6010E9431429F772B853C854D853F
:105480005E850E941C441816C4F52BEA3AEA4AEAE3
:105490005DE3E889F98960817181828193810E944D
:1054A00065442B013C01E981FA81C080D180E28012
:1054B000F380762F272F352D462D572D6B817C813C
:1054C0008D819E810E946544A70196010E9432420F
:1054D0004B015C0120E030E0A901792D9B2D0E9459
:1054E0001C4487FF44CF812C912CA12CB12C3FCFA1
:1054F000C12CD12CE12CF12C72CF61960FB6F8940F
:10550000DEBF0FBECDBFDF91CF911F910F91FF90F6
:10551000EF90DF90CF90BF90AF909F908F907F9053
:105520006F905F904F903F900895CF92DF92EF92EF
:10553000FF920F931F93CF93DF93FC01818D90E037
:105540009927DC01AC57B94F2C91DC01AC57B84F0F
:10555000CC90D12CE12CF12C7601DD24CC24D22A64
:10556000A2A5EC01CC57DA4F8881C82A0A2E04C0C4
:10557000F694E794D794C7940A94D2F7CC0CDD1C28
:10558000EE1CFF1CCC0CDD1CEE1CFF1CCC0CDD1C2F
:10559000EE1CFF1CCC0CDD1CEE1CFF1CC086D18653
:1055A000E286F386838D90E09927EC01CC57D94FA2
:1055B0004881EC01CC57D84F088110E020E030E062
:1055C000980111270027142BEC01CC57DA4F888162
:1055D000082B0A2E04C036952795179507950A942F
:1055E000D2F7000F111F221F331F000F111F221FA0
:1055F000331F000F111F221F331F000F111F221F07
:10560000331F0487158726873787858D90E0992774
:10561000EC01CC57D94FB881EC01CC57D84F488119
:1056200050E060E070E0BA01552744275B2BEC01A5
:10563000CC57DA4F8881482B04C0769567955795EB
:105640004795AA95D2F7440F551F661F771F440F41
:10565000551F661F771F440F551F661F771F440F86
:10566000551F661F771F408B518B628B738B83A5F1
:10567000823009F45EC008F036C0813009F02AC0DB
:1056800026893789468D578DAA27429FB12D539F72
:10569000C001349FB00D811D9A1F529FB00D811D16
:1056A0009A1F112480A391A340955095AA27429F49
:1056B000B12D539FC001349FB00D811D9A1F529F81
:1056C000B00D811D9A1F112482A393A3C082D182A1
:1056D000E282F382DF91CF911F910F91FF90EF90C3
:1056E000DF90CF9008958330E9F0843099F711A2CC
:1056F00010A2268D378D06891789AA27209FB12DE4
:10570000319FC001129FB00D811D9A1F309FB00DB7
:10571000811D9A1F112482A393A340835183628326
:105720007383D8CF11A210A28689978993A382A3ED
:10573000D1CF4689578964897589AA27649FB12D7D
:10574000759FC001569FB00D811D9A1F749FB00DAB
:10575000811D9A1F112480A391A360957095AA279B
:10576000649FB12D759FC001569FB00D811D9A1F7A
:10577000749FB00D811D9A1F112482A393A30083EF
:10578000118322833383A6CFFF920F931F93CF936E
:10579000DF93F82E8093BD0FC62FD0E02296FE0136
:1057A000EE0FFF1FE451F44F2FEF3FEF31832083C3
:1057B0000E9486148BE040E050E068E472E48F15AC
:1057C000B8F48F2D98DB8F2D80DC40E050E060E254
:1057D00071E48F2D90DBCC0FDD1FC451D44F1982A3
:1057E0001882DF91CF911F910F91FF900C94861436
:1057F0008F2DE1DA00E010E020E03FE346E063E0D7
:105800008F2D51DD40E050E060E07FE38F2DD3DA53
:10581000E2CF9091300C9E7F80919C0B80FD916037
:105820009093300C26EC21BB20EC28B9492F440F73
:10583000292F2695342F36703064592F551F552740
:10584000551F352B592F5071942F990F9072952B0E
:10585000407C942B2270206641E045B938B99BB951
:105860002EB997E891BB9091300C977F83FD98609B
:105870009093300C26EC21BB20EC28B9492F440F23
:10588000292F2695342F36703064592F551F5527F0
:10589000551F352B592F5071942F990F9072952BBE
:1058A000407C942B2270206641E045B938B99BB901
:1058B0002EB997E891BB9091300C9D7F81FD92604D
:1058C0009093300C26EC21BB20EC28B9492F440FD3
:1058D000292F2695342F36703064592F551F5527A0
:1058E000551F352B592F5071942F990F9072952B6E
:1058F000407C942B2270206641E045B938B99BB9B1
:105900002EB997E891BB9091300C9F7E84FD9061F9
:105910009093300C26EC21BB20EC28B9492F440F82
:10592000292F2695342F36703064592F551F55274F
:10593000551F352B592F5071942F990F9072952B1D
:10594000407C942B2270206641E045B938B99BB960
:105950002EB997E891BB9091300C9B7F82FD9460AB
:105960009093300C26EC21BB20EC28B9492F440F32
:10597000292F2695342F36703064592F551F5527FF
:10598000551F352B592F5071942F990F9072952BCD
:10599000407C942B2270206641E045B938B99BB910
:1059A0002EB997E891BB9091300C9F7D85FD906258
:1059B0009093300C26EC21BB20EC28B9492F440FE2
:1059C000292F2695342F36703064592F551F5527AF
:1059D000551F352B592F5071942F990F9072952B7D
:1059E000407C942B2270206641E045B938B99BB9C0
:1059F0002EB997E891BB9091300C9F7B86FF4FC0EA
:105A0000892F80648093300C96EC91BB90EC98B910
:105A1000382F330F982F9695232F26702064482F08
:105A2000441F4427441F242B482F4071832F880F85
:105A30008072842B307C832B9270906631E035B974
:105A400028B98BB99EB987E881BB8FEF8093B40EDC
:105A500080919B0B90E082FD1092B40E83FF03C0F7
:105A600021E02093B40E1092B70E9C01220F232F39
:105A7000221F330B232B79F024E02093B70E24E16F
:105A800036E146E085FF03C04093B70E232F86FD25
:105A90002093B70E089520E132E142E0F3CF892F41
:105AA0009093300CB1CFCF93DF93B3DE0E94CB2124
:105AB0000E9479198091B20ED82FD17081FF64C0F5
:105AC000C3E0D093750DC093790D8FE49DE02DDD7B
:105AD000D093A10DC093A50D8BE79DE026DDD0935B
