:1000000020C100003DC100003BC1000039C100001B
:1000100037C1000035C1000033C1000031C100000C
:100020002FC100002DC100000C94C1370C94C235C3
:1000300027C1000026C1000023C1000021C100002B
:100040001FC100000C9403381BC1000019C100003F
:1000500017C1000015C1000013C1000011C100004C
:100060000FC100000DC100000BC1000009C100005C
:1000700007C1000005C1000003C1000001C100006C
:10008000FFC00000FDC00000FBC00000F9C0000080
:10009000F7C00000F5C0000005A84CCDB2D44EB9A1
:1000A0003836A9020C50B9918688083CA6AAAA2A1B
:1000B000BE000000803F08000000BE922449123EAE
:1000C000ABAAAA2ABECDCCCC4C3E00000080BEAB71
:1000D000AAAAAA3E00000000BF000000803F000066
:1000E000000000084178D3BB4387D1133D190E3C73
:1000F000C3BD4282AD2B3E68EC8276BED98FE1A9AA
:100100003E4C80EFFFBE01C4FF7F3F0000000000B7
:1001100007634236B79BD8A71A39685618AEBAABF0
:10012000558C1D3CB7CC5763BD6DEDFD753EF61784
:100130007231BF000000803F62616420666C6970AC
:1001400020666C6F7020737461747573203A2000A0
:100150000A005761726E696E673A2061737369674E
:100160006E65725F676574566F69636546726F6D21
:100170004E6F746520666F756E64206E6F20766FAB
:10018000696365210A0000010000BD011200020040
:1001900000CF012200220000F1011500210000E142
:1001A000010900030000060204010309040A021405
:1001B00002030904200220000001C12600120100F0
:1001C0000200000020C016790400010102000109AC
:1001D000022200010100C0320904000001030000F6
:1001E00000092111010001221500070583032000E9
:1001F000010631FF0974A1537508150026FF00950B
:100200002009758102C004030904140359006F001A
:100210007500720020004E0061006D006500000056
:10022000200359006F007500720020005500530034
:10023000420020004400650076006900630065000C
:10024000000011241FBECFEFD0E2DEBFCDBF10E112
:10025000A2EAB9E001C01D92A73AB107E1F719E09F
:10026000A0E0B1E0EAEDF2E900E00BBF02C00790C8
:100270000D92A23AB107D9F70E940D380C946B4940
:10028000BFCE1F920F920FB60F9211240BB60F9292
:100290002F923F924F925F926F927F928F929F9296
:1002A000AF92BF92CF92DF92EF92FF920F931F9384
:1002B0002F933F934F935F936F937F938F939F936E
:1002C000AF93BF93EF93FF93CF93DF93CDB7DEB799
:1002D000AB97DEBFCDBF8091F50E982F9F7101E0E7
:1002E0000EA391111EA2982F937069F48091F40EC1
:1002F00081110C94040E8EA10E94A32B8EA10E944A
:100300009F178091F50E8F5F8093F50E1091730EFD
:10031000112311F40C94A1118090610E9090620E43
:10032000A090630EB090640E4B2D5527662777275B
:10033000452B462B472B11F00C94B90D6091650E9F
:100340007091660E8091670E9091680E123011F4D4
:100350000C94F90D143011F40C94B61120916D0E1B
:1003600030916E0EDC01CB01880D991DAA1DBB1DBD
:100370008093610E9093620EA093630EB093640E0F
:1003800040E050E0305841095109A091690EB09108
:100390006A0E0E9412492FEF3FEF40E050E00E94AA
:1003A0002249C9013093700E20936F0E2091C10E27
:1003B00021FD02C00C9422119DA38CA322FD02C03A
:1003C0000C9440103C0124FF02C00C944610809114
:1003D000BC0B9091BD0BA0E0B0E09058A109B10911
:1003E0009BA38AA38091A60B85FF02C00C94A91140
:1003F000212C312C80910B0C11E081110C940010F8
:1004000051E05BA761E070E078A76FA3112311F4BE
:100410000C941110952F8091F60B8095881F8827DA
:10042000881F98279B8F882311F40C94371281E53D
:100430009CE00E94602789E59DE00E946027209152
:10044000750C3091760C4CA15DA16A01EE24D7FCAD
:10045000E094FE2CB101AA27629FB12D7303C00165
:10046000369FB00D811D9A1F72039A0BB00D811D2E
:100470009A1F1124AA2797FDA095BA2F8C0D9D1DB8
:10048000AE1DBF1D4091740E5091750E840F951FC7
:10049000A11DB11DB7FF02C00C94D812009771E0E6
:1004A000A707B10524F08FEF9FEFA0E0B0E0EFB712
:1004B000F89466EC61BB70EC78B9492F5527F42F9E
:1004C000F695BF2FB695AF2FA670A068F07C40724E
:1004D0005527F42B4B2F40714260F42BB695B27028
:1004E000B062A8B9FBB9BEB957E851BB00C000C0A3
:1004F00061BB9695879596958795482FA82FAA0F4B
:10050000F82FF695441F4427441FBA2FB6704B2B83
:1005100040688071992782609A2F990F9072982B6A
:10052000A07C9A2BF27048B99BB9FEB951BB61BB54
:1005300078B981E085B991E498B990ED9BB990EADA
:100540009EB951BB61BB78B985B987E488B980EFA2
:100550008BB982EA8EB951BBEFBF8091800E90912A
:10056000810EB701A601480F591F611D711DDB01E6
:10057000CA0177FF02C00C94CB12009751E0A50787
:10058000B10524F08FEF9FEFA0E0B0E0EFB7F89453
:1005900066EC61BB70EC78B9492F5527F42FF695BE
:1005A000BF2FB695AF2FA670A068F07C407255277C
:1005B000F42B4B2F40714260F42BB695B270B062B1
:1005C000A8B9FBB9BEB957E851BB00C000C061BBB8
:1005D0009695879596958795482FA82FAA0FF82F5F
:1005E000F695441F4427441FBA2FB6704B2B406822
:1005F0008071992782609A2F990F9072982BA07C16
:100600009A2BF27048B99BB9FEB951BB61BB78B95E
:1006100091E095B985E488B980ED8BB982EA8EB90D
:1006200051BB61BB78B995B997E498B990EF9BB984
:100630008EB951BBEFBF4AA15BA1AA27429FB12D42
:100640005303C001349FB00D811D9A1F52039A0BB2
:10065000B00D811D9A1F11244301AA2497FCA09478
:10066000BA2CAA2797FDA095BA2F880D991DAA1D0F
:10067000BB1D20918C0E30918D0E820F931FA11DFA
:10068000B11DB7FF02C00C94C612009751E0A50738
:10069000B10524F08FEF9FEFA0E0B0E0BFB7F89472
:1006A00046EC41BB50EC58B9292F3327622F669591
:1006B000E62FE695762F76707068607C207233277F
:1006C000622B2E2F20712260622BE695E270E06291
:1006D00078B96BB9EEB967E861BB00C000C041BB37
:1006E0009695879596958795282F782F770F382F91
:1006F0003695221F2227221FE72FE6702E2B206817
:10070000807199278260972F990F9072982B707C37
:10071000972B327028B99BB93EB961BB41BB58B920
:1007200071E075B981E488B980EE8BB9E2EAEEB97F
:1007300061BB41BB58B975B9A7E4A8B9F0EFFBB9E3
:10074000EEB961BBBFBF80917D0D90917E0D0FB75B
:1007500009A7F89441BB58B9292F3327B22FB69572
:100760004B2E46940B2F06700068B07C2072332706
:10077000B22B242D20712260B22B242D26952270BD
:10078000206208B9BBB92EB961BB00C000C041BB33
:100790009695879596958795282FB82FBB0F382F5C
:1007A0003695221F2227221F06E0502E5B22252984
:1007B00020688071992782609B2F990F9072982BE7
:1007C0008B2F807C982B327028B99BB93EB961BBC6
:1007D00041BB58B975B985E488B980EB8BB980EA1B
:1007E0008EB961BB41BB58B975B9A8B9FBB9EEB9AF
:1007F00061BB29A52FBF8091F70B8095881F8827A3
:10080000881F78277C8F882309F4EEC111110C947E
:100810005012412E512C8CE2849DF001859DF00DEB
:100820001124EF5AF34F44A155A15AA749A7B1018A
:10083000AA27649FB12D75039001569FB00D211D0D
:100840003A1F74033A0BB00D211D3A1F1124A90160
:10085000662757FD6095762F4C0D5D1D6E1D7F1D23
:100860000BA5802F880F990BFC01EC58F14F2081CC
:100870003181420F531F611D711D77FF02C00C941F
:10088000C1124115510521E06207710524F04FEFB7
:100890005FEF60E070E09A01EFB7F89466EC61BB3F
:1008A00070EC78B9452F5527F42FF695BF2FB695E4
:1008B000AF2FA670A068F07C40725527F42B4B2F09
:1008C00040714260F42BB695B270B062A8B9FBB922
:1008D000BEB957E851BB00C000C061BB3695279533
:1008E00036952795422FA22FAA0FF22FF695441F77
:1008F0004427441FBA2FB6704B2B40682071332712
:1009000022603A2F330F3072322BA07C3A2BF270D8
:1009100048B93BB9FEB951BB61BB78B921E025B9F3
:1009200033E438B930ED3BB930EA3EB951BB61BB75
:1009300078B925B927E428B920EF2BB922EA2EB9D6
:1009400051BBEFBFFC01E058F14F20813181C20E55
:10095000D31EE11CF11CF7FE02C00C94A312C114BB
:10096000D10431E0E306F1042CF0CC24CA94DC2C51
:10097000E12CF12C6FB7F89446EC41BB50EC58B920
:100980002D2D3327722F7695F72FF695E72FE670EA
:10099000E068707C20723327722B2F2F2071226029
:1009A000722BF695F270F062E8B97BB9FEB937E8C0
:1009B00031BB00C000C041BBD694C794D694C79445
:1009C0002C2DEC2DEE0F7C2D7695221F2227221F39
:1009D000FE2FF6702F2B2068D601A071BB27A260D6
:1009E000FE2FFF0FF072FA2BE07CFE2B727028B9FD
:1009F000FBB97EB931BB41BB58B9E1E0E5B977E459
:100A000078B920ED2BB922EA2EB931BB41BB58B9D8
:100A1000E5B978B940EF4BB92EB931BB6FBF4AA1E8
:100A20005BA169A57AA5AA27469FB12D570390011E
:100A3000749FB00D211D3A1F56033A0BB00D211DB6
:100A40003A1F1124A901662757FD6095762F480D9E
:100A5000591D6A1D7B1DFC01E457F14F8081918176
:100A6000480F591F611D711D77FF02C00C949E1223
:100A7000DB01CA01009771E0A707B10524F08FEFF1
:100A80009FEFA0E0B0E09C01EFB7F89456EC51BBAB
:100A900060EC68B9892F9927482F4695F42FF69571
:100AA000742F76707068407C80729927482B9F2F36
:100AB00090719260492B8F2F86958270806278B9F1
:100AC0004BB98EB947E841BB00C000C051BB369559
:100AD000279536952795922FF22FFF0F722F769537
:100AE000991F9927991F8F2F8670982B90682071D6
:100AF000332722608F2F880F8072822BF07C8F2B00
:100B0000727098B98BB97EB941BB51BB68B971E0BD
:100B100075B983E488B980EE8BB9A2EAAEB941BB5E
:100B200051BB68B975B9B7E4B8B900EF0BB9AEB944
:100B300041BBEFBF8CE2849DF001859DF00D112437
:100B4000E358F24F80819181DFB6F89451BB68B9C8
:100B5000292F3327F22FF695EF2EE694EF2FE6702C
:100B6000E068F07C20723327F22B2E2D207122605A
:100B7000F22B2E2D269522702062E8B9FBB92EB9F2
:100B800041BB00C000C051BB96958795969587954F
:100B9000282FF82FFF0F382F3695221F2227221FCC
:100BA000E6E0FE2EFF222F292068807199278260BF
:100BB0009F2F990F9072982BF07C9F2B327028B941
:100BC0009BB93EB941BB51BB68B975B9B8B980EBA7
:100BD0008BB980EA8EB941BB51BB68B975B9B8B958
:100BE0000BB9AEB941BBDFBE8091F80B8095881F71
:100BF0008827881F91E098279D8F882309F404C2D5
:100C000011110C947712212F220F30E08CE2829F79
:100C1000F001839FF00D1124EF5AF34F44A155A129
:100C20006CA17DA16B01EE24D7FCE094FE2CB101F8
:100C3000AA27649FB12D75034001569FB00D811CFA
:100C40009A1E74039A0AB00D811C9A1E11248FA15A
:100C5000880F90E0AA2497FCA094BA2C8C0C9D1CC1
:100C6000AE1CBF1C880F991FFC01EC58F14F01907E
:100C7000F081E02D8E0E9F1EA11CB11CB7FE02C09C
:100C80000C94BC128114910471E0A706B1042CF0FD
:100C900088248A94982CA12CB12CB4018FB6F89496
:100CA000A6ECA1BBB0ECB8B9E72FFF27BE2EB694D7
:100CB0009B2C96940B2D06700068BB22E072FF27D8
:100CC000BE2AE92DE071E260BE2AE92DE695E270C8
:100CD000E06208B9BBB8EEB9F7E8F1BB00C000C0EC
:100CE000A1BB7695679576956795E62FA62EAA0CFB
:100CF000B62EB694EE1FEE27EE1F06E0902E9A2039
:100D0000E929E0686071772762607A2D770F707249
:100D1000762B6A2D607C762B62E0A62EBA20E8B98D
:100D20007BB9BEB8F1BBA1BBB8B961E065B975E4E8
:100D300078B970ED7BB970EA7EB9F1BBA1BBB8B9E7
:100D400065B967E468B960EF6BB962EA6EB9F1BB87
:100D50008FBEFC01E058F14F60817181C60ED71E35
:100D6000E11CF11CF7FE02C00C94B712C114D104AF
:100D700001E0E006F1042CF0CC24CA94DC2CE12C38
:100D8000F12CEFB6F894E6ECE1BBF0ECF8B96D2D80
:100D90007727B62FB695FB2EF6940B2F06700068BA
:100DA000B07C60727727B62B6F2D60716260B62BB6
:100DB0006F2D66956270606208B9BBB96EB977E84D
:100DC00071BB00C000C0E1BBD694C794D694C79451
:100DD0006C2D0C2D000FBC2DB695661F6627661F67
:100DE000A6E0FA2EF0226F296068A0E1CA22DD2475
:100DF000A2E0AA2ECA28F02EFF0CA0E2FA22FC28BC
:100E0000007CF02AB27068B9FBB8BEB971BBE1BB17
:100E1000F8B961E065B9B1E4B8B9B0EEBBB9B0EA10
:100E2000BEB971BBE1BBF8B965B967E468B960EFF9
:100E30006BB962EA6EB971BBEFBE6AA17BA1AA274A
:100E4000649FB12D7503F001569FB00DE11DFA1F8F
:100E50007403FA0BB00DE11DFA1F11246301EE2497
:100E6000D7FCE094FE2CAF01662757FD6095762FE6
:100E7000C40ED51EE61EF71EFC01E457F14F40815B
:100E80005181C40ED51EE11CF11CF7FE02C00C946A
:100E9000B212C114D10471E0E706F1042CF0CC24A5
:100EA000CA94DC2CE12CF12CC601FFB6F89456EC68
:100EB00051BB60EC68B9ED2DFF277E2F7695472F4B
:100EC0004695A72FA670A068707CE072FF277E2B46
:100ED000E42FE071E2607E2B469542704062A8B933
:100EE0007BB94EB947E841BB00C000C051BB9695E5
:100EF000879596958795782FF82FFF0FE82FE69521
:100F0000771F7727771FAF2FA6707A2B70688071B5
:100F1000992782609F2F990F9072982BF07C9F2BBE
:100F2000E27078B99BB9EEB941BB51BB68B9A1E099
:100F3000A5B985E488B980EE8BB972EA7EB941BB68
:100F400051BB68B9A5B907E408B9B0EFBBB97EB920
:100F500041BBFFBE8CE2829FF001839FF00D112404
:100F6000E358F24F80819181DFB6F89451BB68B9A4
:100F7000292F3327F22FF695EF2EE694EF2FE67008
:100F8000E068F07C20723327F22B2E2D2071226036
:100F9000F22B2E2D269522702062E8B9FBB92EB9CE
:100FA00041BB00C000C051BB96958795969587952B
:100FB000282FF82FFF0F382F3695221F2227221FA8
:100FC000E6E0FE2EFF222F2920688071992782609B
:100FD0009F2F990F9072982BF07C9F2B327028B91D
:100FE0009BB93EB941BB51BB68B9A5B981E488B989
:100FF00080EB8BB97EB941BB51BB68B9A5B908B9C3
:10100000BBB97EB941BBDFBE8091F90B8095881FCB
:101010008827881F91E098279E8F882309F406C2AD
:1010200011110C946D12A12FAA0FA10FEA2FF0E05D
:101030008CE2A89FD0011124AF5AB34F94962D9102
:101040003C9195974CA15DA16A01EE24D7FCE094F8
:10105000FE2CB101AA27629FB12D7303A001369F18
:10106000B00D411D5A1F72035A0BB00D411D5A1F7E
:1010700011249FA1892F880F890F90E04A01AA248B
:1010800097FCA094BA2C8C0C9D1CAE1CBF1C880F26
:10109000991FDC01AC58B14F6D917C91860E971E63
:1010A000A11CB11CB7FE02C00C94AD1281149104B6
:1010B00071E0A706B1042CF088248A94982CA12C06
:1010C000B12CA4018FB6F894A6ECA1BBB0ECB8B9D2
:1010D000652F7727B62EB6949B2C96940B2D067011
:1010E0000068BB2260727727B62A692D6071626042
:1010F000B62A692D66956270606208B9BBB86EB990
:1011000077E871BB00C000C0A1BB569547955695C6
:101110004795642FA42EAA0CB42EB694661F66279A
:10112000661F06E0902E9A20692960684071552755
:1011300042605A2D550F5072542B4A2D407C542B2F
:1011400042E0A42EBA2068B95BB9BEB871BBA1BB9E
:10115000B8B951E055B947E448B960ED6BB960EAF8
:101160006EB971BBA1BBB8B955B948B940EF4BB91D
:1011700042EA4EB971BB8FBEDC01A058B14F4D9110
:101180005C91C40ED51EE11CF11CF7FE02C00C944C
:101190009912C114D10401E0E006F1042CF0CC2432
:1011A000CA94DC2CE12CF12CEFB6F89466EC61BB10
:1011B00070EC78B94D2D5527B42FB695FB2EF694CB
:1011C0000B2F06700068B07C40725527B42B4F2D52
:1011D00040714260B42B4F2D46954270406208B971
:1011E000BBB94EB957E851BB00C000C061BBD69433
:1011F000C794D694C7944C2D0C2D000FBC2DB695DA
:10120000441F4427441FA6E0FA2EF0224F294068CD
:10121000A0E1CA22DD24A2E0AA2ECA28F02EFF0CEB
:10122000A0E2FA22FC28007CF02AB27048B9FBB890
:10123000BEB951BB61BB78B941E045B9B3E4B8B9B7
:10124000B0EEBBB9B0EABEB951BB61BB78B945B924
:1012500047E448B940EF4BB942EA4EB951BBEFBE43
:101260006AA17BA1AA27629FB12D7303A001369FBB
:10127000B00D411D5A1F72035A0BB00D411D5A1F6C
:1012800011246301EE24D7FCE094FE2C662757FD61
:101290006095762FC40ED51EE61EF71EDC01A457FE
:1012A000B14F2D913C91C20ED31EE11CF11CF7FEF3
:1012B00002C00C949412C114D10471E0E706F10449
:1012C0002CF0CC24CA94DC2CE12CF12CC601AFB755
:1012D000F89456EC51BB60EC68B92D2D3327422FA2
:1012E0004695B42FB695742F76707068407C207246
:1012F0003327422B3B2F30713260432B2B2F269507
:101300002270206278B94BB92EB947E841BB00C0C2
:1013100000C051BB9695879596958795282F782F75
:10132000770F382F3695221F2227221FB72FB6702E
:101330002B2B2068807199278260972F990F9072CC
:10134000982B707C972B327028B99BB93EB941BB62
:1013500051BB68B901E005B987E4F82EF8B880EE12
:101360008BB972EA7EB941BB51BB68B905B9F8B80F
:1013700090EFE92EEBB87EB941BBAFBF8CE28E9FF8
:10138000D0018F9FB00D1124A358B24F8D919C9125
:10139000EFB7F89451BB68B9292F3327F22FF69590
:1013A000BF2FB695AF2FA670A068F07C20723327B0
:1013B000F22B2B2F20712260F22BB695B270B06207
:1013C000A8B9FBB9BEB941BB00C000C051BB9695DE
:1013D000879596958795282FF82FFF0F382F3695EC
:1013E000221F2227221FAF2FA6702A2B2068807170
:1013F000992782609F2F990F9072982BF07C9F2BDA
:10140000327028B99BB93EB941BB51BB68B905B927
:1014100083E488B980EB8BB97EB941BB51BB68B915
:1014200005B9F8B8EBB87EB941BBEFBF8091FA0BB4
:101430008095881F8827881F91E098279F8F882391
:1014400009F403C211110C946312212F220F220FF1
:1014500030E08CE2829FF001839FF00D1124EF5A5F
:10146000F34F44A155A16CA17DA16B01EE24D7FCE3
:10147000E094FE2CB101AA27649FB12D75034001B1
:10148000569FB00D811C9A1E74039A0AB00D811CE0
:101490009A1E11248FA1880F880F90E0AA2497FC30
:1014A000A094BA2C8C0C9D1CAE1CBF1C880F991FDD
:1014B000FC01EC58F14F0190F081E02D8E0E9F1E43
:1014C000A11CB11CB7FE02C00C94A8128114910497
:1014D00071E0A706B1042CF088248A94982CA12CE2
:1014E000B12CB4018FB6F894A6ECA1BBB0ECB8B99E
:1014F000E72FFF27BE2EB6949B2C96940B2D0670DB
:101500000068BB22E072FF27BE2AE92DE071E2608D
:10151000BE2AE92DE695E270E06208B9BBB8EEB9E3
:10152000F7E8F1BB00C000C0A1BB76956795769542
:101530006795E62FA62EAA0CB62EB694EE1FEE27C0
:10154000EE1F06E0902E9A20E929E0686071772767
:1015500062607A2D770F7072762B6A2D607C762B05
:1015600062E0A62EBA20E8B97BB9BEB8F1BBA1BB38
:10157000B8B971E075B961E468B960ED6BB962EA58
:101580006EB9F1BBA1BBB8B975B977E478B970EFA2
:101590007BB96EB9F1BB8FBEFC01E058F14F6081A1
:1015A0007181C60ED71EE11CF11CF7FE01C0B8C741
:1015B000C114D10401E0E006F1042CF0CC24CA945B
:1015C000DC2CE12CF12CEFB6F894E6ECE1BBF0EC6E
:1015D000F8B96D2D7727B62FB695FB2EF6940B2F05
:1015E00006700068B07C60727727B62B6F2D607133
:1015F0006260B62B6F2D66956270606208B9BBB9E8
:101600006EB977E871BB00C000C0E1BBD694C79447
:10161000D694C7946C2D0C2D000FBC2DB695661F6B
:101620006627661FA6E0FA2EF0226F296068A0E107
:10163000CA22DD24A2E0AA2ECA28F02EFF0CA0E2C6
:10164000FA22FC28007CF02AB27068B9FBB8BEB957
:1016500071BBE1BBF8B961E065B9B5E4B8B9B0EE0A
:10166000BBB9B0EABEB971BBE1BBF8B965B967E413
:1016700068B960EF6BB962EA6EB971BBEFBE6AA17F
:101680007BA1AA27649FB12D7503F001569FB00D71
:10169000E11DFA1F7403FA0BB00DE11DFA1F1124AE
:1016A0006301EE24D7FCE094FE2CAF01662757FDC2
:1016B0006095762FC40ED51EE61EF71EFC01E4577A
:1016C000F14F40815181C40ED51EE11CF11CF7FC85
:1016D00023C7C114D10471E0E706F1042CF0CC2437
:1016E000CA94DC2CE12CF12CC601EFB6F89456EC30
:1016F00051BB60EC68B9ED2DFF277E2F7695472F03
:101700004695A72FA670A068707CE072FF277E2BFD
:10171000E42FE071E2607E2B469542704062A8B9EA
:101720007BB94EB947E841BB00C000C051BB96959C
:10173000879596958795782FF82FFF0FE82FE695D8
:10174000771F7727771FAF2FA6707A2B706880716D
:10175000992782609F2F990F9072982BF07C9F2B76
:10176000E27078B99BB9EEB941BB51BB68B971E081
:1017700075B981E488B9E0EBFE2EFBB880EA8EB93A
:1017800041BB51BB68B975B907E408B9B0EFBBB943
:10179000A2EAAEB941BBEFBE8CE2829FF001839F0B
:1017A000F00D1124E358F24F80819181CFB6F89467
:1017B00051BB68B9292F3327F22FF695DF2ED69427
:1017C000EF2FE670E068F07C20723327F22B2D2D8E
:1017D00020712260F22B2D2D269522702062E8B90F
:1017E000FBB92EB941BB00C000C051BB969587958F
:1017F00096958795282FF82FFF0F382F3695221FA3
:101800002227221FE6E0EE2EEF222E29206880718B
:10181000992782609F2F990F9072982BF07C9F2BB5
:10182000327028B99BB93EB941BB51BB68B975B993
:1018300085E488B9FBB8AEB941BB51BB68B975B98D
:1018400008B9BBB9AEB941BBCFBE8091FB0B809547
:10185000881F8827881F91E0982798A3882309F478
:1018600056C1111127C6E12FEE0FEE0FE10F4E2EDC
:10187000512C8CE2E89FF0011124EF5AF34FE4A0C1
:10188000F5A00CA11DA1A801662757FD6095762F34
:1018900091018701AA27209FB12D3103C001129F1A
:1018A000B00D811D9A1F30039A0BB00D811D9A1F38
:1018B00011242FA1C22ECC0CCC0CC20ED12CAA27E5
:1018C00097FDA095BA2F840F951FA61FB71FCC0CAC
:1018D000DD1CF601EC58F14F20813181820F931FFE
:1018E000A11DB11DB7FD14C6009711E0A107B105F8
:1018F00024F08FEF9FEFA0E0B0E09FB6F894E6EC05
:10190000E1BBF0ECF8B9292F3327B22FB695AB2EF7
:10191000A694AB2FA670A068B07C20723327B22BA0
:101920003A2D30713260B32B2A2D26952270206219
:10193000A8B9BBB92EB937E831BB00C000C0E1BBC4
:101940009695879596958795282FB82EBB0CB82F1E
:10195000B695221F2227221F16E0A12EAB202A298E
:1019600020688071992782609B2D990F9072982B27
:101970008B2D807C982BB27028B99BB9BEB931BB36
:10198000E1BBF8B991E095B983E488B980ED8BB9F2
:1019900082EA8EB931BBE1BBF8B995B997E498B941
:1019A00090EF9BB98EB931BB9FBEF601E058F14F65
:1019B00080819181480F591F611D711D77FDF4C50C
:1019C000CB01BA016115710521E08207910524F070
:1019D0006FEF7FEF80E090E08BE00E94641A4AA1F5
:1019E0005BA1B701AA27469FB12D5703C001749F81
:1019F000B00D811D9A1F56039A0BB00D811D9A1FC1
:101A00001124A301662757FD6095762FAA2797FD1D
:101A1000A095BA2F480F591F6A1F7B1FF601E45784
:101A2000F14F80819181480F591F611D711D77FD14
:101A3000B7C54115510581E06807710524F04FEFE6
:101A40005FEF60E070E0FFB7F89436EC31BB60EC1C
:101A500068B9852F9927282F2695E22FE695722FB2
:101A600076707068207C80729927282B9E2F907149
:101A70009260292B8E2F86958270806278B92BB95F
:101A80008EB927E821BB00C000C031BB56954795F1
:101A900056954795942FE42FEE0F742F7695991F46
:101AA0009927991F8E2F8670982B90684071552723
:101AB00042608E2F880F8072842BE07C8E2B727098
:101AC00098B98BB97EB921BB31BB68B981E085B9C2
:101AD00093E498B990EB9BB990EA9EB921BB31BBD6
:101AE00068B985B987E488B980EF8BB982EA8EB985
:101AF00021BBFFBF8CE2849DF001859DF00D112478
:101B0000E358F24F6081718187E10E94641A95E386
:101B10009A95F1F70000AEA0A11098C3AB960FB64E
:101B2000F894DEBF0FBECDBFDF91CF91FF91EF9153
:101B3000BF91AF919F918F917F916F915F914F91E5
:101B40003F912F911F910F91FF90EF90DF90CF90D9
:101B5000BF90AF909F908F907F906F905F904F90CD
:101B60003F902F900F900BBE0F900FBE0F901F90C5
:101B70001895E1E08091720EE81BE093720EE1117E
:101B800056C4C12CD12C7601C092610ED092620E47
:101B9000E092630EF092640E20916B0E30916C0E09
:101BA00040E050E00090710E04C0220F331F441F2C
:101BB000551F0A94D2F7FF27E1950CF4F095DF0149
:101BC000AA0FBB1F11960E941C496093650E70936B
:101BD000660E8093670E9093680E113009F4E4C688
:101BE000133009F4C7C646015701123011F00C94A6
:101BF000AA01FF24EB2CDA2CC92C9601D0926E0E90
:101C0000C0926D0E0C94B2018091F20E9091F30E81
:101C10004091980E5091990E2091740E3091750E4E
:101C20002417350708F010C4421B530B841795077F
:101C300008F4AC01420F531F5093750E4093740E7D
:101C40004091A40E5091A50E2091800E3091810EEE
:101C50002417350708F4B1C44217530770F48901FB
:101C6000041B150BA8018017910708F4C6C6241B96
:101C7000350B3093810E2093800E4091B00E509121
:101C8000B10E20918C0E30918D0E2417350708F47B
:101C9000E8C44217530770F4B901641B750BAB011C
:101CA0008617970708F48BC6241B350B30938D0ECF
:101CB00020938C0E40919A0E50919B0E2091760E9F
:101CC0003091770E2417350708F4BEC44217530726
:101CD00070F48901041B150BA8018017910708F403
:101CE00072C6241B350B3093770E2093760E4091ED
:101CF000A60E5091A70E2091820E3091830E2417CC
:101D0000350708F43EC54217530770F4B901641B48
:101D1000750BAB018617970708F453C6241B350BC8
:101D20003093830E2093820E4091B20E5091B30EE9
:101D300020918E0E30918F0E2417350708F414C5AC
:101D40004217530770F48901041B150BA801801773
:101D5000910708F440C6241B350B30938F0E209357
:101D60008E0E40919C0E50919D0E2091780E3091D8
:101D7000790E2417350708F4EAC44217530770F4A4
:101D8000B901641B750BAB018617970708F421C6D0
:101D9000241B350B3093790E2093780E4091A80EBA
:101DA0005091A90E2091840E3091850E241735078D
:101DB00008F4C0C44217530770F48901041B150BC3
:101DC000A8018017910708F402C6241B350B309335
:101DD000850E2093840E4091B40E5091B50E209143
:101DE000900E3091910E2417350708F496C44217CF
:101DF000530770F4B901641B750BAB018617970785
:101E000008F4E3C5241B350B3093910E2093900EFC
:101E100040919E0E50919F0E20917A0E30917B0E34
:101E20002417350708F46CC44217530770F489016E
:101E3000041B150BA8018017910708F4DCC5241BAF
:101E4000350B30937B0E20937A0E4091AA0E509161
:101E5000AB0E2091860E3091870E2417350708F4BB
:101E600042C44217530770F4B901641B750BAB01F0
:101E70008617970708F4BDC5241B350B3093870ED2
:101E80002093860E4091B60E5091B70E2091920E7F
:101E90003091930E2417350708F418C442175307DE
:101EA00070F48901041B150BA8018017910708F431
:101EB0009EC5241B350B3093930E2093920E4091B8
:101EC000A00E5091A10E20917C0E30917D0E241712
:101ED000350708F4ACC34217530770F4B901641B0B
:101EE000750BAB018617970708F47FC5241B350BCC
:101EF00030937D0E20937C0E4091AC0E5091AD0E30
:101F00002091880E3091890E2417350708F482C37A
:101F10004217530770F48901041B150BA8018017A1
:101F2000910708F460C5241B350B3093890E20936C
:101F3000880E4091B80E5091B90E2091940E3091B8
:101F4000950E2417350708F458C34217530770F449
:101F5000B901641B750BAB018617970708F441C5DF
:101F6000241B350B3093950E2093940E4091A20EB6
:101F70005091A30E20917E0E30917F0E24173507CD
:101F800008F028C3421B530B8417950708F4AC01D3
:101F9000420F531F50937F0E40937E0E4091AE0E22
:101FA0005091AF0E20918A0E30918B0E2417350779
:101FB00008F079C3421B530B8417950708F4AC0152
:101FC000420F531F50938B0E40938A0E4091BA0ECE
:101FD0005091BB0E2091960E3091970E2417350725
:101FE00008F04CC3421B530B8417950708F4AC014F
:101FF000420F531F5093970E4093960E0C947B0103
:1020000010E0833021F0843011F00C94000201E0E4
:102010008091F40E811100E0402F50E058A74FA3AB
:102020000BA781E59CE00E94602789E59DE00E9466
:1020300060278091F60B8095881F8827881F91E084
:10204000282F29272B8F81110C941F028091F70BC9
:102050008095881F8827881F98279C8F882311F4D4
:102060000C94F4052CA13DA16901EE24D7FCE09469
:10207000FE2C4301AA2497FCA094BA2C0C940904CA
:10208000612C712C24FD02C00C94E701AA2797FD56
:10209000A095BA2F2091E60B3091E70B4091A50B4C
:1020A00040FFCBC1AC01BD01420F531F611D711D2B
:1020B00077FDADC44115510511E06107710524F0AC
:1020C0004FEF5FEF60E070E0652F752F7695272F5B
:1020D0002695F72FF670F068322F307160723260FB
:1020E000707C762B732B269522702062569547952F
:1020F00056954795642F342F330FE42FE695661FCE
:102100006627661F132F1670612B60684071552774
:102110004260532F550F5072542B307C532BE2707A
:102120001FB7F89436EC31BB40EC48B9F8B97BB92D
:102130002EB927E821BB00C000C031BB68B95BB92C
:10214000EEB921BB31BB48B961E065B951E458B97A
:1021500050E75BB952EA5EB921BB31BB48B965B9FA
:1021600037E438B930EF3BB95EB921BB1FBF2091CE
:10217000D00B3091D10B4091A50B41FFC2C1820F12
:10218000931FA11DB11DB7FD3EC4009721E0A2071A
:10219000B10524F08FEF9FEFA0E0B0E0392F692F59
:1021A0006695562F5695E62FE670E068252F20712C
:1021B00030722260607C632B622B569552705062A5
:1021C0009695879596958795482F382F330F782FBA
:1021D0007695441F4427441F232F2670422B4068C6
:1021E000807199278260232F220F2072282B307C48
:1021F000232B7270FFB7F89496EC91BB30EC38B992
:10220000E8B96BB95EB987E881BB00C000C091BB7B
:1022100048B92BB97EB981BB91BB38B951E055B9EA
:1022200047E448B920E72BB922EA2EB981BB91BB1C
:1022300038B955B948B990EF9BB92EB981BBFFBFEA
:102240000C94E7011DA21CA20C94DE0180910B0CE2
:102250008111B4C08091F60B87FD05C08091840D7B
:10226000882309F4DCC38091F70B87FD05C08091BA
:10227000B00D882309F4CFC38091F80B87FD05C00A
:102280008091DC0D882309F4E8C38091F90B87FD68
:1022900005C08091080E882309F4DBC38091FA0BF6
:1022A00087FD05C08091340E882309F4CEC3809148
:1022B000FB0B87FD05C08091600E882309F4B3C035
:1022C0008B8D811127C38C8D8111F5C28D8D81116C
:1022D000C3C28E8D811191C28F8D81115FC288A181
:1022E000882309F41BCC6FB7F89496EC91BB20ECD3
:1022F00028B940E848B932E03BB980E28EB987E8B6
:1023000081BB00C000C091BB48B93BB91EB881BBBE
:1023100091BB28B951E055B947E448B930EB3BB916
:1023200032EA3EB981BB91BB28B955B948B990EFA3
:102330009BB93EB981BB55E35A95F1F700006FBFD9
:10234000EDCB1092700E10926F0E80E090E00C9426
:10235000D6012090E80B3090E90BC101A0E0B0E07D
:102360009058A109B1091C010C94FA01F92CEA2D2D
:10237000EF3F09F421C32A2D2F5F30E0220F331FD6
:10238000F0E0EE0FFF1FEE55F64F0190F081E02DCB
:10239000D901AE55B64F2D913C912E1B3F0B032F0B
:1023A0001127F09E9001F19E300D11242E0F3F1F3A
:1023B00030936E0E20936D0E0C94B2018091F60B4B
:1023C00087FD05C08091840D882309F43BC380916B
:1023D000F70B87FD05C08091840D882309F42EC377
:1023E0008091F80B87FD05C08091840D882309F446
:1023F00021C38091F90B87FD05C08091840D88234E
:1024000009F414C38091FA0B87FD05C08091840DF7
:10241000882309F407C38091FB0B87FD51CF80917E
:10242000840D81114DCF85E00E940A2349CFCC2431
:10243000CA94DC2CEC2CF12CA7CBE2E052EF67E83D
:1024400022E272E7F6E86CCE4217530708F0F8CBA9
:10245000B901641B750BAB018617970708F4CFC24F
:10246000241B350B3093750E2093740EE9CB8091AD
:10247000F70B8095881F8827881F9BA598279C8F1E
:10248000882311F40C94F4056CA17DA16B01EE245A
:10249000D7FCE094FE2C4301AA2497FCA094BA2C0C
:1024A0008DE79CE00E94602785E89DE00E94602700
:1024B0000C9409048DE29DE00E94602785E39EE074
:1024C0000E946027D0C981E09DE00E94602789E0DA
:1024D0009EE00E9460270C94250A85ED9CE00E94F6
:1024E00060278DED9DE00E9460270C94130889EA17
:1024F0009CE00E94602781EB9DE00E9460270C9485
:10250000030672E022EF47E852E262E7E6E872CEA5
:1025100080E090E0DC01E8C9C12CD12C7601D9C85B
:10252000C12CD12C760144C8C12CD12C76010C943D
:102530005B09C12CD12C76010C94C90840E050E015
:10254000BA010C943805C12CD12C76010C94AF043F
:10255000812C912C54010C94660A812C912C5401ED
:102560000C945608C12CD12C76010C944907C12C2F
:10257000D12C76010C94B606812C912C54010C942C
:10258000420640E050E0BA010C94410480E090E043
:10259000DC010C94450380E090E0DC010C94BD026A
:1025A00040E050E0BA0145CA40E050E0BA0108CA34
:1025B00080E090E0DC010C944E02421B530B841728
:1025C000950708F4AC01420F531F5093810E4093BE
:1025D000800E53CB4217530708F0E0CC8901041B4F
:1025E000150BA8018017910708F4F9C1241B350BBE
:1025F00030937F0E20937E0ED1CC421B530B841759
:10260000950708F4AC01420F531F5093950E409369
:10261000940EACCC421B530B8417950708F4AC0105
:10262000420F531F5093890E4093880E82CC421B59
:10263000530B8417950708F4AC01420F531F5093B6
:102640007D0E40937C0E58CC421B530B841795078C
:1026500008F4AC01420F531F5093770E4093760E4F
:1026600046CB421B530B8417950708F4AC01420F6D
:10267000531F50938D0E40938C0E1CCB4217530763
:1026800010F00C947B018901041B150BA801801725
:10269000910708F4A2C1241B350B3093970E2093A9
:1026A000960E0C947B014217530708F08FCCB901AA
:1026B000641B750BAB018617970708F4A2C1241B96
:1026C000350B30938B0E20938A0E80CC421B530B1C
:1026D0008417950708F4AC01420F531F5093930ED3
:1026E0004093920EECCB421B530B8417950708F4D2
:1026F000AC01420F531F5093870E4093860EC2CBFE
:10270000421B530B8417950708F4AC01420F531F6B
:1027100050937B0E40937A0E98CB421B530B841739
:10272000950708F4AC01420F531F5093910E40934C
:10273000900E6ECB421B530B8417950708F4AC0127
:10274000420F531F5093850E4093840E44CB421B7F
:10275000530B8417950708F4AC01420F531F509395
:10276000790E4093780E1ACB421B530B84179507B2
:1027700008F4AC01420F531F50938F0E40938E0EFE
:10278000F0CA421B530B8417950708F4AC01420FA3
:10279000531F5093830E4093820EC6CA5FB7F894BE
:1027A00096EC91BB20EC28B940E848B932E03BB93F
:1027B00080E28EB987E881BB00C000C091BB48B9F8
:1027C0003BB91EB881BB91BB28B941E045B935E49E
:1027D00038B930EB3BB932EA3EB981BB91BB28B97D
:1027E00045B997E498B990EF9BB93EB981BB45E3F1
:1027F0004A95F1F700005FBF72CD5FB7F89496EC91
:1028000091BB20EC28B940E848B932E03BB980E2FE
:102810008EB987E881BB00C000C091BB48B93BB905
:102820001EB881BB91BB28B941E045B933E438B942
:1028300030EB3BB932EA3EB981BB91BB28B945B90F
:1028400097E498B990EF9BB93EB981BB35E33A95CF
:10285000F1F700005FBF40CD5FB7F89496EC91BBF5
:1028600020EC28B940E848B932E03BB980E28EB9A3
:1028700087E881BB00C000C091BB48B93BB91EB816
:1028800081BB91BB28B941E045B931E438B930EB9F
:102890003BB932EA3EB981BB91BB28B945B997E44F
:1028A00098B990EF9BB93EB981BB25E32A95F1F722
:1028B00000005FBF0ECD5FB7F89496EC91BB20ECA3
:1028C00028B940E848B932E03BB980E28EB987E8E0
:1028D00081BB00C000C091BB48B93BB91EB881BBE9
:1028E00091BB28B941E045B937E438B960EB6BB921
:1028F00060EA6EB981BB91BB28B945B938B990EF90
:102900009BB992EA9EB981BB15E31A95F1F70000D5
:102910005FBFDCCC5FB7F89496EC91BB20EC28B994
:1029200040E848B932E03BB980E28EB987E881BB24
:1029300000C000C091BB48B93BB91EB881BB91BB78
:1029400028B931E035B945E448B940EB4BB940EA24
:102950004EB981BB91BB28B935B997E498B990EFCE
:102960009BB992EA9EB981BB05E30A95F1F7000095
:102970005FBFA9CC0E94044990936E0E80936D0EA8
:102980001091730E6091650E7091660E8091670EC6
:102990009091680E8090610E9090620EA090630EF0
:1029A000B090640E0C94A601F0936E0EE0936D0E41
:1029B000460157010C94AE012EEF31E0E1CCAC01A1
:1029C00073C9AC01ABC9AC018CC9AC011BCAAC0169
:1029D000FCC9AC01DDC9AC01BEC9AC015CCEAC0127
:1029E00005CEAC01BDCAAC019ECAAC017FCAAC0128
:1029F00060CAAC0141CAAC0122CAAC0138C9AC0101
:102A00002FCDAC015CCE80E090E0DC01BECB40E09D
:102A100050E0BA014FCB81E00E940A232DCC0E94E6
:102A20000A2321CC84E00E940A23F5CC83E00E9493
:102A30000A23E8CC82E00E940A23DBCC81E00E94DA
:102A40000A23CECC0E940A23C2CC84E00E940A232F
:102A50002ECC83E00E940A2321CC82E00E940A232C
:102A600014CC9091A610992309F440C09FB7F89414
:102A700023E02093E9002091F60E21112FC0309120
:102A8000E4003C5F2091E80025FD1CC09FBF9091B1
:102A9000E400931769F19091A610992339F143E06E
:102AA00009C09FBF9091E400931711F19091A61077
:102AB0009923E1F09FB7F8944093E9002091E80052
:102AC00025FFEFCF8093F1008091E80085FF15C0CE
:102AD00082E08093A5109FBF80E008952091E800D8
:102AE00025FF03C01092F60ECACF9FBF8FEF089547
:102AF00081E08093F60E8FEF08958AE38093E800DB
:102B00001092A5109FBF80E00895CF93C82F8295A3
:102B10008F708A3050F097E3890FA3DFCF70CA30EF
:102B200050F087E38C0FCF919CCF90E3890F99DF12
:102B3000CF70CA30B0F780E38C0FCF9192CF1F9344
:102B4000CF93DF93EC012196FC011491111108C081
:102B50000CC0812F86DFFE0121961491112329F0EC
:102B60001A30B9F78DE07DDFF4CFDF91CF911F915F
:102B700008955AE05A95F1F700C046EC41BB30EC9D
:102B800038B980EE87B997E09AB98DB915B880E465
:102B900088B91BB880E28EB987E481BB00C000C051
:102BA00026B199B18CB141BB38B937EE37B937EF9F
:102BB0003AB932EE3DB9422F4695437050E8259F11
:102BC00090011124422B292F2071422B292F269569
:102BD00026952870422B96959076492B90E0880F89
:102BE000991F84709927842B0895982F9695969510
:102BF000969528E030E001C0220F9A95EAF72095DB
:102C0000287F8770282BBFB7F894E6ECE1BBF0EC87
:102C1000F8B9872F9927382F3695A32FA695532FCC
:102C200056705068307C80729927382B9A2F90719B
:102C30009260392B8A2F86958270806258B93BB991
:102C40008EB957E851BB00C000C0E1BB76956795CF
:102C500076956795962FA62FAA0F362F3695991F32
:102C60009927991F8A2F8670982B90686071772713
:102C700062608A2F880F8072862BA07C8A2B32702C
:102C800098B98BB93EB951BBE1BBF8B9622F660F59
:102C9000922F9695322F331F3327331F862F86703E
:102CA000382B30642071862F880F8072822B607CD5
:102CB000862B9270906A21E025B938B98BB99EB9FC
:102CC00051BBE1BBF8B925B987E488B980EF8BB96E
:102CD00082EA8EB951BB442321F085E38A95F1F74E
:102CE0000000BFBF0895AF92BF92CF92DF92EF92E4
:102CF000FF920F931F93CF93DF93E0E1FCE070E02E
:102D000048E050E0B6ECC0ECA7E8D1E087E4F82E4C
:102D100090EFA92E22EAD22E81919191272F26950C
:102D2000269526958A0102C0000F111F2A95E2F709
:102D3000602F6095687F272F2770622BEFB6F8947D
:102D4000B1BBC8B9292F3327122F1695B12EB694CF
:102D5000012F06700068107C20723327122B3B2D48
:102D600030713260132B2B2D26952270206208B90A
:102D70001BB92EB9A1BB00C000C0B1BB9695879509
:102D800096958795282F182F110F382F3695221FCB
:102D90002227221F06E0C02EC1222C292068807124
:102DA00099278260912F990F9072982B812F807CA8
:102DB000982B327028B99BB93EB9A1BBB1BBC8B939
:102DC000262F220F962F9695362F331F3327331F2A
:102DD000822F8670382B30646071822F880F80724A
:102DE000862B207C822B9270906AD5B938B98BB92A
:102DF0009EB9A1BBB1BBC8B9D5B9F8B8ABB8DEB8FC
:102E0000A1BB15E31A95F1F70000EFBE7F5F7032AA
:102E100009F082CF8091500C96EC91BB90EC98B960
:102E2000382F330F982F9695232F26702064482F24
:102E3000441F4427441F242B482F4071832F880FA1
:102E40008072842B307C832B9270906631E035B990
:102E500028B98BB99EB987E881BBDF91CF911F91CB
:102E60000F91FF90EF90DF90CF90BF90AF900895BB
:102E7000FC0126893789468D578DAA27429FB12D9F
:102E8000539FC001349FB00D811D9A1F529FB00DFA
:102E9000811D9A1F112480A391A340955095AA27C4
:102EA000429FB12D539FC001349FB00D811D9A1FC9
:102EB000529FB00D811D9A1F112482A393A34085B8
:102EC000518562857385408351836283738308953E
:102ED000AC01AA27469FB12D579F9001749FB00D5A
:102EE000211D3A1F569FB00D211D3A1F1124C90103
:102EF000089586EC81BB80EC88B915B880E488B968
:102F00001BB880E28EB987E881BB8AE08A95F1F729
:102F100000C00895CF93DF932CDEC82FD0E029DEC8
:102F2000382F20E0C22BD32BE4DFE3DF9E01209576
:102F30003095265F3F4FC901DF91CF910895CF9320
:102F4000882309F46DC08091FE0E8F5F8093FE0E82
:102F5000853148F081E09091FF0E9111DEC08093A1
:102F6000FF0E1092FE0E8091000F8F5F8093000F76
:102F70008D3008F446C0C091020FCC2309F441C043
:102F8000E7E0FFE001900020E9F7E850FF402091E2
:102F9000010F332727FD3095C90101966E2F772742
:102FA00067FD70950E948044E82FFF27E7FDF095AC
:102FB000E850F14F9785F901E850F14F478550E00F
:102FC0004038510508F0BCC0FA01EC5FFA4F20818F
:102FD0002093FC0E292F30E02038310508F0AEC0D8
:102FE000F901EC5FFA4F90819093FD0E8093010FF1
:102FF0001092000F811105C01C161CF4C150C09323
:10300000020FE091030FE13009F47CC008F46FC0B7
:10301000E23009F488C020E0F0E0E850F14F248766
:10302000AFB7F89466EC61BB50EC58B941E045B9D4
:1030300080E488B91BB880E28EB937E831BB00C0A4
:1030400000C080E190E00090030F02C0880F991F3C
:103050000A94E2F7282F61BB58B9E82FEE0F782FBA
:103060007695221F2227221F9E2F9670292B2064DF
:1030700080719E2F990F9072982BE07C9E2B72701E
:1030800045B928B99BB97EB931BB00C000C0E091F9
:10309000030FF0E0E850F14F848561BB58B9582F19
:1030A000550F982F9695252F26702064682F661F40
:1030B0006627661F262B682F6071852F880F807208
:1030C000862B507C852B9270906245B928B98BB9BC
:1030D0009EB931BBAFBF8091030F90E0019663E0D2
:1030E00070E00E9480448093030FCF910895209157
:1030F000F80E8091FF0E882309F48ECF8091FA0E8E
:1031000028278ACF2091FC0E2F778091F80E90917E
:10311000F90E91FF81CF20687FCF80E08093FF0E72
:103120001092FE0E20CF2091FD0E2F778091F80E89
:103130009091F90E90FF70CF20686ECF9FEF54CF23
:103140002FEF46CF8091F70E8F73A9F4E091A11075
:10315000E63008F4AAC0EC3008F097C08FE78093FF
:10316000FC0EE55DF0E0EC5FFA4F80818093FD0E90
:1031700081E0E5DEB8DD4091A110E42FF0E0EE0F34
:10318000FF1FE05FF34F20813181542F56955695F4
:10319000569588E090E001C0880F5A95EAF780952F
:1031A000887F4770842BAFB7F89476EC71BBE0EC66
:1031B000E8B9432F5527642F6695962F9695F62FDD
:1031C000F670F068607C40725527642B492F40717F
:1031D0004260642B969592709062F8B96BB99EB973
:1031E00057E851BB00C000C071BB36952795369596
:1031F0002795422FF22FFF0F622F6695441F442719
:10320000441F9F2F9670492B4068207133272260FE
:103210009F2F990F9072922BF07C9F2B627048B970
:103220009BB96EB951BB71BBE8B9482F440F282F29
:103230002695382F331F3327331F942F9670392B41
:1032400030648071942F990F9072982B407C942B4E
:103250002270206A81E085B938B99BB92EB951BB7B
:1032600071BBE8B985B987E488B980EF8BB982EA88
:103270008EB951BB85E38A95F1F70000AFBF80910D
:10328000F70E8F5F8093F70E0895EB5D81E78093D3
:10329000FC0E8E2F90E08038910560F4FC01EC5F0D
:1032A000FA4F80818093FD0E63CF87E78093FC0EF9
:1032B000EF5C58CF8FEFF6CF6F927F928F929F92F5
:1032C000AF92BF92CF92DF92EF92FF920F931F9334
:1032D000CF93DF93C0E1D7E2E6EC6E2EF0EC7F2EC9
:1032E000A0EE8A2EB7E09B2EAA24A39410E4B12E60
:1032F00000E2C02E87E4D82E97EEE92E27EFF22EBB
:1033000002EE03C0209709F442C01CDF61BA78B80E
:1033100087B89AB88DB8A5B8B8B81BB8CEB8D1BA26
:1033200000C000C046B189B12CB1142F169513709E
:1033300090E8499FA0011124142B982F9071192B0C
:10334000982F969596959870192B86958076182BC0
:1033500030E0220F331F24703327122B61BA78B864
:10336000E7B8FAB80DB9219711FFCCCFCD2B79F082
:10337000DF91CF911F910F91FF90EF90DF90CF9051
:10338000BF90AF909F908F907F906F90089588E34B
:1033900091E0D5DB8091A310B8DB812FB6DB80E50F
:1033A00091E0DF91CF911F910F91FF90EF90DF900F
:1033B000CF90BF90AF909F908F907F906F90BFCB3A
:1033C0006F927F928F929F92AF92BF92CF92DF9235
:1033D000EF92FF920F931F93CF93DF93C0E1D7E259
:1033E00056EC652E60EC762E70EE872EE7E09E2E72
:1033F000AA24A394F0E4BF2EA0E2CA2EB7E4DB2EE9
:1034000017EEE12E07EFF02E02EE03C0209709F42D
:1034100042C098DE61BA78B887B89AB88DB8A5B8B6
:10342000B8B81BB8CEB8D1BA00C000C046B189B197
:103430002CB1142F1695137090E8499FA001112408
:10344000142B982F9071192B982F9695969598700C
:10345000192B86958076182B30E0220F331F2470AD
:103460003327122B61BA78B8E7B8FAB80DB92197AB
:1034700011FDCCCFCD2B79F0DF91CF911F910F9122
:10348000FF90EF90DF90CF90BF90AF909F908F9084
:103490007F906F90089588E391E051DB8091A310B5
:1034A00034DB812F32DB80E591E0DF91CF911F91FA
:1034B0000F91FF90EF90DF90CF90BF90AF909F90D3
:1034C0008F907F906F903BCB982F96959695969581
:1034D00028E030E001C0220F9A95EAF72095287F76
:1034E0008770282BAFB7F89456EC51BBE0ECE8B9E5
:1034F000872F9927382F3695F32FF695432F46704F
:103500004068307C80729927382B9F2F9071926091
:10351000392B8F2F86958270806248B93BB98EB95E
:1035200047E841BB00C000C051BB769567957695D2
:103530006795962FF62FFF0F362F3695991F9927EF
:10354000991F8F2F8670982B906860717727626023
:103550008F2F880F8072862BF07C8F2B327098B95A
:103560008BB93EB941BB51BBE8B9622F660F922FB0
:103570009695322F331F3327331F862F8670382BB3
:1035800030642071862F880F8072822B607C862B9E
:103590009270906A21E025B938B98BB99EB941BBC8
:1035A00051BBE8B925B987E488B980EF8BB982EAC5
:1035B0008EB941BBAFBF08958091C00E880F8F5F59
:1035C0009091A50B92959170890F8093730E8091C5
:1035D000C20E880F8093710EA091720E20916B0E17
:1035E00030916C0E40E050E004C0220F331F441FA6
:1035F000551F8A95D2F7BB27A1950CF4B095AA0F59
:10360000BB1F11960E941C496093650E7093660E55
:103610008093670E9093680E089586EC81BB80ECD2
:1036200088B915B880E488B91BB88EB987E881BB22
:103630008AE08A95F1F700C0089586EC81BB80ECA2
:1036400088B915B882E488B91BB880E48EB987E8D8
:1036500081BB8AE08A95F1F700C00895AF92BF92CE
:10366000CF92DF92EF92FF920F931F93CF93DF934E
:10367000062F9BEA899FA12C1124A694A694A694B8
:103680006A2D70E0683071050CF06FC0A394B12C06
:1036900010E09B01220F331FF901EE0FFF1FEE0F09
:1036A000FF1FEE0FFF1FE20FF31FE00FF11FEE0FE2
:1036B000FF1FE75CF04FC081D1819BEA899F912D6C
:1036C0001124969596959695692F660F690F660F4A
:1036D000660F861B682F70E080E090E00E94A9458D
:1036E0002BEA3AEA4AEA5DE30E94DB466B017C0181
:1036F000AA0CBB1CF501EE0FFF1FEE0FFF1FEE0F14
:10370000FF1FEA0DFB1DE00FF11FEE0FFF1FE75C2F
:10371000F04F608171816C1B7D0B80E090E00E9416
:10372000A7459B01AC01C701B6010E94DB466B01B6
:103730007C01BE0180E090E00E94A7459B01AC01A6
:10374000C701B6010E94A8440E948A470E947B4597
:103750006C7FCB01DF91CF911F910F91FF90EF9084
:10376000DF90CF90BF90AF90089539E0A32EB12C99
:103770008FCFE82FF0E0EE0FFF1FE75CF04F608186
:10378000718180E090E00E94A7450E948A470E94D4
:103790007B456C7FCB0108952F923F924F925F92B1
:1037A0006F927F928F929F92AF92BF92CF92DF9251
:1037B000EF92FF920F931F93CF93DF93CDB7DEB7B6
:1037C0002E970FB6F894DEBF0FBECDBF0091D50B7C
:1037D00010E0005811098091F40B9091F50B880FBF
:1037E000892F881F990B91959C013A953A872987D3
:1037F000C090B80BD090B90BE12CF12C8090F30B5A
:10380000869486949090F10B969496947090BE0E48
:103810006090F40E30910B0C3B837091FC0B809107
:10382000F60B87FF37C07091FD0B8091F70B87FF78
:10383000DDC07091FE0B8091F80B87FF83C1709102
:10384000FF0B8091F90B87FF29C27091000C8091CA
:10385000FA0B87FFCFC27091010C8091FB0B87FFA1
:1038600075C32E960FB6F894DEBF0FBECDBFDF91A5
:10387000CF911F910F91FF90EF90DF90CF90BF906D
:10388000AF909F908F907F906F905F904F903F9000
:103890002F9008951801442437FC4094542C209113
:1038A000CA0E3091CB0EC901AA2797FDA095BA2F59
:1038B000820D931DA41DB51D8B879C87AD87BE8788
:1038C00060E0882D870F7887C9DE2B853C854D8584
:1038D0005E85280F391F411D511DDA01C901788508
:1038E00057FDE9C5009731E0A307B1050CF001C40D
:1038F0009A8389832091D60E3091D70E442737FDC5
:103900004095542F220D331D441D551D29843A84A2
:10391000C101AA2797FDA095BA2F280F391F4A1F6A
:103920005B1F66E0892D870F2C833D834E835F8369
:10393000788794DE2C813D814E815F8119012A01B7
:10394000280E391E411C511CD201C101788557FC3B
:10395000AEC5009721E0A207B1050CF0C5C35C011C
:1039600077FCC9C42091E20E3091E30E442737FD65
:103970004095542F2C0D3D1D4E1D5F1D6CE0872F73
:103980002C833D834E835F8369DE072C02C09695AE
:1039900087950A94E2F72C813D814E815F81190160
:1039A0002A01280E391E411C511CD201C10157FCAD
:1039B000BAC5009721E0A207B1050CF09FC39C0196
:1039C0006110FCC349815A815093750E4093740E67
:1039D000B092810EA092800E30938D0E20938C0EAB
:1039E0007091FD0B8091F70B87FD23CF18014424C4
:1039F00037FC4094542C2091CC0E3091CD0EC9014F
:103A0000AA2797FDA095BA2F820D931DA41DB51D61
:103A10008B879C87AD87BE8761E0872F880D78876D
:103A20001DDE2B853C854D855E85280F391F411D88
:103A3000511DDA01C901788557FD65C5009731E050
:103A4000A307B1050CF023C39A8389832091D80E74
:103A50003091D90E442737FD4095542F220D331D48
:103A6000441D551D29843A84C101AA2797FDA095BC
:103A7000BA2F280F391F4A1F5B1F67E0872F890D58
:103A80002C833D834E835F837887E8DD2C813D81E5
:103A90004E815F8119012A01280E391E411C511CDB
:103AA000D201C101788557FC2AC5009721E0A20701
:103AB000B1050CF0E7C25C0177FCCDC42091E40EA7
:103AC0003091E50E442737FD4095542F2C0D3D1DB8
:103AD0004E1D5F1D6DE0872F2C833D834E835F83DA
:103AE000BDDD072C02C0969587950A94E2F72C81DC
:103AF0003D814E815F8119012A01280E391E411C2A
:103B0000511CD201C10157FC06C5009721E0A20754
:103B1000B1050CF0F8C29C01611060C349815A8163
:103B20005093770E4093760EB092830EA092820E41
:103B300030938F0E20938E0E7091FE0B8091F80BB8
:103B400087FD7DCE1801442437FC4094542C2091ED
:103B5000CE0E3091CF0EC901AA2797FDA095BA2F9E
:103B6000820D931DA41DB51D8B879C87AD87BE87D5
:103B700062E0872F880D788771DD2B853C854D8528
:103B80005E85280F391F411D511DDA01C901788555
:103B900057FDB1C4009731E0A307B1050CF081C215
:103BA0009A8389832091DA0E3091DB0E442737FD0A
:103BB0004095542F220D331D441D551D29843A84F0
:103BC000C101AA2797FDA095BA2F280F391F4A1FB8
:103BD0005B1F68E0872F890D2C833D834E835F83B5
:103BE00078873CDD2C813D814E815F8119012A015E
:103BF000280E391E411C511CD201C101788557FC89
:103C000076C4009721E0A207B1050CF045C25C0123
:103C100077FC9DC32091E60E3091E70E442737FDD7
:103C20004095542F2C0D3D1D4E1D5F1D6EE0872FBE
:103C30002C833D834E835F8311DD072C02C0969554
:103C400087950A94E2F72C813D814E815F811901AD
:103C50002A01280E391E411C511CD201C10157FCFA
:103C600056C4009721E0A207B1050CF05BC29C018D
:103C7000611062C249815A815093790E4093780E47
:103C8000B092850EA092840E3093910E2093900EE8
:103C90007091FF0B8091F90B87FDD7CD180144245B
:103CA00037FC4094542C2091D00E3091D10EC90194
:103CB000AA2797FDA095BA2F820D931DA41DB51DAF
:103CC0008B879C87AD87BE8763E0872F880D7887B9
:103CD000C5DC2B853C854D855E85280F391F411D30
:103CE000511DDA01C901788557FDFDC3009731E008
:103CF000A307B1050CF0DFC19A8389832091DC0E04
:103D00003091DD0E442737FD4095542F220D331D91
:103D1000441D551D29843A84C101AA2797FDA09509
:103D2000BA2F280F391F4A1F5B1F69E0872F890DA3
:103D30002C833D834E835F83788790DC2C813D818B
:103D40004E815F8119012A01280E391E411C511C28
:103D5000D201C101788557FCC2C3009721E0A207B8
:103D6000B1050CF0A3C15C0177FC49C32091E80EBA
:103D70003091E90E442737FD4095542F2C0D3D1D01
:103D80004E1D5F1D6FE0872F2C833D834E835F8325
:103D900065DC072C02C0969587950A94E2F72C8182
:103DA0003D814E815F8119012A01280E391E411C77
:103DB000511CD201C10157FCB2C3009721E0A207F8
:103DC000B1050CF0A5C19C01611029C249815A813D
:103DD00050937B0E40937A0EB092870EA092860E7F
:103DE0003093930E2093920E7091000C8091FA0BF9
:103DF00087FD31CD1801442437FC4094542C209188
:103E0000D20E3091D30EC901AA2797FDA095BA2FE3
:103E1000820D931DA41DB51D8B879C87AD87BE8722
:103E200064E0872F880D788719DC2B853C854D85CC
:103E30005E85280F391F411D511DDA01C9017885A2
:103E400057FD49C3009731E0A307B1050CF03DC110
:103E50009A8389832091DE0E3091DF0E442737FD4F
:103E60004095542F220D331D441D551D29843A843D
:103E7000C101AA2797FDA095BA2F280F391F4A1F05
:103E80005B1F6AE0872F890D2C833D834E835F8300
:103E90007887E4DB2C813D814E815F8119012A0105
:103EA000280E391E411C511CD201C101788557FCD6
:103EB0000EC3009721E0A207B1050CF001C15C011F
:103EC00077FC71C22091EA0E3091EB0E442737FD4A
:103ED0004095542F2C0D3D1D4E1D5F1D60E1872F19
:103EE0002C833D834E835F83B9DB072C02C09695FC
:103EF00087950A94E2F72C813D814E815F811901FB
:103F00002A01280E391E411C511CD201C10157FC47
:103F100012C3009721E0A207B1050CF008C19C0173
:103F200061102BC149815A8150937D0E40937C0EC4
:103F3000B092890EA092880E3093950E2093940E25
:103F40007091010C8091FB0B87FD8BCC18014424F0
:103F500037FC4094542C2091D40E3091D50EC901D9
:103F6000AA2797FDA095BA2F820D931DA41DB51DFC
:103F70008B879C87AD87BE8765E0872F880D788704
:103F80006DDB2B853C854D855E85280F391F411DD6
:103F9000511DDA01C901788557FD95C2009731E0BE
:103FA000A307B1050CF09BC08C012091E00E30916D
:103FB000E10E442737FD4095542F220D331D441D3B
:103FC000551D29843A84C101AA2797FDA095BA2FCF
:103FD000280F391F4A1F5B1F6BE0872F890D2C8329
:103FE0003D834E835F83788739DB2C813D814E8111
:103FF0005F8149015A01880E991EA11CB11CD5018F
:10400000C4017885B7FC5BC2009721E0A207B10527
:104010000CF060C02C0177FC42C12091EC0E309175
:10402000ED0E4901AA2497FCA094BA2C8C0C9D1C7F
:10403000AE1CBF1C61E1872F11DB02C096958795EE
:104040007A94E2F775016401C80ED91EE11CF11CD7
:10405000D701C601F7FC6BC2009721E0A207B105AA
:104060000CF05BC09C016110FBC010937F0E0093AD
:104070007E0E50928B0E40928A0E3093970E2093B4
:10408000960EEFCB8FEF9FEFA0E0B0E014CD8FEF57
:104090009FEFA0E0B0E0D8CC8FEF9FEFA0E0B0E0C2
:1040A000B6CD8FEF9FEFA0E0B0E07ACD8FEF9FEF1E
:1040B000A0E0B0E058CE8FEF9FEFA0E0B0E01CCEC4
:1040C0008FEF9FEFA0E0B0E0FACE8FEF9FEFA0E080
:1040D000B0E0BECE8FEF9FEFA0E0B0E09BCF8FEFC0
:1040E0009FEFA0E0B0E060CF8FEF9FEFA0E0B0E0E7
:1040F00036CC8FEF9FEFA0E0B0E0FACB8FEF9FEFD1
:10410000A0E0B0E05CCC8FEF9FEFA0E0B0E003CD8B
:104110008FEF9FEFA0E0B0E056CE8FEF9FEFA0E0D3
:10412000B0E0A0CF8FEF9FEFA0E0B0E0A0CD8FEF89
:104130009FEFA0E0B0E0F3CE5B8129803A8053305E
:1041400079F0543069F030929D0E20929C0EB0921E
:10415000A90EA092A80E3093B50E2093B40E6FCB8B
:104160003092990E2092980EB092A50EA092A40EB5
:104170003093B10E2093B00E62CB5B8129803A80E0
:10418000533079F0543069F03092A10E2092A00E95
:10419000B092AD0EA092AC0E3093B90E2093B80E33
:1041A0005ACB3092990E2092980EB092A50EA09202
:1041B000A40E3093B10E2093B00E4DCB5B812980BD
:1041C0003A803092990E2092980EB092A50EA0924D
:1041D000A40E3093B10E2093B00E25CB5B812980C5
:1041E0003A80533079F0543069F030929B0E20922F
:1041F0009A0EB092A70EA092A60E3093B30E209303
:10420000B20E17CB3092990E2092980EB092A50E56
:10421000A092A40E3093B10E2093B00E0ACB5B8116
:1042200029803A80533079F0543069F030929F0EF3
:1042300020929E0EB092AB0EA092AA0E3093B70EB3
:104240002093B60E02CB3092990E2092980EB09227
:10425000A50EA092A40E3093B10E2093B00EF5CA15
:104260004B81433079F0443069F01093A30E0093F2
:10427000A20E5092AF0E4092AE0E3093BB0E209322
:10428000BA0EEFCA1093990E0093980E5092A50E95
:104290004092A40E3093B10E2093B00EE2CA40912A
:1042A000EC0E5091ED0E662757FD6095762F4C0D64
:1042B0005D1D6E1D7F1D81E14E835F836C8378875A
:1042C00058DA4E815F816C8178854A015B01880EE6
:1042D000991EA11CB11CD501C401B7FC5AC100979D
:1042E00021E0A207B1050CF039C19C019093970E13
:1042F0008093960EB8CE4091E20E5091E30E662761
:1043000057FD6095762F4C0D5D1D6E1D7F1D8CE059
:104310004E835F836C8378872CDA4E815F816C815A
:1043200078851A012B01280E391E411C511CD2011F
:10433000C10157FC26C1009721E0A207B1050CF08E
:1043400017C19C0190938D0E80938C0E39CB4091B8
:10435000E60E5091E70E662757FD6095762F4C0DBF
:104360005D1D6E1D7F1D8EE04E835F836C8378879D
:1043700000DA4E815F816C8178851A012B01280E4D
:10438000391E411C511CD201C10157FCF6C00097D7
:1043900021E0A207B1050CF0E6C09C019093910EBC
:1043A0008093900E65CC4091EA0E5091EB0E6627FB
:1043B00057FD6095762F4C0D5D1D6E1D7F1D80E1B4
:1043C0004E835F836C837887D4D94E815F816C8103
:1043D00078851A012B01280E391E411C511CD2016F
:1043E000C10157FCDEC0009721E0A207B1050CF027
:1043F000ABC09C019093950E8093940E91CD40910B
:10440000E80E5091E90E662757FD6095762F4C0D0A
:104410005D1D6E1D7F1D8FE04E835F836C837887EB
:10442000A8D94E815F816C8178851A012B01280EF5
:10443000391E411C511CD201C10157FCAEC000976E
:1044400021E0A207B1050CF07AC09C019093930E75
:104450008093920EB9CC4091E40E5091E50E662700
:1044600057FD6095762F4C0D5D1D6E1D7F1D8DE0F7
:104470004E835F836C8378877CD94E815F816C81AA
:1044800078851A012B01280E391E411C511CD201BE
:10449000C10157FC7AC0009721E0A207B1050CF0DA
:1044A00058C09C0190938F0E80938E0E35CB80E088
:1044B00090E0DC014ECA80E090E0DC0113CA80E0AD
:1044C00090E0DC01A1CD80E090E0DC0167CD80E0F0
:1044D00090E0DC01EECC80E090E0DC01B3CC80E049
:1044E00090E0DC013ACC80E090E0DC01FFCB80E0A2
:1044F00090E0DC0186CB80E090E0DC014BCB80E0FB
:1045000090E0DC01D2CA80E090E0DC0197CA80E054
:1045100090E0DC01A6CB80E090E0DC01F6CA80E010
:1045200090E0DC014ACC80E090E0DC0142CA80E00F
:1045300090E0DC0191CD80E090E0DC01EACC8FEFEF
:104540009FEFA0E0B0E081CF8FEF9FEFA0E0B0E061
:1045500050CF8FEF9FEFA0E0B0E0A3CF8FEF9FEFA2
:10456000A0E0B0E0C2CE8FEF9FEFA0E0B0E015CFAB
:104570008FEF9FEFA0E0B0E0E4CE80E090E0DC01C0
:1045800006CF80E090E0DC01D6CE80E090E0DC0158
:1045900082CF80E090E0DC01A2CE80E090E0DC0100
:1045A0004ECF80E090E0DC011ECFCF93DF9300D0B0
:1045B000CDB7DEB74A836983EFD880910B0C4A816F
:1045C0006981882319F140E050E08CE2849FF0017A
:1045D000859FF00D1124EF5AF34F87A1681719F04A
:1045E00060A781E081A78CE2849FF001859FF00D98
:1045F0001124E75AF24F87A1681719F060A781E0EC
:1046000081A70F900F90DF91CF910895552747FD17
:104610005095DBCF90910B0C91110CC087FD24C0FD
:10462000E82FFF27E7FDF095EA50F44F8FEF8083E6
:10463000868308958FEF8093F60B8093FC0B809315
:10464000F70B8093FD0B8093F80B8093FE0B809308
:10465000F90B8093FF0B8093FA0B8093000C8093EF
:10466000FB0B8093010C08958F3F29F3089586E199
:10467000E6EFFBE0DF011D928A95E9F78FEFCADFD5
:1046800048E050E06FEF70E082E09CE00C94AA48B4
:10469000CF938091A60B90E0880F892F881F990BEC
:1046A000892B29F4E4DF10920B0CCF910895C0916F
:1046B000BF0EDDDFC0930B0CCF910895942F87FDC3
:1046C0000FC0E82FFF27E7FDF095EA50F44F608315
:1046D00046839F3F21F0482F622F892F66CF089590
:1046E0008F3FB9F76093F60B4093FC0B6093F70B89
:1046F0004093FD0B6093F80B4093FE0B6093F90B16
:104700004093FF0B6093FA0B4093000C6093FB0BFC
:104710004093010CDECF0F931F93CF93DF93C82FED
:1047200080910B0C81116FC0662309F4C0C1809188
:10473000F60B9091FC0BC91709F40EC387FD0CC34F
:1047400088300CF060C15091F70B9091FD0BC917A8
:1047500009F406C357FD04C358170CF059C141E0D2
:104760006091F80B8091FE0BC81709F4FFC267FD3A
:10477000FDC265170CF05DC142E05091F90B8091CC
:10478000FF0BC81709F4F6C257FDF4C256170CF018
:1047900060C143E06091FA0B8091000CC81709F4E6
:1047A000EDC267FDEBC265170CF063C144E0809178
:1047B000FB0B9091010CC91709F4E4C287FDE2C21A
:1047C00086170CF066C145E0E42FFF27E7FDF09562
:1047D00020910A0C822F992787FD9095019666E01B
:1047E00070E00E94804480930A0CEA50F44F80836A
:1047F000C683CF3F09F4B3C161E08C2FDF91CF9125
:104800001F910F91D2CE9091020C662309F4D3C070
:104810009F3F09F4BEC22091030C2F3F09F4CEC282
:104820003091040C3F3F09F4CFC24091050C4F3F3B
:1048300009F4D0C25091060C5F3F09F443C2709155
:10484000070C7F3F09F4C9C2E091080CEF3F09F45F
:10485000CAC2F091090CFF3F09F4CBC2A82FA350A4
:10486000843009F41FC2813009F486C1823009F412
:10487000D4C1833009F480C19F3F09F44EC2B1E036
:10488000D1E02F3F09F447C21B2F1D2309F0292F28
:104890000B2F0F5F81E08B278D23812B09F4B7C18C
:1048A000802F922FB1E03F3F09F433C2D1E0811154
:1048B00001C0D0E0DB2309F0392F282F2F5F11E052
:1048C000811110E0B123BD2B09F49FC1822FB1E00B
:1048D0004F3F09F41CC2D1E0811101C0D0E0DB23BD
:1048E00009F0432F982F9F5F11E0811110E0B12351
:1048F000BD2B09F488C1892F91E05F3F09F405C2FF
:1049000021E0811101C020E0292309F0542F382F24
:104910003F5FB1E08111B0E09B23922B09F471C19C
:10492000832F91E07F3F09F4EEC121E0811101C0A6
:1049300020E0292309F0752F482F4F5F31E08111C6
:1049400030E09323922B09F466C1842F91E0EF3F6E
:1049500009F4D7C121E0811101C020E0292309F029
:10496000E72F482F4F5F31E0811130E09323922BE6
:1049700009F44FC1842F91E0FF3F09F4C0C121E049
:10498000811101C020E0292309F439C1DE2F482F0D
:104990004F5F31E0811130E09323922B09F0842F97
:1049A000992309F4CCC08111CEC0A23008F436C2DC
:1049B00020E08FEFCDC09C1709F4E8C12091030CD3
:1049C0002C1709F4F8C13091040C3C1709F4F9C113
:1049D0004091050C4C1709F4FAC15091060C5C1774
:1049E00009F486C17091070C7C1709F4F9C1E091B4
:1049F000080CEC1709F4FAC1F091090CFC132ECF46
:104A0000E7E0F0E077C18F300CF09DCE88E09BCEE0
:104A1000652F772767FD7095282F332727FD309561
:104A20002A5F3F4F261737070CF499CE582F40E0E6
:104A300097CE862F992787FD9095252F332727FD21
:104A400030952A5F3F4F281739070CF495CE652F14
:104A500094CE852F992787FD9095262F332727FD04
:104A600030952A5F3F4F281739070CF492CE562F06
:104A700091CE862F992787FD9095252F332727FDE7
:104A800030952A5F3F4F281739070CF48FCE652FDA
:104A90008ECE992787FD9095262F332727FD3095B9
:104AA0002A5F3F4F281739070CF48DCE8DCE6091C9
:104AB000F60B67FD05C08091FC0BC81709F49CC17B
:104AC0006091F70B67FD05C08091FD0BC81709F4D5
:104AD00095C16091F80B67FD05C08091FE0BC8176A
:104AE00009F490C16091F90B67FD05C08091FF0B3F
:104AF000C81709F485C16091FA0B67FD05C0809164
:104B0000000CC81709F480C16091FB0B67FD05C05C
:104B10008091010CC81709F479C182E591E00E94E7
:104B20009F156091F40B8EEF6095661F6627661FD8
:104B300020E04C2FDF91CF911F910F91BFCDDE2F41
:104B4000882309F432CFA23078F0CD2F21E08FEF07
:104B50004C2F60E0DF91CF911F910F91AFCDDF918E
:104B6000CF911F910F910895813009F4D8C08091A1
:104B70000A0CCD2F21E0ECCF9F3F09F449C12F3F14
:104B800009F4E8C0921708F0922F81E08F5F3F3F51
:104B900009F4CCC0882319F0931708F4392F8F5FDC
:104BA0004F3F09F4CBC0882319F0341708F4432F82
:104BB0008F5F5F3F09F4C0C0882319F0451708F4E0
:104BC000542F8F5F7F3F09F4B5C0882319F0571722
:104BD00008F4752F8F5FEF3F09F4AAC0882319F0FE
:104BE0007E1708F4E72F8F5FDF2FFF3F09F4A7CF71
:104BF000882319F0EF1708F452C08F5FD4CEDF2F4F
:104C0000C6CE542F8ECE432F77CE392F60CE8B2F2A
:104C100049CEE72FB0CE752F99CE9F3F09F44CC0F7
:104C20002F3F09F4A1C0291708F0922F81E08F5F70
:104C30003F3F09F48DC0882319F0391708F4392F44
:104C40008F5F4F3F09F482C0882319F0431708F49F
:104C5000432F8F5F5F3F09F477C0882319F0541703
:104C600008F4542F8F5F7F3F09F46CC0882319F03C
:104C7000751708F4752F8F5FEF3F09F461C0882323
:104C800019F0E71708F4E72F8F5FDF2FFF3F09F4D4
:104C900056CF882309F4B1CFFE1708F0AECFDE2F30
:104CA0008F5F81CE9F3F41F02F3F09F45DC02917F0
:104CB00008F4BCCF922FBACF922F80E02F3F09F09B
:104CC000B6CFB6CFE4E0F0E0EA50F44FC48790915D
:104CD000020C2091030C3091040C4091050C509172
:104CE000060C7091070CE091080CF091090CB6CD00
:104CF000E4E0F0E0EA50F44F9FEF9487E8CF90E0D3
:104D00003ECE90E027CE90E010CE90E0F9CDB0E01E
:104D1000E2CDB0E0CBCDD0E0B7CDB0E0B1CD809169
:104D20000A0C611139C0CD2F21E012CF392F38CFB5
:104D3000E72F5ACF752F4FCF542F44CF432F39CF62
:104D4000E72FA3CF752F98CF542F8DCF432F82CF2E
:104D5000392F77CF81E01BCF40E0E0E0F0E038CDA5
:104D600041E0E1E0F0E034CD81E062CF42E0E2E01A
:104D7000F0E02ECD43E0E3E0F0E02ACD44E0E4E0D3
:104D8000F0E026CD45E0E5E0F0E022CDE0E0F0E027
:104D9000B1CFE0E0F0E098CF3DDC80910A0C99279C
:104DA00087FD9095019666E070E00E948044282F70
:104DB00020930A0CB8CFE1E0F0E09CCFE1E0F0E016
:104DC00083CFE2E0F0E096CFE2E0F0E07DCFE3E0F9
:104DD000F0E090CFE3E0F0E077CFE5E0F0E074CFF3
:104DE000E5E0F0E087CFE6E0F0E06ECFE6E0F0E06F
:104DF00081CFE7E0F0E068CF80E096CE81E094CE0E
:104E000083E092CE82E090CE84E08ECE85E08CCEA0
:104E1000922F80E02F3F09F0B9CEB9CE80910A0CD5
:104E200020E096CE6095E4EAF0E19081982B69232A
:104E3000608386EC81BB80EC88B9362F330F962FC8
:104E40009695262F221F2227221F832F8670282B1C
:104E500020646071832F880F8072862B307C832BB7
:104E60009270906C31E035B928B98BB99EB987E85A
:104E700081BB85E08A95F1F70000E3EAF0E18081EB
:104E80008F5F808308956093020F0097A9F01092BE
:104E9000010FBC0188E09FE00E94B148E7E0FFE01D
:104EA00001900020E9F7E850FF40E95FF04F80E211
:104EB00090E09183808308958FEF8093010F089590
:104EC0008F929F92AF92BF92EF92FF920F931F9398
:104ED000CF93DF93EC0189A5811110C0EBA5E111FF
:104EE00044C01DA21CA2DF91CF911F910F91FF9092
:104EF000EF90BF90AF909F908F9008951C821D827D
:104F00001E821F820E891F896CA17DA1CB01A0E0AA
:104F1000B0E077276627980140E050E00E944949B9
:104F2000B9013F8F2E8F28A5211175C084E08BA772
:104F300019A218A2AA27609FB12D719FC001169FC8
:104F4000B00D811D9A1F709FB00D811D9A1F1124F5
:104F50008AA39BA388899989AA89BB898883998315
:104F6000AA83BB83E4E02FA319A64C815D816E81E7
:104F70007F81872F9927AA27BB27892B8A2B8B2BE9
:104F800009F02FC088809980AA80BB80E23009F4A4
:104F900075C008F06EC0E13009F47FC080E090E099
:104FA000EAA0FBA08C019701AA27029FB12D139FB5
:104FB000F001309FB00DE11DFA1F129FB00DE11DF1
:104FC000FA1F112488A199A1E80FF91FFDA3ECA3F2
:104FD000480D591D6A1D7B1D4C835D836E837F8345
:104FE00082CF1C821D821E821F82188219821A8221
:104FF0001B82EF5FEBA7E33009F457C0E53009F4FB
:1050000047C0E23009F458C0812C912C540140E093
:1050100050E0BA01BBCF81E08BA7AA27609FB12DDA
:10502000719FC001169FB00D811D9A1F709FB00D1A
:10503000811D9A1F112488A399A360957095AA27B2
:10504000609FB12D719FC001169FB00D811D9A1FE9
:10505000709FB00D811D9A1F11248AA39BA3888580
:105060009985AA85BB8588839983AA83BB83E1E060
:105070007ACFE33079F0E43009F090CF8EA181113E
:105080004CC0BB27A72F962F852F8095909588CF52
:105090001BA627CF8C899D8983CF8EA1811160C0EB
:1050A000BB27A72F962F852F7BCF19A218A28E89F9
:1050B0009F899BA38AA317CF2E893F893DA32CA349
:1050C0004C895D89AA27429FB12D539FC001349F0F
:1050D000B00D811D9A1F529FB00D811D9A1F112482
:1050E00088A399A340955095AA27429FB12D539F1D
:1050F000C001349FB00D811D9A1F529FB00D811DBC
:105100009A1F11248AA39BA38C859D85AE85BF859C
:1051100088839983AA83BB83E6CEF52EE62F6F3F63
:1051200009F440C0862F8F5F90E0880F991FF0E050
:10513000EE0FFF1FE050FD4F0190F081E02DDC01EC
:10514000A050BD4F8D919C918E1B9F0BA92FBB270B
:10515000FA9EC001FB9E900D11248E0F9F1F95CFCC
:10516000F52EE62F6F3F09F1862F8F5F90E0880FB5
:10517000991FF0E0EE0FFF1FE050FF4F0190F0810C
:10518000E02DDC01A050BF4F8D919C918E1B9F0B99
:10519000A92FBB27FA9EC001FB9E900D11248E0FF4
:1051A0009F1FFECE8EEF91E0C2CF8EEF91E0E1CF58
:1051B000CF93DF930E943F316BDA0E94DC1A80911B
:1051C000BC0ED82FD17081FF70C0C3E0D0937F0D8B
:1051D000C093830D89E59DE00E948932D093AB0D89
:1051E000C093AF0D85E89DE00E948932D093D70D22
:1051F000C093DB0D81EB9DE00E948932D093030EBA
:10520000C093070E8DED9DE00E948932D0932F0E42
:10521000C093330E89E09EE00E948932D0935B0EEA
:10522000C0935F0E85E39EE00E9489328091BD0E9F
:10523000D82FD17081FF3BC0C3E0D093770CC093CF
:105240007B0C81E59CE00E948932D093A30CC09333
:10525000A70C8DE79CE00E948932D093CF0CC093BD
:10526000D30C89EA9CE00E948932D093FB0CC09356
:10527000FF0C85ED9CE00E948932D093270DC093EE
:105280002B0D81E09DE00E948932D093530DC09395
:10529000570D8DE29DE00E9489321092020F8FEF30
:1052A0008093010FDF91CF910895C1E08FCFC1E0CE
:1052B000C4CFCF92DF92EF92FF920F931F93CF93C1
:1052C000DF93CDB7DEB765970FB6F894DEBF0FBE9C
:1052D000CDBF8B018D8BD3D74D890115110509F0F9
:1052E00061C0423109F4D2C0473209F4D4C001157B
:1052F000110509F073C04C3109F480C0012B09F489
:1053000042C0433039F1842F8450823008F4FEC00B
:10531000842F87508330B8F5473009F4E6C0483011
:1053200009F489C08091D60B9091D70BA0E0B0E032
:105330009054A109B109B7FD81C1009721E0A207EE
:10534000B1050CF070C19093C50E8093C40E83EE2E
:1053500098E085C08091C30E992787FD90950296AD
:1053600066E070E00E948044E82F8093C30E853091
:1053700008F0C9C0F0E0EE0FFF1FEC57FA4F808134
:10538000918161E080DD65960FB6F894DEBF0FBEB7
:10539000CDBFDF91CF911F910F91FF90EF90DF90E4
:1053A000CF9008954111A0CF8091BF0E83708F5F81
:1053B0008093BF0E4D8B6CD9E091BF0E4D89E530C7
:1053C00008F025C1F0E0EE0FFF1FE656FA4F80818E
:1053D000918161E04D8B57DD4D8990CF842F8150B5
:1053E000823008F088CF413009F060C18091C00E52
:1053F000242F281B822F2093C00E02C08091C00E44
:10540000E091A50BE295E170EF5F880FE80FE530C2
:10541000C0F5F0E0EE0FFF1FEC55FA4FE080F18091
:10542000423009F44CC04D8B0E94DC1A61E0C70188
:105430002ADD4D8963CF8091F10E90E00196837053
:1054400099278093F10E8150863008F0E6C0E82F4E
:10545000F0E0EE0FFF1FE257FA4F8081918124E2C6
:10546000EAECFEE0DF011D922A95E9F72091C60ED5
:105470003091C70E209530953093C70E2093C60EFD
:1054800080CFA5EDEA2EA8E0FA2ECACF0E94B8334D
:105490008FDE4D892CCF4D8BFBD8E0910B0C4D89C5
:1054A000E53008F0B7C0F0E0EE0FFF1FE656FA4F08
:1054B0008081918161E04D8BE6DC4D8918CF209190
:1054C000C20E822F90E0019663E070E00E9480445B
:1054D0008093C20E813009F4F1C0823009F4E9C032
:1054E000FBEDEF2EF8E0FF2E9ECF8091F00E853081
:1054F00009F4E9C08C3009F4ECC0833009F498C099
:1055000080E090E0ACCF80E090E03BCF19821A823F
:105510001B821C82FE01359680E1DF011D928A9577
:10552000E9F7DD24D394453009F0D12CED2CF12C92
:1055300081E59CE0E80EF91EF701E559FD4F208159
:1055400030E02F5F3F4FC901837099278083890125
:105550000170112721FD64C0CC24C394D11072C006
:1055600000937F0DC092830D89E59DE04D8BD1D7CF
:105570000093AB0DC092AF0D85E89DE0CAD70093B4
:10558000D70DC092DB0D81EB9DE0C3D70093030ED6
:10559000C092070E8DED9DE0BCD700932F0EC092F8
:1055A000330E89E09EE0B5D700935B0EC0925F0E8C
:1055B00085E39EE0AED74D89F701E559FD4F808127
:1055C000813009F493C008F08AC0CE010196DC0155
:1055D0000D900020E9F7119729E0EEEFF8E0019037
:1055E0000D922A95E1F7DC010D900020E9F7119763
:1055F00025E0DD2009F453C0E0E2F9E001900D92CE
:105600002A95E1F761E04D8B3EDC4D8981CE85ED39
:1056100098E0DFCE85ED98E04DCF8AEF98E01FCF80
:1056200053E0C52E9BCF8FEF9FEFA0E0B0E08BCE75
:1056300085E08093F00E86EF98E011CF80E090E057
:10564000DC017BCE0093770CC0927B0C81E59CE063
:105650004D8B5FD70093A30CC092A70C8DE79CE005
:1056600058D70093CF0CC092D30C89EA9CE051D755
:105670000093FB0CC092FF0C85ED9CE04AD7009391
:10568000270DC0922B0D81E09DE043D70093530D71
:10569000C092570D8DE29DE03CD74D898DCFE5E25C
:1056A000F9E001900D922A95E1F7ACCFE12CF12CB5
:1056B000B7CEE6EDEE2EE8E0FE2EB5CE7FEDE72E7E
:1056C00078E0F72EB0CE8CE08093F00E82EF98E079
:1056D000C6CE83E08093F00E8EEE98E0C0CE82308E
:1056E00019F1833091F0CE0101967DCFCE01019664
:1056F000DC010D900020E9F7119729E0E7E0F9E0DF
:1057000001900D922A95E1F76ECFCE010196DC0152
:105710000D900020E9F7119728E0E8E1F9E0019009
:105720000D922A95E1F75FCFCE010196DC010D9035
:105730000020E9F7119728E0E0E1F9E001900D92EF
:105740002A95E1F750CF4F925F926F927F928F929E
:105750009F92AF92BF92CF92DF92EF92FF920F9300
:105760001F93CF93DF9300D01F92CDB7DEB76FB6F4
:10577000F894882309F4A1C0B12C1B2D110F110F2F
:10578000110F96EC00ECDD24D39477E8772EE0EE51
:10579000EE2EF7E08F2EA0E4FA2EB7E49B2E87EED4
:1057A000A82E47EF52EE91BB08B92B2D220F322FB6
:1057B00036703064822F880F8072207C822B2B2DD4
:1057C00026952270D5B838B98BB92EB971BA65E172
:1057D0006A95F1F7000091BB08B9E7B88AB8EDB84F
:1057E000D5B8F8B81BB8FEB891BA00C000C036B141
:1057F00089B12CB1C32EC694E3E0CE22F0E83F9FDE
:10580000B0011124C62A382F3071C32A382F36959B
:1058100036953870C32A86958076C82A30E0220FE4
:10582000331F24703327C22A91BB08B9A7B84AB9DD
:105830005DB9EB2DF0E0EE55F44F50805C24C08252
:10584000552001F150FC3CC05694C69450FC4BC00E
:1058500056944C2C469450FC5CC0C52CC694542CD9
:105860005694C0FC6DC0C6945694C0FC7EC0C694CD
:105870005694C0FC8FC0C6945694C0FCA0C0C69479
:1058800009F0B1C0B394185F6FE06B1508F08BCFCF
:105890006FBE0F900F900F90DF91CF911F910F91DE
:1058A000FF90EF90DF90CF90BF90AF909F908F9040
:1058B0007F906F905F904F90089598E0B92E5DCFE4
:1058C0006C2D6170103408F4A8C0812F80544A8375
:1058D0005B8399830E948B2399815B814A815694D3
:1058E000C69450FEB5CF6C2D6170812F8F5F8034D0
:1058F00008F4C3C0812F8F534A835B8399830E942E
:105900008B2399815B814A8156944C2C469450FE9E
:10591000A4CF642D6170812F8E5F803408F4B6C0EF
:10592000812F8E534A835B8399830E948B239981B5
:105930005B814A81C52CC694542C5694C0FE93CFEB
:10594000652D6170812F8D5F803408F484C0812FB4
:105950008D534A835B8399830E948B2399815B815A
:105960004A81C6945694C0FE82CF652D6170812F06
:105970008C5F803408F478C0812F8C534A835B831A
:1059800099830E948B2399815B814A81C6945694A6
:10599000C0FE71CF652D6170812F8B5F803408F45C
:1059A00048C0812F8B534A835B8399830E948B234A
:1059B00099815B814A81C6945694C0FE60CF652D63
:1059C0006170812F8A5F803408F43CC0812F8A5334
:1059D0004A835B8399830E948B2399815B814A81EF
:1059E000C69409F44FCF652D6695812F895F803469
:1059F00058F0812F89534A835B8399830E948B23BC
:105A000099815B814A813ECF70E04A835B839983B1
:105A100050DC4A815B81998135CF772767FD70958E
:105A2000812F4A835B83998344DC4A815B8199811E
:105A30000BCF70E04A835B8399833BDC4A815B81B7
:105A4000998119CF70E04A835B83998332DC4A8164
:105A50005B81998114CF70E04A835B83998329DC51
:105A60004A815B819981FFCE70E04A835B83998391
:105A700020DC4A815B819981FACE70E04A835B83A6
:105A8000998317DC4A815B819981E2CE70E04A8379
:105A90005B8399830EDC4A815B819981DECE4091E4
:105AA000A410242F22602093A41086EC81BB80ECEC
:105AB00088B9322F330F922F9695221F2227221F4B
:105AC000832F8670282B2064832F880F807240716B
:105AD000842B307C832B9270906C31E035B928B9DF
