:100000004BC0000042C2000040C200003EC20000DF
:100010003CC200000C949E4938C2000036C2000069
:1000200034C2000032C200000C9494490C948A49F6
:100030002CC200002AC2000028C2000026C2000014
:1000400024C2000022C2000020C200001EC2000024
:100050001CC200000C944A4A18C2000016C20000DC
:1000600014C2000012C2000010C200000EC2000044
:100070000CC200000AC2000008C2000006C2000054
:1000800004C2000002C2000000C20000FEC1000065
:10009000FCC10000FAC1000011241FBECFEFD0E266
:1000A000DEBFCDBF0E9400F0D7C10000076342361B
:1000B000B79BD8A71A39685618AEBAAB558C1D3CF9
:1000C000B7CC5763BD6DEDFD753EF6177231BF00BD
:1000D0000000803F05A84CCDB2D44EB93836A902F5
:1000E0000C50B9918688083CA6AAAA2ABE00000036
:1000F000803F08000000BE922449123EABAAAA2A03
:10010000BECDCCCC4C3E00000080BEABAAAAAA3E1D
:1001100000000000BF000000803F00000000000859
:100120004178D3BB4387D1133D190E3CC3BD4282F6
:10013000AD2B3E68EC8276BED98FE1A93E4C80EFB4
:10014000FFBE01C4FF7F3F0000000000FF004C8A9B
:1001500097509545406BA6D8E4B2282EAE90BF26A6
:10016000B14EE86FD0FBE0709A51862C379845323B
:10017000539D06840D971A8CE61E2E0DB41D401655
:100180009AC591F9F786A142660620AFAE19EE270F
:10019000C2BB0EBAB90AAA95CA45040444C1796A19
:1001A00091EE7D3E2E4C960BA96E5A6A9FF56D0519
:1001B000BB8F808DB4F54FC14AE99E674536394FF4
:1001C00075ADF44CB227A939D78036F7C49C7E6A46
:1001D000605F677992B4DD0E4786CD1A6DC6258AB9
:1001E000F464D953D154DB67F78B22BD5CFEA44D78
:1001F000F9A7590EC57E3BF9BA7D430AD39F6C3BE4
:100200000BDEB2875E3710ECC8A6856546290CF177
:10021000D6BCA38C755E4934200DFAE9D7C7B6A7C2
:10022000988A7C6E6155493D32271D1209FFF6EE12
:10023000E5DDD5CEC6BFB9B2ACA6A09A958F8A85AA
:10024000817C78736F6B6864605D5A56FF59E97DF5
:1002500015B150F39942EE9D4F04BC7632F1B2765F
:100260003B03CC98653405D8AC8259320CE7C4A264
:100270008161432509EDD3B9A089725C46321E0B1A
:10028000F8E6D5C4B4A596887A6D6053473C30260D
:100290001B1108FEF5EDE4DCD4CDC6BFB8B1ABA5AB
:1002A0009F99948F8A85807C77736F6B6763605D9D
:1002B000595653504D4A484543403E3C3A383634EF
:1002C00032302E2D2B2A282725242321201F1E1DC6
:1002D0001C1B1A19181716161514131312111110C6
:1002E0000F0F0E0E0D0D0C0C0B0B0B0A0A09090952
:1002F0000808080807070706060606060505050597
:1003000005040404040404030303030303030302B6
:1003100002020202020202020202010101010101C3
:1003200001010101010101010101010101000000C0
:1003300000000000000000000000000000000000BD
:10034000000000000000000000000000FF0C0B0B8C
:100350000B0A0A090909080808080707070606061C
:100360000606050505050504040404040403030347
:100370000303030303020202020202020202020258
:10038000010101010101010101010101010101015D
:10039000010101000000000000000000000000005A
:1003A000000000000000000000000000000000004D
:1003B000000000000000000000000000000000003D
:1003C000000000000000000000000000000000002D
:1003D000000000000000000000000000000000001D
:1003E000000000000000000000000000000000000D
:1003F00000000000000000000000000000000000FD
:1004000000000000000000000000000000000000EC
:1004100000000000000000000000000000000000DC
:1004200000000000000000000000000000000000CC
:1004300000000000000000000000000000000000BC
:1004400000000000000000000000000011241FBE9A
:10045000CFEFD0E2DEBFCDBF1AE1A2ECB9E001C020
:100460001D92A836B107E1F719E0A0E0B1E0E4EE93
:10047000FDEA00E00BBF02C007900D92A23CB1075D
:10048000D9F70E94834A0C94F056BACD2F923F922E
:100490004F925F926F927F928F929F92AF92BF9294
:1004A000CF92DF92EF92FF920F931F93CF93DF9340
:1004B000CDB7DEB727970FB6F894DEBF0FBECDBF1E
:1004C00086E392E10E94BB1440906712509068123C
:1004D0002091001320FF19C025FD02C00C94070DC8
:1004E000420124FD13C080914C1290914D129595BC
:1004F0008795480E591E21FD0BC0C12CD12C7601C9
:1005000022FD10C00FEF1FEF1BC0420121FFF5CFEE
:10051000C0904C12D0904D12EE24D7FCE094FE2CEB
:1005200022FFF0CF009146121091471216950795C1
:100530000095109580914C1290914D12080F191F43
:100540008091211390912213A0E0B0E09058A1096E
:10055000B1091C018091FC12882311F40C94030D45
:100560008091331390913413A0E0B0E09058A1092A
:10057000B109B7FF02C00C94BE0DB595A79597952C
:1005800087959C838B832FB72D83F8948EE390E11E
:100590000E94A23340916210509163105A834983A4
:1005A000AA2497FCA094BA2C662457FC6094762C5D
:1005B0008091781290917912A3019201280F391F2E
:1005C000411D511DDA01C901009731E0A307B105B2
:1005D00024F08FEF9FEFA0E0B0E0B7FF02C00C94D3
:1005E000110D0E94940E46EC41BB469A31E035B99C
:1005F00025E428B950EF5BB992EA9EB987E881BB40
:1006000000C000C041BB469A35B928B960ED6BB94E
:100610009EB981BB00C000C041BB469A35B928B91C
:100620005BB99EB981BB4B815C8169817A81AA27C4
:10063000469FB12D5703C001749FB00D811D9A1FB5
:1006400056039A0BB00D811D9A1F1124AA2797FDFE
:10065000A095BA2F880D991DAA1DBB1D20916C1263
:1006600030916D12820F931FA11DB11D009771E093
:10067000A707B10524F08FEF9FEFA0E0B0E0B7FF30
:1006800002C00C94160D0E94940E46EC41BB469A93
:1006900031E035B921E428B950EF5BB990EA9EB951
:1006A00087E881BB00C000C041BB469A35B928B974
:1006B00060ED6BB99EB981BB00C000C041BB469ADA
:1006C00035B928B95BB99EB981BB910149815A817D
:1006D000AA27249FB12D3503C001529FB00D811D63
:1006E0009A1F34039A0BB00D811D9A1F1124AA275B
:1006F00097FDA095BA2F8C0D9D1DAE1DBF1D20919D
:10070000841230918512820F931FA11DB11D40915B
:10071000B4125091B51260E070E0481759076A07AB
:100720007B0714F00C94BF0BDB01CA010E94940EEE
:1007300046EC41BB469A31E035B921E428B950EF87
:100740005BB992EA9EB987E881BB00C000C041BB9B
:10075000469A35B928B960EE6BB99EB981BB00C025
:1007600000C041BB469A35B928B95BB99EB981BB77
:100770008AE391E10E94A23320915E1130915F11D2
:10078000AA27209FB12D319FC001129FB00D811D5E
:100790009A1F309FB00D811D9A1F1124A0E0B0E078
:1007A0000097A105B10509F4E7C79D5FAF4FBF4FA3
:1007B000009751E0A507B10524F08FEF9FEFA0E06F
:1007C000B0E00E94940E46EC41BB469A31E035B948
:1007D00025E428B950EF5BB990EA9EB987E881BB60
:1007E00000C000C041BB469A35B928B960EB6BB96F
:1007F0009EB981BB00C000C041BB469A35B928B93B
:100800005BB99EB981BB6D816FBF7FB77983F89467
:1008100088E690E10E94A23320918C1030918D10D7
:100820003F832E8380917A1290917B12B301A201B3
:10083000480F591F611D711D4115510531E06307B6
:10084000710524F04FEF5FEF60E070E0DB01CA015B
:1008500077FF02C00C94BD0C0E94940E46EC41BB85
:10086000469A31E035B927E428B950EF5BB992EAEE
:100870009EB987E881BB00C000C041BB469A35B92C
:1008800028B960ED6BB99EB981BB00C000C041BB07
:10089000469A35B928B95BB99EB981BB6B817C8119
:1008A0002E813F81AA27629FB12D7303A001369F3D
:1008B000B00D411D5A1F72035A0BB00D411D5A1F36
:1008C0001124662757FD6095762F480D591D6A1D26
:1008D0007B1D80916E1290916F12480F591F611D00
:1008E000711D4115510531E06307710524F04FEF8B
:1008F0005FEF60E070E0DB01CA0177FF02C00C949B
:10090000DE0C0E94940E46EC41BB469A31E035B9AC
:1009100023E428B950EF5BB990EA9EB987E881BB20
:1009200000C000C041BB469A35B928B960ED6BB92B
:100930009EB981BB00C000C041BB469A35B928B9F9
:100940005BB99EB981BBB1012E813F81AA27629F0D
:10095000B12D7303A001369FB00D411D5A1F7203C4
:100960005A0BB00D411D5A1F1124662757FD609583
:10097000762F4C0D5D1D6E1D7F1D8091861290910E
:100980008712480F591F611D711D8091B6129091F9
:10099000B712A0E0B0E084179507A607B70734F0B8
:1009A00077FF02C00C94ED0CDB01CA010E94940E8B
:1009B00046EC41BB469A31E035B923E428B950EF03
:1009C0005BB992EA9EB987E881BB00C000C041BB19
:1009D000469A35B928B960EE6BB99EB981BB00C0A3
:1009E00000C041BB469A35B928B95BB99EB981BBF5
:1009F00084E691E10E94A2332091881130918911FF
:100A0000AA27209FB12D319FC001129FB00D811DDB
:100A10009A1F309FB00D811D9A1F1124A0E0B0E0F5
:100A20000097A105B10509F4A4C69D5FAF4FBF4F64
:100A3000009731E0A307B10524F08FEF9FEFA0E00E
:100A4000B0E00E94940E46EC41BB469A31E035B9C5
:100A500027E428B950EF5BB990EA9EB987E881BBDB
:100A600000C000C041BB469A35B928B960EB6BB9EC
:100A70009EB981BB00C000C041BB469A35B928B9B8
:100A80005BB99EB981BB49814FBF3FB73983F894A9
:100A900082E990E10E94A2334091B6105091B710C4
:100AA0005F834E8380917C1290917D12B301A201ED
:100AB000480F591F611D711D4115510581E06807DF
:100AC000710524F04FEF5FEF60E070E0DB01CA01D9
:100AD00077FF01C057C70E94940E46EC41BB469A6F
:100AE00031E035B921E428B950EF5BB990EA9EB9FD
:100AF00087E881BB00C000C041BB469A35B928B920
:100B000060EE6BB99EB981BB00C000C041BB469A84
:100B100035B928B95BB99EB981BB2B813C816E8107
:100B20007F81AA27269FB12D3703A001729FB00DA8
:100B3000411D5A1F36035A0BB00D411D5A1F112477
:100B4000662757FD6095762F480D591D6A1D7B1D40
:100B50008091701290917112480F591F611D711D83
:100B60004115510581E06807710524F04FEF5FEFF3
:100B700060E070E0DB01CA0177FD25C70E94940E9A
:100B800046EC41BB469A31E035B925E428B950EF2F
:100B90005BB990EA9EB987E881BB00C000C041BB49
:100BA000469A35B928B960ED6BB99EB981BB00C0D2
:100BB00000C041BB469A35B928B95BB99EB981BB23
:100BC00091016E817F81AA27269FB12D3703A00155
:100BD000729FB00D411D5A1F36035A0BB00D411DB7
:100BE0005A1F1124662757FD6095762F4C0D5D1D09
:100BF0006E1D7F1D8091881290918912480F591F98
:100C0000611D711D8091B8129091B912A0E0B0E001
:100C100084179507A607B70724F077FDD8C6DB0130
:100C2000CA010E94940E46EC41BB469A31E035B9A8
:100C300025E428B950EF5BB992EA9EB987E881BBF9
:100C400000C000C041BB469A35B928B960EE6BB907
:100C50009EB981BB00C000C041BB469A35B928B9D6
:100C60005BB99EB981BB8091921190919311A09133
:100C70009411B09195118B2F9927AA27BB27892B07
:100C80008A2B8B2B09F0F8C58091B711823009F4BB
:100C90009BC508F093C5813009F460C680E090E000
:100CA0006091B0117091B1110E9485142091AE1124
:100CB0003091AF11280F391F3093B3112093B21127
:100CC00080918E1190918F11A0919011B0919111FE
:100CD00040919211509193116091941170919511DE
:100CE000840F951FA61FB71F8093921190939311A5
:100CF000A0939411B0939511AA27209FB12D319FF5
:100D0000C001129FB00D811D9A1F309FB00D811D33
:100D10009A1F1124A0E0B0E00097A105B10509F4E5
:100D200025C59D5FAF4FBF4F009771E0A707B10585
:100D300024F08FEF9FEFA0E0B0E0F6D746EC41BB88
:100D4000469A31E035B921E428B950EF5BB992EA0F
:100D50009EB987E881BB00C000C041BB469A35B947
:100D600028B960EB6BB99EB981BB00C000C041BB24
:100D7000469A35B928B95BB99EB981BB39813FBF65
:100D80003FB73983F8948091C0109091C110A09121
:100D9000C210B091C3108B2F9927AA27BB27892B8C
:100DA0008A2B8B2B09F07CC58091E510823009F4E9
:100DB00022C508F01AC5813009F4C1C580E090E071
:100DC0006091DE107091DF100E9485144091DC105C
:100DD0005091DD10480F591F5F834E835093E110EF
:100DE0004093E0108091BC109091BD10A091BE1076
:100DF000B091BF104091C0105091C1106091C210CD
:100E00007091C310840F951FA61FB71F8093C01049
:100E10009093C110A093C210B093C31080917E1222
:100E200090917F12B301A201480F591F611D711DDE
:100E30004115510581E06807710524F04FEF5FEF20
:100E400060E070E0DB01CA0177FDACC56DD766ECF0
:100E500061BB469A51E055B943E448B970EF7BB99C
:100E600090EA9EB987E881BB00C000C061BB469A8A
:100E700055B948B9E0EEEBB99EB981BB00C000C0DE
:100E800061BB469A55B948B97BB99EB981BB2B81E4
:100E90003C816E817F81AA27269FB12D3703A00157
:100EA000729FB00D411D5A1F36035A0BB00D411DE4
:100EB0005A1F1124662757FD6095762F480D591D3E
:100EC0006A1D7B1D8091721290917312480F591FF9
:100ED000611D711D4115510581E06807710524F000
:100EE0004FEF5FEF60E070E0DB01CA0177FD56C5B0
:100EF0001BD766EC61BB469A51E055B947E448B947
:100F000070EF7BB990EA9EB987E881BB00C000C052
:100F100061BB469A55B948B9E0EDEBB99EB981BBC2
:100F200000C000C061BB469A55B948B97BB99EB9AB
:100F300081BB91016E817F81AA27269FB12D370346
:100F4000A001729FB00D411D5A1F36035A0BB00D00
:100F5000411D5A1F1124662757FD6095762F4C0DB1
:100F60005D1D6E1D7F1D80918A1290918B12480F1E
:100F7000591F611D711D8091BA129091BB12A0E0A2
:100F8000B0E084179507A607B70724F077FD2CC5B6
:100F9000DB01CA01C9D646EC41BB469A31E035B9FE
:100FA00027E428B950EF5BB992EA9EB987E881BB84
:100FB00000C000C041BB469A35B928B960EE6BB994
:100FC0009EB981BB00C000C041BB469A35B928B963
:100FD0005BB99EB981BB8091BC119091BD11A0916C
:100FE000BE11B091BF118B2F9927AA27BB27892B40
:100FF0008A2B8B2B09F04AC48091E111823009F4CD
:101000002AC408F022C4813009F454C480E090E07E
:101010006091DA117091DB110E9485142091D81132
:101020003091D911280F391F3093DD112093DC1135
:101030008091B8119091B911A091BA11B091BB11E2
:101040004091BC115091BD116091BE117091BF11C2
:10105000840F951FA61FB71F8093BC119093BD11DD
:10106000A093BE11B093BF11AA27209FB12D319F2D
:10107000C001129FB00D811D9A1F309FB00D811DC0
:101080009A1F1124A0E0B0E00097A105B10509F472
:101090006AC39D5FAF4FBF4F009771E0A707B105CF
:1010A00024F08FEF9FEFA0E0B0E03ED646EC41BBCE
:1010B000469A31E035B923E428B950EF5BB992EA9A
:1010C0009EB987E881BB00C000C041BB469A35B9D4
:1010D00028B960EB6BB99EB981BB00C000C041BBB1
:1010E000469A35B928B95BB99EB981BB39813FBFF2
:1010F0002FB72983F8948091EA109091EB10A0917A
:10110000EC10B091ED108B2F9927AA27BB27892BC4
:101110008A2B8B2B09F0B5C380910F11823009F413
:1011200081C308F079C3813009F4D3C380E090E033
:1011300060910811709109110E9485144091061167
:1011400050910711480F591F5F834E8350930B1125
:1011500040930A118091E6109091E710A091E81059
:10116000B091E9104091EA105091EB106091EC10B1
:101170007091ED10840F951FA61FB71F8093EA1082
:101180009093EB10A093EC10B093ED10809180122F
:1011900090918112B301A201480F591F611D711D69
:1011A0004115510581E06807710524F04FEF5FEFAD
:1011B00060E070E0DB01CA0177FDF8C3B5D566ECED
:1011C00061BB469A51E055B945E448B970EF7BB927
:1011D00090EA9EB987E881BB00C000C061BB469A17
:1011E00055B948B9E0EEEBB99EB981BB00C000C06B
:1011F00061BB469A55B948B97BB99EB981BB2B8171
:101200003C816E817F81AA27269FB12D3703A001E3
:10121000729FB00D411D5A1F36035A0BB00D411D70
:101220005A1F1124662757FD6095762F480D591DCA
:101230006A1D7B1D8091741290917512480F591F81
:10124000611D711D4115510581E06807710524F08C
:101250004FEF5FEF60E070E0DB01CA0177FDAAC3EA
:1012600063D566EC61BB469A51E055B941E448B993
:1012700070EF7BB992EA9EB987E881BB00C000C0DD
:1012800061BB469A55B948B9E0EDEBB99EB981BB4F
:1012900000C000C061BB469A55B948B97BB99EB938
:1012A00081BB91016E817F81AA27269FB12D3703D3
:1012B000A001729FB00D411D5A1F36035A0BB00D8D
:1012C000411D5A1F1124662757FD6095762F4C0D3E
:1012D0005D1D6E1D7F1D80918C1290918D12480FA7
:1012E000591F611D711D8091BC129091BD12A0E02B
:1012F000B0E084179507A607B70724F077FD6AC307
:10130000DB01CA0111D546EC41BB469A31E035B943
:1013100021E428B950EF5BB990EA9EB987E881BB18
:1013200000C000C041BB469A35B928B960EB6BB923
:101330009EB981BB00C000C041BB469A35B928B9EF
:101340005BB99EB981BB82EE91E10E94A2332091EC
:10135000061230910712AA27209FB12D319FC0019C
:10136000129FB00D811D9A1F309FB00D811D9A1FD5
:101370001124A0E0B0E00097A105B10509F4F0C187
:101380009D5FAF4FBF4F009771E0A707B10524F0F5
:101390008FEF9FEFA0E0B0E0C7D446EC41BB469A88
:1013A00031E035B925E428B950EF5BB992EA9EB92E
:1013B00087E881BB00C000C041BB469A35B928B957
:1013C00060EB6BB99EB981BB00C000C041BB469ABF
:1013D00035B928B95BB99EB981BB29812FBF3FB709
:1013E0003D83F89480E191E10E94A2334091341151
:1013F000509135115A8349838091821290918312C2
:10140000480E591E611C711C4114510451E06506BF
:1014100071042CF044244A94542C612C712CD30177
:10142000C20177FCB3C280D446EC41BB469A31E09E
:1014300035B927E428B950EF5BB990EA9EB987E83F
:1014400081BB00C000C041BB469A35B928B960EEE7
:101450006BB99EB981BB00C000C041BB469A35B98B
:1014600028B95BB99EB981BB6B817C8129813A81A6
:10147000AA27629FB12D7303A001369FB00D411DB5
:101480005A1F72035A0BB00D411D5A1F11246627B3
:1014900057FD6095762F480D591D6A1D7B1D809163
:1014A000761290917712480F591F611D711D4115D9
:1014B000510531E06307710524F04FEF5FEF60E005
:1014C00070E0DB01CA0177FD65C22ED446EC41BB5A
:1014D000469A31E035B923E428B950EF5BB992EA76
:1014E0009EB987E881BB00C000C041BB469A35B9B0
:1014F00028B960ED6BB99EB981BB00C000C041BB8B
:10150000469A35B928B95BB99EB981BBB101298129
:101510003A81AA27629FB12D7303A001369FB00DB7
:10152000411D5A1F72035A0BB00D411D5A1F112441
:10153000662757FD6095762F4C0D5D1D6E1D7F1D36
:1015400080918E1290918F12480F591F611D711D4D
:101550008091BE129091BF12A0E0B0E08417950771
:10156000A607B70724F077FD3CC2DB01CA01DCD334
:1015700046EC41BB469A31E035B923E428B950EF37
:101580005BB990EA9EB987E881BB00C000C041BB4F
:10159000469A35B928B960EB6BB99EB981BB00C0DA
:1015A00000C041BB469A35B928B95BB99EB981BB29
:1015B0008091101290911112A0911212B0911312F9
:1015C0008B2F9927AA27BB27892B8A2B8B2B09F0D6
:1015D00062C180913512823009F4DFC008F0D7C0B3
:1015E000813009F49BC180E090E060912E127091EF
:1015F0002F120E94851420912C1230912D12280F49
:10160000391F309331122093301240910C125091B7
:101610000D1260910E1270910F12C0901012D090A6
:101620001112E0901212F09013124C0D5D1D6E1D00
:101630007F1D4093101250931112609312127093F9
:101640001312AA27209FB12D319FC001129FB00D08
:10165000811D9A1F309FB00D811D9A1F1124A0E09B
:10166000B0E00097A105B10509F477C09D5FAF4FC9
:10167000BF4F009731E0A307B10524F08FEF9FEF34
:10168000A0E0B0E051D346EC41BB469A31E035B919
:1016900027E428B950EF5BB992EA9EB987E881BB8D
:1016A00000C000C041BB469A35B928B960EB6BB9A0
:1016B0009EB981BB00C000C041BB469A35B928B96C
:1016C0005BB99EB981BB3D813FBF2091C209922F7A
:1016D0009C7111E009F010E0922F9370923009F4A0
:1016E000AAC1933009F43EC2913009F4AFC111117F
:1016F00050C280E00E94F9418091870D9091880D41
:10170000A091890DB0918A0D0196A11DB11D809304
:10171000870D9093880DA093890DB0938A0D209129
:10172000C2092F5F2093C20927960FB6F894DEBF37
:101730000FBECDBFDF91CF911F910F91FF90EF9022
:10174000DF90CF90BF90AF909F908F907F906F90E1
:101750005F904F903F902F90089580E090E092CF5F
:1017600080E090E019CE80E090E09FCC80E090E0B7
:10177000E4CA80E090E065C980E090E022C8B7FD4F
:1017800002C00C94960380E090E00C9496038330A2
:1017900009F4BFC0843009F026CF60911012709117
:1017A000111280911212909113122091321240E284
:1017B00051E00E94D6258095909517CF833009F48B
:1017C00099C0843009F06ACA6091921170919311A6
:1017D00080919411909195112091B41140E251E0C3
:1017E0000E94D625809590955BCA833009F45DC030
:1017F000843009F0E3CA6091C0107091C1108091EB
:10180000C2109091C3102091E21040E251E00E947A
:10181000D62580959095D4CA833009F475C084305C
:1018200009F084CC6091EA107091EB108091EC107B
:101830009091ED1020910C112111DDC0BB27A92F33
:10184000982F872F8095909573CC833009F457C0DB
:10185000843009F0DBCB6091BC117091BD11809197
:10186000BE119091BF112091DE1140E251E00E9423
:10187000D62580959095CCCB8EE891E10E945D3382
:1018800003CA86EE90E10E945D3346CC88EB91E17D
:101890000E945D33B1CB8CE092E10E945D3399CE22
:1018A0008CEB90E10E945D337FCA8091D0109091C3
:1018B000D11086CA6091BC117091BD118091BE118A
:1018C0009091BF112091DE1140E253E00E94D62595
:1018D0009FCB6091EA107091EB108091EC10909189
:1018E000ED1020910C1121118AC0BB27A92F982F30
:1018F000872F1ECC8091A2119091A311D1C9809104
:10190000CC119091CD1184CB8091FA109091FB1065
:101910000FCC809120129091211267CE609110120D
:101920007091111280911212909113122091321223
:1019300021115DC0BB27A92F982F872F56CE60910C
:10194000C0107091C1108091C2109091C31020916D
:10195000E21040E253E00E94D62532CA6091921113
:101960007091931180919411909195112091B411DF
:1019700040E253E00E94D62593C980E090E0DC016C
:101980000C942C0480E090E0DC01A5C880E090E09D
:10199000DC0149CD80E090E0DC0197CD80E090E073
:1019A000DC01A6CA80E090E0DC0150CA80E090E053
:1019B000DC0104CC80E090E0DC0152CC80E090E0DF
:1019C000DC010C94810480E090E0DC01D7C880E069
:1019D00090E027C980E090E095CC80E090E00C9406
:1019E000D60480E090E0C3CD80E090E0D3CA40E22E
:1019F00053E09CD7FACD40E251E098D723CF40E2A4
:101A000053E094D795CB1C821B820C94C302809028
:101A10004C1290904D1295948794840C951C0C94C4
:101A2000710280E090E0DC010C94F10280E090E033
:101A3000DC010C94430381E592E19DD78091001372
:101A400088700E94E4282091C2096BCE0E94E4397C
:101A50008091A614882309F496C08091F3128823FC
:101A600039F081508093F3120E946C198111BAC031
:101A70008091EC12882309F47EC02091EA12309103
:101A8000EB1200E912E18CE6882E82E1982EA4E8A0
:101A9000B2E168EA72E198E7A92E92E1B92E4CE929
:101AA00052E1D12C42C0E81AF90A2E153F0508F47C
:101AB0007901E80EF91EF401F182E082FA01E19069
:101AC000F190AF01F501808191818E159F0508F09D
:101AD00063C0E81AF90A2E153F0508F47901E80EEB
:101AE000F91EF501F182E082FB01E190F190BF0166
:101AF0008D919C9111978E159F0508F05FC0E81A93
:101B0000F90A2E153F0508F47901E80EF91E119621
:101B1000FC92EE92D394F2E08F0E911C129682E02A
:101B2000A80EB11C96E0D91631F1F801E190F190C0
:101B30008F01F401808191818E159F0508F4B3CF48
:101B4000E816F90608F0BACFFC01EE19FF097F018B
:101B50002E173F0708F479018E199F09F40191832C
:101B60008083ACCF22FDDDCD812F0E943E2A812FC4
:101B700046D2111135C02091C209D3CD0196A11DC5
:101B8000B11D0C94BD028091F312882309F46CCF2F
:101B900068CF0E941934ADCDE816F90608F0A4CF3D
:101BA000FC01EE19FF097F012E173F0708F47901A8
:101BB0008E199F09F5019183808396CFE816F90667
:101BC00008F0A8CFFC01EE19FF097F012E173F078F
:101BD00008F479018E199F0911969C938E939ACFE0
:101BE000AFD5C9CF8091E60B811103C080916E0CF7
:101BF00081110E94473B80917F0D882309F438CFE3
:101C00000E947E3A35CFEAE7F8E180818F5F8083DA
:101C1000089555E05A95F1F7000036EC31BB469A2D
:101C200080EE87B997E09AB98DB915B880E488B984
:101C30001BB880E28EB987E481BB82E08A95F1F718
:101C400000C026B199B18CB131BB479A37EE37B994
:101C500037EF3AB932EE3DB9422F4695437050E81E
:101C6000259F90011124422B292F2071422B292FCF
:101C7000269526952870422B96959076492B90E0D4
:101C8000880F991F84709927842B089536EC20EED5
:101C900097E0A0E8F7E4E7EE77EF62EE5FB7F8943D
:101CA00031BB469A27B99AB92DB915B8A8B99BB9CD
:101CB0001EB8F1BB42E04A95F1F700C046B1B9B198
:101CC000BCB131BB479AE7B97AB96DB95FBF55E08E
:101CD0005A95F1F7000042FFE1CF5FB7F89496EC18
:101CE00091BB469A382F330F982F9695232F267045
:101CF0002068482F441F4427441F242B8071836091
:101D0000432F440F4072842B307C832B927090625F
:101D100015B828B98BB99EB987E881BB85E08A954B
:101D2000F1F700005FBF08959C01232F332726950C
:101D30002695722F66EC61BB469A522F550F452FA0
:101D400046704068207133272260352F330F307280
:101D5000322B507C352B272F26952270206215B808
:101D600048B93BB92EB957E851BB969587959695DA
:101D70008795282F61BB469A482F440F382F3695F8
:101D8000221F2227221F642F6670262B2068807155
:101D900099278260942F990F9072982B407C942BF6
:101DA000327015B828B99BB93EB951BB08952F922E
:101DB0003F924F925F926F927F928F929F92AF92DB
:101DC000BF92CF92DF92EF92FF920F931F93CF9328
:101DD000DF93CDB7DEB728970FB6F894DEBF0FBEFE
:101DE000CDBF8D832FB72E83F894282F2595259569
:101DF0002595259580E290E002C0959587952A95D6
:101E0000E2F79D819F70982B86EC81BB469A492F03
:101E1000440F292F2695392F331F3327331F842F43
:101E20008670382B30649071842F880F8072892BD4
:101E3000407C842B2270206491E095B938B98BB92D
:101E40002EB987E881BB35E03A95F1F700002D8186
:101E5000332727FD30953A832983F901EC5CF94F4C
:101E6000C080D12C80E190E08C199D092FEF3FEFCD
:101E7000082E02C0369527950A94E2F702C0220F79
:101E8000331F8A95E2F73C832B83E12CF12C00E091
:101E900010E82FEF3FEF96ECA92E40EEB42E57E05E
:101EA000252E3324339460E4462E70E2572EE7E467
:101EB0006E2EF7EE7F2EA7EF8A2EB2EE9B2E0AC073
:101EC000200F311F16950795AFEFEA1AFA0ACE14C4
:101ED000DF042CF1C9012F83388726DF82E08A9541
:101EE000F1F700C0A1BA469AB7B82AB8BDB835B85C
:101EF00048B81BB85EB861BA92E09A95F1F700C095
:101F000086B189B19CB1A1BA479A77B88AB89DB811
:101F10002F81388585FDD4CF201B310BD3CF86ECA4
:101F200081BB469A81E085B987E488B980EF8BB997
:101F300082E48EB987E881BBB5E0BA95F1F700007D
:101F4000EB81FC812E233F23E981FA81EE0FFF1FF5
:101F5000ED54F04F31832083232F3327E981FA8119
:101F6000E157F04F848190E0821B930B97FD1DC0D9
:101F7000059704F53E813FBF28960FB6F894DEBF63
:101F80000FBECDBFDF91CF911F910F91FF90EF90CA
:101F9000DF90CF90BF90AF909F908F907F906F9089
:101FA0005F904F903F902F90089591958195910962
:101FB000059704F3248381E090E0A0E0B0E00D8079
:101FC00004C0880F991FAA1FBB1F0A94D2F7409123
:101FD0008F0F5091900F6091910F7091920F842B01
:101FE000952BA62BB72B80938F0F9093900FA093D8
:101FF000910FB093920F2D812093F40FBBCFCF930D
:10200000882339F18091490A8F5F8093490A85318D
:1020100048F081E090914A0A9111CDC080934A0A1C
:102020001092490AC0914D0AC11179C05091470AD6
:102030009091480AE0914E0AE13009F4DEC008F4BC
:10204000AFC0E23009F4C4C020E0F0E0ED5BF54F32
:102050002487AFB7F89456EC51BB469A41E045B996
:1020600080E488B91BB880E28EB937E831BB00C084
:1020700000C080E190E000904E0A02C0880F991FD6
:102080000A94E2F7282F51BB469A782F770F682FD2
:102090006695221F2227221F972F9670292B2064D6
:1020A0008071972F990F9072982B707C972B62708C
:1020B00045B928B99BB96EB931BB00C000C0E091E9
:1020C0004E0AF0E0ED5BF54F848551BB469A582FE0
:1020D000550F982F9695252F26702064682F661F20
:1020E0006627661F262B682F6071852F880F8072E8
:1020F000862B507C852B9270906245B928B98BB99C
:102100009EB931BBAFBF80914E0A90E0019663E06B
:1021100070E00E94E25180934E0ACF910895409161
:102120004B0A4F5F40934B0AE2E5FAE00190002032
:10213000E9F7E355FA4020914C0A332727FD309503
:10214000C90101966E2F772767FD70950E94E251B5
:10215000F901ED5BF54F278530E02038310588F136
:102160005FEFE82FFF27E7FDF095ED5BF54F278543
:1021700030E02038310550F5F901EC5AF94F9081E3
:10218000403108F457CF80934C0A10924B0A8111CA
:1021900051CF1C160CF04ECFC150C0934D0A4ACF00
:1021A0002091430A80914A0A882309F44ECF8091F6
:1021B000450A28274ACF80E080934A0A1092490AAC
:1021C00031CFF901EC5AF94F5081CBCF9FEFD8CFE7
:1021D000292F2F778091430A9091440A90FD20681F
:1021E0008091450A9091460A90FF2FCF80914A0A2C
:1021F000882309F42ACF205828CF252F2F778091C4
:10220000430A9091440A91FD20688091450A90917B
:10221000460A91FF1ACFEACF4FB7F8948091391050
:1022200096EC91BB469A382F330F982F9695232F13
:1022300026702064582F551F5527551F252B582FC2
:102240005071832F880F8072852B307C832B927086
:10225000906631E035B928B98BB99EB987E881BB62
:102260004FBF089596EC91BB469A582F56955695B8
:1022700056958295880F807E462F440F362F3695CF
:10228000242F26702064962F991F9927991F292B98
:102290006071942F990F9072962B407C942B327022
:1022A000832B55B928B99BB98EB987E881BB85E0E6
:1022B0008A95F1F700000895CF93DF93AADCC82F29
:1022C000D0E0A7DC382F20E0C22BD32B60E081E0E8
:1022D000C9DF60E081E0C6DF61E082E0C3DF60E08B
:1022E00082E0C0DFC095D095CE01DF91CF910895F7
:1022F0006095E9E7F8E19081982B6923608386EC8B
:1023000081BB469A362F330F962F9695262F221F84
:102310002227221F832F8670282B20646071832F31
:10232000880F8072862B307C832B9270906C31E00A
:1023300035B928B98BB99EB987E881BB85E08A9504
:10234000F1F70000E8E7F8E180818F5F808308956E
:10235000CF92DF92EF92FF920F931F93CF93DF9371
:1023600090E040E452E46FE070E0F6ECE0EEC7E0AD
:10237000DC2EEE24E394D0E4FD2E00E217E4D7EE49
:10238000C7EFB2EE05C0411551056105710571F148
:10239000F1BB469AE7B9DAB8EDB9E5B8F8B81BB8B9
:1023A0000EB911BB22E02A95F1F700C0A6B1C9B061
:1023B000CCB0F1BB479AD7B9CAB9BDB941505109A0
:1023C00061097109A2FB222720F930E082179307E7
:1023D000D1F6452B462B472B49F0DF91CF911F912A
:1023E0000F91FF90EF90DF90CF900895DF91CF9104
:1023F0001F910F91FF90EF90DF90CF9004CCDF9270
:10240000EF92FF920F931F93CF93DF9390E040E4FE
:1024100052E46FE070E0F6ECE0EE17E0D12EEE242F
:10242000E39400E4F02E00E217E4D7EEC7EFB2EE3B
:1024300005C0411551056105710569F1F1BB469A69
:10244000E7B9DAB8EDB9E5B8F8B81BB80EB911BB01
:1024500022E02A95F1F700C0A6B1A9B1ACB1F1BB59
:10246000479AD7B9CAB9BDB9415051096109710933
:10247000A1FB222720F930E082179307D1F6452BE4
:10248000462B472B41F0DF91CF911F910F91FF9089
:10249000EF90DF900895DF91CF911F910F91FF9002
:1024A000EF90DF90B0CBCF93DF93E0E8FDE0808149
:1024B000C2E8DDE0688190E070E00E94E251A09106
:1024C000830DB091840DA80FB91F2C913FB7F894DC
:1024D000808190E00196688170E00E94E2518083E3
:1024E0003FBF822FDF91CF91D1CB0F931F93072F47
:1024F000069510E00F771127282F2F774091A4140D
:102500004F704069E0917B19F0917C1963E070E0B5
:102510008BE799E109951F910F9108950F93262F4D
:102520004F772F778F708068E0917B19F0917C193D
:10253000042F482F63E070E08BE799E109950F9134
:102540000895EF92FF920F931F93CF93DF93EC01C7
:10255000162FF42EE22E8091A019843071F1C23032
:10256000D10509F453C0C330D10571F1C130D10593
:10257000F9F1C430D105C8F5E0919719F091981997
:10258000309739F00E2D2F2D412FBE018BE799E1A9
:102590000995E0919919F0919A19309739F00E2D1B
:1025A0002F2D412FBE018BE799E10995DF91CF9146
:1025B0001F910F91FF90EF900895E0919519F09180
:1025C00096193097F9F6D8CF862F807F803A09F494
:1025D0008DC008F041C0803809F456C0803961F6DA
:1025E000E0917F19F091801942C0C0E0D0E0C4CFE3
:1025F000683F50F1E0919119F0919219309709F4E8
:10260000BBCF612F8BE799E10995C3CF862F807FE0
:10261000803D09F455C0803F09F440C0803C09F07A
:10262000ABCFE0918919F0918A19309709F4A4CFC2
:10263000133F09F43FC0113FE9F1612F6F704F2D37
:102640008BE799E10995A5CF663F09F095CFE09119
:102650009319F0919419D2CF803ED9F0803FA9F11F
:10266000803B09F089CFE0917D19F0917E19309778
:1026700009F482CF123F99F1612F6F702E2D4F2DEB
:102680008BE799E1099585CFE0918119F091821945
:10269000EECFE0918519F0918619E9CF633F59F1AA
:1026A000613F09F069CFE0918F19F091901930974F
:1026B00009F462CF4F2D612F8BE799E1099569CF1E
:1026C000E0918B19F0918C19B0CF623F09F054CF93
:1026D000E0918719F0918819309709F44DCF2E2D8C
:1026E0004F2D62EF8BE799E1099553CFE091831964
:1026F000F0918419BCCFE0918D19F0918E1930972B
:10270000C9F63ACF21E020934D0A0097A9F0109224
:102710004C0ABC0183E59AE00E94F655E2E5FAE036
:1027200001900020E9F7E355FA40EE5AF54F80E2B8
:1027300090E09183808308958FEF80934C0A0895F1
:1027400080917A13882319F0815080937A13089529
:1027500010928F0F1092900F1092910F1092920F73
:102760008FEF8093F40F80936C138FEF9FEFDC015A
:1027700080936D1390936E13A0936F13B0937013A7
:1027800008958F929F92AF92BF92CF92DF92EF9275
:10279000FF920F931F934A015B0168017901BC010D
:1027A00080E090E00E9426539058A50194010E9479
:1027B00061520E94CE52A70196010E94AA540E9423
:1027C000FA52CB011F910F91FF90EF90DF90CF90C5
:1027D000BF90AF909F908F9008950F931F93E4E860
:1027E000FAE090E02191922B2AE0E439F207D1F748
:1027F00031E0911101C030E0ECE9FBE090E0208194
:10280000922B3C962BE0E43EF207C9F791110BC0E6
:102810004FEF5FEFBA014093ED125093EE126093C9
:10282000EF127093F012332321F09091CE1699237A
:10283000D1F03093CE16882399F080914113909176
:10284000421300E010E42CE135E440E050E86BE393
:1028500076E48095909595DF9093F2128093F11233
:102860001F910F9108954091870D5091880D6091AF
:10287000890D70918A0D4093ED125093EE12609382
:10288000EF127093F012D5CF0F931F93CF93DF9376
:10289000EC018A899B8900E01FEF2FE737E440E0D5
:1028A00050E26BE476E4809590956BDFAC0160E0DC
:1028B00070E0088C04C0440F551F661F771F0A94F0
:1028C000D2F7488759876A877B87DF91CF911F911D
:1028D0000F910895CF93DF93EC017B8B6A8BD4DF4C
:1028E000A98DBB27A1950CF4B095AA0FBB1F11961B
:1028F000288539854A855B850E948D566C877D8742
:102900008E879F87DF91CF910895AC01AA27469FBC
:10291000B12D579F9001749FB00D211D3A1F569FF6
:10292000B00D211D3A1F1124C9010895A72F8F3F13
:10293000F9F0282F2F5F30E0220F331FE82FF0E04F
:10294000EE0FFF1FE40FF51F60817181FA01E20FA6
:10295000F31F80819181861B970B892F9927A89F50
:102960009001A99F300D1124260F371FC90108952A
:102970002EEF31E0E3CF8F929F92AF92BF92CF9232
:10298000DF92EF92FF92CF93DF93EC01CC80DD805A
:10299000EE80FF808F2D9927AA27BB27892B8A2BB2
:1029A0008B2B09F051C08A8D8C849D84AE84BF84AA
:1029B000833009F470C068F5813009F498C08C89BF
:1029C0009D89C80CD91CEA1CFB1CCC82DD82EE82DE
:1029D000FF82BC01705848895989AA27649FB12D8C
:1029E00075039001569FB00D211D3A1F74033A0BD9
:1029F000B00D211D3A1F11242E8B3F8BDF91CF91FB
:102A0000FF90EF90DF90CF90BF90AF909F908F900E
:102A10000895843009F447C0853009F0D0CFB7015C
:102A2000A601E9E07695679557954795EA95D1F720
:102A3000CA015D8B4C8B298D222309F4C2CF80956E
:102A400090959D8B8C8BBDCFE1E0898DE81BE98F44
:102A5000E11155C0C12CD12C7601CC82DD82EE82F1
:102A6000FF82FF27E1950CF4F095DF01AA0FBB1F51
:102A70001196288539854A855B850E948D564B01C4
:102A80005C016C877D878E879F878A8D81113DC011
:102A9000FD8BEC8B94CF4EEC54E1C701B60146DFC1
:102AA0009D8B8C8B8ECF2B8922952F7048815981DD
:102AB0006A817B81972F440F551F661F771F892FCF
:102AC000881F8827881F392F3295369537708327BE
:102AD0008927969589278170482B215058F748837C
:102AE00059836A837B83CA015D8B4C8B6ACF7727BE
:102AF0006F2D5E2D4D2DCA015D8B4C8B62CFCC248A
:102B0000CA94DC2CEC2CF12CA8CF823009F050CFE9
:102B10000E9448567D8B6C8B8A8D8C849D84AE84FC
:102B2000BF84CC80DD80EE80FF8042CFEF92FF92A9
:102B30000F931F93CF93DF93F82EEFB6F89484E7AB
:102B4000E5EFF2E1DF011D928A95E9F780E090E878
:102B5000909314138093131390931A138093191363
:102B60002FEF3FEF30931E1320931D1390932213EA
:102B70008093211330932E1320932D13309312132F
:102B80002093111390933E1380933D1390934A1317
:102B900080934913909344138093431385E080936B
:102BA000081381E080930913809302138093041328
:102BB00080930A1382E080930B1346E050E06FEF9E
:102BC00070E08BE493E10E94E45501E513E1C0E07D
:102BD000D0E0BE01882777FD8095982F0E9428536A
:102BE0002BEA3AEA4AEA55E40E94AA540E94FA52B1
:102BF000F801619371938F012196CC30D10549F78B
:102C0000F11008C0EFBEDF91CF911F910F91FF909F
:102C1000EF90089581E08093F512EFBEDF91CF91A0
:102C20001F910F91FF90EF9008958F929F92AF9216
:102C3000BF92DF92EF92FF920F931F93CF93DF9398
:102C40009C01862E912C8114910409F445C081E0E9
:102C5000881A9108A12CB12CAFEF8A1A9A0AAA0AF5
:102C6000BA0ABA2CA92C982C882480E090E0DC01C8
:102C7000A90160E070E0403E51056105710510F565
:102C80005F5F6F4F7F4F762F652F542F4427FCE8EF
:102C9000EF2EFDE0FF2EE80EF91EC0E0D0E000E0D0
:102CA00010E06BBFFA01D790F701E00FF11FD0825F
:102CB00021968E014F5F5F4F6F4F7F4FC115E1E04F
:102CC000DE0779F72F5F3F4F9F5FAF4FBF4F8815EC
:102CD0009905AA05BB0561F610928E0F80918C0DA7
:102CE00090918D0DA0918E0DB0918F0D20E93DE05A
:102CF00030938D0F20938C0F853A9641A146B105F4
:102D0000B9F42091900D81E99DE090938D0F80930F
:102D10008C0F20938E0F81E0DF91CF911F910F9147
:102D2000FF90EF90DF90BF90AF909F908F900895AD
:102D300080E092E0ECE8FDE0DF019C011D92215073
:102D40003040E1F780E0E8CFEF92FF920F931F93BE
:102D5000CF93DF93E82EEB01FFB6F89461E065DFD7
:102D6000ECE8FEE040E051E004C0A9012115310586
:102D7000F9F09A012150310992919923B1F39A0106
:102D80008A010F5F1F4FE092E116E2EEF6E18CE858
:102D90009DE0A901BC01CF010E94CA551983088397
:102DA000FFBEDF91CF911F910F91FF90EF9008959B
:102DB00001E010E020E030E0E6CF1F93CF93DF93F7
:102DC0001FB7F89461E031DF882309F496C080E0F2
:102DD000ADDE10924B138FEF80934C1380934D1305
:102DE00080934E1380934F138093501330918E0F26
:102DF000332309F47CC0C0918C0FD0918D0F20E05B
:102E000089919991E22FF0E0EE0FFF1FE15FFC4EF8
:102E1000918380832F5F293199F7C0938C0FD093D2
:102E20008D0F80E09991DE01D0938D0FC0938C0FB0
:102E3000E82FF0E0EB50FD4E90838F5F873191F7E4
:102E40008091051380930E13323008F450C08D9199
:102E50009D91E22FF0E0EE0FFF1FE15FFC4E9183AA
:102E600080832F5F2E3199F7B0938D0FA0938C0F35
:102E7000FD018191F0938D0FE0938C0F80930C13E3
:102E800011968C911197ED012296D0938D0FC093DE
:102E90008C0F80930D13EBE4F3E18991D0938D0FA8
:102EA000C0938C0F819383E1E135F807B1F78091EE
:102EB000A9149091AA1490934A1380934913373020
:102EC000B0F0FD013896C1E5D3E1909681919191E2
:102ED00089939993EA17FB07C9F7F0938D0FE09355
:102EE0008C0F1FBF81E0DF91CF911F91089581E08A
:102EF0001FBFDF91CF911F91089580E01FBFF9CFD1
:102F0000ECE8FDE080E092E0DF019C011D922150A1
:102F10003040E1F727E020938E0F85EA96E1A1E6A5
:102F2000B0E080839183A283B383248381E99DE011
:102F300090938D0F80938C0F0895833061F08931C9
:102F400051F08F3141F091E08F3019F0803109F06C
:102F500090E0892F089591E0892F08958F929F9294
:102F6000AF92BF92EF92FF921F93CF93DF93109295
:102F70008B0DC0E0D0E014E26C2F772767FD7095D1
:102F8000872F972F0E9428534B015C012DEB3EE1C8
:102F900040EC55E40E94AA5420E030E44CE955E4AA
:102FA0000E94F6510E94FA527B0121E33CE043E487
:102FB00055E4C501B4010E94AA5420E030E44CE17C
:102FC00056E40E94F6510E94FA521C9FF0011D9F88
:102FD000F00D1124E258FC4E86E0E192F192F38666
:102FE000E286778B668B8150C1F72196C830D10578
:102FF00019F6DF91CF911F91FF90EF90BF90AF90A6
:103000009F908F900895DF92EF92FF920F931F93FE
:10301000CF93DF93E82FD62E6BEA869F612D112484
:10302000669566956695F62FFF5F50E0683008F06C
:1030300071C0862F90E0880F991FEC01CC0FDD1F27
:10304000CC0FDD1FCC0FDD1FC80FD91FC40FD51F3C
:10305000CC0FDD1FC258DC4E0990D881C02DF8304E
:1030600008F47DC0DA01AA0FBB1FA658BB4E0D9114
:103070001C91DA01AA0FBB1FAA5ABB4E8D919C91DD
:103080009801281B390BAF2FB0E017970E94CD5144
:10309000600F711F811D911D6115710521E082076F
:1030A000910508F072C09BEAE99F912D1124969535
:1030B00096959695892F880F890F880F880FE81BA2
:1030C000F0E0EE0FFF1FEF5AFC4EE080F1808B0125
:1030D0000C1B1D0B8D2D90E0A0E0B0E06627782F33
:1030E000892F9A2F2CE030E040E050E00E94CE562D
:1030F0002E0D3F1D411D511DD8010E948356C80F42
:10310000D91FCE01DF91CF911F910F91FF90EF90CA
:10311000DF900895EA01CC0FDD1FC658DB4E099001
:10312000D881C02DDA01AA0FBB1FAA5ABB4E8D91C0
:103130009C919E01281B390BA62FB0E017970E9487
:10314000CD516C0F7D1F811D911D6115710521E011
:1031500082079105F8F4EB01F83008F083CF8F2F48
:1031600090E0880F991FDC01AA0FBB1FAA0FBB1F9D
:10317000AA0FBB1FA80FB91FA40FB51FAA0FBB1F13
:10318000A258BC4E6D917C918ECF6FEF7FEF80E0A7
:1031900090E089CF6FEF7FEF80E090E0EB01DCCF34
:1031A000EF92FF920F931F93CF93DF9380E0E82F6E
:1031B000F0E0EE0FFF1FEC53FD4E118210828F5F87
:1031C0008231A9F71092E9121092E8128091091346
:1031D000823009F44FC0833099F1813039F0DF91AA
:1031E000CF911F910F91FF90EF9008950091C2121F
:1031F0001091C312E0900813EE0CF12C4F2D60E0FB
:103200008E2D01DFEC014F2D60E080E0FCDE9E01A1
:10321000281B390BEF2DF0E0EE0FFF1FEC53FD4E96
:10322000D8010E94CD5191838083F3948CE0F812F1
:10323000E5CFDF91CF911F910F91FF90EF9008950F
:1032400020910813A091C212B091C31230E00E94E5
:10325000CD519B01AC01A5E5B5E10E948356909349
:10326000E9128093E812DF91CF911F910F91FF90A7
:10327000EF90089520910813A091C212B091C3124B
:1032800030E00E94CD519B01AC01A5E5B5E10E9463
:103290008356BB2797FDB095AB2F9093DD1280939B
:1032A000DC129093DF128093DE129093E1128093F0
:1032B000E0129093E3128093E2129093E5128093D0
:1032C000E4129093E7128093E612DF91CF911F9161
:1032D0000F91FF90EF90089520913C1030913D1098
:1032E0002F3F8FEF380791F080913A1090913B106B
:1032F000019690933B1080933A108217930730F019
:1033000010923B1010923A1081E0089580E00895E9
:103310000F931F93CF93DF93FC018BE1DF011D928D
:103320008A95E9F70EEC14E160E070E080E89FEB2D
:10333000C0E0D0E01BC0BE01882777FD8095982FA4
:103340000E94285320E030E04FE753E40E9461528E
:1033500020E030E040E85FE30E94F6512BED3FE0D3
:1033600049E450E40E94AA540E945E5220E030E0FA
:1033700040E85FE30E94F65120E030E040E05FE388
:103380000E94AA5420E03FEF4FE757E40E94AA545E
:103390000E94FA52F801619371938F012196C11531
:1033A000F1E0DF0741F6DF91CF911F910F91089572
:1033B00021E030E002C0220F331F8A95E2F7D901E5
:1033C000A095B0958091430A9091440A8A239B234B
:1033D0009093440A8093430AE091450AF091460A8B
:1033E000EA23FB23F093460AE093450A662371F033
:1033F000822B932B9093440A8093430A442331F009
:103400002E2B3F2B3093460A2093450A089524E63D
:1034100030E040E050E00E94A7562AE030E040E073
:1034200050E00E94A756605D205D30E020383105F5
:1034300088F4F901EC5AF94F80818093470A70E0D3
:103440006038710570F4FB01EC5AF94F808180936C
:10345000480A08958FEF8093470A70E0603871053D
:1034600090F38FEF8093480A089590E0803891059B
:1034700088F4FC01EC5AF94F80818093470A70E090
:103480006038710570F4FB01EC5AF94F808180932C
:10349000480A08958FEF8093470A70E060387105FD
:1034A00090F38FEF8093480A08951F93CF93DF9393
:1034B0001FB7F89453DD0E94133E109236101092FD
:1034C000351010921E1010921D10CFEFDFEFD09329
:1034D0001210C09311101092201010921F10D09350
:1034E0001410C09313101092221010922110D09338
:1034F0001610C09315101092241010922310D09320
:103500001810C09317101092261010922510D09307
:103510001A10C09319101092281010922710D093EF
:103520001C10C0931B10809139108160809339105A
:103530000E940C11D0932C10C0932B1010922E10BF
:1035400010922D10C0E06C2F6E5E8C2F0E94F73F02
:10355000CF5FC630C1F7809139108E7F80933910CC
:103560000E940C11809139108860809339100E945C
:103570000C1110922C1010922B108FEF9FEF909344
:103580002E1080932D106C2F645F8C2F0E94F73FBC
:10359000CF5FCC30C1F780913910877F809339108D
:1035A0000E940C1110922C1010922B1010922E10C1
:1035B00010922D108FEF9FEF90933610809335105F
:1035C00010921210109211101092141010921310E9
:1035D00010921610109215101092181010921710C9
:1035E00010921A101092191010921C1010921B10A9
:1035F0006C2F6A5F8C2F0E94F73FCF5FC231C1F7FB
:10360000109236101092351010921E1010921D104C
:103610001092201010921F10109222101092211060
:103620001092241010922310109226101092251040
:1036300010922810109227100E94863D1092470A7F
:103640001092480A1092440A1092430A1092460AB5
:103650001092450A10924D0A5AD01FBFDF91CF91A8
:103660001F9108958F929F92AF92BF92CF92DF9257
:10367000EF92FF920F93CF93DF93EC0180918C0F29
:1036800090918D0F8C589D4081309240A0F5862EF0
:10369000912C8114910479F181E0881A9108A12C70
:1036A000B12C2FEF821A920AA20AB20ABA2CA92CC4
:1036B000982C8824C12CD12C7601CE01A0E0B0E05A
:1036C000803E9105A105B10560F4A6014457524F13
:1036D0009F5FAF4FBF4F6627782F892F9A2F0E9489
:1036E00000F821968FEFD81AE80AF80AC814D9040E
:1036F000EA04FB0411F7DF91CF910F91FF90EF9057
:10370000DF90CF90BF90AF909F908F9008950F93D0
:103710001F93CF93DF931FB7F894F2DBC0918C0F08
:10372000D0918D0FAE0160E070E004E2069FF001E1
:10373000079FF00D1124E258FC4E80E090E02191AB
:103740003191DA01A80FB91F2D933C930296843270
:103750009105A9F76F5F7F4F4C5D5F4F6830710532
:1037600029F78091A0149091A114FE01E05EFE4F14
:1037700091838083FE01EE5DFE4F80919E149091B7
:103780009F1491838083CC5DDE4FD0938D0FC093C7
:103790008C0F8091A2148883E0918C0FF0918D0F93
:1037A000CF01019690938D0F80938C0F8091A3147D
:1037B0008183E0918C0FF0918D0FCF010196909352
:1037C0008D0F80938C0F8091A5148183E0918C0FD5
:1037D000F0918D0FCF01019690938D0F80938C0FF8
:1037E0008091A4148183E0918C0FF0918D0FCF0113
:1037F000019690938D0F80938C0F8091A6148183F6
:10380000E0918C0FF0918D0FCF01019690938D0F69
:1038100080938C0F8091A7148183E0918C0FF0919D
:103820008D0FCF01019690938D0F80938C0F809117
:10383000A8148183E0918C0FF0918D0F8091491332
:1038400090914A139093AA148093A9149283818330
:103850003396F0938D0FE0938C0F62E08CED90E047
:1038600001DF1FBFDF91CF911F910F910895CF927C
:10387000DF92EF92FF920F931F93CF93DF9300D0CD
:10388000CDB7DEB78091FF12182F110F180F1F5FF1
:103890008091FE12809350128091361290913712CF
:1038A000A0913812B0913912892B8A2B8B2B51F4AD
:1038B0006091870D7091880D8091890D90918A0D8E
:1038C0000E944B560E9448566093361270933712EE
:1038D000809338129093391280914E12181709F183
:1038E00010934E1286E392E10E944414A0914F126D
:1038F000BB27A1950CF4B095AA0FBB1F1196209180
:103900003E1230913F1240914012509141120E945C
:103910008D56609342127093431280934412909399
:1039200045128091ED129091EE12A091EF12B0919C
:10393000F0128F3F2FEF9207A207B20709F4B3C02E
:1039400020914113309142132115324008F074C088
:103950004FEF5FEFE090C012F090C11200900A1399
:1039600002C0F694E7940A94E2F78091391390919B
:103970003A13811562E0960708F4E7C09C013250C3
:1039800080914513909146139695879596958795C6
:103990008115E2E09E0708F489C08C0112508091E5
:1039A0000C13882309F488C0AA27249FB12D359FC2
:1039B000C001529FB00D811D9A1F349FB00D811D13
:1039C0009A1F112460913713709138138093461217
:1039D0009093471280914812909149126817790785
:1039E00021F086E392E10E946A14C80180959095C7
:1039F0008E159F0508F0ACC00FEF1FEF60914313C9
:103A000070914413109362120093611280916312BB
:103A1000909164126817790709F48CC081E592E1EE
:103A20000F900F90DF91CF911F910F91FF90EF902A
:103A3000DF90CF900C946A142091F1123091F21221
:103A400040E050E0820F931FA41FB51FC090870D68
:103A5000D090880DE090890DF0908A0DC816D90697
:103A6000EA06FB0600F1C090870DD090880DE0902B
:103A7000890DF0908A0DC81AD90AEA0AFB0AC21603
:103A8000D306E406F50608F063CF9E2D8D2D7C2D20
:103A900066270E94CE56F901EE0FFF1FE05EFC4F35
:103AA0004081518157CF40E050E054CF00E010E01A
:103AB00080910C13811178CFC901809590958E1556
:103AC0009F0508F048C02FEF3FEF609137137091CA
:103AD00038133093471220934612809148129091E8
:103AE00049126817790741F086E392E149835A83C6
:103AF0000E946A145A814981AA27049FB12D159FFB
:103B0000C001509FB00D811D9A1F149FB00D811DE3
:103B10009A1F112460914313709144138093611292
:103B200090936212809163129091641268177907E2
:103B300009F074CF0F900F90DF91CF911F910F91EB
:103B4000FF90EF90DF90CF90089520E030E018CF05
:103B50000E0D1F1D53CF2E0D3F1DB7CFAF92BF923D
:103B6000CF92DF92EF92FF920F931F93CF93DF9349
:103B700000D0CDB7DEB76C017B0180917D13811140
:103B800059C0042F017040FD48C0142F127041FD30
:103B90003CC021110DC00F900F90DF91CF911F916C
:103BA0000F91FF90EF90DF90CF90BF90AF9008956E
:103BB000002351F08091CF169091D0168C259D2531
:103BC0008C7F892B09F0F1C0112329F38091D11644
:103BD0009091D2168E259F2588279E7F892BD9F21A
:103BE0000F2D06954091A4144F70406BE0917B1906
:103BF000F0917C1921E063E070E08BE799E1099591
:103C0000F092D216E092D116C6CFF092C112E09295
:103C1000C0122A832CDE2A81BCCFD092C312C0925C
:103C2000C2122A834983BCDA6FEF81E0C9D7498188
:103C30002A81ABCF60E070E05FEFFB01EE0FFF1F6A
:103C4000E60FF71FEE0FFF1FEE0FFF1FEC56F44FAE
:103C500092859923F1F0852F992787FD9095DC01B6
:103C6000AA0FBB1FA80FB91FAA0FBB1FAA0FBB1F0C
:103C7000AC56B44F00811181228133818D919D9189
:103C80000D90BC91A02D80179107A207B30708F4EF
:103C9000562F6F5F7F4F6630710579F65F3F09F4ED
:103CA0007ACF852F992787FD9095FC01EE0FFF1F96
:103CB000E80FF91FEE0FFF1FEE0FFF1FE556F44F41
:103CC000808140FD68CF41FF66CF1BEA819F112DA7
:103CD0001124169516951695912F990F910F990FFE
:103CE000990F182F191BB70180E090E00E9426530E
:103CF00020E830E040E857E30E94AA546B017C01C1
:103D0000612F70E080E090E00E94265320E030E0D8
:103D100040E05FE30E94F5519B01AC01C701B60191
:103D20000E94F651D62EE72EF82E092F20E030E023
:103D3000A9010E945A5287FD55C020E030E040E4BE
:103D400051E46D2D7E2D8F2D902F0E943654181624
:103D50002CF4D12CE12C90E4F92E01E4A12EB12C0D
:103D6000AA0CBB1C81E593E1A80EB91E2BEA3AEA26
:103D70004AEA55E46D2D7E2D8F2D902F0E94AA5476
:103D80000E94FA52F501718360830ADA6FEF81E0D5
:103D90000F900F90DF91CF911F910F91FF90EF90B7
:103DA000DF90CF90BF90AF900BC7C60190589C0199
:103DB0003595279535952795092F06952F77332724
:103DC0004091A4144F70406EE0917B19F0917C19E2
:103DD00063E070E08BE799E10995D092D016C0922C
:103DE000CF16F2CED12CE12CF12C00E0B7CF809190
:103DF000A31487FD09C06F7070E0992787FD909527
:103E00006817790709F0089580E8289F9001112428
:103E1000242BC901905220E041E060E070E0880F5F
:103E2000991F880F991F9ACE4F925F926F927F923F
:103E30008F929F92AF92BF92CF92DF92EF92FF92BA
:103E40000F931F93CF93DF9380919E1490919F14B3
:103E50009093010180930001C0900401D09005016E
:103E60007C01EC18FD08C80ED91EC0910201D0914A
:103E7000030197012C1B3D0B40E050E0812C912C5D
:103E8000A12C60E8B62EC501B4010E94CE562901CE
:103E90003A012093060130930701409308015093A3
:103EA00009018E010095109598012C193D0940E0FB
:103EB00050E0C501B4010E94CE5649015A01209339
:103EC0000A0130930B0140930C0150930D01809136
:103ED000D30F9091D40F08171907B8F48FEF9FE70D
:103EE00020E041E060E070E0DF91CF911F910F9101
:103EF000FF90EF90DF90CF90BF90AF909F908F900A
:103F00007F906F905F904F9029CE8C179D07C0F0E7
:103F1000AC0160E070E08E159F0530F0C816D90640
:103F200090F080E090E0DCCFCB01BA016C1B7D0B00
:103F300081099109A30192010E94D3519058D0CFD9
:103F400080E090E8CDCF9A01AB012C193D094109E1
:103F50005109C501B4010E94D35190589058C0CF67
:103F6000CF93DF93CDB7DEB728970FB6F894DEBFB7
:103F70000FBECDBF92E09D8394E09E8397E09F8328
:103F80009CE0988795E0998393E09A8391E09B83E6
:103F90001C828230D9F1CCF0843009F461C06CF518
:103FA000DB01CA0181709927AA27BB2721E082275C
:103FB000809302134270552766277727759567957A
:103FC000579547954093031304C0882359F08130D7
:103FD00091F128960FB6F894DEBF0FBECDBFDF91EA
:103FE000CF910895440F551F661F771F8091FE12D1
:103FF0008170842B8093FE12ECCF853051F7FE0147
:10400000E40FF51F818180930A13E3CFDB01CA011E
:1040100081709927AA27BB2721E082278093041368
:104020004270552766277727759567955795479569
:1040300040930E13CECF809100138B7C41305105FD
:1040400061057105E1F04230510561057105E9F046
:104050004330510561057105B1F080930013B9CF6C
:10406000FE01E40FF51F85818093081328960FB693
:10407000F894DEBF0FBECDBFDF91CF91D5CE80616A
:1040800080930013A6CF8460E8CF806280930013F2
:10409000A0CF2F923F924F925F926F927F928F921A
:1040A0009F92AF92BF92CF92DF92EF92FF920F93C7
:1040B0001F93CF93DF93CDB7DEB760970FB6F89419
:1040C000DEBF0FBECDBF80902D1390902E139C8627
:1040D0008B86A0902513B0902613BE86AD86212C2A
:1040E000312CF3C083E0EF85F88980A7CF010E94CF
:1040F000CB3490910313992309F40CC183E0ED8133
:10410000FE8180A7CF010E94CB349091A714992300
:1041100009F4FCC01595812F992787FD909501968C
:1041200020FEFAC04FEF5FEF849F9001859F300D16
:10413000949F300D1124922F8827AC01662757FDDC
:104140006095762F80913113909132134A015B0173
:10415000880E991EA11CB11CD501C401B7FCF5C085
:1041600020912F13309130136A017B01C20ED31EB0
:10417000E11CF11CF7FCE5C020912B1330912C13AE
:104180004A015B01820E931EA11CB11C89829A8296
:10419000AB82BC82B7FCD0C02091291330912A1386
:1041A0004A015B01820E931EA11CB11CB7FCC0C06A
:1041B00020912713309128132A013B01420E531EF0
:1041C000611C711C77FCB0C0009123131091241363
:1041D000F8018A019B010E0F1F1F211D311D0F8346
:1041E000188729873A8737FD9AC009811A812B8160
:1041F0003C8101151105F1E02F07310524F00FEF87
:104200001FEF20E030E0C982DA82EB82FC82C11429
:10421000D10441E0E406F10444F04FEF5FEF60E0C9
:1042200070E049835A836B837C83BC01CD016115A7
:10423000710551E08507910524F06FEF7FEF80E075
:1042400090E09FE0C92EE12CF12C2B853C85498123
:104250005A818F8598890E94C0350F8118852985DC
:104260003A850115110561E02607310524F00FEFAD
:104270001FEF20E030E0B301A2014114510481E0BE
:104280006806710424F04FEF5FEF60E070E0811486
:10429000910491E0A906B1042CF088248A94982C0A
:1042A000A12CB12CBFE0CB2EE12CF12C2D853E852D
:1042B000B4018D819E810E94C035EFEF2E1A3E0A17
:1042C000F6E02F16310409F444C0122D5AE2B52E3F
:1042D000B29CC001B39C900D11249C01265C3E4E03
:1042E000388B2F8720910413EF85F88926A39C0132
:1042F000225C3F4E3E832D8390910213F90196A3D9
:1043000090910E139111EECE81E0EDCE40E050E0A1
:10431000BA0118CF81E0F3CE41E050E005CF1F8213
:10432000188619861A8661CF412C512C32014CCF48
:10433000812C912C54013CCF19821A821B821C8241
:104340002BCFC12CD12C760117CF80E090E0DC017F
:1043500007CF60960FB6F894DEBF0FBECDBFDF91DA
:10436000CF911F910F91FF90EF90DF90CF90BF9072
:10437000AF909F908F907F906F905F904F903F9005
:104380002F900895CF92DF92FF920F931F93CF93B8
:10439000DF931F92CDB7DEB781E00E94ED130E943C
:1043A0007E348091061381114DC00E940642109107
:1043B000A5148091E30B181721F081E04ED21093E1
:1043C000E30B109107138091E20B181731F081E095
:1043D00044D21330A8F51093E20B49DA5ADE0E945A
:1043E000D018F090A81464EBC62E62E1D62E2CE013
:1043F0000FEF1FEF09C0F601118300832F5FF2E07A
:10440000CF0ED11C223191F0FF20A9F3422F60E0A2
:104410008EE729830E940318F60191838083298106
:104420002F5FF2E0CF0ED11C223171F70F90DF9198
:10443000CF911F910F91FF90DF90CF900C94A431FA
:1044400010E0C9CF61E08BE493E12BD2B0CFCF93E2
:10445000DF932091A31427FD0BC06F7070E033270A
:1044600027FD30956217730719F0DF91CF910895FA
:104470008091A2148823C9F34436B8F7C42FD0E042
:104480008091A0149091A114C817D90771F3CE019F
:104490000E94DD16882349F3D093A114C093A01481
:1044A00010926B1334D9DF91CF916CCFE82FF0E0ED
:1044B000ED53F64F90819170803209F456C078F038
:1044C000843209F44CC0A0F1863209F445C008F0EA
:1044D00058C09093FC1281E080936B1353CF8C31C2
:1044E000C8F08C3109F444C08091E009817090914A
:1044F00000139473892B9091E10990FD47C090E0DF
:10450000892B9091E20990FF45C092E0892B80931E
:104510000013E1CF8A31A8F08091DE09817090917B
:10452000DD0990FD35C090E0892B80930113D3CF36
:104530008232C1F018F09093F812CDCF9093F6121A
:10454000CACF883131F0893109F008959093FA1279
:10455000C2CF9093F712BFCF9093FD12BCCF909330
:10456000F912B9CF9093FB12B6CF9093F512B3CF57
:104570009091DF098091FE1290FB80F98093FE12EA
:10458000AACF873211F790930613A5CF98E0B8CF42
:1045900092E0CACF90E0BACFCF938091A214882343
:1045A000D1F08091A0149091A1140E94DD1688236F
:1045B000C1F08091A2148823D9F00E94A813109210
:1045C0006B1381E09091A214911101C080E080935F
:1045D0006913CF9108958BED90E00E94DD16811153
:1045E000E8CF81E00E9496158091A2148111E5CF59
:1045F000C8E18C2F5BDFCF5FC832D9F781E00E9422
:104600009240DBCFCF93DF93C42FD22F8091A3149E
:1046100087FD0BC06F7070E0992787FD9095681734
:10462000790719F0DF91CF910895C11135C020911C
:10463000A214D23008F481C02223A1F38C2F805120
:104640008E3198F18C2F80558E3108F04FC0EC2FB1
:10465000F0E0EE0FFF1FE159FD4E408151812D2FFB
:1046600030E0CA0196958795969587958F7799271B
:1046700082179307B9F2CA0188279E7F220F331F42
:10468000220F331F822B932B9183808381E08093B1
:104690006B13DF91CF9176CEC13009F461C0C03485
:1046A00009F469C02091A214C7CFEC2FF0E0EE0FFF
:1046B000FF1FE151FD4E808191812D2F30E0AC0133
:1046C000452F552746954217530709F4ABCF8C7FEA
:1046D0009170322F2227330F822B932B918380836B
:1046E00081E080936B13DF91CF914CCE8C2F805360
:1046F0008A3108F097CFEC2FF0E0F0972D2F30E0C3
:10470000DF01AC52B94F4C9187E090E0841B9109D6
:1047100002C0359527958A95E2F7822FDF01AB50CD
:10472000BD4E9C91291709F43EC02C93C1E07197AE
:1047300061F1CC2309F476CFA9CF622F772767FDEB
:1047400070958D2F90E06817790709F475CFD09395
:10475000A2140E94871B20DF15DE2091A2146CCFCB
:104760007D2F770F20E042E060E080E090E0F6D916
:104770002091A21461CFD11104C0DF91CF910C948C
:10478000883681E08093E50B4DCF882371F00E943D
:10479000244286E0ECEDFBE0ABE4B3E101900D9246
:1047A0008A95E1F7C6CFC0E0C2CF0E940642F1CFA2
:1047B0008091A614813009F008956A3FB1F06C3FF2
:1047C00041F0683FC9F78091F3128F5F8093F31235
:1047D00008958091E60B823089F180916E0C8230D1
:1047E00059F78EE69CE00C94F43A8091E60B823007
:1047F00079F11092690C1092680C8FEF9FEF9093F3
:104800006B0C80936A0C80916E0C8230E1F01092F8
:10481000F10C1092F00C8FEF9FEF9093F30C8093BC
:10482000F20C90937A0D8093790D8FEF9FE7909320
:104830003B1080933A101092F312089586EE9BE09D
:104840000E94F43ACACF8EE69CE00E94F43ADFCF91
:1048500086EE9BE00E94F43ACCCFEEE9FBE09FEFBE
:10486000DF0112971C921082DF0113979C93DF01E6
:1048700014979C93DF011A971D921D921D921C9212
:1048800013973C962BE0E63EF20751F7811101C0E9
:10489000089580E1E4E8FAE0DF011D928A95E9F7E6
:1048A00008951F93CF93DF93182FD92FC62F809190
:1048B000E40B8617F1F080E0D0DFC093E40B46E014
:1048C00050E06FEF70E08CED9BE00E94E455E12F2B
:1048D000FD2FACEDBBE080E091919F3FB9F09D933F
:1048E0008F5F8630C9F71092DC0BDF91CF911F915B
:1048F000089546E050E06CED7BE0812F0E94BD55AD
:104900000097D9F6DF91CF911F9108958111EBCFD8
:10491000ECEDFBE086E0DF011D928A95E9F7DF917F
:10492000CF911F910895CF93DF93FC01D62FCFB77E
:10493000F894218130E0C90101964281642F70E032
:104940000E94E251408150E08417950791F0A381C5
:10495000B481A20FB31FDC93818190E00196628144
:1049600070E00E94E2518183CFBF81E0DF91CF915F
:104970000895CFBF80E0DF91CF910895FC013FB74C
:10498000F89421819081291728F48281820F891B54
:104990003FBF0895822F891B3FBF0895AF92BF92FA
:1049A000CF92DF92EF92FF920F931F93CF93DF93FB
:1049B000082FD62EC0E0D0E088E8E82E98EEC92E69
:1049C000C00E2FE3F22E1FEFEC9EF001ED9EF00DD6
:1049D0001124EA51F44F8081833079F02196C2305E
:1049E000D10591F7DF91CF911F910F91FF90EF903B
:1049F000DF90CF90BF90AF9008950C3F09F45AC05C
:104A00000D3F09F46AC00E3F09F48CC0DD2091F11E
:104A10004091F80C842F8F5F8093F80C5F0161E860
:104A2000A60EB11CD5016C91862F90E02091F70C59
:104A3000DC01A20FB11DA038B10584F6442309F4AE
:104A40009EC0462F4150242F332727FD30952E5FDF
:104A50003F4F2E0F3F1FD9015E919D01752F7F7330
:104A6000C71609F4BBCF57FF03C0415047FFF3CF30
:104A700020E88DC08091F80C811177C05F0161E85A
:104A8000A60EB11CD5012C9130E02F5F3F4F2E0FA9
:104A90003F1F4091F70C50E06EE370E0C9010E94A7
:104AA000E4558091F70CF5019081890F8083109275
:104AB000F70C94CFDF01AF57BF4F1C92DF01AA570D
:104AC000BF4F1C921092F70C319640E850E06FEF08
:104AD00070E0CF010E94E45581CFDF01AA57BF4F9C
:104AE0008C91882309F47ACF81508C938091F70CB4
:104AF000811141C05F0161E8A60EB11CD5018C9106
:104B0000882309F46BCF8150D5018C939F01280F26
:104B1000311DD90111969C91119711961C9397FF05
:104B20005DCFEECF5F01B1E8AB0EB11CD5014C916A
:104B3000842F90E02091F70CBC01620F711D60384A
:104B400071050CF04BCF9F012A573F4FD9015C9163
:104B50005F5F5C932091F80C211122C0E80FF91FD0
:104B6000F1824F5FF501408339CF81508093F80C7B
:104B7000811134CF83CF81508093F70C2FCF9F01C9
:104B80002A573F4FD9014C914F5F4C9320E0E80FDB
:104B9000F91F822F8C2981836F5FF50160831ECFFF
:104BA0008091F70C8F5F8093F70C18CF211106C00E
:104BB000472F582F692F7727CA0108950C94961410
:104BC0002F923F924F925F926F927F928F929F921D
:104BD000AF92BF92CF92DF92EF92FF920F931F930B
:104BE000CF93DF93CDB7DEB7A0970FB6F894DEBFB3
:104BF0000FBECDBF8C87362E882309F49BC0E09171
:104C00001B13F0911C1340901D1350901E134091E4
:104C10000F1350911013809115139091161320913A
:104C20004713309148130091D10F1091D20F20906B
:104C3000011360910B131093D4160093D316F093C5
:104C4000D616E093D5165092D8164092D7165093A8
:104C5000DA164093D9169093DC168093DB163093C6
:104C6000DE162093DD162092DF166093E016000F0B
:104C7000012F001F110B11951A95EE0FEF2FEE1F4C
:104C8000FF0BF1955F01BA94612C712C73016201E5
:104C9000CC0CDD1CEE1CFF1CCC0CDD1CEE1CFF1C28
:104CA000C40CD51CE61CF71C73E0F694E794D7946B
:104CB000C7947A95D1F756954795569547954C01E7
:104CC00096948794969487948D2D99279B878A87AD
:104CD000A52FBB27BF83AE83E92DFF27F987E88780
:104CE000D701C6019927AA27BB278B8B9C8BAD8B3D
:104CF000BE8B662309F443C0623008F430C29CE0E6
:104D0000E92EF12C8E819F81B7010E94E251AE8184
:104D1000BF81A81BB90BBF83AE83CF01B7010E942F
:104D2000E251E81BF90BF987E887188A1F861E866F
:104D30001D862DC00091D10F1091D20F8091D316F6
:104D40009091D416E0911B13F0911C1380179107DA
:104D500009F4E1C140901D1350901E1340910F13B0
:104D600050911013809115139091161320914713B1
:104D7000309148132090011360910B135CCFFA011E
:104D8000FF27FE87ED87A4015527588B4F87509149
:104D90000613598B7091A7147D8F832F99279C8FB1
:104DA0008B8F3091EC123A8BE12CF12C58E15D8322
:104DB00020E0B801882777FD8095982F69837A8352
:104DC0008B839C83C501AA2797FDA095BA2F8F8B53
:104DD000988FA98FBA8FF8A2EF8E0AC02F5F4F8DE0
:104DE00058A14E5F5F4F58A34F8F263009F438C14A
:104DF00037FC02C02311F2CF8F8D98A1880F991F25
:104E0000AF8CB8A08A0D9B1D880F991F8C57954FAA
:104E1000FC01E85EFE4F3081332309F43AC1FC0106
:104E2000E95EFE4FB080BD823D81A32EB12C48E1EA
:104E3000A41AB108888499848A0C9B1C0F8D18A130
:104E4000025C1F4EF801EA57FD4FC080D180EE246E
:104E5000D7FCE094FE2C69817A818B819C81C60EFF
:104E6000D71EE81EF91E8E819F818A0D9B1D97FD1E
:104E700027C1422F6D852E8F0E940318C80ED91EA0
:104E8000E11CF11C2E8DF7FC29C1C114D10471E085
:104E9000E706F1042CF0CC24CA94DC2CE12CF12C94
:104EA000F801EE56FD4F40805180662457FC609417
:104EB000762C89819A81AB81BC81480E591E6A1E6D
:104EC0007B1E4F89588D698D7A8D440E551E661E46
:104ED000771E422F4A5FC40197FCFDC06F852E8F5D
:104EE0000E940318480E591E611C711C2E8D77FC00
:104EF000EEC04114510451E0650671042CF04424C5
:104F00004A94542C612C712C8A859B85222051F067
:104F100061E0261609F4F2C08A859B858A0D9B1DE7
:104F200097FDF6C0422F445F6B892E8F0E940318B5
:104F3000F801E256FD4F80809180AA2497FCA0944E
:104F4000BA2C880E991EA11CB11C2E8DB7FCBBC0BB
:104F50008114910481E0A806B1042CF088248A947D
:104F6000982CA12CB12C3989311104C05D8D5523A9
:104F700009F451C0822F8595992787FD9095019658
:104F800020FF9BC06FEF7FEF869FA001879F500D92
:104F9000969F500D11246B8D7C8D469FC001479FBD
:104FA000900D569F900D1124AA2797FDA095BA2F1A
:104FB000C80ED91EEA1EFB1EF7FC9CC0C114D1040A
:104FC00071E0E706F1042CF0CC24CA94DC2CE12C2F
:104FD000F12C480E591E6A1E7B1E77FC87C04114B7
:104FE0005104E1E06E0671042CF044244A94542CE0
:104FF000612C712C880E991EAA1EBB1EB7FC72C0B4
:1050000081149104F1E0AF06B1042CF088248A9455
:10501000982CA12CB12CAA88F801AA2009F43EC032
:10502000EE5AFD4FD182C082F801E25AFD4F518203
:105030004082F801E659FD4F918280822110CECE48
:10504000F801EA5BFD4F91828082C8CE6091DF1645
:105050002612B7C060910B137091E0166713EBCD69
:10506000A0960FB6F894DEBF0FBECDBFDF91CF91F3
:105070001F910F91FF90EF90DF90CF90BF90AF9076
:105080009F908F907F906F905F904F903F902F9068
:1050900008953C853F3F09F0A1CEC6CEE25DFD4FAD
:1050A000D182C082F801E65CFD4F51824082F80156
:1050B000EA5BFD4F9182808291CE61E070E064CF27
:1050C00080E090E0D6CE812C912C540141CF412C30
:1050D000512C32010ECF80E090E000CFC12CD12CBA
:1050E0007601D3CE812C912C54018ACF412C512CA6
:1050F000320175CFC12CD12C760160CFB7FC34C002
:10510000B594A7948A859B858A0D9B1D97FF0ACF2E
:1051100080E090E007CF8091D5169091D616409010
:105120001D1350901E13E817F90709F017CE809150
:10513000D7169091D81640910F135091101348161E
:105140005906B1F0809115139091161320914713D1
:10515000309148132090011360910B136CCD188A85
:105160001F861E861D8613CE7FEFA71AB70AC8CFEB
:105170008091D9169091DA164817590719F780913E
:105180001513909116132091DB163091DC168217BF
:10519000930749F020914713309148132090011351
:1051A00060910B1348CD20914713309148136091C3
:1051B000DD167091DE16209001132617370709F4CB
:1051C00045CF60910B1337CDCF92DF92EF92FF92D4
:1051D000CF939091F7122091FA12992309F492C07B
:1051E000409113135091141360E070E0222309F4EE
:1051F00085C0C0901913D0901A13E12CF12C88238C
:10520000A1F0992381F08091001385FD0CC080915D
:105210004C1290914D12AA2797FDA095BA2F480FD6
:10522000591F6A1F7B1F211172C0CFB7F894411517
:10523000510521E06207710524F04FEF5FEF60E058
:1052400070E0DB01CA0177FD77C00E94940E46EC46
:1052500041BB469A31E035B921E428B950EF5BB93A
:1052600092EA9EB987E881BB00C000C041BB469A64
:1052700035B928B960E76BB99EB981BB00C000C0E1
:1052800041BB469A35B928B95BB99EB981BBD701F4
:10529000C601C114D10421E0E206F10424F08FEF2D
:1052A0009FEFA0E0B0E0B7FD43C00E94940E46EC33
:1052B00041BB469A31E035B927E428B950EF5BB9D4
:1052C00092EA9EB987E881BB00C000C041BB469A04
:1052D00035B928B960E76BB99EB981BB00C000C081
:1052E00041BB469A35B928B95BB99EB981BBCFBFDE
:1052F000CF91FF90EF90DF90CF900895C12CD12CEB
:1053000076017DCF4FEF5FEF60E070E06FCF80916F
:10531000001384FD8ACF80914C1290914D12AA27E0
:1053200097FDA095BA2FC80ED91EEA1EFB1E7DCF91
:1053300080E090E0DC01B9CF80E090E0DC0185CF37
:1053400086EC81BB469A15B896E898B993E09BB96C
:105350001EB897E891BBEFE9FFE03197F1F700C085
:10536000000081BB469A15B823E828B923E12BB980
:1053700022E02EB991BBFAE0FA95F1F700C081BBAB
:10538000469A20EE27B997E09AB92DB915B820E8CA
:1053900028B99BB91EB897E491BB92E09A95F1F7B2
:1053A00000C096B199B19CB181BB479A87EE87B98D
:1053B00087EF8AB982EE8DB9EAE0EA95F1F700C08D
:1053C00008951F93CF93DF93D82FD86F8695869536
:1053D000869528E030E001C0220F8A95EAF7C22FB7
:1053E000C095CD231FB7F894CB010E94940EE6EC34
:1053F000E1BB469A3D2F330F367031649D2F969551
:105400009270906A71E075B938B9A0EFABB99EB9E6
:1054100067E861BB85E08A95F1F70000E1BB469A39
:10542000FC2FFF0F4C2F46955C2F551F5527551FFE
:105430008F2F8670582B5064C0718F2F880F807209
:105440008C2BF07C8F2B4270406A75B958B98BB9A0
:105450004EB961BB8AE08A95F1F700C0E1BB469A7C
:1054600075B938B9ABB99EB961BB8AE08A95F1F7D5
:1054700000C01FBFDF91CF911F9108952F923F92DF
:105480004F925F926F927F929F92AF92BF92CF9214
:10549000DF92EF92FF920F931F93CF93DF93CDB7DD
:1054A000DEB7CD55D1090FB6F894DEBF0FBECDBF24
:1054B000882309F408C3512C352C330C330C330CDE
:1054C000E6EC4E2ECC24C394D12CCC0EDD1E9E01D6
:1054D000255F3F4F69963FAF2EAF69974FB7F8945E
:1054E00041BA469A952D990F292F26702064892F4D
:1054F000880F8072907C892B952D9695927031E063
:1055000035B928B98BB99EB987E881BB5DE05A955A
:10551000F1F7000041BA469A80EE87B997E09AB950
:105520008DB935B980E488B91BB88EB987E481BBE1
:1055300062E06A95F1F700C026B199B18CB141BA29
:10554000479A622E669473E06722A0E82A9F900132
:105550001124622A292F2071622A292F2695269547
:105560002870622A96959076692A90E0880F991F94
:1055700084709927682A87EE87B987EF8AB982EE07
:105580008DB94FBF732C912C66E0262E7FE7A72E96
:10559000B12C09C08250808366949394739488E000
:1055A000981609F4D0C0072D10E0F801ED53F64F1E
:1055B0008081982F9E7F71F7962D9170817098173A
:1055C00059F3892F8A608083BFE3B71508F473C04D
:1055D000E92EFF24E7FCF094872D6E969FAF6E971F
:1055E0000E9456226E969FAD6E97E114F10409F465
:1055F000C9C0872D8051823008F4F4C1FAE07F16CB
:1056000009F4DFC13BE080917F0D731609F411C2EC
:10561000882309F4B7C05DE07512F6C061E090918F
:105620007E0D911160E00E94383991E0EF2809F475
:10563000B8C08091D20980FF14C1A9E0A71508F075
:1056400076C1B2E17B1609F404C6ECE07E1609F4DB
:1056500058C1FDE07F1609F416C290916913953088
:1056600009F419C1992309F431C279E0771508F4D6
:1056700098C0923009F47FC308F4DDC2953008F079
:1056800090C080916A13B72DAAE08A9FB00D1124B3
:105690008B2FB0936A13943009F452C5992787FD74
:1056A00090950E94DD1681112DC4EFEFE0936A13EF
:1056B0000E94CC2276C0492F552747FD50958091F6
:1056C0007813811171C08091791381116DC0452BC0
:1056D00051F08091E60B813009F4CFC280916E0CBD
:1056E000813009F4BFC240917F0D4111EBC0172DED
:1056F00018528091E60B833009F457C180916E0CEB
:10570000833009F452C18091F41221E040E050E866
:10571000692F810F6E969FAF6E970E94D036809151
:10572000F412810F6E969FAD6E979111BAC140E44D
:10573000682F8091A4140E948E126694939473949F
:1057400088E0981230CF5394380E9FE0951508F0FA
:10575000C5CEC35ADF4F0FB6F894DEBF0FBECDBF24
:10576000DF91CF911F910F91FF90EF90DF90CF903D
:10577000BF90AF909F907F906F905F904F903F90C1
:105780002F90089567E2761609F454C0E114F104ED
:10579000F1F53FE0731609F447C090E0EF2809F0F7
:1057A00048CF0E94C221F8CE452B09F4F5CEEEEE8B
:1057B000F6E0D6018AE001900D928A95E1F76996AC
:1057C000AEADBFAD6997E22D1D92EA95E9F7872D41
:1057D00088558093F4128093F60C80937C0D4AE0F8
:1057E00050E0BE01665F7F4F992787FD90950E942C
:1057F0005456C6010E94821380917813882309F4BD
:10580000CBCE10927913C8CE27E27216B1F07EE0AB
:10581000771681F15FE07512C0CF809179138823EC
:1058200009F4B3C010927913909378138FEF80939B
:105830007B13B3CFE114F104D1F00E942442ECEDCC
:10584000FBE0ABE4B3E1822D01900D928A95E1F784
:105850008091A2148111A1CF8BED90E00E94E943C9
:105860009CCFB2E17B12F1CE0E94551A9ACF0E94D2
:105870000642E5CF8091A214882309F4EECE8091F0
:105880006913882309F412C1109269139091691366
:10589000953009F0E7CE8091E60B833029F08091B6
:1058A0006E0C833009F07DCF32E0371508F479CFE4
:1058B000F801E05EF84F80818F3F09F472CF61E01C
:1058C0006DD86FCF272D20549111BEC080917E0DD1
:1058D000882309F48FC1413009F420C3E9EFFCE0CB
:1058E00080E090E005C001968038910509F454CE1F
:1058F00041912413F8CFFC01E750F34F2068208337
:105900004BCE8091A214811106C08BED90E00E94D5
:10591000E9438091A21491E0811190E09093A21448
:105920000E94871B0E94CC220E94C2213ACF109273
:105930007A131092791382E2EEEFF6E0DE01D3964D
:1059400001900D928A95E1F780917B13871509F4F8
:1059500018C270927B1384E0781609F49DC38715F2
:1059600008F072C1E8E07E1609F4EAC1E71508F410
:10597000BAC2F5E07F1609F474C326E0721211CFA3
:105980008CE099E00E9482130CCF80917A138823D7
:1059900009F490C010927A1381E080937913909368
:1059A00078138FEF80937B13F8CE692F812F6E963B
:1059B0009FAF6E970E94CE24C7D46E969FAD6E9710
:1059C000A2CE81E020917F0D213009F449C1609180
:1059D0007E0D6E969FAF6E970E9438396E969FAD82
:1059E0006E97D4CE81E0E1E17E1280E028E8829FCC
:1059F000F0011124EA51F44F2081213081F008F4A4
:105A0000EDC0223009F45DC1233009F0FBCD21E067
:105A10004091A214442309F463C12093691362E006
:105A20006E969FAF6E970E9472426E969FAD6E9774
:105A3000E5CD823009F42DC108F4C4C0833009F4E7
:105A400034C18111AACEA2CEA9EFBCE0FD0105C0F0
:105A50003DE0E937F30709F4FCC181918F3FC1F3C1
:105A6000413009F430C180E090E005C001968038F3
:105A7000910509F491CD4D914F3FC1F7FC01E750DD
:105A8000F34F208389CD9111E8CD80916913823045
:105A900009F465C1843009F462C182E0809369131E
:105AA00080CE60E070E80E94751276CD81E0809330
:105AB0006913D3CD8FE380937A13909378138FEF8C
:105AC00080937B136ACEA8E05A2EF6CC60917713B0
:105AD00059E0571508F465CE272D671509F404C160
