:1000000020C100003DC100003BC1000039C100001B
:1000100037C1000035C1000033C1000031C100000C
:100020002FC100002DC100000C94F43B0C94F53955
:1000300027C1000026C1000023C1000021C100002B
:100040001FC100000C94363C1BC1000019C1000008
:1000500017C1000015C1000013C1000011C100004C
:100060000FC100000DC100000BC1000009C100005C
:1000700007C1000005C1000003C1000001C100006C
:10008000FFC00000FDC00000FBC00000F9C0000080
:10009000F7C00000F5C0000005A84CCDB2D44EB9A1
:1000A0003836A9020C50B9918688083CA6AAAA2A1B
:1000B000BE000000803F08000000BE922449123EAE
:1000C000ABAAAA2ABECDCCCC4C3E00000080BEAB71
:1000D000AAAAAA3E00000000BF000000803F000066
:1000E000000000084178D3BB4387D1133D190E3C73
:1000F000C3BD4282AD2B3E68EC8276BED98FE1A9AA
:100100003E4C80EFFFBE01C4FF7F3F0000000000B7
:1001100007634236B79BD8A71A39685618AEBAABF0
:10012000558C1D3CB7CC5763BD6DEDFD753EF61784
:100130007231BF000000803F5761726E696E673A8E
:100140002061737369676E65725F676574566F6966
:10015000636546726F6D4E6F746520666F756E6471
:10016000206E6F20766F696365210A0062616420EA
:10017000666C697020666C6F70207374617475733F
:10018000203A20000A0000010000BD011200020018
:1001900000CF012200220000F1011500210000E142
:1001A000010900030000060204010309040A021405
:1001B00002030904200220000001C12600120100F0
:1001C0000200000020C016790400010102000109AC
:1001D000022200010100C0320904000001030000F6
:1001E00000092111010001221500070583032000E9
:1001F000010631FF0974A1537508150026FF00950B
:100200002009758102C004030904140359006F001A
:100210007500720020004E0061006D006500000056
:10022000200359006F007500720020005500530034
:10023000420020004400650076006900630065000C
:10024000000011241FBECFEFD0E2DEBFCDBF10E112
:10025000A2EAB9E001C01D92AF3EB107E1F719E093
:10026000A0E0B1E0ECE4FDE900E00BBF02C00790C4
:100270000D92A23AB107D9F70E94403C0C94A44ECB
:10028000BFCE1F920F920FB60F9211240BB60F9292
:100290002F923F924F925F926F927F928F929F9296
:1002A000AF92BF92CF92DF92EF92FF920F931F9384
:1002B0002F933F934F935F936F937F938F939F936E
:1002C000AF93BF93EF93FF93CF93DF93CDB7DEB799
:1002D000AE97DEBFCDBF8091F50E982F9F7121E0C4
:1002E0002EA391111EA2982F937069F48091F40EA1
:1002F00081110C94DC0D8EA10E9490348EA10E947D
:100300007D178091F50E8F5F8093F50E1091730E1F
:10031000112311F40C9481118090610E9090620E63
:10032000A090630EB090640E4B2D5527662777275B
:10033000452B462B472B11F00C94910D6091650EC7
:100340007091660E8091670E9091680E123011F4D4
:100350000C94D10D143011F40C94961120916D0E63
:1003600030916E0EDC01CB01880D991DAA1DBB1DBD
:100370008093610E9093620EA093630EB093640E0F
:1003800040E050E0305841095109A091690EB09108
:100390006A0E0E944B4E2FEF3FEF40E050E00E946C
:1003A0005B4EC9013093700E20936F0E2091C10EE9
:1003B00021FD02C00C94FE109BA38AA322FD02C063
:1003C0000C941A109DA38CA324FF02C00C9420103F
:1003D0000091BC0B1091BD0B20E030E010582109BA
:1003E00031098091A60B85FF02C00C948911A12CC4
:1003F000B12C80910B0C9924939481110C94D80FFB
:1004000051E05BA721E030E038A72FA3992011F439
:100410000C94E90F952F8091F60B8095881F882703
:10042000881F98279B8F882311F40C94171281E55D
:100430009CE00E94533089E59DE00E94533020915A
:10044000750C3091760C4AA15BA16A01EE24D7FCB1
:10045000E094FE2CB501AA27629FB12D7303C00161
:10046000369FB00D811D9A1F72039A0BB00D811D2E
:100470009A1F1124AA2797FDA095BA2F8C0D9D1DB8
:10048000AE1DBF1D4091740E5091750E840F951FC7
:10049000A11DB11DB7FF02C00C94BA12009771E004
:1004A000A707B10524F08FEF9FEFA0E0B0E0EFB712
:1004B000F89466EC61BB70EC78B900C0492F552701
:1004C000F42FF695BF2FB695AF2FA670A068F07CDD
:1004D00040725527F42B4B2F40714260F42BB69598
:1004E000B270B062A8B9FBB9BEB957E851BB00C041
:1004F00061BB00C09695879596958795482FA82F44
:10050000AA0FF82FF695441F4427441FBA2FB67040
:100510004B2B40688071992782609A2F990F9072B7
:10052000982BA07C9A2BF27048B99BB9FEB951BBAD
:1005300061BB78B981E085B991E498B990ED9BB938
:1005400090EA9EB951BB61BB78B985B987E488B997
:1005500080EF8BB982EA8EB951BBEFBF8091800EDC
:100560009091810EB701A601480F591F611D711DA1
:10057000DB01CA0177FF02C00C94AD12009751E075
:10058000A507B10524F08FEF9FEFA0E0B0E0EFB733
:10059000F89466EC61BB70EC78B900C0492F552720
:1005A000F42FF695BF2FB695AF2FA670A068F07CFC
:1005B00040725527F42B4B2F40714260F42BB695B7
:1005C000B270B062A8B9FBB9BEB957E851BB00C060
:1005D00061BB00C09695879596958795482FA82F63
:1005E000AA0FF82FF695441F4427441FBA2FB67060
:1005F0004B2B40688071992782609A2F990F9072D7
:10060000982BA07C9A2BF27048B99BB9FEB951BBCC
:1006100061BB78B991E095B985E488B980ED8BB973
:1006200082EA8EB951BB61BB78B995B997E498B9A4
:1006300090EF9BB98EB951BBEFBFAA27029FB12D96
:100640001303C001309FB00D811D9A1F12039A0B36
:10065000B00D811D9A1F11242CA13DA11901442424
:1006600037FC4094542CAA2797FDA095BA2F820DF1
:10067000931DA41DB51D20918C0E30918D0E820FFF
:10068000931FA11DB11DB7FF02C00C94A8120097C3
:1006900031E0A307B10524F08FEF9FEFA0E0B0E0B9
:1006A000EFB7F89446EC41BB50EC58B900C0292F85
:1006B0003327622F6695F62FF695762F7670706841
:1006C000607C20723327622B2F2F20712260622BD7
:1006D000F695F270F06278B96BB9FEB967E861BB64
:1006E00000C041BB00C09695879596958795282FA9
:1006F000782F770F382F3695221F2227221FF72FAA
:10070000F6702F2B2068807199278260972F990FA0
:100710009072982B707C972B327028B99BB93EB998
:1007200061BB41BB58B971E075B981E488B980EE0D
:100730008BB9F2EAFEB961BB41BB58B975B9B7E4F0
:10074000B8B9A0EFABB9FEB961BBEFBF80917D0D29
:1007500090917E0D8FB689A6F89441BB58B900C020
:10076000292F3327E22FE6956E2E66940F2EF6E0A2
:100770007F2EF02D7E226894882487F87828E07CEC
:1007800020723327E22B262D20712260E22B262DAA
:1007900026952270206278B8EBB92EB961BB00C0F3
:1007A00041BB00C09695879596958795282FE82F91
:1007B000EE0F382F3695221F2227221F0F2EF6E02C
:1007C0007F2EF02D7E222729206880719927826054
:1007D0009E2F990F9072982BE07C9E2B327028B937
:1007E0009BB93EB961BB41BB58B975B985E488B9BD
:1007F00080EB8BB980EA8EB961BB41BB58B975B942
:10080000B8B9ABB9FEB961BB29A52FBF8091F70B71
:100810008095881F8827881F78277C8F882309F474
:10082000EAC191100C943212692C712C8CE2869DD5
:10083000F001879DF00D1124EF5AF34F44A155A10B
:100840005AA749A7B501AA27649FB12D7503C00116
:10085000569FB00D811D9A1F74039A0BB00D811D18
:100860009A1F1124AA2797FDA095BA2F8C0D9D1DC4
:10087000AE1DBF1D7BA5472F440F550BFA01EC5849
:10088000F14F20813181820F931FA11DB11DB7FF50
:1008900002C00C94A312009721E0A207B10524F036
:1008A0008FEF9FEFA0E0B0E0EFB7F89466EC61BB8C
:1008B00070EC78B900C0292F3327F22FF695BF2F9F
:1008C000B695AF2FA670A068F07C20723327F22B6C
:1008D0002B2F20712260F22BB695B270B062A8B9AE
:1008E000FBB9BEB937E831BB00C061BB00C096950B
:1008F000879596958795282FA82FAA0FF82FF695FC
:10090000221F2227221FBA2FB6702B2B206880713E
:10091000992782609A2F990F9072982BA07C9A2B1E
:10092000F27028B99BB9FEB931BB61BB78B981E0DF
:1009300085B993E498B990ED9BB990EA9EB931BB23
:1009400061BB78B985B987E488B980EF8BB982EA51
:100950008EB931BBEFBFFA01E058F14F8081918130
:10096000C80ED91EE11CF11CF7FE02C00C948512C2
:10097000C114D10431E0E306F1042CF0CC24CA9474
:10098000DC2CE12CF12C6FB7F89426EC21BB30EC79
:1009900038B900C08D2D9927782F7695F72FF695C9
:1009A000E72FE670E068707C80729927782B8F2F94
:1009B00080718260782BF695F270F062E8B97BB9AD
:1009C000FEB997E891BB00C021BB00C0D694C79484
:1009D000D694C7948C2DEC2DEE0F7C2D7695881F28
:1009E0008827881FFE2FF6708F2B8068D601A07194
:1009F000BB27A260FE2FFF0FF072FA2BE07CFE2BCC
:100A0000727088B9FBB97EB991BB21BB38B9E1E0FE
:100A1000E5B977E478B980ED8BB982EA8EB991BBFC
:100A200021BB38B9E5B978B920EF2BB98EB991BBA4
:100A30006FBF69A57AA5AA27069FB12D1703C0012C
:100A4000709FB00D811D9A1F16039A0BB00D811D6A
:100A50009A1F1124AA2797FDA095BA2F820D931DE6
:100A6000A41DB51DFA01E457F14F20813181820F99
:100A7000931FA11DB11DB7FF02C00C9480120097F7
:100A800071E0A707B10524F08FEF9FEFA0E0B0E081
:100A9000EFB7F89456EC51BB60EC68B900C0292F51
:100AA0003327422F4695F42FF695742F7670706891
:100AB000407C20723327422B3F2F30713260432B12
:100AC0002F2F26952270206278B94BB92EB947E8AE
:100AD00041BB00C051BB00C0969587959695879500
:100AE000282F782F770F382F3695221F2227221F85
:100AF000F72FF6702F2B2068807199278260972F2F
:100B0000990F9072982B707C972B327028B99BB9F3
:100B10003EB941BB51BB68B971E075B983E488B98E
:100B200080EE8BB9A2EAAEB941BB51BB68B975B9C9
:100B3000B7E4B8B9F0EFFF2EFBB8AEB941BBEFBFD9
:100B40008CE2869DF001879DF00D1124E358F24F51
:100B500080819181CFB6F89451BB68B900C0292F2C
:100B60003327F22FF695DF2ED694EF2FE670E0684C
:100B7000F07C20723327F22B2D2D20712260F22B76
:100B80002D2D269522702062E8B9FBB92EB941BB04
:100B900000C051BB00C09695879596958795282FE4
:100BA000F82FFF0F382F3695221F2227221FE6E04D
:100BB000EE2EEF222E2920688071992782609F2FC8
:100BC000990F9072982BF07C9F2B327028B99BB9AB
:100BD0003EB941BB51BB68B975B9B8B980EB8BB9A7
:100BE00080EA8EB941BB51BB68B975B9B8B9FBB8D9
:100BF000AEB941BBCFBE8091F80B8095881F882786
:100C0000881F91E098279D8F882309F4AEC1911029
:100C10000C945912E92CEE0CF12C8CE28E9DF00113
:100C20008F9DF00D1124EF5AF34F64A075A02AA1F7
:100C30003BA11901442437FC4094542CA501930195
:100C4000AA27429FB12D5303B001349FB00D611DFF
:100C50007A1F52037A0BB00D611D7A1F1124CFA0A9
:100C6000CC0CD12CAB01662757FD6095762F420D39
:100C7000531D641D751DCC0CDD1CF601EC58F14FA5
:100C800080819181480F591F611D711D77FF02C03E
:100C90000C949E12CB01BA016115710531E08307F6
:100CA000910524F06FEF7FEF80E090E082E00E94FA
:100CB0003E19F601E058F14F80819181B201A10106
:100CC000480F591F611D711DDB01CA0177FF02C06A
:100CD0000C949912009751E0A507B10524F08FEF0D
:100CE0009FEFA0E0B0E01C014FB7F89426EC21BBC9
:100CF00030EC38B900C0892F9927582F5695752F99
:100D00007695652F66706068507C80729927582BA5
:100D1000872F80718260582B76957270706268B9E7
:100D20005BB97EB997E891BB00C021BB00C0369487
:100D3000279436942794822D622D660F522D569556
:100D4000881F8827881F762F7670872B8068F1018F
:100D5000E071FF27E260762F770F70727E2B607C48
:100D6000762B527088B97BB95EB991BB21BB38B97B
:100D700081E085B951E458B950EE5BB950EA5EB9EB
:100D800091BB21BB38B985B987E488B980EF8BB9AD
:100D900082EA8EB991BB4FBFB301AA27069FB12D3E
:100DA00017039001709FB00D211D3A1F16033A0BD7
:100DB000B00D211D3A1F11244CA15DA1CA01AA2723
:100DC00097FDA095BA2FA901662757FD6095762F4C
:100DD000840F951FA61FB71FF601E457F14F20811E
:100DE0003181820F931FA11DB11DB7FF02C00C946A
:100DF0009412009751E0A507B10524F08FEF9FEF03
:100E0000A0E0B0E0EFB7F89456EC51BB60EC68B9E5
:100E100000C0292F3327422F4695F42FF695742FC3
:100E200076707068407C20723327422B3F2F3071E0
:100E30003260432B2F2F26952270206278B94BB950
:100E40002EB947E841BB00C051BB00C096958795BD
:100E500096958795282F782F770F382F3695221F54
:100E60002227221FF72FF6702F2B206880719927D9
:100E70008260972F990F9072982B707C972B32700D
:100E800028B99BB93EB941BB51BB68B9A1E0A5B92E
:100E900085E488B980EE8BB972EA7EB941BB51BB5B
:100EA00068B9A5B9B7E4DB2ED8B8B0EFBBB97EB945
:100EB00041BBEFBF8CE28E9DF0018F9DF00D1124A0
:100EC000E358F24F80819181CFB6F89451BB68B955
:100ED00000C0292F3327F22FF695EF2EE694EF2F3F
:100EE000E670E068F07C20723327F22B2E2D207103
:100EF0002260F22B2E2D269522702062E8B9FBB9D4
:100F00002EB941BB00C051BB00C096958795969500
:100F10008795282FF82FFF0F382F3695221F22276D
:100F2000221FE6E0FE2EFF222F29206880719927DC
:100F300082609F2F990F9072982BF07C9F2B3270BC
:100F400028B99BB93EB941BB51BB68B9A5B981E489
:100F500088B980EB8BB97EB941BB51BB68B9A5B9E3
:100F6000D8B8BBB97EB941BBCFBE8091F90B809593
:100F7000881F8827881F91E098279E8F882309F46F
:100F800018C291100C944F12A92DAA0FA90DEA2F87
:100F9000F0E06CE2A69FD0011124AF5AB34F9496B3
:100FA0002D913C9195974AA15BA16A01EE24D7FC53
:100FB000E094FE2CB501AA27629FB12D7303A00116
:100FC000369FB00D411D5A1F72035A0BB00D411DC3
:100FD0005A1F11249FA1892F880F890F90E02A01A1
:100FE000662457FC6094762C4C0C5D1C6E1C7F1C98
:100FF000880F991FDC01AC58B14F6D917C91460E62
:10100000571E611C711C77FE02C00C948F12411494
:10101000510471E0670671042CF044244A94542C66
:10102000612C712CA2018FB6F894A6ECA1BBB0EC98
:10103000B8B900C0652D7727762E7694572C569434
:101040000F2EF6E06F2EF02D67206894442447F8A9
:1010500064280F2EF0EC4F2EF02D7420607277274D
:10106000762A652D60716260762A652D66956270BC
:10107000606268B87BB86EB977E871BB00C0A1BB8D
:1010800000C05695479556954795642F642E660C7B
:10109000742E7694661F6627661F0F2EF6E05F2E6D
:1010A000F02D562065296068407155274260562D05
:1010B000550F5072542B462D407C542B42E0742225
:1010C00068B95BB97EB871BBA1BBB8B951E055B97D
:1010D00047E448B960ED6BB960EA6EB971BBA1BB7A
:1010E000B8B955B948B940EF4BB942EA4EB971BBEE
:1010F0008FBEDC01A058B14F4D915C91C40ED51E3E
:10110000E11CF11CF7FE02C00C947B12C114D10447
:1011100051E0E506F1042CF0CC24CA94DC2CE12C3F
:10112000F12C8FB6F89466EC61BB70EC78B900C016
:101130004D2D5527B42FB695EB2EE694AB2FA67008
:10114000A068B07C40725527B42B4E2D4071426090
:10115000B42B4E2D469542704062A8B9BBB94EB92A
:1011600057E851BB00C061BB00C0D694C794D69469
:10117000C7944C2DFC2CFF0CBC2DB695441F442766
:10118000441FA6E0EA2EEF204E294068A0E1CA22C3
:10119000DD24A2E04A2EC428EF2CEE0CA0E2EA22C5
:1011A000EC28A0EC4A2EF420EF28B27048B9EBB836
:1011B000BEB951BB61BB78B941E045B9B3E4B8B938
:1011C000B0EEBBB9B0EABEB951BB61BB78B945B9A5
:1011D00047E448B940EF4BB942EA4EB951BB8FBE24
:1011E000AA27029FB12D1303A001309FB00D411D0E
:1011F0005A1F12035A0BB00D411D5A1F11242CA166
:101200003DA16901EE24D7FCE094FE2C662757FD32
:101210006095762FC40ED51EE61EF71EDC01A4577E
:10122000B14F2D913C91C20ED31EE11CF11CF7FE73
:1012300002C00C947612C114D10431E0E306F1042B
:101240002CF0CC24CA94DC2CE12CF12CC601AFB7D5
:10125000F89456EC51BB60EC68B900C02D2D3327D3
:10126000422F4695B42FB695742F76707068407CE7
:1012700020723327422B3B2F30713260432B2B2FB0
:1012800026952270206278B94BB92EB947E841BB48
:1012900000C051BB00C09695879596958795282FDD
:1012A000782F770F382F3695221F2227221FB72F2E
:1012B000B6702B2B2068807199278260972F990F29
:1012C0009072982B707C972B327028B99BB93EB9DD
:1012D00041BB51BB68B9FF24F394F5B887E4E82E0D
:1012E000E8B880EE8BB972EA7EB941BB51BB68B9F0
:1012F000F5B8E8B890EFD92EDBB87EB941BBAFBFE7
:101300008CE28E9FD0018F9FB00D1124A358B24F55
:101310008D919C91EFB7F89451BB68B900C0292F0B
:101320003327F22FF695BF2FB695AF2FA670A06882
:10133000F07C20723327F22B2B2F20712260F22BAE
:10134000B695B270B062A8B9FBB9BEB941BB00C0D6
:1013500051BB00C09695879596958795282FF82FB5
:10136000FF0F382F3695221F2227221FAF2FA6707E
:101370002A2B20688071992782609F2F990F907285
:10138000982BF07C9F2B327028B99BB93EB941BB9A
:1013900051BB68B9F5B883E488B980EB8BB97EB9E5
:1013A00041BB51BB68B9F5B8E8B8DBB87EB941BB01
:1013B000EFBF8091FA0B8095881F8827881F91E0E6
:1013C00098279F8F882309F466C191100C944512C9
:1013D000C92CCC0CCC0CD12C8CE28C9DF0018D9DB9
:1013E000F00D1124EF5AF34F64A075A04AA15BA140
:1013F000662757FD6095762F4BA75CA76DA77EA744
:10140000B5019301AA27629FB12D7303C001369FD6
:10141000B00D811D9A1F72039A0BB00D811D9A1F8A
:101420001124EFA0EE0CEE0CF12CAA2797FDA0954D
:10143000BA2F4BA55CA56DA57EA5840F951FA61F91
:10144000B71FEE0CFF1CF701EC58F14F20813181E2
:10145000820F931FA11DB11DB7FF02C00C948A1209
:10146000009751E0A507B10524F08FEF9FEFA0E0B2
:10147000B0E04FB6F894E6ECE1BBF0ECF8B900C090
:10148000292F3327B22FB6955B2E5694AB2FA6701B
:10149000A068B07C20723327B22B252D20712260EA
:1014A000B22B252D269522702062A8B9BBB92EB982
:1014B00037E831BB00C0E1BB00C096958795969593
:1014C0008795282F882E880CB82FB695221F2227A3
:1014D000221F46E0542E5820252920688071992724
:1014E0008260982D990F9072982B882D807C982B74
:1014F000B27028B99BB9BEB931BBE1BBF8B991E074
:1015000095B981E488B980ED8BB982EA8EB931BB97
:10151000E1BBF8B995B997E498B990EF9BB98EB94A
:1015200031BB4FBEF701E058F14F808191814BA54F
:101530005CA56DA57EA5480F591F611D711D77FF24
:1015400001C0D0C7CB01BA0161157105A1E08A07BE
:10155000910524F06FEF7FEF80E090E08AE00E9439
:101560003E199301AA27029FB12D1303C001309F9A
:10157000B00D811D9A1F12039A0BB00D811D9A1F89
:1015800011242CA13DA1A901662757FD6095762F56
:10159000AA2797FDA095BA2F480F591F6A1F7B1FD6
:1015A000F701E457F14F80819181480F591F611D68
:1015B000711D77FD93C7CB01BA016115710531E04B
:1015C0008307910524F06FEF7FEF80E090E080E1EA
:1015D0000E943E198CE28C9DF0018D9DF00D11242E
:1015E000E358F24F808191816FB7F89446EC41BB8C
:1015F00050EC58B900C0292F3327722F7695F72F5A
:10160000F695E72FE670E068707C20723327722B26
:101610003F2F30713260732B2F2F2695227020625E
:10162000E8B97BB92EB937E831BB00C041BB00C077
:101630009695879596958795282FE82FEE0F782F0A
:101640007695221F2227221FFE2FF6702F2B20684F
:101650008071992782609E2F990F9072982BE07C61
:101660009E2B727028B99BB97EB931BB41BB58B96A
:1016700091E095B985E488B980EB8BB982EA8EB99F
:1016800031BB41BB58B995B997E498B990EF9BB974
:101690008EB931BB6FBF8091FB0B8095881F882767
:1016A000881F91E0982798A3882309F408C2911015
:1016B000E3C6E92DEE0FEE0FE90D6E2E712C4CE214
:1016C000E49FF0011124EF5AF34F24A135A14AA160
:1016D0005BA16A01EE24D7FCE094FE2CA501AA27A9
:1016E000429FB12D5303B001349FB00D611D7A1F8D
:1016F00052037A0BB00D611D7A1F11249FA1892F0F
:10170000880F880F890F90E04B01AA2497FCA094C2
:10171000BA2C8C0C9D1CAE1CBF1C880F991FFC01A1
:10172000EC58F14F0190F081E02D8E0E9F1EA11C10
:10173000B11CB7FCCFC68114910451E0A506B104D9
:101740002CF088248A94982CA12CB12CB401BFB61B
:10175000F894A6ECA1BBB0ECB8B900C0E92DFF2706
:10176000AE2EA6948A2C869446E0942E9A2050E8B9
:10177000452E942840ECA422E072FF27AE2AF82DD3
:10178000F071F260AF2AE82DE695E270E06298B859
:10179000ABB8EEB9F7E8F1BB00C0A1BB00C07695CD
:1017A000679576956795E62F962E990CA62EA694AA
:1017B000EE1FEE27EE1F46E0842E8920E829E06820
:1017C000607177276260792D770F7072762B692DA3
:1017D000607C762B52E0A522E8B97BB9AEB8F1BBAC
:1017E000A1BBB8B971E075B963E468B960ED6BB9D4
:1017F00062EA6EB9F1BBA1BBB8B975B977E478B943
:1018000070EF7BB96EB9F1BBBFBEFC01E058F14F80
:1018100060817181C60ED71EE11CF11CF7FCA6C6C3
:10182000C114D10461E0E606F1042CF0CC24CA9482
:10183000DC2CE12CF12CBFB6F894F6ECF1BBA0EC5B
:10184000A8B900C06D2D7727E62FE695EE2EE69419
:10185000BE2FB670B068E07C60727727E62B7E2DD5
:1018600070717260E72B6E2D669562706062B8B918
:10187000EBB96EB9E7E8E1BB00C0F1BB00C0D6949C
:10188000C794D694C7947C2DEC2CEE0CFC2CF694CB
:10189000771F7727771F6E2D6670762B7068B0E103
:1018A000CB22DD24B2E04B2EC4286E2D660F607271
:1018B0006C2940EC842EE8206E29F42078B96BB9AD
:1018C000FEB8E1BBF1BBA8B971E075B967E468B9CE
:1018D00050EEF52EFBB8B0EAFB2EFEB8E1BBF1BB33
:1018E000A8B975B968B960EF6BB962EA6EB9E1BBC6
:1018F000BFBEAA27029FB12D1303B001309FB00DC8
:10190000611D7A1F12037A0BB00D611D7A1F11241D
:101910004CA15DA18A01222717FD2095322F6B0172
:10192000EE24D7FCE094FE2C0C0D1D1D2E1D3F1D3A
:10193000FC01E457F14F80819181080F191F211D8F
:10194000311D37FD0FC60115110551E02507310581
:1019500024F00FEF1FEF20E030E0EFB7F89476ECC3
:1019600071BBA0ECA8B900C0812F9927282F26951C
:10197000622F6695322F36703068207C80729927EE
:10198000282B962F90719260292B862F8695827036
:10199000806238B92BB98EB967E861BB00C071BBF2
:1019A00000C01695079516950795902F302F330F89
:1019B000202F2695991F9927991F832F8670982B82
:1019C0009068007111270260832F880F8072802B2E
:1019D000307C832B227098B98BB92EB961BB71BB57
:1019E000A8B9B1E0B5B983E488B920EBE22EEBB831
:1019F00080EA8EB961BB71BBA8B9B5B907E408B973
:101A000030EFF32EFBB812EA1EB961BBEFBF8CE2D8
:101A1000869DF001879DF00D1124E358F24F8081DF
:101A20009181EFB7F89471BBA8B900C0292F332773
:101A3000422F4695F42FF695542F56705068407CEF
:101A400020723327422B3F2F30713260432B2F2FD0
:101A500026952270206258B94BB92EB961BB00C0DF
:101A600071BB00C09695879596958795282F482F2E
:101A7000440F382F3695221F2227221F542F5670CD
:101A8000252B2068807199278260942F990F90727E
:101A9000982B407C942B327028B99BB93EB961BB1E
:101AA00071BBA8B9B5B908B9EBB81EB961BB71BBB8
:101AB000A8B9B5B908B9FBB81EB961BBEFBF65E3FA
:101AC0006A95F1F700004EA041109CC3AE960FB688
:101AD000F894DEBF0FBECDBFDF91CF91FF91EF91A4
:101AE000BF91AF919F918F917F916F915F914F9136
:101AF0003F912F911F910F91FF90EF90DF90CF902A
:101B0000BF90AF909F908F907F906F905F904F901D
:101B10003F902F900F900BBE0F900FBE0F901F9015
:101B20001895E1E08091720EE81BE093720EE111CE
:101B30005EC4C12CD12C7601C092610ED092620E8F
:101B4000E092630EF092640E20916B0E30916C0E59
:101B500040E050E00090710E04C0220F331F441F7C
:101B6000551F0A94D2F7FF27E1950CF4F095DF0199
:101B7000AA0FBB1F11960E94554E6093650E70937D
:101B8000660E8093670E9093680E113009F402C7B9
:101B9000133009F4E5C646015701123011F00C94D8
:101BA000AA01FF24EB2CDA2CC92C9601D0926E0EE0
:101BB000C0926D0E0C94B2018091F20E9091F30ED2
:101BC0004091980E5091990E2091740E3091750E9F
:101BD0002417350708F018C4421B530B84179507C8
:101BE00008F4AC01420F531F5093750E4093740ECE
:101BF0004091A40E5091A50E2091800E3091810E3F
:101C00002417350708F4BBC44217530770F4D901F1
:101C1000A41BB50BAD018A179B0708F4E4C6241B6F
:101C2000350B3093810E2093800E4091B00E509171
:101C3000B10E20918C0E30918D0E2417350708F4CB
:101C4000F2C44217530770F4B901641B750BAB0162
:101C50008617970708F4A9C6241B350B30938D0E01
:101C600020938C0E40919A0E50919B0E2091760EEF
:101C70003091770E2417350708F4C8C4421753076C
:101C800070F4D901A41BB50BAD018A179B0708F4AA
:101C900090C6241B350B3093770E2093760E40911F
:101CA000A60E5091A70E2091820E3091830E24171C
:101CB000350708F448C54217530770F4B901641B8F
:101CC000750BAB018617970708F471C6241B350BFB
:101CD0003093830E2093820E4091B20E5091B30E3A
:101CE00020918E0E30918F0E2417350708F41EC5F3
:101CF0004217530770F4D901A41BB50BAD018A1725
:101D00009B0708F45EC6241B350B30938F0E20937F
:101D10008E0E40919C0E50919D0E2091780E309128
:101D2000790E2417350708F4F4C44217530770F4EA
:101D3000B901641B750BAB018617970708F43FC602
:101D4000241B350B3093790E2093780E4091A80E0A
:101D50005091A90E2091840E3091850E24173507DD
:101D600008F4CAC44217530770F4D901A41BB50B79
:101D7000AD018A179B0708F420C6241B350B30934E
:101D8000850E2093840E4091B40E5091B50E209193
:101D9000900E3091910E2417350708F4A0C4421715
:101DA000530770F4B901641B750BAB0186179707D5
:101DB00008F401C6241B350B3093910E2093900E2E
:101DC00040919E0E50919F0E20917A0E30917B0E85
:101DD0002417350708F476C44217530770F4D90165
:101DE000A41BB50BAD018A179B0708F4FAC5241B89
:101DF000350B30937B0E20937A0E4091AA0E5091B2
:101E0000AB0E2091860E3091870E2417350708F40B
:101E10004CC44217530770F4B901641B750BAB0136
:101E20008617970708F4DBC5241B350B3093870E04
:101E30002093860E4091B60E5091B70E2091920ECF
:101E40003091930E2417350708F422C44217530724
:101E500070F4D901A41BB50BAD018A179B0708F4D8
:101E6000BCC5241B350B3093930E2093920E4091EA
:101E7000A00E5091A10E20917C0E30917D0E241762
:101E8000350708F4B6C34217530770F4B901641B51
:101E9000750BAB018617970708F49DC5241B350BFE
:101EA00030937D0E20937C0E4091AC0E5091AD0E80
:101EB0002091880E3091890E2417350708F48CC3C1
:101EC0004217530770F4D901A41BB50BAD018A1753
:101ED0009B0708F47EC5241B350B3093890E209395
:101EE000880E4091B80E5091B90E2091940E309109
:101EF000950E2417350708F462C34217530770F490
:101F0000B901641B750BAB018617970708F45FC511
:101F1000241B350B3093950E2093940E4091A20E06
:101F20005091A30E20917E0E30917F0E241735071D
:101F300008F032C3421B530B8417950708F4AC0119
:101F4000420F531F50937F0E40937E0E4091AE0E72
:101F50005091AF0E20918A0E30918B0E24173507C9
:101F600008F083C3421B530B8417950708F4AC0198
:101F7000420F531F50938B0E40938A0E4091BA0E1E
:101F80005091BB0E2091960E3091970E2417350775
:101F900008F056C3421B530B8417950708F4AC0195
:101FA000420F531F5093970E4093960E0C947B0153
:101FB000912C833021F0843011F00C94000291E0D8
:101FC0008091F40E811190E0492F50E058A74FA363
:101FD0009BA781E59CE00E94533089E59DE00E942B
:101FE00053308091F60B8095881F8827881F91E0D9
:101FF000282F29272B8F81110C941F028091F70B1A
:102000008095881F8827881F98279C8F882311F424
:102010000C94FB052AA13BA16901EE24D7FCE094B6
:10202000FE2C4CA15DA11A01442437FC4094542C91
:102030000C9414041DA21CA224FD02C00C94E801FF
:10204000AA2797FDA095BA2F2091E60B3091E70BB8
:102050004091A50B40FFD1C1AC01BD01420F531F00
:10206000611D711D77FDC9C44115510521E062074D
:10207000710524F04FEF5FEF60E070E0652F752F82
:102080007695272F2695F72FF670F068322F30714E
:1020900060723260707C762B732B269522702062E2
:1020A0005695479556954795642F342F330FE42F57
:1020B000E695661F6627661F132F1670612B6068F2
:1020C000407155274260532F550F5072542B307C6E
:1020D000532BE2701FB7F89436EC31BB40EC48B993
:1020E00000C0F8B97BB92EB927E821BB00C031BBCD
:1020F00000C068B95BB9EEB921BB31BB48B961E03A
:1021000065B951E458B950E75BB952EA5EB921BBF1
:1021100031BB48B965B937E438B930EF3BB95EB97E
:1021200021BB1FBF2091D00B3091D10B4091A50B4B
:1021300041FFC9C1820F931FA11DB11DB7FD59C435
:10214000009731E0A307B10524F08FEF9FEFA0E0E7
:10215000B0E0392F692F6695562F5695E62FE67019
:10216000E068252F207130722260607C632B622B27
:102170005695527050629695879596958795482FFB
:10218000382F330F782F7695441F4427441F232F71
:102190002670422B4068807199278260232F220F7E
:1021A0002072282B307C232B7270FFB7F89496ECAA
:1021B00091BB30EC38B900C0E8B96BB95EB987E8BB
:1021C00081BB00C091BB00C048B92BB97EB981BBAF
:1021D00091BB38B951E055B947E448B920E72BB96C
:1021E00022EA2EB981BB91BB38B955B948B990EFF5
:1021F0009BB92EB981BBFFBF0C94E8011BA21AA2A8
:102200000C94DE0180910B0C8111B8C08091F60B0B
:1022100087FD05C08091840D882309F4F6C3809161
:10222000F70B87FD05C08091B00D882309F4E9C341
:102230008091F80B87FD05C08091DC0D882309F49F
:1022400002C48091F90B87FD05C08091080E882398
:1022500009F4F5C38091FA0B87FD05C08091340E17
:10226000882309F4E8C38091FB0B87FD05C08091AA
:10227000600E882309F4B7C08B8D81113DC38C8D0E
:10228000811107C38D8D8111D1C28E8D81119BC2A9
:102290008F8D811165C288A1882309F417CC6FB78F
:1022A000F89496EC91BB20EC28B900C040E848B9FE
:1022B00032E03BB980E28EB987E881BB00C091BBB8
:1022C00000C048B93BB91EB881BB91BB28B951E0E9
:1022D00055B947E448B930EB3BB932EA3EB981BB66
:1022E0007DE07A95F1F7000091BB28B955B948B95E
:1022F00090EF9BB93EB981BB88E28A95F1F76FBF39
:10230000E5CB1092700E10926F0E80E090E00C946E
:10231000D601A090E80BB090E90BC501A0E0B0E0B9
:102320009058A109B1095C010C94F901F92CEA2D2E
:10233000EF3F09F437C32A2D2F5F30E0220F331F00
:10234000F0E0EE0FFF1FEE55F64F0190F081E02D0B
:10235000D901AE55B64F2D913C912E1B3F0B032F4B
:102360001127F09E9001F19E300D11242E0F3F1F7A
:1023700030936E0E20936D0E0C94B2018091F60B8B
:1023800087FD05C08091840D882309F451C3809195
:10239000F70B87FD05C08091840D882309F444C3A1
:1023A0008091F80B87FD05C08091840D882309F486
:1023B00037C38091F90B87FD05C08091840D882378
:1023C00009F42AC38091FA0B87FD05C08091840D22
:1023D000882309F41DC38091FB0B87FD4DCF8091AD
:1023E000840D811149CF85E00E94B22145CFCC24D4
:1023F000CA94DC2CEC2CF12C9FCBE2E052EF67E886
:1024000022E272E7F6E866CE4217530708F0F0CBF7
:10241000B901641B750BAB018617970708F4E5C279
:10242000241B350B3093750E2093740EE1CB8091F5
:10243000F70B8095881F8827881F9BA598279C8F5E
:10244000882311F40C94FB052AA13BA16901EE2419
:10245000D7FCE094FE2C4CA15DA11A01442437FC6A
:102460004094542C8DE79CE00E94533085E89DE019
:102470000E9453300C9414048DE29DE00E9453306E
:1024800085E39EE00E94533014C981E09DE00E94E4
:10249000533089E09EE00E9453300C94E80985EDAA
:1024A0009CE00E9453308DED9DE00E9453300C94CF
:1024B000C40789EA9CE00E94533081EB9DE00E94B2
:1024C00053300C940A0672E022EF47E852E262E7CA
:1024D000E6E86BCE812C912C54012DC940E050E0F0
:1024E000BA0169C840E050E0BA012CC8C12CD12C17
:1024F00076010C941B09C12CD12C76010C94860812
:1025000080E090E0DC010C943F05C12CD12C7601D9
:102510000C94B80480E090E0DC010C94300A412C6B
:10252000512C32010C94070880E090E0DC010C94FF
:10253000F90680E090E0DC010C946A0640E050E08F
:10254000BA010C944A0680E090E0DC010C944B0444
:1025500080E090E0DC010C94470380E090E0DC0137
:102560000C94BE0200E010E09801EDC9C12CD12C02
:10257000760156C980E090E0DC010C944E02421BCB
:10258000530B8417950708F4AC01420F531F509367
:10259000810E4093800E49CB4217530708F0D6CCEA
:1025A000D901A41BB50BAD018A179B0708F40DC216
:1025B000241B350B30937F0E20937E0EC7CC421B1D
:1025C000530B8417950708F4AC01420F531F509327
:1025D000950E4093940EA2CC421B530B8417950783
:1025E00008F4AC01420F531F5093890E4093880E9C
:1025F00078CC421B530B8417950708F4AC01420FAB
:10260000531F50937D0E40937C0E4ECC421B530BB8
:102610008417950708F4AC01420F531F5093770EAF
:102620004093760E3CCB421B530B8417950708F45E
:10263000AC01420F531F50938D0E40938C0E12CB62
:102640004217530710F00C947B01D901A41BB50B62
:10265000AD018A179B0708F4B6C1241B350B3093D4
:10266000970E2093960E0C947B014217530708F0A7
:1026700085CCB901641B750BAB018617970708F46D
:10268000B6C1241B350B30938B0E20938A0E76CC6B
:10269000421B530B8417950708F4AC01420F531FDC
:1026A0005093930E4093920EE2CB421B530B841730
:1026B000950708F4AC01420F531F5093870E4093C7
:1026C000860EB8CB421B530B8417950708F4AC0158
:1026D000420F531F50937B0E40937A0E8ECB421BBA
:1026E000530B8417950708F4AC01420F531F509306
:1026F000910E4093900E64CB421B530B84179507A9
:1027000008F4AC01420F531F5093850E4093840E82
:102710003ACB421B530B8417950708F4AC01420FC8
:10272000531F5093790E4093780E10CB421B530BDE
:102730008417950708F4AC01420F531F50938F0E76
:1027400040938E0EE6CA421B530B8417950708F47C
:10275000AC01420F531F5093830E4093820EBCCAAC
:102760005FB7F89496EC91BB20EC28B900C040E824
:1027700048B932E03BB980E28EB987E881BB00C03E
:1027800091BB00C048B93BB91EB881BB91BB28B909
:1027900041E045B935E438B930EB3BB932EA3EB9EE
:1027A00081BBADE0AA95F1F7000091BB28B945B90E
:1027B00097E498B990EF9BB93EB981BBB8E2BA955E
:1027C000F1F75FBF68CD5FB7F89496EC91BB20EC52
:1027D00028B900C040E848B932E03BB980E28EB980
:1027E00087E881BB00C091BB00C048B93BB91EB8A7
:1027F00081BB91BB28B941E045B933E438B930EB2E
:102800003BB932EA3EB981BB6DE06A95F1F7000051
:1028100091BB28B945B997E498B990EF9BB93EB9F7
:1028200081BB78E27A95F1F75FBF32CD5FB7F8945C
:1028300096EC91BB20EC28B900C040E848B932E0E2
:102840003BB980E28EB987E881BB00C091BB00C074
:1028500048B93BB91EB881BB91BB28B941E045B925
:1028600031E438B930EB3BB932EA3EB981BBADE077
:10287000AA95F1F7000091BB28B945B997E498B93A
:1028800090EF9BB93EB981BBB8E2BA95F1F75FBF53
:10289000FCCC5FB7F89496EC91BB20EC28B900C053
:1028A00040E848B932E03BB980E28EB987E881BBA5
:1028B00000C091BB00C048B93BB91EB881BB91BBF9
:1028C00028B941E045B937E438B960EB6BB960EA43
:1028D0006EB981BB7DE07A95F1F7000091BB28B914
:1028E00045B938B990EF9BB992EA9EB981BB88E2AD
:1028F0008A95F1F75FBFC6CC5FB7F89496EC91BBB1
:1029000020EC28B900C040E848B932E03BB980E289
:102910008EB987E881BB00C091BB00C048B93BB904
:102920001EB881BB91BB28B931E035B945E448B93F
:1029300040EB4BB940EA4EB981BB4DE04A95F1F707
:10294000000091BB28B935B997E498B990EF9BB9CD
:1029500092EA9EB981BB68E26A95F1F75FBF8FCCBE
:102960000E943D4E90936E0E80936D0E1091730EEB
:102970006091650E7091660E8091670E9091680E61
:102980008090610E9090620EA090630EB090640EE5
:102990000C94A601F0936E0EE0936D0E4601570164
:1029A0000C94AE012EEF31E0CBCCAC0155C9AC019B
:1029B0008DC9AC016EC9AC01FDC9AC01DEC9AC0169
:1029C000BFC9AC01A0C9AC0148CEAC01F1CDAC018E
:1029D0009FCAAC0180CAAC0161CAAC0142CAAC0159
:1029E00023CAAC0104CAAC011AC9AC0119CDAC01AF
:1029F00048CE80E090E0DC01A3CB40E050E0BA019B
:102A000033CB81E00E94B22113CC0E94B22107CCCB
:102A100084E00E94B221DFCC83E00E94B221D2CCBC
:102A200082E00E94B221C5CC81E00E94B221B8CCE4
:102A30000E94B221ACCC84E00E94B22114CC83E08D
:102A40000E94B22107CC82E00E94B221FACB909181
:102A5000EE10992309F440C09FB7F89423E0209327
:102A6000E9002091EA1021112FC03091E4003C5F71
:102A70002091E80025FD1CC09FBF9091E4009317B2
:102A800069F19091EE10992339F143E009C09FBF9D
:102A90009091E400931711F19091EE109923E1F0D9
:102AA0009FB7F8944093E9002091E80025FFEFCF0D
:102AB0008093F1008091E80085FF15C082E080934B
:102AC000ED109FBF80E008952091E80025FF03C02E
:102AD0001092EA10CACF9FBF8FEF089581E08093D4
:102AE000EA108FEF08958AE38093E8001092ED10CA
:102AF0009FBF80E0089555E05A95F1F7000046EC3D
:102B000041BB30EC38B900C080EE87B997E09AB984
:102B10008DB915B880E488B91BB880E28EB987E416
:102B200081BB82E08A95F1F700C026B199B18CB1E2
:102B300041BB38B900C037EE37B937EF3AB932EE9A
:102B40003DB9422F4695437050E8259F90011124CE
:102B5000422B292F2071422B292F2695269528704C
:102B6000422B96959076492B90E0880F991F8470A0
:102B70009927842B0895982F96959695969528E0F9
:102B800030E001C0220F9A95EAF72095287F8770E0
:102B9000282BFFB7F89436EC31BB50EC58B900C085
:102BA000872F9927E82FE695BE2FB695AE2FA670F2
:102BB000A068E07C80729927E82B9B2F907192602F
:102BC000E92B8B2F869582708062A8B9EBB98EB9FC
:102BD00097E891BB00C031BB00C0769567957695AC
:102BE0006795E62FB62FBB0FA62FA695EE1FEE27F3
:102BF000EE1F8B2F8670E82BE0686071772762608C
:102C00008B2F880F8072862BB07C8B2BA270E8B93B
:102C10008BB9AEB991BB31BB58B9822F880F722FD7
:102C20007695E22FEE1FEE27EE1F682F6670E62BDB
:102C3000E0642071682F660F6072622B807C682BC5
:102C40007270706A81E085B9E8B96BB97EB991BBE1
:102C500041110CC031BB58B985B987E488B980EF00
:102C60008BB982EA8EB991BBFFBF08952DE02A95FA
:102C7000F1F7000031BB58B985B987E488B980EF16
:102C80008BB982EA8EB991BB88E28A95F1F7FFBFD2
:102C90000895AF92BF92CF92DF92EF92FF920F937F
:102CA0001F93CF93DF93E0E1FCE070E048E050E059
:102CB000B6ECC0ECA7E8D1E087E4F82E90EFA92E9F
:102CC00022EAD22E81919191272F2695269526953D
:102CD0008A0102C0000F111F2A95E2F7602F60954C
:102CE000687F272F2770622BEFB6F894B1BBC8B965
:102CF00000C0292F3327122F1695B12EB694012F1D
:102D000006700068107C20723327122B3B2D307127
:102D10003260132B2B2D26952270206208B91BB927
:102D20002EB9A1BB00C0B1BB00C096958795969502
:102D30008795282F182F110F382F3695221F2227FD
:102D4000221F06E0C02EC1222C29206880719927FD
:102D50008260912F990F9072982B812F807C982BF5
:102D6000327028B99BB93EB9A1BBB1BBC8B9262FF7
:102D7000220F962F9695362F331F3327331F822F1E
:102D80008670382B30646071822F880F8072862B9A
:102D9000207C822B9270906AD5B938B98BB99EB9D4
:102DA000A1BB1DE01A95F1F70000B1BBC8B9D5B9B8
:102DB000F8B8ABB8DEB8A1BB88E28A95F1F7EFBEF0
:102DC0007F5F703209F07ECF8091500C96EC91BB02
:102DD00090EC98B9382F330F982F9695232F2670A3
:102DE0002064482F441F4427441F242B482F407140
:102DF000832F880F8072842B307C832B9270906697
:102E000031E035B928B98BB99EB987E881BBDF912C
:102E1000CF911F910F91FF90EF90DF90CF90BF90D7
:102E2000AF900895FC0126893789468D578DAA27D2
:102E3000429FB12D539FC001349FB00D811D9A1F39
:102E4000529FB00D811D9A1F112480A391A340951C
:102E50005095AA27429FB12D539FC001349FB00DBA
:102E6000811D9A1F529FB00D811D9A1F112482A3AC
:102E700093A3408551856285738540835183628326
:102E800073830895AC01AA27469FB12D579F9001E7
:102E9000749FB00D211D3A1F569FB00D211D3A1F82
:102EA0001124C901089586EC81BB80EC88B915B85E
:102EB00080E488B91BB88EB987E881BB85E08A9524
:102EC000F1F700000895CF93C82F82958F708A3054
:102ED00050F097E3890FBBDDCF70CA3050F087E325
:102EE0008C0FCF91B4CD90E3890FB1DDCF70CA3094
:102EF000B0F780E38C0FCF91AACDCF93882309F44C
:102F00006DC08091FC0E8F5F8093FC0E853148F080
:102F100081E09091FD0E9111DEC08093FD0E109224
:102F2000FC0E8091FE0E8F5F8093FE0E8D3008F4B4
:102F300046C0C091000FCC2309F441C0E5E0FFE09A
:102F400001900020E9F7E650FF402091FF0E332763
:102F500027FD3095C90101966E2F772767FD709583
:102F60000E94B949E82FFF27E7FDF095EA50F14F9D
:102F70009785F901EA50F14F478550E040385105F7
:102F800008F0BCC0FA01EC5FFA4F20812093FA0EE2
:102F9000292F30E02038310508F0AEC0F901EC5F90
:102FA000FA4F90819093FB0E8093FF0E1092FE0ECD
:102FB000811105C01C161CF4C150C093000FE09194
:102FC000010FE13009F47CC008F46FC0E23009F46D
:102FD00088C020E0F0E0EA50F14F2487AFB7F894C2
:102FE00066EC61BB50EC58B941E045B980E488B962
:102FF0001BB880E28EB937E831BB00C000C080E169
:1030000090E00090010F02C0880F991F0A94E2F728
:10301000282F61BB58B9E82FEE0F782F7695221F25
:103020002227221F9E2F9670292B206480719E2FAD
:10303000990F9072982BE07C9E2B727045B928B93D
:103040009BB97EB931BB00C000C0E091010FF0E038
:10305000EA50F14F848561BB58B9582F550F982F0E
:103060009695252F26702064682F661F6627661F99
:10307000262B682F6071852F880F8072862B507CDD
:10308000852B9270906245B928B98BB99EB931BB36
:10309000AFBF8091010F90E0019663E070E00E9465
:1030A000B9498093010FCF9108952091F60E809138
:1030B000FD0E882309F48ECF8091F80E28278ACF41
:1030C0002091FA0E2F778091F60E9091F70E91FFD6
:1030D00081CF20687FCF80E08093FD0E1092FC0EA0
:1030E00020CF2091FB0E2F778091F60E9091F70E56
:1030F00090FF70CF20686ECF9FEF54CF2FEF46CF59
:103100008091E9108F77A9F4E091E710E63008F498
:10311000AEC0EC3008F09BC08FE78093FA0EE55DFF
:10312000F0E0EC5FFA4F80818093FB0E81E0E5DEFA
:10313000B0DD4091E710E42FF0E0EE0FFF1FE05FFD
:10314000F34F20813181542F56955695569588E03E
:1031500090E001C0880F5A95EAF78095887F477004
:10316000842BAFB7F89476EC71BBE0ECE8B900C003
:10317000432F5527642F6695962F9695F62FF67058
:10318000F068607C40725527642B492F4071426083
:10319000642B969592709062F8B96BB99EB957E816
:1031A00051BB00C071BB00C0369527953695279559
:1031B000422FF22FFF0F622F6695441F4427441FB2
:1031C0009F2F9670492B40682071332722609F2FD4
:1031D000990F9072922BF07C9F2B627048B99BB92B
:1031E0006EB951BB71BBE8B9482F440F282F269503
:1031F000382F331F3327331F942F9670392B3064A9
:103200008071942F990F9072982B407C942B227090
:10321000206A81E085B938B99BB92EB951BB9DE0D0
:103220009A95F1F7000071BBE8B985B987E488B9D0
:1032300080EF8BB982EA8EB951BB88E28A95F1F7AB
:10324000AFBF8091E9108F5F8093E9100895EB5D27
:1032500081E78093FA0E8E2F90E08038910560F41C
:10326000FC01EC5FFA4F80818093FB0E5FCF87E714
:103270008093FA0EEF5C54CF8FEFF6CF982F969590
:103280009695969528E030E001C0220F9A95EAF7CE
:103290002095287F8770282BAFB7F89456EC51BB48
:1032A000E0ECE8B900C0872F9927382F3695F32F27
:1032B000F695432F46704068307C80729927382BF2
:1032C0009F2F90719260392B8F2F8695827080622C
:1032D00048B93BB98EB947E841BB00C051BB00C0FB
:1032E0007695679576956795962FF62FFF0F362F73
:1032F0003695991F9927991F8F2F8670982B906864
:103300006071772762608F2F880F8072862BF07C28
:103310008F2B327098B98BB93EB941BB51BBE8B91C
:10332000622F660F922F9695322F331F3327331F4C
:10333000862F8670382B30642071862F880F80721C
:10334000822B607C862B9270906A21E025B938B977
:103350008BB99EB941BB51BBE8B925B987E488B99F
:1033600080EF8BB982EA8EB941BBAFBF08958091DF
:10337000C00E880F8F5F9091A50B92959170890F69
:103380008093730E8091C20E880F8093710EA0916E
:10339000720E20916B0E30916C0E40E050E004C034
:1033A000220F331F441F551F8A95D2F7BB27A195C3
:1033B0000CF4B095AA0FBB1F11960E94554E609356
:1033C000650E7093660E8093670E9093680E089555
:1033D000AF92BF92CF92DF92EF92FF920F931F9323
:1033E000CF93DF93062F9BEA899FA12C1124A694EB
:1033F000A694A6946A2D70E06A3071050CF06EC038
:10340000A394B12C10E09B01220F331FF901EE0FA2
:10341000FF1FEE0FFF1FEE0FFF1FE20FF31FE00F66
:10342000F11FEE0FFF1FE95CF04FC081D1819BEAD5
:10343000899F912D1124969596959695692F660FE3
:10344000690F660F660F861B682F70E080E090E0C2
:103450000E94E24A2BEA3AEA4AEA5DE30E94144CEF
:103460006B017C01AA0CBB1CF501EE0FFF1FEE0FD8
:10347000FF1FEE0FFF1FEA0DFB1DE00FF11FEE0F08
:10348000FF1FE95CF04F608171816C1B7D0B80E058
:1034900090E00E94E04A9B01AC01C701B6010E9486
:1034A000144C6B017C01BE0180E090E00E94E04A78
:1034B0009B01AC01C701B6010E94E1490E94C34CC7
:1034C0000E94B44ACB01DF91CF911F910F91FF90E1
:1034D000EF90DF90CF90BF90AF900895BBE0AB2E00
:1034E000B12C90CF2F923F924F925F926F927F922A
:1034F0008F929F92AF92BF92CF92DF92EF92FF9204
:103500000F931F93CF93DF93CDB7DEB72E970FB6F0
:10351000F894DEBF0FBECDBF0091D50B10E0005870
:1035200011098091F40B9091F50B880F892F881F5A
:10353000990B91959C013A953A872987C090B80BD1
:10354000D090B90BE12CF12C8090F30B86948694EB
:103550009090F10B969496947090BE0E6090F40E3D
:1035600030910B0C3B837091FC0B8091F60B87FF25
:1035700037C07091FD0B8091F70B87FFDDC0709114
:10358000FE0B8091F80B87FF83C17091FF0B809138
:10359000F90B87FF29C27091000C8091FA0B87FF0D
:1035A000CFC27091010C8091FB0B87FF75C32E96E3
:1035B0000FB6F894DEBF0FBECDBFDF91CF911F9144
:1035C0000F91FF90EF90DF90CF90BF90AF909F90C2
:1035D0008F907F906F905F904F903F902F900895C5
:1035E0001801442437FC4094542C2091CA0E309189
:1035F000CB0EC901AA2797FDA095BA2F820D931D66
:10360000A41DB51D8B879C87AD87BE8760E0882D84
:10361000870F7887DDDE2B853C854D855E85280FFD
:10362000391F411D511DDA01C901788557FDEBC5D0
:10363000009731E0A307B1050CF001C49A83898398
:103640002091D60E3091D70E442737FD4095542F48
:10365000220D331D441D551D29843A84C101AA271A
:1036600097FDA095BA2F280F391F4A1F5B1F66E0F0
:10367000892D870F2C833D834E835F837887A8DE57
:103680002C813D814E815F8119012A01280E391E4E
:10369000411C511CD201C101788557FCB0C500976F
:1036A00021E0A207B1050CF0C5C35C0177FCCBC4D7
:1036B0002091E20E3091E30E442737FD4095542FC0
:1036C0002C0D3D1D4E1D5F1D6CE0872F2C833D830F
:1036D0004E835F837DDE072C02C0969587950A9402
:1036E000E2F72C813D814E815F8119012A01280E6C
:1036F000391E411C511CD201C10157FCBCC50097A9
:1037000021E0A207B1050CF09FC39C016110FCC32E
:1037100049815A815093750E4093740EB092810E78
:10372000A092800E30938D0E20938C0E7091FD0B25
:103730008091F70B87FD23CF1801442437FC409478
:10374000542C2091CC0E3091CD0EC901AA2797FDA3
:10375000A095BA2F820D931DA41DB51D8B879C8744
:10376000AD87BE8761E0872F880D788731DE2B8596
:103770003C854D855E85280F391F411D511DDA019D
:10378000C901788557FD67C5009731E0A307B105EA
:103790000CF023C39A8389832091D80E3091D90EDF
:1037A000442737FD4095542F220D331D441D551DD0
:1037B00029843A84C101AA2797FDA095BA2F280F22
:1037C000391F4A1F5B1F67E0872F890D2C833D83BC
:1037D0004E835F837887FCDD2C813D814E815F8144
:1037E00019012A01280E391E411C511CD201C101A8
:1037F000788557FC2CC5009721E0A207B1050CF095
:10380000E7C25C0177FCCFC42091E40E3091E50E55
:10381000442737FD4095542F2C0D3D1D4E1D5F1D37
:103820006DE0872F2C833D834E835F83D1DD072C92
:1038300002C0969587950A94E2F72C813D814E81CE
:103840005F8119012A01280E391E411C511CD20129
:10385000C10157FC08C5009721E0A207B1050CF093
:10386000F8C29C01611060C349815A815093770E60
:103870004093760EB092830EA092820E30938F0EFC
:1038800020938E0E7091FE0B8091F80B87FD7DCEFC
:103890001801442437FC4094542C2091CE0E3091D2
:1038A000CF0EC901AA2797FDA095BA2F820D931DAF
:1038B000A41DB51D8B879C87AD87BE8762E0872FCF
:1038C000880D788785DD2B853C854D855E85280FA5
:1038D000391F411D511DDA01C901788557FDB3C457
:1038E000009731E0A307B1050CF081C29A83898368
:1038F0002091DA0E3091DB0E442737FD4095542F8E
:10390000220D331D441D551D29843A84C101AA2767
:1039100097FDA095BA2F280F391F4A1F5B1F68E03B
:10392000872F890D2C833D834E835F83788750DDFD
:103930002C813D814E815F8119012A01280E391E9B
:10394000411C511CD201C101788557FC78C40097F5
:1039500021E0A207B1050CF045C25C0177FC9FC3D2
:103960002091E60E3091E70E442737FD4095542F05
:103970002C0D3D1D4E1D5F1D6EE0872F2C833D835A
:103980004E835F8325DD072C02C0969587950A94A8
:10399000E2F72C813D814E815F8119012A01280EB9
:1039A000391E411C511CD201C10157FC58C400975B
:1039B00021E0A207B1050CF05BC29C01611062C25C
:1039C00049815A815093790E4093780EB092850EBA
:1039D000A092840E3093910E2093900E7091FF0B65
:1039E0008091F90B87FDD7CD1801442437FC409412
:1039F000542C2091D00E3091D10EC901AA2797FDE9
:103A0000A095BA2F820D931DA41DB51D8B879C8791
:103A1000AD87BE8763E0872F880D7887D9DC2B853B
:103A20003C854D855E85280F391F411D511DDA01EA
:103A3000C901788557FDFFC3009731E0A307B105A1
:103A40000CF0DFC19A8389832091DC0E3091DD0E6A
:103A5000442737FD4095542F220D331D441D551D1D
:103A600029843A84C101AA2797FDA095BA2F280F6F
:103A7000391F4A1F5B1F69E0872F890D2C833D8307
:103A80004E835F837887A4DC2C813D814E815F81EA
:103A900019012A01280E391E411C511CD201C101F5
:103AA000788557FCC4C3009721E0A207B1050CF04C
:103AB000A3C15C0177FC4BC32091E80E3091E90E65
:103AC000442737FD4095542F2C0D3D1D4E1D5F1D85
:103AD0006FE0872F2C833D834E835F8379DC072C37
:103AE00002C0969587950A94E2F72C813D814E811C
:103AF0005F8119012A01280E391E411C511CD20177
:103B0000C10157FCB4C3009721E0A207B1050CF036
:103B1000A5C19C01611029C249815A8150937B0E35
:103B200040937A0EB092870EA092860E3093930E39
:103B30002093920E7091000C8091FA0B87FD31CD8D
:103B40001801442437FC4094542C2091D20E30911B
:103B5000D30EC901AA2797FDA095BA2F820D931DF8
:103B6000A41DB51D8B879C87AD87BE8764E0872F1A
:103B7000880D78872DDC2B853C854D855E85280F4B
:103B8000391F411D511DDA01C901788557FD4BC30D
:103B9000009731E0A307B1050CF03DC19A838983FA
:103BA0002091DE0E3091DF0E442737FD4095542FD3
:103BB000220D331D441D551D29843A84C101AA27B5
:103BC00097FDA095BA2F280F391F4A1F5B1F6AE087
:103BD000872F890D2C833D834E835F837887F8DBA5
:103BE0002C813D814E815F8119012A01280E391EE9
:103BF000411C511CD201C101788557FC10C30097AC
:103C000021E0A207B1050CF001C15C0177FC73C291
:103C10002091EA0E3091EB0E442737FD4095542F4A
:103C20002C0D3D1D4E1D5F1D60E1872F2C833D83B4
:103C30004E835F83CDDB072C02C0969587950A944F
:103C4000E2F72C813D814E815F8119012A01280E06
:103C5000391E411C511CD201C10157FC14C30097ED
:103C600021E0A207B1050CF008C19C0161102BC135
:103C700049815A8150937D0E40937C0EB092890EFB
:103C8000A092880E3093950E2093940E7091010CA3
:103C90008091FB0B87FD8BCC1801442437FC4094AA
:103CA000542C2091D40E3091D50EC901AA2797FD2E
:103CB000A095BA2F820D931DA41DB51D8B879C87DF
:103CC000AD87BE8765E0872F880D788781DB2B85E0
:103CD0003C854D855E85280F391F411D511DDA0138
:103CE000C901788557FD97C2009731E0A307B10558
:103CF0000CF09BC08C012091E00E3091E10E442726
:103D000037FD4095542F220D331D441D551D298428
:103D10003A84C101AA2797FDA095BA2F280F391F11
:103D20004A1F5B1F6BE0872F890D2C833D834E83D9
:103D30005F8378874DDB2C813D814E815F81490116
:103D40005A01880E991EA11CB11CD501C4017885A9
:103D5000B7FC5DC2009721E0A207B1050CF060C07E
:103D60002C0177FC42C12091EC0E3091ED0E4901FF
:103D7000AA2497FCA094BA2C8C0C9D1CAE1CBF1CD2
:103D800061E1872F25DB02C0969587957A94E2F74B
:103D9000A5019401280F391F411D511DDA01C901E8
:103DA00057FD6DC2009731E0A307B1050CF05BC071
:103DB0009C016110FBC010937F0E00937E0E509209
:103DC0008B0E40928A0E3093970E2093960EEFCB77
:103DD0008FEF9FEFA0E0B0E014CD8FEF9FEFA0E05A
:103DE000B0E0D8CC8FEF9FEFA0E0B0E0B6CD8FEF82
:103DF0009FEFA0E0B0E07ACD8FEF9FEFA0E0B0E0C2
:103E000058CE8FEF9FEFA0E0B0E01CCE8FEF9FEF7A
:103E1000A0E0B0E0FACE8FEF9FEFA0E0B0E0BECE22
:103E20008FEF9FEFA0E0B0E09BCF8FEF9FEFA0E080
:103E3000B0E060CF8FEF9FEFA0E0B0E036CC8FEF27
:103E40009FEFA0E0B0E0FACB8FEF9FEFA0E0B0E0F3
:103E50005CCC8FEF9FEFA0E0B0E003CD8FEF9FEF42
:103E6000A0E0B0E056CE8FEF9FEFA0E0B0E0A0CF93
:103E70008FEF9FEFA0E0B0E0A0CD8FEF9FEFA0E02D
:103E8000B0E0F3CE5B8129803A80533079F0543032
:103E900069F030929D0E20929C0EB092A90EA092D5
:103EA000A80E3093B50E2093B40E6FCB3092990EBE
:103EB0002092980EB092A50EA092A40E3093B10E4F
:103EC0002093B00E62CB5B8129803A80533079F029
:103ED000543069F03092A10E2092A00EB092AD0E37
:103EE000A092AC0E3093B90E2093B80E5ACB3092FC
:103EF000990E2092980EB092A50EA092A40E309327
:103F0000B10E2093B00E4DCB5B8129803A80309268
:103F1000990E2092980EB092A50EA092A40E309306
:103F2000B10E2093B00E25CB5B8129803A805330AF
:103F300079F0543069F030929B0E20929A0EB09234
:103F4000A70EA092A60E3093B30E2093B20E17CBFD
:103F50003092990E2092980EB092A50EA092A40EC7
:103F60003093B10E2093B00E0ACB5B8129803A804A
:103F7000533079F0543069F030929F0E20929E0EAB
:103F8000B092AB0EA092AA0E3093B70E2093B60E4D
:103F900002CB3092990E2092980EB092A50EA0926C
:103FA000A40E3093B10E2093B00EF5CA5B8153304E
:103FB00079F0543069F01093A30E0093A20E509242
:103FC000AF0E4092AE0E3093BB0E2093BA0EEFCAE6
:103FD0001093990E0093980E5092A50E4092A40E45
:103FE0003093B10E2093B00EE2CA6091590F7091D8
:103FF0005A0F80E090E00E94E04A0E94C34C0E9469
:10400000B44A2091EC0E3091ED0E4901AA2497FCA0
:10401000A094BA2C8C0C9D1CAE1CBF1C860E971E47
:10402000A11CB11CB7FC5DC1D501C4018114910470
:1040300041E0A406B1040CF039C19C019093970EA5
:104040008093960EB6CE60914F0F7091500F80E026
:1040500090E00E94E04A0E94C34C0E94B44A209122
:10406000E20E3091E30E442737FD4095542F2C0D7E
:104070003D1D4E1D5F1D260F371F411D511D57FD54
:1040800028C1DA01C901009721E0A207B1050CF0AF
:1040900017C19C0190938D0E80938C0E37CB60914D
:1040A000530F7091540F80E090E00E94E04A0E940C
:1040B000C34C0E94B44A2091E60E3091E70E44278B
:1040C00037FD4095542F2C0D3D1D4E1D5F1D260FB5
:1040D000371F411D511D57FDF8C0DA01C901009776
:1040E00021E0A207B1050CF0E6C09C019093910E6F
:1040F0008093900E63CC6091570F7091580F80E0C1
:1041000090E00E94E04A0E94C34C0E94B44A209171
:10411000EA0E3091EB0E442737FD4095542F2C0DBD
:104120003D1D4E1D5F1D260F371F411D511D57FDA3
:10413000E0C0DA01C901009721E0A207B1050CF047
:10414000ABC09C019093950E8093940E8FCD60919F
:10415000550F7091560F80E090E00E94E04A0E9457
:10416000C34C0E94B44A2091E80E3091E90E4427D6
:1041700037FD4095542F2C0D3D1D4E1D5F1D260F04
:10418000371F411D511D57FDB0C0DA01C90100970D
:1041900021E0A207B1050CF07AC09C019093930E28
:1041A0008093920EB7CC6091510F7091520F80E0C6
:1041B00090E00E94E04A0E94C34C0E94B44A2091C1
:1041C000E40E3091E50E442737FD4095542F2C0D19
:1041D0003D1D4E1D5F1D260F371F411D511D57FDF3
:1041E0007CC0DA01C901009721E0A207B1050CF0FB
:1041F00058C09C0190938F0E80938E0E33CB80E03D
:1042000090E0DC014CCA80E090E0DC0111CA80E063
:1042100090E0DC019FCD80E090E0DC0165CD80E0A6
:1042200090E0DC01ECCC80E090E0DC01B1CC80E0FF
:1042300090E0DC0138CC80E090E0DC01FDCB80E058
:1042400090E0DC0184CB80E090E0DC0149CB80E0B1
:1042500090E0DC01D0CA80E090E0DC0195CA80E00B
:1042600090E0DC01A4CB80E090E0DC01F4CA80E0C7
:1042700090E0DC0148CC80E090E0DC0140CA80E0C6
:1042800090E0DC018FCD80E090E0DC01E8CC8FEFA6
:104290009FEFA0E0B0E081CF8FEF9FEFA0E0B0E014
:1042A00050CF8FEF9FEFA0E0B0E0A3CF8FEF9FEF55
:1042B000A0E0B0E0C2CE8FEF9FEFA0E0B0E015CF5E
:1042C0008FEF9FEFA0E0B0E0E4CE20E030E0A90166
:1042D00004CF20E030E0A901D4CE20E030E0A901F5
:1042E00080CF812C912C54019FCE20E030E0A90199
:1042F0004CCF20E030E0A9011CCFCF93DF9300D05A
:10430000CDB7DEB74A836983EDD880910B0C4A8123
:104310006981882319F140E050E08CE2849FF0012C
:10432000859FF00D1124EF5AF34F87A1681719F0FC
:1043300060A781E081A78CE2849FF001859FF00D4A
:104340001124E75AF24F87A1681719F060A781E09E
:1043500081A70F900F90DF91CF910895552747FDCA
:104360005095DBCF90910B0C91110CC087FD24C0B0
:10437000E82FFF27E7FDF095EA50F44F8FEF808399
:10438000868308958FEF8093F60B8093FC0B8093C8
:10439000F70B8093FD0B8093F80B8093FE0B8093BB
:1043A000F90B8093FF0B8093FA0B8093000C8093A2
:1043B000FB0B8093010C08958F3F29F3089586E14C
:1043C000E6EFFBE0DF011D928A95E9F78FEFCADF88
:1043D00048E050E06FEF70E082E09CE00C94E34D29
:1043E000CF938091A60B90E0880F892F881F990B9F
:1043F000892B29F4E4DF10920B0CCF910895C09122
:10440000BF0EDDDFC0930B0CCF910895942F87FD75
:104410000FC0E82FFF27E7FDF095EA50F44F6083C7
:1044200046839F3F21F0482F622F892F66CF089542
:104430008F3FB9F76093F60B4093FC0B6093F70B3B
:104440004093FD0B6093F80B4093FE0B6093F90BC8
:104450004093FF0B6093FA0B4093000C6093FB0BAF
:104460004093010CDECF86EC81BB80EC88B915B897
:1044700080E488B91BB880E28EB987E881BB85E00B
:104480008A95F1F700000895CF93DF930E947B1582
:10449000C82FD0E00E947B15382F20E0C22BD32BF1
:1044A000E2DFE1DF9E0120953095265F3F4FC90195
:1044B000DF91CF91089586EC81BB80EC88B915B867
:1044C00082E488B91BB880E48EB987E881BB85E0B7
:1044D0008A95F1F7000008956093000F0097A9F006
:1044E0001092FF0EBC0186E09FE00E94EA4DE5E0DD
:1044F000FFE001900020E9F7E650FF40EB5FF04F4E
:1045000080E290E09183808308958FEF8093FF0E87
:1045100008951F93CF93DF93EC012196FC01149132
:10452000111109C00EC0812F0E942715FE0121968E
:104530001491112331F01A30B1F78DE00E94271544
:10454000F2CFDF91CF911F9108950F931F93CF93D7
:10455000DF93C82F80910B0C81117BC08091F60BEB
:10456000662309F49CC19091FC0BC91709F403C39D
:1045700087FD01C388300CF06CC19091F70B20913E
:10458000FD0BC21709F4FBC297FDF9C298170CF096
:1045900065C141E05091F80B8091FE0BC81709F4FA
:1045A000F2C257FDF0C259170CF069C142E06091A8
:1045B000F90B8091FF0BC81709F4E9C267FDE7C248
:1045C00065170CF0A7C143E05091FA0B8091000CE5
:1045D000C81709F4E0C257FDDEC256170CF0AAC195
:1045E00044E08091FB0B9091010CC91709F4D7C2EC
:1045F00087FDD5C285170CF4BDC1992787FD90951D
:10460000252F332727FD30952A5F3F4F281739077D
:104610000CF4B0C1E42FFF27E7FDF09520910A0CC0
:10462000822F992787FD9095019666E070E00E94A1
:10463000B94980930A0CEA50F44F8083C683CF3F78
:1046400009F49AC161E08C2FDF91CF911F910F91F6
:1046500054CE9091020C662309F4D3C09F3F09F415
:10466000A2C22091030C2F3F09F4A3C23091040C85
:104670003F3F09F4B3C24091050C4F3F09F4B4C267
:104680005091060C5F3F09F42AC27091070C7F3FDE
:1046900009F4B3C2E091080CEF3F09F4B4C2F09101
:1046A000090CFF3F09F4B2C2A82FA350843009F4CB
:1046B00006C2813009F46DC1823009F4BBC1833078
:1046C00009F467C19F3F09F435C2B1E0D1E02F3F43
:1046D00009F42EC21B2F1D2309F0292F0B2F0F5F6A
:1046E00081E08B278D23812B09F49AC1802F922F93
:1046F000B1E03F3F09F41AC2D1E0811101C0D0E01E
:10470000DB2309F0392F282F2F5F11E0811110E0F2
:10471000B123BD2B09F482C1822FB1E04F3F09F4D0
:1047200003C2D1E0811101C0D0E0DB2309F0432FA7
:10473000982F9F5F11E0811110E0B123BD2B09F488
:1047400077C1892F91E05F3F09F4ECC121E081112D
:1047500001C020E0292309F0542F382F3F5FB1E03A
:104760008111B0E09B23922B09F460C1832F91E06B
:104770007F3F09F4D5C121E0811101C020E0292348
:1047800009F0752F482F4F5F31E0811130E09323FE
:10479000922B09F449C1842F91E0EF3F09F4BEC187
:1047A00021E0811101C020E0292309F0E72F482FE3
:1047B0004F5F31E0811130E09323922B09F432C135
:1047C000842F91E0FF3F09F4A7C121E0811101C0CE
:1047D00020E0292309F420C1DE2F482F4F5F31E06C
:1047E000811130E09323922B09F0842F992309F44F
:1047F000B1C08111B3C0A23008F420C220E08FEF15
:10480000B2C09C1709F4D2C12091030C2C1709F4F3
:10481000E2C13091040C3C1709F4E3C14091050C4E
:104820004C1709F4E4C15091060C5C1709F46DC1F2
:104830007091070C7C1709F4DDC1E091080CEC17AE
:1048400009F4DEC1F091090CFC132ECFE7E0F0E093
:104850005EC18F300CF091CE88E08FCE692F772724
:1048600067FD7095282F332727FD30952A5F3F4F2E
:10487000261737070CF48DCE982F40E08BCE652F8E
:10488000772767FD7095292F332727FD30952A5FFD
:104890003F4F261737070CF489CE592F88CE87FD56
:1048A00005C08091FC0BC81709F4B3C18091F70BC8
:1048B00087FD05C08091FD0BC81709F4B3C1809135
:1048C000F80B87FD05C08091FE0BC81709F4A8C13D
:1048D0008091F90B87FD05C08091FF0BC81709F483
:1048E0009DC18091FA0B87FD05C08091000CC8170F
:1048F00009F49AC18091FB0B87FD05C08091010CE2
:10490000C81709F493C188E391E0DF91CF911F911B
:104910000F91FFCD862F992787FD9095252F33275F
:1049200027FD30952A5F3F4F281739070CF44BCEEF
:10493000652F4ACE852F992787FD9095262F3327FF
:1049400027FD30952A5F3F4F281739070CF448CED2
:10495000562F47CEDE2F882309F44DCFA23088F0A2
:10496000CD2F21E08FEF4C2F60E0DF91CF911F9191
:104970000F914CCD45E04ECEDF91CF911F910F911D
:104980000895813009F4D8C080910A0CCD2F21E020
:10499000EACF9F3F09F44CC12F3F09F4E8C09217BA
:1049A00008F0922F81E08F5F3F3F09F4CCC088234D
:1049B00019F0931708F4392F8F5F4F3F09F4CBC0DC
:1049C000882319F0341708F4432F8F5F5F3F09F4F1
:1049D000C0C0882319F0451708F4542F8F5F7F3F1C
:1049E00009F4B5C0882319F0571708F4752F8F5FA5
:1049F000EF3F09F4AAC0882319F07E1708F4E72FC7
:104A00008F5FDF2FFF3F09F4A5CF882319F0EF1741
:104A100008F452C08F5FEDCEDF2FDFCE392F7DCE71
:104A20008B2F66CEE72FCDCE752FB6CE542F9FCECF
:104A3000432F88CE9F3F09F44CC02F3F09F499C003
:104A4000291708F0922F81E08F5F3F3F09F48DC056
:104A5000882319F0391708F4392F8F5F4F3F09F475
:104A600082C0882319F0431708F4432F8F5F5F3FFC
:104A700009F477C0882319F0541708F4542F8F5F76
:104A80007F3F09F46CC0882319F0751708F4752F5F
:104A90008F5FEF3F09F461C0882319F0E71708F42E
:104AA000E72F8F5FDF2FFF3F09F454CF882309F4EE
:104AB000B1CFFE1708F0AECFDE2F8F5F9ACE9F3FAB
:104AC00041F02F3F09F455C0291708F4BCCF922FAD
:104AD000BACF922F80E02F3F09F0B6CFB6CFE4E0F7
:104AE000F0E0EA50F44FC4879091020C2091030C3F
:104AF0003091040C4091050C5091060C7091070CFC
:104B0000E091080CF091090CCFCDE4E0F0E0EA5020
:104B1000F44F9FEF9487E8CF90E057CE90E040CEDF
:104B200090E029CE90E012CEB0E0FBCDB0E0E4CD35
:104B3000D0E0D0CDB0E0CACD80910A0C61113CC06C
:104B4000CD2F21E010CF392F38CFE72F5ACF752F37
:104B50004FCF542F44CF432F39CFE72FA3CF752FFB
:104B600098CF542F8DCF432F82CF392F77CF81E02D
:104B70001BCF81E06ACF40E0E0E0F0E04FCD41E0C4
:104B8000E1E0F0E04BCD42E0E2E0F0E047CD43E091
:104B9000E3E0F0E043CD44E0E4E0F0E03FCD45E089
:104BA000E5E0F0E03BCDE0E0F0E09BCFE0E0F0E0DE
:104BB000AECFE1E0F0E095CFD5DB80910A0C9927EC
:104BC00087FD9095019666E070E00E94B949282F14
:104BD00020930A0CB5CFE1E0F0E099CFE2E0F0E0FD
:104BE00080CFE2E0F0E093CFE3E0F0E07ACFE3E0E3
:104BF000F0E08DCFE5E0F0E08ACFE5E0F0E071CFC6
:104C0000E6E0F0E084CFE6E0F0E06BCFE7E0F0E054
:104C100068CF80E020E04C2F61E0A7CE83E0FACFA0
:104C200082E0F8CF81E0F6CF84E0F4CF85E0F2CFE8
:104C3000922F80E02F3F09F0B6CEB6CE80910A0CBD
:104C400020E091CECF92DF92EF92FF92CF93C82FC8
:104C50000E9480181092EC101092EB106AE081E133
:104C60000E94443600DCFFDB26DC0E9453170E94C2
:104C7000A436C12CD12C7601CC2341F181E00E94D5
:104C8000D3360E9458390E9475360E94CB380E9454
:104C900031370E94583980E10E94D3360E94CB38C8
:104CA0000E9403370E94583988E00E94D3360E9440
:104CB000CB3882E00E94D3360E94A436C150E4DB98
:104CC000C80ED91EE11CF11CC111D8CFB601C70115
:104CD000CF91FF90EF90DF90CF9008952F923F9269
:104CE0004F925F926F927F928F929F92AF92BF92FC
:104CF000CF92DF92EF92FF920F931F93CF93DF93A8
:104D000000D000D000D0CDB7DEB7D82E662EC42E8E
:104D1000722E70E080E090E00E94E04A9B01AC01BE
:104D200060E070E080E090E40E94774CA801970179
:104D30000E94144C9B01AC0160E074E284EF99E4A2
:104D40000E944C4A4B015C018D2D90E09E838D8327
:104D5000760C072D112707FD1095EE24E394F12C16
:104D600001C0EE0C7A94EAF77E2C6D2D8C2D0E94FA
:104D7000E819019609F0EDC46D2D8C2D0E94E819FB
:104D80008F3F9F4708F4F9C46FEF7FEF8FE79FE7EE
:104D9000262F372F482F592F682D792D8A2D9B2D9F
:104DA0000E94454A87FF89C1EE24EA94FFEBFF2E5B
:104DB0006D2D8C2D0E94E8198E159F0508F489C170
:104DC0006FEF7FEF8FE79FE7262F372F482F592F61
:104DD000682D792D8A2D9B2D0E94454A87FD78C428
:104DE00020E2F21A6D2D8C2D0E94E8198E159F0578
:104DF00008F478C46FEF7FEF8FE79FE7262F372FF8
:104E0000482F592F682D792D8A2D9B2D0E94454AB8
:104E100087FD1DC490E1F91A6D2D8C2D0E94E819B3
:104E20008E159F0508F41DC46FEF7FEF8FE79FE796
:104E3000262F372F482F592F682D792D8A2D9B2DFE
:104E40000E94454A87FDC2C3F8E0FF1A6D2D8C2DE4
:104E50000E94E8198E159F0508F4C2C36FEF7FEF1B
:104E60008FE79FE7262F372F482F592F682D792D51
:104E70008A2D9B2D0E94454A87FD67C384E0F81A5E
:104E80006D2D8C2D0E94E8198E159F0508F467C3BF
:104E90006FEF7FEF8FE79FE7262F372F482F592F90
:104EA000682D792D8A2D9B2D0E94454A87FD0CC3C4
:104EB000E2E0FE1A6D2D8C2D0E94E8198E159F05DB
:104EC00008F40CC36FEF7FEF8FE79FE7262F372F94
:104ED000482F592F682D792D8A2D9B2D0E94454AE8
:104EE00087FDB2C2FA946D2D8C2D0E94E8198E15A3
:104EF0009F0508F4B2C26FEF7FEF8FE79FE7262F81
:104F0000372F482F592F682D792D8A2D9B2D0E94E0
:104F1000454A87FD57C290E8E91AF1086D2D8C2D9E
:104F20000E94E8198E159F0508F457C26FEF7FEFB6
:104F30008FE79FE7262F372F482F592F682D792D80
:104F40008A2D9B2D0E94454A87FDFAC1F0E4EF1A95
:104F5000F1086D2D8C2D0E94E8198E159F0508F41F
:104F6000FAC16FEF7FEF8FE79FE7262F372F482F8C
:104F7000592F682D792D8A2D9B2D0E94454A87FD3A
:104F80009DC180E2E81AF1086D2D8C2D0E94E81970
:104F90008E159F0508F49DC16FEF7FEF8FE79FE7A8
:104FA000262F372F482F592F682D792D8A2D9B2D8D
:104FB0000E94454A87FD40C1E0E1EE1AF1086D2DDF
:104FC0008C2D0E94E8198E159F0508F440C16FEFE3
:104FD0007FEF8FE79FE7262F372F482F592F682D18
:104FE000792D8A2D9B2D0E94454A87FDE3C028E03C
:104FF000E21AF1086D2D8C2D0E94E8198E159F057F
:1050000008F4E3C06FEF7FEF8FE79FE7262F372F7E
:10501000482F592F682D792D8A2D9B2D0E94454AA6
:1050200087FD92C094E0E91AF1086D2D8C2D0E9445
:10503000E8198E159F0508F492C06FEF7FEF8FE798
:105040009FE7282D392D4A2D5B2D0E94CB4B18163A
:105050000CF076C0F2E0EF0EF11C862D90E0880F88
:10506000991FFC01EE0FFF1FEE0FFF1FEE0FFF1F3A
:10507000E80FF91F8D819E81E80FF91FEE0FFF1FCA
:10508000E95CF04FF182E08226960FB6F894DEBF1D
:105090000FBECDBFDF91CF911F910F91FF90EF9089
:1050A000DF90CF90BF90AF909F908F907F906F9048
:1050B0005F904F903F902F900895EE24EA94EFE395
:1050C000FE2E6D2D8C2D0E94E8198E159F0508F07F
:1050D00077CEED81FE81EE0FFF1FE05FF34FF1828F
:1050E000E082872DAFDD1B012C0166277727601B2F
:1050F000710B882777FD8095982F0E94E24A9B01CB
:10510000AC0160E070E080E090E40E94774C562FA4
:10511000472F382F292FC201B1012C833B834A83AB
:1051200059830E94E04A59814A813B81532E2C8148
:10513000E22F252F342F452D5E2F0E94144C44CE94
:1051400022E0E21AF10889CFE4E0EE0EF11C6D2DA9
:105150008C2D0E94E8198E159F0508F06ECFED8109
:10516000FE81EE0FFF1FE05FF34FF182E082872D9B
:1051700069DD1B012C0166277727601B710B8827CF
:1051800077FD8095982F0E94E24A9B01AC0160E078
:1051900070E080E090E40E94774C6B018C01C201CA
:1051A000B1010E94E04A2C2D3D2D402F512F0E942D
:1051B000144C47CF88E0E80EF11C6D2D8C2D0E9419
:1051C000E8198E159F0508F01DCFED81FE81EE0FC9
:1051D000FF1FE05FF34FF182E082872D33DD1B017B
:1051E0002C0166277727601B710B882777FD809538
:1051F000982F0E94E24A9B01AC0160E070E080E0E1
:1052000090E40E94774C562F472F382F292FC20148
:10521000B1012C833B834A8359830E94E04A598120
:105220004A813B81532E2C81E22F252F342F452D8F
:105230005E2F0E94144CEACEF0E1EF0EF11C6D2DB2
:105240008C2D0E94E8198E159F0508F0C0CEED81C7
:10525000FE81EE0FFF1FE05FF34FF182E082872DAA
:10526000F1DC1B012C0166277727601B710B882757
:1052700077FD8095982F0E94E24A9B01AC0160E087
:1052800070E080E090E40E94774C562F472F382F33
:10529000292FC201B1012C833B834A8359830E9489
:1052A000E04A59814A813B81532E2C81E22F252FE0
:1052B000342F452D5E2F0E94144C8DCE90E2E90EC6
:1052C000F11C6D2D8C2D0E94E8198E159F0508F09C
:1052D00063CEED81FE81EE0FFF1FE05FF34FF182A1
:1052E000E082872DAFDC1B012C0166277727601B2E
:1052F000710B882777FD8095982F0E94E24A9B01C9
:10530000AC0160E070E080E090E40E94774C562FA2
:10531000472F382F292FC201B1012C833B834A83A9
:1053200059830E94E04A59814A813B81532E2C8146
:10533000E22F252F342F452D5E2F0E94144C30CEA6
:1053400020E4E20EF11C6D2D8C2D0E94E8198E15C3
:105350009F0508F006CEED81FE81EE0FFF1FE05F96
:10536000F34FF182E082872D6DDC1B012C01662753
:105370007727601B710B882777FD8095982F0E94F7
:10538000E24A9B01AC0160E070E080E090E40E94A2
:10539000774C562F472F382F292FC201B1012C836C
:1053A0003B834A8359830E94E04A59814A813B8169
:1053B000532E2C81E22F252F342F452D5E2F0E9456
:1053C000144CD3CDE0E8EE0EF11C6D2D8C2D0E9417
:1053D000E8198E159F0508F0A9CDED81FE81EE0F2D
:1053E000FF1FE05FF34FF182E082872D2BDC1B0172
:1053F0002C0166277727601B710B882777FD809526
:10540000982F0E94E24A9B01AC0160E070E080E0CE
:1054100090E40E94774C562F472F382F292FC20136
:10542000B1012C833B834A8359830E94E04A59810E
:105430004A813B81532E2C81E22F252F342F452D7D
:105440005E2F0E94144C76CDF3946D2D8C2D0E940E
:10545000E8198E159F0508F04ECDED81FE81EE0F07
:10546000FF1FE05FF34FF182E082872DEBDB1B0132
:105470002C0166277727601B710B882777FD8095A5
:10548000982F0E94E24A9B01AC0160E070E080E04E
:1054900090E40E94774C562F472F382F292FC201B6
:1054A000B1012C833B834A8359830E94E04A59818E
:1054B0004A813B81532E2C81E22F252F342F452DFD
:1054C0005E2F0E94144C1BCDFEEFFF1A6D2D8C2D0C
:1054D0000E94E8198E159F0508F0F4CCED81FE813D
:1054E000EE0FFF1FE05FF34FF182E082872DAADB12
:1054F0001B012C0166277727601B710B882777FD1E
:105500008095982F0E94E24A9B01AC0160E070E018
:1055100080E090E40E94774C562F472F382F292F98
:10552000C201B1012C833B834A8359830E94E04A24
:1055300059814A813B81532E2C81E22F252F342F14
:10554000452D5E2F0E94144CC1CC9CEFF91A6D2D95
:105550008C2D0E94E8198E159F0508F099CCED81DD
:10556000FE81EE0FFF1FE05FF34FF182E082872D97
:1055700069DB1B012C0166277727601B710B8827CD
:1055800077FD8095982F0E94E24A9B01AC0160E074
:1055900070E080E090E40E94774C562F472F382F20
:1055A000292FC201B1012C833B834A8359830E9476
:1055B000E04A59814A813B81532E2C81E22F252FCD
:1055C000342F452D5E2F0E94144C66CC28EFF21A22
:1055D0006D2D8C2D0E94E8198E159F0508F03ECC8C
:1055E000ED81FE81EE0FFF1FE05FF34FF182E0825D
:1055F000872D28DB1B012C0166277727601B710B89
:10560000882777FD8095982F0E94E24A9B01AC0184
:1056100060E070E080E090E40E94774C562F472FC6
:10562000382F292FC201B1012C833B834A83598330
:105630000E94E04A59814A813B81532E2C81E22FFE
:10564000252F342F452D5E2F0E94144C0BCCE0EFFC
:10565000FE1A6D2D8C2D0E94E8198E159F0508F0FD
:10566000E3CBED81FE81EE0FFF1FE05FF34FF18290
:10567000E082872DE7DA1B012C0166277727601B64
:10568000710B882777FD8095982F0E94E24A9B0135
:10569000AC0160E070E080E090E40E94774C562F0F
:1056A000472F382F292FC201B1012C833B834A8316
:1056B00059830E94E04A59814A813B81532E2C81B3
:1056C000E22F252F342F452D5E2F0E94144CB0CB96
:1056D00080EEF81A6D2D8C2D0E94E8198E159F050D
:1056E00008F088CBED81FE81EE0FFF1FE05FF34FE6
:1056F000F182E082872DA6DA1B012C01662777272D
:10570000601B710B882777FD8095982F0E94E24AD5
:105710009B01AC0160E070E080E090E40E94774C77
:10572000562F472F382F292FC201B1012C833B83DD
:105730004A8359830E94E04A59814A813B81532E12
:105740002C81E22F252F342F452D5E2F0E94144CE3
:1057500055CBED81FE81EE0FFF1FE05FF34F8FEF22
:105760009FEF918380838E2D6DDA6D2D8C2D0E949D
:10577000E8198F3F9F4708F007CBED81FE81EE0FC0
:10578000FF1FE05FF34F8FEF9FE791838083872DAB
:1057900059DA1B012C0166277727601B710B8827BC
:1057A00077FD8095982F0E94E24A9B01AC0160E052
:1057B00070E080E090E40E94774C362F272F7C0128
:1057C000C201B1012C833B830E94E04A3B812C81C2
:1057D000A22F232F3A2F4E2D5F2D0E94144CD8CA92
:1057E000DF92EF92FF920F931F93CF93DF93D82E08
:1057F0008093E710C62FD0E02296FE01EE0FFF1F28
:10580000E45FF34F20E030E83183208314E60E9408
:1058100049161150E1F78BE08D1508F4A7C014EA82
:10582000E12E10EDF12E02E811E42EEF4CE063E0E2
:105830008D2D54DA2EEF4CE064E08D2D4FDA2EEFF3
:105840004CE065E08D2D4ADA2EEF4CE066E08D2DC0
:1058500045DA8D2D90E0FC01EE0FFF1FED55F04F66
:10586000608171819B01220F331FFC01EE0FFF1F2E
:10587000E953F04F40815181241B350BFC01EE0FA1
:10588000FF1FE158F04F31832083A901440F551FBA
:10589000461B570BFC01EE0FFF1FE55AF04F5183DB
:1058A0004083440F551FFC01EE0FFF1FE95CF04FD2
:1058B000421B530B51834083FC01EE0FFF1FE15F3E
:1058C000FF4E60817181AB01440F551FFC01EE0F4B
:1058D000FF1FE551F04F20813181421B530BFC012A
:1058E000EE0FFF1FED5CFF4E518340839A01220FA4
:1058F000331F261B370BFC01EE0FFF1FE95AFF4E2B
:1059000031832083B901660F771F641B750BFC017F
:10591000EE0FFF1FE558FF4E71836083AB01440F0C
:10592000551F421B530BDC01AA0FBB1FA156BF4ED4
:105930004D935C93440F551FDC01AA0FBB1FAD5361
:10594000BF4E80819181481B590B4D935C93CC0FC6
:10595000DD1FC45FD34F19821882DF91CF911F9151
:105960000F91FF90EF90DF900C94491614EAE12E0E
:1059700010EDF12E02E011E42DEF44E264E08D2DF4
:10598000ADD92DEF44E265E08D2DA8D92DEF44E28D
:1059900066E08D2DA3D98D2D90E0FC01EE0FFF1F49
:1059A000E953F04F608171819B01220F331F8C01FD
:1059B000000F111F0551104FD8014D915C91241B10
:1059C000350BAC01440F551F4D55504FFA01318333
:1059D0002083220F331F261B370BDC01AA0FBB1FAE
:1059E000A158B04F11963C932E93220F331F408144
:1059F0005181241B350BAC01440F551F455A504FA4
:105A0000FA0131832083220F331FAC01440F551F4D
:105A1000495C504F6D917C91261B370BDA012D9319
:105A20003C93DC01AA0FBB1FA15FBF4E6D917C911F
:105A3000AB01440F551FF8014ECFCF92DF92EF928A
:105A4000FF920F931F93CF93DF93FC01818D90E022
:105A50009927DC01AC57B94F2C91DC01AC57B84FFA
:105A6000CC90D12CE12CF12C7601DD24CC24D22A4F
:105A7000A2A5EC01CC57DA4F8881C82A0A2E04C0AF
:105A8000F694E794D794C7940A94D2F7CC0CDD1C13
:105A9000EE1CFF1CCC0CDD1CEE1CFF1CCC0CDD1C1A
:105AA000EE1CFF1CCC0CDD1CEE1CFF1CC086D1863E
:105AB000E286F386838D90E09927EC01CC57D94F8D
:105AC0004881EC01CC57D84F088110E020E030E04D
:105AD000980111270027142BEC01CC57DA4F88814D
